{
  "address": "0xe3fa387F74eb31b2e44C309324b7C5E3ee7EEA00",
  "abi": [
    {
      "inputs": [
        {
          "internalType": "address",
          "name": "_lpToken",
          "type": "address"
        }
      ],
      "stateMutability": "nonpayable",
      "type": "constructor"
    },
    {
      "anonymous": false,
      "inputs": [
        {
          "indexed": true,
          "internalType": "address",
          "name": "account",
          "type": "address"
        },
        {
          "indexed": true,
          "internalType": "address",
          "name": "_tokenIn",
          "type": "address"
        },
        {
          "indexed": false,
          "internalType": "uint256",
          "name": "_amountIn",
          "type": "uint256"
        },
        {
          "indexed": false,
          "internalType": "uint256",
          "name": "_usdAmount",
          "type": "uint256"
        }
      ],
      "name": "BuyLP",
      "type": "event"
    },
    {
      "anonymous": false,
      "inputs": [
        {
          "indexed": true,
          "internalType": "address",
          "name": "previousOwner",
          "type": "address"
        },
        {
          "indexed": true,
          "internalType": "address",
          "name": "newOwner",
          "type": "address"
        }
      ],
      "name": "OwnershipTransferred",
      "type": "event"
    },
    {
      "anonymous": false,
      "inputs": [
        {
          "indexed": false,
          "internalType": "address",
          "name": "account",
          "type": "address"
        }
      ],
      "name": "Paused",
      "type": "event"
    },
    {
      "anonymous": false,
      "inputs": [
        {
          "indexed": true,
          "internalType": "address",
          "name": "account",
          "type": "address"
        },
        {
          "indexed": true,
          "internalType": "address",
          "name": "_tokenOut",
          "type": "address"
        },
        {
          "indexed": false,
          "internalType": "uint256",
          "name": "_amountOut",
          "type": "uint256"
        },
        {
          "indexed": false,
          "internalType": "uint256",
          "name": "_usdAmount",
          "type": "uint256"
        }
      ],
      "name": "RedeemLP",
      "type": "event"
    },
    {
      "anonymous": false,
      "inputs": [
        {
          "indexed": false,
          "internalType": "address",
          "name": "account",
          "type": "address"
        }
      ],
      "name": "Unpaused",
      "type": "event"
    },
    {
      "inputs": [],
      "name": "aum",
      "outputs": [
        {
          "internalType": "uint256",
          "name": "_aum",
          "type": "uint256"
        }
      ],
      "stateMutability": "view",
      "type": "function"
    },
    {
      "inputs": [
        {
          "internalType": "address",
          "name": "_tokenIn",
          "type": "address"
        },
        {
          "internalType": "uint256",
          "name": "_amountIn",
          "type": "uint256"
        }
      ],
      "name": "buyLP",
      "outputs": [],
      "stateMutability": "payable",
      "type": "function"
    },
    {
      "inputs": [],
      "name": "cap",
      "outputs": [
        {
          "internalType": "uint256",
          "name": "",
          "type": "uint256"
        }
      ],
      "stateMutability": "view",
      "type": "function"
    },
    {
      "inputs": [],
      "name": "fee",
      "outputs": [
        {
          "internalType": "uint256",
          "name": "",
          "type": "uint256"
        }
      ],
      "stateMutability": "view",
      "type": "function"
    },
    {
      "inputs": [],
      "name": "lpPrice",
      "outputs": [
        {
          "internalType": "uint256",
          "name": "",
          "type": "uint256"
        }
      ],
      "stateMutability": "view",
      "type": "function"
    },
    {
      "inputs": [],
      "name": "lpToken",
      "outputs": [
        {
          "internalType": "contract IERC20Extended",
          "name": "",
          "type": "address"
        }
      ],
      "stateMutability": "view",
      "type": "function"
    },
    {
      "inputs": [],
      "name": "owner",
      "outputs": [
        {
          "internalType": "address",
          "name": "",
          "type": "address"
        }
      ],
      "stateMutability": "view",
      "type": "function"
    },
    {
      "inputs": [],
      "name": "paused",
      "outputs": [
        {
          "internalType": "bool",
          "name": "",
          "type": "bool"
        }
      ],
      "stateMutability": "view",
      "type": "function"
    },
    {
      "inputs": [
        {
          "internalType": "address",
          "name": "_tokenOut",
          "type": "address"
        },
        {
          "internalType": "uint256",
          "name": "_amount",
          "type": "uint256"
        }
      ],
      "name": "redeemLP",
      "outputs": [],
      "stateMutability": "payable",
      "type": "function"
    },
    {
      "inputs": [],
      "name": "renounceOwnership",
      "outputs": [],
      "stateMutability": "nonpayable",
      "type": "function"
    },
    {
      "inputs": [
        {
          "internalType": "uint256",
          "name": "_cap",
          "type": "uint256"
        }
      ],
      "name": "setCap",
      "outputs": [],
      "stateMutability": "nonpayable",
      "type": "function"
    },
    {
      "inputs": [
        {
          "internalType": "uint256",
          "name": "_fee",
          "type": "uint256"
        }
      ],
      "name": "setFee",
      "outputs": [],
      "stateMutability": "nonpayable",
      "type": "function"
    },
    {
      "inputs": [
        {
          "internalType": "bool",
          "name": "_paused",
          "type": "bool"
        }
      ],
      "name": "setPaused",
      "outputs": [],
      "stateMutability": "nonpayable",
      "type": "function"
    },
    {
      "inputs": [
        {
          "internalType": "address",
          "name": "_token",
          "type": "address"
        },
        {
          "internalType": "bool",
          "name": "_enabled",
          "type": "bool"
        }
      ],
      "name": "setWhitelistToken",
      "outputs": [],
      "stateMutability": "nonpayable",
      "type": "function"
    },
    {
      "inputs": [
        {
          "internalType": "uint256",
          "name": "",
          "type": "uint256"
        }
      ],
      "name": "tokenList",
      "outputs": [
        {
          "internalType": "address",
          "name": "",
          "type": "address"
        }
      ],
      "stateMutability": "view",
      "type": "function"
    },
    {
      "inputs": [
        {
          "internalType": "address",
          "name": "_token",
          "type": "address"
        },
        {
          "internalType": "address",
          "name": "_receiver",
          "type": "address"
        },
        {
          "internalType": "uint256",
          "name": "_amount",
          "type": "uint256"
        }
      ],
      "name": "transfer",
      "outputs": [],
      "stateMutability": "nonpayable",
      "type": "function"
    },
    {
      "inputs": [
        {
          "internalType": "address",
          "name": "newOwner",
          "type": "address"
        }
      ],
      "name": "transferOwnership",
      "outputs": [],
      "stateMutability": "nonpayable",
      "type": "function"
    },
    {
      "inputs": [
        {
          "internalType": "address",
          "name": "",
          "type": "address"
        }
      ],
      "name": "whitelistTokens",
      "outputs": [
        {
          "internalType": "bool",
          "name": "",
          "type": "bool"
        }
      ],
      "stateMutability": "view",
      "type": "function"
    }
  ],
  "transactionHash": "0x4b16afd862b4d03b8fa5e954225f55ed4cce72e6e510db6efdce0e3712cf705b",
  "args": [
    "0xcBEc049DD0a13A19454530EA9DAf98C2f230A30B"
  ],
  "numDeployments": 1,
  "solcInputHash": "8de33bd111a635093fa02f690881fbfd",
  "bytecode": "0x608060405234801561001057600080fd5b506040516117e03803806117e083398101604081905261002f916100c6565b60016000819055805460ff191690556100473361006c565b600280546001600160a01b0319166001600160a01b03929092169190911790556100f6565b600180546001600160a01b03838116610100818102610100600160a81b031985161790945560405193909204169182907f8be0079c531659141344cd1fd0a4f28419497f9722a3daafe3b4186f6b6457e090600090a35050565b6000602082840312156100d857600080fd5b81516001600160a01b03811681146100ef57600080fd5b9392505050565b6116db806101056000396000f3fe6080604052600436106100e95760003560e01c806369fe0e2d1161008557806369fe0e2d14610217578063715018a6146102375780637c374f991461024c5780638da5cb5b1461026c5780639ead722214610281578063beabacc8146102a1578063bf87c38a146102c1578063ddca3f43146102d4578063f2fde38b146102ea57600080fd5b80630ab51bac146100ee5780630c2804441461011657806316c38b3c1461012b578063355274ea1461014d57806347786d37146101635780634e7fddb1146101835780635c975abb146101965780635fb2386e146101ba5780635fcbd285146101ea575b600080fd5b3480156100fa57600080fd5b5061010361030a565b6040519081526020015b60405180910390f35b34801561012257600080fd5b506101036103e1565b34801561013757600080fd5b5061014b6101463660046112aa565b610474565b005b34801561015957600080fd5b5061010360055481565b34801561016f57600080fd5b5061014b61017e3660046112ce565b610495565b61014b610191366004611303565b6104a2565b3480156101a257600080fd5b5060015460ff165b604051901515815260200161010d565b3480156101c657600080fd5b506101aa6101d536600461132d565b60036020526000908152604090205460ff1681565b3480156101f657600080fd5b5060025461020a906001600160a01b031681565b60405161010d9190611348565b34801561022357600080fd5b5061014b6102323660046112ce565b61064b565b34801561024357600080fd5b5061014b610658565b34801561025857600080fd5b5061014b61026736600461135c565b61066c565b34801561027857600080fd5b5061020a61080c565b34801561028d57600080fd5b5061020a61029c3660046112ce565b610820565b3480156102ad57600080fd5b5061014b6102bc366004611393565b61084a565b61014b6102cf366004611303565b610866565b3480156102e057600080fd5b5061010360065481565b3480156102f657600080fd5b5061014b61030536600461132d565b610bcb565b6000805b6004548110156103dd5760006004828154811061032d5761032d6113cf565b60009182526020822001546040516370a0823160e01b81526001600160a01b03909116925082906370a0823190610368903090600401611348565b602060405180830381865afa158015610385573d6000803e3d6000fd5b505050506040513d601f19601f820116820180604052508101906103a991906113e5565b905080156103c8576103bb8282610c41565b6103c59085611414565b93505b505080806103d590611427565b91505061030e565b5090565b600254604080516318160ddd60e01b815290516000926001600160a01b0316916318160ddd9160048083019260209291908290030181865afa15801561042b573d6000803e3d6000fd5b505050506040513d601f19601f8201168201806040525081019061044f91906113e5565b61045761030a565b610465906305f5e100611440565b61046f9190611457565b905090565b61047c610ce6565b801561048d5761048a610d45565b50565b61048a610d93565b61049d610ce6565b600555565b6104aa610dcc565b600081116104d35760405162461bcd60e51b81526004016104ca90611479565b60405180910390fd5b60006104dd61030a565b90506000600260009054906101000a90046001600160a01b03166001600160a01b03166318160ddd6040518163ffffffff1660e01b8152600401602060405180830381865afa158015610534573d6000803e3d6000fd5b505050506040513d601f19601f8201168201806040525081019061055891906113e5565b6105628385611440565b61056c9190611457565b600254604051632770a7eb60e21b81529192506001600160a01b031690639dc29fac9061059f90339087906004016114c0565b600060405180830381600087803b1580156105b957600080fd5b505af11580156105cd573d6000803e3d6000fd5b5050505060006105dd8583610e25565b90506105f36001600160a01b0386163383610ec0565b60408051828152602081018490526001600160a01b0387169133917f970535925cf8289b53a403e121c4acb960a50abaa078cbd287394f0984918a4c91015b60405180910390a35050506106476001600055565b5050565b610653610ce6565b600655565b610660610ce6565b61066a6000610f16565b565b610674610ce6565b6001600160a01b0382166000908152600360205260408120805460ff1916831515179055805b6004548110156107aa57836001600160a01b0316600482815481106106c1576106c16113cf565b6000918252602090912001546001600160a01b03160361079857600191508261079257600480546106f4906001906114d9565b81548110610704576107046113cf565b600091825260209091200154600480546001600160a01b039092169183908110610730576107306113cf565b9060005260206000200160006101000a8154816001600160a01b0302191690836001600160a01b03160217905550600480548061076f5761076f6114ec565b600082815260209020810160001990810180546001600160a01b03191690550190555b50505050565b806107a281611427565b91505061069a565b50801580156107b65750815b1561080757600480546001810182556000919091527f8a35acfbc15ff81a39ae7d344fd709f28e8600b4aa8c65c6b64bfe7fe36bd19b0180546001600160a01b0319166001600160a01b0385161790555b505050565b60015461010090046001600160a01b031690565b6004818154811061083057600080fd5b6000918252602090912001546001600160a01b0316905081565b610852610ce6565b6108076001600160a01b0384168383610ec0565b61086e610dcc565b610876610f70565b600081116108965760405162461bcd60e51b81526004016104ca90611479565b6001600160a01b03821660009081526003602052604090205460ff166108fe5760405162461bcd60e51b815260206004820152601d60248201527f4c506f6f6c3a20746f6b656e206e6f7420696e2077686974656c69737400000060448201526064016104ca565b600061090861030a565b905061091f6001600160a01b038416333085610fb6565b600061092b8484610c41565b905081156109b957600254604080516318160ddd60e01b8152905184926001600160a01b0316916318160ddd9160048083019260209291908290030181865afa15801561097c573d6000803e3d6000fd5b505050506040513d601f19601f820116820180604052508101906109a091906113e5565b6109aa9083611440565b6109b49190611457565b6109bb565b805b905060055481600260009054906101000a90046001600160a01b03166001600160a01b03166318160ddd6040518163ffffffff1660e01b8152600401602060405180830381865afa158015610a14573d6000803e3d6000fd5b505050506040513d601f19601f82011682018060405250810190610a3891906113e5565b610a429190611414565b1115610a865760405162461bcd60e51b815260206004820152601360248201527213141bdbdb0e8818d85c08195e18d959591959606a1b60448201526064016104ca565b6000612710600654612710610a9b91906114d9565b610aa59084611440565b610aaf9190611457565b6002546040516340c10f1960e01b81529192506001600160a01b0316906340c10f1990610ae290339085906004016114c0565b600060405180830381600087803b158015610afc57600080fd5b505af1158015610b10573d6000803e3d6000fd5b50506002546001600160a01b031691506340c10f199050610b2f61080c565b610b3984866114d9565b6040518363ffffffff1660e01b8152600401610b569291906114c0565b600060405180830381600087803b158015610b7057600080fd5b505af1158015610b84573d6000803e3d6000fd5b505060408051878152602081018690526001600160a01b03891693503392507f5c1eaadc0597b57fad74247bbd780876efb402971959ef308c0634102faacef89101610632565b610bd3610ce6565b6001600160a01b038116610c385760405162461bcd60e51b815260206004820152602660248201527f4f776e61626c653a206e6577206f776e657220697320746865207a65726f206160448201526564647265737360d01b60648201526084016104ca565b61048a81610f16565b600080836001600160a01b031663313ce5676040518163ffffffff1660e01b8152600401602060405180830381865afa158015610c82573d6000803e3d6000fd5b505050506040513d601f19601f82011682018060405250810190610ca69190611502565b60ff16905080601203610cbc5782915050610ce0565b610cc78160126114d9565b610cd290600a611609565b610cdc9084611440565b9150505b92915050565b33610cef61080c565b6001600160a01b03161461066a5760405162461bcd60e51b815260206004820181905260248201527f4f776e61626c653a2063616c6c6572206973206e6f7420746865206f776e657260448201526064016104ca565b610d4d610f70565b6001805460ff1916811790557f62e78cea01bee320cd4e420270b5ea74000d11b0c9f74754ebdbfc544b05a258335b604051610d899190611348565b60405180910390a1565b610d9b610fee565b6001805460ff191690557f5db9ee0a495bf2e6ff9c91a7834c1ba4fdd244a5e8aa4e537bd38aeae4b073aa33610d7c565b600260005403610e1e5760405162461bcd60e51b815260206004820152601f60248201527f5265656e7472616e637947756172643a207265656e7472616e742063616c6c0060448201526064016104ca565b6002600055565b600080836001600160a01b031663313ce5676040518163ffffffff1660e01b8152600401602060405180830381865afa158015610e66573d6000803e3d6000fd5b505050506040513d601f19601f82011682018060405250810190610e8a9190611502565b60ff16905080601203610ea05782915050610ce0565b610eab8160126114d9565b610eb690600a611609565b610cdc9084611457565b6108078363a9059cbb60e01b8484604051602401610edf9291906114c0565b60408051601f198184030181529190526020810180516001600160e01b03166001600160e01b031990931692909217909152611037565b600180546001600160a01b03838116610100818102610100600160a81b031985161790945560405193909204169182907f8be0079c531659141344cd1fd0a4f28419497f9722a3daafe3b4186f6b6457e090600090a35050565b60015460ff161561066a5760405162461bcd60e51b815260206004820152601060248201526f14185d5cd8589b194e881c185d5cd95960821b60448201526064016104ca565b6040516001600160a01b03808516602483015283166044820152606481018290526107929085906323b872dd60e01b90608401610edf565b60015460ff1661066a5760405162461bcd60e51b815260206004820152601460248201527314185d5cd8589b194e881b9bdd081c185d5cd95960621b60448201526064016104ca565b600061108c826040518060400160405280602081526020017f5361666545524332303a206c6f772d6c6576656c2063616c6c206661696c6564815250856001600160a01b031661110c9092919063ffffffff16565b90508051600014806110ad5750808060200190518101906110ad9190611615565b6108075760405162461bcd60e51b815260206004820152602a60248201527f5361666545524332303a204552433230206f7065726174696f6e20646964206e6044820152691bdd081cdd58d8d9595960b21b60648201526084016104ca565b606061111b8484600085611123565b949350505050565b6060824710156111845760405162461bcd60e51b815260206004820152602660248201527f416464726573733a20696e73756666696369656e742062616c616e636520666f6044820152651c8818d85b1b60d21b60648201526084016104ca565b600080866001600160a01b031685876040516111a09190611656565b60006040518083038185875af1925050503d80600081146111dd576040519150601f19603f3d011682016040523d82523d6000602084013e6111e2565b606091505b50915091506111f3878383876111fe565b979650505050505050565b6060831561126d578251600003611266576001600160a01b0385163b6112665760405162461bcd60e51b815260206004820152601d60248201527f416464726573733a2063616c6c20746f206e6f6e2d636f6e747261637400000060448201526064016104ca565b508161111b565b61111b83838151156112825781518083602001fd5b8060405162461bcd60e51b81526004016104ca9190611672565b801515811461048a57600080fd5b6000602082840312156112bc57600080fd5b81356112c78161129c565b9392505050565b6000602082840312156112e057600080fd5b5035919050565b80356001600160a01b03811681146112fe57600080fd5b919050565b6000806040838503121561131657600080fd5b61131f836112e7565b946020939093013593505050565b60006020828403121561133f57600080fd5b6112c7826112e7565b6001600160a01b0391909116815260200190565b6000806040838503121561136f57600080fd5b611378836112e7565b915060208301356113888161129c565b809150509250929050565b6000806000606084860312156113a857600080fd5b6113b1846112e7565b92506113bf602085016112e7565b9150604084013590509250925092565b634e487b7160e01b600052603260045260246000fd5b6000602082840312156113f757600080fd5b5051919050565b634e487b7160e01b600052601160045260246000fd5b80820180821115610ce057610ce06113fe565b600060018201611439576114396113fe565b5060010190565b8082028115828204841417610ce057610ce06113fe565b60008261147457634e487b7160e01b600052601260045260246000fd5b500490565b60208082526027908201527f4c506f6f6c3a20616d6f756e74206d7573742062652067726561746572207468604082015266616e207a65726f60c81b606082015260800190565b6001600160a01b03929092168252602082015260400190565b81810381811115610ce057610ce06113fe565b634e487b7160e01b600052603160045260246000fd5b60006020828403121561151457600080fd5b815160ff811681146112c757600080fd5b600181815b80851115611560578160001904821115611546576115466113fe565b8085161561155357918102915b93841c939080029061152a565b509250929050565b60008261157757506001610ce0565b8161158457506000610ce0565b816001811461159a57600281146115a4576115c0565b6001915050610ce0565b60ff8411156115b5576115b56113fe565b50506001821b610ce0565b5060208310610133831016604e8410600b84101617156115e3575081810a610ce0565b6115ed8383611525565b8060001904821115611601576116016113fe565b029392505050565b60006112c78383611568565b60006020828403121561162757600080fd5b81516112c78161129c565b60005b8381101561164d578181015183820152602001611635565b50506000910152565b60008251611668818460208701611632565b9190910192915050565b6020815260008251806020840152611691816040850160208701611632565b601f01601f1916919091016040019291505056fea26469706673582212203cdbd1ffe8caaca288957530b68743eb2a132978c66af4b9a29d1101502b20d764736f6c63430008110033",
  "devdoc": {
    "kind": "dev",
    "methods": {
      "owner()": {
        "details": "Returns the address of the current owner."
      },
      "paused()": {
        "details": "Returns true if the contract is paused, and false otherwise."
      },
      "renounceOwnership()": {
        "details": "Leaves the contract without owner. It will not be possible to call `onlyOwner` functions. Can only be called by the current owner. NOTE: Renouncing ownership will leave the contract without an owner, thereby disabling any functionality that is only available to the owner."
      },
      "transferOwnership(address)": {
        "details": "Transfers ownership of the contract to a new account (`newOwner`). Can only be called by the current owner."
      }
    },
    "version": 1
  },
  "userdoc": {
    "kind": "user",
    "methods": {},
    "version": 1
  },
  "storageLayout": {
    "storage": [
      {
        "astId": 4820,
        "contract": "contracts/pool/LPool.sol:LPool",
        "label": "_status",
        "offset": 0,
        "slot": "0",
        "type": "t_uint256"
      },
      {
        "astId": 4719,
        "contract": "contracts/pool/LPool.sol:LPool",
        "label": "_paused",
        "offset": 0,
        "slot": "1",
        "type": "t_bool"
      },
      {
        "astId": 4596,
        "contract": "contracts/pool/LPool.sol:LPool",
        "label": "_owner",
        "offset": 1,
        "slot": "1",
        "type": "t_address"
      },
      {
        "astId": 13949,
        "contract": "contracts/pool/LPool.sol:LPool",
        "label": "lpToken",
        "offset": 0,
        "slot": "2",
        "type": "t_contract(IERC20Extended)14831"
      },
      {
        "astId": 13953,
        "contract": "contracts/pool/LPool.sol:LPool",
        "label": "whitelistTokens",
        "offset": 0,
        "slot": "3",
        "type": "t_mapping(t_address,t_bool)"
      },
      {
        "astId": 13956,
        "contract": "contracts/pool/LPool.sol:LPool",
        "label": "tokenList",
        "offset": 0,
        "slot": "4",
        "type": "t_array(t_address)dyn_storage"
      },
      {
        "astId": 13958,
        "contract": "contracts/pool/LPool.sol:LPool",
        "label": "cap",
        "offset": 0,
        "slot": "5",
        "type": "t_uint256"
      },
      {
        "astId": 13960,
        "contract": "contracts/pool/LPool.sol:LPool",
        "label": "fee",
        "offset": 0,
        "slot": "6",
        "type": "t_uint256"
      }
    ],
    "types": {
      "t_address": {
        "encoding": "inplace",
        "label": "address",
        "numberOfBytes": "20"
      },
      "t_array(t_address)dyn_storage": {
        "base": "t_address",
        "encoding": "dynamic_array",
        "label": "address[]",
        "numberOfBytes": "32"
      },
      "t_bool": {
        "encoding": "inplace",
        "label": "bool",
        "numberOfBytes": "1"
      },
      "t_contract(IERC20Extended)14831": {
        "encoding": "inplace",
        "label": "contract IERC20Extended",
        "numberOfBytes": "20"
      },
      "t_mapping(t_address,t_bool)": {
        "encoding": "mapping",
        "key": "t_address",
        "label": "mapping(address => bool)",
        "numberOfBytes": "32",
        "value": "t_bool"
      },
      "t_uint256": {
        "encoding": "inplace",
        "label": "uint256",
        "numberOfBytes": "32"
      }
    }
  }
}