{
  "address": "0x0557BA881e48F32a7af0Db63ce3dFdaC20283b78",
  "abi": [
    {
      "inputs": [
        {
          "internalType": "address",
          "name": "_admin",
          "type": "address"
        },
        {
          "internalType": "uint256",
          "name": "_buffer",
          "type": "uint256"
        },
        {
          "internalType": "address",
          "name": "_tokenManager",
          "type": "address"
        },
        {
          "internalType": "address",
          "name": "_mintReceiver",
          "type": "address"
        },
        {
          "internalType": "address",
          "name": "_zkdlpManager",
          "type": "address"
        },
        {
          "internalType": "uint256",
          "name": "_maxTokenSupply",
          "type": "uint256"
        },
        {
          "internalType": "uint256",
          "name": "_marginFeeBasisPoints",
          "type": "uint256"
        },
        {
          "internalType": "uint256",
          "name": "_maxMarginFeeBasisPoints",
          "type": "uint256"
        }
      ],
      "stateMutability": "nonpayable",
      "type": "constructor"
    },
    {
      "inputs": [],
      "name": "MAX_BUFFER",
      "outputs": [
        {
          "internalType": "uint256",
          "name": "",
          "type": "uint256"
        }
      ],
      "stateMutability": "view",
      "type": "function"
    },
    {
      "inputs": [],
      "name": "MAX_FUNDING_RATE_FACTOR",
      "outputs": [
        {
          "internalType": "uint256",
          "name": "",
          "type": "uint256"
        }
      ],
      "stateMutability": "view",
      "type": "function"
    },
    {
      "inputs": [],
      "name": "PRICE_PRECISION",
      "outputs": [
        {
          "internalType": "uint256",
          "name": "",
          "type": "uint256"
        }
      ],
      "stateMutability": "view",
      "type": "function"
    },
    {
      "inputs": [],
      "name": "admin",
      "outputs": [
        {
          "internalType": "address",
          "name": "",
          "type": "address"
        }
      ],
      "stateMutability": "view",
      "type": "function"
    },
    {
      "inputs": [
        {
          "internalType": "address",
          "name": "_token",
          "type": "address"
        },
        {
          "internalType": "address",
          "name": "_spender",
          "type": "address"
        },
        {
          "internalType": "uint256",
          "name": "_amount",
          "type": "uint256"
        }
      ],
      "name": "approve",
      "outputs": [],
      "stateMutability": "nonpayable",
      "type": "function"
    },
    {
      "inputs": [
        {
          "internalType": "address",
          "name": "_vault",
          "type": "address"
        },
        {
          "internalType": "address[]",
          "name": "_tokens",
          "type": "address[]"
        }
      ],
      "name": "batchWithdrawFees",
      "outputs": [],
      "stateMutability": "nonpayable",
      "type": "function"
    },
    {
      "inputs": [],
      "name": "buffer",
      "outputs": [
        {
          "internalType": "uint256",
          "name": "",
          "type": "uint256"
        }
      ],
      "stateMutability": "view",
      "type": "function"
    },
    {
      "inputs": [
        {
          "internalType": "bytes32",
          "name": "_action",
          "type": "bytes32"
        }
      ],
      "name": "cancelAction",
      "outputs": [],
      "stateMutability": "nonpayable",
      "type": "function"
    },
    {
      "inputs": [
        {
          "internalType": "address",
          "name": "_vault",
          "type": "address"
        },
        {
          "internalType": "address",
          "name": "_token",
          "type": "address"
        }
      ],
      "name": "clearTokenConfig",
      "outputs": [],
      "stateMutability": "nonpayable",
      "type": "function"
    },
    {
      "inputs": [
        {
          "internalType": "address",
          "name": "_vault",
          "type": "address"
        }
      ],
      "name": "disableLeverage",
      "outputs": [],
      "stateMutability": "nonpayable",
      "type": "function"
    },
    {
      "inputs": [
        {
          "internalType": "address",
          "name": "_vault",
          "type": "address"
        }
      ],
      "name": "enableLeverage",
      "outputs": [],
      "stateMutability": "nonpayable",
      "type": "function"
    },
    {
      "inputs": [
        {
          "internalType": "address",
          "name": "",
          "type": "address"
        }
      ],
      "name": "isHandler",
      "outputs": [
        {
          "internalType": "bool",
          "name": "",
          "type": "bool"
        }
      ],
      "stateMutability": "view",
      "type": "function"
    },
    {
      "inputs": [
        {
          "internalType": "address",
          "name": "",
          "type": "address"
        }
      ],
      "name": "isKeeper",
      "outputs": [
        {
          "internalType": "bool",
          "name": "",
          "type": "bool"
        }
      ],
      "stateMutability": "view",
      "type": "function"
    },
    {
      "inputs": [],
      "name": "marginFeeBasisPoints",
      "outputs": [
        {
          "internalType": "uint256",
          "name": "",
          "type": "uint256"
        }
      ],
      "stateMutability": "view",
      "type": "function"
    },
    {
      "inputs": [],
      "name": "maxMarginFeeBasisPoints",
      "outputs": [
        {
          "internalType": "uint256",
          "name": "",
          "type": "uint256"
        }
      ],
      "stateMutability": "view",
      "type": "function"
    },
    {
      "inputs": [],
      "name": "maxTokenSupply",
      "outputs": [
        {
          "internalType": "uint256",
          "name": "",
          "type": "uint256"
        }
      ],
      "stateMutability": "view",
      "type": "function"
    },
    {
      "inputs": [],
      "name": "mintReceiver",
      "outputs": [
        {
          "internalType": "address",
          "name": "",
          "type": "address"
        }
      ],
      "stateMutability": "view",
      "type": "function"
    },
    {
      "inputs": [
        {
          "internalType": "bytes32",
          "name": "",
          "type": "bytes32"
        }
      ],
      "name": "pendingActions",
      "outputs": [
        {
          "internalType": "uint256",
          "name": "",
          "type": "uint256"
        }
      ],
      "stateMutability": "view",
      "type": "function"
    },
    {
      "inputs": [
        {
          "internalType": "address",
          "name": "_token",
          "type": "address"
        },
        {
          "internalType": "address",
          "name": "_receiver",
          "type": "address"
        },
        {
          "internalType": "uint256",
          "name": "_amount",
          "type": "uint256"
        }
      ],
      "name": "processMint",
      "outputs": [],
      "stateMutability": "nonpayable",
      "type": "function"
    },
    {
      "inputs": [
        {
          "internalType": "address",
          "name": "_vault",
          "type": "address"
        },
        {
          "internalType": "address",
          "name": "_token",
          "type": "address"
        },
        {
          "internalType": "uint256",
          "name": "_amount",
          "type": "uint256"
        }
      ],
      "name": "redeemZkusd",
      "outputs": [],
      "stateMutability": "nonpayable",
      "type": "function"
    },
    {
      "inputs": [
        {
          "internalType": "address",
          "name": "_token",
          "type": "address"
        },
        {
          "internalType": "address",
          "name": "_account",
          "type": "address"
        }
      ],
      "name": "removeAdmin",
      "outputs": [],
      "stateMutability": "nonpayable",
      "type": "function"
    },
    {
      "inputs": [
        {
          "internalType": "address",
          "name": "_admin",
          "type": "address"
        }
      ],
      "name": "setAdmin",
      "outputs": [],
      "stateMutability": "nonpayable",
      "type": "function"
    },
    {
      "inputs": [
        {
          "internalType": "address",
          "name": "_vault",
          "type": "address"
        },
        {
          "internalType": "bool",
          "name": "_allowStaleEquityPrice",
          "type": "bool"
        }
      ],
      "name": "setAllowStableEquity",
      "outputs": [],
      "stateMutability": "nonpayable",
      "type": "function"
    },
    {
      "inputs": [
        {
          "internalType": "uint256",
          "name": "_buffer",
          "type": "uint256"
        }
      ],
      "name": "setBuffer",
      "outputs": [],
      "stateMutability": "nonpayable",
      "type": "function"
    },
    {
      "inputs": [
        {
          "internalType": "address",
          "name": "_vault",
          "type": "address"
        },
        {
          "internalType": "address[]",
          "name": "_tokens",
          "type": "address[]"
        },
        {
          "internalType": "uint256[]",
          "name": "_bufferAmounts",
          "type": "uint256[]"
        }
      ],
      "name": "setBufferAmounts",
      "outputs": [],
      "stateMutability": "nonpayable",
      "type": "function"
    },
    {
      "inputs": [
        {
          "internalType": "address",
          "name": "_handler",
          "type": "address"
        },
        {
          "internalType": "bool",
          "name": "_isActive",
          "type": "bool"
        }
      ],
      "name": "setContractHandler",
      "outputs": [],
      "stateMutability": "nonpayable",
      "type": "function"
    },
    {
      "inputs": [
        {
          "internalType": "address",
          "name": "_target",
          "type": "address"
        },
        {
          "internalType": "address",
          "name": "_admin",
          "type": "address"
        }
      ],
      "name": "setExternalAdmin",
      "outputs": [],
      "stateMutability": "nonpayable",
      "type": "function"
    },
    {
      "inputs": [
        {
          "internalType": "address",
          "name": "_vault",
          "type": "address"
        },
        {
          "internalType": "uint256",
          "name": "_taxBasisPoints",
          "type": "uint256"
        },
        {
          "internalType": "uint256",
          "name": "_stableTaxBasisPoints",
          "type": "uint256"
        },
        {
          "internalType": "uint256",
          "name": "_mintBurnFeeBasisPoints",
          "type": "uint256"
        },
        {
          "internalType": "uint256",
          "name": "_swapFeeBasisPoints",
          "type": "uint256"
        },
        {
          "internalType": "uint256",
          "name": "_stableSwapFeeBasisPoints",
          "type": "uint256"
        },
        {
          "internalType": "uint256",
          "name": "_marginFeeBasisPoints",
          "type": "uint256"
        },
        {
          "internalType": "uint256",
          "name": "_liquidationFeeUsd",
          "type": "uint256"
        },
        {
          "internalType": "uint256",
          "name": "_minProfitTime",
          "type": "uint256"
        },
        {
          "internalType": "bool",
          "name": "_hasDynamicFees",
          "type": "bool"
        }
      ],
      "name": "setFees",
      "outputs": [],
      "stateMutability": "nonpayable",
      "type": "function"
    },
    {
      "inputs": [
        {
          "internalType": "address",
          "name": "_vault",
          "type": "address"
        },
        {
          "internalType": "uint256",
          "name": "_fundingInterval",
          "type": "uint256"
        },
        {
          "internalType": "uint256",
          "name": "_fundingRateFactor",
          "type": "uint256"
        },
        {
          "internalType": "uint256",
          "name": "_stableFundingRateFactor",
          "type": "uint256"
        }
      ],
      "name": "setFundingRate",
      "outputs": [],
      "stateMutability": "nonpayable",
      "type": "function"
    },
    {
      "inputs": [
        {
          "internalType": "address",
          "name": "_target",
          "type": "address"
        },
        {
          "internalType": "address",
          "name": "_gov",
          "type": "address"
        }
      ],
      "name": "setGov",
      "outputs": [],
      "stateMutability": "nonpayable",
      "type": "function"
    },
    {
      "inputs": [
        {
          "internalType": "address",
          "name": "_target",
          "type": "address"
        },
        {
          "internalType": "address",
          "name": "_handler",
          "type": "address"
        },
        {
          "internalType": "bool",
          "name": "_isActive",
          "type": "bool"
        }
      ],
      "name": "setHandler",
      "outputs": [],
      "stateMutability": "nonpayable",
      "type": "function"
    },
    {
      "inputs": [
        {
          "internalType": "address",
          "name": "_vault",
          "type": "address"
        },
        {
          "internalType": "bool",
          "name": "_inPrivateLiquidationMode",
          "type": "bool"
        }
      ],
      "name": "setInPrivateLiquidationMode",
      "outputs": [],
      "stateMutability": "nonpayable",
      "type": "function"
    },
    {
      "inputs": [
        {
          "internalType": "address",
          "name": "_token",
          "type": "address"
        },
        {
          "internalType": "bool",
          "name": "_inPrivateTransferMode",
          "type": "bool"
        }
      ],
      "name": "setInPrivateTransferMode",
      "outputs": [],
      "stateMutability": "nonpayable",
      "type": "function"
    },
    {
      "inputs": [
        {
          "internalType": "address",
          "name": "_vault",
          "type": "address"
        },
        {
          "internalType": "bool",
          "name": "_isLeverageEnabled",
          "type": "bool"
        }
      ],
      "name": "setIsLeverageEnabled",
      "outputs": [],
      "stateMutability": "nonpayable",
      "type": "function"
    },
    {
      "inputs": [
        {
          "internalType": "address",
          "name": "_vault",
          "type": "address"
        },
        {
          "internalType": "bool",
          "name": "_isSwapEnabled",
          "type": "bool"
        }
      ],
      "name": "setIsSwapEnabled",
      "outputs": [],
      "stateMutability": "nonpayable",
      "type": "function"
    },
    {
      "inputs": [
        {
          "internalType": "address",
          "name": "_keeper",
          "type": "address"
        },
        {
          "internalType": "bool",
          "name": "_isActive",
          "type": "bool"
        }
      ],
      "name": "setKeeper",
      "outputs": [],
      "stateMutability": "nonpayable",
      "type": "function"
    },
    {
      "inputs": [
        {
          "internalType": "address",
          "name": "_vault",
          "type": "address"
        },
        {
          "internalType": "address",
          "name": "_liquidator",
          "type": "address"
        },
        {
          "internalType": "bool",
          "name": "_isActive",
          "type": "bool"
        }
      ],
      "name": "setLiquidator",
      "outputs": [],
      "stateMutability": "nonpayable",
      "type": "function"
    },
    {
      "inputs": [
        {
          "internalType": "uint256",
          "name": "_marginFeeBasisPoints",
          "type": "uint256"
        },
        {
          "internalType": "uint256",
          "name": "_maxMarginFeeBasisPoints",
          "type": "uint256"
        }
      ],
      "name": "setMarginFeeBasisPoints",
      "outputs": [],
      "stateMutability": "nonpayable",
      "type": "function"
    },
    {
      "inputs": [
        {
          "internalType": "address",
          "name": "_vault",
          "type": "address"
        },
        {
          "internalType": "uint256",
          "name": "_maxGasPrice",
          "type": "uint256"
        }
      ],
      "name": "setMaxGasPrice",
      "outputs": [],
      "stateMutability": "nonpayable",
      "type": "function"
    },
    {
      "inputs": [
        {
          "internalType": "address",
          "name": "_vault",
          "type": "address"
        },
        {
          "internalType": "address",
          "name": "_token",
          "type": "address"
        },
        {
          "internalType": "uint256",
          "name": "_amount",
          "type": "uint256"
        }
      ],
      "name": "setMaxGlobalShortSize",
      "outputs": [],
      "stateMutability": "nonpayable",
      "type": "function"
    },
    {
      "inputs": [
        {
          "internalType": "address",
          "name": "_vault",
          "type": "address"
        },
        {
          "internalType": "uint256",
          "name": "_maxLeverage",
          "type": "uint256"
        }
      ],
      "name": "setMaxLeverage",
      "outputs": [],
      "stateMutability": "nonpayable",
      "type": "function"
    },
    {
      "inputs": [
        {
          "internalType": "address",
          "name": "_vault",
          "type": "address"
        },
        {
          "internalType": "uint256",
          "name": "_minProfitTime",
          "type": "uint256"
        }
      ],
      "name": "setMinProfitTime",
      "outputs": [],
      "stateMutability": "nonpayable",
      "type": "function"
    },
    {
      "inputs": [
        {
          "internalType": "address",
          "name": "_vault",
          "type": "address"
        },
        {
          "internalType": "address",
          "name": "_priceFeed",
          "type": "address"
        }
      ],
      "name": "setPriceFeed",
      "outputs": [],
      "stateMutability": "nonpayable",
      "type": "function"
    },
    {
      "inputs": [
        {
          "internalType": "bool",
          "name": "_shouldToggleIsLeverageEnabled",
          "type": "bool"
        }
      ],
      "name": "setShouldToggleIsLeverageEnabled",
      "outputs": [],
      "stateMutability": "nonpayable",
      "type": "function"
    },
    {
      "inputs": [
        {
          "internalType": "address",
          "name": "_vault",
          "type": "address"
        },
        {
          "internalType": "uint256",
          "name": "_taxBasisPoints",
          "type": "uint256"
        },
        {
          "internalType": "uint256",
          "name": "_stableTaxBasisPoints",
          "type": "uint256"
        },
        {
          "internalType": "uint256",
          "name": "_mintBurnFeeBasisPoints",
          "type": "uint256"
        },
        {
          "internalType": "uint256",
          "name": "_swapFeeBasisPoints",
          "type": "uint256"
        },
        {
          "internalType": "uint256",
          "name": "_stableSwapFeeBasisPoints",
          "type": "uint256"
        }
      ],
      "name": "setSwapFees",
      "outputs": [],
      "stateMutability": "nonpayable",
      "type": "function"
    },
    {
      "inputs": [
        {
          "internalType": "address",
          "name": "_vault",
          "type": "address"
        },
        {
          "internalType": "address",
          "name": "_token",
          "type": "address"
        },
        {
          "internalType": "uint256",
          "name": "_tokenDecimals",
          "type": "uint256"
        },
        {
          "internalType": "uint256",
          "name": "_tokenWeight",
          "type": "uint256"
        },
        {
          "internalType": "uint256",
          "name": "_minProfitBps",
          "type": "uint256"
        },
        {
          "internalType": "uint256",
          "name": "_maxZkusdAmount",
          "type": "uint256"
        },
        {
          "internalType": "bool",
          "name": "_isStable",
          "type": "bool"
        },
        {
          "internalType": "bool",
          "name": "_isShortable",
          "type": "bool"
        },
        {
          "internalType": "bool",
          "name": "_isEquity",
          "type": "bool"
        }
      ],
      "name": "setTokenConfig",
      "outputs": [],
      "stateMutability": "nonpayable",
      "type": "function"
    },
    {
      "inputs": [
        {
          "internalType": "address",
          "name": "_vault",
          "type": "address"
        },
        {
          "internalType": "contract IVaultUtils",
          "name": "_vaultUtils",
          "type": "address"
        }
      ],
      "name": "setVaultUtils",
      "outputs": [],
      "stateMutability": "nonpayable",
      "type": "function"
    },
    {
      "inputs": [
        {
          "internalType": "address",
          "name": "_zkdlpManager",
          "type": "address"
        }
      ],
      "name": "setZkdlpManager",
      "outputs": [],
      "stateMutability": "nonpayable",
      "type": "function"
    },
    {
      "inputs": [
        {
          "internalType": "address",
          "name": "_vault",
          "type": "address"
        },
        {
          "internalType": "address[]",
          "name": "_tokens",
          "type": "address[]"
        },
        {
          "internalType": "uint256[]",
          "name": "_zkusdAmounts",
          "type": "uint256[]"
        }
      ],
      "name": "setZkusdAmounts",
      "outputs": [],
      "stateMutability": "nonpayable",
      "type": "function"
    },
    {
      "inputs": [
        {
          "internalType": "address",
          "name": "_vault",
          "type": "address"
        },
        {
          "internalType": "address",
          "name": "_zusd",
          "type": "address"
        }
      ],
      "name": "setZusd",
      "outputs": [],
      "stateMutability": "nonpayable",
      "type": "function"
    },
    {
      "inputs": [],
      "name": "shouldToggleIsLeverageEnabled",
      "outputs": [
        {
          "internalType": "bool",
          "name": "",
          "type": "bool"
        }
      ],
      "stateMutability": "view",
      "type": "function"
    },
    {
      "inputs": [
        {
          "internalType": "address",
          "name": "_token",
          "type": "address"
        },
        {
          "internalType": "address",
          "name": "_spender",
          "type": "address"
        },
        {
          "internalType": "uint256",
          "name": "_amount",
          "type": "uint256"
        }
      ],
      "name": "signalApprove",
      "outputs": [],
      "stateMutability": "nonpayable",
      "type": "function"
    },
    {
      "inputs": [
        {
          "internalType": "address",
          "name": "_token",
          "type": "address"
        },
        {
          "internalType": "address",
          "name": "_receiver",
          "type": "address"
        },
        {
          "internalType": "uint256",
          "name": "_amount",
          "type": "uint256"
        }
      ],
      "name": "signalMint",
      "outputs": [],
      "stateMutability": "nonpayable",
      "type": "function"
    },
    {
      "inputs": [
        {
          "internalType": "address",
          "name": "_vault",
          "type": "address"
        },
        {
          "internalType": "address",
          "name": "_token",
          "type": "address"
        },
        {
          "internalType": "uint256",
          "name": "_amount",
          "type": "uint256"
        }
      ],
      "name": "signalRedeemZkusd",
      "outputs": [],
      "stateMutability": "nonpayable",
      "type": "function"
    },
    {
      "inputs": [
        {
          "internalType": "address",
          "name": "_target",
          "type": "address"
        },
        {
          "internalType": "address",
          "name": "_gov",
          "type": "address"
        }
      ],
      "name": "signalSetGov",
      "outputs": [],
      "stateMutability": "nonpayable",
      "type": "function"
    },
    {
      "inputs": [
        {
          "internalType": "address",
          "name": "_target",
          "type": "address"
        },
        {
          "internalType": "address",
          "name": "_handler",
          "type": "address"
        },
        {
          "internalType": "bool",
          "name": "_isActive",
          "type": "bool"
        }
      ],
      "name": "signalSetHandler",
      "outputs": [],
      "stateMutability": "nonpayable",
      "type": "function"
    },
    {
      "inputs": [
        {
          "internalType": "address",
          "name": "_vault",
          "type": "address"
        },
        {
          "internalType": "address",
          "name": "_priceFeed",
          "type": "address"
        }
      ],
      "name": "signalSetPriceFeed",
      "outputs": [],
      "stateMutability": "nonpayable",
      "type": "function"
    },
    {
      "inputs": [
        {
          "internalType": "address",
          "name": "_target",
          "type": "address"
        },
        {
          "internalType": "address",
          "name": "_token",
          "type": "address"
        },
        {
          "internalType": "address",
          "name": "_receiver",
          "type": "address"
        },
        {
          "internalType": "uint256",
          "name": "_amount",
          "type": "uint256"
        }
      ],
      "name": "signalWithdrawToken",
      "outputs": [],
      "stateMutability": "nonpayable",
      "type": "function"
    },
    {
      "inputs": [],
      "name": "tokenManager",
      "outputs": [
        {
          "internalType": "address",
          "name": "",
          "type": "address"
        }
      ],
      "stateMutability": "view",
      "type": "function"
    },
    {
      "inputs": [
        {
          "internalType": "address",
          "name": "_sender",
          "type": "address"
        },
        {
          "internalType": "address",
          "name": "_token",
          "type": "address"
        },
        {
          "internalType": "uint256",
          "name": "_amount",
          "type": "uint256"
        }
      ],
      "name": "transferIn",
      "outputs": [],
      "stateMutability": "nonpayable",
      "type": "function"
    },
    {
      "inputs": [
        {
          "internalType": "uint256",
          "name": "zkusdAmount",
          "type": "uint256"
        }
      ],
      "name": "updateZkusdSupply",
      "outputs": [],
      "stateMutability": "nonpayable",
      "type": "function"
    },
    {
      "inputs": [
        {
          "internalType": "address",
          "name": "_vault",
          "type": "address"
        },
        {
          "internalType": "address",
          "name": "_token",
          "type": "address"
        },
        {
          "internalType": "address",
          "name": "_receiver",
          "type": "address"
        }
      ],
      "name": "withdrawFees",
      "outputs": [],
      "stateMutability": "nonpayable",
      "type": "function"
    },
    {
      "inputs": [
        {
          "internalType": "address",
          "name": "_target",
          "type": "address"
        },
        {
          "internalType": "address",
          "name": "_token",
          "type": "address"
        },
        {
          "internalType": "address",
          "name": "_receiver",
          "type": "address"
        },
        {
          "internalType": "uint256",
          "name": "_amount",
          "type": "uint256"
        }
      ],
      "name": "withdrawToken",
      "outputs": [],
      "stateMutability": "nonpayable",
      "type": "function"
    },
    {
      "inputs": [],
      "name": "zkdlpManager",
      "outputs": [
        {
          "internalType": "address",
          "name": "",
          "type": "address"
        }
      ],
      "stateMutability": "view",
      "type": "function"
    }
  ],
  "transactionHash": "0x6178b8ff7f6e68042f7fa84d9e94923fde53f3c4d97e8175a5d7a1163433c507",
  "args": [
    "0xafc183BE937367B219F9283916d352f2C03ff512",
    60,
    "0x0000000000000000000000000000000000000000",
    "0xafc183BE937367B219F9283916d352f2C03ff512",
    "0xafc183BE937367B219F9283916d352f2C03ff512",
    "1000000000000000000000",
    5,
    500
  ],
  "numDeployments": 1,
  "solcInputHash": "dfd549272a67d32b40d2afebc3e64372",
  "bytecode": "0x60806040523480156200001157600080fd5b506040516200524d3803806200524d83398181016040526101008110156200003857600080fd5b5080516020808301516040808501516060860151608087015160a088015160c089015160e0909901518551808701909652601986527f54696d656c6f636b3a20696e76616c6964205f62756666657200000000000000978601979097529697949692959194909390919062069780881115620001355760405162461bcd60e51b81526004018080602001828103825283818151815260200191508051906020019080838360005b83811015620000f9578181015183820152602001620000df565b50505050905090810190601f168015620001275780820380516001836020036101000a031916815260200191505b509250505060405180910390fd5b50600480546001600160a01b03998a1661010002610100600160a81b0319909116179055600096909655600580549588166001600160a01b031996871617905560068054948816948616949094179093556007805492909616919093161790935560015560029190915560035561509b80620001b26000396000f3fe608060405234801561001057600080fd5b506004361061034f5760003560e01c806380894d62116101bf578063c7bb26a0116100fa578063e21b45911161009d578063e21b459114610e85578063e30569e514610ea8578063e4652f4914610ec5578063e58b073a14610efb578063e8ae227114610f31578063edaafe2014610fe2578063f1aade0714610fea578063f851a4401461104c5761034f565b8063c7bb26a014610d15578063cd2b123014610d1d578063d1b9e85314610d4b578063d3c87bbb14610d79578063da76231614610d9f578063dce6e18d14610de3578063df3a66d914610e19578063e1f21c6714610e4f5761034f565b806395082d251161016257806395082d2514610bf2578063996a7a1e14610bfa578063996e2bc914610c28578063adc7ea3714610c30578063b6dd06cf14610c4d578063bc476dfd14610c83578063bc8a8ab914610cb1578063c6ed874b14610ce75761034f565b806380894d62146109bc57806386803c72146109ea578063896edaba14610a185780638a39735a14610a465780638a5c0e3714610a4e5780638bf22c4614610a745780638e34c98f14610aa057806394da088214610abf5761034f565b806346ea87af1161028f5780636d63c1d0116102325780636d63c1d0146108735780636e5227d4146108995780636eb98227146108fa578063704b6c0214610917578063752005c11461093d57806376e1128614610945578063781cc3d3146109735780637b6f775a146109905761034f565b806346ea87af1461074757806347de43e21461076d5780634cd23f3b146107a557806350f7c204146107e157806351a6de0d146107e957806355ef13951461081757806361d07569146108455780636ba42aaa1461084d5761034f565b806321754d9e116102f757806321754d9e146105e557806321bd059214610621578063227f03eb1461064f57806323aaad121461068757806324ccbe30146106a3578063268959e5146106db5780632a709b1414610709578063318bc6891461072d5761034f565b80629ebf051461035457806303b1b1661461038457806309cc9a08146104b75780630e9587f3146104ed5780631154e80814610525578063117cf2041461055d57806316a66eab1461058b578063185051c1146105b7575b600080fd5b6103826004803603604081101561036a57600080fd5b506001600160a01b0381358116916020013516611054565b005b6103826004803603606081101561039a57600080fd5b6001600160a01b038235169190810190604081016020820135600160201b8111156103c457600080fd5b8201836020820111156103d657600080fd5b803590602001918460208302840111600160201b831117156103f757600080fd5b9190808060200260200160405190810160405280939291908181526020018383602002808284376000920191909152509295949360208101935035915050600160201b81111561044657600080fd5b82018360208201111561045857600080fd5b803590602001918460208302840111600160201b8311171561047957600080fd5b9190808060200260200160405190810160405280939291908181526020018383602002808284376000920191909152509295506110bf945050505050565b610382600480360360608110156104cd57600080fd5b506001600160a01b038135811691602081013590911690604001356111f8565b6103826004803603606081101561050357600080fd5b506001600160a01b0381358116916020810135821691604090910135166112fc565b6103826004803603606081101561053b57600080fd5b506001600160a01b0381358116916020810135909116906040013515156113df565b6103826004803603604081101561057357600080fd5b506001600160a01b0381351690602001351515611515565b610382600480360360408110156105a157600080fd5b506001600160a01b0381351690602001356115e3565b610382600480360360408110156105cd57600080fd5b506001600160a01b03813516906020013515156116af565b610382600480360360808110156105fb57600080fd5b506001600160a01b0381358116916020810135821691604082013516906060013561172c565b6103826004803603604081101561063757600080fd5b506001600160a01b038135169060200135151561187c565b6103826004803603608081101561066557600080fd5b506001600160a01b038135169060208101359060408101359060600135611916565b61068f611b07565b604080519115158252519081900360200190f35b610382600480360360608110156106b957600080fd5b506001600160a01b038135811691602081013590911690604001351515611b10565b610382600480360360408110156106f157600080fd5b506001600160a01b0381358116916020013516611c1e565b610711611cbf565b604080516001600160a01b039092168252519081900360200190f35b610735611cce565b60408051918252519081900360200190f35b61068f6004803603602081101561075d57600080fd5b50356001600160a01b0316611cd4565b6103826004803603606081101561078357600080fd5b506001600160a01b038135811691602081013590911690604001351515611ce9565b610382600480360360808110156107bb57600080fd5b506001600160a01b03813581169160208101358216916040820135169060600135611db1565b610735611ed1565b610382600480360360408110156107ff57600080fd5b506001600160a01b0381358116916020013516611ed7565b6103826004803603604081101561082d57600080fd5b506001600160a01b0381358116916020013516611fd6565b610735612100565b61068f6004803603602081101561086357600080fd5b50356001600160a01b0316612107565b6103826004803603602081101561088957600080fd5b50356001600160a01b031661211c565b61038260048036036101408110156108b057600080fd5b506001600160a01b038135169060208101359060408101359060608101359060808101359060a08101359060c08101359060e08101359061010081013590610120013515156125d7565b6103826004803603602081101561091057600080fd5b503561270c565b6103826004803603602081101561092d57600080fd5b50356001600160a01b0316612a34565b610711612aae565b6103826004803603604081101561095b57600080fd5b506001600160a01b0381358116916020013516612abd565b6103826004803603602081101561098957600080fd5b5035612bc1565b610382600480360360408110156109a657600080fd5b506001600160a01b038135169060200135612c1f565b610382600480360360408110156109d257600080fd5b506001600160a01b0381358116916020013516612cb7565b61038260048036036040811015610a0057600080fd5b506001600160a01b0381351690602001351515612db2565b61038260048036036040811015610a2e57600080fd5b506001600160a01b0381358116916020013516612e4c565b610735612f06565b61038260048036036020811015610a6457600080fd5b50356001600160a01b0316612f0c565b61038260048036036040811015610a8a57600080fd5b506001600160a01b038135169060200135612f80565b61038260048036036020811015610ab657600080fd5b50351515613097565b61038260048036036060811015610ad557600080fd5b6001600160a01b038235169190810190604081016020820135600160201b811115610aff57600080fd5b820183602082011115610b1157600080fd5b803590602001918460208302840111600160201b83111715610b3257600080fd5b9190808060200260200160405190810160405280939291908181526020018383602002808284376000920191909152509295949360208101935035915050600160201b811115610b8157600080fd5b820183602082011115610b9357600080fd5b803590602001918460208302840111600160201b83111715610bb457600080fd5b919080806020026020016040519081016040528093929190818152602001838360200280828437600092019190915250929550613116945050505050565b610735613249565b61038260048036036040811015610c1057600080fd5b506001600160a01b038135811691602001351661325a565b610735613350565b61038260048036036020811015610c4657600080fd5b5035613356565b61038260048036036060811015610c6357600080fd5b506001600160a01b0381358116916020810135909116906040013561349b565b61038260048036036040811015610c9957600080fd5b506001600160a01b038135811691602001351661389f565b61038260048036036060811015610cc757600080fd5b506001600160a01b03813581169160208101359091169060400135613940565b61038260048036036040811015610cfd57600080fd5b506001600160a01b0381351690602001351515613a01565b610711613acf565b61038260048036036040811015610d3357600080fd5b506001600160a01b0381351690602001351515613ade565b61038260048036036040811015610d6157600080fd5b506001600160a01b0381351690602001351515613b92565b61038260048036036020811015610d8f57600080fd5b50356001600160a01b0316613c0f565b610382600480360360c0811015610db557600080fd5b506001600160a01b038135169060208101359060408101359060608101359060808101359060a00135613f4e565b61038260048036036060811015610df957600080fd5b506001600160a01b038135811691602081013590911690604001356141c4565b61038260048036036060811015610e2f57600080fd5b506001600160a01b038135811691602081013590911690604001356142cb565b61038260048036036060811015610e6557600080fd5b506001600160a01b03813581169160208101359091169060400135614374565b61038260048036036040811015610e9b57600080fd5b50803590602001356144ae565b61073560048036036020811015610ebe57600080fd5b5035614525565b61038260048036036060811015610edb57600080fd5b506001600160a01b03813581169160208101359091169060400135614537565b61038260048036036060811015610f1157600080fd5b506001600160a01b038135811691602081013590911690604001356145e2565b61038260048036036040811015610f4757600080fd5b6001600160a01b038235169190810190604081016020820135600160201b811115610f7157600080fd5b820183602082011115610f8357600080fd5b803590602001918460208302840111600160201b83111715610fa457600080fd5b9190808060200260200160405190810160405280939291908181526020018383602002808284376000920191909152509295506146e6945050505050565b610735614839565b610382600480360361012081101561100157600080fd5b506001600160a01b03813581169160208101359091169060408101359060608101359060808101359060a08101359060c081013515159060e08101351515906101000135151561483f565b610711614968565b816001600160a01b031663e67f59a7826040518263ffffffff1660e01b815260040180826001600160a01b03168152602001915050600060405180830381600087803b1580156110a357600080fd5b505af11580156110b7573d6000803e3d6000fd5b505050505050565b60045461010090046001600160a01b03163314806110ec57503360009081526009602052604090205460ff165b806111065750336000908152600a602052604090205460ff165b611145576040805162461bcd60e51b81526020600482015260136024820152600080516020614ffb833981519152604482015290519081900360640190fd5b60005b82518110156111f257836001600160a01b0316638585f4d284838151811061116c57fe5b602002602001015184848151811061118057fe5b60200260200101516040518363ffffffff1660e01b815260040180836001600160a01b0316815260200182815260200192505050600060405180830381600087803b1580156111ce57600080fd5b505af11580156111e2573d6000803e3d6000fd5b5050600190920191506111489050565b50505050565b60045461010090046001600160a01b0316331461124a576040805162461bcd60e51b81526020600482015260136024820152600080516020614ffb833981519152604482015290519081900360640190fd5b60408051631b5a5b9d60e21b6020808301919091526001600160601b0319606087811b8216602485015286901b166038830152604c80830185905283518084039091018152606c90920190925280519101206112a58161497c565b604080516001600160a01b038087168252851660208201528082018490526060810183905290517f23d37bec99db82564427c9bbfe48ad7434bccf413a40fd357fb838c90a0d68289181900360800190a150505050565b60045461010090046001600160a01b0316331461134e576040805162461bcd60e51b81526020600482015260136024820152600080516020614ffb833981519152604482015290519081900360640190fd5b826001600160a01b031663f255527883836040518363ffffffff1660e01b815260040180836001600160a01b03168152602001826001600160a01b0316815260200192505050602060405180830381600087803b1580156113ae57600080fd5b505af11580156113c2573d6000803e3d6000fd5b505050506040513d60208110156113d857600080fd5b5050505050565b60045461010090046001600160a01b03163314611431576040805162461bcd60e51b81526020600482015260136024820152600080516020614ffb833981519152604482015290519081900360640190fd5b604080516939b2ba2430b7323632b960b11b6020808301919091526001600160601b0319606087811b8216602a85015286901b16603e83015283151560f81b6052830152825160338184030181526053909201909252805191012061149581614a52565b61149e81614b6c565b836001600160a01b0316639cb7de4b84846040518363ffffffff1660e01b815260040180836001600160a01b03168152602001821515815260200192505050600060405180830381600087803b1580156114f757600080fd5b505af115801561150b573d6000803e3d6000fd5b5050505050505050565b60045461010090046001600160a01b031633148061154257503360009081526009602052604090205460ff165b8061155c5750336000908152600a602052604090205460ff165b61159b576040805162461bcd60e51b81526020600482015260136024820152600080516020614ffb833981519152604482015290519081900360640190fd5b816001600160a01b03166330455ede826040518263ffffffff1660e01b8152600401808215158152602001915050600060405180830381600087803b1580156110a357600080fd5b60045461010090046001600160a01b031633148061161057503360009081526009602052604090205460ff165b8061162a5750336000908152600a602052604090205460ff165b611669576040805162461bcd60e51b81526020600482015260136024820152600080516020614ffb833981519152604482015290519081900360640190fd5b816001600160a01b03166380975051826040518263ffffffff1660e01b815260040180828152602001915050600060405180830381600087803b1580156110a357600080fd5b60045461010090046001600160a01b03163314611701576040805162461bcd60e51b81526020600482015260136024820152600080516020614ffb833981519152604482015290519081900360640190fd5b6001600160a01b03919091166000908152600960205260409020805460ff1916911515919091179055565b60045461010090046001600160a01b0316331461177e576040805162461bcd60e51b81526020600482015260136024820152600080516020614ffb833981519152604482015290519081900360640190fd5b604080516c3bb4ba34323930bbaa37b5b2b760991b6020808301919091526001600160601b0319606088811b8216602d85015287811b8216604185015286901b166055830152606980830185905283518084039091018152608990920190925280519101206117ec81614a52565b6117f581614b6c565b846001600160a01b03166301e336678585856040518463ffffffff1660e01b815260040180846001600160a01b03168152602001836001600160a01b031681526020018281526020019350505050600060405180830381600087803b15801561185d57600080fd5b505af1158015611871573d6000803e3d6000fd5b505050505050505050565b60045461010090046001600160a01b031633146118ce576040805162461bcd60e51b81526020600482015260136024820152600080516020614ffb833981519152604482015290519081900360640190fd5b816001600160a01b031663f07bbf77826040518263ffffffff1660e01b8152600401808215158152602001915050600060405180830381600087803b1580156110a357600080fd5b60045461010090046001600160a01b031633148061194357503360009081526009602052604090205460ff165b8061195d5750336000908152600a602052604090205460ff165b61199c576040805162461bcd60e51b81526020600482015260136024820152600080516020614ffb833981519152604482015290519081900360640190fd5b612710821115604051806060016040528060248152602001614f6d6024913990611a445760405162461bcd60e51b81526004018080602001828103825283818151815260200191508051906020019080838360005b83811015611a095781810151838201526020016119f1565b50505050905090810190601f168015611a365780820380516001836020036101000a031916815260200191505b509250505060405180910390fd5b506127108111156040518060600160405280602a815260200161503c602a913990611ab05760405162461bcd60e51b8152602060048201818152835160248401528351909283926044909101919085019080838360008315611a095781810151838201526020016119f1565b50836001600160a01b0316638a27d4688484846040518463ffffffff1660e01b8152600401808481526020018381526020018281526020019350505050600060405180830381600087803b1580156114f757600080fd5b60045460ff1681565b60045461010090046001600160a01b03163314611b62576040805162461bcd60e51b81526020600482015260136024820152600080516020614ffb833981519152604482015290519081900360640190fd5b604080516939b2ba2430b7323632b960b11b6020808301919091526001600160601b0319606087811b8216602a85015286901b16603e83015283151560f81b60528301528251603381840301815260539092019092528051910120611bc68161497c565b604080516001600160a01b03808716825285166020820152831515818301526060810183905290517f1929c4e13b0dbbad7856b9ce1fc9dca98c7bf7cedd56e22c04dd60ad1d34fe4b9181900360800190a150505050565b60045461010090046001600160a01b03163314611c70576040805162461bcd60e51b81526020600482015260136024820152600080516020614ffb833981519152604482015290519081900360640190fd5b816001600160a01b0316631785f53c826040518263ffffffff1660e01b815260040180826001600160a01b03168152602001915050600060405180830381600087803b1580156110a357600080fd5b6005546001600160a01b031681565b60025481565b60096020526000908152604090205460ff1681565b60045461010090046001600160a01b03163314611d3b576040805162461bcd60e51b81526020600482015260136024820152600080516020614ffb833981519152604482015290519081900360640190fd5b826001600160a01b0316634453a37483836040518363ffffffff1660e01b815260040180836001600160a01b03168152602001821515815260200192505050600060405180830381600087803b158015611d9457600080fd5b505af1158015611da8573d6000803e3d6000fd5b50505050505050565b60045461010090046001600160a01b03163314611e03576040805162461bcd60e51b81526020600482015260136024820152600080516020614ffb833981519152604482015290519081900360640190fd5b604080516c3bb4ba34323930bbaa37b5b2b760991b6020808301919091526001600160601b0319606088811b8216602d85015287811b8216604185015286901b16605583015260698083018590528351808403909101815260899092019092528051910120611e718161497c565b604080516001600160a01b0380881682528087166020830152851681830152606081018490526080810183905290517f9ed7b0f07a9eed51079fab67f6d0f141f167f5b17fdb5a23282280e15fcafed39181900360a00190a15050505050565b60015481565b60045461010090046001600160a01b03163314611f29576040805162461bcd60e51b81526020600482015260136024820152600080516020614ffb833981519152604482015290519081900360640190fd5b604080516539b2ba23b7bb60d11b6020808301919091526001600160601b0319606086811b8216602685015285901b16603a8301528251602e818403018152604e9092019092528051910120611f7e81614a52565b611f8781614b6c565b826001600160a01b031663cfad57a2836040518263ffffffff1660e01b815260040180826001600160a01b03168152602001915050600060405180830381600087803b158015611d9457600080fd5b60045461010090046001600160a01b03163314612028576040805162461bcd60e51b81526020600482015260136024820152600080516020614ffb833981519152604482015290519081900360640190fd5b604080518082019091526019815278151a5b595b1bd8dace881a5b9d985b1a590817dd185c99d95d603a1b60208201526001600160a01b0383163014156120b05760405162461bcd60e51b8152602060048201818152835160248401528351909283926044909101919085019080838360008315611a095781810151838201526020016119f1565b50816001600160a01b031663704b6c02826040518263ffffffff1660e01b815260040180826001600160a01b03168152602001915050600060405180830381600087803b1580156110a357600080fd5b6206978081565b600a6020526000908152604090205460ff1681565b60045461010090046001600160a01b031633148061214957503360009081526009602052604090205460ff165b612188576040805162461bcd60e51b81526020600482015260136024820152600080516020614ffb833981519152604482015290519081900360640190fd5b600454819060ff16156121f65760408051637c2eb9f760e01b81526001600482015290516001600160a01b03831691637c2eb9f791602480830192600092919082900301818387803b1580156121dd57600080fd5b505af11580156121f1573d6000803e3d6000fd5b505050505b806001600160a01b03166340eb3802826001600160a01b0316637a210a2b6040518163ffffffff1660e01b815260040160206040518083038186803b15801561223e57600080fd5b505afa158015612252573d6000803e3d6000fd5b505050506040513d602081101561226857600080fd5b505160408051630875ab6160e11b815290516001600160a01b038616916310eb56c2916004808301926020929190829003018186803b1580156122aa57600080fd5b505afa1580156122be573d6000803e3d6000fd5b505050506040513d60208110156122d457600080fd5b505160408051631351ecc160e21b815290516001600160a01b03871691634d47b304916004808301926020929190829003018186803b15801561231657600080fd5b505afa15801561232a573d6000803e3d6000fd5b505050506040513d602081101561234057600080fd5b50516040805163511791c960e11b815290516001600160a01b0388169163a22f2392916004808301926020929190829003018186803b15801561238257600080fd5b505afa158015612396573d6000803e3d6000fd5b505050506040513d60208110156123ac57600080fd5b50516040805163df73a26760e01b815290516001600160a01b0389169163df73a267916004808301926020929190829003018186803b1580156123ee57600080fd5b505afa158015612402573d6000803e3d6000fd5b505050506040513d602081101561241857600080fd5b5051600254604080516305d349a560e21b815290516001600160a01b038b169163174d2694916004808301926020929190829003018186803b15801561245d57600080fd5b505afa158015612471573d6000803e3d6000fd5b505050506040513d602081101561248757600080fd5b50516040805163d9ac422560e01b815290516001600160a01b038c169163d9ac4225916004808301926020929190829003018186803b1580156124c957600080fd5b505afa1580156124dd573d6000803e3d6000fd5b505050506040513d60208110156124f357600080fd5b505160408051639f392eb360e01b815290516001600160a01b038d1691639f392eb3916004808301926020929190829003018186803b15801561253557600080fd5b505afa158015612549573d6000803e3d6000fd5b505050506040513d602081101561255f57600080fd5b5051604080516001600160e01b031960e08d901b168152600481019a909a5260248a019890985260448901969096526064880194909452608487019290925260a486015260c485015260e484015215156101048301525161012480830192600092919082900301818387803b1580156110a357600080fd5b60045461010090046001600160a01b031633148061260457503360009081526009602052604090205460ff165b8061261e5750336000908152600a602052604090205460ff165b61265d576040805162461bcd60e51b81526020600482015260136024820152600080516020614ffb833981519152604482015290519081900360640190fd5b6002849055600354604080516320759c0160e11b8152600481018c9052602481018b9052604481018a9052606481018990526084810188905260a481019290925260c4820185905260e48201849052821515610104830152516001600160a01b038c16916340eb38029161012480830192600092919082900301818387803b1580156126e857600080fd5b505af11580156126fc573d6000803e3d6000fd5b5050505050505050505050505050565b60045461010090046001600160a01b031633148061273957503360009081526009602052604090205460ff165b806127535750336000908152600a602052604090205460ff165b612792576040805162461bcd60e51b81526020600482015260136024820152600080516020614ffb833981519152604482015290519081900360640190fd5b60075460408051634a56443f60e01b815290516000926001600160a01b031691634a56443f916004808301926020929190829003018186803b1580156127d757600080fd5b505afa1580156127eb573d6000803e3d6000fd5b505050506040513d602081101561280157600080fd5b5051600754604080516370a0823160e01b81526001600160a01b0392831660048201529051929350600092918416916370a0823191602480820192602092909190829003018186803b15801561285657600080fd5b505afa15801561286a573d6000803e3d6000fd5b505050506040513d602081101561288057600080fd5b5051604080516312b5ad0160e11b815230600482015290519192506001600160a01b0384169163256b5a029160248082019260009290919082900301818387803b1580156128cd57600080fd5b505af11580156128e1573d6000803e3d6000fd5b505050508083111561296f5760006128f98483614c4c565b600754604080516340c10f1960e01b81526001600160a01b039283166004820152602481018490529051929350908516916340c10f199160448082019260009290919082900301818387803b15801561295157600080fd5b505af1158015612965573d6000803e3d6000fd5b50505050506129ed565b600061297b8285614c4c565b60075460408051632770a7eb60e21b81526001600160a01b03928316600482015260248101849052905192935090851691639dc29fac9160448082019260009290919082900301818387803b1580156129d357600080fd5b505af11580156129e7573d6000803e3d6000fd5b50505050505b6040805163ceb68c2360e01b815230600482015290516001600160a01b0384169163ceb68c2391602480830192600092919082900301818387803b158015611d9457600080fd5b60045461010090046001600160a01b03163314612a86576040805162461bcd60e51b81526020600482015260136024820152600080516020614ffb833981519152604482015290519081900360640190fd5b600480546001600160a01b0390921661010002610100600160a81b0319909216919091179055565b6007546001600160a01b031681565b60045461010090046001600160a01b03163314612b0f576040805162461bcd60e51b81526020600482015260136024820152600080516020614ffb833981519152604482015290519081900360640190fd5b604080516b1cd95d141c9a58d95199595960a21b6020808301919091526001600160601b0319606086811b8216602c85015285901b16828401528251603481840301815260549092019092528051910120612b6981614a52565b612b7281614b6c565b826001600160a01b031663724e78da836040518263ffffffff1660e01b815260040180826001600160a01b03168152602001915050600060405180830381600087803b158015611d9457600080fd5b60045461010090046001600160a01b03163314612c13576040805162461bcd60e51b81526020600482015260136024820152600080516020614ffb833981519152604482015290519081900360640190fd5b612c1c81614b6c565b50565b60045461010090046001600160a01b03163314612c71576040805162461bcd60e51b81526020600482015260136024820152600080516020614ffb833981519152604482015290519081900360640190fd5b816001600160a01b031663d3127e63826040518263ffffffff1660e01b815260040180828152602001915050600060405180830381600087803b1580156110a357600080fd5b60045461010090046001600160a01b03163314612d09576040805162461bcd60e51b81526020600482015260136024820152600080516020614ffb833981519152604482015290519081900360640190fd5b604080516b1cd95d141c9a58d95199595960a21b6020808301919091526001600160601b0319606086811b8216602c85015285901b16828401528251603481840301815260549092019092528051910120612d638161497c565b604080516001600160a01b0380861682528416602082015280820183905290517fb878dd4b5762f4118ad54995be907dd2bcd915d942e4ac75580fba9b4ee4727f9181900360600190a1505050565b60045461010090046001600160a01b03163314612e04576040805162461bcd60e51b81526020600482015260136024820152600080516020614ffb833981519152604482015290519081900360640190fd5b816001600160a01b0316635a47a1a7826040518263ffffffff1660e01b8152600401808215158152602001915050600060405180830381600087803b1580156110a357600080fd5b60045461010090046001600160a01b0316331480612e7957503360009081526009602052604090205460ff165b612eb8576040805162461bcd60e51b81526020600482015260136024820152600080516020614ffb833981519152604482015290519081900360640190fd5b816001600160a01b031662bd0b63826040518263ffffffff1660e01b815260040180826001600160a01b03168152602001915050600060405180830381600087803b1580156110a357600080fd5b61271081565b60045461010090046001600160a01b03163314612f5e576040805162461bcd60e51b81526020600482015260136024820152600080516020614ffb833981519152604482015290519081900360640190fd5b600780546001600160a01b0319166001600160a01b0392909216919091179055565b60045461010090046001600160a01b03163314612fd2576040805162461bcd60e51b81526020600482015260136024820152600080516020614ffb833981519152604482015290519081900360640190fd5b604080518082019091526014815273496e76616c6964205f6d6178476173507269636560601b602082015264012a05f20082116130505760405162461bcd60e51b8152602060048201818152835160248401528351909283926044909101919085019080838360008315611a095781810151838201526020016119f1565b50816001600160a01b031663d2fa635e826040518263ffffffff1660e01b815260040180828152602001915050600060405180830381600087803b1580156110a357600080fd5b60045461010090046001600160a01b03163314806130c457503360009081526009602052604090205460ff165b613103576040805162461bcd60e51b81526020600482015260136024820152600080516020614ffb833981519152604482015290519081900360640190fd5b6004805460ff1916911515919091179055565b60045461010090046001600160a01b031633148061314357503360009081526009602052604090205460ff165b8061315d5750336000908152600a602052604090205460ff165b61319c576040805162461bcd60e51b81526020600482015260136024820152600080516020614ffb833981519152604482015290519081900360640190fd5b60005b82518110156111f257836001600160a01b031663ace112de8483815181106131c357fe5b60200260200101518484815181106131d757fe5b60200260200101516040518363ffffffff1660e01b815260040180836001600160a01b0316815260200182815260200192505050600060405180830381600087803b15801561322557600080fd5b505af1158015613239573d6000803e3d6000fd5b50506001909201915061319f9050565b6c0c9f2c9cd04674edea4000000081565b60045461010090046001600160a01b031633146132ac576040805162461bcd60e51b81526020600482015260136024820152600080516020614ffb833981519152604482015290519081900360640190fd5b604080516539b2ba23b7bb60d11b6020808301919091526001600160601b0319606086811b8216602685015285901b16603a8301528251602e818403018152604e90920190925280519101206133018161497c565b604080516001600160a01b0380861682528416602082015280820183905290517f2701a94fd55a560e291f3c54d36580040670d6fde558a77a75d619e38139f7139181900360600190a1505050565b60035481565b60045461010090046001600160a01b031633146133a8576040805162461bcd60e51b81526020600482015260136024820152600080516020614ffb833981519152604482015290519081900360640190fd5b6040805180820190915260198152782a34b6b2b637b1b59d1034b73b30b634b2102fb13ab33332b960391b60208201526206978082111561342a5760405162461bcd60e51b8152602060048201818152835160248401528351909283926044909101919085019080838360008315611a095781810151838201526020016119f1565b506000548111604051806060016040528060248152602001614fd760249139906134955760405162461bcd60e51b8152602060048201818152835160248401528351909283926044909101919085019080838360008315611a095781810151838201526020016119f1565b50600055565b60045461010090046001600160a01b031633146134ed576040805162461bcd60e51b81526020600482015260136024820152600080516020614ffb833981519152604482015290519081900360640190fd5b604080516a1c995919595b569add5cd960aa1b6020808301919091526001600160601b0319606087811b8216602b85015286901b16603f8301526053808301859052835180840390910181526073909201909252805191012061354f81614a52565b61355881614b6c565b6000846001600160a01b0316639bc90a0f6040518163ffffffff1660e01b815260040160206040518083038186803b15801561359357600080fd5b505afa1580156135a7573d6000803e3d6000fd5b505050506040513d60208110156135bd57600080fd5b5051604080516352f4877760e11b81523060048201526001602482015290519192506001600160a01b0387169163a5e90eee9160448082019260009290919082900301818387803b15801561361157600080fd5b505af1158015613625573d6000803e3d6000fd5b5050604080516312b5ad0160e11b815230600482015290516001600160a01b038516935063256b5a029250602480830192600092919082900301818387803b15801561367057600080fd5b505af1158015613684573d6000803e3d6000fd5b5050604080516340c10f1960e01b81523060048201526024810187905290516001600160a01b03851693506340c10f199250604480830192600092919082900301818387803b1580156136d657600080fd5b505af11580156136ea573d6000803e3d6000fd5b50505050806001600160a01b031663a9059cbb86856040518363ffffffff1660e01b815260040180836001600160a01b0316815260200182815260200192505050602060405180830381600087803b15801561374557600080fd5b505af1158015613759573d6000803e3d6000fd5b505050506040513d602081101561376f57600080fd5b5050600654604080516302718b5760e21b81526001600160a01b03878116600483015292831660248201529051918716916309c62d5c916044808201926020929091908290030181600087803b1580156137c857600080fd5b505af11580156137dc573d6000803e3d6000fd5b505050506040513d60208110156137f257600080fd5b5050604080516352f4877760e11b815230600482015260006024820181905291516001600160a01b0388169263a5e90eee926044808201939182900301818387803b15801561384057600080fd5b505af1158015613854573d6000803e3d6000fd5b50506040805163ceb68c2360e01b815230600482015290516001600160a01b038516935063ceb68c239250602480830192600092919082900301818387803b15801561185d57600080fd5b60045461010090046001600160a01b031633146138f1576040805162461bcd60e51b81526020600482015260136024820152600080516020614ffb833981519152604482015290519081900360640190fd5b816001600160a01b03166371089f4d826040518263ffffffff1660e01b815260040180826001600160a01b03168152602001915050600060405180830381600087803b1580156110a357600080fd5b60045461010090046001600160a01b03163314613992576040805162461bcd60e51b81526020600482015260136024820152600080516020614ffb833981519152604482015290519081900360640190fd5b60408051631b5a5b9d60e21b6020808301919091526001600160601b0319606087811b8216602485015286901b166038830152604c80830185905283518084039091018152606c90920190925280519101206139ed81614a52565b6139f681614b6c565b6111f2848484614c95565b60045461010090046001600160a01b0316331480613a2e57503360009081526009602052604090205460ff165b80613a485750336000908152600a602052604090205460ff165b613a87576040805162461bcd60e51b81526020600482015260136024820152600080516020614ffb833981519152604482015290519081900360640190fd5b816001600160a01b0316639317020d826040518263ffffffff1660e01b8152600401808215158152602001915050600060405180830381600087803b1580156110a357600080fd5b6006546001600160a01b031681565b60045461010090046001600160a01b0316331480613b0b57503360009081526009602052604090205460ff165b613b4a576040805162461bcd60e51b81526020600482015260136024820152600080516020614ffb833981519152604482015290519081900360640190fd5b816001600160a01b0316637c2eb9f7826040518263ffffffff1660e01b8152600401808215158152602001915050600060405180830381600087803b1580156110a357600080fd5b60045461010090046001600160a01b03163314613be4576040805162461bcd60e51b81526020600482015260136024820152600080516020614ffb833981519152604482015290519081900360640190fd5b6001600160a01b03919091166000908152600a60205260409020805460ff1916911515919091179055565b60045461010090046001600160a01b0316331480613c3c57503360009081526009602052604090205460ff165b613c7b576040805162461bcd60e51b81526020600482015260136024820152600080516020614ffb833981519152604482015290519081900360640190fd5b600454819060ff1615613ce75760408051637c2eb9f760e01b815260006004820181905291516001600160a01b03841692637c2eb9f7926024808201939182900301818387803b158015613cce57600080fd5b505af1158015613ce2573d6000803e3d6000fd5b505050505b806001600160a01b03166340eb3802826001600160a01b0316637a210a2b6040518163ffffffff1660e01b815260040160206040518083038186803b158015613d2f57600080fd5b505afa158015613d43573d6000803e3d6000fd5b505050506040513d6020811015613d5957600080fd5b505160408051630875ab6160e11b815290516001600160a01b038616916310eb56c2916004808301926020929190829003018186803b158015613d9b57600080fd5b505afa158015613daf573d6000803e3d6000fd5b505050506040513d6020811015613dc557600080fd5b505160408051631351ecc160e21b815290516001600160a01b03871691634d47b304916004808301926020929190829003018186803b158015613e0757600080fd5b505afa158015613e1b573d6000803e3d6000fd5b505050506040513d6020811015613e3157600080fd5b50516040805163511791c960e11b815290516001600160a01b0388169163a22f2392916004808301926020929190829003018186803b158015613e7357600080fd5b505afa158015613e87573d6000803e3d6000fd5b505050506040513d6020811015613e9d57600080fd5b50516040805163df73a26760e01b815290516001600160a01b0389169163df73a267916004808301926020929190829003018186803b158015613edf57600080fd5b505afa158015613ef3573d6000803e3d6000fd5b505050506040513d6020811015613f0957600080fd5b5051600354604080516305d349a560e21b815290516001600160a01b038b169163174d2694916004808301926020929190829003018186803b15801561245d57600080fd5b60045461010090046001600160a01b0316331480613f7b57503360009081526009602052604090205460ff165b80613f955750336000908152600a602052604090205460ff165b613fd4576040805162461bcd60e51b81526020600482015260136024820152600080516020614ffb833981519152604482015290519081900360640190fd5b6000869050806001600160a01b03166340eb38028787878787600354886001600160a01b031663174d26946040518163ffffffff1660e01b815260040160206040518083038186803b15801561402957600080fd5b505afa15801561403d573d6000803e3d6000fd5b505050506040513d602081101561405357600080fd5b50516040805163d9ac422560e01b815290516001600160a01b038c169163d9ac4225916004808301926020929190829003018186803b15801561409557600080fd5b505afa1580156140a9573d6000803e3d6000fd5b505050506040513d60208110156140bf57600080fd5b505160408051639f392eb360e01b815290516001600160a01b038d1691639f392eb3916004808301926020929190829003018186803b15801561410157600080fd5b505afa158015614115573d6000803e3d6000fd5b505050506040513d602081101561412b57600080fd5b5051604080516001600160e01b031960e08d901b168152600481019a909a5260248a019890985260448901969096526064880194909452608487019290925260a486015260c485015260e484015215156101048301525161012480830192600092919082900301818387803b1580156141a357600080fd5b505af11580156141b7573d6000803e3d6000fd5b5050505050505050505050565b60045461010090046001600160a01b03163314614216576040805162461bcd60e51b81526020600482015260136024820152600080516020614ffb833981519152604482015290519081900360640190fd5b6040805166617070726f766560c81b6020808301919091526001600160601b0319606087811b8216602785015286901b16603b830152604f80830185905283518084039091018152606f90920190925280519101206142748161497c565b604080516001600160a01b038087168252851660208201528082018490526060810183905290517f6af9d86ba7407a934e941ed8ae5f779369a88fe8ba2cd1c204185d6f8a8287fd9181900360800190a150505050565b60045461010090046001600160a01b0316331461431d576040805162461bcd60e51b81526020600482015260136024820152600080516020614ffb833981519152604482015290519081900360640190fd5b826001600160a01b031663efa10a6e83836040518363ffffffff1660e01b815260040180836001600160a01b0316815260200182815260200192505050600060405180830381600087803b158015611d9457600080fd5b60045461010090046001600160a01b031633146143c6576040805162461bcd60e51b81526020600482015260136024820152600080516020614ffb833981519152604482015290519081900360640190fd5b6040805166617070726f766560c81b6020808301919091526001600160601b0319606087811b8216602785015286901b16603b830152604f80830185905283518084039091018152606f909201909252805191012061442481614a52565b61442d81614b6c565b836001600160a01b031663095ea7b384846040518363ffffffff1660e01b815260040180836001600160a01b0316815260200182815260200192505050602060405180830381600087803b15801561448457600080fd5b505af1158015614498573d6000803e3d6000fd5b505050506040513d60208110156110b757600080fd5b60045461010090046001600160a01b03163314806144db57503360009081526009602052604090205460ff165b61451a576040805162461bcd60e51b81526020600482015260136024820152600080516020614ffb833981519152604482015290519081900360640190fd5b600291909155600355565b60086020526000908152604090205481565b60045461010090046001600160a01b03163314614589576040805162461bcd60e51b81526020600482015260136024820152600080516020614ffb833981519152604482015290519081900360640190fd5b604080516323b872dd60e01b81526001600160a01b038581166004830152306024830152604482018490529151918416916323b872dd916064808201926020929091908290030181600087803b1580156113ae57600080fd5b60045461010090046001600160a01b03163314614634576040805162461bcd60e51b81526020600482015260136024820152600080516020614ffb833981519152604482015290519081900360640190fd5b604080516a1c995919595b569add5cd960aa1b6020808301919091526001600160601b0319606087811b8216602b85015286901b16603f830152605380830185905283518084039091018152607390920190925280519101206146968161497c565b604080516001600160a01b0380871682528516602082015280820184905290517f87bc56ac88d58e9c9090c8c2a3a9fdfce0acf5b175232a8ece8399bdf5b79db79181900360600190a150505050565b60045461010090046001600160a01b031633148061471357503360009081526009602052604090205460ff165b8061472d5750336000908152600a602052604090205460ff165b61476c576040805162461bcd60e51b81526020600482015260136024820152600080516020614ffb833981519152604482015290519081900360640190fd5b60005b815181101561483457826001600160a01b031663f255527883838151811061479357fe5b6020026020010151600460019054906101000a90046001600160a01b03166040518363ffffffff1660e01b815260040180836001600160a01b03168152602001826001600160a01b0316815260200192505050602060405180830381600087803b15801561480057600080fd5b505af1158015614814573d6000803e3d6000fd5b505050506040513d602081101561482a57600080fd5b505060010161476f565b505050565b60005481565b60045461010090046001600160a01b031633148061486c57503360009081526009602052604090205460ff165b806148865750336000908152600a602052604090205460ff165b6148c5576040805162461bcd60e51b81526020600482015260136024820152600080516020614ffb833981519152604482015290519081900360640190fd5b60408051637709883360e11b81526001600160a01b038a81166004830152602482018a905260448201899052606482018890526084820187905285151560a483015284151560c483015283151560e48301529151918b169163ee131066916101048082019260009290919082900301818387803b15801561494557600080fd5b505af1158015614959573d6000803e3d6000fd5b50505050505050505050505050565b60045461010090046001600160a01b031681565b6008600082815260200190815260200160002054600014604051806060016040528060228152602001614f9160229139906149f85760405162461bcd60e51b8152602060048201818152835160248401528351909283926044909101919085019080838360008315611a095781810151838201526020016119f1565b50600054614a07904290614eb8565b60008281526008602090815260409182902092909255805183815290517f5fb9c0ecf7b4a28c4c480212e868f9da7f373a2ed4d23498b0be6aadf35242fb929181900390910190a150565b6008600082815260200190815260200160002054600014156040518060400160405280601e81526020017f54696d656c6f636b3a20616374696f6e206e6f74207369676e616c6c6564000081525090614aec5760405162461bcd60e51b8152602060048201818152835160248401528351909283926044909101919085019080838360008315611a095781810151838201526020016119f1565b5042600860008381526020019081526020016000205410604051806060016040528060248152602001614fb36024913990614b685760405162461bcd60e51b8152602060048201818152835160248401528351909283926044909101919085019080838360008315611a095781810151838201526020016119f1565b5050565b600860008281526020019081526020016000205460001415604051806040016040528060198152602001782a34b6b2b637b1b59d1034b73b30b634b2102fb0b1ba34b7b760391b81525090614c025760405162461bcd60e51b8152602060048201818152835160248401528351909283926044909101919085019080838360008315611a095781810151838201526020016119f1565b50600081815260086020908152604080832092909255815183815291517f194ed6dd5e37e2acc44a19455c3f208c4831ee695fe362d9c4ef2d316bc53aec9281900390910190a150565b6000614c8e83836040518060400160405280601e81526020017f536166654d6174683a207375627472616374696f6e206f766572666c6f770000815250614f12565b9392505050565b604080516355138f0d60e11b8152306004820152905184916001600160a01b0383169163aa271e1a916024808201926020929091908290030181600087803b158015614ce057600080fd5b505af1158015614cf4573d6000803e3d6000fd5b505050506040513d6020811015614d0a57600080fd5b5051614d77576040805163cf456ae760e01b81523060048201526001602482015290516001600160a01b0383169163cf456ae791604480830192600092919082900301818387803b158015614d5e57600080fd5b505af1158015614d72573d6000803e3d6000fd5b505050505b806001600160a01b03166340c10f1984846040518363ffffffff1660e01b815260040180836001600160a01b0316815260200182815260200192505050600060405180830381600087803b158015614dce57600080fd5b505af1158015614de2573d6000803e3d6000fd5b50505050600154846001600160a01b03166318160ddd6040518163ffffffff1660e01b815260040160206040518083038186803b158015614e2257600080fd5b505afa158015614e36573d6000803e3d6000fd5b505050506040513d6020811015614e4c57600080fd5b50516040805160608101909152602180825292909111159161501b6020830139906113d85760405162461bcd60e51b8152602060048201818152835160248401528351909283926044909101919085019080838360008315611a095781810151838201526020016119f1565b600082820183811015614c8e576040805162461bcd60e51b815260206004820152601b60248201527f536166654d6174683a206164646974696f6e206f766572666c6f770000000000604482015290519081900360640190fd5b60008184841115614f645760405162461bcd60e51b8152602060048201818152835160248401528351909283926044909101919085019080838360008315611a095781810151838201526020016119f1565b50505090039056fe54696d656c6f636b3a20696e76616c6964205f66756e64696e6752617465466163746f7254696d656c6f636b3a20616374696f6e20616c7265616479207369676e616c6c656454696d656c6f636b3a20616374696f6e2074696d65206e6f74207965742070617373656454696d656c6f636b3a206275666665722063616e6e6f742062652064656372656173656454696d656c6f636b3a20666f7262696464656e0000000000000000000000000054696d656c6f636b3a206d6178546f6b656e537570706c7920657863656564656454696d656c6f636b3a20696e76616c6964205f737461626c6546756e64696e6752617465466163746f72a2646970667358221220a6d2efa4c42ad78897c7de92d8a3d5cbc66d4d770c7c1ff25afaac95bb81fa7264736f6c634300060c0033",
  "devdoc": {
    "kind": "dev",
    "methods": {},
    "version": 1
  },
  "userdoc": {
    "kind": "user",
    "methods": {},
    "version": 1
  },
  "storageLayout": {
    "storage": [
      {
        "astId": 12391,
        "contract": "contracts/peripherals/Timelock.sol:Timelock",
        "label": "buffer",
        "offset": 0,
        "slot": "0",
        "type": "t_uint256"
      },
      {
        "astId": 12393,
        "contract": "contracts/peripherals/Timelock.sol:Timelock",
        "label": "maxTokenSupply",
        "offset": 0,
        "slot": "1",
        "type": "t_uint256"
      },
      {
        "astId": 12395,
        "contract": "contracts/peripherals/Timelock.sol:Timelock",
        "label": "marginFeeBasisPoints",
        "offset": 0,
        "slot": "2",
        "type": "t_uint256"
      },
      {
        "astId": 12397,
        "contract": "contracts/peripherals/Timelock.sol:Timelock",
        "label": "maxMarginFeeBasisPoints",
        "offset": 0,
        "slot": "3",
        "type": "t_uint256"
      },
      {
        "astId": 12399,
        "contract": "contracts/peripherals/Timelock.sol:Timelock",
        "label": "shouldToggleIsLeverageEnabled",
        "offset": 0,
        "slot": "4",
        "type": "t_bool"
      },
      {
        "astId": 12401,
        "contract": "contracts/peripherals/Timelock.sol:Timelock",
        "label": "admin",
        "offset": 1,
        "slot": "4",
        "type": "t_address"
      },
      {
        "astId": 12403,
        "contract": "contracts/peripherals/Timelock.sol:Timelock",
        "label": "tokenManager",
        "offset": 0,
        "slot": "5",
        "type": "t_address"
      },
      {
        "astId": 12405,
        "contract": "contracts/peripherals/Timelock.sol:Timelock",
        "label": "mintReceiver",
        "offset": 0,
        "slot": "6",
        "type": "t_address"
      },
      {
        "astId": 12407,
        "contract": "contracts/peripherals/Timelock.sol:Timelock",
        "label": "zkdlpManager",
        "offset": 0,
        "slot": "7",
        "type": "t_address"
      },
      {
        "astId": 12411,
        "contract": "contracts/peripherals/Timelock.sol:Timelock",
        "label": "pendingActions",
        "offset": 0,
        "slot": "8",
        "type": "t_mapping(t_bytes32,t_uint256)"
      },
      {
        "astId": 12415,
        "contract": "contracts/peripherals/Timelock.sol:Timelock",
        "label": "isHandler",
        "offset": 0,
        "slot": "9",
        "type": "t_mapping(t_address,t_bool)"
      },
      {
        "astId": 12419,
        "contract": "contracts/peripherals/Timelock.sol:Timelock",
        "label": "isKeeper",
        "offset": 0,
        "slot": "10",
        "type": "t_mapping(t_address,t_bool)"
      }
    ],
    "types": {
      "t_address": {
        "encoding": "inplace",
        "label": "address",
        "numberOfBytes": "20"
      },
      "t_bool": {
        "encoding": "inplace",
        "label": "bool",
        "numberOfBytes": "1"
      },
      "t_bytes32": {
        "encoding": "inplace",
        "label": "bytes32",
        "numberOfBytes": "32"
      },
      "t_mapping(t_address,t_bool)": {
        "encoding": "mapping",
        "key": "t_address",
        "label": "mapping(address => bool)",
        "numberOfBytes": "32",
        "value": "t_bool"
      },
      "t_mapping(t_bytes32,t_uint256)": {
        "encoding": "mapping",
        "key": "t_bytes32",
        "label": "mapping(bytes32 => uint256)",
        "numberOfBytes": "32",
        "value": "t_uint256"
      },
      "t_uint256": {
        "encoding": "inplace",
        "label": "uint256",
        "numberOfBytes": "32"
      }
    }
  }
}