{
  "address": "0x444d77F27bc62ef26214f9e9e7866b08CE321f34",
  "abi": [
    {
      "inputs": [],
      "stateMutability": "nonpayable",
      "type": "constructor"
    },
    {
      "inputs": [
        {
          "internalType": "address",
          "name": "_router",
          "type": "address"
        }
      ],
      "name": "addRouter",
      "outputs": [],
      "stateMutability": "nonpayable",
      "type": "function"
    },
    {
      "inputs": [
        {
          "internalType": "uint256",
          "name": "_amount",
          "type": "uint256"
        },
        {
          "internalType": "address",
          "name": "_tokenDiv",
          "type": "address"
        },
        {
          "internalType": "address",
          "name": "_tokenMul",
          "type": "address"
        }
      ],
      "name": "adjustForDecimals",
      "outputs": [
        {
          "internalType": "uint256",
          "name": "",
          "type": "uint256"
        }
      ],
      "stateMutability": "view",
      "type": "function"
    },
    {
      "inputs": [
        {
          "internalType": "uint256",
          "name": "",
          "type": "uint256"
        }
      ],
      "name": "allWhitelistedTokens",
      "outputs": [
        {
          "internalType": "address",
          "name": "",
          "type": "address"
        }
      ],
      "stateMutability": "view",
      "type": "function"
    },
    {
      "inputs": [],
      "name": "allWhitelistedTokensLength",
      "outputs": [
        {
          "internalType": "uint256",
          "name": "",
          "type": "uint256"
        }
      ],
      "stateMutability": "view",
      "type": "function"
    },
    {
      "inputs": [],
      "name": "allowStaleEquityPrice",
      "outputs": [
        {
          "internalType": "bool",
          "name": "",
          "type": "bool"
        }
      ],
      "stateMutability": "view",
      "type": "function"
    },
    {
      "inputs": [
        {
          "internalType": "address",
          "name": "",
          "type": "address"
        },
        {
          "internalType": "address",
          "name": "",
          "type": "address"
        }
      ],
      "name": "approvedRouters",
      "outputs": [
        {
          "internalType": "bool",
          "name": "",
          "type": "bool"
        }
      ],
      "stateMutability": "view",
      "type": "function"
    },
    {
      "inputs": [
        {
          "internalType": "address",
          "name": "",
          "type": "address"
        }
      ],
      "name": "bufferAmounts",
      "outputs": [
        {
          "internalType": "uint256",
          "name": "",
          "type": "uint256"
        }
      ],
      "stateMutability": "view",
      "type": "function"
    },
    {
      "inputs": [
        {
          "internalType": "address",
          "name": "_token",
          "type": "address"
        },
        {
          "internalType": "address",
          "name": "_receiver",
          "type": "address"
        }
      ],
      "name": "buyZKUSD",
      "outputs": [
        {
          "internalType": "uint256",
          "name": "",
          "type": "uint256"
        }
      ],
      "stateMutability": "nonpayable",
      "type": "function"
    },
    {
      "inputs": [
        {
          "internalType": "address",
          "name": "_token",
          "type": "address"
        }
      ],
      "name": "clearTokenConfig",
      "outputs": [],
      "stateMutability": "nonpayable",
      "type": "function"
    },
    {
      "inputs": [
        {
          "internalType": "address",
          "name": "",
          "type": "address"
        }
      ],
      "name": "cumulativeFundingRates",
      "outputs": [
        {
          "internalType": "uint256",
          "name": "",
          "type": "uint256"
        }
      ],
      "stateMutability": "view",
      "type": "function"
    },
    {
      "inputs": [
        {
          "internalType": "address",
          "name": "_account",
          "type": "address"
        },
        {
          "internalType": "address",
          "name": "_collateralToken",
          "type": "address"
        },
        {
          "internalType": "address",
          "name": "_indexToken",
          "type": "address"
        },
        {
          "internalType": "uint256",
          "name": "_collateralDelta",
          "type": "uint256"
        },
        {
          "internalType": "uint256",
          "name": "_sizeDelta",
          "type": "uint256"
        },
        {
          "internalType": "bool",
          "name": "_isLong",
          "type": "bool"
        },
        {
          "internalType": "address",
          "name": "_receiver",
          "type": "address"
        }
      ],
      "name": "decreasePosition",
      "outputs": [
        {
          "internalType": "uint256",
          "name": "",
          "type": "uint256"
        }
      ],
      "stateMutability": "nonpayable",
      "type": "function"
    },
    {
      "inputs": [
        {
          "internalType": "address",
          "name": "_token",
          "type": "address"
        }
      ],
      "name": "directPoolDeposit",
      "outputs": [],
      "stateMutability": "nonpayable",
      "type": "function"
    },
    {
      "inputs": [
        {
          "internalType": "address",
          "name": "",
          "type": "address"
        }
      ],
      "name": "equityTokens",
      "outputs": [
        {
          "internalType": "bool",
          "name": "",
          "type": "bool"
        }
      ],
      "stateMutability": "view",
      "type": "function"
    },
    {
      "inputs": [],
      "name": "errorController",
      "outputs": [
        {
          "internalType": "address",
          "name": "",
          "type": "address"
        }
      ],
      "stateMutability": "view",
      "type": "function"
    },
    {
      "inputs": [
        {
          "internalType": "uint256",
          "name": "",
          "type": "uint256"
        }
      ],
      "name": "errors",
      "outputs": [
        {
          "internalType": "string",
          "name": "",
          "type": "string"
        }
      ],
      "stateMutability": "view",
      "type": "function"
    },
    {
      "inputs": [
        {
          "internalType": "address",
          "name": "",
          "type": "address"
        }
      ],
      "name": "feeReserves",
      "outputs": [
        {
          "internalType": "uint256",
          "name": "",
          "type": "uint256"
        }
      ],
      "stateMutability": "view",
      "type": "function"
    },
    {
      "inputs": [],
      "name": "fundingInterval",
      "outputs": [
        {
          "internalType": "uint256",
          "name": "",
          "type": "uint256"
        }
      ],
      "stateMutability": "view",
      "type": "function"
    },
    {
      "inputs": [],
      "name": "fundingRateFactor",
      "outputs": [
        {
          "internalType": "uint256",
          "name": "",
          "type": "uint256"
        }
      ],
      "stateMutability": "view",
      "type": "function"
    },
    {
      "inputs": [
        {
          "internalType": "address",
          "name": "_indexToken",
          "type": "address"
        },
        {
          "internalType": "uint256",
          "name": "_size",
          "type": "uint256"
        },
        {
          "internalType": "uint256",
          "name": "_averagePrice",
          "type": "uint256"
        },
        {
          "internalType": "bool",
          "name": "_isLong",
          "type": "bool"
        },
        {
          "internalType": "uint256",
          "name": "_lastIncreasedTime",
          "type": "uint256"
        }
      ],
      "name": "getDelta",
      "outputs": [
        {
          "internalType": "bool",
          "name": "",
          "type": "bool"
        },
        {
          "internalType": "uint256",
          "name": "",
          "type": "uint256"
        }
      ],
      "stateMutability": "view",
      "type": "function"
    },
    {
      "inputs": [
        {
          "internalType": "address",
          "name": "_collateralToken",
          "type": "address"
        },
        {
          "internalType": "address",
          "name": "_indexToken",
          "type": "address"
        },
        {
          "internalType": "bool",
          "name": "_isLong",
          "type": "bool"
        }
      ],
      "name": "getEntryFundingRate",
      "outputs": [
        {
          "internalType": "uint256",
          "name": "",
          "type": "uint256"
        }
      ],
      "stateMutability": "view",
      "type": "function"
    },
    {
      "inputs": [
        {
          "internalType": "address",
          "name": "_token",
          "type": "address"
        },
        {
          "internalType": "uint256",
          "name": "_zkusdDelta",
          "type": "uint256"
        },
        {
          "internalType": "uint256",
          "name": "_feeBasisPoints",
          "type": "uint256"
        },
        {
          "internalType": "uint256",
          "name": "_taxBasisPoints",
          "type": "uint256"
        },
        {
          "internalType": "bool",
          "name": "_increment",
          "type": "bool"
        }
      ],
      "name": "getFeeBasisPoints",
      "outputs": [
        {
          "internalType": "uint256",
          "name": "",
          "type": "uint256"
        }
      ],
      "stateMutability": "view",
      "type": "function"
    },
    {
      "inputs": [
        {
          "internalType": "address",
          "name": "_account",
          "type": "address"
        },
        {
          "internalType": "address",
          "name": "_collateralToken",
          "type": "address"
        },
        {
          "internalType": "address",
          "name": "_indexToken",
          "type": "address"
        },
        {
          "internalType": "bool",
          "name": "_isLong",
          "type": "bool"
        },
        {
          "internalType": "uint256",
          "name": "_size",
          "type": "uint256"
        },
        {
          "internalType": "uint256",
          "name": "_entryFundingRate",
          "type": "uint256"
        }
      ],
      "name": "getFundingFee",
      "outputs": [
        {
          "internalType": "uint256",
          "name": "",
          "type": "uint256"
        }
      ],
      "stateMutability": "view",
      "type": "function"
    },
    {
      "inputs": [
        {
          "internalType": "address",
          "name": "_token",
          "type": "address"
        }
      ],
      "name": "getMaxPrice",
      "outputs": [
        {
          "internalType": "uint256",
          "name": "",
          "type": "uint256"
        }
      ],
      "stateMutability": "view",
      "type": "function"
    },
    {
      "inputs": [
        {
          "internalType": "address",
          "name": "_token",
          "type": "address"
        }
      ],
      "name": "getMinPrice",
      "outputs": [
        {
          "internalType": "uint256",
          "name": "",
          "type": "uint256"
        }
      ],
      "stateMutability": "view",
      "type": "function"
    },
    {
      "inputs": [
        {
          "internalType": "address",
          "name": "_indexToken",
          "type": "address"
        },
        {
          "internalType": "uint256",
          "name": "_size",
          "type": "uint256"
        },
        {
          "internalType": "uint256",
          "name": "_averagePrice",
          "type": "uint256"
        },
        {
          "internalType": "bool",
          "name": "_isLong",
          "type": "bool"
        },
        {
          "internalType": "uint256",
          "name": "_nextPrice",
          "type": "uint256"
        },
        {
          "internalType": "uint256",
          "name": "_sizeDelta",
          "type": "uint256"
        },
        {
          "internalType": "uint256",
          "name": "_lastIncreasedTime",
          "type": "uint256"
        }
      ],
      "name": "getNextAveragePrice",
      "outputs": [
        {
          "internalType": "uint256",
          "name": "",
          "type": "uint256"
        }
      ],
      "stateMutability": "view",
      "type": "function"
    },
    {
      "inputs": [
        {
          "internalType": "address",
          "name": "_token",
          "type": "address"
        }
      ],
      "name": "getNextFundingRate",
      "outputs": [
        {
          "internalType": "uint256",
          "name": "",
          "type": "uint256"
        }
      ],
      "stateMutability": "view",
      "type": "function"
    },
    {
      "inputs": [
        {
          "internalType": "address",
          "name": "_indexToken",
          "type": "address"
        },
        {
          "internalType": "uint256",
          "name": "_nextPrice",
          "type": "uint256"
        },
        {
          "internalType": "uint256",
          "name": "_sizeDelta",
          "type": "uint256"
        }
      ],
      "name": "getNextGlobalShortAveragePrice",
      "outputs": [
        {
          "internalType": "uint256",
          "name": "",
          "type": "uint256"
        }
      ],
      "stateMutability": "view",
      "type": "function"
    },
    {
      "inputs": [
        {
          "internalType": "address",
          "name": "_account",
          "type": "address"
        },
        {
          "internalType": "address",
          "name": "_collateralToken",
          "type": "address"
        },
        {
          "internalType": "address",
          "name": "_indexToken",
          "type": "address"
        },
        {
          "internalType": "bool",
          "name": "_isLong",
          "type": "bool"
        }
      ],
      "name": "getPosition",
      "outputs": [
        {
          "internalType": "uint256",
          "name": "",
          "type": "uint256"
        },
        {
          "internalType": "uint256",
          "name": "",
          "type": "uint256"
        },
        {
          "internalType": "uint256",
          "name": "",
          "type": "uint256"
        },
        {
          "internalType": "uint256",
          "name": "",
          "type": "uint256"
        },
        {
          "internalType": "uint256",
          "name": "",
          "type": "uint256"
        },
        {
          "internalType": "uint256",
          "name": "",
          "type": "uint256"
        },
        {
          "internalType": "bool",
          "name": "",
          "type": "bool"
        },
        {
          "internalType": "uint256",
          "name": "",
          "type": "uint256"
        }
      ],
      "stateMutability": "view",
      "type": "function"
    },
    {
      "inputs": [
        {
          "internalType": "address",
          "name": "_account",
          "type": "address"
        },
        {
          "internalType": "address",
          "name": "_collateralToken",
          "type": "address"
        },
        {
          "internalType": "address",
          "name": "_indexToken",
          "type": "address"
        },
        {
          "internalType": "bool",
          "name": "_isLong",
          "type": "bool"
        }
      ],
      "name": "getPositionDelta",
      "outputs": [
        {
          "internalType": "bool",
          "name": "",
          "type": "bool"
        },
        {
          "internalType": "uint256",
          "name": "",
          "type": "uint256"
        }
      ],
      "stateMutability": "view",
      "type": "function"
    },
    {
      "inputs": [
        {
          "internalType": "address",
          "name": "_account",
          "type": "address"
        },
        {
          "internalType": "address",
          "name": "_collateralToken",
          "type": "address"
        },
        {
          "internalType": "address",
          "name": "_indexToken",
          "type": "address"
        },
        {
          "internalType": "bool",
          "name": "_isLong",
          "type": "bool"
        },
        {
          "internalType": "uint256",
          "name": "_sizeDelta",
          "type": "uint256"
        }
      ],
      "name": "getPositionFee",
      "outputs": [
        {
          "internalType": "uint256",
          "name": "",
          "type": "uint256"
        }
      ],
      "stateMutability": "view",
      "type": "function"
    },
    {
      "inputs": [
        {
          "internalType": "address",
          "name": "_account",
          "type": "address"
        },
        {
          "internalType": "address",
          "name": "_collateralToken",
          "type": "address"
        },
        {
          "internalType": "address",
          "name": "_indexToken",
          "type": "address"
        },
        {
          "internalType": "bool",
          "name": "_isLong",
          "type": "bool"
        }
      ],
      "name": "getPositionKey",
      "outputs": [
        {
          "internalType": "bytes32",
          "name": "",
          "type": "bytes32"
        }
      ],
      "stateMutability": "pure",
      "type": "function"
    },
    {
      "inputs": [
        {
          "internalType": "address",
          "name": "_token",
          "type": "address"
        },
        {
          "internalType": "uint256",
          "name": "_zkusdAmount",
          "type": "uint256"
        }
      ],
      "name": "getRedemptionAmount",
      "outputs": [
        {
          "internalType": "uint256",
          "name": "",
          "type": "uint256"
        }
      ],
      "stateMutability": "view",
      "type": "function"
    },
    {
      "inputs": [
        {
          "internalType": "address",
          "name": "_token",
          "type": "address"
        }
      ],
      "name": "getTargetZkusdAmount",
      "outputs": [
        {
          "internalType": "uint256",
          "name": "",
          "type": "uint256"
        }
      ],
      "stateMutability": "view",
      "type": "function"
    },
    {
      "inputs": [
        {
          "internalType": "address",
          "name": "",
          "type": "address"
        }
      ],
      "name": "globalShortAveragePrices",
      "outputs": [
        {
          "internalType": "uint256",
          "name": "",
          "type": "uint256"
        }
      ],
      "stateMutability": "view",
      "type": "function"
    },
    {
      "inputs": [
        {
          "internalType": "address",
          "name": "",
          "type": "address"
        }
      ],
      "name": "globalShortSizes",
      "outputs": [
        {
          "internalType": "uint256",
          "name": "",
          "type": "uint256"
        }
      ],
      "stateMutability": "view",
      "type": "function"
    },
    {
      "inputs": [],
      "name": "gov",
      "outputs": [
        {
          "internalType": "address",
          "name": "",
          "type": "address"
        }
      ],
      "stateMutability": "view",
      "type": "function"
    },
    {
      "inputs": [
        {
          "internalType": "address",
          "name": "",
          "type": "address"
        }
      ],
      "name": "guaranteedUsd",
      "outputs": [
        {
          "internalType": "uint256",
          "name": "",
          "type": "uint256"
        }
      ],
      "stateMutability": "view",
      "type": "function"
    },
    {
      "inputs": [],
      "name": "hasDynamicFees",
      "outputs": [
        {
          "internalType": "bool",
          "name": "",
          "type": "bool"
        }
      ],
      "stateMutability": "view",
      "type": "function"
    },
    {
      "inputs": [],
      "name": "inManagerMode",
      "outputs": [
        {
          "internalType": "bool",
          "name": "",
          "type": "bool"
        }
      ],
      "stateMutability": "view",
      "type": "function"
    },
    {
      "inputs": [],
      "name": "inPrivateLiquidationMode",
      "outputs": [
        {
          "internalType": "bool",
          "name": "",
          "type": "bool"
        }
      ],
      "stateMutability": "view",
      "type": "function"
    },
    {
      "inputs": [
        {
          "internalType": "address",
          "name": "_account",
          "type": "address"
        },
        {
          "internalType": "address",
          "name": "_collateralToken",
          "type": "address"
        },
        {
          "internalType": "address",
          "name": "_indexToken",
          "type": "address"
        },
        {
          "internalType": "uint256",
          "name": "_sizeDelta",
          "type": "uint256"
        },
        {
          "internalType": "bool",
          "name": "_isLong",
          "type": "bool"
        }
      ],
      "name": "increasePosition",
      "outputs": [],
      "stateMutability": "nonpayable",
      "type": "function"
    },
    {
      "inputs": [
        {
          "internalType": "address",
          "name": "_router",
          "type": "address"
        },
        {
          "internalType": "address",
          "name": "_zkusd",
          "type": "address"
        },
        {
          "internalType": "address",
          "name": "_priceFeed",
          "type": "address"
        },
        {
          "internalType": "uint256",
          "name": "_liquidationFeeUsd",
          "type": "uint256"
        },
        {
          "internalType": "uint256",
          "name": "_fundingRateFactor",
          "type": "uint256"
        },
        {
          "internalType": "uint256",
          "name": "_stableFundingRateFactor",
          "type": "uint256"
        }
      ],
      "name": "initialize",
      "outputs": [],
      "stateMutability": "nonpayable",
      "type": "function"
    },
    {
      "inputs": [],
      "name": "isInitialized",
      "outputs": [
        {
          "internalType": "bool",
          "name": "",
          "type": "bool"
        }
      ],
      "stateMutability": "view",
      "type": "function"
    },
    {
      "inputs": [],
      "name": "isLeverageEnabled",
      "outputs": [
        {
          "internalType": "bool",
          "name": "",
          "type": "bool"
        }
      ],
      "stateMutability": "view",
      "type": "function"
    },
    {
      "inputs": [
        {
          "internalType": "address",
          "name": "",
          "type": "address"
        }
      ],
      "name": "isLiquidator",
      "outputs": [
        {
          "internalType": "bool",
          "name": "",
          "type": "bool"
        }
      ],
      "stateMutability": "view",
      "type": "function"
    },
    {
      "inputs": [
        {
          "internalType": "address",
          "name": "",
          "type": "address"
        }
      ],
      "name": "isManager",
      "outputs": [
        {
          "internalType": "bool",
          "name": "",
          "type": "bool"
        }
      ],
      "stateMutability": "view",
      "type": "function"
    },
    {
      "inputs": [
        {
          "internalType": "address",
          "name": "_account",
          "type": "address"
        },
        {
          "internalType": "address",
          "name": "_collateralToken",
          "type": "address"
        },
        {
          "internalType": "address",
          "name": "_indexToken",
          "type": "address"
        },
        {
          "internalType": "bool",
          "name": "_isLong",
          "type": "bool"
        }
      ],
      "name": "isPositionExist",
      "outputs": [
        {
          "internalType": "bool",
          "name": "exist",
          "type": "bool"
        },
        {
          "internalType": "bytes32",
          "name": "key",
          "type": "bytes32"
        }
      ],
      "stateMutability": "view",
      "type": "function"
    },
    {
      "inputs": [],
      "name": "isSwapEnabled",
      "outputs": [
        {
          "internalType": "bool",
          "name": "",
          "type": "bool"
        }
      ],
      "stateMutability": "view",
      "type": "function"
    },
    {
      "inputs": [
        {
          "internalType": "address",
          "name": "",
          "type": "address"
        }
      ],
      "name": "lastFundingTimes",
      "outputs": [
        {
          "internalType": "uint256",
          "name": "",
          "type": "uint256"
        }
      ],
      "stateMutability": "view",
      "type": "function"
    },
    {
      "inputs": [
        {
          "internalType": "address",
          "name": "_account",
          "type": "address"
        },
        {
          "internalType": "address",
          "name": "_collateralToken",
          "type": "address"
        },
        {
          "internalType": "address",
          "name": "_indexToken",
          "type": "address"
        },
        {
          "internalType": "bool",
          "name": "_isLong",
          "type": "bool"
        },
        {
          "internalType": "address",
          "name": "_feeReceiver",
          "type": "address"
        }
      ],
      "name": "liquidatePosition",
      "outputs": [
        {
          "internalType": "uint256",
          "name": "",
          "type": "uint256"
        }
      ],
      "stateMutability": "nonpayable",
      "type": "function"
    },
    {
      "inputs": [],
      "name": "liquidationFeeUsd",
      "outputs": [
        {
          "internalType": "uint256",
          "name": "",
          "type": "uint256"
        }
      ],
      "stateMutability": "view",
      "type": "function"
    },
    {
      "inputs": [],
      "name": "marginFeeBasisPoints",
      "outputs": [
        {
          "internalType": "uint256",
          "name": "",
          "type": "uint256"
        }
      ],
      "stateMutability": "view",
      "type": "function"
    },
    {
      "inputs": [],
      "name": "maxGasPrice",
      "outputs": [
        {
          "internalType": "uint256",
          "name": "",
          "type": "uint256"
        }
      ],
      "stateMutability": "view",
      "type": "function"
    },
    {
      "inputs": [
        {
          "internalType": "address",
          "name": "",
          "type": "address"
        }
      ],
      "name": "maxGlobalShortSizes",
      "outputs": [
        {
          "internalType": "uint256",
          "name": "",
          "type": "uint256"
        }
      ],
      "stateMutability": "view",
      "type": "function"
    },
    {
      "inputs": [],
      "name": "maxLeverage",
      "outputs": [
        {
          "internalType": "uint256",
          "name": "",
          "type": "uint256"
        }
      ],
      "stateMutability": "view",
      "type": "function"
    },
    {
      "inputs": [
        {
          "internalType": "address",
          "name": "",
          "type": "address"
        }
      ],
      "name": "maxZkusdAmounts",
      "outputs": [
        {
          "internalType": "uint256",
          "name": "",
          "type": "uint256"
        }
      ],
      "stateMutability": "view",
      "type": "function"
    },
    {
      "inputs": [
        {
          "internalType": "address",
          "name": "",
          "type": "address"
        }
      ],
      "name": "minProfitBasisPoints",
      "outputs": [
        {
          "internalType": "uint256",
          "name": "",
          "type": "uint256"
        }
      ],
      "stateMutability": "view",
      "type": "function"
    },
    {
      "inputs": [],
      "name": "minProfitTime",
      "outputs": [
        {
          "internalType": "uint256",
          "name": "",
          "type": "uint256"
        }
      ],
      "stateMutability": "view",
      "type": "function"
    },
    {
      "inputs": [],
      "name": "mintBurnFeeBasisPoints",
      "outputs": [
        {
          "internalType": "uint256",
          "name": "",
          "type": "uint256"
        }
      ],
      "stateMutability": "view",
      "type": "function"
    },
    {
      "inputs": [
        {
          "internalType": "address",
          "name": "",
          "type": "address"
        }
      ],
      "name": "poolAmounts",
      "outputs": [
        {
          "internalType": "uint256",
          "name": "",
          "type": "uint256"
        }
      ],
      "stateMutability": "view",
      "type": "function"
    },
    {
      "inputs": [
        {
          "internalType": "bytes32",
          "name": "",
          "type": "bytes32"
        }
      ],
      "name": "positions",
      "outputs": [
        {
          "internalType": "uint256",
          "name": "size",
          "type": "uint256"
        },
        {
          "internalType": "uint256",
          "name": "collateral",
          "type": "uint256"
        },
        {
          "internalType": "uint256",
          "name": "averagePrice",
          "type": "uint256"
        },
        {
          "internalType": "uint256",
          "name": "entryFundingRate",
          "type": "uint256"
        },
        {
          "internalType": "uint256",
          "name": "reserveAmount",
          "type": "uint256"
        },
        {
          "internalType": "int256",
          "name": "realisedPnl",
          "type": "int256"
        },
        {
          "internalType": "uint256",
          "name": "lastIncreasedTime",
          "type": "uint256"
        }
      ],
      "stateMutability": "view",
      "type": "function"
    },
    {
      "inputs": [],
      "name": "priceFeed",
      "outputs": [
        {
          "internalType": "address",
          "name": "",
          "type": "address"
        }
      ],
      "stateMutability": "view",
      "type": "function"
    },
    {
      "inputs": [
        {
          "internalType": "address",
          "name": "_router",
          "type": "address"
        }
      ],
      "name": "removeRouter",
      "outputs": [],
      "stateMutability": "nonpayable",
      "type": "function"
    },
    {
      "inputs": [
        {
          "internalType": "address",
          "name": "",
          "type": "address"
        }
      ],
      "name": "reservedAmounts",
      "outputs": [
        {
          "internalType": "uint256",
          "name": "",
          "type": "uint256"
        }
      ],
      "stateMutability": "view",
      "type": "function"
    },
    {
      "inputs": [],
      "name": "router",
      "outputs": [
        {
          "internalType": "address",
          "name": "",
          "type": "address"
        }
      ],
      "stateMutability": "view",
      "type": "function"
    },
    {
      "inputs": [
        {
          "internalType": "address",
          "name": "_token",
          "type": "address"
        },
        {
          "internalType": "address",
          "name": "_receiver",
          "type": "address"
        }
      ],
      "name": "sellZKUSD",
      "outputs": [
        {
          "internalType": "uint256",
          "name": "",
          "type": "uint256"
        }
      ],
      "stateMutability": "nonpayable",
      "type": "function"
    },
    {
      "inputs": [
        {
          "internalType": "bool",
          "name": "_allowStaleEquityPrice",
          "type": "bool"
        }
      ],
      "name": "setAllowStableEquity",
      "outputs": [],
      "stateMutability": "nonpayable",
      "type": "function"
    },
    {
      "inputs": [
        {
          "internalType": "address",
          "name": "_token",
          "type": "address"
        },
        {
          "internalType": "uint256",
          "name": "_amount",
          "type": "uint256"
        }
      ],
      "name": "setBufferAmount",
      "outputs": [],
      "stateMutability": "nonpayable",
      "type": "function"
    },
    {
      "inputs": [
        {
          "internalType": "uint256",
          "name": "_errorCode",
          "type": "uint256"
        },
        {
          "internalType": "string",
          "name": "_error",
          "type": "string"
        }
      ],
      "name": "setError",
      "outputs": [],
      "stateMutability": "nonpayable",
      "type": "function"
    },
    {
      "inputs": [
        {
          "internalType": "address",
          "name": "_errorController",
          "type": "address"
        }
      ],
      "name": "setErrorController",
      "outputs": [],
      "stateMutability": "nonpayable",
      "type": "function"
    },
    {
      "inputs": [
        {
          "internalType": "uint256",
          "name": "_taxBasisPoints",
          "type": "uint256"
        },
        {
          "internalType": "uint256",
          "name": "_stableTaxBasisPoints",
          "type": "uint256"
        },
        {
          "internalType": "uint256",
          "name": "_mintBurnFeeBasisPoints",
          "type": "uint256"
        },
        {
          "internalType": "uint256",
          "name": "_swapFeeBasisPoints",
          "type": "uint256"
        },
        {
          "internalType": "uint256",
          "name": "_stableSwapFeeBasisPoints",
          "type": "uint256"
        },
        {
          "internalType": "uint256",
          "name": "_marginFeeBasisPoints",
          "type": "uint256"
        },
        {
          "internalType": "uint256",
          "name": "_liquidationFeeUsd",
          "type": "uint256"
        },
        {
          "internalType": "uint256",
          "name": "_minProfitTime",
          "type": "uint256"
        },
        {
          "internalType": "bool",
          "name": "_hasDynamicFees",
          "type": "bool"
        }
      ],
      "name": "setFees",
      "outputs": [],
      "stateMutability": "nonpayable",
      "type": "function"
    },
    {
      "inputs": [
        {
          "internalType": "uint256",
          "name": "_fundingInterval",
          "type": "uint256"
        },
        {
          "internalType": "uint256",
          "name": "_fundingRateFactor",
          "type": "uint256"
        },
        {
          "internalType": "uint256",
          "name": "_stableFundingRateFactor",
          "type": "uint256"
        }
      ],
      "name": "setFundingRate",
      "outputs": [],
      "stateMutability": "nonpayable",
      "type": "function"
    },
    {
      "inputs": [
        {
          "internalType": "address",
          "name": "_gov",
          "type": "address"
        }
      ],
      "name": "setGov",
      "outputs": [],
      "stateMutability": "nonpayable",
      "type": "function"
    },
    {
      "inputs": [
        {
          "internalType": "bool",
          "name": "_inManagerMode",
          "type": "bool"
        }
      ],
      "name": "setInManagerMode",
      "outputs": [],
      "stateMutability": "nonpayable",
      "type": "function"
    },
    {
      "inputs": [
        {
          "internalType": "bool",
          "name": "_inPrivateLiquidationMode",
          "type": "bool"
        }
      ],
      "name": "setInPrivateLiquidationMode",
      "outputs": [],
      "stateMutability": "nonpayable",
      "type": "function"
    },
    {
      "inputs": [
        {
          "internalType": "bool",
          "name": "_isLeverageEnabled",
          "type": "bool"
        }
      ],
      "name": "setIsLeverageEnabled",
      "outputs": [],
      "stateMutability": "nonpayable",
      "type": "function"
    },
    {
      "inputs": [
        {
          "internalType": "bool",
          "name": "_isSwapEnabled",
          "type": "bool"
        }
      ],
      "name": "setIsSwapEnabled",
      "outputs": [],
      "stateMutability": "nonpayable",
      "type": "function"
    },
    {
      "inputs": [
        {
          "internalType": "address",
          "name": "_liquidator",
          "type": "address"
        },
        {
          "internalType": "bool",
          "name": "_isActive",
          "type": "bool"
        }
      ],
      "name": "setLiquidator",
      "outputs": [],
      "stateMutability": "nonpayable",
      "type": "function"
    },
    {
      "inputs": [
        {
          "internalType": "address",
          "name": "_manager",
          "type": "address"
        },
        {
          "internalType": "bool",
          "name": "_isManager",
          "type": "bool"
        }
      ],
      "name": "setManager",
      "outputs": [],
      "stateMutability": "nonpayable",
      "type": "function"
    },
    {
      "inputs": [
        {
          "internalType": "uint256",
          "name": "_maxGasPrice",
          "type": "uint256"
        }
      ],
      "name": "setMaxGasPrice",
      "outputs": [],
      "stateMutability": "nonpayable",
      "type": "function"
    },
    {
      "inputs": [
        {
          "internalType": "address",
          "name": "_token",
          "type": "address"
        },
        {
          "internalType": "uint256",
          "name": "_amount",
          "type": "uint256"
        }
      ],
      "name": "setMaxGlobalShortSize",
      "outputs": [],
      "stateMutability": "nonpayable",
      "type": "function"
    },
    {
      "inputs": [
        {
          "internalType": "uint256",
          "name": "_maxLeverage",
          "type": "uint256"
        }
      ],
      "name": "setMaxLeverage",
      "outputs": [],
      "stateMutability": "nonpayable",
      "type": "function"
    },
    {
      "inputs": [
        {
          "internalType": "uint256",
          "name": "_minProfitTime",
          "type": "uint256"
        }
      ],
      "name": "setMinProfitTime",
      "outputs": [],
      "stateMutability": "nonpayable",
      "type": "function"
    },
    {
      "inputs": [
        {
          "internalType": "address",
          "name": "_priceFeed",
          "type": "address"
        }
      ],
      "name": "setPriceFeed",
      "outputs": [],
      "stateMutability": "nonpayable",
      "type": "function"
    },
    {
      "inputs": [
        {
          "internalType": "address",
          "name": "_token",
          "type": "address"
        },
        {
          "internalType": "uint256",
          "name": "_tokenDecimals",
          "type": "uint256"
        },
        {
          "internalType": "uint256",
          "name": "_tokenWeight",
          "type": "uint256"
        },
        {
          "internalType": "uint256",
          "name": "_minProfitBps",
          "type": "uint256"
        },
        {
          "internalType": "uint256",
          "name": "_maxZkusdAmount",
          "type": "uint256"
        },
        {
          "internalType": "bool",
          "name": "_isStable",
          "type": "bool"
        },
        {
          "internalType": "bool",
          "name": "_isShortable",
          "type": "bool"
        },
        {
          "internalType": "bool",
          "name": "_isEquity",
          "type": "bool"
        }
      ],
      "name": "setTokenConfig",
      "outputs": [],
      "stateMutability": "nonpayable",
      "type": "function"
    },
    {
      "inputs": [
        {
          "internalType": "contract IVaultUtils",
          "name": "_vaultUtils",
          "type": "address"
        }
      ],
      "name": "setVaultUtils",
      "outputs": [],
      "stateMutability": "nonpayable",
      "type": "function"
    },
    {
      "inputs": [
        {
          "internalType": "address",
          "name": "_token",
          "type": "address"
        },
        {
          "internalType": "uint256",
          "name": "_amount",
          "type": "uint256"
        }
      ],
      "name": "setZkusdAmount",
      "outputs": [],
      "stateMutability": "nonpayable",
      "type": "function"
    },
    {
      "inputs": [
        {
          "internalType": "address",
          "name": "_zusd",
          "type": "address"
        }
      ],
      "name": "setZusd",
      "outputs": [],
      "stateMutability": "nonpayable",
      "type": "function"
    },
    {
      "inputs": [
        {
          "internalType": "address",
          "name": "",
          "type": "address"
        }
      ],
      "name": "shortableTokens",
      "outputs": [
        {
          "internalType": "bool",
          "name": "",
          "type": "bool"
        }
      ],
      "stateMutability": "view",
      "type": "function"
    },
    {
      "inputs": [],
      "name": "stableFundingRateFactor",
      "outputs": [
        {
          "internalType": "uint256",
          "name": "",
          "type": "uint256"
        }
      ],
      "stateMutability": "view",
      "type": "function"
    },
    {
      "inputs": [],
      "name": "stableSwapFeeBasisPoints",
      "outputs": [
        {
          "internalType": "uint256",
          "name": "",
          "type": "uint256"
        }
      ],
      "stateMutability": "view",
      "type": "function"
    },
    {
      "inputs": [],
      "name": "stableTaxBasisPoints",
      "outputs": [
        {
          "internalType": "uint256",
          "name": "",
          "type": "uint256"
        }
      ],
      "stateMutability": "view",
      "type": "function"
    },
    {
      "inputs": [
        {
          "internalType": "address",
          "name": "",
          "type": "address"
        }
      ],
      "name": "stableTokens",
      "outputs": [
        {
          "internalType": "bool",
          "name": "",
          "type": "bool"
        }
      ],
      "stateMutability": "view",
      "type": "function"
    },
    {
      "inputs": [
        {
          "internalType": "address",
          "name": "_tokenIn",
          "type": "address"
        },
        {
          "internalType": "address",
          "name": "_tokenOut",
          "type": "address"
        },
        {
          "internalType": "address",
          "name": "_receiver",
          "type": "address"
        }
      ],
      "name": "swap",
      "outputs": [
        {
          "internalType": "uint256",
          "name": "",
          "type": "uint256"
        }
      ],
      "stateMutability": "nonpayable",
      "type": "function"
    },
    {
      "inputs": [],
      "name": "swapFeeBasisPoints",
      "outputs": [
        {
          "internalType": "uint256",
          "name": "",
          "type": "uint256"
        }
      ],
      "stateMutability": "view",
      "type": "function"
    },
    {
      "inputs": [],
      "name": "taxBasisPoints",
      "outputs": [
        {
          "internalType": "uint256",
          "name": "",
          "type": "uint256"
        }
      ],
      "stateMutability": "view",
      "type": "function"
    },
    {
      "inputs": [
        {
          "internalType": "address",
          "name": "",
          "type": "address"
        }
      ],
      "name": "tokenBalances",
      "outputs": [
        {
          "internalType": "uint256",
          "name": "",
          "type": "uint256"
        }
      ],
      "stateMutability": "view",
      "type": "function"
    },
    {
      "inputs": [
        {
          "internalType": "address",
          "name": "",
          "type": "address"
        }
      ],
      "name": "tokenDecimals",
      "outputs": [
        {
          "internalType": "uint256",
          "name": "",
          "type": "uint256"
        }
      ],
      "stateMutability": "view",
      "type": "function"
    },
    {
      "inputs": [
        {
          "internalType": "address",
          "name": "",
          "type": "address"
        }
      ],
      "name": "tokenPnl",
      "outputs": [
        {
          "internalType": "int256",
          "name": "",
          "type": "int256"
        }
      ],
      "stateMutability": "view",
      "type": "function"
    },
    {
      "inputs": [
        {
          "internalType": "address",
          "name": "_token",
          "type": "address"
        },
        {
          "internalType": "uint256",
          "name": "_tokenAmount",
          "type": "uint256"
        }
      ],
      "name": "tokenToUsdMin",
      "outputs": [
        {
          "internalType": "uint256",
          "name": "",
          "type": "uint256"
        }
      ],
      "stateMutability": "view",
      "type": "function"
    },
    {
      "inputs": [
        {
          "internalType": "address",
          "name": "",
          "type": "address"
        }
      ],
      "name": "tokenWeights",
      "outputs": [
        {
          "internalType": "uint256",
          "name": "",
          "type": "uint256"
        }
      ],
      "stateMutability": "view",
      "type": "function"
    },
    {
      "inputs": [],
      "name": "totalTokenWeights",
      "outputs": [
        {
          "internalType": "uint256",
          "name": "",
          "type": "uint256"
        }
      ],
      "stateMutability": "view",
      "type": "function"
    },
    {
      "inputs": [
        {
          "internalType": "address",
          "name": "_collateralToken",
          "type": "address"
        },
        {
          "internalType": "address",
          "name": "_indexToken",
          "type": "address"
        }
      ],
      "name": "updateCumulativeFundingRate",
      "outputs": [],
      "stateMutability": "nonpayable",
      "type": "function"
    },
    {
      "inputs": [
        {
          "internalType": "address",
          "name": "_newVault",
          "type": "address"
        },
        {
          "internalType": "address",
          "name": "_token",
          "type": "address"
        },
        {
          "internalType": "uint256",
          "name": "_amount",
          "type": "uint256"
        }
      ],
      "name": "upgradeVault",
      "outputs": [],
      "stateMutability": "nonpayable",
      "type": "function"
    },
    {
      "inputs": [
        {
          "internalType": "address",
          "name": "_token",
          "type": "address"
        },
        {
          "internalType": "uint256",
          "name": "_usdAmount",
          "type": "uint256"
        },
        {
          "internalType": "uint256",
          "name": "_price",
          "type": "uint256"
        }
      ],
      "name": "usdToToken",
      "outputs": [
        {
          "internalType": "uint256",
          "name": "",
          "type": "uint256"
        }
      ],
      "stateMutability": "view",
      "type": "function"
    },
    {
      "inputs": [
        {
          "internalType": "address",
          "name": "_token",
          "type": "address"
        },
        {
          "internalType": "uint256",
          "name": "_usdAmount",
          "type": "uint256"
        }
      ],
      "name": "usdToTokenMax",
      "outputs": [
        {
          "internalType": "uint256",
          "name": "",
          "type": "uint256"
        }
      ],
      "stateMutability": "view",
      "type": "function"
    },
    {
      "inputs": [
        {
          "internalType": "address",
          "name": "_token",
          "type": "address"
        },
        {
          "internalType": "uint256",
          "name": "_usdAmount",
          "type": "uint256"
        }
      ],
      "name": "usdToTokenMin",
      "outputs": [
        {
          "internalType": "uint256",
          "name": "",
          "type": "uint256"
        }
      ],
      "stateMutability": "view",
      "type": "function"
    },
    {
      "inputs": [
        {
          "internalType": "address",
          "name": "_account",
          "type": "address"
        },
        {
          "internalType": "address",
          "name": "_collateralToken",
          "type": "address"
        },
        {
          "internalType": "address",
          "name": "_indexToken",
          "type": "address"
        },
        {
          "internalType": "bool",
          "name": "_isLong",
          "type": "bool"
        },
        {
          "internalType": "bool",
          "name": "_raise",
          "type": "bool"
        }
      ],
      "name": "validateLiquidation",
      "outputs": [
        {
          "internalType": "uint256",
          "name": "",
          "type": "uint256"
        },
        {
          "internalType": "uint256",
          "name": "",
          "type": "uint256"
        }
      ],
      "stateMutability": "view",
      "type": "function"
    },
    {
      "inputs": [],
      "name": "vaultUtils",
      "outputs": [
        {
          "internalType": "contract IVaultUtils",
          "name": "",
          "type": "address"
        }
      ],
      "stateMutability": "view",
      "type": "function"
    },
    {
      "inputs": [],
      "name": "whitelistedTokenCount",
      "outputs": [
        {
          "internalType": "uint256",
          "name": "",
          "type": "uint256"
        }
      ],
      "stateMutability": "view",
      "type": "function"
    },
    {
      "inputs": [
        {
          "internalType": "address",
          "name": "",
          "type": "address"
        }
      ],
      "name": "whitelistedTokens",
      "outputs": [
        {
          "internalType": "bool",
          "name": "",
          "type": "bool"
        }
      ],
      "stateMutability": "view",
      "type": "function"
    },
    {
      "inputs": [
        {
          "internalType": "address",
          "name": "_token",
          "type": "address"
        },
        {
          "internalType": "address",
          "name": "_receiver",
          "type": "address"
        }
      ],
      "name": "withdrawFees",
      "outputs": [
        {
          "internalType": "uint256",
          "name": "",
          "type": "uint256"
        }
      ],
      "stateMutability": "nonpayable",
      "type": "function"
    },
    {
      "inputs": [],
      "name": "zkusd",
      "outputs": [
        {
          "internalType": "address",
          "name": "",
          "type": "address"
        }
      ],
      "stateMutability": "view",
      "type": "function"
    },
    {
      "inputs": [
        {
          "internalType": "address",
          "name": "",
          "type": "address"
        }
      ],
      "name": "zkusdAmounts",
      "outputs": [
        {
          "internalType": "uint256",
          "name": "",
          "type": "uint256"
        }
      ],
      "stateMutability": "view",
      "type": "function"
    },
    {
      "inputs": [],
      "name": "zusd",
      "outputs": [
        {
          "internalType": "address",
          "name": "",
          "type": "address"
        }
      ],
      "stateMutability": "view",
      "type": "function"
    }
  ],
  "transactionHash": "0x7481c4c693526c8b2e3a3e8b98fda40c3654f3739ad5d61c49e100e3f0b6ca19",
  "args": [],
  "numDeployments": 1,
  "solcInputHash": "dfd549272a67d32b40d2afebc3e64372",
  "bytecode": "0x6080604052620f4240600b556032600c556014600d55601e600e819055600f556004601055600a601155610e106012556016805464ffffff00001961ff001960ff1990921660011791909116610100171664010000000017905534801561006557600080fd5b506001600081905580546001600160a01b03191633179055615efb806200008d6000396000f3fe608060405234801561001057600080fd5b50600436106106005760003560e01c806382a084901161031d578063c7e074c3116101a9578063df73a267116100fa578063f07bbf77116100a8578063f07bbf7714611607578063f255527814611626578063f3ae241514611654578063f887ea401461167a578063fa12dbc014611682578063fbfded6d146116b4578063fdaf6ac3146116e2578063fed1a6061461172657610600565b8063df73a267146114ed578063e124e6d2146114f5578063e468baf01461151b578063e67f59a714611538578063ee1310661461155e578063efa10a6e146115b5578063f07456ce146115e157610600565b8063d9ac422511610157578063d9ac4225146113b3578063da76524c146113bb578063daf9c21014611405578063db3555fb1461142b578063db97495f14611451578063dc8f5fac1461149d578063de2ea948146114a557610600565b8063c7e074c314611258578063cea0c32814611298578063cfad57a2146112ce578063d2fa635e146112f4578063d3127e6314611311578063d54d5a9f1461132e578063d8f897c31461138d57610600565b80639bc90a0f1161026e578063a93acac21161021c578063a93acac21461114c578063ab2f3ad414611172578063ace112de14611198578063ae3302c2146111c4578063b1cc53ab146111cc578063c3c7b9e914611204578063c4f718bf1461122a578063c65bc7b11461123257610600565b80639bc90a0f146110825780639d7432ca1461108a5780639f392eb3146110bc578063a22f2392146110c4578063a42ab3d2146110cc578063a5e90eee146110f8578063a86699151461112657610600565b80639060b1ca116102cb5780639060b1ca14610fa3578063918a045c14610fab5780639317020d14610fd15780639331621214610ff05780639698d25a146110285780639849e4121461104e5780639899cd021461105657610600565b806382a0849014610e625780638585f4d214610eb657806388b1fbdf14610ee25780638a27d46814610f085780638a78daa814610f315780638ee573ac14610f575780638f7b840414610f7d57610600565b80634453a3741161049c5780635c07eaab116103ed57806371089f4d1161039b57806371089f4d14610d5c578063724e78da14610d82578063728cdbca14610da8578063741bef1a14610df05780637a210a2b14610df85780637c2eb9f714610e005780638097505114610e1f57806381a612d614610e3c57610600565b80635c07eaab14610c6c5780635f7bc11914610cac5780636092219914610cd257806362287a3214610d005780636274980314610d085780636abbe0c814610d2e5780636ae0b15414610d3657610600565b80634d47b3041161044a5780634d47b30414610b67578063514ea4bf14610b6f578063523fba7f14610bc4578063529a356f14610bea57806352f55eed14610c1057806354d33cf914610c36578063552036b314610c6457610600565b80634453a374146109e257806345a6f37014610a10578063486fe2a114610a4e57806348d91abf14610a7457806348f35cbb14610ab85780634a3f088d14610ac05780634a993ee914610b4157610600565b806324ca984e11610556578063351a964d11610504578063351a964d14610917578063392e53cd1461091f5780633de39c11146109275780633e72a2621461092f57806340eb380214610937578063421528731461098857806342b60b03146109bc57610600565b806324ca984e146107e357806328e67be5146108095780632c668ec11461087e5780632d4b0576146108aa57806330455ede146108e8578063318bc6891461090757806332a010d81461090f57610600565b806312d43a51116105b357806312d43a51146106f5578063134ca63b146107195780631511476c14610721578063174d26941461077a578063181e210e146107825780631ce9cb8f1461079e57806324b0c04d146107c457610600565b8062bd0b631461060557806303583ac71461062d5780630842b07614610665578063086655201461066d57806309c62d5c146106935780630a48d5a9146106c157806310eb56c2146106ed575b600080fd5b61062b6004803603602081101561061b57600080fd5b50356001600160a01b03166117b8565b005b6106536004803603602081101561064357600080fd5b50356001600160a01b03166117e8565b60408051918252519081900360200190f35b6106536117fa565b6106536004803603602081101561068357600080fd5b50356001600160a01b0316611800565b610653600480360360408110156106a957600080fd5b506001600160a01b0381358116916020013516611812565b610653600480360360408110156106d757600080fd5b506001600160a01b038135169060200135611a8c565b610653611ae5565b6106fd611aeb565b604080516001600160a01b039092168252519081900360200190f35b610653611afa565b61075f6004803603608081101561073757600080fd5b506001600160a01b038135811691602081013582169160408201351690606001351515611b00565b60408051921515835260208301919091528051918290030190f35b610653611b2c565b61078a611b32565b604080519115158252519081900360200190f35b610653600480360360208110156107b457600080fd5b50356001600160a01b0316611b42565b61062b600480360360208110156107da57600080fd5b50351515611b54565b61062b600480360360208110156107f957600080fd5b50356001600160a01b0316611b7a565b61062b6004803603604081101561081f57600080fd5b81359190810190604081016020820135600160201b81111561084057600080fd5b82018360208201111561085257600080fd5b803590602001918460018302840111600160201b8311171561087357600080fd5b509092509050611bab565b6106536004803603604081101561089457600080fd5b506001600160a01b038135169060200135611c96565b610653600480360360808110156108c057600080fd5b506001600160a01b038135811691602081013582169160408201351690606001351515611cdb565b61062b600480360360208110156108fe57600080fd5b50351515611d36565b610653611d51565b6106fd611d57565b61078a611d6b565b61078a611d74565b610653611d84565b61078a611d8a565b61062b600480360361012081101561094e57600080fd5b5080359060208101359060408101359060608101359060808101359060a08101359060c08101359060e08101359061010001351515611d98565b6106536004803603606081101561099e57600080fd5b508035906001600160a01b0360208201358116916040013516611e5c565b61078a600480360360208110156109d257600080fd5b50356001600160a01b0316611efe565b61062b600480360360408110156109f857600080fd5b506001600160a01b0381351690602001351515611f13565b61075f60048036036080811015610a2657600080fd5b506001600160a01b038135811691602081013582169160408201351690606001351515611f46565b61065360048036036020811015610a6457600080fd5b50356001600160a01b0316611fe4565b61062b600480360360a0811015610a8a57600080fd5b506001600160a01b038135811691602081013582169160408201351690606081013590608001351515611ff6565b6106fd612434565b610afe60048036036080811015610ad657600080fd5b506001600160a01b038135811691602081013582169160408201351690606001351515612443565b604080519889526020890197909752878701959095526060870193909352608086019190915260a0850152151560c084015260e083015251908190036101000190f35b61065360048036036020811015610b5757600080fd5b50356001600160a01b0316612539565b61065361254b565b610b8c60048036036020811015610b8557600080fd5b5035612551565b604080519788526020880196909652868601949094526060860192909252608085015260a084015260c0830152519081900360e00190f35b61065360048036036020811015610bda57600080fd5b50356001600160a01b031661258e565b61078a60048036036020811015610c0057600080fd5b50356001600160a01b03166125a0565b61065360048036036020811015610c2657600080fd5b50356001600160a01b03166125b5565b61065360048036036040811015610c4c57600080fd5b506001600160a01b03813581169160200135166125c7565b61078a61287d565b61075f600480360360a0811015610c8257600080fd5b506001600160a01b0381351690602081013590604081013590606081013515159060800135612886565b61062b60048036036020811015610cc257600080fd5b50356001600160a01b031661297e565b61078a60048036036040811015610ce857600080fd5b506001600160a01b0381358116916020013516612a61565b610653612a81565b61065360048036036020811015610d1e57600080fd5b50356001600160a01b0316612a87565b6106fd612a99565b61062b60048036036020811015610d4c57600080fd5b50356001600160a01b0316612aaf565b61062b60048036036020811015610d7257600080fd5b50356001600160a01b0316612add565b61062b60048036036020811015610d9857600080fd5b50356001600160a01b0316612b13565b61062b600480360360c0811015610dbe57600080fd5b506001600160a01b03813581169160208101358216916040820135169060608101359060808101359060a00135612b3d565b6106fd612bc4565b610653612bd3565b61062b60048036036020811015610e1657600080fd5b50351515612bd9565b61062b60048036036020811015610e3557600080fd5b5035612bfb565b61065360048036036020811015610e5257600080fd5b50356001600160a01b0316612c08565b610653600480360360e0811015610e7857600080fd5b506001600160a01b0381358116916020810135821691604082013581169160608101359160808201359160a081013515159160c09091013516612d6a565b61062b60048036036040811015610ecc57600080fd5b506001600160a01b038135169060200135612de8565b61065360048036036020811015610ef857600080fd5b50356001600160a01b0316612e0c565b61062b60048036036060811015610f1e57600080fd5b5080359060208101359060400135612e1e565b61065360048036036020811015610f4757600080fd5b50356001600160a01b0316612e34565b61065360048036036020811015610f6d57600080fd5b50356001600160a01b0316612e46565b61062b60048036036020811015610f9357600080fd5b50356001600160a01b0316612e58565b61078a612e82565b61065360048036036020811015610fc157600080fd5b50356001600160a01b0316612e92565b61062b60048036036020811015610fe757600080fd5b50351515612f52565b6106536004803603606081101561100657600080fd5b506001600160a01b038135811691602081013582169160409091013516612f6d565b6106536004803603602081101561103e57600080fd5b50356001600160a01b0316613236565b610653613248565b6106536004803603604081101561106c57600080fd5b506001600160a01b03813516906020013561324e565b6106fd613270565b610653600480360360608110156110a057600080fd5b506001600160a01b03813516906020810135906040013561327f565b61078a613328565b610653613337565b610653600480360360408110156110e257600080fd5b506001600160a01b03813516906020013561333d565b61062b6004803603604081101561110e57600080fd5b506001600160a01b038135169060200135151561335a565b61078a6004803603602081101561113c57600080fd5b50356001600160a01b031661338d565b6106536004803603602081101561116257600080fd5b50356001600160a01b03166133a2565b6106536004803603602081101561118857600080fd5b50356001600160a01b03166134a0565b61062b600480360360408110156111ae57600080fd5b506001600160a01b0381351690602001356134b2565b61065361350d565b610653600480360360608110156111e257600080fd5b506001600160a01b038135811691602081013590911690604001351515613513565b6106536004803603602081101561121a57600080fd5b50356001600160a01b03166135ae565b6106536135c0565b6106536004803603602081101561124857600080fd5b50356001600160a01b03166135c6565b610653600480360360a081101561126e57600080fd5b506001600160a01b03813516906020810135906040810135906060810135906080013515156135d8565b61062b600480360360608110156112ae57600080fd5b506001600160a01b03813581169160208101359091169060400135613682565b61062b600480360360208110156112e457600080fd5b50356001600160a01b031661369e565b61062b6004803603602081101561130a57600080fd5b50356136c8565b61062b6004803603602081101561132757600080fd5b50356136d5565b611374600480360360a081101561134457600080fd5b506001600160a01b03813581169160208101358216916040820135169060608101351515906080013515156136f1565b6040805192835260208301919091528051918290030190f35b610653600480360360208110156113a357600080fd5b50356001600160a01b03166137a8565b6106536137ba565b610653600480360360c08110156113d157600080fd5b506001600160a01b038135811691602081013582169160408201351690606081013515159060808101359060a001356137c0565b61078a6004803603602081101561141b57600080fd5b50356001600160a01b0316613874565b61078a6004803603602081101561144157600080fd5b50356001600160a01b0316613889565b610653600480360360e081101561146757600080fd5b506001600160a01b0381351690602081013590604081013590606081013515159060808101359060a08101359060c0013561389e565b610653613931565b610653600480360360a08110156114bb57600080fd5b506001600160a01b03813581169160208101358216916040820135811691606081013515159160809091013516613937565b610653613cf7565b6106536004803603602081101561150b57600080fd5b50356001600160a01b0316613cfd565b6106fd6004803603602081101561153157600080fd5b5035613df8565b61062b6004803603602081101561154e57600080fd5b50356001600160a01b0316613e1f565b61062b600480360361010081101561157557600080fd5b506001600160a01b038135169060208101359060408101359060608101359060808101359060a081013515159060c081013515159060e001351515613ef4565b61062b600480360360408110156115cb57600080fd5b506001600160a01b038135169060200135614040565b610653600480360360208110156115f757600080fd5b50356001600160a01b0316614064565b61062b6004803603602081101561161d57600080fd5b50351515614075565b6106536004803603604081101561163c57600080fd5b506001600160a01b038135811691602001351661409c565b61078a6004803603602081101561166a57600080fd5b50356001600160a01b03166140f2565b6106fd614107565b6106536004803603606081101561169857600080fd5b506001600160a01b038135169060208101359060400135614116565b61062b600480360360408110156116ca57600080fd5b506001600160a01b0381358116916020013516614150565b610653600480360360a08110156116f857600080fd5b506001600160a01b038135811691602081013582169160408201351690606081013515159060800135614329565b6117436004803603602081101561173c57600080fd5b503561439f565b6040805160208082528351818301528351919283929083019185019080838360005b8381101561177d578181015183820152602001611765565b50505050905090810190601f1680156117aa5780820380516001836020036101000a031916815260200191505b509250505060405180910390f35b6117c061443a565b603080546001600160a01b0390921661010002610100600160a81b0319909216919091179055565b60316020526000908152604090205481565b602c5490565b602e6020526000908152604090205481565b60006002600054141561185a576040805162461bcd60e51b815260206004820152601f6024820152600080516020615e5b833981519152604482015290519081900360640190fd5b6002600055611867614455565b6001600160a01b0383166000908152602d602052604090205461188e9060ff166013614481565b6003546000906118a6906001600160a01b031661452d565b90506118b6600082116014614481565b6118c08485614150565b60006118cc8583611c96565b90506118dc600082116015614481565b6118e685836145da565b6118f085826146bc565b60035460408051632770a7eb60e21b81523060048201526024810185905290516001600160a01b0390921691639dc29fac9160448082019260009290919082900301818387803b15801561194357600080fd5b505af1158015611957573d6000803e3d6000fd5b505060035461197192506001600160a01b03169050614792565b6016546040805163d1258f6f60e01b81526001600160a01b038881166004830152602482018690529151600093600160281b90049092169163d1258f6f91604480820192602092909190829003018186803b1580156119cf57600080fd5b505afa1580156119e3573d6000803e3d6000fd5b505050506040513d60208110156119f957600080fd5b505190506000611a0a87848461482d565b9050611a1a600082116016614481565b611a258782886148f5565b604080516001600160a01b03808916825289166020820152808201869052606081018390526080810184905290517ff05e6366cb941c74f03fb14efe64792f2f8045c0d19de689272fdb19b83aca5a9181900360a00190a160016000559695505050505050565b600081611a9b57506000611adf565b6000611aa684612c08565b6001600160a01b038516600090815260286020526040902054909150611ada600a82900a611ad4868561499c565b906149f5565b925050505b92915050565b600d5481565b6001546001600160a01b031681565b60075481565b600080611b0f86868686611cdb565b600081815260086020526040902054151597909650945050505050565b60055481565b601654600160201b900460ff1681565b60236020526000908152604090205481565b611b5c61443a565b6016805491151563010000000263ff00000019909216919091179055565b3360009081526018602090815260408083206001600160a01b0394909416835292905220805460ff19166001179055565b60175460408051808201909152601e81527f5661756c743a20696e76616c6964206572726f72436f6e74726f6c6c657200006020820152906001600160a01b03163314611c765760405162461bcd60e51b81526004018080602001828103825283818151815260200191508051906020019080838360005b83811015611c3b578181015183820152602001611c23565b50505050905090810190601f168015611c685780820380516001836020036101000a031916815260200191505b509250505060405180910390fd5b506000838152602760205260409020611c90908383615d8a565b50505050565b600080611ca284613cfd565b90506000611cc082611ad48668327cb2734119d3b7a9601e1b61499c565b600354909150611ada9082906001600160a01b031687611e5c565b604080516bffffffffffffffffffffffff19606096871b811660208084019190915295871b811660348301529390951b9092166048850152151560f81b605c8401528051603d818503018152605d9093019052815191012090565b611d3e61443a565b6016805460ff1916911515919091179055565b60115481565b60305461010090046001600160a01b031681565b60165460ff1681565b600154600160a01b900460ff1681565b60145481565b601654610100900460ff1681565b611da061443a565b611db06101f48a11156003614481565b611dc06101f48911156004614481565b611dd06101f48811156005614481565b611de06101f48711156006614481565b611df06101f48611156007614481565b611e006101f48511156008614481565b611e1c6d04ee2d6d415b85acef81000000008411156009614481565b600c98909855600d96909655600e94909455600f9290925560105560115560055560155560168054911515620100000262ff000019909216919091179055565b60035460009081906001600160a01b03858116911614611e94576001600160a01b038416600090815260286020526040902054611e97565b60125b6003549091506000906001600160a01b03858116911614611ed0576001600160a01b038416600090815260286020526040902054611ed3565b60125b9050611ef282600a0a611ad483600a0a8961499c90919063ffffffff16565b925050505b9392505050565b601c6020526000908152604090205460ff1681565b611f1b61443a565b6001600160a01b03919091166000908152601960205260409020805460ff1916911515919091179055565b6000806000611f5787878787611cdb565b9050611f61615e08565b50600081815260086020908152604091829020825160e081018452815480825260018301549382019390935260028201549381018490526003820154606082015260048201546080820152600582015460a082015260069091015460c082018190529092611fd59289929091908990612886565b93509350505094509492505050565b602f6020526000908152604090205481565b6002600054141561203c576040805162461bcd60e51b815260206004820152601f6024820152600080516020615e5b833981519152604482015290519081900360640190fd5b600260005560165461205790610100900460ff16601c614481565b61205f614a37565b61206885614a53565b612073848483614ab6565b60165460408051634eae147d60e11b81526001600160a01b038881166004830152878116602483015286811660448301526064820186905284151560848301529151600160281b90930490911691639d5c28fa9160a480820192600092909190829003018186803b1580156120e757600080fd5b505afa1580156120fb573d6000803e3d6000fd5b505050506121098484614150565b600061211786868685611cdb565b60008181526008602052604081209192508361213b5761213686612c08565b612144565b61214486613cfd565b825490915061215557600282018190555b8154158015906121655750600085115b1561218b57612185868360000154846002015487858a886006015461389e565b60028301555b60006121a4898989888a88600001548960030154614bd0565b905060006121b18961452d565b905060006121bf8a83611a8c565b60018601549091506121d19082614c9e565b600186018190556121e690841115601d614481565b60018501546121f59084614cf8565b60018601556122058a8a89613513565b600386015584546122169089614c9e565b80865542600687015561222c901515601e614481565b61223e85600001548660010154614d3a565b61224c8b8b8b8a60016136f1565b5050600061225a8b8a61333d565b600487015490915061226c9082614c9e565b600487015561227b8b82614d5e565b87156122c0576122948b61228f8b87614c9e565b614dfe565b61229e8b83614e7a565b6122a88b84614ef6565b6122bb8b6122b68d8761324e565b6146bc565b61232c565b6001600160a01b038a166000908152602460205260409020546122fd576001600160a01b038a166000908152602560205260409020859055612322565b6123088a868b61327f565b6001600160a01b038b166000908152602560205260409020555b61232c8a8a61500e565b604080518881526001600160a01b03808f166020830152808e16828401528c1660608201526080810184905260a081018b905289151560c082015260e08101879052610100810186905290517f2fe68525253654c21998f35787a8d0f361905ef647c854092430ab65f2f15022918190036101200190a1855460018701546002880154600389015460048a015460058b0154604080518e81526020810197909752868101959095526060860193909352608085019190915260a084015260c083015260e08201879052517f20853733b590dce729d9f4628682ebd9a34d2354e72679e66f43a008fc03b773918190036101000190a15050600160005550505050505050505050565b6017546001600160a01b031681565b600080600080600080600080600061245d8d8d8d8d611cdb565b9050612467615e08565b600860008381526020019081526020016000206040518060e001604052908160008201548152602001600182015481526020016002820154815260200160038201548152602001600482015481526020016005820154815260200160068201548152505090506000808260a00151136124e7578160a001516000036124ed565b8160a001515b9050816000015182602001518360400151846060015185608001518560008860a0015112158860c001519a509a509a509a509a509a509a509a5050505094995094995094999196509450565b601f6020526000908152604090205481565b600e5481565b6008602052600090815260409020805460018201546002830154600384015460048501546005860154600690960154949593949293919290919087565b60296020526000908152604090205481565b60196020526000908152604090205460ff1681565b60096020526000908152604090205481565b60006002600054141561260f576040805162461bcd60e51b815260206004820152601f6024820152600080516020615e5b833981519152604482015290519081900360640190fd5b600260005561261c614455565b6001600160a01b0383166000908152602d60205260409020546126439060ff166010614481565b600061264e8461452d565b905061265e600082116011614481565b6126688485614150565b600061267385612c08565b9050600061269168327cb2734119d3b7a9601e1b611ad4858561499c565b6003549091506126ad90829088906001600160a01b0316611e5c565b90506126bd600082116012614481565b601654604080516382c04ce760e01b81526001600160a01b038981166004830152602482018590529151600093600160281b9004909216916382c04ce791604480820192602092909190829003018186803b15801561271b57600080fd5b505afa15801561272f573d6000803e3d6000fd5b505050506040513d602081101561274557600080fd5b50519050600061275688868461482d565b9050600061277468327cb2734119d3b7a9601e1b611ad4848861499c565b6003549091506127909082908b906001600160a01b0316611e5c565b905061279c8982615107565b6127a68983614ef6565b600354604080516340c10f1960e01b81526001600160a01b038b8116600483015260248201859052915191909216916340c10f1991604480830192600092919082900301818387803b1580156127fb57600080fd5b505af115801561280f573d6000803e3d6000fd5b5050604080516001600160a01b03808d1682528d1660208201528082018a9052606081018590526080810187905290517f1ebbe215538a4163dc9d20a3615a8cdc7b0cfa7c55b7473d142a5e5c3a3dc0a293509081900360a0019150a1600160005598975050505050505050565b60305460ff1681565b600080612897600086116026614481565b6000846128ac576128a788613cfd565b6128b5565b6128b588612c08565b905060008187116128cf576128ca8288614cf8565b6128d9565b6128d98783614cf8565b905060006128eb88611ad48b8561499c565b9050600087156128fe5750878311612903565b508288115b600061291a60155489614c9e90919063ffffffff16565b421161293e576001600160a01b038c166000908152601b6020526040902054612941565b60005b905081801561296457506129558b8261499c565b6129618461271061499c565b11155b1561296e57600092505b509a909950975050505050505050565b600260005414156129c4576040805162461bcd60e51b815260206004820152601f6024820152600080516020615e5b833981519152604482015290519081900360640190fd5b600260009081556001600160a01b0382168152602d60205260409020546129ef9060ff16600e614481565b60006129fa8261452d565b9050612a0a60008211600f614481565b612a148282614ef6565b604080516001600160a01b03841681526020810183905281517fa5a389190ebf6170a133bda5c769b77f4d6715b8aa172ec0ddf8473d0b4944bd929181900390910190a150506001600055565b601860209081526000928352604080842090915290825290205460ff1681565b60135481565b60256020526000908152604090205481565b601654600160281b90046001600160a01b031681565b3360009081526018602090815260408083206001600160a01b0394909416835292905220805460ff19169055565b612ae561443a565b601680546001600160a01b03909216600160281b0265010000000000600160c81b0319909216919091179055565b612b1b61443a565b600480546001600160a01b0319166001600160a01b0392909216919091179055565b612b4561443a565b612b60600160149054906101000a900460ff16156001614481565b60018054600160a01b60ff60a01b19909116179055600280546001600160a01b03199081166001600160a01b039889161790915560038054821696881696909617909555600480549095169390951692909217909255600591909155600655600755565b6004546001600160a01b031681565b600c5481565b612be161443a565b601680549115156101000261ff0019909216919091179055565b612c0361443a565b601555565b6001600160a01b0381166000908152601e602052604081205460ff168015612c32575060305460ff165b15612cd05760048054604080516317e1d38560e11b81526001600160a01b038681169482019490945260016024820152600060448201819052606482015290519290911691632fc3a70a91608480820192602092909190829003018186803b158015612c9d57600080fd5b505afa158015612cb1573d6000803e3d6000fd5b505050506040513d6020811015612cc757600080fd5b50519050612d65565b60048054604080516317e1d38560e11b81526001600160a01b038681169482019490945260016024820181905260006044830152606482015290519290911691632fc3a70a91608480820192602092909190829003018186803b158015612d3657600080fd5b505afa158015612d4a573d6000803e3d6000fd5b505050506040513d6020811015612d6057600080fd5b505190505b919050565b600060026000541415612db2576040805162461bcd60e51b815260206004820152601f6024820152600080516020615e5b833981519152604482015290519081900360640190fd5b6002600055612dbf614a37565b612dc888614a53565b612dd7888888888888886151c5565b600160005598975050505050505050565b612df061443a565b6001600160a01b039091166000908152601f6020526040902055565b601b6020526000908152604090205481565b612e2661443a565b601292909255600655600755565b60246020526000908152604090205481565b60286020526000908152604090205481565b612e6061443a565b601780546001600160a01b0319166001600160a01b0392909216919091179055565b6016546301000000900460ff1681565b600080600360009054906101000a90046001600160a01b03166001600160a01b03166318160ddd6040518163ffffffff1660e01b815260040160206040518083038186803b158015612ee357600080fd5b505afa158015612ef7573d6000803e3d6000fd5b505050506040513d6020811015612f0d57600080fd5b5051905080612f20576000915050612d65565b6001600160a01b0383166000908152602a6020526040902054602b54612f4a90611ad4838561499c565b949350505050565b612f5a61443a565b6030805460ff1916911515919091179055565b600060026000541415612fb5576040805162461bcd60e51b815260206004820152601f6024820152600080516020615e5b833981519152604482015290519081900360640190fd5b6002600055601654612fcb9060ff166017614481565b6001600160a01b0384166000908152602d6020526040902054612ff29060ff166018614481565b6001600160a01b0383166000908152602d60205260409020546130199060ff166019614481565b613039836001600160a01b0316856001600160a01b03161415601a614481565b6130438485614150565b61304d8384614150565b60006130588561452d565b905061306860008211601b614481565b600061307386612c08565b9050600061308086613cfd565b9050600061309282611ad4868661499c565b905061309f818989611e5c565b905060006130bd68327cb2734119d3b7a9601e1b611ad4878761499c565b6003549091506130d99082908b906001600160a01b0316611e5c565b60165460408051636d099c0b60e11b81526001600160a01b038d811660048301528c81166024830152604482018590529151939450600093600160281b9093049091169163da13381691606480820192602092909190829003018186803b15801561314357600080fd5b505afa158015613157573d6000803e3d6000fd5b505050506040513d602081101561316d57600080fd5b50519050600061317e8a858461482d565b905061318a8b84615107565b6131948a846145da565b61319e8b88614ef6565b6131a88a856146bc565b6131b18a6156ea565b6131bc8a828b6148f5565b604080516001600160a01b03808c168252808e1660208301528c1681830152606081018990526080810186905260a0810183905260c0810184905290517f0874b2d545cb271cdbda4e093020c452328b24af12382ed62c4d00f5c26709db9181900360e00190a160016000559a9950505050505050505050565b60266020526000908152604090205481565b60125481565b60008161325d57506000611adf565b611ef7838361326b86613cfd565b614116565b6003546001600160a01b031681565b6001600160a01b0383166000908152602460209081526040808320546025909252822054828582116132ba576132b58683614cf8565b6132c4565b6132c48287614cf8565b905060006132d683611ad4868561499c565b905086831160006132e78689614c9e565b90506000826132ff576132fa8285614c9e565b613309565b6133098285614cf8565b905061331981611ad48c8561499c565b9b9a5050505050505050505050565b60165462010000900460ff1681565b600f5481565b60008161334c57506000611adf565b611ef7838361326b86612c08565b61336261443a565b6001600160a01b03919091166000908152601a60205260409020805460ff1916911515919091179055565b601e6020526000908152604090205460ff1681565b6012546001600160a01b038216600090815260226020526040812054909142916133cb91614c9e565b11156133d957506000612d65565b6012546001600160a01b038316600090815260226020526040812054909161340691611ad4904290614cf8565b6001600160a01b0384166000908152600960205260409020549091508061343257600092505050612d65565b6001600160a01b0384166000908152601c602052604081205460ff1661345a5760065461345e565b6007545b6001600160a01b0386166000908152600a6020526040902054909150613497908390611ad490869061349190869061499c565b9061499c565b95945050505050565b602a6020526000908152604090205481565b6134ba61443a565b6001600160a01b0382166000908152602e6020526040902054808211156134f4576134ee836134e98484614cf8565b615107565b50613509565b613507836135028385614cf8565b6145da565b505b5050565b600b5481565b6016546040805163b1cc53ab60e01b81526001600160a01b038681166004830152858116602483015284151560448301529151600093600160281b90049092169163b1cc53ab91606480820192602092909190829003018186803b15801561357a57600080fd5b505afa15801561358e573d6000803e3d6000fd5b505050506040513d60208110156135a457600080fd5b5051949350505050565b600a6020526000908152604090205481565b60065481565b60216020526000908152604090205481565b6016546040805163c7e074c360e01b81526001600160a01b03888116600483015260248201889052604482018790526064820186905284151560848301529151600093600160281b90049092169163c7e074c39160a480820192602092909190829003018186803b15801561364c57600080fd5b505afa158015613660573d6000803e3d6000fd5b505050506040513d602081101561367657600080fd5b50519695505050505050565b61368a61443a565b6135076001600160a01b038316848361578d565b6136a661443a565b600180546001600160a01b0319166001600160a01b0392909216919091179055565b6136d061443a565b601455565b6136dd61443a565b6136ec61271082116002614481565b600b55565b6016546040805163d54d5a9f60e01b81526001600160a01b038881166004830152878116602483015286811660448301528515156064830152841515608483015282516000948594600160281b9091049092169263d54d5a9f9260a4808301939192829003018186803b15801561376757600080fd5b505afa15801561377b573d6000803e3d6000fd5b505050506040513d604081101561379157600080fd5b508051602090910151909890975095505050505050565b60226020526000908152604090205481565b60155481565b6016546040805163369d949360e21b81526001600160a01b0389811660048301528881166024830152878116604483015286151560648301526084820186905260a482018590529151600093600160281b90049092169163da76524c9160c480820192602092909190829003018186803b15801561383d57600080fd5b505afa158015613851573d6000803e3d6000fd5b505050506040513d602081101561386757600080fd5b5051979650505050505050565b602d6020526000908152604090205460ff1681565b601d6020526000908152604090205460ff1681565b60008060006138b08a8a8a8a88612886565b909250905060006138c18a87614c9e565b9050600088156138f057836138df576138da8284614cf8565b6138e9565b6138e98284614c9e565b9050613911565b83613904576138ff8284614c9e565b61390e565b61390e8284614cf8565b90505b61391f81611ad48a8561499c565b9450505050505b979650505050505050565b602b5481565b60006002600054141561397f576040805162461bcd60e51b815260206004820152601f6024820152600080516020615e5b833981519152604482015290519081900360640190fd5b6002600055601654600160201b900460ff16156139b457336000908152601960205260409020546139b49060ff166022614481565b6139be8585614150565b60006139cc87878787611cdb565b90506139d6615e08565b50600081815260086020908152604091829020825160e08101845281548082526001830154938201939093526002820154938101939093526003810154606084015260048101546080840152600581015460a08401526006015460c0830152613a429015156023614481565b600080613a538a8a8a8a60006136f1565b91509150613a6682600014156024614481565b8160021415613a8e57613a838a8a8a600087600001518c336151c5565b945050505050613ce9565b6000613a9a8a8361324e565b6001600160a01b038b16600090815260236020526040902054909150613ac09082614c9e565b6001600160a01b038b1660008181526023602090815260409182902093909355805191825291810184905280820183905290517f5d0c0019d3d45fadeb74eff9d2c9924d146d000ac6bcf3c28bf0ac3c9baa011a9181900360600190a1613b2b8a85608001516157df565b8715613b5a5760208401518451613b4c918c91613b4791614cf8565b614e7a565b613b5a8a6122b68c8561324e565b600088613b6f57613b6a8a613cfd565b613b78565b613b788a612c08565b90507f2e1f85a64a2f22cf2f0c42584e7c919ed4abe8d53675cff0f62bf1e95a1c676f868d8d8d8d8a600001518b602001518c608001518d60a001518a604051808b81526020018a6001600160a01b03168152602001896001600160a01b03168152602001886001600160a01b0316815260200187151581526020018681526020018581526020018481526020018381526020018281526020019a505050505050505050505060405180910390a188158015613c375750846020015183105b15613c65576020850151600090613c4e9085614cf8565b9050613c638c613c5e8e8461324e565b614ef6565b505b88613c7857613c788a8660000151615896565b600086815260086020526040812081815560018101829055600281018290556003810182905560048101829055600580820183905560069091019190915554613cc8908c906122b690829061324e565b613cde8b613cd88d60055461324e565b8a6148f5565b600096505050505050505b600160005595945050505050565b60105481565b6001600160a01b0381166000908152601e602052604081205460ff168015613d27575060305460ff165b15613d925760048054604080516317e1d38560e11b81526001600160a01b038681169482019490945260016024820181905260448201526000606482015290519290911691632fc3a70a91608480820192602092909190829003018186803b158015612c9d57600080fd5b60048054604080516317e1d38560e11b81526001600160a01b038681169482019490945260016024820181905260448201819052606482015290519290911691632fc3a70a91608480820192602092909190829003018186803b158015612d3657600080fd5b602c8181548110613e0557fe5b6000918252602090912001546001600160a01b0316905081565b613e2761443a565b6001600160a01b0381166000908152602d6020526040902054613e4e9060ff16600d614481565b6001600160a01b0381166000908152602a6020526040902054602b54613e7391614cf8565b602b556001600160a01b0381166000908152602d60209081526040808320805460ff1990811690915560288352818420849055602a8352818420849055601b8352818420849055602f8352818420849055601c8352818420805482169055601d90925290912080549091169055601354613eee906001614cf8565b60135550565b613efc61443a565b6001600160a01b0388166000908152602d602052604090205460ff16613f7957601354613f2a906001614c9e565b601355602c80546001810182556000919091527f7416c943b4a09859521022fd2e90eac0dd9026dad28fa317782a135f28a860910180546001600160a01b0319166001600160a01b038a161790555b602b546001600160a01b0389166000908152602a6020526040902054613fa0908290614cf8565b6001600160a01b038a166000908152602d602090815260408083208054600160ff1991821617909155602883528184208d9055602a83528184208c9055601b83528184208b9055602f83528184208a9055601c8352818420805482168a1515179055601d835281842080548216891515179055601e909252909120805490911684151517905590506140328188614c9e565b602b55505050505050505050565b61404861443a565b6001600160a01b03909116600090815260266020526040902055565b602080526000908152604090205481565b61407d61443a565b60168054911515600160201b0264ff0000000019909216919091179055565b60006140a661443a565b6001600160a01b038316600090815260236020526040902054806140ce576000915050611adf565b6001600160a01b038416600090815260236020526040812055611ef78482856148f5565b601a6020526000908152604090205460ff1681565b6002546001600160a01b031681565b60008261412557506000611ef7565b6001600160a01b03841660009081526028602052604090205461349783611ad486600a85900a61499c565b6016546040805163fbfded6d60e01b81526001600160a01b03858116600483015284811660248301529151600093600160281b90049092169163fbfded6d9160448082019260209290919082900301818787803b1580156141b057600080fd5b505af11580156141c4573d6000803e3d6000fd5b505050506040513d60208110156141da57600080fd5b50519050806141e95750613509565b6001600160a01b038316600090815260226020526040902054614236576012546142179061349142826149f5565b6001600160a01b03841660009081526022602052604090205550613509565b6012546001600160a01b038416600090815260226020526040902054429161425e9190614c9e565b111561426a5750613509565b6000614275846133a2565b6001600160a01b03851660009081526021602052604090205490915061429b9082614c9e565b6001600160a01b0385166000908152602160205260409020556012546142c59061349142826149f5565b6001600160a01b03851660008181526022602090815260408083209490945560218152908390205483519283529082015281517fa146fc154e1913322e9817d49f0d5c37466c24326e15de10e739a948be815eab929181900390910190a150505050565b6016546040805163fdaf6ac360e01b81526001600160a01b038881166004830152878116602483015286811660448301528515156064830152608482018590529151600093600160281b90049092169163fdaf6ac39160a480820192602092909190829003018186803b15801561364c57600080fd5b60276020908152600091825260409182902080548351601f6002600019610100600186161502019093169290920491820184900484028101840190945280845290918301828280156144325780601f1061440757610100808354040283529160200191614432565b820191906000526020600020905b81548152906001019060200180831161441557829003601f168201915b505050505081565b600154614453906001600160a01b031633146035614481565b565b6016546301000000900460ff161561445357336000908152601a60205260409020546144539060ff1660365b6000818152602760205260409020826135075760405162461bcd60e51b815260206004820190815282546002600019610100600184161502019091160460248301819052909182916044909101908490801561451e5780601f106144f35761010080835404028352916020019161451e565b820191906000526020600020905b81548152906001019060200180831161450157829003601f168201915b50509250505060405180910390fd5b6001600160a01b03811660008181526029602090815260408083205481516370a0823160e01b8152306004820152915193949093859391926370a08231926024808301939192829003018186803b15801561458757600080fd5b505afa15801561459b573d6000803e3d6000fd5b505050506040513d60208110156145b157600080fd5b50516001600160a01b03851660009081526029602052604090208190559050612f4a8183614cf8565b6001600160a01b0382166000908152602e6020526040902054818111614655576001600160a01b0383166000818152602e60209081526040808320929092558151928352820183905280517fec47cc044bef28293f4a873e76cadf7029a60922b8fb2655f475fd89b3bfc0f69281900390910190a150613509565b61465f8183614cf8565b6001600160a01b0384166000818152602e602090815260409182902093909355805191825291810184905281517fec47cc044bef28293f4a873e76cadf7029a60922b8fb2655f475fd89b3bfc0f6929181900390910190a1505050565b604080518082018252601a81527f5661756c743a20706f6f6c416d6f756e742065786365656465640000000000006020808301919091526001600160a01b0385166000908152600990915291909120546147179183906158fe565b6001600160a01b0383166000908152600960209081526040808320849055600a90915290205461474a9110156032614481565b604080516001600160a01b03841681526020810183905281517f112726233fbeaeed0f5b1dba5cb0b2b81883dee49fb35ff99fd98ed9f6d31eb0929181900390910190a15050565b6000816001600160a01b03166370a08231306040518263ffffffff1660e01b815260040180826001600160a01b0316815260200191505060206040518083038186803b1580156147e157600080fd5b505afa1580156147f5573d6000803e3d6000fd5b505050506040513d602081101561480b57600080fd5b50516001600160a01b0390921660009081526029602052604090209190915550565b60008061484a612710611ad46148438287614cf8565b879061499c565b905060006148588583614cf8565b6001600160a01b03871660009081526023602052604090205490915061487e9082614c9e565b6001600160a01b0387166000908152602360205260409020557f47cd9dda0e50ce30bcaaacd0488452b596221c07ac402a581cfae4d3933cac2b866148c38184611a8c565b604080516001600160a01b0390931683526020830191909152818101849052519081900360600190a150949350505050565b6149096001600160a01b038416828461578d565b604080516370a0823160e01b815230600482015290516001600160a01b038516916370a08231916024808301926020929190829003018186803b15801561494f57600080fd5b505afa158015614963573d6000803e3d6000fd5b505050506040513d602081101561497957600080fd5b50516001600160a01b039093166000908152602960205260409020929092555050565b6000826149ab57506000611adf565b828202828482816149b857fe5b0414611ef75760405162461bcd60e51b8152600401808060200182810382526021815260200180615e7b6021913960400191505060405180910390fd5b6000611ef783836040518060400160405280601a81526020017f536166654d6174683a206469766973696f6e206279207a65726f000000000000815250615958565b601454614a4357614453565b6144536014543a11156037614481565b336001600160a01b0382161415614a6957614ab3565b6002546001600160a01b0316331415614a8157614ab3565b6001600160a01b0381166000908152601860209081526040808320338452909152902054614ab39060ff166029614481565b50565b8015614b2f57614adb826001600160a01b0316846001600160a01b031614602a614481565b6001600160a01b0383166000908152602d6020526040902054614b029060ff16602b614481565b6001600160a01b0383166000908152601c6020526040902054614b2a9060ff1615602c614481565b613507565b6001600160a01b0383166000908152602d6020819052604090912054614b5a9160ff90911690614481565b6001600160a01b0383166000908152601c6020526040902054614b819060ff16602e614481565b6001600160a01b0382166000908152601c6020526040902054614ba99060ff1615602f614481565b6001600160a01b0382166000908152601d60205260409020546135079060ff166030614481565b600080614be08989898989614329565b90506000614bf28a8a8a8a89896137c0565b9050614bfe8282614c9e565b91506000614c0c8a8461324e565b6001600160a01b038b16600090815260236020526040902054909150614c329082614c9e565b6001600160a01b038b1660008181526023602090815260409182902093909355805191825291810185905280820183905290517f5d0c0019d3d45fadeb74eff9d2c9924d146d000ac6bcf3c28bf0ac3c9baa011a9181900360600190a150909998505050505050505050565b600082820183811015611ef7576040805162461bcd60e51b815260206004820152601b60248201527f536166654d6174683a206164646974696f6e206f766572666c6f770000000000604482015290519081900360640190fd5b6000611ef783836040518060400160405280601e81526020017f536166654d6174683a207375627472616374696f6e206f766572666c6f7700008152506158fe565b81614d5057614d4b81156027614481565b613509565b613509818310156028614481565b6001600160a01b0382166000908152600a6020526040902054614d819082614c9e565b6001600160a01b0383166000908152600a6020818152604080842085905560098252909220549152614db69111156034614481565b604080516001600160a01b03841681526020810183905281517faa5649d82f5462be9d19b0f2b31a59b2259950a6076550bac9f3a1c07db9f66d929181900390910190a15050565b6001600160a01b0382166000908152602080526040902054614e209082614c9e565b6001600160a01b0383166000818152602080805260409182902093909355805191825291810183905281517fd9d4761f75e0d0103b5cbeab941eeb443d7a56a35b5baf2a0787c03f03f4e474929181900390910190a15050565b6001600160a01b0382166000908152602080526040902054614e9c9082614cf8565b6001600160a01b0383166000818152602080805260409182902093909355805191825291810183905281517f34e07158b9db50df5613e591c44ea2ebc82834eff4a4dc3a46e000e608261d68929181900390910190a15050565b6001600160a01b038216600090815260096020526040902054614f199082614c9e565b6001600160a01b03831660008181526009602090815260408083209490945583516370a0823160e01b8152306004820152935191936370a082319260248083019392829003018186803b158015614f6f57600080fd5b505afa158015614f83573d6000803e3d6000fd5b505050506040513d6020811015614f9957600080fd5b50516001600160a01b038416600090815260096020526040902054909150614fc5908210156031614481565b604080516001600160a01b03851681526020810184905281517f976177fbe09a15e5e43f848844963a42b41ef919ef17ff21a17a5421de8f4737929181900390910190a1505050565b6001600160a01b0382166000908152602460205260409020546150319082614c9e565b6001600160a01b0383166000908152602460209081526040808320939093556026905220548015613507578060246000856001600160a01b03166001600160a01b031681526020019081526020016000205411156040518060400160405280601a81526020017f5661756c743a206d61782073686f72747320657863656564656400000000000081525090611c905760405162461bcd60e51b8152602060048201818152835160248401528351909283926044909101919085019080838360008315611c3b578181015183820152602001611c23565b6001600160a01b0382166000908152602e602052604090205461512a9082614c9e565b6001600160a01b0383166000908152602e6020908152604080832093909355602f90522054801561517c576001600160a01b0383166000908152602e602052604090205461517c908210156033614481565b604080516001600160a01b03851681526020810184905281517f982ef4a8d5cbd9ece9ad1dabc077a621c58fd63f622a48b0a05011d54a2466ab929181900390910190a1505050565b601654604080516381d11a2360e01b81526001600160a01b038a8116600483015289811660248301528881166044830152606482018890526084820187905285151560a483015284811660c48301529151600093600160281b9004909216916381d11a239160e4808201928692909190829003018186803b15801561524957600080fd5b505afa15801561525d573d6000803e3d6000fd5b5050505061526b8787614150565b600061527989898987611cdb565b600081815260086020526040902080549192509061529a901515601f614481565b6152ac86826000015410156020614481565b6152be87826001015410156021614481565b6001810154815460048301546000916152db91611ad4908b61499c565b60048401549091506152ed9082614cf8565b60048401556152fc8b826157df565b5060008061530e8d8d8d8d8d8d6159bd565b8554919350915089146154b2576153268c8c8a613513565b60038501558354615337908a614cf8565b80855560018501546153499190614d3a565b6153578d8d8d8b60016136f1565b505087156153845761537a8c61228f866001015486614cf890919063ffffffff16565b6153848c8a614e7a565b600088615399576153948c613cfd565b6153a2565b6153a28c612c08565b90507f93d75d64d1f84fc6f430a64fc578bdd4c1e090e90ea2d51773e626d19de56d30868f8f8f8f8f8f886153d78c8c614cf8565b60408051998a526001600160a01b0398891660208b015296881689880152949096166060880152608087019290925260a0860152151560c085015260e084019290925261010083019190915251908190036101200190a18454600186015460028701546003880154600489015460058a0154604080518d81526020810197909752868101959095526060860193909352608085019190915260a084015260c083015260e08201839052517f20853733b590dce729d9f4628682ebd9a34d2354e72679e66f43a008fc03b773918190036101000190a150615688565b87156154cc576154c28c84614dfe565b6154cc8c8a614e7a565b6000886154e1576154dc8c613cfd565b6154ea565b6154ea8c612c08565b90507f93d75d64d1f84fc6f430a64fc578bdd4c1e090e90ea2d51773e626d19de56d30868f8f8f8f8f8f8861551f8c8c614cf8565b60408051998a526001600160a01b0398891660208b015296881689880152949096166060880152608087019290925260a0860152151560c085015260e084019290925261010083019190915251908190036101200190a18454600186015460028701546003880154600489015460058a0154604080518d81526020810197909752868101959095526060860193909352608085019190915260a084015260c0830152517f73af1d417d82c240fdb6d319b34ad884487c6bf2845d98980cc52ad9171cb4559181900360e00190a160058501546001600160a01b038d16600081815260316020908152604091829020805490940193849055815192835282019290925281517f43868fa7c98e5b0443ec4d2e35b82905b53ca483dfffb3f0176be54fc745a169929181900390910190a15060008581526008602052604081208181556001810182905560028101829055600381018290556004810182905560058101829055600601555b87615697576156978b8a615896565b81156156d75787156156b1576156b18c6122b68e8561324e565b60006156bd8d8361324e565b90506156ca8d828a6148f5565b9550613926945050505050565b5060009c9b505050505050505050505050565b6001600160a01b0381166000908152601f60209081526040808320546009909252909120541015614ab357604080518082018252601a81527f5661756c743a20706f6f6c416d6f756e74203c206275666665720000000000006020808301918252925162461bcd60e51b81526004810193845282516024820152825192939283926044909201919080838360008315611c3b578181015183820152602001611c23565b604080516001600160a01b038416602482015260448082018490528251808303909101815260649091019091526020810180516001600160e01b031663a9059cbb60e01b179052613507908490615bb7565b604080518082018252601b81527f5661756c743a20696e73756666696369656e74207265736572766500000000006020808301919091526001600160a01b0385166000908152600a909152919091205461583a9183906158fe565b6001600160a01b0383166000818152600a602090815260409182902093909355805191825291810183905281517f533cb5ed32be6a90284e96b5747a1bfc2d38fdb5768a6b5f67ff7d62144ed67b929181900390910190a15050565b6001600160a01b038216600090815260246020526040902054808211156158d657506001600160a01b038216600090815260246020526040812055613509565b6158e08183614cf8565b6001600160a01b038416600090815260246020526040902055505050565b600081848411156159505760405162461bcd60e51b8152602060048201818152835160248401528351909283926044909101919085019080838360008315611c3b578181015183820152602001611c23565b505050900390565b600081836159a75760405162461bcd60e51b8152602060048201818152835160248401528351909283926044909101919085019080838360008315611c3b578181015183820152602001611c23565b5060008385816159b357fe5b0495945050505050565b60008060006159ce89898987611cdb565b60008181526008602052604081208054600382015493945090926159fb918d918d918d918b918d91614bd0565b9050600080600080615a1c8d876000015488600201548d8a60060154612886565b87549195508593509150615a3490611ad48d8461499c565b925050506000828015615a475750600082115b15615a775750600584018054820190558088615a77576000615a698e8461324e565b9050615a758e826146bc565b505b82158015615a855750600082115b15615ac9576001850154615a999083614cf8565b600186015588615abd576000615aaf8e8461324e565b9050615abb8e82614ef6565b505b60058501805483900390555b8a15615af157615ad9818c614c9e565b6001860154909150615aeb908c614cf8565b60018601555b84548a1415615b14576001850154615b0a908290614c9e565b6000600187015590505b8084811115615b2e57615b278286614cf8565b9050615b62565b6001860154615b3d9086614cf8565b60018701558915615b62576000615b548f8761324e565b9050615b608f826146bc565b505b60408051888152851515602082015280820185905290517f3ff41bdde87755b687ae83d0221a232b6be51a803330ed9661c1b5d0105e0d8a9181900360600190a1909e909d509b505050505050505050505050565b6060615c0c826040518060400160405280602081526020017f5361666545524332303a206c6f772d6c6576656c2063616c6c206661696c6564815250856001600160a01b0316615c689092919063ffffffff16565b80519091501561350757808060200190516020811015615c2b57600080fd5b50516135075760405162461bcd60e51b815260040180806020018281038252602a815260200180615e9c602a913960400191505060405180910390fd5b6060612f4a84846000858560006060866001600160a01b031685876040518082805190602001908083835b60208310615cb25780518252601f199092019160209182019101615c93565b6001836020036101000a03801982511681845116808217855250505050505090500191505060006040518083038185875af1925050503d8060008114615d14576040519150601f19603f3d011682016040523d82523d6000602084013e615d19565b606091505b509150915061392682828660608315615d33575081611ef7565b825115615d435782518084602001fd5b60405162461bcd60e51b8152602060048201818152845160248401528451859391928392604401919085019080838360008315611c3b578181015183820152602001611c23565b828054600181600116156101000203166002900490600052602060002090601f016020900481019282601f10615dcb5782800160ff19823516178555615df8565b82800160010185558215615df8579182015b82811115615df8578235825591602001919060010190615ddd565b50615e04929150615e45565b5090565b6040518060e00160405280600081526020016000815260200160008152602001600081526020016000815260200160008152602001600081525090565b5b80821115615e045760008155600101615e4656fe5265656e7472616e637947756172643a207265656e7472616e742063616c6c00536166654d6174683a206d756c7469706c69636174696f6e206f766572666c6f775361666545524332303a204552433230206f7065726174696f6e20646964206e6f742073756363656564a2646970667358221220127602608b11c76851d1b1da79d9d6e10e06477ffd788f8509778f66fed4566664736f6c634300060c0033",
  "devdoc": {
    "kind": "dev",
    "methods": {
      "buyZKUSD(address,address)": {
        "params": {
          "_receiver": "receiver of zkUSD",
          "_token": "token to buy zkUSD with"
        },
        "returns": {
          "_0": "mintAmount amount of zkUSD minted"
        }
      },
      "decreasePosition(address,address,address,uint256,uint256,bool,address)": {
        "params": {
          "_account": "account to decrease position for",
          "_collateralDelta": "amount of collateral to withdraw",
          "_collateralToken": "token to use as collateral",
          "_indexToken": "token to use as index",
          "_isLong": "true if long, false if short",
          "_receiver": "receiver of tokens",
          "_sizeDelta": "size to decrease position by"
        },
        "returns": {
          "_0": "amountOut amount of tokens received"
        }
      },
      "increasePosition(address,address,address,uint256,bool)": {
        "params": {
          "_account": "account to increase position for",
          "_collateralToken": "token to use as collateral",
          "_indexToken": "token to use as index",
          "_isLong": "true if long, false if short",
          "_sizeDelta": "size to increase position by"
        }
      },
      "liquidatePosition(address,address,address,bool,address)": {
        "params": {
          "_account": "account to close position for",
          "_collateralToken": "token to use as collateral",
          "_feeReceiver": "receiver of tokens",
          "_indexToken": "token to use as index",
          "_isLong": "true if long, false if short"
        }
      },
      "sellZKUSD(address,address)": {
        "params": {
          "_receiver": "receiver of token",
          "_token": "token to sell zkUSD for"
        },
        "returns": {
          "_0": "amountOut amount of token received"
        }
      },
      "swap(address,address,address)": {
        "params": {
          "_receiver": "receiver of token",
          "_tokenIn": "token to swap from",
          "_tokenOut": "token to swap to"
        },
        "returns": {
          "_0": "amountOut amount of token received"
        }
      }
    },
    "version": 1
  },
  "userdoc": {
    "kind": "user",
    "methods": {},
    "version": 1
  },
  "storageLayout": {
    "storage": [
      {
        "astId": 15360,
        "contract": "contracts/core/Vault.sol:Vault",
        "label": "_status",
        "offset": 0,
        "slot": "0",
        "type": "t_uint256"
      },
      {
        "astId": 12513,
        "contract": "contracts/core/Vault.sol:Vault",
        "label": "gov",
        "offset": 0,
        "slot": "1",
        "type": "t_address"
      },
      {
        "astId": 12516,
        "contract": "contracts/core/Vault.sol:Vault",
        "label": "isInitialized",
        "offset": 20,
        "slot": "1",
        "type": "t_bool"
      },
      {
        "astId": 12519,
        "contract": "contracts/core/Vault.sol:Vault",
        "label": "router",
        "offset": 0,
        "slot": "2",
        "type": "t_address"
      },
      {
        "astId": 12522,
        "contract": "contracts/core/Vault.sol:Vault",
        "label": "zkusd",
        "offset": 0,
        "slot": "3",
        "type": "t_address"
      },
      {
        "astId": 12525,
        "contract": "contracts/core/Vault.sol:Vault",
        "label": "priceFeed",
        "offset": 0,
        "slot": "4",
        "type": "t_address"
      },
      {
        "astId": 12528,
        "contract": "contracts/core/Vault.sol:Vault",
        "label": "liquidationFeeUsd",
        "offset": 0,
        "slot": "5",
        "type": "t_uint256"
      },
      {
        "astId": 12531,
        "contract": "contracts/core/Vault.sol:Vault",
        "label": "fundingRateFactor",
        "offset": 0,
        "slot": "6",
        "type": "t_uint256"
      },
      {
        "astId": 12534,
        "contract": "contracts/core/Vault.sol:Vault",
        "label": "stableFundingRateFactor",
        "offset": 0,
        "slot": "7",
        "type": "t_uint256"
      },
      {
        "astId": 12538,
        "contract": "contracts/core/Vault.sol:Vault",
        "label": "positions",
        "offset": 0,
        "slot": "8",
        "type": "t_mapping(t_bytes32,t_struct(Position)13634_storage)"
      },
      {
        "astId": 12543,
        "contract": "contracts/core/Vault.sol:Vault",
        "label": "poolAmounts",
        "offset": 0,
        "slot": "9",
        "type": "t_mapping(t_address,t_uint256)"
      },
      {
        "astId": 12548,
        "contract": "contracts/core/Vault.sol:Vault",
        "label": "reservedAmounts",
        "offset": 0,
        "slot": "10",
        "type": "t_mapping(t_address,t_uint256)"
      },
      {
        "astId": 12554,
        "contract": "contracts/core/Vault.sol:Vault",
        "label": "maxLeverage",
        "offset": 0,
        "slot": "11",
        "type": "t_uint256"
      },
      {
        "astId": 12558,
        "contract": "contracts/core/Vault.sol:Vault",
        "label": "taxBasisPoints",
        "offset": 0,
        "slot": "12",
        "type": "t_uint256"
      },
      {
        "astId": 12562,
        "contract": "contracts/core/Vault.sol:Vault",
        "label": "stableTaxBasisPoints",
        "offset": 0,
        "slot": "13",
        "type": "t_uint256"
      },
      {
        "astId": 12566,
        "contract": "contracts/core/Vault.sol:Vault",
        "label": "mintBurnFeeBasisPoints",
        "offset": 0,
        "slot": "14",
        "type": "t_uint256"
      },
      {
        "astId": 12570,
        "contract": "contracts/core/Vault.sol:Vault",
        "label": "swapFeeBasisPoints",
        "offset": 0,
        "slot": "15",
        "type": "t_uint256"
      },
      {
        "astId": 12574,
        "contract": "contracts/core/Vault.sol:Vault",
        "label": "stableSwapFeeBasisPoints",
        "offset": 0,
        "slot": "16",
        "type": "t_uint256"
      },
      {
        "astId": 12578,
        "contract": "contracts/core/Vault.sol:Vault",
        "label": "marginFeeBasisPoints",
        "offset": 0,
        "slot": "17",
        "type": "t_uint256"
      },
      {
        "astId": 12582,
        "contract": "contracts/core/Vault.sol:Vault",
        "label": "fundingInterval",
        "offset": 0,
        "slot": "18",
        "type": "t_uint256"
      },
      {
        "astId": 12585,
        "contract": "contracts/core/Vault.sol:Vault",
        "label": "whitelistedTokenCount",
        "offset": 0,
        "slot": "19",
        "type": "t_uint256"
      },
      {
        "astId": 12588,
        "contract": "contracts/core/Vault.sol:Vault",
        "label": "maxGasPrice",
        "offset": 0,
        "slot": "20",
        "type": "t_uint256"
      },
      {
        "astId": 12591,
        "contract": "contracts/core/Vault.sol:Vault",
        "label": "minProfitTime",
        "offset": 0,
        "slot": "21",
        "type": "t_uint256"
      },
      {
        "astId": 12595,
        "contract": "contracts/core/Vault.sol:Vault",
        "label": "isSwapEnabled",
        "offset": 0,
        "slot": "22",
        "type": "t_bool"
      },
      {
        "astId": 12599,
        "contract": "contracts/core/Vault.sol:Vault",
        "label": "isLeverageEnabled",
        "offset": 1,
        "slot": "22",
        "type": "t_bool"
      },
      {
        "astId": 12603,
        "contract": "contracts/core/Vault.sol:Vault",
        "label": "hasDynamicFees",
        "offset": 2,
        "slot": "22",
        "type": "t_bool"
      },
      {
        "astId": 12607,
        "contract": "contracts/core/Vault.sol:Vault",
        "label": "inManagerMode",
        "offset": 3,
        "slot": "22",
        "type": "t_bool"
      },
      {
        "astId": 12611,
        "contract": "contracts/core/Vault.sol:Vault",
        "label": "inPrivateLiquidationMode",
        "offset": 4,
        "slot": "22",
        "type": "t_bool"
      },
      {
        "astId": 12613,
        "contract": "contracts/core/Vault.sol:Vault",
        "label": "vaultUtils",
        "offset": 5,
        "slot": "22",
        "type": "t_contract(IVaultUtils)7590"
      },
      {
        "astId": 12615,
        "contract": "contracts/core/Vault.sol:Vault",
        "label": "errorController",
        "offset": 0,
        "slot": "23",
        "type": "t_address"
      },
      {
        "astId": 12622,
        "contract": "contracts/core/Vault.sol:Vault",
        "label": "approvedRouters",
        "offset": 0,
        "slot": "24",
        "type": "t_mapping(t_address,t_mapping(t_address,t_bool))"
      },
      {
        "astId": 12627,
        "contract": "contracts/core/Vault.sol:Vault",
        "label": "isLiquidator",
        "offset": 0,
        "slot": "25",
        "type": "t_mapping(t_address,t_bool)"
      },
      {
        "astId": 12632,
        "contract": "contracts/core/Vault.sol:Vault",
        "label": "isManager",
        "offset": 0,
        "slot": "26",
        "type": "t_mapping(t_address,t_bool)"
      },
      {
        "astId": 12637,
        "contract": "contracts/core/Vault.sol:Vault",
        "label": "minProfitBasisPoints",
        "offset": 0,
        "slot": "27",
        "type": "t_mapping(t_address,t_uint256)"
      },
      {
        "astId": 12642,
        "contract": "contracts/core/Vault.sol:Vault",
        "label": "stableTokens",
        "offset": 0,
        "slot": "28",
        "type": "t_mapping(t_address,t_bool)"
      },
      {
        "astId": 12647,
        "contract": "contracts/core/Vault.sol:Vault",
        "label": "shortableTokens",
        "offset": 0,
        "slot": "29",
        "type": "t_mapping(t_address,t_bool)"
      },
      {
        "astId": 12652,
        "contract": "contracts/core/Vault.sol:Vault",
        "label": "equityTokens",
        "offset": 0,
        "slot": "30",
        "type": "t_mapping(t_address,t_bool)"
      },
      {
        "astId": 12657,
        "contract": "contracts/core/Vault.sol:Vault",
        "label": "bufferAmounts",
        "offset": 0,
        "slot": "31",
        "type": "t_mapping(t_address,t_uint256)"
      },
      {
        "astId": 12662,
        "contract": "contracts/core/Vault.sol:Vault",
        "label": "guaranteedUsd",
        "offset": 0,
        "slot": "32",
        "type": "t_mapping(t_address,t_uint256)"
      },
      {
        "astId": 12667,
        "contract": "contracts/core/Vault.sol:Vault",
        "label": "cumulativeFundingRates",
        "offset": 0,
        "slot": "33",
        "type": "t_mapping(t_address,t_uint256)"
      },
      {
        "astId": 12672,
        "contract": "contracts/core/Vault.sol:Vault",
        "label": "lastFundingTimes",
        "offset": 0,
        "slot": "34",
        "type": "t_mapping(t_address,t_uint256)"
      },
      {
        "astId": 12677,
        "contract": "contracts/core/Vault.sol:Vault",
        "label": "feeReserves",
        "offset": 0,
        "slot": "35",
        "type": "t_mapping(t_address,t_uint256)"
      },
      {
        "astId": 12682,
        "contract": "contracts/core/Vault.sol:Vault",
        "label": "globalShortSizes",
        "offset": 0,
        "slot": "36",
        "type": "t_mapping(t_address,t_uint256)"
      },
      {
        "astId": 12687,
        "contract": "contracts/core/Vault.sol:Vault",
        "label": "globalShortAveragePrices",
        "offset": 0,
        "slot": "37",
        "type": "t_mapping(t_address,t_uint256)"
      },
      {
        "astId": 12692,
        "contract": "contracts/core/Vault.sol:Vault",
        "label": "maxGlobalShortSizes",
        "offset": 0,
        "slot": "38",
        "type": "t_mapping(t_address,t_uint256)"
      },
      {
        "astId": 12696,
        "contract": "contracts/core/Vault.sol:Vault",
        "label": "errors",
        "offset": 0,
        "slot": "39",
        "type": "t_mapping(t_uint256,t_string_storage)"
      },
      {
        "astId": 12701,
        "contract": "contracts/core/Vault.sol:Vault",
        "label": "tokenDecimals",
        "offset": 0,
        "slot": "40",
        "type": "t_mapping(t_address,t_uint256)"
      },
      {
        "astId": 12706,
        "contract": "contracts/core/Vault.sol:Vault",
        "label": "tokenBalances",
        "offset": 0,
        "slot": "41",
        "type": "t_mapping(t_address,t_uint256)"
      },
      {
        "astId": 12711,
        "contract": "contracts/core/Vault.sol:Vault",
        "label": "tokenWeights",
        "offset": 0,
        "slot": "42",
        "type": "t_mapping(t_address,t_uint256)"
      },
      {
        "astId": 12714,
        "contract": "contracts/core/Vault.sol:Vault",
        "label": "totalTokenWeights",
        "offset": 0,
        "slot": "43",
        "type": "t_uint256"
      },
      {
        "astId": 12718,
        "contract": "contracts/core/Vault.sol:Vault",
        "label": "allWhitelistedTokens",
        "offset": 0,
        "slot": "44",
        "type": "t_array(t_address)dyn_storage"
      },
      {
        "astId": 12723,
        "contract": "contracts/core/Vault.sol:Vault",
        "label": "whitelistedTokens",
        "offset": 0,
        "slot": "45",
        "type": "t_mapping(t_address,t_bool)"
      },
      {
        "astId": 12728,
        "contract": "contracts/core/Vault.sol:Vault",
        "label": "zkusdAmounts",
        "offset": 0,
        "slot": "46",
        "type": "t_mapping(t_address,t_uint256)"
      },
      {
        "astId": 12733,
        "contract": "contracts/core/Vault.sol:Vault",
        "label": "maxZkusdAmounts",
        "offset": 0,
        "slot": "47",
        "type": "t_mapping(t_address,t_uint256)"
      },
      {
        "astId": 12735,
        "contract": "contracts/core/Vault.sol:Vault",
        "label": "allowStaleEquityPrice",
        "offset": 0,
        "slot": "48",
        "type": "t_bool"
      },
      {
        "astId": 12737,
        "contract": "contracts/core/Vault.sol:Vault",
        "label": "zusd",
        "offset": 1,
        "slot": "48",
        "type": "t_address"
      },
      {
        "astId": 12741,
        "contract": "contracts/core/Vault.sol:Vault",
        "label": "tokenPnl",
        "offset": 0,
        "slot": "49",
        "type": "t_mapping(t_address,t_int256)"
      }
    ],
    "types": {
      "t_address": {
        "encoding": "inplace",
        "label": "address",
        "numberOfBytes": "20"
      },
      "t_array(t_address)dyn_storage": {
        "base": "t_address",
        "encoding": "dynamic_array",
        "label": "address[]",
        "numberOfBytes": "32"
      },
      "t_bool": {
        "encoding": "inplace",
        "label": "bool",
        "numberOfBytes": "1"
      },
      "t_bytes32": {
        "encoding": "inplace",
        "label": "bytes32",
        "numberOfBytes": "32"
      },
      "t_contract(IVaultUtils)7590": {
        "encoding": "inplace",
        "label": "contract IVaultUtils",
        "numberOfBytes": "20"
      },
      "t_int256": {
        "encoding": "inplace",
        "label": "int256",
        "numberOfBytes": "32"
      },
      "t_mapping(t_address,t_bool)": {
        "encoding": "mapping",
        "key": "t_address",
        "label": "mapping(address => bool)",
        "numberOfBytes": "32",
        "value": "t_bool"
      },
      "t_mapping(t_address,t_int256)": {
        "encoding": "mapping",
        "key": "t_address",
        "label": "mapping(address => int256)",
        "numberOfBytes": "32",
        "value": "t_int256"
      },
      "t_mapping(t_address,t_mapping(t_address,t_bool))": {
        "encoding": "mapping",
        "key": "t_address",
        "label": "mapping(address => mapping(address => bool))",
        "numberOfBytes": "32",
        "value": "t_mapping(t_address,t_bool)"
      },
      "t_mapping(t_address,t_uint256)": {
        "encoding": "mapping",
        "key": "t_address",
        "label": "mapping(address => uint256)",
        "numberOfBytes": "32",
        "value": "t_uint256"
      },
      "t_mapping(t_bytes32,t_struct(Position)13634_storage)": {
        "encoding": "mapping",
        "key": "t_bytes32",
        "label": "mapping(bytes32 => struct DataTypes.Position)",
        "numberOfBytes": "32",
        "value": "t_struct(Position)13634_storage"
      },
      "t_mapping(t_uint256,t_string_storage)": {
        "encoding": "mapping",
        "key": "t_uint256",
        "label": "mapping(uint256 => string)",
        "numberOfBytes": "32",
        "value": "t_string_storage"
      },
      "t_string_storage": {
        "encoding": "bytes",
        "label": "string",
        "numberOfBytes": "32"
      },
      "t_struct(Position)13634_storage": {
        "encoding": "inplace",
        "label": "struct DataTypes.Position",
        "members": [
          {
            "astId": 13621,
            "contract": "contracts/core/Vault.sol:Vault",
            "label": "size",
            "offset": 0,
            "slot": "0",
            "type": "t_uint256"
          },
          {
            "astId": 13623,
            "contract": "contracts/core/Vault.sol:Vault",
            "label": "collateral",
            "offset": 0,
            "slot": "1",
            "type": "t_uint256"
          },
          {
            "astId": 13625,
            "contract": "contracts/core/Vault.sol:Vault",
            "label": "averagePrice",
            "offset": 0,
            "slot": "2",
            "type": "t_uint256"
          },
          {
            "astId": 13627,
            "contract": "contracts/core/Vault.sol:Vault",
            "label": "entryFundingRate",
            "offset": 0,
            "slot": "3",
            "type": "t_uint256"
          },
          {
            "astId": 13629,
            "contract": "contracts/core/Vault.sol:Vault",
            "label": "reserveAmount",
            "offset": 0,
            "slot": "4",
            "type": "t_uint256"
          },
          {
            "astId": 13631,
            "contract": "contracts/core/Vault.sol:Vault",
            "label": "realisedPnl",
            "offset": 0,
            "slot": "5",
            "type": "t_int256"
          },
          {
            "astId": 13633,
            "contract": "contracts/core/Vault.sol:Vault",
            "label": "lastIncreasedTime",
            "offset": 0,
            "slot": "6",
            "type": "t_uint256"
          }
        ],
        "numberOfBytes": "224"
      },
      "t_uint256": {
        "encoding": "inplace",
        "label": "uint256",
        "numberOfBytes": "32"
      }
    }
  }
}