{
  "address": "0xD45D1B119C5481130da5E88b794a8b54C8eab3aE",
  "abi": [
    {
      "inputs": [
        {
          "internalType": "address",
          "name": "_zusd",
          "type": "address"
        }
      ],
      "stateMutability": "nonpayable",
      "type": "constructor"
    },
    {
      "anonymous": false,
      "inputs": [
        {
          "indexed": true,
          "internalType": "address",
          "name": "account",
          "type": "address"
        },
        {
          "indexed": true,
          "internalType": "address",
          "name": "_tokenIn",
          "type": "address"
        },
        {
          "indexed": false,
          "internalType": "uint256",
          "name": "_amountIn",
          "type": "uint256"
        },
        {
          "indexed": false,
          "internalType": "uint256",
          "name": "_usdAmount",
          "type": "uint256"
        }
      ],
      "name": "Exchange",
      "type": "event"
    },
    {
      "anonymous": false,
      "inputs": [
        {
          "indexed": true,
          "internalType": "address",
          "name": "previousOwner",
          "type": "address"
        },
        {
          "indexed": true,
          "internalType": "address",
          "name": "newOwner",
          "type": "address"
        }
      ],
      "name": "OwnershipTransferred",
      "type": "event"
    },
    {
      "anonymous": false,
      "inputs": [
        {
          "indexed": false,
          "internalType": "address",
          "name": "account",
          "type": "address"
        }
      ],
      "name": "Paused",
      "type": "event"
    },
    {
      "anonymous": false,
      "inputs": [
        {
          "indexed": true,
          "internalType": "address",
          "name": "account",
          "type": "address"
        },
        {
          "indexed": true,
          "internalType": "address",
          "name": "_tokenOut",
          "type": "address"
        },
        {
          "indexed": false,
          "internalType": "uint256",
          "name": "_amountOut",
          "type": "uint256"
        },
        {
          "indexed": false,
          "internalType": "uint256",
          "name": "_usdAmount",
          "type": "uint256"
        }
      ],
      "name": "Redeem",
      "type": "event"
    },
    {
      "anonymous": false,
      "inputs": [
        {
          "indexed": false,
          "internalType": "address",
          "name": "account",
          "type": "address"
        }
      ],
      "name": "Unpaused",
      "type": "event"
    },
    {
      "inputs": [],
      "name": "cap",
      "outputs": [
        {
          "internalType": "uint256",
          "name": "",
          "type": "uint256"
        }
      ],
      "stateMutability": "view",
      "type": "function"
    },
    {
      "inputs": [
        {
          "internalType": "address",
          "name": "_tokenIn",
          "type": "address"
        },
        {
          "internalType": "uint256",
          "name": "_amountIn",
          "type": "uint256"
        }
      ],
      "name": "exchange",
      "outputs": [],
      "stateMutability": "payable",
      "type": "function"
    },
    {
      "inputs": [],
      "name": "exchangeAmount",
      "outputs": [
        {
          "internalType": "uint256",
          "name": "",
          "type": "uint256"
        }
      ],
      "stateMutability": "view",
      "type": "function"
    },
    {
      "inputs": [],
      "name": "fee",
      "outputs": [
        {
          "internalType": "uint256",
          "name": "",
          "type": "uint256"
        }
      ],
      "stateMutability": "view",
      "type": "function"
    },
    {
      "inputs": [],
      "name": "owner",
      "outputs": [
        {
          "internalType": "address",
          "name": "",
          "type": "address"
        }
      ],
      "stateMutability": "view",
      "type": "function"
    },
    {
      "inputs": [],
      "name": "paused",
      "outputs": [
        {
          "internalType": "bool",
          "name": "",
          "type": "bool"
        }
      ],
      "stateMutability": "view",
      "type": "function"
    },
    {
      "inputs": [
        {
          "internalType": "address",
          "name": "_tokenOut",
          "type": "address"
        },
        {
          "internalType": "uint256",
          "name": "_amount",
          "type": "uint256"
        }
      ],
      "name": "redeem",
      "outputs": [],
      "stateMutability": "payable",
      "type": "function"
    },
    {
      "inputs": [],
      "name": "renounceOwnership",
      "outputs": [],
      "stateMutability": "nonpayable",
      "type": "function"
    },
    {
      "inputs": [
        {
          "internalType": "uint256",
          "name": "_cap",
          "type": "uint256"
        }
      ],
      "name": "setCap",
      "outputs": [],
      "stateMutability": "nonpayable",
      "type": "function"
    },
    {
      "inputs": [
        {
          "internalType": "uint256",
          "name": "_fee",
          "type": "uint256"
        }
      ],
      "name": "setFee",
      "outputs": [],
      "stateMutability": "nonpayable",
      "type": "function"
    },
    {
      "inputs": [
        {
          "internalType": "bool",
          "name": "_paused",
          "type": "bool"
        }
      ],
      "name": "setPaused",
      "outputs": [],
      "stateMutability": "nonpayable",
      "type": "function"
    },
    {
      "inputs": [
        {
          "internalType": "address",
          "name": "_token",
          "type": "address"
        },
        {
          "internalType": "bool",
          "name": "_enabled",
          "type": "bool"
        }
      ],
      "name": "setWhitelistToken",
      "outputs": [],
      "stateMutability": "nonpayable",
      "type": "function"
    },
    {
      "inputs": [
        {
          "internalType": "address",
          "name": "_token",
          "type": "address"
        },
        {
          "internalType": "address",
          "name": "_receiver",
          "type": "address"
        },
        {
          "internalType": "uint256",
          "name": "_amount",
          "type": "uint256"
        }
      ],
      "name": "transfer",
      "outputs": [],
      "stateMutability": "nonpayable",
      "type": "function"
    },
    {
      "inputs": [
        {
          "internalType": "address",
          "name": "newOwner",
          "type": "address"
        }
      ],
      "name": "transferOwnership",
      "outputs": [],
      "stateMutability": "nonpayable",
      "type": "function"
    },
    {
      "inputs": [
        {
          "internalType": "address",
          "name": "",
          "type": "address"
        }
      ],
      "name": "whitelistTokens",
      "outputs": [
        {
          "internalType": "bool",
          "name": "",
          "type": "bool"
        }
      ],
      "stateMutability": "view",
      "type": "function"
    },
    {
      "inputs": [],
      "name": "zusd",
      "outputs": [
        {
          "internalType": "contract IERC20Extended",
          "name": "",
          "type": "address"
        }
      ],
      "stateMutability": "view",
      "type": "function"
    }
  ],
  "transactionHash": "0x15d912c08041057c0169dec8960dedb71f6af0833662465b8a2594740e010192",
  "args": [
    "0x8782536f2720d1038668550dAA72185210c60C95"
  ],
  "numDeployments": 1,
  "solcInputHash": "8de33bd111a635093fa02f690881fbfd",
  "bytecode": "0x608060405234801561001057600080fd5b506040516112db3803806112db83398101604081905261002f916100c6565b60016000819055805460ff191690556100473361006c565b600280546001600160a01b0319166001600160a01b03929092169190911790556100f6565b600180546001600160a01b03838116610100818102610100600160a81b031985161790945560405193909204169182907f8be0079c531659141344cd1fd0a4f28419497f9722a3daafe3b4186f6b6457e090600090a35050565b6000602082840312156100d857600080fd5b81516001600160a01b03811681146100ef57600080fd5b9392505050565b6111d6806101056000396000f3fe6080604052600436106100d35760003560e01c806369fe0e2d1161007a57806369fe0e2d146101f5578063715018a6146102155780637c374f991461022a5780638da5cb5b1461024a578063beabacc81461025f578063ddca3f431461027f578063f247f02d14610295578063f2fde38b146102ab57600080fd5b8063045d0389146100d857806316c38b3c146100ed5780631e9a69501461010d57806332a010d814610120578063355274ea1461015d57806347786d37146101815780635c975abb146101a15780635fb2386e146101c5575b600080fd5b6100eb6100e6366004610e22565b6102cb565b005b3480156100f957600080fd5b506100eb610108366004610e5a565b610555565b6100eb61011b366004610e22565b610576565b34801561012c57600080fd5b50600254610140906001600160a01b031681565b6040516001600160a01b0390911681526020015b60405180910390f35b34801561016957600080fd5b5061017360055481565b604051908152602001610154565b34801561018d57600080fd5b506100eb61019c366004610e7e565b610697565b3480156101ad57600080fd5b5060015460ff165b6040519015158152602001610154565b3480156101d157600080fd5b506101b56101e0366004610e97565b60036020526000908152604090205460ff1681565b34801561020157600080fd5b506100eb610210366004610e7e565b6106a4565b34801561022157600080fd5b506100eb6106b1565b34801561023657600080fd5b506100eb610245366004610eb2565b6106c5565b34801561025657600080fd5b506101406106f8565b34801561026b57600080fd5b506100eb61027a366004610ee9565b61070c565b34801561028b57600080fd5b5061017360065481565b3480156102a157600080fd5b5061017360045481565b3480156102b757600080fd5b506100eb6102c6366004610e97565b61072d565b6102d36107a3565b6102db6107fc565b600081116103045760405162461bcd60e51b81526004016102fb90610f25565b60405180910390fd5b6001600160a01b03821660009081526003602052604090205460ff1661036c5760405162461bcd60e51b815260206004820181905260248201527f5a555344506f6f6c3a20746f6b656e206e6f7420696e2077686974656c69737460448201526064016102fb565b6103816001600160a01b038316333084610842565b600061038d83836108b3565b9050600554816004546103a09190610f85565b11156103e75760405162461bcd60e51b8152602060048201526016602482015275169554d1141bdbdb0e8818d85c08195e18d95959195960521b60448201526064016102fb565b80600460008282546103f99190610f85565b9091555050600654600090612710906104129082610f98565b61041c9084610fab565b6104269190610fc2565b6002546040516340c10f1960e01b81529192506001600160a01b0316906340c10f19906104599033908590600401610fe4565b600060405180830381600087803b15801561047357600080fd5b505af1158015610487573d6000803e3d6000fd5b50506002546001600160a01b031691506340c10f1990506104a66106f8565b6104b08486610f98565b6040518363ffffffff1660e01b81526004016104cd929190610fe4565b600060405180830381600087803b1580156104e757600080fd5b505af11580156104fb573d6000803e3d6000fd5b505060408051868152602081018690526001600160a01b03881693503392507f405426d39d8e779e767431271111e0c0410a44f0775f32656a11194427cfbeeb910160405180910390a350506105516001600055565b5050565b61055d610958565b801561056e5761056b6109b7565b50565b61056b610a0b565b61057e6107a3565b6000811161059e5760405162461bcd60e51b81526004016102fb90610f25565b600254604051632770a7eb60e21b81526001600160a01b0390911690639dc29fac906105d09033908590600401610fe4565b600060405180830381600087803b1580156105ea57600080fd5b505af11580156105fe573d6000803e3d6000fd5b50505050600061060e8383610a44565b905081600454101561062157600061062f565b8160045461062f9190610f98565b6004556106466001600160a01b0384163383610adf565b60408051828152602081018490526001600160a01b0385169133917f3f693fff038bb8a046aa76d9516190ac7444f7d69cf952c4cbdc086fdef2d6fc910160405180910390a3506105516001600055565b61069f610958565b600555565b6106ac610958565b600655565b6106b9610958565b6106c36000610afe565b565b6106cd610958565b6001600160a01b03919091166000908152600360205260409020805460ff1916911515919091179055565b60015461010090046001600160a01b031690565b610714610958565b6107286001600160a01b0384168383610adf565b505050565b610735610958565b6001600160a01b03811661079a5760405162461bcd60e51b815260206004820152602660248201527f4f776e61626c653a206e6577206f776e657220697320746865207a65726f206160448201526564647265737360d01b60648201526084016102fb565b61056b81610afe565b6002600054036107f55760405162461bcd60e51b815260206004820152601f60248201527f5265656e7472616e637947756172643a207265656e7472616e742063616c6c0060448201526064016102fb565b6002600055565b60015460ff16156106c35760405162461bcd60e51b815260206004820152601060248201526f14185d5cd8589b194e881c185d5cd95960821b60448201526064016102fb565b6040516001600160a01b03808516602483015283166044820152606481018290526108ad9085906323b872dd60e01b906084015b60408051601f198184030181529190526020810180516001600160e01b03166001600160e01b031990931692909217909152610b58565b50505050565b600080836001600160a01b031663313ce5676040518163ffffffff1660e01b8152600401602060405180830381865afa1580156108f4573d6000803e3d6000fd5b505050506040513d601f19601f820116820180604052508101906109189190610ffd565b60ff1690508060120361092e5782915050610952565b610939816012610f98565b61094490600a611104565b61094e9084610fab565b9150505b92915050565b336109616106f8565b6001600160a01b0316146106c35760405162461bcd60e51b815260206004820181905260248201527f4f776e61626c653a2063616c6c6572206973206e6f7420746865206f776e657260448201526064016102fb565b6109bf6107fc565b6001805460ff1916811790557f62e78cea01bee320cd4e420270b5ea74000d11b0c9f74754ebdbfc544b05a258335b6040516001600160a01b03909116815260200160405180910390a1565b610a13610c2d565b6001805460ff191690557f5db9ee0a495bf2e6ff9c91a7834c1ba4fdd244a5e8aa4e537bd38aeae4b073aa336109ee565b600080836001600160a01b031663313ce5676040518163ffffffff1660e01b8152600401602060405180830381865afa158015610a85573d6000803e3d6000fd5b505050506040513d601f19601f82011682018060405250810190610aa99190610ffd565b60ff16905080601203610abf5782915050610952565b610aca816012610f98565b610ad590600a611104565b61094e9084610fc2565b6107288363a9059cbb60e01b8484604051602401610876929190610fe4565b600180546001600160a01b03838116610100818102610100600160a81b031985161790945560405193909204169182907f8be0079c531659141344cd1fd0a4f28419497f9722a3daafe3b4186f6b6457e090600090a35050565b6000610bad826040518060400160405280602081526020017f5361666545524332303a206c6f772d6c6576656c2063616c6c206661696c6564815250856001600160a01b0316610c769092919063ffffffff16565b9050805160001480610bce575080806020019051810190610bce9190611110565b6107285760405162461bcd60e51b815260206004820152602a60248201527f5361666545524332303a204552433230206f7065726174696f6e20646964206e6044820152691bdd081cdd58d8d9595960b21b60648201526084016102fb565b60015460ff166106c35760405162461bcd60e51b815260206004820152601460248201527314185d5cd8589b194e881b9bdd081c185d5cd95960621b60448201526064016102fb565b6060610c858484600085610c8d565b949350505050565b606082471015610cee5760405162461bcd60e51b815260206004820152602660248201527f416464726573733a20696e73756666696369656e742062616c616e636520666f6044820152651c8818d85b1b60d21b60648201526084016102fb565b600080866001600160a01b03168587604051610d0a9190611151565b60006040518083038185875af1925050503d8060008114610d47576040519150601f19603f3d011682016040523d82523d6000602084013e610d4c565b606091505b5091509150610d5d87838387610d68565b979650505050505050565b60608315610dd7578251600003610dd0576001600160a01b0385163b610dd05760405162461bcd60e51b815260206004820152601d60248201527f416464726573733a2063616c6c20746f206e6f6e2d636f6e747261637400000060448201526064016102fb565b5081610c85565b610c858383815115610dec5781518083602001fd5b8060405162461bcd60e51b81526004016102fb919061116d565b80356001600160a01b0381168114610e1d57600080fd5b919050565b60008060408385031215610e3557600080fd5b610e3e83610e06565b946020939093013593505050565b801515811461056b57600080fd5b600060208284031215610e6c57600080fd5b8135610e7781610e4c565b9392505050565b600060208284031215610e9057600080fd5b5035919050565b600060208284031215610ea957600080fd5b610e7782610e06565b60008060408385031215610ec557600080fd5b610ece83610e06565b91506020830135610ede81610e4c565b809150509250929050565b600080600060608486031215610efe57600080fd5b610f0784610e06565b9250610f1560208501610e06565b9150604084013590509250925092565b6020808252602a908201527f5a555344506f6f6c3a20616d6f756e74206d7573742062652067726561746572604082015269207468616e207a65726f60b01b606082015260800190565b634e487b7160e01b600052601160045260246000fd5b8082018082111561095257610952610f6f565b8181038181111561095257610952610f6f565b808202811582820484141761095257610952610f6f565b600082610fdf57634e487b7160e01b600052601260045260246000fd5b500490565b6001600160a01b03929092168252602082015260400190565b60006020828403121561100f57600080fd5b815160ff81168114610e7757600080fd5b600181815b8085111561105b57816000190482111561104157611041610f6f565b8085161561104e57918102915b93841c9390800290611025565b509250929050565b60008261107257506001610952565b8161107f57506000610952565b8160018114611095576002811461109f576110bb565b6001915050610952565b60ff8411156110b0576110b0610f6f565b50506001821b610952565b5060208310610133831016604e8410600b84101617156110de575081810a610952565b6110e88383611020565b80600019048211156110fc576110fc610f6f565b029392505050565b6000610e778383611063565b60006020828403121561112257600080fd5b8151610e7781610e4c565b60005b83811015611148578181015183820152602001611130565b50506000910152565b6000825161116381846020870161112d565b9190910192915050565b602081526000825180602084015261118c81604085016020870161112d565b601f01601f1916919091016040019291505056fea264697066735822122085783a797011506aa33cfa9cf3ac2d4f23bd4b0baf10521d8e88ea9cfae3578164736f6c63430008110033",
  "devdoc": {
    "kind": "dev",
    "methods": {
      "owner()": {
        "details": "Returns the address of the current owner."
      },
      "paused()": {
        "details": "Returns true if the contract is paused, and false otherwise."
      },
      "renounceOwnership()": {
        "details": "Leaves the contract without owner. It will not be possible to call `onlyOwner` functions. Can only be called by the current owner. NOTE: Renouncing ownership will leave the contract without an owner, thereby disabling any functionality that is only available to the owner."
      },
      "transferOwnership(address)": {
        "details": "Transfers ownership of the contract to a new account (`newOwner`). Can only be called by the current owner."
      }
    },
    "version": 1
  },
  "userdoc": {
    "kind": "user",
    "methods": {},
    "version": 1
  },
  "storageLayout": {
    "storage": [
      {
        "astId": 4820,
        "contract": "contracts/pool/ZUSDPool.sol:ZUSDPool",
        "label": "_status",
        "offset": 0,
        "slot": "0",
        "type": "t_uint256"
      },
      {
        "astId": 4719,
        "contract": "contracts/pool/ZUSDPool.sol:ZUSDPool",
        "label": "_paused",
        "offset": 0,
        "slot": "1",
        "type": "t_bool"
      },
      {
        "astId": 4596,
        "contract": "contracts/pool/ZUSDPool.sol:ZUSDPool",
        "label": "_owner",
        "offset": 1,
        "slot": "1",
        "type": "t_address"
      },
      {
        "astId": 14465,
        "contract": "contracts/pool/ZUSDPool.sol:ZUSDPool",
        "label": "zusd",
        "offset": 0,
        "slot": "2",
        "type": "t_contract(IERC20Extended)14831"
      },
      {
        "astId": 14469,
        "contract": "contracts/pool/ZUSDPool.sol:ZUSDPool",
        "label": "whitelistTokens",
        "offset": 0,
        "slot": "3",
        "type": "t_mapping(t_address,t_bool)"
      },
      {
        "astId": 14471,
        "contract": "contracts/pool/ZUSDPool.sol:ZUSDPool",
        "label": "exchangeAmount",
        "offset": 0,
        "slot": "4",
        "type": "t_uint256"
      },
      {
        "astId": 14473,
        "contract": "contracts/pool/ZUSDPool.sol:ZUSDPool",
        "label": "cap",
        "offset": 0,
        "slot": "5",
        "type": "t_uint256"
      },
      {
        "astId": 14475,
        "contract": "contracts/pool/ZUSDPool.sol:ZUSDPool",
        "label": "fee",
        "offset": 0,
        "slot": "6",
        "type": "t_uint256"
      }
    ],
    "types": {
      "t_address": {
        "encoding": "inplace",
        "label": "address",
        "numberOfBytes": "20"
      },
      "t_bool": {
        "encoding": "inplace",
        "label": "bool",
        "numberOfBytes": "1"
      },
      "t_contract(IERC20Extended)14831": {
        "encoding": "inplace",
        "label": "contract IERC20Extended",
        "numberOfBytes": "20"
      },
      "t_mapping(t_address,t_bool)": {
        "encoding": "mapping",
        "key": "t_address",
        "label": "mapping(address => bool)",
        "numberOfBytes": "32",
        "value": "t_bool"
      },
      "t_uint256": {
        "encoding": "inplace",
        "label": "uint256",
        "numberOfBytes": "32"
      }
    }
  }
}