{
  "address": "0x123fAD5e00f9E85621Be9324b54c156938dB4165",
  "abi": [
    {
      "inputs": [
        {
          "internalType": "address",
          "name": "_router",
          "type": "address"
        },
        {
          "internalType": "address",
          "name": "_vault",
          "type": "address"
        },
        {
          "internalType": "address",
          "name": "_weth",
          "type": "address"
        },
        {
          "internalType": "address",
          "name": "_zkusd",
          "type": "address"
        },
        {
          "internalType": "uint256",
          "name": "_minExecutionFee",
          "type": "uint256"
        }
      ],
      "stateMutability": "nonpayable",
      "type": "constructor"
    },
    {
      "inputs": [
        {
          "internalType": "uint256",
          "name": "_orderIndex",
          "type": "uint256"
        }
      ],
      "name": "cancelDecreaseOrder",
      "outputs": [],
      "stateMutability": "nonpayable",
      "type": "function"
    },
    {
      "inputs": [
        {
          "internalType": "uint256",
          "name": "_orderIndex",
          "type": "uint256"
        }
      ],
      "name": "cancelIncreaseOrder",
      "outputs": [],
      "stateMutability": "nonpayable",
      "type": "function"
    },
    {
      "inputs": [
        {
          "internalType": "uint256[]",
          "name": "_increaseOrderIndexes",
          "type": "uint256[]"
        },
        {
          "internalType": "uint256[]",
          "name": "_decreaseOrderIndexes",
          "type": "uint256[]"
        }
      ],
      "name": "cancelMultiple",
      "outputs": [],
      "stateMutability": "nonpayable",
      "type": "function"
    },
    {
      "inputs": [
        {
          "internalType": "address",
          "name": "",
          "type": "address"
        },
        {
          "internalType": "uint256",
          "name": "",
          "type": "uint256"
        }
      ],
      "name": "decreaseOrders",
      "outputs": [
        {
          "internalType": "address",
          "name": "account",
          "type": "address"
        },
        {
          "internalType": "address",
          "name": "collateralToken",
          "type": "address"
        },
        {
          "internalType": "uint256",
          "name": "collateralDelta",
          "type": "uint256"
        },
        {
          "internalType": "address",
          "name": "indexToken",
          "type": "address"
        },
        {
          "internalType": "uint256",
          "name": "sizeDelta",
          "type": "uint256"
        },
        {
          "internalType": "bool",
          "name": "isLong",
          "type": "bool"
        },
        {
          "internalType": "uint256",
          "name": "triggerPrice",
          "type": "uint256"
        },
        {
          "internalType": "bool",
          "name": "triggerAboveThreshold",
          "type": "bool"
        },
        {
          "internalType": "uint256",
          "name": "executionFee",
          "type": "uint256"
        }
      ],
      "stateMutability": "view",
      "type": "function"
    },
    {
      "inputs": [
        {
          "internalType": "address",
          "name": "",
          "type": "address"
        }
      ],
      "name": "decreaseOrdersIndex",
      "outputs": [
        {
          "internalType": "uint256",
          "name": "",
          "type": "uint256"
        }
      ],
      "stateMutability": "view",
      "type": "function"
    },
    {
      "inputs": [
        {
          "internalType": "address",
          "name": "_address",
          "type": "address"
        },
        {
          "internalType": "uint256",
          "name": "_orderIndex",
          "type": "uint256"
        },
        {
          "internalType": "address payable",
          "name": "_feeReceiver",
          "type": "address"
        }
      ],
      "name": "executeDecreaseOrder",
      "outputs": [],
      "stateMutability": "nonpayable",
      "type": "function"
    },
    {
      "inputs": [
        {
          "internalType": "address",
          "name": "_address",
          "type": "address"
        },
        {
          "internalType": "uint256",
          "name": "_orderIndex",
          "type": "uint256"
        },
        {
          "internalType": "address payable",
          "name": "_feeReceiver",
          "type": "address"
        }
      ],
      "name": "executeIncreaseOrder",
      "outputs": [],
      "stateMutability": "nonpayable",
      "type": "function"
    },
    {
      "inputs": [
        {
          "internalType": "address",
          "name": "_account",
          "type": "address"
        },
        {
          "internalType": "uint256",
          "name": "_orderIndex",
          "type": "uint256"
        }
      ],
      "name": "getDecreaseOrder",
      "outputs": [
        {
          "internalType": "address",
          "name": "collateralToken",
          "type": "address"
        },
        {
          "internalType": "uint256",
          "name": "collateralDelta",
          "type": "uint256"
        },
        {
          "internalType": "address",
          "name": "indexToken",
          "type": "address"
        },
        {
          "internalType": "uint256",
          "name": "sizeDelta",
          "type": "uint256"
        },
        {
          "internalType": "bool",
          "name": "isLong",
          "type": "bool"
        },
        {
          "internalType": "uint256",
          "name": "triggerPrice",
          "type": "uint256"
        },
        {
          "internalType": "bool",
          "name": "triggerAboveThreshold",
          "type": "bool"
        },
        {
          "internalType": "uint256",
          "name": "executionFee",
          "type": "uint256"
        }
      ],
      "stateMutability": "view",
      "type": "function"
    },
    {
      "inputs": [
        {
          "internalType": "address",
          "name": "_account",
          "type": "address"
        },
        {
          "internalType": "uint256",
          "name": "_orderIndex",
          "type": "uint256"
        }
      ],
      "name": "getIncreaseOrder",
      "outputs": [
        {
          "internalType": "address",
          "name": "purchaseToken",
          "type": "address"
        },
        {
          "internalType": "uint256",
          "name": "purchaseTokenAmount",
          "type": "uint256"
        },
        {
          "internalType": "address",
          "name": "collateralToken",
          "type": "address"
        },
        {
          "internalType": "address",
          "name": "indexToken",
          "type": "address"
        },
        {
          "internalType": "uint256",
          "name": "sizeDelta",
          "type": "uint256"
        },
        {
          "internalType": "bool",
          "name": "isLong",
          "type": "bool"
        },
        {
          "internalType": "uint256",
          "name": "triggerPrice",
          "type": "uint256"
        },
        {
          "internalType": "bool",
          "name": "triggerAboveThreshold",
          "type": "bool"
        },
        {
          "internalType": "uint256",
          "name": "executionFee",
          "type": "uint256"
        }
      ],
      "stateMutability": "view",
      "type": "function"
    },
    {
      "inputs": [],
      "name": "gov",
      "outputs": [
        {
          "internalType": "address",
          "name": "",
          "type": "address"
        }
      ],
      "stateMutability": "view",
      "type": "function"
    },
    {
      "inputs": [
        {
          "internalType": "address",
          "name": "",
          "type": "address"
        },
        {
          "internalType": "uint256",
          "name": "",
          "type": "uint256"
        }
      ],
      "name": "increaseOrders",
      "outputs": [
        {
          "internalType": "address",
          "name": "account",
          "type": "address"
        },
        {
          "internalType": "address",
          "name": "purchaseToken",
          "type": "address"
        },
        {
          "internalType": "uint256",
          "name": "purchaseTokenAmount",
          "type": "uint256"
        },
        {
          "internalType": "address",
          "name": "collateralToken",
          "type": "address"
        },
        {
          "internalType": "address",
          "name": "indexToken",
          "type": "address"
        },
        {
          "internalType": "uint256",
          "name": "sizeDelta",
          "type": "uint256"
        },
        {
          "internalType": "bool",
          "name": "isLong",
          "type": "bool"
        },
        {
          "internalType": "uint256",
          "name": "triggerPrice",
          "type": "uint256"
        },
        {
          "internalType": "bool",
          "name": "triggerAboveThreshold",
          "type": "bool"
        },
        {
          "internalType": "uint256",
          "name": "executionFee",
          "type": "uint256"
        }
      ],
      "stateMutability": "view",
      "type": "function"
    },
    {
      "inputs": [
        {
          "internalType": "address",
          "name": "",
          "type": "address"
        }
      ],
      "name": "increaseOrdersIndex",
      "outputs": [
        {
          "internalType": "uint256",
          "name": "",
          "type": "uint256"
        }
      ],
      "stateMutability": "view",
      "type": "function"
    },
    {
      "inputs": [],
      "name": "minExecutionFee",
      "outputs": [
        {
          "internalType": "uint256",
          "name": "",
          "type": "uint256"
        }
      ],
      "stateMutability": "view",
      "type": "function"
    },
    {
      "inputs": [],
      "name": "router",
      "outputs": [
        {
          "internalType": "address",
          "name": "",
          "type": "address"
        }
      ],
      "stateMutability": "view",
      "type": "function"
    },
    {
      "inputs": [
        {
          "internalType": "address",
          "name": "_gov",
          "type": "address"
        }
      ],
      "name": "setGov",
      "outputs": [],
      "stateMutability": "nonpayable",
      "type": "function"
    },
    {
      "inputs": [
        {
          "internalType": "uint256",
          "name": "_minExecutionFee",
          "type": "uint256"
        }
      ],
      "name": "setMinExecutionFee",
      "outputs": [],
      "stateMutability": "nonpayable",
      "type": "function"
    },
    {
      "inputs": [
        {
          "internalType": "uint256",
          "name": "_orderIndex",
          "type": "uint256"
        },
        {
          "internalType": "uint256",
          "name": "_collateralDelta",
          "type": "uint256"
        },
        {
          "internalType": "uint256",
          "name": "_sizeDelta",
          "type": "uint256"
        },
        {
          "internalType": "uint256",
          "name": "_triggerPrice",
          "type": "uint256"
        },
        {
          "internalType": "bool",
          "name": "_triggerAboveThreshold",
          "type": "bool"
        }
      ],
      "name": "updateDecreaseOrder",
      "outputs": [],
      "stateMutability": "nonpayable",
      "type": "function"
    },
    {
      "inputs": [
        {
          "internalType": "uint256",
          "name": "_orderIndex",
          "type": "uint256"
        },
        {
          "internalType": "uint256",
          "name": "_sizeDelta",
          "type": "uint256"
        },
        {
          "internalType": "uint256",
          "name": "_triggerPrice",
          "type": "uint256"
        },
        {
          "internalType": "bool",
          "name": "_triggerAboveThreshold",
          "type": "bool"
        }
      ],
      "name": "updateIncreaseOrder",
      "outputs": [],
      "stateMutability": "nonpayable",
      "type": "function"
    },
    {
      "inputs": [
        {
          "internalType": "bool",
          "name": "_triggerAboveThreshold",
          "type": "bool"
        },
        {
          "internalType": "uint256",
          "name": "_triggerPrice",
          "type": "uint256"
        },
        {
          "internalType": "address",
          "name": "_indexToken",
          "type": "address"
        },
        {
          "internalType": "bool",
          "name": "_maximizePrice",
          "type": "bool"
        },
        {
          "internalType": "bool",
          "name": "_raise",
          "type": "bool"
        }
      ],
      "name": "validatePositionOrderPrice",
      "outputs": [
        {
          "internalType": "uint256",
          "name": "",
          "type": "uint256"
        },
        {
          "internalType": "bool",
          "name": "",
          "type": "bool"
        }
      ],
      "stateMutability": "view",
      "type": "function"
    },
    {
      "inputs": [],
      "name": "vault",
      "outputs": [
        {
          "internalType": "address",
          "name": "",
          "type": "address"
        }
      ],
      "stateMutability": "view",
      "type": "function"
    },
    {
      "inputs": [],
      "name": "weth",
      "outputs": [
        {
          "internalType": "address",
          "name": "",
          "type": "address"
        }
      ],
      "stateMutability": "view",
      "type": "function"
    },
    {
      "inputs": [],
      "name": "zkusd",
      "outputs": [
        {
          "internalType": "address",
          "name": "",
          "type": "address"
        }
      ],
      "stateMutability": "view",
      "type": "function"
    },
    {
      "stateMutability": "payable",
      "type": "receive"
    }
  ],
  "transactionHash": "0x29904ccf00931fcc4e79a12c8db8356b751c1e41f5d925a6ae2a5ea3dced2245",
  "args": [
    "0xD8d89814739C3BD7274FD3d40495f51b02a7bBc1",
    "0x5A7538066424fAe75D977Bb89020aD19412E935e",
    "0x1ec29637871F6926Fb46986038cC23e7E4AFB93C",
    "0x5C909B45CB6A2Aa6B085f09943256e0A94722F07",
    "500000000000000"
  ],
  "numDeployments": 1,
  "solcInputHash": "1827954c4021d85529344d91254f3495",
  "bytecode": "0x60806040523480156200001157600080fd5b50604051620028ad380380620028ad83398101604081905262000034916200009f565b6001600081905580546001600160a01b03199081166001600160a01b039788161790915560028054821695871695909517909455600380548516938616939093179092556004805484169190941617909255600591909155600680543392169190911790556200012b565b600080600080600060a08688031215620000b7578081fd5b8551620000c48162000112565b6020870151909550620000d78162000112565b6040870151909450620000ea8162000112565b6060870151909350620000fd8162000112565b80925050608086015190509295509295909350565b6001600160a01b03811681146200012857600080fd5b50565b612772806200013b6000396000f3fe6080604052600436106101395760003560e01c8063a397ea54116100ab578063d566d0ca1161006f578063d566d0ca146103f1578063f2d2e01b14610411578063f887ea4014610446578063fbfa77cf1461045b578063fc2cee6214610470578063ff637e8114610490576101a6565b8063a397ea541461033c578063aec224551461035c578063cfad57a21461037c578063d38ab5191461039c578063d3bab1d1146103bc576101a6565b806347e0bbd0116100fd57806347e0bbd0146102775780634c54f0b01461029757806363ae2103146102c55780639983ee1b146102e75780639bc90a0f146103075780639e71b0f01461031c576101a6565b8063026032ee146101ab57806311d9444a146101e857806312d43a511461020a5780632b7d62901461022c5780633fc8cef314610262576101a6565b366101a65760035460408051808201909152601981527827b93232b92137b7b59d1034b73b30b634b21039b2b73232b960391b6020820152906001600160a01b031633146101a35760405162461bcd60e51b815260040161019a919061228c565b60405180910390fd5b50005b600080fd5b3480156101b757600080fd5b506101cb6101c6366004611e43565b6104b0565b6040516101df989796959493929190612243565b60405180910390f35b3480156101f457600080fd5b50610208610203366004611e6e565b610585565b005b34801561021657600080fd5b5061021f610863565b6040516101df9190612060565b34801561023857600080fd5b5061024c610247366004611e43565b610872565b6040516101df9a99989796959493929190612124565b34801561026e57600080fd5b5061021f6108e4565b34801561028357600080fd5b50610208610292366004611f93565b6108f3565b3480156102a357600080fd5b506102b76102b2366004611f2c565b610b64565b6040516101df9291906126d6565b3480156102d157600080fd5b506102da610cbb565b6040516101df91906124e9565b3480156102f357600080fd5b50610208610302366004611fc3565b610cc1565b34801561031357600080fd5b5061021f610db8565b34801561032857600080fd5b50610208610337366004611f93565b610dc7565b34801561034857600080fd5b50610208610357366004612003565b610f9a565b34801561036857600080fd5b506102da610377366004611e27565b611084565b34801561038857600080fd5b50610208610397366004611e27565b611096565b3480156103a857600080fd5b506102086103b7366004611e6e565b611144565b3480156103c857600080fd5b506103dc6103d7366004611e43565b6114e1565b6040516101df999897969594939291906121ee565b3480156103fd57600080fd5b506102da61040c366004611e27565b6115c7565b34801561041d57600080fd5b5061043161042c366004611e43565b6115d9565b6040516101df99989796959493929190612180565b34801561045257600080fd5b5061021f611643565b34801561046757600080fd5b5061021f611652565b34801561047c57600080fd5b5061020861048b366004611f93565b611661565b34801561049c57600080fd5b506102086104ab366004611eaf565b6116ee565b6000806000806000806000806104c4611cf4565b505050506001600160a01b0396871660009081526009602090815260408083209883529781529087902087516101208101895281548a16815260018201548a169281018390526002820154988101899052600382015490991660608a01819052600482015460808b01819052600583015460ff908116151560a08d01819052600685015460c08e018190526007860154909216151560e08e01819052600890950154610100909d018d9052949c9a9b929a9199509397509295509093509150565b600260005414156105a85760405162461bcd60e51b815260040161019a906124b2565b60026000556105b5611cf4565b506001600160a01b0380841660009081526009602090815260408083208684528252918290208251610120810184528154851680825260018301548616938201939093526002820154938101939093526003810154909316606083015260048301546080830152600583015460ff908116151560a0840152600684015460c0840152600784015416151560e08301526008909201546101008201529061066d5760405162461bcd60e51b815260040161019a90612431565b600061068e8260e001518360c0015184606001518560a00151156001610b64565b506001600160a01b038087166000908152600960209081526040808320898452825280832080546001600160a01b03199081168255600180830180548316905560028301869055600383018054909216909155600480830186905560058301805460ff1990811690915560068401879055600784018054909116905560089092018590555488519389015160608a01518a85015160808c015160a08d01519651632662166b60e01b81529a9b5097999390981697632662166b9761075f9796939592949193909290913091016120e5565b602060405180830381600087803b15801561077957600080fd5b505af115801561078d573d6000803e3d6000fd5b505050506040513d601f19601f820116820180604052508101906107b19190611fab565b835160208501519192506107cf916001600160a01b03169083611754565b6107de836101000151856117aa565b82600001516001600160a01b03167f9a382661d6573da86db000471303be6f0b2b1bb66089b08e3c16a85d7b6e94f88685602001518660400151876060015188608001518960a001518a60c001518b60e001518c61010001518c60405161084e9a99989796959493929190612680565b60405180910390a25050600160005550505050565b6006546001600160a01b031681565b6007602081815260009384526040808520909152918352912080546001820154600283015460038401546004850154600586015460068701549787015460088801546009909801546001600160a01b0397881699968816989597948516969490931694919360ff90811693919216908a565b6003546001600160a01b031681565b600260005414156109165760405162461bcd60e51b815260040161019a906124b2565b6002600055610923611d40565b5033600090815260076020818152604080842085855282529283902083516101408101855281546001600160a01b03908116808352600184015482169483019490945260028301549582019590955260038201548516606082015260048201549094166080850152600581015460a0850152600681015460ff908116151560c08601529281015460e0850152600881015490921615156101008401526009909101546101208301526109e75760405162461bcd60e51b815260040161019a90612431565b3360009081526007602081815260408084208685528252832080546001600160a01b03199081168255600182018054821690556002820185905560038083018054831690556004830180549092169091556005820185905560068201805460ff199081169091559382018590556008820180549094169093556009019290925554908201516001600160a01b0390811691161415610aa957610aa4610a9e826040015183610120015161188890919063ffffffff16565b336117aa565b610ade565b610acf33826040015183602001516001600160a01b03166117549092919063ffffffff16565b610ade816101200151336117aa565b80600001516001600160a01b03167fd500f34e0ec655b7614ae42e1d9c666d5e4dde909a1297829f8c5ecf00805d328383602001518460400151856060015186608001518760a001518860c001518960e001518a61010001518b6101200151604051610b539a99989796959493929190612530565b60405180910390a250506001600055565b600080600084610bf3576002546040516340d3096b60e11b81526001600160a01b03909116906381a612d690610b9e908990600401612060565b60206040518083038186803b158015610bb657600080fd5b505afa158015610bca573d6000803e3d6000fd5b505050506040513d601f19601f82011682018060405250810190610bee9190611fab565b610c73565b600254604051637092736960e11b81526001600160a01b039091169063e124e6d290610c23908990600401612060565b60206040518083038186803b158015610c3b57600080fd5b505afa158015610c4f573d6000803e3d6000fd5b505050506040513d601f19601f82011682018060405250810190610c739190611fab565b9050600088610c8457878210610c88565b8782115b90508415610cad5780610cad5760405162461bcd60e51b815260040161019a906123eb565b909890975095505050505050565b60055481565b60026000541415610ce45760405162461bcd60e51b815260040161019a906124b2565b60026000908155338152600760209081526040808320878452909152902080546001600160a01b0316610d295760405162461bcd60e51b815260040161019a90612431565b6007810183905560088101805460ff19168315151790556005810184905560038101546004820154600683015460405133937f0a0360dd5c354235bbf8d386ba3b24ef8134088e0785677de1504df219d9149a93610da4938b936001600160a01b03938416939092169160ff909116908b908b908b906124f2565b60405180910390a250506001600055505050565b6004546001600160a01b031681565b60026000541415610dea5760405162461bcd60e51b815260040161019a906124b2565b6002600055610df7611cf4565b5033600090815260096020908152604080832084845282529182902082516101208101845281546001600160a01b0390811680835260018401548216948301949094526002830154948201949094526003820154909316606084015260048101546080840152600581015460ff908116151560a0850152600682015460c0850152600782015416151560e084015260080154610100830152610eab5760405162461bcd60e51b815260040161019a90612431565b336000818152600960209081526040808320868452909152812080546001600160a01b03199081168255600182018054821690556002820183905560038201805490911690556004810182905560058101805460ff1990811690915560068201839055600782018054909116905560080155610100820151610f2c916117aa565b80600001516001600160a01b03167f1154174c82984656b028c8021671988f60a346497e56fe02554761184f82a0758383602001518460400151856060015186608001518760a001518860c001518960e001518a6101000151604051610b5399989796959493929190612630565b60026000541415610fbd5760405162461bcd60e51b815260040161019a906124b2565b60026000908155338152600960209081526040808320888452909152902080546001600160a01b03166110025760405162461bcd60e51b815260040161019a90612431565b6006810183905560078101805460ff1916831515179055600481018490556002810185905560018101546003820154600583015460405133937f75781255bc71c83f89f29e5a2599f2c174a562d2cd8f2e818a47f132e72804989361084e938c936001600160a01b03938416938d9316918c9160ff909116908c908c906125e9565b60086020526000908152604090205481565b60065460408051808201909152601481527327b93232b92137b7b59d103337b93134b23232b760611b6020820152906001600160a01b031633146110ed5760405162461bcd60e51b815260040161019a919061228c565b50600680546001600160a01b0319166001600160a01b0383161790556040517fe24c39186e9137521953beaa8446e71f55b8f12296984f9d4273ceb1af728d9090611139908390612060565b60405180910390a150565b600260005414156111675760405162461bcd60e51b815260040161019a906124b2565b6002600055611174611d40565b506001600160a01b03808416600090815260076020818152604080842087855282529283902083516101408101855281548616808252600183015487169382019390935260028201549481019490945260038101548516606085015260048101549094166080840152600584015460a0840152600684015460ff908116151560c08501529184015460e0840152600884015490911615156101008301526009909201546101208201529061123a5760405162461bcd60e51b815260040161019a90612431565b600061125b8261010001518360e0015184608001518560c001516001610b64565b506001600160a01b0380871660009081526007602081815260408084208a8552825280842080546001600160a01b03199081168255600182018054821690556002808301879055600383018054831690556004830180549092169091556005820186905560068201805460ff199081169091559482018690556008820180549095169094556009019390935590549186015190860151939450611305938316929190911690611754565b81606001516001600160a01b031682602001516001600160a01b0316146113dd57604080516002808252606080830184529260208301908036833701905050905082602001518160008151811061135857fe5b60200260200101906001600160a01b031690816001600160a01b03168152505082606001518160018151811061138a57fe5b60200260200101906001600160a01b031690816001600160a01b03168152505060006113b8826000306118b4565b60025460608601519192506113da916001600160a01b03908116911683611754565b50505b60015482516060840151608085015160a086015160c0870151604051630f8ee8bb60e11b81526001600160a01b0390961695631f1dd176956114299590949093909290916004016120b1565b600060405180830381600087803b15801561144357600080fd5b505af1158015611457573d6000803e3d6000fd5b5050505061146a826101200151846117aa565b81600001516001600160a01b03167f7fb1c74d1ea6aa1c9c585e17ce8274c8ff98745e85e7459b73f87d784494f58e8584602001518560400151866060015187608001518860a001518960c001518a60e001518b61010001518c61012001518c604051610da49b9a99989796959493929190612587565b60008060008060008060008060006114f7611d40565b505050506001600160a01b0397881660009081526007602081815260408084209a845299815291899020895161014081018b5281548c16815260018201548c1693810184905260028201549a81018b905260038201548c16606082018190526004830154909c1660808201819052600583015460a08301819052600684015460ff908116151560c085018190529585015460e08501819052600886015490911615156101008501819052600990950154610120909401849052959e9c9d9c919b5099509297509295509350909150565b600a6020526000908152604090205481565b60096020908152600092835260408084209091529082529020805460018201546002830154600384015460048501546005860154600687015460078801546008909801546001600160a01b03978816989688169795969490951694929360ff928316939192169089565b6001546001600160a01b031681565b6002546001600160a01b031681565b60065460408051808201909152601481527327b93232b92137b7b59d103337b93134b23232b760611b6020820152906001600160a01b031633146116b85760405162461bcd60e51b815260040161019a919061228c565b5060058190556040517fbde5eafdc37b81830d70124cddccaaa6d034e71dda3c8fc18a959ca76a7cbcfc906111399083906124e9565b60005b825181101561171e5761171683828151811061170957fe5b60200260200101516108f3565b6001016116f1565b5060005b815181101561174f5761174782828151811061173a57fe5b6020026020010151610dc7565b600101611722565b505050565b61174f8363a9059cbb60e01b84846040516024016117739291906121d5565b60408051601f198184030181529190526020810180516001600160e01b03166001600160e01b0319909316929092179091526119d9565b600354604051632e1a7d4d60e01b81526001600160a01b0390911690632e1a7d4d906117da9085906004016124e9565b600060405180830381600087803b1580156117f457600080fd5b505af1158015611808573d6000803e3d6000fd5b505050506000816001600160a01b0316836040516118259061205d565b60006040518083038185875af1925050503d8060008114611862576040519150601f19603f3d011682016040523d82523d6000602084013e611867565b606091505b505090508061174f5760405162461bcd60e51b815260040161019a906122f6565b6000828201838110156118ad5760405162461bcd60e51b815260040161019a906122bf565b9392505050565b60008351600214156118fb576118f4846000815181106118d057fe5b6020026020010151856001815181106118e557fe5b60200260200101518585611a68565b90506118ad565b8351600314156119c157600061193c8560008151811061191757fe5b60200260200101518660018151811061192c57fe5b6020026020010151600030611a68565b9050611985600260009054906101000a90046001600160a01b0316828760018151811061196557fe5b60200260200101516001600160a01b03166117549092919063ffffffff16565b6119b98560018151811061199557fe5b6020026020010151866002815181106119aa57fe5b60200260200101518686611a68565b9150506118ad565b60405162461bcd60e51b815260040161019a906123b4565b6060611a2e826040518060400160405280602081526020017f5361666545524332303a206c6f772d6c6576656c2063616c6c206661696c6564815250856001600160a01b0316611c089092919063ffffffff16565b80519091501561174f5780806020019051810190611a4c9190611f10565b61174f5760405162461bcd60e51b815260040161019a90612468565b60045460009081906001600160a01b0386811691161415611b0e576002546040516354d33cf960e01b81526001600160a01b03909116906354d33cf990611ab59089908790600401612074565b602060405180830381600087803b158015611acf57600080fd5b505af1158015611ae3573d6000803e3d6000fd5b505050506040513d601f19601f82011682018060405250810190611b079190611fab565b9050611bdf565b6004546001600160a01b0387811691161415611b56576002546040516302718b5760e21b81526001600160a01b03909116906309c62d5c90611ab59088908790600401612074565b600254604051634998b10960e11b81526001600160a01b0390911690639331621290611b8a9089908990889060040161208e565b602060405180830381600087803b158015611ba457600080fd5b505af1158015611bb8573d6000803e3d6000fd5b505050506040513d601f19601f82011682018060405250810190611bdc9190611fab565b90505b83811015611bff5760405162461bcd60e51b815260040161019a90612373565b95945050505050565b6060611c178484600085611c1f565b949350505050565b606082471015611c415760405162461bcd60e51b815260040161019a9061232d565b60006060866001600160a01b03168587604051611c5e9190612041565b60006040518083038185875af1925050503d8060008114611c9b576040519150601f19603f3d011682016040523d82523d6000602084013e611ca0565b606091505b5091509150611cb0828286611cbb565b979650505050505050565b60608315611cca5750816118ad565b825115611cda5782518084602001fd5b8160405162461bcd60e51b815260040161019a919061228c565b6040805161012081018252600080825260208201819052918101829052606081018290526080810182905260a0810182905260c0810182905260e0810182905261010081019190915290565b6040805161014081018252600080825260208201819052918101829052606081018290526080810182905260a0810182905260c0810182905260e08101829052610100810182905261012081019190915290565b600082601f830112611da4578081fd5b813567ffffffffffffffff80821115611dbb578283fd5b602080830260405182828201018181108582111715611dd8578687fd5b604052848152945081850192508582018187018301881015611df957600080fd5b600091505b84821015611e1c578035845292820192600191909101908201611dfe565b505050505092915050565b600060208284031215611e38578081fd5b81356118ad81612716565b60008060408385031215611e55578081fd5b8235611e6081612716565b946020939093013593505050565b600080600060608486031215611e82578081fd5b8335611e8d81612716565b9250602084013591506040840135611ea481612716565b809150509250925092565b60008060408385031215611ec1578182fd5b823567ffffffffffffffff80821115611ed8578384fd5b611ee486838701611d94565b93506020850135915080821115611ef9578283fd5b50611f0685828601611d94565b9150509250929050565b600060208284031215611f21578081fd5b81516118ad8161272e565b600080600080600060a08688031215611f43578081fd5b8535611f4e8161272e565b9450602086013593506040860135611f6581612716565b92506060860135611f758161272e565b91506080860135611f858161272e565b809150509295509295909350565b600060208284031215611fa4578081fd5b5035919050565b600060208284031215611fbc578081fd5b5051919050565b60008060008060808587031215611fd8578384fd5b8435935060208501359250604085013591506060850135611ff88161272e565b939692955090935050565b600080600080600060a0868803121561201a578081fd5b853594506020860135935060408601359250606086013591506080860135611f858161272e565b600082516120538184602087016126e6565b9190910192915050565b90565b6001600160a01b0391909116815260200190565b6001600160a01b0392831681529116602082015260400190565b6001600160a01b0393841681529183166020830152909116604082015260600190565b6001600160a01b03958616815293851660208501529190931660408301526060820192909252901515608082015260a00190565b6001600160a01b0397881681529587166020870152938616604086015260608501929092526080840152151560a083015290911660c082015260e00190565b6001600160a01b039a8b168152988a1660208a01526040890197909752948816606088015292909616608086015260a085015293151560c084015260e08301939093529115156101008201526101208101919091526101400190565b6001600160a01b03998a168152978916602089015260408801969096529390961660608601526080850191909152151560a084015260c083019390935291151560e08201526101008101919091526101200190565b6001600160a01b03929092168252602082015260400190565b6001600160a01b03998a168152602081019890985295881660408801529390961660608601526080850191909152151560a084015260c083019390935291151560e08201526101008101919091526101200190565b6001600160a01b039889168152602081019790975294909616604086015260608501929092521515608084015260a083015291151560c082015260e08101919091526101000190565b60006020825282518060208401526122ab8160408501602087016126e6565b601f01601f19169190910160400192915050565b6020808252601b908201527f536166654d6174683a206164646974696f6e206f766572666c6f770000000000604082015260600190565b6020808252601d908201527f4f72646572426f6f6b3a206661696c656420746f2073656e6420455448000000604082015260600190565b60208082526026908201527f416464726573733a20696e73756666696369656e742062616c616e636520666f6040820152651c8818d85b1b60d21b606082015260800190565b60208082526021908201527f4f72646572426f6f6b3a20696e73756666696369656e7420616d6f756e744f756040820152601d60fa1b606082015260800190565b6020808252601f908201527f4f72646572426f6f6b3a20696e76616c6964205f706174682e6c656e67746800604082015260600190565b60208082526026908201527f4f72646572426f6f6b3a20696e76616c696420707269636520666f722065786560408201526531baba34b7b760d11b606082015260800190565b6020808252601d908201527f4f72646572426f6f6b3a206e6f6e2d6578697374656e74206f72646572000000604082015260600190565b6020808252602a908201527f5361666545524332303a204552433230206f7065726174696f6e20646964206e6040820152691bdd081cdd58d8d9595960b21b606082015260800190565b6020808252601f908201527f5265656e7472616e637947756172643a207265656e7472616e742063616c6c00604082015260600190565b90815260200190565b9687526001600160a01b0395861660208801529390941660408601529015156060850152608084015260a0830191909152151560c082015260e00190565b998a526001600160a01b0398891660208b015260408a0197909752948716606089015292909516608087015260a086015292151560c085015260e08401929092529015156101008301526101208201526101400190565b9a8b526001600160a01b03998a1660208c015260408b019890985295881660608a015293909616608088015260a0870191909152151560c086015260e08501939093529115156101008401526101208301919091526101408201526101600190565b9788526001600160a01b0396871660208901526040880195909552929094166060860152608085015291151560a084015260c0830191909152151560e08201526101000190565b9889526001600160a01b0397881660208a015260408901969096529390951660608701526080860191909152151560a085015260c084019290925290151560e08301526101008201526101200190565b998a526001600160a01b0398891660208b015260408a01979097529490961660608801526080870192909252151560a086015260c085015291151560e08401526101008301919091526101208201526101400190565b9182521515602082015260400190565b60005b838110156127015781810151838201526020016126e9565b83811115612710576000848401525b50505050565b6001600160a01b038116811461272b57600080fd5b50565b801515811461272b57600080fdfea26469706673582212206aa252234fd4075d790a3af6c3561abfbcc17223ec1e3b04c9f245a676cd897f64736f6c634300060c0033",
  "devdoc": {
    "kind": "dev",
    "methods": {},
    "version": 1
  },
  "userdoc": {
    "kind": "user",
    "methods": {},
    "version": 1
  },
  "storageLayout": {
    "storage": [
      {
        "astId": 15334,
        "contract": "contracts/core/OrderBook.sol:OrderBook",
        "label": "_status",
        "offset": 0,
        "slot": "0",
        "type": "t_uint256"
      },
      {
        "astId": 12024,
        "contract": "contracts/core/OrderBook.sol:OrderBook",
        "label": "router",
        "offset": 0,
        "slot": "1",
        "type": "t_address"
      },
      {
        "astId": 12026,
        "contract": "contracts/core/OrderBook.sol:OrderBook",
        "label": "vault",
        "offset": 0,
        "slot": "2",
        "type": "t_address"
      },
      {
        "astId": 12028,
        "contract": "contracts/core/OrderBook.sol:OrderBook",
        "label": "weth",
        "offset": 0,
        "slot": "3",
        "type": "t_address"
      },
      {
        "astId": 12030,
        "contract": "contracts/core/OrderBook.sol:OrderBook",
        "label": "zkusd",
        "offset": 0,
        "slot": "4",
        "type": "t_address"
      },
      {
        "astId": 12032,
        "contract": "contracts/core/OrderBook.sol:OrderBook",
        "label": "minExecutionFee",
        "offset": 0,
        "slot": "5",
        "type": "t_uint256"
      },
      {
        "astId": 12034,
        "contract": "contracts/core/OrderBook.sol:OrderBook",
        "label": "gov",
        "offset": 0,
        "slot": "6",
        "type": "t_address"
      },
      {
        "astId": 12080,
        "contract": "contracts/core/OrderBook.sol:OrderBook",
        "label": "increaseOrders",
        "offset": 0,
        "slot": "7",
        "type": "t_mapping(t_address,t_mapping(t_uint256,t_struct(IncreaseOrder)12055_storage))"
      },
      {
        "astId": 12084,
        "contract": "contracts/core/OrderBook.sol:OrderBook",
        "label": "increaseOrdersIndex",
        "offset": 0,
        "slot": "8",
        "type": "t_mapping(t_address,t_uint256)"
      },
      {
        "astId": 12090,
        "contract": "contracts/core/OrderBook.sol:OrderBook",
        "label": "decreaseOrders",
        "offset": 0,
        "slot": "9",
        "type": "t_mapping(t_address,t_mapping(t_uint256,t_struct(DecreaseOrder)12074_storage))"
      },
      {
        "astId": 12094,
        "contract": "contracts/core/OrderBook.sol:OrderBook",
        "label": "decreaseOrdersIndex",
        "offset": 0,
        "slot": "10",
        "type": "t_mapping(t_address,t_uint256)"
      }
    ],
    "types": {
      "t_address": {
        "encoding": "inplace",
        "label": "address",
        "numberOfBytes": "20"
      },
      "t_bool": {
        "encoding": "inplace",
        "label": "bool",
        "numberOfBytes": "1"
      },
      "t_mapping(t_address,t_mapping(t_uint256,t_struct(DecreaseOrder)12074_storage))": {
        "encoding": "mapping",
        "key": "t_address",
        "label": "mapping(address => mapping(uint256 => struct OrderBookStorage.DecreaseOrder))",
        "numberOfBytes": "32",
        "value": "t_mapping(t_uint256,t_struct(DecreaseOrder)12074_storage)"
      },
      "t_mapping(t_address,t_mapping(t_uint256,t_struct(IncreaseOrder)12055_storage))": {
        "encoding": "mapping",
        "key": "t_address",
        "label": "mapping(address => mapping(uint256 => struct OrderBookStorage.IncreaseOrder))",
        "numberOfBytes": "32",
        "value": "t_mapping(t_uint256,t_struct(IncreaseOrder)12055_storage)"
      },
      "t_mapping(t_address,t_uint256)": {
        "encoding": "mapping",
        "key": "t_address",
        "label": "mapping(address => uint256)",
        "numberOfBytes": "32",
        "value": "t_uint256"
      },
      "t_mapping(t_uint256,t_struct(DecreaseOrder)12074_storage)": {
        "encoding": "mapping",
        "key": "t_uint256",
        "label": "mapping(uint256 => struct OrderBookStorage.DecreaseOrder)",
        "numberOfBytes": "32",
        "value": "t_struct(DecreaseOrder)12074_storage"
      },
      "t_mapping(t_uint256,t_struct(IncreaseOrder)12055_storage)": {
        "encoding": "mapping",
        "key": "t_uint256",
        "label": "mapping(uint256 => struct OrderBookStorage.IncreaseOrder)",
        "numberOfBytes": "32",
        "value": "t_struct(IncreaseOrder)12055_storage"
      },
      "t_struct(DecreaseOrder)12074_storage": {
        "encoding": "inplace",
        "label": "struct OrderBookStorage.DecreaseOrder",
        "members": [
          {
            "astId": 12057,
            "contract": "contracts/core/OrderBook.sol:OrderBook",
            "label": "account",
            "offset": 0,
            "slot": "0",
            "type": "t_address"
          },
          {
            "astId": 12059,
            "contract": "contracts/core/OrderBook.sol:OrderBook",
            "label": "collateralToken",
            "offset": 0,
            "slot": "1",
            "type": "t_address"
          },
          {
            "astId": 12061,
            "contract": "contracts/core/OrderBook.sol:OrderBook",
            "label": "collateralDelta",
            "offset": 0,
            "slot": "2",
            "type": "t_uint256"
          },
          {
            "astId": 12063,
            "contract": "contracts/core/OrderBook.sol:OrderBook",
            "label": "indexToken",
            "offset": 0,
            "slot": "3",
            "type": "t_address"
          },
          {
            "astId": 12065,
            "contract": "contracts/core/OrderBook.sol:OrderBook",
            "label": "sizeDelta",
            "offset": 0,
            "slot": "4",
            "type": "t_uint256"
          },
          {
            "astId": 12067,
            "contract": "contracts/core/OrderBook.sol:OrderBook",
            "label": "isLong",
            "offset": 0,
            "slot": "5",
            "type": "t_bool"
          },
          {
            "astId": 12069,
            "contract": "contracts/core/OrderBook.sol:OrderBook",
            "label": "triggerPrice",
            "offset": 0,
            "slot": "6",
            "type": "t_uint256"
          },
          {
            "astId": 12071,
            "contract": "contracts/core/OrderBook.sol:OrderBook",
            "label": "triggerAboveThreshold",
            "offset": 0,
            "slot": "7",
            "type": "t_bool"
          },
          {
            "astId": 12073,
            "contract": "contracts/core/OrderBook.sol:OrderBook",
            "label": "executionFee",
            "offset": 0,
            "slot": "8",
            "type": "t_uint256"
          }
        ],
        "numberOfBytes": "288"
      },
      "t_struct(IncreaseOrder)12055_storage": {
        "encoding": "inplace",
        "label": "struct OrderBookStorage.IncreaseOrder",
        "members": [
          {
            "astId": 12036,
            "contract": "contracts/core/OrderBook.sol:OrderBook",
            "label": "account",
            "offset": 0,
            "slot": "0",
            "type": "t_address"
          },
          {
            "astId": 12038,
            "contract": "contracts/core/OrderBook.sol:OrderBook",
            "label": "purchaseToken",
            "offset": 0,
            "slot": "1",
            "type": "t_address"
          },
          {
            "astId": 12040,
            "contract": "contracts/core/OrderBook.sol:OrderBook",
            "label": "purchaseTokenAmount",
            "offset": 0,
            "slot": "2",
            "type": "t_uint256"
          },
          {
            "astId": 12042,
            "contract": "contracts/core/OrderBook.sol:OrderBook",
            "label": "collateralToken",
            "offset": 0,
            "slot": "3",
            "type": "t_address"
          },
          {
            "astId": 12044,
            "contract": "contracts/core/OrderBook.sol:OrderBook",
            "label": "indexToken",
            "offset": 0,
            "slot": "4",
            "type": "t_address"
          },
          {
            "astId": 12046,
            "contract": "contracts/core/OrderBook.sol:OrderBook",
            "label": "sizeDelta",
            "offset": 0,
            "slot": "5",
            "type": "t_uint256"
          },
          {
            "astId": 12048,
            "contract": "contracts/core/OrderBook.sol:OrderBook",
            "label": "isLong",
            "offset": 0,
            "slot": "6",
            "type": "t_bool"
          },
          {
            "astId": 12050,
            "contract": "contracts/core/OrderBook.sol:OrderBook",
            "label": "triggerPrice",
            "offset": 0,
            "slot": "7",
            "type": "t_uint256"
          },
          {
            "astId": 12052,
            "contract": "contracts/core/OrderBook.sol:OrderBook",
            "label": "triggerAboveThreshold",
            "offset": 0,
            "slot": "8",
            "type": "t_bool"
          },
          {
            "astId": 12054,
            "contract": "contracts/core/OrderBook.sol:OrderBook",
            "label": "executionFee",
            "offset": 0,
            "slot": "9",
            "type": "t_uint256"
          }
        ],
        "numberOfBytes": "320"
      },
      "t_uint256": {
        "encoding": "inplace",
        "label": "uint256",
        "numberOfBytes": "32"
      }
    }
  }
}