{
  "address": "0xb46bc69B4caa53cC5516b3a3Ca05e6Fe9F1bbA58",
  "abi": [
    {
      "inputs": [],
      "name": "BASIS_POINTS_DIVISOR",
      "outputs": [
        {
          "internalType": "uint256",
          "name": "",
          "type": "uint256"
        }
      ],
      "stateMutability": "view",
      "type": "function"
    },
    {
      "inputs": [],
      "name": "POSITION_PROPS_LENGTH",
      "outputs": [
        {
          "internalType": "uint256",
          "name": "",
          "type": "uint256"
        }
      ],
      "stateMutability": "view",
      "type": "function"
    },
    {
      "inputs": [],
      "name": "PRICE_PRECISION",
      "outputs": [
        {
          "internalType": "uint256",
          "name": "",
          "type": "uint256"
        }
      ],
      "stateMutability": "view",
      "type": "function"
    },
    {
      "inputs": [],
      "name": "ZKUSD_DECIMALS",
      "outputs": [
        {
          "internalType": "uint256",
          "name": "",
          "type": "uint256"
        }
      ],
      "stateMutability": "view",
      "type": "function"
    },
    {
      "inputs": [
        {
          "internalType": "contract IVault",
          "name": "_vault",
          "type": "address"
        },
        {
          "internalType": "address",
          "name": "_tokenIn",
          "type": "address"
        },
        {
          "internalType": "address",
          "name": "_tokenOut",
          "type": "address"
        },
        {
          "internalType": "uint256",
          "name": "_amountIn",
          "type": "uint256"
        }
      ],
      "name": "getFeeBasisPoints",
      "outputs": [
        {
          "internalType": "uint256",
          "name": "",
          "type": "uint256"
        },
        {
          "internalType": "uint256",
          "name": "",
          "type": "uint256"
        },
        {
          "internalType": "uint256",
          "name": "",
          "type": "uint256"
        }
      ],
      "stateMutability": "view",
      "type": "function"
    },
    {
      "inputs": [
        {
          "internalType": "address",
          "name": "_vault",
          "type": "address"
        },
        {
          "internalType": "address[]",
          "name": "_tokens",
          "type": "address[]"
        }
      ],
      "name": "getFees",
      "outputs": [
        {
          "internalType": "uint256[]",
          "name": "",
          "type": "uint256[]"
        }
      ],
      "stateMutability": "view",
      "type": "function"
    },
    {
      "inputs": [
        {
          "internalType": "address",
          "name": "_vault",
          "type": "address"
        },
        {
          "internalType": "address",
          "name": "_weth",
          "type": "address"
        },
        {
          "internalType": "address[]",
          "name": "_tokens",
          "type": "address[]"
        }
      ],
      "name": "getFundingRates",
      "outputs": [
        {
          "internalType": "uint256[]",
          "name": "",
          "type": "uint256[]"
        }
      ],
      "stateMutability": "view",
      "type": "function"
    },
    {
      "inputs": [
        {
          "internalType": "address",
          "name": "_vault",
          "type": "address"
        },
        {
          "internalType": "address",
          "name": "_account",
          "type": "address"
        },
        {
          "internalType": "address[]",
          "name": "_collateralTokens",
          "type": "address[]"
        },
        {
          "internalType": "address[]",
          "name": "_indexTokens",
          "type": "address[]"
        },
        {
          "internalType": "bool[]",
          "name": "_isLong",
          "type": "bool[]"
        }
      ],
      "name": "getPositions",
      "outputs": [
        {
          "internalType": "uint256[]",
          "name": "",
          "type": "uint256[]"
        }
      ],
      "stateMutability": "view",
      "type": "function"
    },
    {
      "inputs": [
        {
          "internalType": "address",
          "name": "_account",
          "type": "address"
        },
        {
          "internalType": "address[]",
          "name": "_yieldTrackers",
          "type": "address[]"
        }
      ],
      "name": "getStakingInfo",
      "outputs": [
        {
          "internalType": "uint256[]",
          "name": "",
          "type": "uint256[]"
        }
      ],
      "stateMutability": "view",
      "type": "function"
    },
    {
      "inputs": [
        {
          "internalType": "address",
          "name": "_account",
          "type": "address"
        },
        {
          "internalType": "address[]",
          "name": "_tokens",
          "type": "address[]"
        }
      ],
      "name": "getTokenBalances",
      "outputs": [
        {
          "internalType": "uint256[]",
          "name": "",
          "type": "uint256[]"
        }
      ],
      "stateMutability": "view",
      "type": "function"
    },
    {
      "inputs": [
        {
          "internalType": "address",
          "name": "_account",
          "type": "address"
        },
        {
          "internalType": "address[]",
          "name": "_tokens",
          "type": "address[]"
        }
      ],
      "name": "getTokenBalancesWithSupplies",
      "outputs": [
        {
          "internalType": "uint256[]",
          "name": "",
          "type": "uint256[]"
        }
      ],
      "stateMutability": "view",
      "type": "function"
    },
    {
      "inputs": [
        {
          "internalType": "contract IERC20",
          "name": "_token",
          "type": "address"
        },
        {
          "internalType": "address[]",
          "name": "_excludedAccounts",
          "type": "address[]"
        }
      ],
      "name": "getTokenSupply",
      "outputs": [
        {
          "internalType": "uint256",
          "name": "",
          "type": "uint256"
        }
      ],
      "stateMutability": "view",
      "type": "function"
    },
    {
      "inputs": [
        {
          "internalType": "contract IERC20",
          "name": "_token",
          "type": "address"
        },
        {
          "internalType": "address[]",
          "name": "_accounts",
          "type": "address[]"
        }
      ],
      "name": "getTotalBalance",
      "outputs": [
        {
          "internalType": "uint256",
          "name": "",
          "type": "uint256"
        }
      ],
      "stateMutability": "view",
      "type": "function"
    },
    {
      "inputs": [
        {
          "internalType": "address[]",
          "name": "_yieldTokens",
          "type": "address[]"
        }
      ],
      "name": "getTotalStaked",
      "outputs": [
        {
          "internalType": "uint256[]",
          "name": "",
          "type": "uint256[]"
        }
      ],
      "stateMutability": "view",
      "type": "function"
    },
    {
      "inputs": [
        {
          "internalType": "address",
          "name": "_vault",
          "type": "address"
        },
        {
          "internalType": "address",
          "name": "_positionManager",
          "type": "address"
        },
        {
          "internalType": "address",
          "name": "_weth",
          "type": "address"
        },
        {
          "internalType": "address[]",
          "name": "_tokens",
          "type": "address[]"
        }
      ],
      "name": "getVaultTokenInfo",
      "outputs": [
        {
          "internalType": "uint256[]",
          "name": "",
          "type": "uint256[]"
        }
      ],
      "stateMutability": "view",
      "type": "function"
    },
    {
      "inputs": [],
      "name": "gov",
      "outputs": [
        {
          "internalType": "address",
          "name": "",
          "type": "address"
        }
      ],
      "stateMutability": "view",
      "type": "function"
    },
    {
      "inputs": [],
      "name": "hasMaxGlobalShortSizes",
      "outputs": [
        {
          "internalType": "bool",
          "name": "",
          "type": "bool"
        }
      ],
      "stateMutability": "view",
      "type": "function"
    },
    {
      "inputs": [
        {
          "internalType": "bool",
          "name": "_hasMaxGlobalShortSizes",
          "type": "bool"
        }
      ],
      "name": "setConfig",
      "outputs": [],
      "stateMutability": "nonpayable",
      "type": "function"
    },
    {
      "inputs": [
        {
          "internalType": "address",
          "name": "_gov",
          "type": "address"
        }
      ],
      "name": "setGov",
      "outputs": [],
      "stateMutability": "nonpayable",
      "type": "function"
    }
  ],
  "transactionHash": "0x8185af9879099f83ec49d0cd5874fa9dc240d80e2a8c4ccb8b74f1f2ef957695",
  "args": [],
  "numDeployments": 1,
  "solcInputHash": "1827954c4021d85529344d91254f3495",
  "bytecode": "0x608060405234801561001057600080fd5b50600080546001600160a01b03191633179055612b5b806100326000396000f3fe608060405234801561001057600080fd5b50600436106101115760003560e01c8063937a0be8116100ad578063c6f1d67611610071578063c6f1d67614610718578063cfad57a214610734578063d802178e1461075a578063dc383cab1461080b578063fbdb05ca146109c957610111565b8063937a0be81461057c57806395082d251461062d57806395a7535a146106355780639b0183c3146106ef578063ad7e54971461071057610111565b8063015a17f714610116578063126082cf1461013057806312d43a5114610138578063173251e31461015c5780632413c8c11461026e5780632ac0184c1461030f5780632e3e3342146103c0578063440f018c1461047157806386d4d0f5146104cb575b600080fd5b61011e610a7a565b60408051918252519081900360200190f35b61011e610a7f565b610140610a85565b604080516001600160a01b039092168252519081900360200190f35b61021e6004803603608081101561017257600080fd5b6001600160a01b0382358116926020810135821692604082013590921691810190608081016060820135600160201b8111156101ad57600080fd5b8201836020820111156101bf57600080fd5b803590602001918460208302840111600160201b831117156101e057600080fd5b919080806020026020016040519081016040528093929190818152602001838360200280828437600092019190915250929550610a94945050505050565b60408051602080825283518183015283519192839290830191858101910280838360005b8381101561025a578181015183820152602001610242565b505050509050019250505060405180910390f35b61021e6004803603602081101561028457600080fd5b810190602081018135600160201b81111561029e57600080fd5b8201836020820111156102b057600080fd5b803590602001918460208302840111600160201b831117156102d157600080fd5b919080806020026020016040519081016040528093929190818152602001838360200280828437600092019190915250929550611246945050505050565b61011e6004803603604081101561032557600080fd5b6001600160a01b038235169190810190604081016020820135600160201b81111561034f57600080fd5b82018360208201111561036157600080fd5b803590602001918460208302840111600160201b8311171561038257600080fd5b91908080602002602001604051908101604052809392919081815260200183836020028082843760009201919091525092955061133f945050505050565b61021e600480360360408110156103d657600080fd5b6001600160a01b038235169190810190604081016020820135600160201b81111561040057600080fd5b82018360208201111561041257600080fd5b803590602001918460208302840111600160201b8311171561043357600080fd5b91908080602002602001604051908101604052809392919081815260200183836020028082843760009201919091525092955061146a945050505050565b6104ad6004803603608081101561048757600080fd5b506001600160a01b0381358116916020810135821691604082013516906060013561166f565b60408051938452602084019290925282820152519081900360600190f35b61021e600480360360408110156104e157600080fd5b6001600160a01b038235169190810190604081016020820135600160201b81111561050b57600080fd5b82018360208201111561051d57600080fd5b803590602001918460208302840111600160201b8311171561053e57600080fd5b919080806020026020016040519081016040528093929190818152602001838360200280828437600092019190915250929550611bd5945050505050565b61021e6004803603604081101561059257600080fd5b6001600160a01b038235169190810190604081016020820135600160201b8111156105bc57600080fd5b8201836020820111156105ce57600080fd5b803590602001918460208302840111600160201b831117156105ef57600080fd5b919080806020026020016040519081016040528093929190818152602001838360200280828437600092019190915250929550611cd5945050505050565b61011e611e6a565b61021e6004803603606081101561064b57600080fd5b6001600160a01b038235811692602081013590911691810190606081016040820135600160201b81111561067e57600080fd5b82018360208201111561069057600080fd5b803590602001918460208302840111600160201b831117156106b157600080fd5b919080806020026020016040519081016040528093929190818152602001838360200280828437600092019190915250929550611e7b945050505050565b61070e6004803603602081101561070557600080fd5b50351515612347565b005b61011e6123bc565b6107206123c1565b604080519115158252519081900360200190f35b61070e6004803603602081101561074a57600080fd5b50356001600160a01b03166123d1565b61021e6004803603604081101561077057600080fd5b6001600160a01b038235169190810190604081016020820135600160201b81111561079a57600080fd5b8201836020820111156107ac57600080fd5b803590602001918460208302840111600160201b831117156107cd57600080fd5b91908080602002602001604051908101604052809392919081815260200183836020028082843760009201919091525092955061244a945050505050565b61021e600480360360a081101561082157600080fd5b6001600160a01b038235811692602081013590911691810190606081016040820135600160201b81111561085457600080fd5b82018360208201111561086657600080fd5b803590602001918460208302840111600160201b8311171561088757600080fd5b9190808060200260200160405190810160405280939291908181526020018383602002808284376000920191909152509295949360208101935035915050600160201b8111156108d657600080fd5b8201836020820111156108e857600080fd5b803590602001918460208302840111600160201b8311171561090957600080fd5b9190808060200260200160405190810160405280939291908181526020018383602002808284376000920191909152509295949360208101935035915050600160201b81111561095857600080fd5b82018360208201111561096a57600080fd5b803590602001918460208302840111600160201b8311171561098b57600080fd5b919080806020026020016040519081016040528093929190818152602001838360200280828437600092019190915250929550612596945050505050565b61011e600480360360408110156109df57600080fd5b6001600160a01b038235169190810190604081016020820135600160201b811115610a0957600080fd5b820183602082011115610a1b57600080fd5b803590602001918460208302840111600160201b83111715610a3c57600080fd5b919080806020026020016040519081016040528093929190818152602001838360200280828437600092019190915250929550612811945050505050565b601281565b61271081565b6000546001600160a01b031681565b8051606090600c9086908690849084026001600160401b0381118015610ab957600080fd5b50604051908082528060200260200182016040528015610ae3578160200160208202803683370190505b50905060005b8651811015611239576000878281518110610b0057fe5b6020026020010151905060006001600160a01b0316816001600160a01b03161415610b285750875b846001600160a01b03166352f55eed826040518263ffffffff1660e01b815260040180826001600160a01b0316815260200191505060206040518083038186803b158015610b7557600080fd5b505afa158015610b89573d6000803e3d6000fd5b505050506040513d6020811015610b9f57600080fd5b505183518490848902908110610bb157fe5b602002602001018181525050846001600160a01b031663c3c7b9e9826040518263ffffffff1660e01b815260040180826001600160a01b0316815260200191505060206040518083038186803b158015610c0a57600080fd5b505afa158015610c1e573d6000803e3d6000fd5b505050506040513d6020811015610c3457600080fd5b5051835184906001858a0201908110610c4957fe5b602002602001018181525050846001600160a01b03166308665520826040518263ffffffff1660e01b815260040180826001600160a01b0316815260200191505060206040518083038186803b158015610ca257600080fd5b505afa158015610cb6573d6000803e3d6000fd5b505050506040513d6020811015610ccc57600080fd5b5051835184906002858a0201908110610ce157fe5b602002602001018181525050846001600160a01b031663ab2f3ad4826040518263ffffffff1660e01b815260040180826001600160a01b0316815260200191505060206040518083038186803b158015610d3a57600080fd5b505afa158015610d4e573d6000803e3d6000fd5b505050506040513d6020811015610d6457600080fd5b5051835184906003858a0201908110610d7957fe5b602002602001018181525050846001600160a01b0316634a993ee9826040518263ffffffff1660e01b815260040180826001600160a01b0316815260200191505060206040518083038186803b158015610dd257600080fd5b505afa158015610de6573d6000803e3d6000fd5b505050506040513d6020811015610dfc57600080fd5b5051835184906004858a0201908110610e1157fe5b602002602001018181525050846001600160a01b031663486fe2a1826040518263ffffffff1660e01b815260040180826001600160a01b0316815260200191505060206040518083038186803b158015610e6a57600080fd5b505afa158015610e7e573d6000803e3d6000fd5b505050506040513d6020811015610e9457600080fd5b5051835184906005858a0201908110610ea957fe5b602002602001018181525050846001600160a01b0316638a78daa8826040518263ffffffff1660e01b815260040180826001600160a01b0316815260200191505060206040518083038186803b158015610f0257600080fd5b505afa158015610f16573d6000803e3d6000fd5b505050506040513d6020811015610f2c57600080fd5b5051835184906006858a0201908110610f4157fe5b602002602001018181525050836001600160a01b0316639698d25a826040518263ffffffff1660e01b815260040180826001600160a01b0316815260200191505060206040518083038186803b158015610f9a57600080fd5b505afa158015610fae573d6000803e3d6000fd5b505050506040513d6020811015610fc457600080fd5b5051835184906007858a0201908110610fd957fe5b602002602001018181525050836001600160a01b0316631045c74e826040518263ffffffff1660e01b815260040180826001600160a01b0316815260200191505060206040518083038186803b15801561103257600080fd5b505afa158015611046573d6000803e3d6000fd5b505050506040513d602081101561105c57600080fd5b5051835184906008858a020190811061107157fe5b602002602001018181525050846001600160a01b031663f07456ce826040518263ffffffff1660e01b815260040180826001600160a01b0316815260200191505060206040518083038186803b1580156110ca57600080fd5b505afa1580156110de573d6000803e3d6000fd5b505050506040513d60208110156110f457600080fd5b5051835184906009858a020190811061110957fe5b602002602001018181525050846001600160a01b03166388b1fbdf826040518263ffffffff1660e01b815260040180826001600160a01b0316815260200191505060206040518083038186803b15801561116257600080fd5b505afa158015611176573d6000803e3d6000fd5b505050506040513d602081101561118c57600080fd5b505183518490600a858a02019081106111a157fe5b602002602001018181525050846001600160a01b031663d9ac42256040518163ffffffff1660e01b815260040160206040518083038186803b1580156111e657600080fd5b505afa1580156111fa573d6000803e3d6000fd5b505050506040513d602081101561121057600080fd5b505183518490600b858a020190811061122557fe5b602090810291909101015250600101610ae9565b5098975050505050505050565b60608082516001600160401b038111801561126057600080fd5b5060405190808252806020026020018201604052801561128a578160200160208202803683370190505b50905060005b83518110156113385760008482815181106112a757fe5b60200260200101519050806001600160a01b031663817b1cd26040518163ffffffff1660e01b815260040160206040518083038186803b1580156112ea57600080fd5b505afa1580156112fe573d6000803e3d6000fd5b505050506040513d602081101561131457600080fd5b5051835184908490811061132457fe5b602090810291909101015250600101611290565b5092915050565b600080836001600160a01b03166318160ddd6040518163ffffffff1660e01b815260040160206040518083038186803b15801561137b57600080fd5b505afa15801561138f573d6000803e3d6000fd5b505050506040513d60208110156113a557600080fd5b5051905060005b83518110156114605760008482815181106113c357fe5b602002602001015190506000866001600160a01b03166370a08231836040518263ffffffff1660e01b815260040180826001600160a01b0316815260200191505060206040518083038186803b15801561141c57600080fd5b505afa158015611430573d6000803e3d6000fd5b505050506040513d602081101561144657600080fd5b5051905061145484826128ca565b935050506001016113ac565b5090505b92915050565b60606000600290506060818451026001600160401b038111801561148d57600080fd5b506040519080825280602002602001820160405280156114b7578160200160208202803683370190505b50905060005b84518110156116665760008582815181106114d457fe5b6020026020010151905060006001600160a01b0316816001600160a01b0316141561154357866001600160a01b031631838584028151811061151257fe5b6020026020010181815250506000838584026001018151811061153157fe5b6020026020010181815250505061165e565b806001600160a01b03166370a08231886040518263ffffffff1660e01b815260040180826001600160a01b0316815260200191505060206040518083038186803b15801561159057600080fd5b505afa1580156115a4573d6000803e3d6000fd5b505050506040513d60208110156115ba57600080fd5b5051835184908487029081106115cc57fe5b602002602001018181525050806001600160a01b03166318160ddd6040518163ffffffff1660e01b815260040160206040518083038186803b15801561161157600080fd5b505afa158015611625573d6000803e3d6000fd5b505050506040513d602081101561163b57600080fd5b50518351849060018588020190811061165057fe5b602002602001018181525050505b6001016114bd565b50949350505050565b600080600080876001600160a01b03166381a612d6886040518263ffffffff1660e01b815260040180826001600160a01b0316815260200191505060206040518083038186803b1580156116c257600080fd5b505afa1580156116d6573d6000803e3d6000fd5b505050506040513d60208110156116ec57600080fd5b5051604080516323b95ceb60e21b81526001600160a01b038a811660048301529151929350600092918b1691638ee573ac91602480820192602092909190829003018186803b15801561173e57600080fd5b505afa158015611752573d6000803e3d6000fd5b505050506040513d602081101561176857600080fd5b50519050600061178f6c0c9f2c9cd04674edea400000006117898986612913565b9061296c565b90506117ab600a83900a61178983670de0b6b3a7640000612913565b905060008a6001600160a01b03166342b60b038b6040518263ffffffff1660e01b815260040180826001600160a01b0316815260200191505060206040518083038186803b1580156117fc57600080fd5b505afa158015611810573d6000803e3d6000fd5b505050506040513d602081101561182657600080fd5b505180156118a957508a6001600160a01b03166342b60b038a6040518263ffffffff1660e01b815260040180826001600160a01b0316815260200191505060206040518083038186803b15801561187c57600080fd5b505afa158015611890573d6000803e3d6000fd5b505050506040513d60208110156118a657600080fd5b50515b905060008161191c578b6001600160a01b031663a22f23926040518163ffffffff1660e01b815260040160206040518083038186803b1580156118eb57600080fd5b505afa1580156118ff573d6000803e3d6000fd5b505050506040513d602081101561191557600080fd5b5051611982565b8b6001600160a01b031663df73a2676040518163ffffffff1660e01b815260040160206040518083038186803b15801561195557600080fd5b505afa158015611969573d6000803e3d6000fd5b505050506040513d602081101561197f57600080fd5b50515b90506000826119f5578c6001600160a01b0316637a210a2b6040518163ffffffff1660e01b815260040160206040518083038186803b1580156119c457600080fd5b505afa1580156119d8573d6000803e3d6000fd5b505050506040513d60208110156119ee57600080fd5b5051611a5b565b8c6001600160a01b03166310eb56c26040518163ffffffff1660e01b815260040160206040518083038186803b158015611a2e57600080fd5b505afa158015611a42573d6000803e3d6000fd5b505050506040513d6020811015611a5857600080fd5b50515b905060008d6001600160a01b031663c7e074c38e87868660016040518663ffffffff1660e01b815260040180866001600160a01b0316815260200185815260200184815260200183815260200182151581526020019550505050505060206040518083038186803b158015611acf57600080fd5b505afa158015611ae3573d6000803e3d6000fd5b505050506040513d6020811015611af957600080fd5b8101908080519060200190929190505050905060008e6001600160a01b031663c7e074c38e88878760006040518663ffffffff1660e01b815260040180866001600160a01b0316815260200185815260200184815260200183815260200182151581526020019550505050505060206040518083038186803b158015611b7e57600080fd5b505afa158015611b92573d6000803e3d6000fd5b505050506040513d6020811015611ba857600080fd5b505190506000818311611bbb5781611bbd565b825b9b509199509750505050505050509450945094915050565b60608082516001600160401b0381118015611bef57600080fd5b50604051908082528060200260200182016040528015611c19578160200160208202803683370190505b50905060005b835181101561146057846001600160a01b0316631ce9cb8f858381518110611c4357fe5b60200260200101516040518263ffffffff1660e01b815260040180826001600160a01b0316815260200191505060206040518083038186803b158015611c8857600080fd5b505afa158015611c9c573d6000803e3d6000fd5b505050506040513d6020811015611cb257600080fd5b50518251839083908110611cc257fe5b6020908102919091010152600101611c1f565b60606000600290506060818451026001600160401b0381118015611cf857600080fd5b50604051908082528060200260200182016040528015611d22578160200160208202803683370190505b50905060005b8451811015611666576000858281518110611d3f57fe5b60200260200101519050806001600160a01b031663402914f5886040518263ffffffff1660e01b815260040180826001600160a01b0316815260200191505060206040518083038186803b158015611d9657600080fd5b505afa158015611daa573d6000803e3d6000fd5b505050506040513d6020811015611dc057600080fd5b505183518490848702908110611dd257fe5b602002602001018181525050806001600160a01b0316632459f51d6040518163ffffffff1660e01b815260040160206040518083038186803b158015611e1757600080fd5b505afa158015611e2b573d6000803e3d6000fd5b505050506040513d6020811015611e4157600080fd5b505183518490600185880201908110611e5657fe5b602090810291909101015250600101611d28565b6c0c9f2c9cd04674edea4000000081565b60606000600290506060818451026001600160401b0381118015611e9e57600080fd5b50604051908082528060200260200182016040528015611ec8578160200160208202803683370190505b5090508560005b855181101561233b576000868281518110611ee657fe5b6020026020010151905060006001600160a01b0316816001600160a01b03161415611f0e5750865b6000836001600160a01b03166342b60b03836040518263ffffffff1660e01b815260040180826001600160a01b0316815260200191505060206040518083038186803b158015611f5d57600080fd5b505afa158015611f71573d6000803e3d6000fd5b505050506040513d6020811015611f8757600080fd5b5051611ff757836001600160a01b031663c4f718bf6040518163ffffffff1660e01b815260040160206040518083038186803b158015611fc657600080fd5b505afa158015611fda573d6000803e3d6000fd5b505050506040513d6020811015611ff057600080fd5b505161205d565b836001600160a01b031663134ca63b6040518163ffffffff1660e01b815260040160206040518083038186803b15801561203057600080fd5b505afa158015612044573d6000803e3d6000fd5b505050506040513d602081101561205a57600080fd5b50515b90506000846001600160a01b031663c3c7b9e9846040518263ffffffff1660e01b815260040180826001600160a01b0316815260200191505060206040518083038186803b1580156120ae57600080fd5b505afa1580156120c2573d6000803e3d6000fd5b505050506040513d60208110156120d857600080fd5b5051604080516352f55eed60e01b81526001600160a01b0386811660048301529151929350600092918816916352f55eed91602480820192602092909190829003018186803b15801561212a57600080fd5b505afa15801561213e573d6000803e3d6000fd5b505050506040513d602081101561215457600080fd5b5051905080156121875761216c816117898585612913565b878987028151811061217a57fe5b6020026020010181815250505b6000866001600160a01b031663c65bc7b1866040518263ffffffff1660e01b815260040180826001600160a01b0316815260200191505060206040518083038186803b1580156121d657600080fd5b505afa1580156121ea573d6000803e3d6000fd5b505050506040513d602081101561220057600080fd5b5051111561232b576000866001600160a01b031663a93acac2866040518263ffffffff1660e01b815260040180826001600160a01b0316815260200191505060206040518083038186803b15801561225757600080fd5b505afa15801561226b573d6000803e3d6000fd5b505050506040513d602081101561228157600080fd5b50516040805163c65bc7b160e01b81526001600160a01b0388811660048301529151929350600092918a169163c65bc7b191602480820192602092909190829003018186803b1580156122d357600080fd5b505afa1580156122e7573d6000803e3d6000fd5b505050506040513d60208110156122fd57600080fd5b5051905061230b81836129ae565b898b89026001018151811061231c57fe5b60200260200101818152505050505b505060019092019150611ecf9050565b50909695505050505050565b6000546001600160a01b0316331461239e576040805162461bcd60e51b815260206004820152601560248201527423b7bb32b93730b136329d103337b93134b23232b760591b604482015290519081900360640190fd5b60008054911515600160a01b0260ff60a01b19909216919091179055565b600981565b600054600160a01b900460ff1681565b6000546001600160a01b03163314612428576040805162461bcd60e51b815260206004820152601560248201527423b7bb32b93730b136329d103337b93134b23232b760591b604482015290519081900360640190fd5b600080546001600160a01b0319166001600160a01b0392909216919091179055565b60608082516001600160401b038111801561246457600080fd5b5060405190808252806020026020018201604052801561248e578160200160208202803683370190505b50905060005b83518110156114605760008482815181106124ab57fe5b6020026020010151905060006001600160a01b0316816001600160a01b031614156124f957856001600160a01b0316318383815181106124e757fe5b6020026020010181815250505061258e565b806001600160a01b03166370a08231876040518263ffffffff1660e01b815260040180826001600160a01b0316815260200191505060206040518083038186803b15801561254657600080fd5b505afa15801561255a573d6000803e3d6000fd5b505050506040513d602081101561257057600080fd5b5051835184908490811061258057fe5b602002602001018181525050505b600101612494565b60608060098551026001600160401b03811180156125b357600080fd5b506040519080825280602002602001820160405280156125dd578160200160208202803683370190505b50905060005b85518110156128065760008060008060008060008e6001600160a01b0316634a3f088d8f8f8b8151811061261357fe5b60200260200101518f8c8151811061262757fe5b60200260200101518f8d8151811061263b57fe5b60200260200101516040518563ffffffff1660e01b815260040180856001600160a01b03168152602001846001600160a01b03168152602001836001600160a01b0316815260200182151581526020019450505050506101006040518083038186803b1580156126aa57600080fd5b505afa1580156126be573d6000803e3d6000fd5b505050506040513d6101008110156126d557600080fd5b50805160208201516040830151606084015160a085015160c086015160e0909601518f51959d50939b509199509750955091935090915087908a9060098b0290811061271d57fe5b602002602001018181525050858960098a026001018151811061273c57fe5b602002602001018181525050848960098a026002018151811061275b57fe5b602002602001018181525050838960098a026003018151811061277a57fe5b60200260200101818152505081612792576000612795565b60015b60ff168960098a02600401815181106127aa57fe5b602002602001018181525050828960098a02600501815181106127c957fe5b602002602001018181525050808960098a02600601815181106127e857fe5b60209081029190910101525050600190950194506125e39350505050565b509695505050505050565b600080805b835181101561146057600084828151811061282d57fe5b602002602001015190506000866001600160a01b03166370a08231836040518263ffffffff1660e01b815260040180826001600160a01b0316815260200191505060206040518083038186803b15801561288657600080fd5b505afa15801561289a573d6000803e3d6000fd5b505050506040513d60208110156128b057600080fd5b505190506128be84826129ae565b93505050600101612816565b600061290c83836040518060400160405280601e81526020017f536166654d6174683a207375627472616374696f6e206f766572666c6f770000815250612a08565b9392505050565b60008261292257506000611464565b8282028284828161292f57fe5b041461290c5760405162461bcd60e51b8152600401808060200182810382526021815260200180612b056021913960400191505060405180910390fd5b600061290c83836040518060400160405280601a81526020017f536166654d6174683a206469766973696f6e206279207a65726f000000000000815250612a9f565b60008282018381101561290c576040805162461bcd60e51b815260206004820152601b60248201527f536166654d6174683a206164646974696f6e206f766572666c6f770000000000604482015290519081900360640190fd5b60008184841115612a975760405162461bcd60e51b81526004018080602001828103825283818151815260200191508051906020019080838360005b83811015612a5c578181015183820152602001612a44565b50505050905090810190601f168015612a895780820380516001836020036101000a031916815260200191505b509250505060405180910390fd5b505050900390565b60008183612aee5760405162461bcd60e51b8152602060048201818152835160248401528351909283926044909101919085019080838360008315612a5c578181015183820152602001612a44565b506000838581612afa57fe5b049594505050505056fe536166654d6174683a206d756c7469706c69636174696f6e206f766572666c6f77a264697066735822122090c6c3dc5b16fdf5367adf93dfb475a4d910abf5b130b77f1e19f738cf012b6764736f6c634300060c0033",
  "devdoc": {
    "kind": "dev",
    "methods": {},
    "version": 1
  },
  "userdoc": {
    "kind": "user",
    "methods": {},
    "version": 1
  },
  "storageLayout": {
    "storage": [
      {
        "astId": 3,
        "contract": "contracts/peripherals/Reader.sol:Reader",
        "label": "gov",
        "offset": 0,
        "slot": "0",
        "type": "t_address"
      },
      {
        "astId": 12193,
        "contract": "contracts/peripherals/Reader.sol:Reader",
        "label": "hasMaxGlobalShortSizes",
        "offset": 20,
        "slot": "0",
        "type": "t_bool"
      }
    ],
    "types": {
      "t_address": {
        "encoding": "inplace",
        "label": "address",
        "numberOfBytes": "20"
      },
      "t_bool": {
        "encoding": "inplace",
        "label": "bool",
        "numberOfBytes": "1"
      }
    }
  }
}