{
  "address": "0x7b7C624397c46Eb85b433fc6cFf1aBE214f258ef",
  "abi": [
    {
      "inputs": [
        {
          "internalType": "address",
          "name": "_vault",
          "type": "address"
        }
      ],
      "stateMutability": "nonpayable",
      "type": "constructor"
    },
    {
      "inputs": [],
      "name": "gov",
      "outputs": [
        {
          "internalType": "address",
          "name": "",
          "type": "address"
        }
      ],
      "stateMutability": "view",
      "type": "function"
    },
    {
      "inputs": [
        {
          "internalType": "address",
          "name": "_weth",
          "type": "address"
        },
        {
          "internalType": "address",
          "name": "_zkdx",
          "type": "address"
        },
        {
          "internalType": "address",
          "name": "_zkdlp",
          "type": "address"
        },
        {
          "internalType": "address",
          "name": "_zkdlpManager",
          "type": "address"
        }
      ],
      "name": "initialize",
      "outputs": [],
      "stateMutability": "nonpayable",
      "type": "function"
    },
    {
      "inputs": [],
      "name": "isInitialized",
      "outputs": [
        {
          "internalType": "bool",
          "name": "",
          "type": "bool"
        }
      ],
      "stateMutability": "view",
      "type": "function"
    },
    {
      "inputs": [
        {
          "internalType": "address",
          "name": "_token",
          "type": "address"
        },
        {
          "internalType": "uint256",
          "name": "_amount",
          "type": "uint256"
        },
        {
          "internalType": "uint256",
          "name": "_minZkUSD",
          "type": "uint256"
        },
        {
          "internalType": "uint256",
          "name": "_minZkdlp",
          "type": "uint256"
        },
        {
          "internalType": "bytes[]",
          "name": "_updateData",
          "type": "bytes[]"
        }
      ],
      "name": "mintAndStakeZkdlp",
      "outputs": [
        {
          "internalType": "uint256",
          "name": "zkdlpAmount",
          "type": "uint256"
        }
      ],
      "stateMutability": "payable",
      "type": "function"
    },
    {
      "inputs": [
        {
          "internalType": "uint256",
          "name": "_minZkusd",
          "type": "uint256"
        },
        {
          "internalType": "uint256",
          "name": "_minZkdlp",
          "type": "uint256"
        },
        {
          "internalType": "bytes[]",
          "name": "_updateData",
          "type": "bytes[]"
        }
      ],
      "name": "mintAndStakeZkdlpETH",
      "outputs": [
        {
          "internalType": "uint256",
          "name": "zkdlpAmount",
          "type": "uint256"
        }
      ],
      "stateMutability": "payable",
      "type": "function"
    },
    {
      "inputs": [
        {
          "internalType": "address",
          "name": "_gov",
          "type": "address"
        }
      ],
      "name": "setGov",
      "outputs": [],
      "stateMutability": "nonpayable",
      "type": "function"
    },
    {
      "inputs": [
        {
          "internalType": "address",
          "name": "_tokenOut",
          "type": "address"
        },
        {
          "internalType": "uint256",
          "name": "_zkdlpAmount",
          "type": "uint256"
        },
        {
          "internalType": "uint256",
          "name": "_minOut",
          "type": "uint256"
        },
        {
          "internalType": "address",
          "name": "_receiver",
          "type": "address"
        },
        {
          "internalType": "bytes[]",
          "name": "_updateData",
          "type": "bytes[]"
        }
      ],
      "name": "unstakeAndRedeemZkdlp",
      "outputs": [
        {
          "internalType": "uint256",
          "name": "amountOut",
          "type": "uint256"
        }
      ],
      "stateMutability": "payable",
      "type": "function"
    },
    {
      "inputs": [
        {
          "internalType": "uint256",
          "name": "_zkdlpAmount",
          "type": "uint256"
        },
        {
          "internalType": "uint256",
          "name": "_minOut",
          "type": "uint256"
        },
        {
          "internalType": "address payable",
          "name": "_receiver",
          "type": "address"
        },
        {
          "internalType": "bytes[]",
          "name": "_updateData",
          "type": "bytes[]"
        }
      ],
      "name": "unstakeAndRedeemZkdlpETH",
      "outputs": [
        {
          "internalType": "uint256",
          "name": "amountOut",
          "type": "uint256"
        }
      ],
      "stateMutability": "payable",
      "type": "function"
    },
    {
      "inputs": [],
      "name": "weth",
      "outputs": [
        {
          "internalType": "address",
          "name": "",
          "type": "address"
        }
      ],
      "stateMutability": "view",
      "type": "function"
    },
    {
      "inputs": [],
      "name": "zkdlp",
      "outputs": [
        {
          "internalType": "address",
          "name": "",
          "type": "address"
        }
      ],
      "stateMutability": "view",
      "type": "function"
    },
    {
      "inputs": [],
      "name": "zkdlpManager",
      "outputs": [
        {
          "internalType": "address",
          "name": "",
          "type": "address"
        }
      ],
      "stateMutability": "view",
      "type": "function"
    },
    {
      "inputs": [],
      "name": "zkdx",
      "outputs": [
        {
          "internalType": "address",
          "name": "",
          "type": "address"
        }
      ],
      "stateMutability": "view",
      "type": "function"
    },
    {
      "stateMutability": "payable",
      "type": "receive"
    }
  ],
  "transactionHash": "0x1245b8a94eb96b444b8ec2d8b21c87587f16b174998cb63307e3a5e37ee3866a",
  "args": [
    "0x5A7538066424fAe75D977Bb89020aD19412E935e"
  ],
  "numDeployments": 1,
  "solcInputHash": "1827954c4021d85529344d91254f3495",
  "bytecode": "0x608060405234801561001057600080fd5b506040516112df3803806112df83398101604081905261002f91610067565b6001600081905580546001600160a01b03199081163317909155600680546001600160a01b0390931692909116919091179055610095565b600060208284031215610078578081fd5b81516001600160a01b038116811461008e578182fd5b9392505050565b61123b806100a46000396000f3fe6080604052600436106100ab5760003560e01c8063793647d811610064578063793647d8146101c657806389da0079146101d957806391f0f1af146101ec578063c2ae7ce314610201578063cfad57a214610214578063f8c8765e1461023657610115565b8063044c09751461011a57806312d43a5114610145578063392e53cd1461015a5780633fc8cef31461017c5780634876827b14610191578063752005c1146101b157610115565b36610115576002546040805180820190915260168152752937baba32b91d1034b73b30b634b21039b2b73232b960511b6020820152906001600160a01b031633146101125760405162461bcd60e51b81526004016101099190611054565b60405180910390fd5b50005b600080fd5b34801561012657600080fd5b5061012f610256565b60405161013c9190610f1d565b60405180910390f35b34801561015157600080fd5b5061012f610265565b34801561016657600080fd5b5061016f610274565b60405161013c9190611049565b34801561018857600080fd5b5061012f610284565b6101a461019f366004610e9f565b610293565b60405161013c91906111a1565b3480156101bd57600080fd5b5061012f6104c3565b6101a46101d4366004610d32565b6104d2565b6101a46101e7366004610e37565b610617565b3480156101f857600080fd5b5061012f6107d5565b6101a461020f366004610dac565b6107e4565b34801561022057600080fd5b5061023461022f366004610c9f565b6108a6565b005b34801561024257600080fd5b50610234610251366004610cd7565b6108f2565b6004546001600160a01b031681565b6001546001600160a01b031681565b600154600160a01b900460ff1681565b6002546001600160a01b031681565b6000600260005414156102b85760405162461bcd60e51b81526004016101099061116a565b600260009081556102c984846109c8565b905060006102d73483610b40565b9050600081116040518060400160405280601f81526020017f526577617264526f757465723a20696e76616c6964206d73672e76616c756500815250906103315760405162461bcd60e51b81526004016101099190611054565b50600260009054906101000a90046001600160a01b03166001600160a01b031663d0e30db0826040518263ffffffff1660e01b81526004016000604051808303818588803b15801561038257600080fd5b505af1158015610396573d6000803e3d6000fd5b505060025460055460405163095ea7b360e01b81526001600160a01b03928316955063095ea7b394506103d193509116908590600401610f9a565b602060405180830381600087803b1580156103eb57600080fd5b505af11580156103ff573d6000803e3d6000fd5b505050506040513d601f19601f820116820180604052508101906104239190610dff565b506005546002546040516317eb2a1560e01b81526001600160a01b03928316926317eb2a15926104619230923392169087908e908e90600401610f31565b602060405180830381600087803b15801561047b57600080fd5b505af115801561048f573d6000803e3d6000fd5b505050506040513d601f19601f820116820180604052508101906104b39190610e1f565b6001600055979650505050505050565b6005546001600160a01b031681565b6000600260005414156104f75760405162461bcd60e51b81526004016101099061116a565b600260005561050683836109c8565b50600086116040518060600160405280602281526020016111c360229139906105425760405162461bcd60e51b81526004016101099190611054565b506005546040516371d597ad60e01b81526001600160a01b03909116906371d597ad9061057b9033908b908b908b908b90600401610f6a565b602060405180830381600087803b15801561059557600080fd5b505af11580156105a9573d6000803e3d6000fd5b505050506040513d601f19601f820116820180604052508101906105cd9190610e1f565b90507fb7818f6b6e680269ecf063c7ae79f4ea02d1da59337360653b5acc532e50a7b73387604051610600929190610f9a565b60405180910390a160016000559695505050505050565b60006002600054141561063c5760405162461bcd60e51b81526004016101099061116a565b600260005561064b83836109c8565b50600086116040518060600160405280602281526020016111c360229139906106875760405162461bcd60e51b81526004016101099190611054565b506005546002546040516371d597ad60e01b81526001600160a01b03928316926371d597ad926106c5923392909116908b908b903090600401610f6a565b602060405180830381600087803b1580156106df57600080fd5b505af11580156106f3573d6000803e3d6000fd5b505050506040513d601f19601f820116820180604052508101906107179190610e1f565b600254604051632e1a7d4d60e01b81529192506001600160a01b031690632e1a7d4d906107489084906004016111a1565b600060405180830381600087803b15801561076257600080fd5b505af1158015610776573d6000803e3d6000fd5b5061078e925050506001600160a01b03851682610b89565b7fb7818f6b6e680269ecf063c7ae79f4ea02d1da59337360653b5acc532e50a7b733876040516107bf929190610f9a565b60405180910390a1600160005595945050505050565b6003546001600160a01b031681565b6000600260005414156108095760405162461bcd60e51b81526004016101099061116a565b600260005561081883836109c8565b5060408051808201909152601d81527f526577617264526f757465723a20696e76616c6964205f616d6f756e7400000060208201528661086b5760405162461bcd60e51b81526004016101099190611054565b506005546040516317eb2a1560e01b81526001600160a01b03909116906317eb2a159061046190339081908c908c908c908c90600401610f31565b6001546001600160a01b031633146108d05760405162461bcd60e51b81526004016101099061113b565b600180546001600160a01b0319166001600160a01b0392909216919091179055565b6001546001600160a01b0316331461091c5760405162461bcd60e51b81526004016101099061113b565b600160149054906101000a900460ff16156040518060600160405280602181526020016111e560219139906109645760405162461bcd60e51b81526004016101099190611054565b506001805460ff60a01b1916600160a01b179055600280546001600160a01b039586166001600160a01b0319918216179091556003805494861694821694909417909355600480549285169284169290921790915560058054919093169116179055565b6000816109d757506000610b3a565b60065460408051633a0df78d60e11b815290516000926001600160a01b03169163741bef1a916004808301926020929190829003018186803b158015610a1c57600080fd5b505afa158015610a30573d6000803e3d6000fd5b505050506040513d601f19601f82011682018060405250810190610a549190610cbb565b60405163d47eed4560e01b81529091506001600160a01b0382169063d47eed4590610a859087908790600401610fb3565b60206040518083038186803b158015610a9d57600080fd5b505afa158015610ab1573d6000803e3d6000fd5b505050506040513d601f19601f82011682018060405250810190610ad59190610e1f565b9150806001600160a01b031663ef9e5e288386866040518463ffffffff1660e01b8152600401610b06929190610fb3565b6000604051808303818588803b158015610b1f57600080fd5b505af1158015610b33573d6000803e3d6000fd5b5050505050505b92915050565b6000610b8283836040518060400160405280601e81526020017f536166654d6174683a207375627472616374696f6e206f766572666c6f770000815250610c2a565b9392505050565b80471015610ba95760405162461bcd60e51b815260040161010990611104565b6000826001600160a01b031682604051610bc290610f1a565b60006040518083038185875af1925050503d8060008114610bff576040519150601f19603f3d011682016040523d82523d6000602084013e610c04565b606091505b5050905080610c255760405162461bcd60e51b8152600401610109906110a7565b505050565b60008184841115610c4e5760405162461bcd60e51b81526004016101099190611054565b505050900390565b60008083601f840112610c67578182fd5b50813567ffffffffffffffff811115610c7e578182fd5b6020830191508360208083028501011115610c9857600080fd5b9250929050565b600060208284031215610cb0578081fd5b8135610b82816111aa565b600060208284031215610ccc578081fd5b8151610b82816111aa565b60008060008060808587031215610cec578283fd5b8435610cf7816111aa565b93506020850135610d07816111aa565b92506040850135610d17816111aa565b91506060850135610d27816111aa565b939692955090935050565b60008060008060008060a08789031215610d4a578182fd5b8635610d55816111aa565b955060208701359450604087013593506060870135610d73816111aa565b9250608087013567ffffffffffffffff811115610d8e578283fd5b610d9a89828a01610c56565b979a9699509497509295939492505050565b60008060008060008060a08789031215610dc4578182fd5b8635610dcf816111aa565b9550602087013594506040870135935060608701359250608087013567ffffffffffffffff811115610d8e578283fd5b600060208284031215610e10578081fd5b81518015158114610b82578182fd5b600060208284031215610e30578081fd5b5051919050565b600080600080600060808688031215610e4e578081fd5b85359450602086013593506040860135610e67816111aa565b9250606086013567ffffffffffffffff811115610e82578182fd5b610e8e88828901610c56565b969995985093965092949392505050565b60008060008060608587031215610eb4578384fd5b8435935060208501359250604085013567ffffffffffffffff811115610ed8578283fd5b610ee487828801610c56565b95989497509550505050565b60008284528282602086013780602084860101526020601f19601f85011685010190509392505050565b90565b6001600160a01b0391909116815260200190565b6001600160a01b03968716815294861660208601529290941660408401526060830152608082019290925260a081019190915260c00190565b6001600160a01b039586168152938516602085015260408401929092526060830152909116608082015260a00190565b6001600160a01b03929092168252602082015260400190565b602080825281810183905260009060408482028401810190840186845b8781101561103c57868403603f190183528135368a9003601e19018112610ff5578687fd5b8901803567ffffffffffffffff81111561100d578788fd5b8036038b131561101b578788fd5b6110288682898501610ef0565b955050509184019190840190600101610fd0565b5091979650505050505050565b901515815260200190565b6000602080835283518082850152825b8181101561108057858101830151858201604001528201611064565b818111156110915783604083870101525b50601f01601f1916929092016040019392505050565b6020808252603a908201527f416464726573733a20756e61626c6520746f2073656e642076616c75652c207260408201527f6563697069656e74206d61792068617665207265766572746564000000000000606082015260800190565b6020808252601d908201527f416464726573733a20696e73756666696369656e742062616c616e6365000000604082015260600190565b60208082526015908201527423b7bb32b93730b136329d103337b93134b23232b760591b604082015260600190565b6020808252601f908201527f5265656e7472616e637947756172643a207265656e7472616e742063616c6c00604082015260600190565b90815260200190565b6001600160a01b03811681146111bf57600080fd5b5056fe526577617264526f757465723a20696e76616c6964205f7a6b757364416d6f756e74526577617264526f757465723a20616c726561647920696e697469616c697a6564a2646970667358221220e3020ad342e913a6cfe6cf4fbe111ea4dd2d87285354f4b534df6ea52a6c815564736f6c634300060c0033",
  "devdoc": {
    "kind": "dev",
    "methods": {
      "mintAndStakeZkdlp(address,uint256,uint256,uint256,bytes[])": {
        "params": {
          "_amount": "amount of the token to be staked",
          "_minZkUSD": "minimum amount of zkUSD to be minted",
          "_minZkdlp": "minimum amount of zkdlp to be minted",
          "_token": "address of the token to be staked",
          "_updateData": "array of bytes containing the data to be passed to the update function"
        },
        "returns": {
          "zkdlpAmount": "amount of zkdlp minted"
        }
      },
      "mintAndStakeZkdlpETH(uint256,uint256,bytes[])": {
        "params": {
          "_minZkdlp": "minimum amount of zkdlp to be minted",
          "_minZkusd": "minimum amount of zkUSD to be minted",
          "_updateData": "array of bytes containing the data to be passed to the update function"
        },
        "returns": {
          "zkdlpAmount": "amount of zkdlp minted"
        }
      },
      "unstakeAndRedeemZkdlp(address,uint256,uint256,address,bytes[])": {
        "params": {
          "_minOut": "minimum amount of token to be received",
          "_receiver": "address of the receiver",
          "_tokenOut": "address of the token to be unstaked",
          "_updateData": "array of bytes containing the data to be passed to the update function",
          "_zkdlpAmount": "amount of zkdlp to be unstaked"
        },
        "returns": {
          "amountOut": "amount of token received"
        }
      },
      "unstakeAndRedeemZkdlpETH(uint256,uint256,address,bytes[])": {
        "params": {
          "_minOut": "minimum amount of ETH to be received",
          "_receiver": "address of the receiver",
          "_updateData": "array of bytes containing the data to be passed to the update function",
          "_zkdlpAmount": "amount of zkdlp to be unstaked"
        },
        "returns": {
          "amountOut": "amount of ETH received"
        }
      }
    },
    "version": 1
  },
  "userdoc": {
    "kind": "user",
    "methods": {},
    "version": 1
  },
  "storageLayout": {
    "storage": [
      {
        "astId": 15334,
        "contract": "contracts/staking/RewardRouterV2.sol:RewardRouterV2",
        "label": "_status",
        "offset": 0,
        "slot": "0",
        "type": "t_uint256"
      },
      {
        "astId": 3,
        "contract": "contracts/staking/RewardRouterV2.sol:RewardRouterV2",
        "label": "gov",
        "offset": 0,
        "slot": "1",
        "type": "t_address"
      },
      {
        "astId": 12231,
        "contract": "contracts/staking/RewardRouterV2.sol:RewardRouterV2",
        "label": "isInitialized",
        "offset": 20,
        "slot": "1",
        "type": "t_bool"
      },
      {
        "astId": 12233,
        "contract": "contracts/staking/RewardRouterV2.sol:RewardRouterV2",
        "label": "weth",
        "offset": 0,
        "slot": "2",
        "type": "t_address"
      },
      {
        "astId": 12235,
        "contract": "contracts/staking/RewardRouterV2.sol:RewardRouterV2",
        "label": "zkdx",
        "offset": 0,
        "slot": "3",
        "type": "t_address"
      },
      {
        "astId": 12237,
        "contract": "contracts/staking/RewardRouterV2.sol:RewardRouterV2",
        "label": "zkdlp",
        "offset": 0,
        "slot": "4",
        "type": "t_address"
      },
      {
        "astId": 12239,
        "contract": "contracts/staking/RewardRouterV2.sol:RewardRouterV2",
        "label": "zkdlpManager",
        "offset": 0,
        "slot": "5",
        "type": "t_address"
      },
      {
        "astId": 291,
        "contract": "contracts/staking/RewardRouterV2.sol:RewardRouterV2",
        "label": "_IVault",
        "offset": 0,
        "slot": "6",
        "type": "t_contract(IVault)7397"
      }
    ],
    "types": {
      "t_address": {
        "encoding": "inplace",
        "label": "address",
        "numberOfBytes": "20"
      },
      "t_bool": {
        "encoding": "inplace",
        "label": "bool",
        "numberOfBytes": "1"
      },
      "t_contract(IVault)7397": {
        "encoding": "inplace",
        "label": "contract IVault",
        "numberOfBytes": "20"
      },
      "t_uint256": {
        "encoding": "inplace",
        "label": "uint256",
        "numberOfBytes": "32"
      }
    }
  }
}