{
  "address": "0xeE89bc0171e252dE4996EFaEB63c2D186E17AA12",
  "abi": [
    {
      "inputs": [
        {
          "internalType": "address payable",
          "name": "_orderBookAddress",
          "type": "address"
        },
        {
          "internalType": "address",
          "name": "_account",
          "type": "address"
        },
        {
          "internalType": "uint256[]",
          "name": "_indices",
          "type": "uint256[]"
        }
      ],
      "name": "getDecreaseOrders",
      "outputs": [
        {
          "internalType": "uint256[]",
          "name": "",
          "type": "uint256[]"
        },
        {
          "internalType": "address[]",
          "name": "",
          "type": "address[]"
        }
      ],
      "stateMutability": "view",
      "type": "function"
    },
    {
      "inputs": [
        {
          "internalType": "address payable",
          "name": "_orderBookAddress",
          "type": "address"
        },
        {
          "internalType": "address",
          "name": "_account",
          "type": "address"
        },
        {
          "internalType": "uint256[]",
          "name": "_indices",
          "type": "uint256[]"
        }
      ],
      "name": "getIncreaseOrders",
      "outputs": [
        {
          "internalType": "uint256[]",
          "name": "",
          "type": "uint256[]"
        },
        {
          "internalType": "address[]",
          "name": "",
          "type": "address[]"
        }
      ],
      "stateMutability": "view",
      "type": "function"
    }
  ],
  "transactionHash": "0xc6108813163a1f31c38bcd23d0fb07f5440e83b8903c9ff410fe892d2b389c08",
  "args": [],
  "numDeployments": 1,
  "solcInputHash": "45f986e69ef0b1c3adec9bb2994aea31",
  "bytecode": "0x608060405234801561001057600080fd5b506109c4806100206000396000f3fe608060405234801561001057600080fd5b50600436106100365760003560e01c80630ce933b91461003b578063c38ccd501461018e575b600080fd5b6100f56004803603606081101561005157600080fd5b6001600160a01b038235811692602081013590911691810190606081016040820135600160201b81111561008457600080fd5b82018360208201111561009657600080fd5b803590602001918460208302840111600160201b831117156100b757600080fd5b919080806020026020016040519081016040528093929190818152602001838360200280828437600092019190915250929550610248945050505050565b604051808060200180602001838103835285818151815260200191508051906020019060200280838360005b83811015610139578181015183820152602001610121565b50505050905001838103825284818151815260200191508051906020019060200280838360005b83811015610178578181015183820152602001610160565b5050505090500194505050505060405180910390f35b6100f5600480360360608110156101a457600080fd5b6001600160a01b038235811692602081013590911691810190606081016040820135600160201b8111156101d757600080fd5b8201836020820111156101e957600080fd5b803590602001918460208302840111600160201b8311171561020a57600080fd5b9190808060200260200160405190810160405280939291908181526020018383602002808284376000920191909152509295506105b2945050505050565b606080610253610956565b6040518060a001604052806000815260200160008152602001866001600160a01b0316815260200160058152602001600281525090506060845182606001510267ffffffffffffffff811180156102a957600080fd5b506040519080825280602002602001820160405280156102d3578160200160208202803683370190505b5090506060855183608001510267ffffffffffffffff811180156102f657600080fd5b50604051908082528060200260200182016040528015610320578160200160208202803683370190505b509050875b8651845110156105a4578684600001518151811061033f57fe5b60200260200101518460200181815250506000806000806000806000876001600160a01b031663026032ee8c604001518d602001516040518363ffffffff1660e01b815260040180836001600160a01b03168152602001828152602001925050506101006040518083038186803b1580156103b957600080fd5b505afa1580156103cd573d6000803e3d6000fd5b505050506040513d6101008110156103e457600080fd5b810190808051906020019092919080519060200190929190805190602001909291908051906020019092919080519060200190929190805190602001909291908051906020019092919080519060200190929190505050509650965096509650965096509650858a8c606001518d60000151028151811061046157fe5b602002602001018181525050838a8c606001518d60000151026001018151811061048757fe5b6020026020010181815250508261049f5760006104a2565b60015b60ff168a8c606001518d6000015102600201815181106104be57fe5b602002602001018181525050818a8c606001518d6000015102600301815181106104e457fe5b602002602001018181525050806104fc5760006104ff565b60015b60ff168a8c606001518d60000151026004018151811061051b57fe5b60200260200101818152505086898c608001518d60000151028151811061053e57fe5b60200260200101906001600160a01b031690816001600160a01b03168152505084898c608001518d60000151026001018151811061057857fe5b6001600160a01b0390921660209283029190910190910152505088516001018952506103259350505050565b509097909650945050505050565b6060806105bd610956565b6040518060a001604052806000815260200160008152602001866001600160a01b0316815260200160058152602001600381525090506060845182606001510267ffffffffffffffff8111801561061357600080fd5b5060405190808252806020026020018201604052801561063d578160200160208202803683370190505b5090506060855183608001510267ffffffffffffffff8111801561066057600080fd5b5060405190808252806020026020018201604052801561068a578160200160208202803683370190505b509050875b8651845110156105a457868460000151815181106106a957fe5b6020026020010151846020018181525050600080600080600080600080886001600160a01b031663d3bab1d18d604001518e602001516040518363ffffffff1660e01b815260040180836001600160a01b03168152602001828152602001925050506101206040518083038186803b15801561072457600080fd5b505afa158015610738573d6000803e3d6000fd5b505050506040513d61012081101561074f57600080fd5b810190808051906020019092919080519060200190929190805190602001909291908051906020019092919080519060200190929190805190602001909291908051906020019092919080519060200190929190805190602001909291905050505097509750975097509750975097509750868b8d606001518e6000015102815181106107d857fe5b602002602001018181525050838b8d606001518e6000015102600101815181106107fe57fe5b60200260200101818152505082610816576000610819565b60015b60ff168b8d606001518e60000151026002018151811061083557fe5b602002602001018181525050818b8d606001518e60000151026003018151811061085b57fe5b60200260200101818152505080610873576000610876565b60015b60ff168b8d606001518e60000151026004018151811061089257fe5b602002602001018181525050878a8d608001518e6000015102815181106108b557fe5b60200260200101906001600160a01b031690816001600160a01b031681525050858a8d608001518e6000015102600101815181106108ef57fe5b60200260200101906001600160a01b031690816001600160a01b031681525050848a8d608001518e60000151026002018151811061092957fe5b6001600160a01b0390921660209283029190910190910152505089516001018a525061068f945050505050565b6040518060a00160405280600081526020016000815260200160006001600160a01b031681526020016000815260200160008152509056fea26469706673582212209314ddfe89db1a41396db300b09629b3d72617a40a2ec7efbbc6eea76493136164736f6c634300060c0033",
  "devdoc": {
    "kind": "dev",
    "methods": {},
    "version": 1
  },
  "userdoc": {
    "kind": "user",
    "methods": {},
    "version": 1
  },
  "storageLayout": {
    "storage": [],
    "types": null
  }
}