{
  "address": "0xbD0e35458454ffEd212D92ab62fC25193e66189b",
  "abi": [
    {
      "inputs": [
        {
          "internalType": "address",
          "name": "_vault",
          "type": "address"
        }
      ],
      "stateMutability": "nonpayable",
      "type": "constructor"
    },
    {
      "anonymous": false,
      "inputs": [
        {
          "indexed": true,
          "internalType": "address",
          "name": "owner",
          "type": "address"
        },
        {
          "indexed": true,
          "internalType": "address",
          "name": "spender",
          "type": "address"
        },
        {
          "indexed": false,
          "internalType": "uint256",
          "name": "value",
          "type": "uint256"
        }
      ],
      "name": "Approval",
      "type": "event"
    },
    {
      "anonymous": false,
      "inputs": [
        {
          "indexed": true,
          "internalType": "address",
          "name": "from",
          "type": "address"
        },
        {
          "indexed": true,
          "internalType": "address",
          "name": "to",
          "type": "address"
        },
        {
          "indexed": false,
          "internalType": "uint256",
          "name": "value",
          "type": "uint256"
        }
      ],
      "name": "Transfer",
      "type": "event"
    },
    {
      "inputs": [
        {
          "internalType": "address",
          "name": "_account",
          "type": "address"
        }
      ],
      "name": "addAdmin",
      "outputs": [],
      "stateMutability": "nonpayable",
      "type": "function"
    },
    {
      "inputs": [
        {
          "internalType": "address",
          "name": "_account",
          "type": "address"
        }
      ],
      "name": "addNonStakingAccount",
      "outputs": [],
      "stateMutability": "nonpayable",
      "type": "function"
    },
    {
      "inputs": [
        {
          "internalType": "address",
          "name": "_vault",
          "type": "address"
        }
      ],
      "name": "addVault",
      "outputs": [],
      "stateMutability": "nonpayable",
      "type": "function"
    },
    {
      "inputs": [
        {
          "internalType": "address",
          "name": "",
          "type": "address"
        }
      ],
      "name": "admins",
      "outputs": [
        {
          "internalType": "bool",
          "name": "",
          "type": "bool"
        }
      ],
      "stateMutability": "view",
      "type": "function"
    },
    {
      "inputs": [
        {
          "internalType": "address",
          "name": "_owner",
          "type": "address"
        },
        {
          "internalType": "address",
          "name": "_spender",
          "type": "address"
        }
      ],
      "name": "allowance",
      "outputs": [
        {
          "internalType": "uint256",
          "name": "",
          "type": "uint256"
        }
      ],
      "stateMutability": "view",
      "type": "function"
    },
    {
      "inputs": [
        {
          "internalType": "address",
          "name": "",
          "type": "address"
        },
        {
          "internalType": "address",
          "name": "",
          "type": "address"
        }
      ],
      "name": "allowances",
      "outputs": [
        {
          "internalType": "uint256",
          "name": "",
          "type": "uint256"
        }
      ],
      "stateMutability": "view",
      "type": "function"
    },
    {
      "inputs": [
        {
          "internalType": "address",
          "name": "_spender",
          "type": "address"
        },
        {
          "internalType": "uint256",
          "name": "_amount",
          "type": "uint256"
        }
      ],
      "name": "approve",
      "outputs": [
        {
          "internalType": "bool",
          "name": "",
          "type": "bool"
        }
      ],
      "stateMutability": "nonpayable",
      "type": "function"
    },
    {
      "inputs": [
        {
          "internalType": "address",
          "name": "_account",
          "type": "address"
        }
      ],
      "name": "balanceOf",
      "outputs": [
        {
          "internalType": "uint256",
          "name": "",
          "type": "uint256"
        }
      ],
      "stateMutability": "view",
      "type": "function"
    },
    {
      "inputs": [
        {
          "internalType": "address",
          "name": "",
          "type": "address"
        }
      ],
      "name": "balances",
      "outputs": [
        {
          "internalType": "uint256",
          "name": "",
          "type": "uint256"
        }
      ],
      "stateMutability": "view",
      "type": "function"
    },
    {
      "inputs": [
        {
          "internalType": "address",
          "name": "_account",
          "type": "address"
        },
        {
          "internalType": "uint256",
          "name": "_amount",
          "type": "uint256"
        }
      ],
      "name": "burn",
      "outputs": [],
      "stateMutability": "nonpayable",
      "type": "function"
    },
    {
      "inputs": [
        {
          "internalType": "address",
          "name": "_receiver",
          "type": "address"
        }
      ],
      "name": "claim",
      "outputs": [],
      "stateMutability": "nonpayable",
      "type": "function"
    },
    {
      "inputs": [],
      "name": "decimals",
      "outputs": [
        {
          "internalType": "uint8",
          "name": "",
          "type": "uint8"
        }
      ],
      "stateMutability": "view",
      "type": "function"
    },
    {
      "inputs": [],
      "name": "gov",
      "outputs": [
        {
          "internalType": "address",
          "name": "",
          "type": "address"
        }
      ],
      "stateMutability": "view",
      "type": "function"
    },
    {
      "inputs": [],
      "name": "inWhitelistMode",
      "outputs": [
        {
          "internalType": "bool",
          "name": "",
          "type": "bool"
        }
      ],
      "stateMutability": "view",
      "type": "function"
    },
    {
      "inputs": [
        {
          "internalType": "address",
          "name": "_account",
          "type": "address"
        },
        {
          "internalType": "uint256",
          "name": "_amount",
          "type": "uint256"
        }
      ],
      "name": "mint",
      "outputs": [],
      "stateMutability": "nonpayable",
      "type": "function"
    },
    {
      "inputs": [],
      "name": "name",
      "outputs": [
        {
          "internalType": "string",
          "name": "",
          "type": "string"
        }
      ],
      "stateMutability": "view",
      "type": "function"
    },
    {
      "inputs": [
        {
          "internalType": "address",
          "name": "",
          "type": "address"
        }
      ],
      "name": "nonStakingAccounts",
      "outputs": [
        {
          "internalType": "bool",
          "name": "",
          "type": "bool"
        }
      ],
      "stateMutability": "view",
      "type": "function"
    },
    {
      "inputs": [],
      "name": "nonStakingSupply",
      "outputs": [
        {
          "internalType": "uint256",
          "name": "",
          "type": "uint256"
        }
      ],
      "stateMutability": "view",
      "type": "function"
    },
    {
      "inputs": [
        {
          "internalType": "address",
          "name": "_account",
          "type": "address"
        },
        {
          "internalType": "address",
          "name": "_receiver",
          "type": "address"
        }
      ],
      "name": "recoverClaim",
      "outputs": [],
      "stateMutability": "nonpayable",
      "type": "function"
    },
    {
      "inputs": [
        {
          "internalType": "address",
          "name": "_account",
          "type": "address"
        }
      ],
      "name": "removeAdmin",
      "outputs": [],
      "stateMutability": "nonpayable",
      "type": "function"
    },
    {
      "inputs": [
        {
          "internalType": "address",
          "name": "_account",
          "type": "address"
        }
      ],
      "name": "removeNonStakingAccount",
      "outputs": [],
      "stateMutability": "nonpayable",
      "type": "function"
    },
    {
      "inputs": [
        {
          "internalType": "address",
          "name": "_vault",
          "type": "address"
        }
      ],
      "name": "removeVault",
      "outputs": [],
      "stateMutability": "nonpayable",
      "type": "function"
    },
    {
      "inputs": [
        {
          "internalType": "address",
          "name": "_gov",
          "type": "address"
        }
      ],
      "name": "setGov",
      "outputs": [],
      "stateMutability": "nonpayable",
      "type": "function"
    },
    {
      "inputs": [
        {
          "internalType": "bool",
          "name": "_inWhitelistMode",
          "type": "bool"
        }
      ],
      "name": "setInWhitelistMode",
      "outputs": [],
      "stateMutability": "nonpayable",
      "type": "function"
    },
    {
      "inputs": [
        {
          "internalType": "string",
          "name": "_name",
          "type": "string"
        },
        {
          "internalType": "string",
          "name": "_symbol",
          "type": "string"
        }
      ],
      "name": "setInfo",
      "outputs": [],
      "stateMutability": "nonpayable",
      "type": "function"
    },
    {
      "inputs": [
        {
          "internalType": "address",
          "name": "_handler",
          "type": "address"
        },
        {
          "internalType": "bool",
          "name": "_isWhitelisted",
          "type": "bool"
        }
      ],
      "name": "setWhitelistedHandler",
      "outputs": [],
      "stateMutability": "nonpayable",
      "type": "function"
    },
    {
      "inputs": [
        {
          "internalType": "address[]",
          "name": "_yieldTrackers",
          "type": "address[]"
        }
      ],
      "name": "setYieldTrackers",
      "outputs": [],
      "stateMutability": "nonpayable",
      "type": "function"
    },
    {
      "inputs": [
        {
          "internalType": "address",
          "name": "_account",
          "type": "address"
        }
      ],
      "name": "stakedBalance",
      "outputs": [
        {
          "internalType": "uint256",
          "name": "",
          "type": "uint256"
        }
      ],
      "stateMutability": "view",
      "type": "function"
    },
    {
      "inputs": [],
      "name": "symbol",
      "outputs": [
        {
          "internalType": "string",
          "name": "",
          "type": "string"
        }
      ],
      "stateMutability": "view",
      "type": "function"
    },
    {
      "inputs": [],
      "name": "totalStaked",
      "outputs": [
        {
          "internalType": "uint256",
          "name": "",
          "type": "uint256"
        }
      ],
      "stateMutability": "view",
      "type": "function"
    },
    {
      "inputs": [],
      "name": "totalSupply",
      "outputs": [
        {
          "internalType": "uint256",
          "name": "",
          "type": "uint256"
        }
      ],
      "stateMutability": "view",
      "type": "function"
    },
    {
      "inputs": [
        {
          "internalType": "address",
          "name": "_recipient",
          "type": "address"
        },
        {
          "internalType": "uint256",
          "name": "_amount",
          "type": "uint256"
        }
      ],
      "name": "transfer",
      "outputs": [
        {
          "internalType": "bool",
          "name": "",
          "type": "bool"
        }
      ],
      "stateMutability": "nonpayable",
      "type": "function"
    },
    {
      "inputs": [
        {
          "internalType": "address",
          "name": "_sender",
          "type": "address"
        },
        {
          "internalType": "address",
          "name": "_recipient",
          "type": "address"
        },
        {
          "internalType": "uint256",
          "name": "_amount",
          "type": "uint256"
        }
      ],
      "name": "transferFrom",
      "outputs": [
        {
          "internalType": "bool",
          "name": "",
          "type": "bool"
        }
      ],
      "stateMutability": "nonpayable",
      "type": "function"
    },
    {
      "inputs": [
        {
          "internalType": "address",
          "name": "",
          "type": "address"
        }
      ],
      "name": "vaults",
      "outputs": [
        {
          "internalType": "bool",
          "name": "",
          "type": "bool"
        }
      ],
      "stateMutability": "view",
      "type": "function"
    },
    {
      "inputs": [
        {
          "internalType": "address",
          "name": "",
          "type": "address"
        }
      ],
      "name": "whitelistedHandlers",
      "outputs": [
        {
          "internalType": "bool",
          "name": "",
          "type": "bool"
        }
      ],
      "stateMutability": "view",
      "type": "function"
    },
    {
      "inputs": [
        {
          "internalType": "address",
          "name": "_token",
          "type": "address"
        },
        {
          "internalType": "address",
          "name": "_account",
          "type": "address"
        },
        {
          "internalType": "uint256",
          "name": "_amount",
          "type": "uint256"
        }
      ],
      "name": "withdrawToken",
      "outputs": [],
      "stateMutability": "nonpayable",
      "type": "function"
    },
    {
      "inputs": [
        {
          "internalType": "uint256",
          "name": "",
          "type": "uint256"
        }
      ],
      "name": "yieldTrackers",
      "outputs": [
        {
          "internalType": "address",
          "name": "",
          "type": "address"
        }
      ],
      "stateMutability": "view",
      "type": "function"
    }
  ],
  "transactionHash": "0xf43f3676a49fbd63f42e0ff1b0578e8a1108a248b55f59e0d9d69d5d13f8376a",
  "args": [
    "0xfc0BEb3C1aDB880A6C1A1C4f3c5E8655F0e4a366"
  ],
  "numDeployments": 1,
  "solcInputHash": "45f986e69ef0b1c3adec9bb2994aea31",
  "bytecode": "0x60806040523480156200001157600080fd5b50604051620028b3380380620028b3833981810160405260208110156200003757600080fd5b50516040805180820182526005808252641692d554d160da1b6020838101828152855180870190965292855284015281519192916000916200007c91839190620003ae565b50815162000092906001906020850190620003ae565b5060048054610100600160a81b031916336101008102919091179091556000818152600960205260409020805460ff19166001179055620000d49082620000ff565b5050506001600160a01b03166000908152600b60205260409020805460ff191660011790556200044a565b60006001600160a01b0316826001600160a01b031614156040518060600160405280602481526020016200288f6024913990620001bd5760405162461bcd60e51b81526004018080602001828103825283818151815260200191508051906020019080838360005b838110156200018157818101518382015260200162000167565b50505050905090810190601f168015620001af5780820380516001836020036101000a031916815260200191505b509250505060405180910390fd5b50620001c982620002ad565b620001e5816002546200034c60201b6200160d1790919060201c565b6002556001600160a01b0382166000908152600660209081526040909120546200021a9183906200160d6200034c821b17901c565b6001600160a01b03831660009081526006602090815260408083209390935560089052205460ff1615620002685762000264816003546200034c60201b6200160d1790919060201c565b6003555b6040805182815290516001600160a01b038416916000917fddf252ad1be2c89b69c2b068fc378daa952ba7f163c4a11628f55a4df523b3ef9181900360200190a35050565b60005b6005548110156200034857600060058281548110620002cb57fe5b600091825260208220015460408051635fd6196560e01b81526001600160a01b03878116600483015291519190921693508392635fd61965926024808201939182900301818387803b1580156200032157600080fd5b505af115801562000336573d6000803e3d6000fd5b505060019093019250620002b0915050565b5050565b600082820183811015620003a7576040805162461bcd60e51b815260206004820152601b60248201527f536166654d6174683a206164646974696f6e206f766572666c6f770000000000604482015290519081900360640190fd5b9392505050565b828054600181600116156101000203166002900490600052602060002090601f016020900481019282601f10620003f157805160ff191683800117855562000421565b8280016001018555821562000421579182015b828111156200042157825182559160200191906001019062000404565b506200042f92915062000433565b5090565b5b808211156200042f576000815560010162000434565b612435806200045a6000396000f3fe608060405234801561001057600080fd5b50600436106101f75760003560e01c806355b6ed5c116101205780639dc29fac116100b8578063ceb68c231161007c578063ceb68c2314610851578063cfad57a214610877578063d92fc87e1461089d578063dd62ed3e146108cb578063fb30d916146108f9576101f7565b80639dc29fac146106a2578063a622ee7c146106ce578063a9059cbb146106f4578063a923fc4014610720578063c93be63614610849576101f7565b806355b6ed5c1461057857806360217267146105a657806362289077146105cc57806370480275146105f257806370a0823114610618578063817b1cd21461063e5780639554381a1461064657806395d89b411461066c578063996f11ee14610674576101f7565b8063276eab4e11610193578063276eab4e146103d757806327e235e314610478578063293d69871461049e578063313ce567146104a657806336300051146104c457806340c10f19146104ea578063429b62e5146105165780634cb5bbe31461053c57806352cd38d91461055b576101f7565b806301e33667146101fc57806306fdde0314610234578063095ea7b3146102b157806312d43a51146102f15780631785f53c1461031557806318160ddd1461033b5780631e83409a1461035557806323b872dd1461037b578063256b5a02146103b1575b600080fd5b6102326004803603606081101561021257600080fd5b506001600160a01b0381358116916020810135909116906040013561091f565b005b61023c61098a565b6040805160208082528351818301528351919283929083019185019080838360005b8381101561027657818101518382015260200161025e565b50505050905090810190601f1680156102a35780820380516001836020036101000a031916815260200191505b509250505060405180910390f35b6102dd600480360360408110156102c757600080fd5b506001600160a01b038135169060200135610a18565b604080519115158252519081900360200190f35b6102f9610a2e565b604080516001600160a01b039092168252519081900360200190f35b6102326004803603602081101561032b57600080fd5b50356001600160a01b0316610a42565b610343610ab5565b60408051918252519081900360200190f35b6102326004803603602081101561036b57600080fd5b50356001600160a01b0316610abb565b6102dd6004803603606081101561039157600080fd5b506001600160a01b03813581169160208101359091169060400135610b72565b610232600480360360208110156103c757600080fd5b50356001600160a01b0316610be2565b610232600480360360208110156103ed57600080fd5b810190602081018135600160201b81111561040757600080fd5b82018360208201111561041957600080fd5b803590602001918460208302840111600160201b8311171561043a57600080fd5b919080806020026020016040519081016040528093929190818152602001838360200280828437600092019190915250929550610c58945050505050565b6103436004803603602081101561048e57600080fd5b50356001600160a01b0316610cbd565b6102dd610ccf565b6104ae610cd8565b6040805160ff9092168252519081900360200190f35b6102dd600480360360208110156104da57600080fd5b50356001600160a01b0316610cdd565b6102326004803603604081101561050057600080fd5b506001600160a01b038135169060200135610cf2565b6102dd6004803603602081101561052c57600080fd5b50356001600160a01b0316610dc3565b6102326004803603602081101561055257600080fd5b50351515610dd8565b6102f96004803603602081101561057157600080fd5b5035610e3d565b6103436004803603604081101561058e57600080fd5b506001600160a01b0381358116916020013516610e64565b610343600480360360208110156105bc57600080fd5b50356001600160a01b0316610e81565b610232600480360360208110156105e257600080fd5b50356001600160a01b0316610eca565b6102326004803603602081101561060857600080fd5b50356001600160a01b0316610fec565b6103436004803603602081101561062e57600080fd5b50356001600160a01b0316611062565b61034361107d565b6102dd6004803603602081101561065c57600080fd5b50356001600160a01b031661109b565b61023c6110b0565b6102326004803603604081101561068a57600080fd5b506001600160a01b038135811691602001351661110a565b610232600480360360408110156106b857600080fd5b506001600160a01b038135169060200135611211565b6102dd600480360360208110156106e457600080fd5b50356001600160a01b03166112a5565b6102dd6004803603604081101561070a57600080fd5b506001600160a01b0381351690602001356112ba565b6102326004803603604081101561073657600080fd5b810190602081018135600160201b81111561075057600080fd5b82018360208201111561076257600080fd5b803590602001918460018302840111600160201b8311171561078357600080fd5b91908080601f0160208091040260200160405190810160405280939291908181526020018383808284376000920191909152509295949360208101935035915050600160201b8111156107d557600080fd5b8201836020820111156107e757600080fd5b803590602001918460018302840111600160201b8311171561080857600080fd5b91908080601f0160208091040260200160405190810160405280939291908181526020018383808284376000920191909152509295506112c7945050505050565b610343611340565b6102326004803603602081101561086757600080fd5b50356001600160a01b0316611346565b6102326004803603602081101561088d57600080fd5b50356001600160a01b03166113b9565b610232600480360360408110156108b357600080fd5b506001600160a01b0381351690602001351515611433565b610343600480360360408110156108e157600080fd5b506001600160a01b03813581169160200135166114b0565b6102326004803603602081101561090f57600080fd5b50356001600160a01b03166114db565b60045461010090046001600160a01b03163314610971576040805162461bcd60e51b815260206004820152601560248201526000805160206123b5833981519152604482015290519081900360640190fd5b6109856001600160a01b0384168383611667565b505050565b6000805460408051602060026001851615610100026000190190941693909304601f81018490048402820184019092528181529291830182828015610a105780601f106109e557610100808354040283529160200191610a10565b820191906000526020600020905b8154815290600101906020018083116109f357829003601f168201915b505050505081565b6000610a253384846116b9565b50600192915050565b60045461010090046001600160a01b031681565b60045461010090046001600160a01b03163314610a94576040805162461bcd60e51b815260206004820152601560248201526000805160206123b5833981519152604482015290519081900360640190fd5b6001600160a01b03166000908152600960205260409020805460ff19169055565b60025481565b60005b600554811015610b6e57600060058281548110610ad757fe5b6000918252602080832090910154604080516310e059a160e11b81523360048201526001600160a01b038881166024830152915191909216945084936321c0b34293604480850194919392918390030190829087803b158015610b3957600080fd5b505af1158015610b4d573d6000803e3d6000fd5b505050506040513d6020811015610b6357600080fd5b505050600101610abe565b5050565b600080610bbd836040518060600160405280602d8152602001612362602d91396001600160a01b03881660009081526007602090815260408083203384529091529020549190611815565b9050610bca8533836116b9565b610bd585858561186f565b60019150505b9392505050565b60045461010090046001600160a01b03163314610c34576040805162461bcd60e51b815260206004820152601560248201526000805160206123b5833981519152604482015290519081900360640190fd5b6001600160a01b03166000908152600b60205260409020805460ff19166001179055565b60045461010090046001600160a01b03163314610caa576040805162461bcd60e51b815260206004820152601560248201526000805160206123b5833981519152604482015290519081900360640190fd5b8051610b6e9060059060208401906120a8565b60066020526000908152604090205481565b60045460ff1681565b601281565b600a6020526000908152604090205460ff1681565b336000908152600b6020908152604091829020548251808401909352601083526f2d25aaa9a21d103337b93134b23232b760811b9183019190915260ff16610db85760405162461bcd60e51b81526004018080602001828103825283818151815260200191508051906020019080838360005b83811015610d7d578181015183820152602001610d65565b50505050905090810190601f168015610daa5780820380516001836020036101000a031916815260200191505b509250505060405180910390fd5b50610b6e8282611b25565b60096020526000908152604090205460ff1681565b60045461010090046001600160a01b03163314610e2a576040805162461bcd60e51b815260206004820152601560248201526000805160206123b5833981519152604482015290519081900360640190fd5b6004805460ff1916911515919091179055565b60058181548110610e4a57fe5b6000918252602090912001546001600160a01b0316905081565b600760209081526000928352604080842090915290825290205481565b6001600160a01b03811660009081526008602052604081205460ff1615610eaa57506000610ec5565b506001600160a01b0381166000908152600660205260409020545b919050565b3360009081526009602052604090205460ff16610f1c576040805162461bcd60e51b815260206004820152601560248201526000805160206123b5833981519152604482015290519081900360640190fd5b6001600160a01b03811660009081526008602090815260409182902054825160608101909352602380845260ff9091161592916121bc9083013990610fa25760405162461bcd60e51b8152602060048201818152835160248401528351909283926044909101919085019080838360008315610d7d578181015183820152602001610d65565b50610fac81611c4f565b6001600160a01b0381166000908152600860209081526040808320805460ff191660011790556006909152902054600354610fe69161160d565b60035550565b60045461010090046001600160a01b0316331461103e576040805162461bcd60e51b815260206004820152601560248201526000805160206123b5833981519152604482015290519081900360640190fd5b6001600160a01b03166000908152600960205260409020805460ff19166001179055565b6001600160a01b031660009081526006602052604090205490565b6000611096600354600254611ce590919063ffffffff16565b905090565b60086020526000908152604090205460ff1681565b60018054604080516020600284861615610100026000190190941693909304601f81018490048402820184019092528181529291830182828015610a105780601f106109e557610100808354040283529160200191610a10565b3360009081526009602052604090205460ff1661115c576040805162461bcd60e51b815260206004820152601560248201526000805160206123b5833981519152604482015290519081900360640190fd5b60005b6005548110156109855760006005828154811061117857fe5b6000918252602080832090910154604080516310e059a160e11b81526001600160a01b0389811660048301528881166024830152915191909216945084936321c0b34293604480850194919392918390030190829087803b1580156111dc57600080fd5b505af11580156111f0573d6000803e3d6000fd5b505050506040513d602081101561120657600080fd5b50505060010161115f565b336000908152600b6020908152604091829020548251808401909352601083526f2d25aaa9a21d103337b93134b23232b760811b9183019190915260ff1661129a5760405162461bcd60e51b8152602060048201818152835160248401528351909283926044909101919085019080838360008315610d7d578181015183820152602001610d65565b50610b6e8282611d27565b600b6020526000908152604090205460ff1681565b6000610a2533848461186f565b60045461010090046001600160a01b03163314611319576040805162461bcd60e51b815260206004820152601560248201526000805160206123b5833981519152604482015290519081900360640190fd5b815161132c90600090602085019061210d565b50805161098590600190602084019061210d565b60035481565b60045461010090046001600160a01b03163314611398576040805162461bcd60e51b815260206004820152601560248201526000805160206123b5833981519152604482015290519081900360640190fd5b6001600160a01b03166000908152600b60205260409020805460ff19169055565b60045461010090046001600160a01b0316331461140b576040805162461bcd60e51b815260206004820152601560248201526000805160206123b5833981519152604482015290519081900360640190fd5b600480546001600160a01b0390921661010002610100600160a81b0319909216919091179055565b60045461010090046001600160a01b03163314611485576040805162461bcd60e51b815260206004820152601560248201526000805160206123b5833981519152604482015290519081900360640190fd5b6001600160a01b03919091166000908152600a60205260409020805460ff1916911515919091179055565b6001600160a01b03918216600090815260076020908152604080832093909416825291909152205490565b3360009081526009602052604090205460ff1661152d576040805162461bcd60e51b815260206004820152601560248201526000805160206123b5833981519152604482015290519081900360640190fd5b6001600160a01b038116600090815260086020908152604091829020548251808401909352601f83527f5969656c64546f6b656e3a205f6163636f756e74206e6f74206d61726b6564009183019190915260ff166115cc5760405162461bcd60e51b8152602060048201818152835160248401528351909283926044909101919085019080838360008315610d7d578181015183820152602001610d65565b506115d681611c4f565b6001600160a01b0381166000908152600860209081526040808320805460ff191690556006909152902054600354610fe691611ce5565b600082820183811015610bdb576040805162461bcd60e51b815260206004820152601b60248201527f536166654d6174683a206164646974696f6e206f766572666c6f770000000000604482015290519081900360640190fd5b604080516001600160a01b038416602482015260448082018490528251808303909101815260649091019091526020810180516001600160e01b031663a9059cbb60e01b179052610985908490611e78565b60006001600160a01b0316836001600160a01b0316141560405180606001604052806029815260200161233960299139906117355760405162461bcd60e51b8152602060048201818152835160248401528351909283926044909101919085019080838360008315610d7d578181015183820152602001610d65565b5060006001600160a01b0316826001600160a01b0316141560405180606001604052806027815260200161227d60279139906117b25760405162461bcd60e51b8152602060048201818152835160248401528351909283926044909101919085019080838360008315610d7d578181015183820152602001610d65565b506001600160a01b03808416600081815260076020908152604080832094871680845294825291829020859055815185815291517f8c5be1e5ebec7d5bd14f71427d1e84f3dd0314c0f7b2291e5b200ac8c7c3b9259281900390910190a3505050565b600081848411156118675760405162461bcd60e51b8152602060048201818152835160248401528351909283926044909101919085019080838360008315610d7d578181015183820152602001610d65565b505050900390565b60006001600160a01b0316836001600160a01b031614156040518060600160405280602a8152602001612207602a9139906118eb5760405162461bcd60e51b8152602060048201818152835160248401528351909283926044909101919085019080838360008315610d7d578181015183820152602001610d65565b5060006001600160a01b0316826001600160a01b031614156040518060600160405280602881526020016121df60289139906119685760405162461bcd60e51b8152602060048201818152835160248401528351909283926044909101919085019080838360008315610d7d578181015183820152602001610d65565b5060045460ff16156119f257336000908152600a602090815260409182902054825160608101909352602680845260ff909116929161238f90830139906119f05760405162461bcd60e51b8152602060048201818152835160248401528351909283926044909101919085019080838360008315610d7d578181015183820152602001610d65565b505b6119fb83611c4f565b611a0482611c4f565b611a41816040518060600160405280602b81526020016123d5602b91396001600160a01b0386166000908152600660205260409020549190611815565b6001600160a01b038085166000908152600660205260408082209390935590841681522054611a70908261160d565b6001600160a01b0380841660009081526006602090815260408083209490945591861681526008909152205460ff1615611ab557600354611ab19082611ce5565b6003555b6001600160a01b03821660009081526008602052604090205460ff1615611ae757600354611ae3908261160d565b6003555b816001600160a01b0316836001600160a01b03166000805160206122ef833981519152836040518082815260200191505060405180910390a3505050565b60006001600160a01b0316826001600160a01b031614156040518060600160405280602481526020016122cb6024913990611ba15760405162461bcd60e51b8152602060048201818152835160248401528351909283926044909101919085019080838360008315610d7d578181015183820152602001610d65565b50611bab82611c4f565b600254611bb8908261160d565b6002556001600160a01b038216600090815260066020526040902054611bde908261160d565b6001600160a01b03831660009081526006602090815260408083209390935560089052205460ff1615611c1c57600354611c18908261160d565b6003555b6040805182815290516001600160a01b038416916000916000805160206122ef8339815191529181900360200190a35050565b60005b600554811015610b6e57600060058281548110611c6b57fe5b600091825260208220015460408051635fd6196560e01b81526001600160a01b03878116600483015291519190921693508392635fd61965926024808201939182900301818387803b158015611cc057600080fd5b505af1158015611cd4573d6000803e3d6000fd5b505060019093019250611c52915050565b6000610bdb83836040518060400160405280601e81526020017f536166654d6174683a207375627472616374696f6e206f766572666c6f770000815250611815565b60006001600160a01b0316826001600160a01b031614156040518060600160405280602681526020016122316026913990611da35760405162461bcd60e51b8152602060048201818152835160248401528351909283926044909101919085019080838360008315610d7d578181015183820152602001610d65565b50611dad82611c4f565b611dea816040518060600160405280602781526020016122a4602791396001600160a01b0385166000908152600660205260409020549190611815565b6001600160a01b038316600090815260066020526040902055600254611e109082611ce5565b6002556001600160a01b03821660009081526008602052604090205460ff1615611e4557600354611e419082611ce5565b6003555b6040805182815290516000916001600160a01b038516916000805160206122ef8339815191529181900360200190a35050565b6060611ecd826040518060400160405280602081526020017f5361666545524332303a206c6f772d6c6576656c2063616c6c206661696c6564815250856001600160a01b0316611f299092919063ffffffff16565b80519091501561098557808060200190516020811015611eec57600080fd5b50516109855760405162461bcd60e51b815260040180806020018281038252602a81526020018061230f602a913960400191505060405180910390fd5b6060611f388484600085611f40565b949350505050565b606082471015611f815760405162461bcd60e51b81526004018080602001828103825260268152602001806122576026913960400191505060405180910390fd5b60006060866001600160a01b031685876040518082805190602001908083835b60208310611fc05780518252601f199092019160209182019101611fa1565b6001836020036101000a03801982511681845116808217855250505050505090500191505060006040518083038185875af1925050503d8060008114612022576040519150601f19603f3d011682016040523d82523d6000602084013e612027565b606091505b5091509150612037828286612042565b979650505050505050565b60608315612051575081610bdb565b8251156120615782518084602001fd5b60405162461bcd60e51b8152602060048201818152845160248401528451859391928392604401919085019080838360008315610d7d578181015183820152602001610d65565b8280548282559060005260206000209081019282156120fd579160200282015b828111156120fd57825182546001600160a01b0319166001600160a01b039091161782556020909201916001909101906120c8565b50612109929150612187565b5090565b828054600181600116156101000203166002900490600052602060002090601f016020900481019282601f1061214e57805160ff191683800117855561217b565b8280016001018555821561217b579182015b8281111561217b578251825591602001919060010190612160565b506121099291506121a6565b5b808211156121095780546001600160a01b0319168155600101612188565b5b8082111561210957600081556001016121a756fe5969656c64546f6b656e3a205f6163636f756e7420616c7265616479206d61726b65645969656c64546f6b656e3a207472616e7366657220746f20746865207a65726f20616464726573735969656c64546f6b656e3a207472616e736665722066726f6d20746865207a65726f20616464726573735969656c64546f6b656e3a206275726e2066726f6d20746865207a65726f2061646472657373416464726573733a20696e73756666696369656e742062616c616e636520666f722063616c6c5969656c64546f6b656e3a20617070726f766520746f20746865207a65726f20616464726573735969656c64546f6b656e3a206275726e20616d6f756e7420657863656564732062616c616e63655969656c64546f6b656e3a206d696e7420746f20746865207a65726f2061646472657373ddf252ad1be2c89b69c2b068fc378daa952ba7f163c4a11628f55a4df523b3ef5361666545524332303a204552433230206f7065726174696f6e20646964206e6f7420737563636565645969656c64546f6b656e3a20617070726f76652066726f6d20746865207a65726f20616464726573735969656c64546f6b656e3a207472616e7366657220616d6f756e74206578636565647320616c6c6f77616e63655969656c64546f6b656e3a206d73672e73656e646572206e6f742077686974656c69737465645969656c64546f6b656e3a20666f7262696464656e00000000000000000000005969656c64546f6b656e3a207472616e7366657220616d6f756e7420657863656564732062616c616e6365a2646970667358221220377bc843b6396ac5bf3f9b3b80e9a5d5f66eaaabf04a609b3591c27e7d47790d64736f6c634300060c00335969656c64546f6b656e3a206d696e7420746f20746865207a65726f2061646472657373",
  "devdoc": {
    "kind": "dev",
    "methods": {},
    "version": 1
  },
  "userdoc": {
    "kind": "user",
    "methods": {},
    "version": 1
  },
  "storageLayout": {
    "storage": [
      {
        "astId": 12906,
        "contract": "contracts/tokens/ZKUSD.sol:ZKUSD",
        "label": "name",
        "offset": 0,
        "slot": "0",
        "type": "t_string_storage"
      },
      {
        "astId": 12908,
        "contract": "contracts/tokens/ZKUSD.sol:ZKUSD",
        "label": "symbol",
        "offset": 0,
        "slot": "1",
        "type": "t_string_storage"
      },
      {
        "astId": 12914,
        "contract": "contracts/tokens/ZKUSD.sol:ZKUSD",
        "label": "totalSupply",
        "offset": 0,
        "slot": "2",
        "type": "t_uint256"
      },
      {
        "astId": 12916,
        "contract": "contracts/tokens/ZKUSD.sol:ZKUSD",
        "label": "nonStakingSupply",
        "offset": 0,
        "slot": "3",
        "type": "t_uint256"
      },
      {
        "astId": 12918,
        "contract": "contracts/tokens/ZKUSD.sol:ZKUSD",
        "label": "inWhitelistMode",
        "offset": 0,
        "slot": "4",
        "type": "t_bool"
      },
      {
        "astId": 12920,
        "contract": "contracts/tokens/ZKUSD.sol:ZKUSD",
        "label": "gov",
        "offset": 1,
        "slot": "4",
        "type": "t_address"
      },
      {
        "astId": 12923,
        "contract": "contracts/tokens/ZKUSD.sol:ZKUSD",
        "label": "yieldTrackers",
        "offset": 0,
        "slot": "5",
        "type": "t_array(t_address)dyn_storage"
      },
      {
        "astId": 12927,
        "contract": "contracts/tokens/ZKUSD.sol:ZKUSD",
        "label": "balances",
        "offset": 0,
        "slot": "6",
        "type": "t_mapping(t_address,t_uint256)"
      },
      {
        "astId": 12933,
        "contract": "contracts/tokens/ZKUSD.sol:ZKUSD",
        "label": "allowances",
        "offset": 0,
        "slot": "7",
        "type": "t_mapping(t_address,t_mapping(t_address,t_uint256))"
      },
      {
        "astId": 12937,
        "contract": "contracts/tokens/ZKUSD.sol:ZKUSD",
        "label": "nonStakingAccounts",
        "offset": 0,
        "slot": "8",
        "type": "t_mapping(t_address,t_bool)"
      },
      {
        "astId": 12941,
        "contract": "contracts/tokens/ZKUSD.sol:ZKUSD",
        "label": "admins",
        "offset": 0,
        "slot": "9",
        "type": "t_mapping(t_address,t_bool)"
      },
      {
        "astId": 12945,
        "contract": "contracts/tokens/ZKUSD.sol:ZKUSD",
        "label": "whitelistedHandlers",
        "offset": 0,
        "slot": "10",
        "type": "t_mapping(t_address,t_bool)"
      },
      {
        "astId": 19987,
        "contract": "contracts/tokens/ZKUSD.sol:ZKUSD",
        "label": "vaults",
        "offset": 0,
        "slot": "11",
        "type": "t_mapping(t_address,t_bool)"
      }
    ],
    "types": {
      "t_address": {
        "encoding": "inplace",
        "label": "address",
        "numberOfBytes": "20"
      },
      "t_array(t_address)dyn_storage": {
        "base": "t_address",
        "encoding": "dynamic_array",
        "label": "address[]",
        "numberOfBytes": "32"
      },
      "t_bool": {
        "encoding": "inplace",
        "label": "bool",
        "numberOfBytes": "1"
      },
      "t_mapping(t_address,t_bool)": {
        "encoding": "mapping",
        "key": "t_address",
        "label": "mapping(address => bool)",
        "numberOfBytes": "32",
        "value": "t_bool"
      },
      "t_mapping(t_address,t_mapping(t_address,t_uint256))": {
        "encoding": "mapping",
        "key": "t_address",
        "label": "mapping(address => mapping(address => uint256))",
        "numberOfBytes": "32",
        "value": "t_mapping(t_address,t_uint256)"
      },
      "t_mapping(t_address,t_uint256)": {
        "encoding": "mapping",
        "key": "t_address",
        "label": "mapping(address => uint256)",
        "numberOfBytes": "32",
        "value": "t_uint256"
      },
      "t_string_storage": {
        "encoding": "bytes",
        "label": "string",
        "numberOfBytes": "32"
      },
      "t_uint256": {
        "encoding": "inplace",
        "label": "uint256",
        "numberOfBytes": "32"
      }
    }
  }
}