{
  "address": "0x3F06D0A9705a4a7d5eB8Feb9E65BC73febEd17A9",
  "abi": [
    {
      "inputs": [
        {
          "internalType": "contract IVault",
          "name": "_vault",
          "type": "address"
        }
      ],
      "stateMutability": "nonpayable",
      "type": "constructor"
    },
    {
      "inputs": [
        {
          "internalType": "address",
          "name": "_token",
          "type": "address"
        },
        {
          "internalType": "uint256",
          "name": "_zkusdAmount",
          "type": "uint256"
        }
      ],
      "name": "getBuyZkusdFeeBasisPoints",
      "outputs": [
        {
          "internalType": "uint256",
          "name": "",
          "type": "uint256"
        }
      ],
      "stateMutability": "view",
      "type": "function"
    },
    {
      "inputs": [
        {
          "internalType": "address",
          "name": "_collateralToken",
          "type": "address"
        },
        {
          "internalType": "address",
          "name": "",
          "type": "address"
        },
        {
          "internalType": "bool",
          "name": "",
          "type": "bool"
        }
      ],
      "name": "getEntryFundingRate",
      "outputs": [
        {
          "internalType": "uint256",
          "name": "",
          "type": "uint256"
        }
      ],
      "stateMutability": "view",
      "type": "function"
    },
    {
      "inputs": [
        {
          "internalType": "address",
          "name": "_token",
          "type": "address"
        },
        {
          "internalType": "uint256",
          "name": "_zkusdDelta",
          "type": "uint256"
        },
        {
          "internalType": "uint256",
          "name": "_feeBasisPoints",
          "type": "uint256"
        },
        {
          "internalType": "uint256",
          "name": "_taxBasisPoints",
          "type": "uint256"
        },
        {
          "internalType": "bool",
          "name": "_increment",
          "type": "bool"
        }
      ],
      "name": "getFeeBasisPoints",
      "outputs": [
        {
          "internalType": "uint256",
          "name": "",
          "type": "uint256"
        }
      ],
      "stateMutability": "view",
      "type": "function"
    },
    {
      "inputs": [
        {
          "internalType": "address",
          "name": "",
          "type": "address"
        },
        {
          "internalType": "address",
          "name": "_collateralToken",
          "type": "address"
        },
        {
          "internalType": "address",
          "name": "",
          "type": "address"
        },
        {
          "internalType": "bool",
          "name": "",
          "type": "bool"
        },
        {
          "internalType": "uint256",
          "name": "_size",
          "type": "uint256"
        },
        {
          "internalType": "uint256",
          "name": "_entryFundingRate",
          "type": "uint256"
        }
      ],
      "name": "getFundingFee",
      "outputs": [
        {
          "internalType": "uint256",
          "name": "",
          "type": "uint256"
        }
      ],
      "stateMutability": "view",
      "type": "function"
    },
    {
      "inputs": [
        {
          "internalType": "address",
          "name": "",
          "type": "address"
        },
        {
          "internalType": "address",
          "name": "",
          "type": "address"
        },
        {
          "internalType": "address",
          "name": "",
          "type": "address"
        },
        {
          "internalType": "bool",
          "name": "",
          "type": "bool"
        },
        {
          "internalType": "uint256",
          "name": "_sizeDelta",
          "type": "uint256"
        }
      ],
      "name": "getPositionFee",
      "outputs": [
        {
          "internalType": "uint256",
          "name": "",
          "type": "uint256"
        }
      ],
      "stateMutability": "view",
      "type": "function"
    },
    {
      "inputs": [
        {
          "internalType": "address",
          "name": "_token",
          "type": "address"
        },
        {
          "internalType": "uint256",
          "name": "_zkusdAmount",
          "type": "uint256"
        }
      ],
      "name": "getSellZkusdFeeBasisPoints",
      "outputs": [
        {
          "internalType": "uint256",
          "name": "",
          "type": "uint256"
        }
      ],
      "stateMutability": "view",
      "type": "function"
    },
    {
      "inputs": [
        {
          "internalType": "address",
          "name": "_tokenIn",
          "type": "address"
        },
        {
          "internalType": "address",
          "name": "_tokenOut",
          "type": "address"
        },
        {
          "internalType": "uint256",
          "name": "_zkusdAmount",
          "type": "uint256"
        }
      ],
      "name": "getSwapFeeBasisPoints",
      "outputs": [
        {
          "internalType": "uint256",
          "name": "",
          "type": "uint256"
        }
      ],
      "stateMutability": "view",
      "type": "function"
    },
    {
      "inputs": [],
      "name": "gov",
      "outputs": [
        {
          "internalType": "address",
          "name": "",
          "type": "address"
        }
      ],
      "stateMutability": "view",
      "type": "function"
    },
    {
      "inputs": [
        {
          "internalType": "address",
          "name": "_gov",
          "type": "address"
        }
      ],
      "name": "setGov",
      "outputs": [],
      "stateMutability": "nonpayable",
      "type": "function"
    },
    {
      "inputs": [
        {
          "internalType": "address",
          "name": "",
          "type": "address"
        },
        {
          "internalType": "address",
          "name": "",
          "type": "address"
        }
      ],
      "name": "updateCumulativeFundingRate",
      "outputs": [
        {
          "internalType": "bool",
          "name": "",
          "type": "bool"
        }
      ],
      "stateMutability": "nonpayable",
      "type": "function"
    },
    {
      "inputs": [
        {
          "internalType": "address",
          "name": "",
          "type": "address"
        },
        {
          "internalType": "address",
          "name": "",
          "type": "address"
        },
        {
          "internalType": "address",
          "name": "",
          "type": "address"
        },
        {
          "internalType": "uint256",
          "name": "",
          "type": "uint256"
        },
        {
          "internalType": "uint256",
          "name": "",
          "type": "uint256"
        },
        {
          "internalType": "bool",
          "name": "",
          "type": "bool"
        },
        {
          "internalType": "address",
          "name": "",
          "type": "address"
        }
      ],
      "name": "validateDecreasePosition",
      "outputs": [],
      "stateMutability": "view",
      "type": "function"
    },
    {
      "inputs": [
        {
          "internalType": "address",
          "name": "",
          "type": "address"
        },
        {
          "internalType": "address",
          "name": "",
          "type": "address"
        },
        {
          "internalType": "address",
          "name": "",
          "type": "address"
        },
        {
          "internalType": "uint256",
          "name": "",
          "type": "uint256"
        },
        {
          "internalType": "bool",
          "name": "",
          "type": "bool"
        }
      ],
      "name": "validateIncreasePosition",
      "outputs": [],
      "stateMutability": "view",
      "type": "function"
    },
    {
      "inputs": [
        {
          "internalType": "address",
          "name": "_account",
          "type": "address"
        },
        {
          "internalType": "address",
          "name": "_collateralToken",
          "type": "address"
        },
        {
          "internalType": "address",
          "name": "_indexToken",
          "type": "address"
        },
        {
          "internalType": "bool",
          "name": "_isLong",
          "type": "bool"
        },
        {
          "internalType": "bool",
          "name": "_raise",
          "type": "bool"
        }
      ],
      "name": "validateLiquidation",
      "outputs": [
        {
          "internalType": "uint256",
          "name": "",
          "type": "uint256"
        },
        {
          "internalType": "uint256",
          "name": "",
          "type": "uint256"
        }
      ],
      "stateMutability": "view",
      "type": "function"
    },
    {
      "inputs": [],
      "name": "vault",
      "outputs": [
        {
          "internalType": "contract IVault",
          "name": "",
          "type": "address"
        }
      ],
      "stateMutability": "view",
      "type": "function"
    }
  ],
  "transactionHash": "0x28b8633747619d32d566685788222b6f782562b3cf35255d04f4f9d051a70619",
  "args": [
    "0xCB37a40500F6c7EF7Ed709354993aC7F17Bf2949"
  ],
  "numDeployments": 1,
  "solcInputHash": "45f986e69ef0b1c3adec9bb2994aea31",
  "bytecode": "0x608060405234801561001057600080fd5b506040516117733803806117738339818101604052602081101561003357600080fd5b5051600080546001600160a01b03199081163317909155600180546001600160a01b0390931692909116919091179055611701806100726000396000f3fe608060405234801561001057600080fd5b50600436106100ca5760003560e01c8063d1258f6f1161007c578063d1258f6f14610269578063d54d5a9f14610295578063da133816146102f4578063da76524c1461032a578063fbfa77cf14610374578063fbfded6d1461037c578063fdaf6ac3146103be576100ca565b806312d43a51146100cf57806381d11a23146100f357806382c04ce7146101495780639d5c28fa14610187578063b1cc53ab146101cb578063c7e074c314610203578063cfad57a214610243575b600080fd5b6100d7610402565b604080516001600160a01b039092168252519081900360200190f35b610147600480360360e081101561010957600080fd5b506001600160a01b0381358116916020810135821691604082013581169160608101359160808201359160a081013515159160c09091013516610411565b005b6101756004803603604081101561015f57600080fd5b506001600160a01b03813516906020013561041a565b60408051918252519081900360200190f35b610147600480360360a081101561019d57600080fd5b506001600160a01b03813581169160208101358216916040820135169060608101359060800135151561051c565b610175600480360360608110156101e157600080fd5b506001600160a01b038135811691602081013590911690604001351515610523565b610175600480360360a081101561021957600080fd5b506001600160a01b03813516906020810135906040810135906060810135906080013515156105a8565b6101476004803603602081101561025957600080fd5b50356001600160a01b031661083b565b6101756004803603604081101561027f57600080fd5b506001600160a01b0381351690602001356108b4565b6102db600480360360a08110156102ab57600080fd5b506001600160a01b03813581169160208101358216916040820135169060608101351515906080013515156109ad565b6040805192835260208301919091528051918290030190f35b6101756004803603606081101561030a57600080fd5b506001600160a01b03813581169160208101359091169060400135610e63565b610175600480360360c081101561034057600080fd5b506001600160a01b038135811691602081013582169160408201351690606081013515159060808101359060a001356111a7565b6100d761126d565b6103aa6004803603604081101561039257600080fd5b506001600160a01b038135811691602001351661127c565b604080519115158252519081900360200190f35b610175600480360360a08110156103d457600080fd5b506001600160a01b038135811691602081013582169160408201351690606081013515159060800135611284565b6000546001600160a01b031681565b50505050505050565b60006105138383600160009054906101000a90046001600160a01b03166001600160a01b0316634d47b3046040518163ffffffff1660e01b815260040160206040518083038186803b15801561046f57600080fd5b505afa158015610483573d6000803e3d6000fd5b505050506040513d602081101561049957600080fd5b505160015460408051637a210a2b60e01b815290516001600160a01b0390921691637a210a2b91600480820192602092909190829003018186803b1580156104e057600080fd5b505afa1580156104f4573d6000803e3d6000fd5b505050506040513d602081101561050a57600080fd5b505160016105a8565b90505b92915050565b5050505050565b6001546040805163c65bc7b160e01b81526001600160a01b0386811660048301529151600093929092169163c65bc7b191602480820192602092909190829003018186803b15801561057457600080fd5b505afa158015610588573d6000803e3d6000fd5b505050506040513d602081101561059e57600080fd5b5051949350505050565b60015460408051639f392eb360e01b815290516000926001600160a01b031691639f392eb3916004808301926020929190829003018186803b1580156105ed57600080fd5b505afa158015610601573d6000803e3d6000fd5b505050506040513d602081101561061757600080fd5b5051610624575082610832565b60015460408051624332a960e51b81526001600160a01b03898116600483015291516000939290921691630866552091602480820192602092909190829003018186803b15801561067457600080fd5b505afa158015610688573d6000803e3d6000fd5b505050506040513d602081101561069e57600080fd5b5051905060006106ae8288611342565b9050836106d1578187116106cb576106c6828861139c565b6106ce565b60005b90505b60015460408051632462811760e21b81526001600160a01b038b811660048301529151600093929092169163918a045c91602480820192602092909190829003018186803b15801561072257600080fd5b505afa158015610736573d6000803e3d6000fd5b505050506040513d602081101561074c57600080fd5b505190508061076057869350505050610832565b600081841161077857610773828561139c565b610782565b610782848361139c565b9050600082841161079c57610797838561139c565b6107a6565b6107a6848461139c565b9050818110156107ee5760006107c6846107c08b866113de565b90611437565b90508981116107de576107d98a8261139c565b6107e1565b60005b9650505050505050610832565b60006107ff60026107c08585611342565b90508381111561080c5750825b600061081c856107c08c856113de565b90506108288b82611342565b9750505050505050505b95945050505050565b6000546001600160a01b03163314610892576040805162461bcd60e51b815260206004820152601560248201527423b7bb32b93730b136329d103337b93134b23232b760591b604482015290519081900360640190fd5b600080546001600160a01b0319166001600160a01b0392909216919091179055565b60006105138383600160009054906101000a90046001600160a01b03166001600160a01b0316634d47b3046040518163ffffffff1660e01b815260040160206040518083038186803b15801561090957600080fd5b505afa15801561091d573d6000803e3d6000fd5b505050506040513d602081101561093357600080fd5b505160015460408051637a210a2b60e01b815290516001600160a01b0390921691637a210a2b91600480820192602092909190829003018186803b15801561097a57600080fd5b505afa15801561098e573d6000803e3d6000fd5b505050506040513d60208110156109a457600080fd5b505160006105a8565b6000806109b8611644565b6109c488888888611479565b600154815160408084015160c08501518251635c07eaab60e01b81526001600160a01b038d81166004830152602482019590955260448101929092528a1515606483015260848201528151949550919092169260009283928592635c07eaab9260a480840193919291829003018186803b158015610a4157600080fd5b505afa158015610a55573d6000803e3d6000fd5b505050506040513d6040811015610a6b57600080fd5b50805160209091015185516060870151929450909250600091610a96918e918e918e918e91906111a7565b9050610ab3610aac8d8d8d8d8a60000151611284565b8290611342565b905082158015610ac65750818560200151105b15610b9b578715610b8b576040518060400160405280601f81526020017f5661756c743a206c6f737365732065786365656420636f6c6c61746572616c0081525060405162461bcd60e51b81526004018080602001828103825283818151815260200191508051906020019080838360005b83811015610b50578181015183820152602001610b38565b50505050905090810190601f168015610b7d5780820380516001836020036101000a031916815260200191505b509250505060405180910390fd5b600196509450610e599350505050565b602085015183610bb7576020860151610bb4908461139c565b90505b81811015610c4e578815610c3d57604080518082018252601d81527f5661756c743a20666565732065786365656420636f6c6c61746572616c0000006020808301918252925162461bcd60e51b81526004810193845282516024820152825192939283926044909201919080838360008315610b50578181015183820152602001610b38565b600197509550610e59945050505050565b610cbd856001600160a01b031663174d26946040518163ffffffff1660e01b815260040160206040518083038186803b158015610c8a57600080fd5b505afa158015610c9e573d6000803e3d6000fd5b505050506040513d6020811015610cb457600080fd5b50518390611342565b811015610d3b578815610d2a576040518060600160405280602981526020016116826029913960405162461bcd60e51b8152602060048201818152835160248401528351909283926044909101919085019080838360008315610b50578181015183820152602001610b38565b50600196509450610e599350505050565b8551610d49906127106113de565b610db8866001600160a01b031663ae3302c26040518163ffffffff1660e01b815260040160206040518083038186803b158015610d8557600080fd5b505afa158015610d99573d6000803e3d6000fd5b505050506040513d6020811015610daf57600080fd5b505183906113de565b1015610e4d578815610e3c57604080518082018252601b81527f5661756c743a206d61784c6576657261676520657863656564656400000000006020808301918252925162461bcd60e51b81526004810193845282516024820152825192939283926044909201919080838360008315610b50578181015183820152602001610b38565b50600296509450610e599350505050565b50600096509450505050505b9550959350505050565b600154604080516342b60b0360e01b81526001600160a01b0386811660048301529151600093849316916342b60b03916024808301926020929190829003018186803b158015610eb257600080fd5b505afa158015610ec6573d6000803e3d6000fd5b505050506040513d6020811015610edc57600080fd5b50518015610f5f5750600154604080516342b60b0360e01b81526001600160a01b038781166004830152915191909216916342b60b03916024808301926020929190829003018186803b158015610f3257600080fd5b505afa158015610f46573d6000803e3d6000fd5b505050506040513d6020811015610f5c57600080fd5b50515b9050600081610fe757600160009054906101000a90046001600160a01b03166001600160a01b031663a22f23926040518163ffffffff1660e01b815260040160206040518083038186803b158015610fb657600080fd5b505afa158015610fca573d6000803e3d6000fd5b505050506040513d6020811015610fe057600080fd5b5051611062565b600160009054906101000a90046001600160a01b03166001600160a01b031663df73a2676040518163ffffffff1660e01b815260040160206040518083038186803b15801561103557600080fd5b505afa158015611049573d6000803e3d6000fd5b505050506040513d602081101561105f57600080fd5b50515b90506000826110ea57600160009054906101000a90046001600160a01b03166001600160a01b0316637a210a2b6040518163ffffffff1660e01b815260040160206040518083038186803b1580156110b957600080fd5b505afa1580156110cd573d6000803e3d6000fd5b505050506040513d60208110156110e357600080fd5b5051611165565b600160009054906101000a90046001600160a01b03166001600160a01b03166310eb56c26040518163ffffffff1660e01b815260040160206040518083038186803b15801561113857600080fd5b505afa15801561114c573d6000803e3d6000fd5b505050506040513d602081101561116257600080fd5b50515b905060006111778887858560016105a8565b905060006111898888868660006105a8565b9050808211611198578061119a565b815b9998505050505050505050565b6000826111b657506000611263565b6001546040805163c65bc7b160e01b81526001600160a01b038981166004830152915160009361123d93879391169163c65bc7b191602480820192602092909190829003018186803b15801561120b57600080fd5b505afa15801561121f573d6000803e3d6000fd5b505050506040513d602081101561123557600080fd5b50519061139c565b90508061124e576000915050611263565b61125f620f42406107c086846113de565b9150505b9695505050505050565b6001546001600160a01b031681565b600192915050565b60008161129357506000610832565b600061132b6127106107c0611324600160009054906101000a90046001600160a01b03166001600160a01b031663318bc6896040518163ffffffff1660e01b815260040160206040518083038186803b1580156112ef57600080fd5b505afa158015611303573d6000803e3d6000fd5b505050506040513d602081101561131957600080fd5b50516127109061139c565b86906113de565b9050611337838261139c565b979650505050505050565b600082820183811015610513576040805162461bcd60e51b815260206004820152601b60248201527f536166654d6174683a206164646974696f6e206f766572666c6f770000000000604482015290519081900360640190fd5b600061051383836040518060400160405280601e81526020017f536166654d6174683a207375627472616374696f6e206f766572666c6f770000815250611585565b6000826113ed57506000610516565b828202828482816113fa57fe5b04146105135760405162461bcd60e51b81526004018080602001828103825260218152602001806116ab6021913960400191505060405180910390fd5b600061051383836040518060400160405280601a81526020017f536166654d6174683a206469766973696f6e206279207a65726f0000000000008152506115df565b611481611644565b6001546001600160a01b0316611495611644565b6000806000806000866001600160a01b0316634a3f088d8d8d8d8d6040518563ffffffff1660e01b815260040180856001600160a01b03168152602001846001600160a01b03168152602001836001600160a01b0316815260200182151581526020019450505050506101006040518083038186803b15801561151757600080fd5b505afa15801561152b573d6000803e3d6000fd5b505050506040513d61010081101561154257600080fd5b50805160208083015160408085015160608087015160e090970151958d52938c01929092528a015288019190915260c087015250939a9950505050505050505050565b600081848411156115d75760405162461bcd60e51b8152602060048201818152835160248401528351909283926044909101919085019080838360008315610b50578181015183820152602001610b38565b505050900390565b6000818361162e5760405162461bcd60e51b8152602060048201818152835160248401528351909283926044909101919085019080838360008315610b50578181015183820152602001610b38565b50600083858161163a57fe5b0495945050505050565b6040518060e0016040528060008152602001600081526020016000815260200160008152602001600081526020016000815260200160008152509056fe5661756c743a206c69717569646174696f6e20666565732065786365656420636f6c6c61746572616c536166654d6174683a206d756c7469706c69636174696f6e206f766572666c6f77a264697066735822122067c4432b74a175e0e339baf7ec497b602c823d88b8026bef04f861f9dbaa235064736f6c634300060c0033",
  "devdoc": {
    "kind": "dev",
    "methods": {},
    "version": 1
  },
  "userdoc": {
    "kind": "user",
    "methods": {},
    "version": 1
  },
  "storageLayout": {
    "storage": [
      {
        "astId": 3,
        "contract": "contracts/core/VaultUtils.sol:VaultUtils",
        "label": "gov",
        "offset": 0,
        "slot": "0",
        "type": "t_address"
      },
      {
        "astId": 12889,
        "contract": "contracts/core/VaultUtils.sol:VaultUtils",
        "label": "vault",
        "offset": 0,
        "slot": "1",
        "type": "t_contract(IVault)7577"
      }
    ],
    "types": {
      "t_address": {
        "encoding": "inplace",
        "label": "address",
        "numberOfBytes": "20"
      },
      "t_contract(IVault)7577": {
        "encoding": "inplace",
        "label": "contract IVault",
        "numberOfBytes": "20"
      }
    }
  }
}