{
  "address": "0x265c11E72A5b05F802a083394730C51111239E7B",
  "abi": [
    {
      "inputs": [
        {
          "internalType": "address",
          "name": "_zusd",
          "type": "address"
        }
      ],
      "stateMutability": "nonpayable",
      "type": "constructor"
    },
    {
      "anonymous": false,
      "inputs": [
        {
          "indexed": true,
          "internalType": "address",
          "name": "account",
          "type": "address"
        },
        {
          "indexed": true,
          "internalType": "address",
          "name": "_tokenIn",
          "type": "address"
        },
        {
          "indexed": false,
          "internalType": "uint256",
          "name": "_amountIn",
          "type": "uint256"
        },
        {
          "indexed": false,
          "internalType": "uint256",
          "name": "_usdAmount",
          "type": "uint256"
        }
      ],
      "name": "Exchange",
      "type": "event"
    },
    {
      "anonymous": false,
      "inputs": [
        {
          "indexed": true,
          "internalType": "address",
          "name": "previousOwner",
          "type": "address"
        },
        {
          "indexed": true,
          "internalType": "address",
          "name": "newOwner",
          "type": "address"
        }
      ],
      "name": "OwnershipTransferred",
      "type": "event"
    },
    {
      "anonymous": false,
      "inputs": [
        {
          "indexed": false,
          "internalType": "address",
          "name": "account",
          "type": "address"
        }
      ],
      "name": "Paused",
      "type": "event"
    },
    {
      "anonymous": false,
      "inputs": [
        {
          "indexed": true,
          "internalType": "address",
          "name": "account",
          "type": "address"
        },
        {
          "indexed": true,
          "internalType": "address",
          "name": "_tokenOut",
          "type": "address"
        },
        {
          "indexed": false,
          "internalType": "uint256",
          "name": "_amountOut",
          "type": "uint256"
        },
        {
          "indexed": false,
          "internalType": "uint256",
          "name": "_usdAmount",
          "type": "uint256"
        }
      ],
      "name": "Redeem",
      "type": "event"
    },
    {
      "anonymous": false,
      "inputs": [
        {
          "indexed": false,
          "internalType": "address",
          "name": "account",
          "type": "address"
        }
      ],
      "name": "Unpaused",
      "type": "event"
    },
    {
      "inputs": [],
      "name": "cap",
      "outputs": [
        {
          "internalType": "uint256",
          "name": "",
          "type": "uint256"
        }
      ],
      "stateMutability": "view",
      "type": "function"
    },
    {
      "inputs": [
        {
          "internalType": "address",
          "name": "_tokenIn",
          "type": "address"
        },
        {
          "internalType": "uint256",
          "name": "_amountIn",
          "type": "uint256"
        }
      ],
      "name": "exchange",
      "outputs": [],
      "stateMutability": "payable",
      "type": "function"
    },
    {
      "inputs": [],
      "name": "exchangeAmount",
      "outputs": [
        {
          "internalType": "uint256",
          "name": "",
          "type": "uint256"
        }
      ],
      "stateMutability": "view",
      "type": "function"
    },
    {
      "inputs": [],
      "name": "owner",
      "outputs": [
        {
          "internalType": "address",
          "name": "",
          "type": "address"
        }
      ],
      "stateMutability": "view",
      "type": "function"
    },
    {
      "inputs": [],
      "name": "paused",
      "outputs": [
        {
          "internalType": "bool",
          "name": "",
          "type": "bool"
        }
      ],
      "stateMutability": "view",
      "type": "function"
    },
    {
      "inputs": [
        {
          "internalType": "address",
          "name": "_tokenOut",
          "type": "address"
        },
        {
          "internalType": "uint256",
          "name": "_amount",
          "type": "uint256"
        }
      ],
      "name": "redeem",
      "outputs": [],
      "stateMutability": "payable",
      "type": "function"
    },
    {
      "inputs": [],
      "name": "renounceOwnership",
      "outputs": [],
      "stateMutability": "nonpayable",
      "type": "function"
    },
    {
      "inputs": [
        {
          "internalType": "uint256",
          "name": "_cap",
          "type": "uint256"
        }
      ],
      "name": "setCap",
      "outputs": [],
      "stateMutability": "nonpayable",
      "type": "function"
    },
    {
      "inputs": [
        {
          "internalType": "address",
          "name": "_token",
          "type": "address"
        },
        {
          "internalType": "bool",
          "name": "_enabled",
          "type": "bool"
        }
      ],
      "name": "setWhitelistToken",
      "outputs": [],
      "stateMutability": "nonpayable",
      "type": "function"
    },
    {
      "inputs": [
        {
          "internalType": "address",
          "name": "newOwner",
          "type": "address"
        }
      ],
      "name": "transferOwnership",
      "outputs": [],
      "stateMutability": "nonpayable",
      "type": "function"
    },
    {
      "inputs": [
        {
          "internalType": "address",
          "name": "",
          "type": "address"
        }
      ],
      "name": "whitelistTokens",
      "outputs": [
        {
          "internalType": "bool",
          "name": "",
          "type": "bool"
        }
      ],
      "stateMutability": "view",
      "type": "function"
    },
    {
      "inputs": [
        {
          "internalType": "address",
          "name": "_token",
          "type": "address"
        },
        {
          "internalType": "address",
          "name": "_receiver",
          "type": "address"
        },
        {
          "internalType": "uint256",
          "name": "_amount",
          "type": "uint256"
        }
      ],
      "name": "withdraw",
      "outputs": [],
      "stateMutability": "nonpayable",
      "type": "function"
    },
    {
      "inputs": [],
      "name": "zusd",
      "outputs": [
        {
          "internalType": "contract IZUSD",
          "name": "",
          "type": "address"
        }
      ],
      "stateMutability": "view",
      "type": "function"
    }
  ],
  "transactionHash": "0x90dcd6aa3f5debc1e89486a3f2967fbfdb668acc0e036fcfeb275d91d71f0cb8",
  "args": [
    "0xFcD71f744f86966624d908EB5ac8498B118B88F1"
  ],
  "numDeployments": 1,
  "solcInputHash": "2e2174bed1b18cebd3217d0aeec07aa3",
  "bytecode": "0x608060405234801561001057600080fd5b506040516110a23803806110a283398101604081905261002f916100c6565b60016000819055805460ff191690556100473361006c565b600280546001600160a01b0319166001600160a01b03929092169190911790556100f6565b600180546001600160a01b03838116610100818102610100600160a81b031985161790945560405193909204169182907f8be0079c531659141344cd1fd0a4f28419497f9722a3daafe3b4186f6b6457e090600090a35050565b6000602082840312156100d857600080fd5b81516001600160a01b03811681146100ef57600080fd5b9392505050565b610f9d806101056000396000f3fe6080604052600436106100b25760003560e01c80635fb2386e1161006f5780635fb2386e14610184578063715018a6146101b45780637c374f99146101c95780638da5cb5b146101e9578063d9caed121461020c578063f247f02d1461022c578063f2fde38b1461024257600080fd5b8063045d0389146100b75780631e9a6950146100cc57806332a010d8146100df578063355274ea1461011c57806347786d37146101405780635c975abb14610160575b600080fd5b6100ca6100c5366004610c05565b610262565b005b6100ca6100da366004610c05565b61045a565b3480156100eb57600080fd5b506002546100ff906001600160a01b031681565b6040516001600160a01b0390911681526020015b60405180910390f35b34801561012857600080fd5b5061013260055481565b604051908152602001610113565b34801561014c57600080fd5b506100ca61015b366004610c2f565b61056d565b34801561016c57600080fd5b5060015460ff165b6040519015158152602001610113565b34801561019057600080fd5b5061017461019f366004610c48565b60036020526000908152604090205460ff1681565b3480156101c057600080fd5b506100ca61057a565b3480156101d557600080fd5b506100ca6101e4366004610c78565b61058e565b3480156101f557600080fd5b5060015461010090046001600160a01b03166100ff565b34801561021857600080fd5b506100ca610227366004610caf565b6105c1565b34801561023857600080fd5b5061013260045481565b34801561024e57600080fd5b506100ca61025d366004610c48565b6105e2565b61026a61065b565b6102726106b4565b6000811161029b5760405162461bcd60e51b815260040161029290610ceb565b60405180910390fd5b6001600160a01b03821660009081526003602052604090205460ff1661030d5760405162461bcd60e51b815260206004820152602160248201527f45786368616e6765723a20746f6b656e206e6f7420696e2077686974656c69736044820152601d60fa1b6064820152608401610292565b6103226001600160a01b0383163330846106fa565b600061032e838361076b565b9050600554816004546103419190610d4c565b11156103895760405162461bcd60e51b8152602060048201526017602482015276115e18da185b99d95c8e8818d85c08195e18d959591959604a1b6044820152606401610292565b806004600082825461039b9190610d4c565b90915550506002546040516340c10f1960e01b81526001600160a01b03909116906340c10f19906103d29033908590600401610d5f565b600060405180830381600087803b1580156103ec57600080fd5b505af1158015610400573d6000803e3d6000fd5b505060408051858152602081018590526001600160a01b03871693503392507f405426d39d8e779e767431271111e0c0410a44f0775f32656a11194427cfbeeb91015b60405180910390a3506104566001600055565b5050565b61046261065b565b600081116104825760405162461bcd60e51b815260040161029290610ceb565b600254604051632770a7eb60e21b81526001600160a01b0390911690639dc29fac906104b49033908590600401610d5f565b600060405180830381600087803b1580156104ce57600080fd5b505af11580156104e2573d6000803e3d6000fd5b5050505060006104f28383610810565b9050816004541015610505576000610513565b816004546105139190610d78565b60045561052a6001600160a01b03841633836108ab565b60408051828152602081018490526001600160a01b0385169133917f3f693fff038bb8a046aa76d9516190ac7444f7d69cf952c4cbdc086fdef2d6fc9101610443565b6105756108ca565b600555565b6105826108ca565b61058c600061092a565b565b6105966108ca565b6001600160a01b03919091166000908152600360205260409020805460ff1916911515919091179055565b6105c96108ca565b6105dd6001600160a01b03841683836108ab565b505050565b6105ea6108ca565b6001600160a01b03811661064f5760405162461bcd60e51b815260206004820152602660248201527f4f776e61626c653a206e6577206f776e657220697320746865207a65726f206160448201526564647265737360d01b6064820152608401610292565b6106588161092a565b50565b6002600054036106ad5760405162461bcd60e51b815260206004820152601f60248201527f5265656e7472616e637947756172643a207265656e7472616e742063616c6c006044820152606401610292565b6002600055565b60015460ff161561058c5760405162461bcd60e51b815260206004820152601060248201526f14185d5cd8589b194e881c185d5cd95960821b6044820152606401610292565b6040516001600160a01b03808516602483015283166044820152606481018290526107659085906323b872dd60e01b906084015b60408051601f198184030181529190526020810180516001600160e01b03166001600160e01b031990931692909217909152610984565b50505050565b600080836001600160a01b031663313ce5676040518163ffffffff1660e01b8152600401602060405180830381865afa1580156107ac573d6000803e3d6000fd5b505050506040513d601f19601f820116820180604052508101906107d09190610d8b565b60ff169050806012036107e6578291505061080a565b6107f1816012610d78565b6107fc90600a610e92565b6108069084610e9e565b9150505b92915050565b600080836001600160a01b031663313ce5676040518163ffffffff1660e01b8152600401602060405180830381865afa158015610851573d6000803e3d6000fd5b505050506040513d601f19601f820116820180604052508101906108759190610d8b565b60ff1690508060120361088b578291505061080a565b610896816012610d78565b6108a190600a610e92565b6108069084610eb5565b6105dd8363a9059cbb60e01b848460405160240161072e929190610d5f565b6001546001600160a01b0361010090910416331461058c5760405162461bcd60e51b815260206004820181905260248201527f4f776e61626c653a2063616c6c6572206973206e6f7420746865206f776e65726044820152606401610292565b600180546001600160a01b03838116610100818102610100600160a81b031985161790945560405193909204169182907f8be0079c531659141344cd1fd0a4f28419497f9722a3daafe3b4186f6b6457e090600090a35050565b60006109d9826040518060400160405280602081526020017f5361666545524332303a206c6f772d6c6576656c2063616c6c206661696c6564815250856001600160a01b0316610a599092919063ffffffff16565b90508051600014806109fa5750808060200190518101906109fa9190610ed7565b6105dd5760405162461bcd60e51b815260206004820152602a60248201527f5361666545524332303a204552433230206f7065726174696f6e20646964206e6044820152691bdd081cdd58d8d9595960b21b6064820152608401610292565b6060610a688484600085610a70565b949350505050565b606082471015610ad15760405162461bcd60e51b815260206004820152602660248201527f416464726573733a20696e73756666696369656e742062616c616e636520666f6044820152651c8818d85b1b60d21b6064820152608401610292565b600080866001600160a01b03168587604051610aed9190610f18565b60006040518083038185875af1925050503d8060008114610b2a576040519150601f19603f3d011682016040523d82523d6000602084013e610b2f565b606091505b5091509150610b4087838387610b4b565b979650505050505050565b60608315610bba578251600003610bb3576001600160a01b0385163b610bb35760405162461bcd60e51b815260206004820152601d60248201527f416464726573733a2063616c6c20746f206e6f6e2d636f6e74726163740000006044820152606401610292565b5081610a68565b610a688383815115610bcf5781518083602001fd5b8060405162461bcd60e51b81526004016102929190610f34565b80356001600160a01b0381168114610c0057600080fd5b919050565b60008060408385031215610c1857600080fd5b610c2183610be9565b946020939093013593505050565b600060208284031215610c4157600080fd5b5035919050565b600060208284031215610c5a57600080fd5b610c6382610be9565b9392505050565b801515811461065857600080fd5b60008060408385031215610c8b57600080fd5b610c9483610be9565b91506020830135610ca481610c6a565b809150509250929050565b600080600060608486031215610cc457600080fd5b610ccd84610be9565b9250610cdb60208501610be9565b9150604084013590509250925092565b6020808252602b908201527f45786368616e6765723a20616d6f756e74206d7573742062652067726561746560408201526a72207468616e207a65726f60a81b606082015260800190565b634e487b7160e01b600052601160045260246000fd5b8082018082111561080a5761080a610d36565b6001600160a01b03929092168252602082015260400190565b8181038181111561080a5761080a610d36565b600060208284031215610d9d57600080fd5b815160ff81168114610c6357600080fd5b600181815b80851115610de9578160001904821115610dcf57610dcf610d36565b80851615610ddc57918102915b93841c9390800290610db3565b509250929050565b600082610e005750600161080a565b81610e0d5750600061080a565b8160018114610e235760028114610e2d57610e49565b600191505061080a565b60ff841115610e3e57610e3e610d36565b50506001821b61080a565b5060208310610133831016604e8410600b8410161715610e6c575081810a61080a565b610e768383610dae565b8060001904821115610e8a57610e8a610d36565b029392505050565b6000610c638383610df1565b808202811582820484141761080a5761080a610d36565b600082610ed257634e487b7160e01b600052601260045260246000fd5b500490565b600060208284031215610ee957600080fd5b8151610c6381610c6a565b60005b83811015610f0f578181015183820152602001610ef7565b50506000910152565b60008251610f2a818460208701610ef4565b9190910192915050565b6020815260008251806020840152610f53816040850160208701610ef4565b601f01601f1916919091016040019291505056fea2646970667358221220a0ef0df632d0aa557d2cb3a04e4e4363e34139bad03290daafbd340e3c7e8d4164736f6c63430008110033",
  "devdoc": {
    "kind": "dev",
    "methods": {
      "owner()": {
        "details": "Returns the address of the current owner."
      },
      "paused()": {
        "details": "Returns true if the contract is paused, and false otherwise."
      },
      "renounceOwnership()": {
        "details": "Leaves the contract without owner. It will not be possible to call `onlyOwner` functions. Can only be called by the current owner. NOTE: Renouncing ownership will leave the contract without an owner, thereby disabling any functionality that is only available to the owner."
      },
      "transferOwnership(address)": {
        "details": "Transfers ownership of the contract to a new account (`newOwner`). Can only be called by the current owner."
      }
    },
    "version": 1
  },
  "userdoc": {
    "kind": "user",
    "methods": {},
    "version": 1
  },
  "storageLayout": {
    "storage": [
      {
        "astId": 4820,
        "contract": "contracts/exchange/Exchanger.sol:Exchanger",
        "label": "_status",
        "offset": 0,
        "slot": "0",
        "type": "t_uint256"
      },
      {
        "astId": 4719,
        "contract": "contracts/exchange/Exchanger.sol:Exchanger",
        "label": "_paused",
        "offset": 0,
        "slot": "1",
        "type": "t_bool"
      },
      {
        "astId": 4596,
        "contract": "contracts/exchange/Exchanger.sol:Exchanger",
        "label": "_owner",
        "offset": 1,
        "slot": "1",
        "type": "t_address"
      },
      {
        "astId": 11379,
        "contract": "contracts/exchange/Exchanger.sol:Exchanger",
        "label": "zusd",
        "offset": 0,
        "slot": "2",
        "type": "t_contract(IZUSD)11771"
      },
      {
        "astId": 11383,
        "contract": "contracts/exchange/Exchanger.sol:Exchanger",
        "label": "whitelistTokens",
        "offset": 0,
        "slot": "3",
        "type": "t_mapping(t_address,t_bool)"
      },
      {
        "astId": 11385,
        "contract": "contracts/exchange/Exchanger.sol:Exchanger",
        "label": "exchangeAmount",
        "offset": 0,
        "slot": "4",
        "type": "t_uint256"
      },
      {
        "astId": 11387,
        "contract": "contracts/exchange/Exchanger.sol:Exchanger",
        "label": "cap",
        "offset": 0,
        "slot": "5",
        "type": "t_uint256"
      }
    ],
    "types": {
      "t_address": {
        "encoding": "inplace",
        "label": "address",
        "numberOfBytes": "20"
      },
      "t_bool": {
        "encoding": "inplace",
        "label": "bool",
        "numberOfBytes": "1"
      },
      "t_contract(IZUSD)11771": {
        "encoding": "inplace",
        "label": "contract IZUSD",
        "numberOfBytes": "20"
      },
      "t_mapping(t_address,t_bool)": {
        "encoding": "mapping",
        "key": "t_address",
        "label": "mapping(address => bool)",
        "numberOfBytes": "32",
        "value": "t_bool"
      },
      "t_uint256": {
        "encoding": "inplace",
        "label": "uint256",
        "numberOfBytes": "32"
      }
    }
  }
}