{
  "address": "0x89170BB2d74b30c3D240773764c07378Ab6F3EA0",
  "abi": [
    {
      "inputs": [
        {
          "internalType": "address",
          "name": "_vault",
          "type": "address"
        },
        {
          "internalType": "address",
          "name": "_router",
          "type": "address"
        },
        {
          "internalType": "address",
          "name": "_shortsTracker",
          "type": "address"
        },
        {
          "internalType": "address",
          "name": "_weth",
          "type": "address"
        },
        {
          "internalType": "uint256",
          "name": "_depositFee",
          "type": "uint256"
        },
        {
          "internalType": "address",
          "name": "_orderBook",
          "type": "address"
        }
      ],
      "stateMutability": "nonpayable",
      "type": "constructor"
    },
    {
      "inputs": [],
      "name": "BASIS_POINTS_DIVISOR",
      "outputs": [
        {
          "internalType": "uint256",
          "name": "",
          "type": "uint256"
        }
      ],
      "stateMutability": "view",
      "type": "function"
    },
    {
      "inputs": [],
      "name": "admin",
      "outputs": [
        {
          "internalType": "address",
          "name": "",
          "type": "address"
        }
      ],
      "stateMutability": "view",
      "type": "function"
    },
    {
      "inputs": [
        {
          "internalType": "address",
          "name": "_token",
          "type": "address"
        },
        {
          "internalType": "address",
          "name": "_spender",
          "type": "address"
        },
        {
          "internalType": "uint256",
          "name": "_amount",
          "type": "uint256"
        }
      ],
      "name": "approve",
      "outputs": [],
      "stateMutability": "nonpayable",
      "type": "function"
    },
    {
      "inputs": [
        {
          "internalType": "address[]",
          "name": "_path",
          "type": "address[]"
        },
        {
          "internalType": "address",
          "name": "_indexToken",
          "type": "address"
        },
        {
          "internalType": "uint256",
          "name": "_collateralDelta",
          "type": "uint256"
        },
        {
          "internalType": "uint256",
          "name": "_sizeDelta",
          "type": "uint256"
        },
        {
          "internalType": "bool",
          "name": "_isLong",
          "type": "bool"
        },
        {
          "internalType": "address",
          "name": "_receiver",
          "type": "address"
        },
        {
          "internalType": "uint256",
          "name": "_price",
          "type": "uint256"
        },
        {
          "internalType": "uint256",
          "name": "_minOut",
          "type": "uint256"
        },
        {
          "internalType": "bool",
          "name": "_withdrawETH",
          "type": "bool"
        },
        {
          "internalType": "bytes[]",
          "name": "_updateData",
          "type": "bytes[]"
        }
      ],
      "name": "decreasePosition",
      "outputs": [],
      "stateMutability": "payable",
      "type": "function"
    },
    {
      "inputs": [],
      "name": "depositFee",
      "outputs": [
        {
          "internalType": "uint256",
          "name": "",
          "type": "uint256"
        }
      ],
      "stateMutability": "view",
      "type": "function"
    },
    {
      "inputs": [
        {
          "internalType": "address",
          "name": "_account",
          "type": "address"
        },
        {
          "internalType": "uint256",
          "name": "_orderIndex",
          "type": "uint256"
        },
        {
          "internalType": "address payable",
          "name": "_feeReceiver",
          "type": "address"
        },
        {
          "internalType": "bytes[]",
          "name": "_updateData",
          "type": "bytes[]"
        }
      ],
      "name": "executeDecreaseOrder",
      "outputs": [],
      "stateMutability": "payable",
      "type": "function"
    },
    {
      "inputs": [
        {
          "internalType": "address",
          "name": "_account",
          "type": "address"
        },
        {
          "internalType": "uint256",
          "name": "_orderIndex",
          "type": "uint256"
        },
        {
          "internalType": "address payable",
          "name": "_feeReceiver",
          "type": "address"
        },
        {
          "internalType": "bytes[]",
          "name": "_updateData",
          "type": "bytes[]"
        }
      ],
      "name": "executeIncreaseOrder",
      "outputs": [],
      "stateMutability": "payable",
      "type": "function"
    },
    {
      "inputs": [
        {
          "internalType": "address",
          "name": "",
          "type": "address"
        }
      ],
      "name": "feeReserves",
      "outputs": [
        {
          "internalType": "uint256",
          "name": "",
          "type": "uint256"
        }
      ],
      "stateMutability": "view",
      "type": "function"
    },
    {
      "inputs": [],
      "name": "gov",
      "outputs": [
        {
          "internalType": "address",
          "name": "",
          "type": "address"
        }
      ],
      "stateMutability": "view",
      "type": "function"
    },
    {
      "inputs": [
        {
          "internalType": "address[]",
          "name": "_path",
          "type": "address[]"
        },
        {
          "internalType": "address",
          "name": "_indexToken",
          "type": "address"
        },
        {
          "internalType": "uint256",
          "name": "_amountIn",
          "type": "uint256"
        },
        {
          "internalType": "uint256",
          "name": "_minOut",
          "type": "uint256"
        },
        {
          "internalType": "uint256",
          "name": "_sizeDelta",
          "type": "uint256"
        },
        {
          "internalType": "bool",
          "name": "_isLong",
          "type": "bool"
        },
        {
          "internalType": "uint256",
          "name": "_price",
          "type": "uint256"
        },
        {
          "internalType": "bytes[]",
          "name": "_updateData",
          "type": "bytes[]"
        }
      ],
      "name": "increasePosition",
      "outputs": [],
      "stateMutability": "payable",
      "type": "function"
    },
    {
      "inputs": [],
      "name": "increasePositionBufferBps",
      "outputs": [
        {
          "internalType": "uint256",
          "name": "",
          "type": "uint256"
        }
      ],
      "stateMutability": "view",
      "type": "function"
    },
    {
      "inputs": [
        {
          "internalType": "address",
          "name": "",
          "type": "address"
        }
      ],
      "name": "isLiquidator",
      "outputs": [
        {
          "internalType": "bool",
          "name": "",
          "type": "bool"
        }
      ],
      "stateMutability": "view",
      "type": "function"
    },
    {
      "inputs": [
        {
          "internalType": "address",
          "name": "",
          "type": "address"
        }
      ],
      "name": "isOrderKeeper",
      "outputs": [
        {
          "internalType": "bool",
          "name": "",
          "type": "bool"
        }
      ],
      "stateMutability": "view",
      "type": "function"
    },
    {
      "inputs": [
        {
          "internalType": "address",
          "name": "",
          "type": "address"
        }
      ],
      "name": "isPartner",
      "outputs": [
        {
          "internalType": "bool",
          "name": "",
          "type": "bool"
        }
      ],
      "stateMutability": "view",
      "type": "function"
    },
    {
      "inputs": [
        {
          "internalType": "address",
          "name": "_account",
          "type": "address"
        },
        {
          "internalType": "address",
          "name": "_collateralToken",
          "type": "address"
        },
        {
          "internalType": "address",
          "name": "_indexToken",
          "type": "address"
        },
        {
          "internalType": "bool",
          "name": "_isLong",
          "type": "bool"
        },
        {
          "internalType": "address payable",
          "name": "_feeReceiver",
          "type": "address"
        },
        {
          "internalType": "bytes[]",
          "name": "_updateData",
          "type": "bytes[]"
        }
      ],
      "name": "liquidatePosition",
      "outputs": [],
      "stateMutability": "payable",
      "type": "function"
    },
    {
      "inputs": [
        {
          "internalType": "bytes32",
          "name": "",
          "type": "bytes32"
        }
      ],
      "name": "liquidationFees",
      "outputs": [
        {
          "internalType": "uint256",
          "name": "",
          "type": "uint256"
        }
      ],
      "stateMutability": "view",
      "type": "function"
    },
    {
      "inputs": [
        {
          "internalType": "address",
          "name": "",
          "type": "address"
        }
      ],
      "name": "maxGlobalLongSizes",
      "outputs": [
        {
          "internalType": "uint256",
          "name": "",
          "type": "uint256"
        }
      ],
      "stateMutability": "view",
      "type": "function"
    },
    {
      "inputs": [
        {
          "internalType": "address",
          "name": "",
          "type": "address"
        }
      ],
      "name": "maxGlobalShortSizes",
      "outputs": [
        {
          "internalType": "uint256",
          "name": "",
          "type": "uint256"
        }
      ],
      "stateMutability": "view",
      "type": "function"
    },
    {
      "inputs": [],
      "name": "minLiquidationFee",
      "outputs": [
        {
          "internalType": "uint256",
          "name": "",
          "type": "uint256"
        }
      ],
      "stateMutability": "view",
      "type": "function"
    },
    {
      "inputs": [],
      "name": "opened",
      "outputs": [
        {
          "internalType": "bool",
          "name": "",
          "type": "bool"
        }
      ],
      "stateMutability": "view",
      "type": "function"
    },
    {
      "inputs": [],
      "name": "orderBook",
      "outputs": [
        {
          "internalType": "address",
          "name": "",
          "type": "address"
        }
      ],
      "stateMutability": "view",
      "type": "function"
    },
    {
      "inputs": [],
      "name": "router",
      "outputs": [
        {
          "internalType": "address",
          "name": "",
          "type": "address"
        }
      ],
      "stateMutability": "view",
      "type": "function"
    },
    {
      "inputs": [
        {
          "internalType": "address payable",
          "name": "_receiver",
          "type": "address"
        },
        {
          "internalType": "uint256",
          "name": "_amount",
          "type": "uint256"
        }
      ],
      "name": "sendValue",
      "outputs": [],
      "stateMutability": "nonpayable",
      "type": "function"
    },
    {
      "inputs": [
        {
          "internalType": "address",
          "name": "_admin",
          "type": "address"
        }
      ],
      "name": "setAdmin",
      "outputs": [],
      "stateMutability": "nonpayable",
      "type": "function"
    },
    {
      "inputs": [
        {
          "internalType": "uint256",
          "name": "_depositFee",
          "type": "uint256"
        }
      ],
      "name": "setDepositFee",
      "outputs": [],
      "stateMutability": "nonpayable",
      "type": "function"
    },
    {
      "inputs": [
        {
          "internalType": "address",
          "name": "_gov",
          "type": "address"
        }
      ],
      "name": "setGov",
      "outputs": [],
      "stateMutability": "nonpayable",
      "type": "function"
    },
    {
      "inputs": [
        {
          "internalType": "uint256",
          "name": "_increasePositionBufferBps",
          "type": "uint256"
        }
      ],
      "name": "setIncreasePositionBufferBps",
      "outputs": [],
      "stateMutability": "nonpayable",
      "type": "function"
    },
    {
      "inputs": [
        {
          "internalType": "address",
          "name": "_account",
          "type": "address"
        },
        {
          "internalType": "bool",
          "name": "_isActive",
          "type": "bool"
        }
      ],
      "name": "setLiquidator",
      "outputs": [],
      "stateMutability": "nonpayable",
      "type": "function"
    },
    {
      "inputs": [
        {
          "internalType": "address[]",
          "name": "_tokens",
          "type": "address[]"
        },
        {
          "internalType": "uint256[]",
          "name": "_longSizes",
          "type": "uint256[]"
        },
        {
          "internalType": "uint256[]",
          "name": "_shortSizes",
          "type": "uint256[]"
        }
      ],
      "name": "setMaxGlobalSizes",
      "outputs": [],
      "stateMutability": "nonpayable",
      "type": "function"
    },
    {
      "inputs": [
        {
          "internalType": "uint256",
          "name": "_minLiquidateFee",
          "type": "uint256"
        }
      ],
      "name": "setMinLiquidationFee",
      "outputs": [],
      "stateMutability": "nonpayable",
      "type": "function"
    },
    {
      "inputs": [
        {
          "internalType": "bool",
          "name": "_opened",
          "type": "bool"
        }
      ],
      "name": "setOpened",
      "outputs": [],
      "stateMutability": "nonpayable",
      "type": "function"
    },
    {
      "inputs": [
        {
          "internalType": "address",
          "name": "_orderBook",
          "type": "address"
        }
      ],
      "name": "setOrderBook",
      "outputs": [],
      "stateMutability": "nonpayable",
      "type": "function"
    },
    {
      "inputs": [
        {
          "internalType": "address",
          "name": "_account",
          "type": "address"
        },
        {
          "internalType": "bool",
          "name": "_isActive",
          "type": "bool"
        }
      ],
      "name": "setOrderKeeper",
      "outputs": [],
      "stateMutability": "nonpayable",
      "type": "function"
    },
    {
      "inputs": [
        {
          "internalType": "address",
          "name": "_account",
          "type": "address"
        },
        {
          "internalType": "bool",
          "name": "_isActive",
          "type": "bool"
        }
      ],
      "name": "setPartner",
      "outputs": [],
      "stateMutability": "nonpayable",
      "type": "function"
    },
    {
      "inputs": [
        {
          "internalType": "bool",
          "name": "_shouldValidateIncreaseOrder",
          "type": "bool"
        }
      ],
      "name": "setShouldValidateIncreaseOrder",
      "outputs": [],
      "stateMutability": "nonpayable",
      "type": "function"
    },
    {
      "inputs": [
        {
          "internalType": "address",
          "name": "_zusd",
          "type": "address"
        }
      ],
      "name": "setZusd",
      "outputs": [],
      "stateMutability": "nonpayable",
      "type": "function"
    },
    {
      "inputs": [],
      "name": "shortsTracker",
      "outputs": [
        {
          "internalType": "address",
          "name": "",
          "type": "address"
        }
      ],
      "stateMutability": "view",
      "type": "function"
    },
    {
      "inputs": [],
      "name": "shouldValidateIncreaseOrder",
      "outputs": [
        {
          "internalType": "bool",
          "name": "",
          "type": "bool"
        }
      ],
      "stateMutability": "view",
      "type": "function"
    },
    {
      "inputs": [],
      "name": "vault",
      "outputs": [
        {
          "internalType": "address",
          "name": "",
          "type": "address"
        }
      ],
      "stateMutability": "view",
      "type": "function"
    },
    {
      "inputs": [],
      "name": "weth",
      "outputs": [
        {
          "internalType": "address",
          "name": "",
          "type": "address"
        }
      ],
      "stateMutability": "view",
      "type": "function"
    },
    {
      "inputs": [
        {
          "internalType": "address",
          "name": "_token",
          "type": "address"
        },
        {
          "internalType": "address",
          "name": "_receiver",
          "type": "address"
        }
      ],
      "name": "withdrawFees",
      "outputs": [],
      "stateMutability": "nonpayable",
      "type": "function"
    },
    {
      "inputs": [],
      "name": "zusd",
      "outputs": [
        {
          "internalType": "address",
          "name": "",
          "type": "address"
        }
      ],
      "stateMutability": "view",
      "type": "function"
    },
    {
      "stateMutability": "payable",
      "type": "receive"
    }
  ],
  "transactionHash": "0x99b823ffb2eb727c1f84f95b9be305a7bd7700e5b5a0ec5a425dbf95b261b804",
  "args": [
    "0x2BE37E2478a4481DC4D8F81665aD17f4a09a8EF6",
    "0x2a70B1147A52a33C99613a0D85c85572218b67D3",
    "0x610cE67443F896B720d52D3705fcb28Fb82D3232",
    "0x0fb4F10e61BC37a1425ECe798127be7C5E07ab4f",
    50,
    "0x0000000000000000000000000000000000000000"
  ],
  "numDeployments": 1,
  "solcInputHash": "961be181bab2b100ef5d1333db420c31",
  "bytecode": "0x60806040526002805461ff001960ff199091166001171661010017905560646007553480156200002e57600080fd5b5060405162004ce138038062004ce1833981016040819052620000519162000116565b600080546001600160a01b03199081163390811790925560018055600980546001600160a01b03998a169083168117909155600b8054988a1698831698909817909755600c805495891695821695909517909455600692909255600a8054948716948416949094179093556008805483169091179055601380549091169092179091556002805491909216620100000262010000600160b01b031990911617905562000192565b80516001600160a01b03811681146200011057600080fd5b92915050565b60008060008060008060c087890312156200012f578182fd5b6200013b8888620000f8565b95506200014c8860208901620000f8565b94506200015d8860408901620000f8565b93506200016e8860608901620000f8565b925060808701519150620001868860a08901620000f8565b90509295509295509295565b614b3f80620001a26000396000f3fe6080604052600436106102545760003560e01c806360a6d82a11610139578063b0007cf0116100b6578063e85581731161007a578063e8558173146106a9578063ef12c67e146106c9578063f2555278146106e9578063f851a44014610709578063f887ea401461071e578063fbfa77cf14610733576102ac565b8063b0007cf014610630578063c0eefef414610643578063cfad57a214610656578063e1f21c6714610676578063e3b4626814610696576102ac565b80638c0f9aac116100fd5780638c0f9aac1461059b5780639698d25a146105bb57806398d1e03a146105db5780639a0a18bf146105f05780639a1598c814610610576102ac565b806360a6d82a14610527578063657bc5d01461053c57806367a5279314610551578063704b6c0214610566578063776af5ba14610586576102ac565b806324a084df116101d25780634453a374116101965780634453a3741461047d5780634584bd4b1461049d578063490ae210146104b2578063529a356f146104d257806358e707f8146104f25780635f88eade14610512576102ac565b806324a084df146103f35780632e931cea1461041357806332a010d8146104265780633833f5f51461043b5780633fc8cef314610468576102ac565b80631b904359116102195780631b904359146103535780631ce9cb8f146103735780631e2615381461039357806321acf659146103b3578063233bfe3b146103d3576102ac565b8062bd0b63146102b157806305737a24146102d35780631045c74e146102e6578063126082cf1461031c57806312d43a5114610331576102ac565b366102ac57600c54604080516060810190915260238082526001600160a01b03909216331491614ac26020830139906102a95760405162461bcd60e51b81526004016102a09190614529565b60405180910390fd5b50005b600080fd5b3480156102bd57600080fd5b506102d16102cc366004613b7c565b610748565b005b6102d16102e1366004613d22565b610794565b3480156102f257600080fd5b50610306610301366004613b7c565b610bcb565b604051610313919061489d565b60405180910390f35b34801561032857600080fd5b50610306610bdd565b34801561033d57600080fd5b50610346610be3565b6040516103139190614232565b34801561035f57600080fd5b506102d161036e3660046140c9565b610bf2565b34801561037f57600080fd5b5061030661038e366004613b7c565b610c6a565b34801561039f57600080fd5b506102d16103ae366004613cf5565b610c7c565b3480156103bf57600080fd5b506102d16103ce366004613cf5565b610d06565b3480156103df57600080fd5b506102d16103ee36600461412e565b610d92565b3480156103ff57600080fd5b506102d161040e366004613bb4565b610df1565b6102d1610421366004613eb4565b610e32565b34801561043257600080fd5b50610346610fc5565b34801561044757600080fd5b5061045b610456366004613b7c565b610fd4565b604051610313919061451e565b34801561047457600080fd5b50610346610fe9565b34801561048957600080fd5b506102d1610498366004613cf5565b610ff8565b3480156104a957600080fd5b5061045b611076565b3480156104be57600080fd5b506102d16104cd36600461412e565b611084565b3480156104de57600080fd5b5061045b6104ed366004613b7c565b6110e3565b3480156104fe57600080fd5b506102d161050d36600461412e565b6110f8565b34801561051e57600080fd5b5061045b611127565b34801561053357600080fd5b50610306611130565b34801561054857600080fd5b50610346611136565b34801561055d57600080fd5b50610306611145565b34801561057257600080fd5b506102d1610581366004613b7c565b61114b565b34801561059257600080fd5b506103466111c0565b3480156105a757600080fd5b5061045b6105b6366004613b7c565b6111d5565b3480156105c757600080fd5b506103066105d6366004613b7c565b6111ea565b3480156105e757600080fd5b506103066111fc565b3480156105fc57600080fd5b506102d161060b3660046140c9565b611202565b34801561061c57600080fd5b506102d161062b366004613b7c565b61126a565b6102d161063e366004613d22565b6112be565b6102d1610651366004613c17565b61164c565b34801561066257600080fd5b506102d1610671366004613b7c565b611b9a565b34801561068257600080fd5b506102d1610691366004613cb5565b611be6565b6102d16106a4366004613f8d565b611c96565b3480156106b557600080fd5b506103066106c436600461412e565b611fad565b3480156106d557600080fd5b506102d16106e4366004614046565b611fbf565b3480156106f557600080fd5b506102d1610704366004613bdf565b6120c5565b34801561071557600080fd5b5061034661216a565b34801561072a57600080fd5b50610346612179565b34801561073f57600080fd5b50610346612188565b6008546001600160a01b031633146107725760405162461bcd60e51b81526004016102a0906147e5565b601280546001600160a01b0319166001600160a01b0392909216919091179055565b33600090815260036020908152604091829020548251808401909352601a8352600080516020614a798339815191529183019190915260ff166107ea5760405162461bcd60e51b81526004016102a09190614529565b506107f58282612197565b50610800858561230f565b600954604080516312d43a5160e01b815290516001600160a01b039092169160009183916312d43a5191600480820192602092909190829003018186803b15801561084a57600080fd5b505afa15801561085e573d6000803e3d6000fd5b505050506040513d601f19601f820116820180604052508101906108829190613b98565b60025460405163d3bab1d160e01b81529192506000918291829182916201000090046001600160a01b03169063d3bab1d1906108c4908e908e906004016143e2565b6101206040518083038186803b1580156108dd57600080fd5b505afa1580156108f1573d6000803e3d6000fd5b505050506040513d601f19601f820116820180604052508101906109159190613d92565b505050955095509550955050506000816109aa576040516340d3096b60e11b81526001600160a01b038816906381a612d690610955908790600401614232565b60206040518083038186803b15801561096d57600080fd5b505afa158015610981573d6000803e3d6000fd5b505050506040513d601f19601f820116820180604052508101906109a59190614146565b610a26565b604051637092736960e11b81526001600160a01b0388169063e124e6d2906109d6908790600401614232565b60206040518083038186803b1580156109ee57600080fd5b505afa158015610a02573d6000803e3d6000fd5b505050506040513d601f19601f82011682018060405250810190610a269190614146565b600a54604051633cc8e33b60e21b81529192506001600160a01b03169063f3238cec90610a64908f908990899088908a9089906001906004016142ef565b600060405180830381600087803b158015610a7e57600080fd5b505af1158015610a92573d6000803e3d6000fd5b50506040516306d63c1d60e41b81526001600160a01b0389169250636d63c1d09150610ac2908a90600401614232565b600060405180830381600087803b158015610adc57600080fd5b505af1158015610af0573d6000803e3d6000fd5b505060025460405163d38ab51960e01b8152620100009091046001600160a01b0316925063d38ab5199150610b2d908f908f908f906004016143fb565b600060405180830381600087803b158015610b4757600080fd5b505af1158015610b5b573d6000803e3d6000fd5b505060405163d3c87bbb60e01b81526001600160a01b038916925063d3c87bbb9150610b8b908a90600401614232565b600060405180830381600087803b158015610ba557600080fd5b505af1158015610bb9573d6000803e3d6000fd5b50505050505050505050505050505050565b600d6020526000908152604090205481565b61271081565b6000546001600160a01b031681565b6008546001600160a01b03163314610c1c5760405162461bcd60e51b81526004016102a0906147e5565b6002805461ff001916610100831515021790556040517fa956222e37fe025ff51e5440ac729a9bd417ff91e485e14dcffa2c0ba8894f4090610c5f90839061451e565b60405180910390a150565b600f6020526000908152604090205481565b6008546001600160a01b03163314610ca65760405162461bcd60e51b81526004016102a0906147e5565b6001600160a01b03821660008181526003602052604090819020805460ff1916841515179055517f1d5bc0255b943d6a5b5279e8a55d74d620baccbceecb25e87a3558f14c4c118e90610cfa90849061451e565b60405180910390a25050565b6008546001600160a01b03163314610d305760405162461bcd60e51b81526004016102a0906147e5565b6001600160a01b03821660009081526004602052604090819020805460ff1916831515179055517fa4e46c70ff429a91de7d1716d736e877c7cca1c22ac850b23d242530dd95e47490610d8690849084906143c7565b60405180910390a15050565b6008546001600160a01b03163314610dbc5760405162461bcd60e51b81526004016102a0906147e5565b60078190556040517f21167d0d4661af93817ebce920f18986eed3d75d5e1c03f2aed05efcbafbc45290610c5f90839061489d565b6000546001600160a01b03163314610e1b5760405162461bcd60e51b81526004016102a0906146db565b610e2e6001600160a01b038316826125b6565b5050565b60026001541415610e555760405162461bcd60e51b81526004016102a090614866565b60026001553360009081526004602052604090205460ff1680610e7a575060025460ff165b6040518060400160405280601a8152602001600080516020614a7983398151915281525090610ebc5760405162461bcd60e51b81526004016102a09190614529565b508a5160011480610ece57508a516002145b604051806060016040528060258152602001614ae56025913990610f055760405162461bcd60e51b81526004016102a09190614529565b508215610f245760405162461bcd60e51b81526004016102a09061470a565b6012548b516001600160a01b03909116908c906000198101908110610f4557fe5b60200260200101516001600160a01b031614610f735760405162461bcd60e51b81526004016102a09061455c565b610f7d8282612197565b506000610fa4338d600081518110610f9157fe5b60200260200101518d8d8d8d308d612657565b9050610fb3818d898888612a43565b50506001805550505050505050505050565b6012546001600160a01b031681565b60036020526000908152604090205460ff1681565b600c546001600160a01b031681565b6008546001600160a01b031633146110225760405162461bcd60e51b81526004016102a0906147e5565b6001600160a01b03821660008181526005602052604090819020805460ff1916841515179055517f8c0d56805c3b43d441481229dc64bee168253ffe4305f37ab7cfe63b1c4268c690610cfa90849061451e565b600254610100900460ff1681565b6008546001600160a01b031633146110ae5760405162461bcd60e51b81526004016102a0906147e5565b60068190556040517f974fd3c1fcb4653dfc4fb740c4c692cd212d55c28f163f310128cb64d830067590610c5f90839061489d565b60056020526000908152604090205460ff1681565b6008546001600160a01b031633146111225760405162461bcd60e51b81526004016102a0906147e5565b601055565b60025460ff1681565b60105481565b600a546001600160a01b031681565b60065481565b6000546001600160a01b031633146111755760405162461bcd60e51b81526004016102a0906146db565b600880546001600160a01b0319166001600160a01b0383161790556040517f5a272403b402d892977df56625f4164ccaf70ca3863991c43ecfe76a6905b0a190610c5f908390614232565b6002546201000090046001600160a01b031681565b60046020526000908152604090205460ff1681565b600e6020526000908152604090205481565b60075481565b6008546001600160a01b0316331461122c5760405162461bcd60e51b81526004016102a0906147e5565b6002805460ff19168215151790556040517fb396a770d36909ca07c2b7d7d408f43c9bb74425c5d17caf44336c4f09c4209490610c5f90839061451e565b6008546001600160a01b031633146112945760405162461bcd60e51b81526004016102a0906147e5565b600280546001600160a01b03909216620100000262010000600160b01b0319909216919091179055565b33600090815260036020908152604091829020548251808401909352601a8352600080516020614a798339815191529183019190915260ff166113145760405162461bcd60e51b81526004016102a09190614529565b5061131f8282612197565b50600954604080516312d43a5160e01b815290516001600160a01b039092169160009183916312d43a5191600480820192602092909190829003018186803b15801561136a57600080fd5b505afa15801561137e573d6000803e3d6000fd5b505050506040513d601f19601f820116820180604052508101906113a29190613b98565b600254604051630130197760e11b81529192506000918291829182916201000090046001600160a01b03169063026032ee906113e4908e908e906004016143e2565b6101006040518083038186803b1580156113fd57600080fd5b505afa158015611411573d6000803e3d6000fd5b505050506040513d601f19601f820116820180604052508101906114359190613e2d565b5050509450945094505093506000816114c957604051637092736960e11b81526001600160a01b0388169063e124e6d290611474908790600401614232565b60206040518083038186803b15801561148c57600080fd5b505afa1580156114a0573d6000803e3d6000fd5b505050506040513d601f19601f820116820180604052508101906114c49190614146565b611545565b6040516340d3096b60e11b81526001600160a01b038816906381a612d6906114f5908790600401614232565b60206040518083038186803b15801561150d57600080fd5b505afa158015611521573d6000803e3d6000fd5b505050506040513d601f19601f820116820180604052508101906115459190614146565b600a54604051633cc8e33b60e21b81529192506001600160a01b03169063f3238cec90611583908f908990899088908a9089906000906004016142ef565b600060405180830381600087803b15801561159d57600080fd5b505af11580156115b1573d6000803e3d6000fd5b50506040516306d63c1d60e41b81526001600160a01b0389169250636d63c1d091506115e1908a90600401614232565b600060405180830381600087803b1580156115fb57600080fd5b505af115801561160f573d6000803e3d6000fd5b50506002546040516308eca22560e11b8152620100009091046001600160a01b031692506311d9444a9150610b2d908f908f908f906004016143fb565b6002600154141561166f5760405162461bcd60e51b81526004016102a090614866565b60026001553360009081526005602052604090205460ff168061169a5750336001600160a01b038816145b6040518060400160405280601a8152602001600080516020614a79833981519152815250906116dc5760405162461bcd60e51b81526004016102a09190614529565b506116e78282612197565b50600954604080516312d43a5160e01b815290516001600160a01b039092169160009183916312d43a5191600480820192602092909190829003018186803b15801561173257600080fd5b505afa158015611746573d6000803e3d6000fd5b505050506040513d601f19601f8201168201806040525081019061176a9190613b98565b600954604051634a3f088d60e01b81529192506000916001600160a01b0390911690634a3f088d906117a6908d908d908d908d90600401614293565b6101006040518083038186803b1580156117bf57600080fd5b505afa1580156117d3573d6000803e3d6000fd5b505050506040513d601f19601f820116820180604052508101906117f7919061415e565b50505050505050905060008761188857604051637092736960e11b81526001600160a01b0385169063e124e6d290611833908c90600401614232565b60206040518083038186803b15801561184b57600080fd5b505afa15801561185f573d6000803e3d6000fd5b505050506040513d601f19601f820116820180604052508101906118839190614146565b611904565b6040516340d3096b60e11b81526001600160a01b038516906381a612d6906118b4908c90600401614232565b60206040518083038186803b1580156118cc57600080fd5b505afa1580156118e0573d6000803e3d6000fd5b505050506040513d601f19601f820116820180604052508101906119049190614146565b600a54604051633cc8e33b60e21b81529192506001600160a01b03169063f3238cec90611942908e908e908e908e90899089906000906004016142ef565b600060405180830381600087803b15801561195c57600080fd5b505af1158015611970573d6000803e3d6000fd5b50506040516306d63c1d60e41b81526001600160a01b0386169250636d63c1d091506119a0908790600401614232565b600060405180830381600087803b1580156119ba57600080fd5b505af11580156119ce573d6000803e3d6000fd5b5050604051631bc5d52960e31b8152600092506001600160a01b038716915063de2ea94890611a09908f908f908f908f908f906004016142bd565b602060405180830381600087803b158015611a2357600080fd5b505af1158015611a37573d6000803e3d6000fd5b505050506040513d601f19601f82011682018060405250810190611a5b9190614146565b6012549091506001600160a01b038c811691161415611a8d57611a886001600160a01b038c168d83612ab2565b611b2f565b600954611aa7906001600160a01b038d8116911683612ab2565b60408051600280825260608083018452926020830190803683370190505090508b81600081518110611ad557fe5b6001600160a01b039283166020918202929092010152601254825191169082906001908110611b0057fe5b60200260200101906001600160a01b031690816001600160a01b031681525050611b2c8160008f612b08565b50505b60405163d3c87bbb60e01b81526001600160a01b0385169063d3c87bbb90611b5b908890600401614232565b600060405180830381600087803b158015611b7557600080fd5b505af1158015611b89573d6000803e3d6000fd5b50505050610fb38c8c8c8c8c612b88565b6000546001600160a01b03163314611bc45760405162461bcd60e51b81526004016102a0906146db565b600080546001600160a01b0319166001600160a01b0392909216919091179055565b6000546001600160a01b03163314611c105760405162461bcd60e51b81526004016102a0906146db565b60405163095ea7b360e01b81526001600160a01b0384169063095ea7b390611c3e90859085906004016143e2565b602060405180830381600087803b158015611c5857600080fd5b505af1158015611c6c573d6000803e3d6000fd5b505050506040513d601f19601f82011682018060405250810190611c9091906140e5565b50505050565b60026001541415611cb95760405162461bcd60e51b81526004016102a090614866565b60026001553360009081526004602052604090205460ff1680611cde575060025460ff165b6040518060400160405280601a8152602001600080516020614a7983398151915281525090611d205760405162461bcd60e51b81526004016102a09190614529565b5060125489516001600160a01b03909116908a90600090611d3d57fe5b60200260200101516001600160a01b031614611d6b5760405162461bcd60e51b81526004016102a09061455c565b6000611d778383612197565b9050611d9d338b60018d510381518110611d8d57fe5b60200260200101518b8885612c5c565b895160011480611dae575089516002145b604051806060016040528060258152602001614ae56025913990611de55760405162461bcd60e51b81526004016102a09190614529565b508715611f7857895160011415611e7957600b548a516001600160a01b0390911690631b827878908c90600090611e1857fe5b602002602001015133308c6040518563ffffffff1660e01b8152600401611e429493929190614246565b600060405180830381600087803b158015611e5c57600080fd5b505af1158015611e70573d6000803e3d6000fd5b50505050611f1a565b600b548a516001600160a01b0390911690631b827878908c90600090611e9b57fe5b602002602001015133600960009054906101000a90046001600160a01b03168c6040518563ffffffff1660e01b8152600401611eda9493929190614246565b600060405180830381600087803b158015611ef457600080fd5b505af1158015611f08573d6000803e3d6000fd5b50505050611f178a8830612b08565b97505b6000611f2a338c8b8d8a8c612d63565b9050611f76600960009054906101000a90046001600160a01b0316828d60018f510381518110611f5657fe5b60200260200101516001600160a01b0316612ab29092919063ffffffff16565b505b611f9d338b60018d510381518110611f8c57fe5b60200260200101518b898989612e3c565b5050600180555050505050505050565b60116020526000908152604090205481565b6008546001600160a01b03163314611fe95760405162461bcd60e51b81526004016102a0906147e5565b60005b835181101561208457600084828151811061200357fe5b6020026020010151905083828151811061201957fe5b6020026020010151600d6000836001600160a01b03166001600160a01b031681526020019081526020016000208190555082828151811061205657fe5b6020908102919091018101516001600160a01b039092166000908152600e9091526040902055600101611fec565b507fae32d569b058895b9620d6552b09aaffedc9a6f396be4d595a224ad09f8b21398383836040516120b89392919061441e565b60405180910390a1505050565b6008546001600160a01b031633146120ef5760405162461bcd60e51b81526004016102a0906147e5565b6001600160a01b0382166000908152600f6020526040902054806121135750610e2e565b6001600160a01b0383166000818152600f6020526040812055612137908383612ab2565b7f4f1b51dd7a2fcb861aa2670f668be66835c4ee12b4bbbf037e4d0018f39819e48383836040516120b8939291906143a3565b6008546001600160a01b031681565b600b546001600160a01b031681565b6009546001600160a01b031681565b6000816121a657506000612309565b60135460408051633a0df78d60e11b815290516000926001600160a01b03169163741bef1a916004808301926020929190829003018186803b1580156121eb57600080fd5b505afa1580156121ff573d6000803e3d6000fd5b505050506040513d601f19601f820116820180604052508101906122239190613b98565b60405163d47eed4560e01b81529091506001600160a01b0382169063d47eed45906122549087908790600401614489565b60206040518083038186803b15801561226c57600080fd5b505afa158015612280573d6000803e3d6000fd5b505050506040513d601f19601f820116820180604052508101906122a49190614146565b9150806001600160a01b031663ef9e5e288386866040518463ffffffff1660e01b81526004016122d5929190614489565b6000604051808303818588803b1580156122ee57600080fd5b505af1158015612302573d6000803e3d6000fd5b5050505050505b92915050565b60008060008060008060028054906101000a90046001600160a01b03166001600160a01b031663d3bab1d189896040518363ffffffff1660e01b81526004016123599291906143e2565b6101206040518083038186803b15801561237257600080fd5b505afa158015612386573d6000803e3d6000fd5b505050506040513d601f19601f820116820180604052508101906123aa9190613d92565b5050509550955095509550955095506123c48382846131f1565b600254610100900460ff166123de57505050505050610e2e565b806123ee57505050505050610e2e565b6000821161240e5760405162461bcd60e51b81526004016102a090614593565b600954604051634a3f088d60e01b81526001600160a01b039091169060009081908390634a3f088d9061244b908e908b908b908a90600401614293565b6101006040518083038186803b15801561246457600080fd5b505afa158015612478573d6000803e3d6000fd5b505050506040513d601f19601f8201168201806040525081019061249c919061415e565b5050505050509150915081600014156124bd57505050505050505050610e2e565b60006124c98387613381565b90506000846001600160a01b0316630a48d5a98c8c6040518363ffffffff1660e01b81526004016124fb9291906143e2565b60206040518083038186803b15801561251357600080fd5b505afa158015612527573d6000803e3d6000fd5b505050506040513d601f19601f8201168201806040525081019061254b9190614146565b905060006125598483613381565b905060006125738561256d886127106133a6565b906133e0565b905060006125948361256d60075461271001886133a690919063ffffffff16565b905081811015610bb95760405162461bcd60e51b81526004016102a09061479e565b804710156125d65760405162461bcd60e51b81526004016102a09061465e565b6000826001600160a01b0316826040516125ef9061422f565b60006040518083038185875af1925050503d806000811461262c576040519150601f19603f3d011682016040523d82523d6000602084013e612631565b606091505b50509050806126525760405162461bcd60e51b81526004016102a090614601565b505050565b6009546000906001600160a01b031681856126ed57604051637092736960e11b81526001600160a01b0383169063e124e6d290612698908c90600401614232565b60206040518083038186803b1580156126b057600080fd5b505afa1580156126c4573d6000803e3d6000fd5b505050506040513d601f19601f820116820180604052508101906126e89190614146565b612769565b6040516340d3096b60e11b81526001600160a01b038316906381a612d690612719908c90600401614232565b60206040518083038186803b15801561273157600080fd5b505afa158015612745573d6000803e3d6000fd5b505050506040513d601f19601f820116820180604052508101906127699190614146565b905085156127b257838110156040518060600160405280603081526020016149b860309139906127ac5760405162461bcd60e51b81526004016102a09190614529565b506127ef565b83811115604051806060016040528060318152602001614a4860319139906127ed5760405162461bcd60e51b81526004016102a09190614529565b505b6000826001600160a01b03166312d43a516040518163ffffffff1660e01b815260040160206040518083038186803b15801561282a57600080fd5b505afa15801561283e573d6000803e3d6000fd5b505050506040513d601f19601f820116820180604052508101906128629190613b98565b600a54604051633cc8e33b60e21b81529192506001600160a01b03169063f3238cec906128a0908f908f908f908d908f908a906000906004016142ef565b600060405180830381600087803b1580156128ba57600080fd5b505af11580156128ce573d6000803e3d6000fd5b50506040516306d63c1d60e41b81526001600160a01b0384169250636d63c1d091506128fe908690600401614232565b600060405180830381600087803b15801561291857600080fd5b505af115801561292c573d6000803e3d6000fd5b505050506000600b60009054906101000a90046001600160a01b03166001600160a01b0316632662166b8e8e8e8e8e8e8e6040518863ffffffff1660e01b815260040161297f9796959493929190614364565b602060405180830381600087803b15801561299957600080fd5b505af11580156129ad573d6000803e3d6000fd5b505050506040513d601f19601f820116820180604052508101906129d19190614146565b60405163d3c87bbb60e01b81529091506001600160a01b0383169063d3c87bbb90612a00908790600401614232565b600060405180830381600087803b158015612a1a57600080fd5b505af1158015612a2e573d6000803e3d6000fd5b50929f9e505050505050505050505050505050565b8415612aab57600184511115612a81576009548451612a73916001600160a01b03169087908790600090611f5657fe5b612a7e848330612b08565b94505b8015612a9657612a918584613422565b612aab565b612aab838686600188510381518110611f5657fe5b5050505050565b6126528363a9059cbb60e01b8484604051602401612ad19291906143e2565b60408051601f198184030181529190526020810180516001600160e01b03166001600160e01b03199093169290921790915261351b565b6000835160021415612b4f57612b4884600081518110612b2457fe5b602002602001015185600181518110612b3957fe5b602002602001015185856135aa565b9050612b81565b604051806060016040528060298152602001614a996029913960405162461bcd60e51b81526004016102a09190614529565b9392505050565b60095460405163054451db60e21b815260009182916001600160a01b0390911690631511476c90612bc3908a908a908a908a90600401614293565b604080518083038186803b158015612bda57600080fd5b505afa158015612bee573d6000803e3d6000fd5b505050506040513d601f19601f82011682018060405250810190612c129190614101565b600081815260116020526040902054919350915082158015612c345750600081115b15612c5257600082815260116020526040812055612c528185613422565b5050505050505050565b601054612c6857612aab565b60095460405163054451db60e21b815260009182916001600160a01b0390911690631511476c90612ca3908a908a908a908a90600401614293565b604080518083038186803b158015612cba57600080fd5b505afa158015612cce573d6000803e3d6000fd5b505050506040513d601f19601f82011682018060405250810190612cf29190614101565b9150915081612d5a576000833403905060105481101560405180606001604052806021815260200161496c6021913990612d3f5760405162461bcd60e51b81526004016102a09190614529565b506000828152601160205260409020819055612c528161367c565b50505050505050565b600080612d748888888888886136e8565b90508015612e2d576000612da561271061256d612d9e6006546127106138b890919063ffffffff16565b8a906133a6565b90506000612db388836138b8565b905060008960018b510381518110612dc757fe5b60200260200101519050612e0982600f6000846001600160a01b03166001600160a01b031681526020019081526020016000205461338190919063ffffffff16565b6001600160a01b039091166000908152600f6020526040902055509150612e329050565b859150505b9695505050505050565b6009546001600160a01b0316600083612ed0576040516340d3096b60e11b81526001600160a01b038316906381a612d690612e7b908990600401614232565b60206040518083038186803b158015612e9357600080fd5b505afa158015612ea7573d6000803e3d6000fd5b505050506040513d601f19601f82011682018060405250810190612ecb9190614146565b612f4c565b604051637092736960e11b81526001600160a01b0383169063e124e6d290612efc908990600401614232565b60206040518083038186803b158015612f1457600080fd5b505afa158015612f28573d6000803e3d6000fd5b505050506040513d601f19601f82011682018060405250810190612f4c9190614146565b90508315612f955782811115604051806060016040528060318152602001614a486031913990612f8f5760405162461bcd60e51b81526004016102a09190614529565b50612fd2565b828110156040518060600160405280603081526020016149b86030913990612fd05760405162461bcd60e51b81526004016102a09190614529565b505b612fdd8685876131f1565b6000826001600160a01b03166312d43a516040518163ffffffff1660e01b815260040160206040518083038186803b15801561301857600080fd5b505afa15801561302c573d6000803e3d6000fd5b505050506040513d601f19601f820116820180604052508101906130509190613b98565b600a54604051633cc8e33b60e21b81529192506001600160a01b03169063f3238cec9061308e908c908c908c908b908d908a906001906004016142ef565b600060405180830381600087803b1580156130a857600080fd5b505af11580156130bc573d6000803e3d6000fd5b50506040516306d63c1d60e41b81526001600160a01b0384169250636d63c1d091506130ec908690600401614232565b600060405180830381600087803b15801561310657600080fd5b505af115801561311a573d6000803e3d6000fd5b5050600b54604051630f8ee8bb60e11b81526001600160a01b039091169250631f1dd1769150613156908c908c908c908c908c90600401614330565b600060405180830381600087803b15801561317057600080fd5b505af1158015613184573d6000803e3d6000fd5b505060405163d3c87bbb60e01b81526001600160a01b038416925063d3c87bbb91506131b4908690600401614232565b600060405180830381600087803b1580156131ce57600080fd5b505af11580156131e2573d6000803e3d6000fd5b50505050505050505050505050565b806131fb57612652565b81156132ef576001600160a01b0383166000908152600d602052604090205480158015906132b2575060095460405163783a2b6760e11b815282916132b09185916001600160a01b03169063f07456ce9061325a908a90600401614232565b60206040518083038186803b15801561327257600080fd5b505afa158015613286573d6000803e3d6000fd5b505050506040513d601f19601f820116820180604052508101906132aa9190614146565b90613381565b115b156132e9576040518060600160405280602e815260200161493e602e913960405162461bcd60e51b81526004016102a09190614529565b50612652565b6001600160a01b0383166000908152600e6020526040902054801580159061334a575060095460405163114f1b5560e31b815282916133489185916001600160a01b031690638a78daa89061325a908a90600401614232565b115b15611c90576040518060600160405280602f81526020016149e8602f913960405162461bcd60e51b81526004016102a09190614529565b600082820183811015612b815760405162461bcd60e51b81526004016102a0906145ca565b6000826133b557506000612309565b828202828482816133c257fe5b0414612b815760405162461bcd60e51b81526004016102a09061475d565b6000612b8183836040518060400160405280601a81526020017f536166654d6174683a206469766973696f6e206279207a65726f0000000000008152506138fa565b600c54604051632e1a7d4d60e01b81526001600160a01b0390911690632e1a7d4d9061345290859060040161489d565b600060405180830381600087803b15801561346c57600080fd5b505af1158015613480573d6000803e3d6000fd5b505050506000816001600160a01b03168360405161349d9061422f565b60006040518083038185875af1925050503d80600081146134da576040519150601f19603f3d011682016040523d82523d6000602084013e6134df565b606091505b5050905080604051806060016040528060318152602001614a176031913990611c905760405162461bcd60e51b81526004016102a09190614529565b6060613570826040518060400160405280602081526020017f5361666545524332303a206c6f772d6c6576656c2063616c6c206661696c6564815250856001600160a01b03166139319092919063ffffffff16565b805190915015612652578080602001905181019061358e91906140e5565b6126525760405162461bcd60e51b81526004016102a09061481c565b600954604051634998b10960e11b815260009182916001600160a01b03909116906393316212906135e390899089908890600401614270565b602060405180830381600087803b1580156135fd57600080fd5b505af1158015613611573d6000803e3d6000fd5b505050506040513d601f19601f820116820180604052508101906136359190614146565b9050838110156040518060600160405280602b815260200161498d602b9139906136725760405162461bcd60e51b81526004016102a09190614529565b5095945050505050565b600c60009054906101000a90046001600160a01b03166001600160a01b031663d0e30db0826040518263ffffffff1660e01b81526004016000604051808303818588803b1580156136cc57600080fd5b505af11580156136e0573d6000803e3d6000fd5b505050505050565b6000826136f757506000612e32565b8161370457506001612e32565b60008660018851038151811061371657fe5b6020908102919091010151600954604051634a3f088d60e01b81529192506001600160a01b03169060009081908390634a3f088d9061375f908e9088908d908d90600401614293565b6101006040518083038186803b15801561377857600080fd5b505afa15801561378c573d6000803e3d6000fd5b505050506040513d601f19601f820116820180604052508101906137b0919061415e565b5050505050509150915081600014156137d0576000945050505050612e32565b60006137dc8388613381565b90506000846001600160a01b0316630a48d5a9878d6040518363ffffffff1660e01b815260040161380e9291906143e2565b60206040518083038186803b15801561382657600080fd5b505afa15801561383a573d6000803e3d6000fd5b505050506040513d601f19601f8201168201806040525081019061385e9190614146565b9050600061386c8483613381565b905060006138808561256d886127106133a6565b905060006138a18361256d60075461271001886133a690919063ffffffff16565b919091109f9e505050505050505050505050505050565b6000612b8183836040518060400160405280601e81526020017f536166654d6174683a207375627472616374696f6e206f766572666c6f770000815250613948565b6000818361391b5760405162461bcd60e51b81526004016102a09190614529565b50600083858161392757fe5b0495945050505050565b60606139408484600085613974565b949350505050565b6000818484111561396c5760405162461bcd60e51b81526004016102a09190614529565b505050900390565b6060824710156139965760405162461bcd60e51b81526004016102a090614695565b60006060866001600160a01b031685876040516139b39190614213565b60006040518083038185875af1925050503d80600081146139f0576040519150601f19603f3d011682016040523d82523d6000602084013e6139f5565b606091505b5091509150613a05828286613a10565b979650505050505050565b60608315613a1f575081612b81565b825115613a2f5782518084602001fd5b8160405162461bcd60e51b81526004016102a09190614529565b803561230981614917565b600082601f830112613a64578081fd5b8135613a77613a72826148cc565b6148a6565b818152915060208083019084810181840286018201871015613a9857600080fd5b60005b84811015613ac0578135613aae81614917565b84529282019290820190600101613a9b565b505050505092915050565b60008083601f840112613adc578182fd5b5081356001600160401b03811115613af2578182fd5b6020830191508360208083028501011115613b0c57600080fd5b9250929050565b600082601f830112613b23578081fd5b8135613b31613a72826148cc565b818152915060208083019084810181840286018201871015613b5257600080fd5b60005b84811015613ac057813584529282019290820190600101613b55565b80356123098161492f565b600060208284031215613b8d578081fd5b8135612b8181614917565b600060208284031215613ba9578081fd5b8151612b8181614917565b60008060408385031215613bc6578081fd5b8235613bd181614917565b946020939093013593505050565b60008060408385031215613bf1578182fd5b8235613bfc81614917565b91506020830135613c0c81614917565b809150509250929050565b600080600080600080600060c0888a031215613c31578283fd5b8735613c3c81614917565b96506020880135613c4c81614917565b95506040880135613c5c81614917565b94506060880135613c6c8161492f565b93506080880135613c7c81614917565b925060a08801356001600160401b03811115613c96578283fd5b613ca28a828b01613acb565b989b979a50959850939692959293505050565b600080600060608486031215613cc9578283fd5b8335613cd481614917565b92506020840135613ce481614917565b929592945050506040919091013590565b60008060408385031215613d07578182fd5b8235613d1281614917565b91506020830135613c0c8161492f565b600080600080600060808688031215613d39578081fd5b8535613d4481614917565b9450602086013593506040860135613d5b81614917565b925060608601356001600160401b03811115613d75578182fd5b613d8188828901613acb565b969995985093965092949392505050565b60008060008060008060008060006101208a8c031215613db0578182fd5b8951613dbb81614917565b60208b015160408c0151919a509850613dd381614917565b60608b0151909750613de481614917565b60808b015160a08c01519197509550613dfc8161492f565b60c08b015160e08c01519195509350613e148161492f565b809250506101008a015190509295985092959850929598565b600080600080600080600080610100898b031215613e49578182fd5b8851613e5481614917565b60208a015160408b01519199509750613e6c81614917565b60608a015160808b01519197509550613e848161492f565b60a08a015160c08b01519195509350613e9c8161492f565b8092505060e089015190509295985092959890939650565b60008060008060008060008060008060006101408c8e031215613ed5578485fd5b6001600160401b03808d351115613eea578586fd5b613ef78e8e358f01613a54565b9b50613f068e60208f01613a49565b9a5060408d0135995060608d01359850613f238e60808f01613b71565b9750613f328e60a08f01613a49565b965060c08d0135955060e08d01359450613f508e6101008f01613b71565b9350806101208e01351115613f63578283fd5b50613f758d6101208e01358e01613acb565b81935080925050509295989b509295989b9093969950565b60008060008060008060008060006101008a8c031215613fab578283fd5b89356001600160401b0380821115613fc1578485fd5b613fcd8d838e01613a54565b9a5060208c01359150613fdf82614917565b90985060408b0135975060608b0135965060808b0135955060a08b0135906140068261492f565b90945060c08b0135935060e08b01359080821115614022578384fd5b5061402f8c828d01613acb565b915080935050809150509295985092959850929598565b60008060006060848603121561405a578081fd5b83356001600160401b0380821115614070578283fd5b61407c87838801613a54565b94506020860135915080821115614091578283fd5b61409d87838801613b13565b935060408601359150808211156140b2578283fd5b506140bf86828701613b13565b9150509250925092565b6000602082840312156140da578081fd5b8135612b818161492f565b6000602082840312156140f6578081fd5b8151612b818161492f565b60008060408385031215614113578182fd5b825161411e8161492f565b6020939093015192949293505050565b60006020828403121561413f578081fd5b5035919050565b600060208284031215614157578081fd5b5051919050565b600080600080600080600080610100898b03121561417a578182fd5b885197506020890151965060408901519550606089015194506080890151935060a0890151925060c0890151613e9c8161492f565b6000815180845260208085019450808401835b838110156141de578151875295820195908201906001016141c2565b509495945050505050565b60008284528282602086013780602084860101526020601f19601f85011685010190509392505050565b600082516142258184602087016148eb565b9190910192915050565b90565b6001600160a01b0391909116815260200190565b6001600160a01b039485168152928416602084015292166040820152606081019190915260800190565b6001600160a01b0393841681529183166020830152909116604082015260600190565b6001600160a01b039485168152928416602084015292166040820152901515606082015260800190565b6001600160a01b0395861681529385166020850152918416604084015215156060830152909116608082015260a00190565b6001600160a01b03978816815295871660208701529390951660408501529015156060840152608083015260a082019290925290151560c082015260e00190565b6001600160a01b03958616815293851660208501529190931660408301526060820192909252901515608082015260a00190565b6001600160a01b0397881681529587166020870152938616604086015260608501929092526080840152151560a083015290911660c082015260e00190565b6001600160a01b039384168152919092166020820152604081019190915260600190565b6001600160a01b039290921682521515602082015260400190565b6001600160a01b03929092168252602082015260400190565b6001600160a01b0393841681526020810192909252909116604082015260600190565b606080825284519082018190526000906020906080840190828801845b828110156144605781516001600160a01b03168452928401929084019060010161443b565b5050508381038285015261447481876141af565b9150508281036040840152612e3281856141af565b602080825281810183905260009060408482028401810190840186845b8781101561451157868403603f190183528135368a9003601e190181126144cb578687fd5b890180356001600160401b038111156144e2578788fd5b8036038b13156144f0578788fd5b6144fd86828985016141e9565b9550505091840191908401906001016144a6565b5091979650505050505050565b901515815260200190565b60006020825282518060208401526145488160408501602087016148eb565b601f01601f19169190910160400192915050565b6020808252601d908201527f506f736974696f6e4d616e616765723a20696e76616c69642070617468000000604082015260600190565b6020808252601d908201527f506f736974696f6e4d616e616765723a206c6f6e67206465706f736974000000604082015260600190565b6020808252601b908201527f536166654d6174683a206164646974696f6e206f766572666c6f770000000000604082015260600190565b6020808252603a908201527f416464726573733a20756e61626c6520746f2073656e642076616c75652c207260408201527f6563697069656e74206d61792068617665207265766572746564000000000000606082015260800190565b6020808252601d908201527f416464726573733a20696e73756666696369656e742062616c616e6365000000604082015260600190565b60208082526026908201527f416464726573733a20696e73756666696369656e742062616c616e636520666f6040820152651c8818d85b1b60d21b606082015260800190565b60208082526015908201527423b7bb32b93730b136329d103337b93134b23232b760591b604082015260600190565b60208082526033908201527f506f736974696f6e4d616e616765723a20776974686472617720455448206e6f6040820152727420737570706f7274656420666f72206e6f7760681b606082015260800190565b60208082526021908201527f536166654d6174683a206d756c7469706c69636174696f6e206f766572666c6f6040820152607760f81b606082015260800190565b60208082526027908201527f506f736974696f6e4d616e616765723a206c6f6e67206c6576657261676520646040820152666563726561736560c81b606082015260800190565b6020808252601e908201527f42617365506f736974696f6e4d616e616765723a20666f7262696464656e0000604082015260600190565b6020808252602a908201527f5361666545524332303a204552433230206f7065726174696f6e20646964206e6040820152691bdd081cdd58d8d9595960b21b606082015260800190565b6020808252601f908201527f5265656e7472616e637947756172643a207265656e7472616e742063616c6c00604082015260600190565b90815260200190565b6040518181016001600160401b03811182821017156148c457600080fd5b604052919050565b60006001600160401b038211156148e1578081fd5b5060209081020190565b60005b838110156149065781810151838201526020016148ee565b83811115611c905750506000910152565b6001600160a01b038116811461492c57600080fd5b50565b801515811461492c57600080fdfe42617365506f736974696f6e4d616e616765723a206d617820676c6f62616c206c6f6e6773206578636565646564506f736974696f6e4d616e616765723a20696e73756666696369656e742066656542617365506f736974696f6e4d616e616765723a20696e73756666696369656e7420616d6f756e744f757442617365506f736974696f6e4d616e616765723a206d61726b207072696365206c6f776572207468616e206c696d697442617365506f736974696f6e4d616e616765723a206d617820676c6f62616c2073686f72747320657863656564656442617365506f736974696f6e4d616e616765723a206661696c656420746f207472616e73666572206f757420657468657242617365506f736974696f6e4d616e616765723a206d61726b20707269636520686967686572207468616e206c696d6974506f736974696f6e4d616e616765723a20666f7262696464656e00000000000042617365506f736974696f6e4d616e616765723a20696e76616c6964205f706174682e6c656e67746842617365506f736974696f6e4d616e616765723a20696e76616c69642073656e646572506f736974696f6e4d616e616765723a20696e76616c6964205f706174682e6c656e677468a26469706673582212202be6b1f8797fe212300b35e509d0c178b5ce6fdf545c08291bddae09fd58aac164736f6c634300060c0033",
  "devdoc": {
    "kind": "dev",
    "methods": {
      "decreasePosition(address[],address,uint256,uint256,bool,address,uint256,uint256,bool,bytes[])": {
        "params": {
          "_collateralDelta": "collateral delta which is being withdrawn",
          "_indexToken": "index token which is being sold",
          "_isLong": "is long if true, short if false",
          "_minOut": "minimum amount of tokens to receive",
          "_path": "path to swap, one of the tokens must be the index token",
          "_price": "price of the index token",
          "_receiver": "receiver of the tokens",
          "_sizeDelta": "size delta which is being withdrawn",
          "_updateData": "data to update",
          "_withdrawETH": "withdraw ETH if true, otherwise withdraw ERC20"
        }
      },
      "executeDecreaseOrder(address,uint256,address,bytes[])": {
        "params": {
          "_account": "account to liquidate",
          "_feeReceiver": "receiver of the fee",
          "_orderIndex": "order index which is being liquidated",
          "_updateData": "data to update which is being liquidated"
        }
      },
      "executeIncreaseOrder(address,uint256,address,bytes[])": {
        "params": {
          "_account": "account to liquidate",
          "_feeReceiver": "receiver of the fee",
          "_orderIndex": "order index which is being liquidated",
          "_updateData": "data to update which is being liquidated"
        }
      },
      "increasePosition(address[],address,uint256,uint256,uint256,bool,uint256,bytes[])": {
        "params": {
          "_amountIn": "amount of tokens to swap",
          "_indexToken": "index token",
          "_isLong": "is long if true, short if false",
          "_minOut": "minimum amount of tokens to receive",
          "_path": "path to swap",
          "_price": "price of the index token",
          "_sizeDelta": "size delta",
          "_updateData": "data to update"
        }
      },
      "liquidatePosition(address,address,address,bool,address,bytes[])": {
        "params": {
          "_account": "account to liquidate",
          "_collateralToken": "collateral token",
          "_feeReceiver": "receiver of the fee",
          "_indexToken": "index token",
          "_isLong": "is long if true, short if false",
          "_updateData": "data to update"
        }
      }
    },
    "version": 1
  },
  "userdoc": {
    "kind": "user",
    "methods": {},
    "version": 1
  },
  "storageLayout": {
    "storage": [
      {
        "astId": 3,
        "contract": "contracts/core/PositionManager.sol:PositionManager",
        "label": "gov",
        "offset": 0,
        "slot": "0",
        "type": "t_address"
      },
      {
        "astId": 15334,
        "contract": "contracts/core/PositionManager.sol:PositionManager",
        "label": "_status",
        "offset": 0,
        "slot": "1",
        "type": "t_uint256"
      },
      {
        "astId": 12123,
        "contract": "contracts/core/PositionManager.sol:PositionManager",
        "label": "opened",
        "offset": 0,
        "slot": "2",
        "type": "t_bool"
      },
      {
        "astId": 12126,
        "contract": "contracts/core/PositionManager.sol:PositionManager",
        "label": "shouldValidateIncreaseOrder",
        "offset": 1,
        "slot": "2",
        "type": "t_bool"
      },
      {
        "astId": 12128,
        "contract": "contracts/core/PositionManager.sol:PositionManager",
        "label": "orderBook",
        "offset": 2,
        "slot": "2",
        "type": "t_address"
      },
      {
        "astId": 12132,
        "contract": "contracts/core/PositionManager.sol:PositionManager",
        "label": "isOrderKeeper",
        "offset": 0,
        "slot": "3",
        "type": "t_mapping(t_address,t_bool)"
      },
      {
        "astId": 12136,
        "contract": "contracts/core/PositionManager.sol:PositionManager",
        "label": "isPartner",
        "offset": 0,
        "slot": "4",
        "type": "t_mapping(t_address,t_bool)"
      },
      {
        "astId": 12140,
        "contract": "contracts/core/PositionManager.sol:PositionManager",
        "label": "isLiquidator",
        "offset": 0,
        "slot": "5",
        "type": "t_mapping(t_address,t_bool)"
      },
      {
        "astId": 11927,
        "contract": "contracts/core/PositionManager.sol:PositionManager",
        "label": "depositFee",
        "offset": 0,
        "slot": "6",
        "type": "t_uint256"
      },
      {
        "astId": 11930,
        "contract": "contracts/core/PositionManager.sol:PositionManager",
        "label": "increasePositionBufferBps",
        "offset": 0,
        "slot": "7",
        "type": "t_uint256"
      },
      {
        "astId": 11932,
        "contract": "contracts/core/PositionManager.sol:PositionManager",
        "label": "admin",
        "offset": 0,
        "slot": "8",
        "type": "t_address"
      },
      {
        "astId": 11934,
        "contract": "contracts/core/PositionManager.sol:PositionManager",
        "label": "vault",
        "offset": 0,
        "slot": "9",
        "type": "t_address"
      },
      {
        "astId": 11936,
        "contract": "contracts/core/PositionManager.sol:PositionManager",
        "label": "shortsTracker",
        "offset": 0,
        "slot": "10",
        "type": "t_address"
      },
      {
        "astId": 11938,
        "contract": "contracts/core/PositionManager.sol:PositionManager",
        "label": "router",
        "offset": 0,
        "slot": "11",
        "type": "t_address"
      },
      {
        "astId": 11940,
        "contract": "contracts/core/PositionManager.sol:PositionManager",
        "label": "weth",
        "offset": 0,
        "slot": "12",
        "type": "t_address"
      },
      {
        "astId": 11945,
        "contract": "contracts/core/PositionManager.sol:PositionManager",
        "label": "maxGlobalLongSizes",
        "offset": 0,
        "slot": "13",
        "type": "t_mapping(t_address,t_uint256)"
      },
      {
        "astId": 11950,
        "contract": "contracts/core/PositionManager.sol:PositionManager",
        "label": "maxGlobalShortSizes",
        "offset": 0,
        "slot": "14",
        "type": "t_mapping(t_address,t_uint256)"
      },
      {
        "astId": 11954,
        "contract": "contracts/core/PositionManager.sol:PositionManager",
        "label": "feeReserves",
        "offset": 0,
        "slot": "15",
        "type": "t_mapping(t_address,t_uint256)"
      },
      {
        "astId": 11956,
        "contract": "contracts/core/PositionManager.sol:PositionManager",
        "label": "minLiquidationFee",
        "offset": 0,
        "slot": "16",
        "type": "t_uint256"
      },
      {
        "astId": 11960,
        "contract": "contracts/core/PositionManager.sol:PositionManager",
        "label": "liquidationFees",
        "offset": 0,
        "slot": "17",
        "type": "t_mapping(t_bytes32,t_uint256)"
      },
      {
        "astId": 11962,
        "contract": "contracts/core/PositionManager.sol:PositionManager",
        "label": "zusd",
        "offset": 0,
        "slot": "18",
        "type": "t_address"
      },
      {
        "astId": 291,
        "contract": "contracts/core/PositionManager.sol:PositionManager",
        "label": "_IVault",
        "offset": 0,
        "slot": "19",
        "type": "t_contract(IVault)7397"
      }
    ],
    "types": {
      "t_address": {
        "encoding": "inplace",
        "label": "address",
        "numberOfBytes": "20"
      },
      "t_bool": {
        "encoding": "inplace",
        "label": "bool",
        "numberOfBytes": "1"
      },
      "t_bytes32": {
        "encoding": "inplace",
        "label": "bytes32",
        "numberOfBytes": "32"
      },
      "t_contract(IVault)7397": {
        "encoding": "inplace",
        "label": "contract IVault",
        "numberOfBytes": "20"
      },
      "t_mapping(t_address,t_bool)": {
        "encoding": "mapping",
        "key": "t_address",
        "label": "mapping(address => bool)",
        "numberOfBytes": "32",
        "value": "t_bool"
      },
      "t_mapping(t_address,t_uint256)": {
        "encoding": "mapping",
        "key": "t_address",
        "label": "mapping(address => uint256)",
        "numberOfBytes": "32",
        "value": "t_uint256"
      },
      "t_mapping(t_bytes32,t_uint256)": {
        "encoding": "mapping",
        "key": "t_bytes32",
        "label": "mapping(bytes32 => uint256)",
        "numberOfBytes": "32",
        "value": "t_uint256"
      },
      "t_uint256": {
        "encoding": "inplace",
        "label": "uint256",
        "numberOfBytes": "32"
      }
    }
  }
}