{
  "address": "0x246d0416D075c1Aa92Db8770ca0672698d1d29f0",
  "abi": [
    {
      "inputs": [
        {
          "internalType": "address",
          "name": "_pyth",
          "type": "address"
        }
      ],
      "stateMutability": "nonpayable",
      "type": "constructor"
    },
    {
      "inputs": [
        {
          "internalType": "address",
          "name": "",
          "type": "address"
        }
      ],
      "name": "feedIds",
      "outputs": [
        {
          "internalType": "bytes32",
          "name": "",
          "type": "bytes32"
        }
      ],
      "stateMutability": "view",
      "type": "function"
    },
    {
      "inputs": [
        {
          "internalType": "address",
          "name": "_token",
          "type": "address"
        },
        {
          "internalType": "bool",
          "name": "_includeConf",
          "type": "bool"
        },
        {
          "internalType": "bool",
          "name": "_maximise",
          "type": "bool"
        },
        {
          "internalType": "bool",
          "name": "_fresh",
          "type": "bool"
        }
      ],
      "name": "getPrice",
      "outputs": [
        {
          "internalType": "uint256",
          "name": "",
          "type": "uint256"
        }
      ],
      "stateMutability": "view",
      "type": "function"
    },
    {
      "inputs": [
        {
          "internalType": "bytes[]",
          "name": "_updateData",
          "type": "bytes[]"
        }
      ],
      "name": "getUpdateFee",
      "outputs": [
        {
          "internalType": "uint256",
          "name": "",
          "type": "uint256"
        }
      ],
      "stateMutability": "view",
      "type": "function"
    },
    {
      "inputs": [],
      "name": "gov",
      "outputs": [
        {
          "internalType": "address",
          "name": "",
          "type": "address"
        }
      ],
      "stateMutability": "view",
      "type": "function"
    },
    {
      "inputs": [
        {
          "internalType": "address",
          "name": "",
          "type": "address"
        }
      ],
      "name": "isStableToken",
      "outputs": [
        {
          "internalType": "bool",
          "name": "",
          "type": "bool"
        }
      ],
      "stateMutability": "view",
      "type": "function"
    },
    {
      "inputs": [
        {
          "internalType": "address",
          "name": "_token",
          "type": "address"
        }
      ],
      "name": "latestTime",
      "outputs": [
        {
          "internalType": "uint256",
          "name": "_diff",
          "type": "uint256"
        }
      ],
      "stateMutability": "view",
      "type": "function"
    },
    {
      "inputs": [],
      "name": "pyth",
      "outputs": [
        {
          "internalType": "contract IPyth",
          "name": "",
          "type": "address"
        }
      ],
      "stateMutability": "view",
      "type": "function"
    },
    {
      "inputs": [
        {
          "internalType": "address[]",
          "name": "_tokens",
          "type": "address[]"
        },
        {
          "internalType": "bytes32[]",
          "name": "_feedIds",
          "type": "bytes32[]"
        }
      ],
      "name": "setFeedIds",
      "outputs": [],
      "stateMutability": "nonpayable",
      "type": "function"
    },
    {
      "inputs": [
        {
          "internalType": "address",
          "name": "_gov",
          "type": "address"
        }
      ],
      "name": "setGov",
      "outputs": [],
      "stateMutability": "nonpayable",
      "type": "function"
    },
    {
      "inputs": [
        {
          "internalType": "address",
          "name": "_pyth",
          "type": "address"
        }
      ],
      "name": "setPyth",
      "outputs": [],
      "stateMutability": "nonpayable",
      "type": "function"
    },
    {
      "inputs": [
        {
          "internalType": "address",
          "name": "_token",
          "type": "address"
        },
        {
          "internalType": "bool",
          "name": "_isStableToken",
          "type": "bool"
        }
      ],
      "name": "setStableToken",
      "outputs": [],
      "stateMutability": "nonpayable",
      "type": "function"
    },
    {
      "inputs": [
        {
          "internalType": "uint256",
          "name": "_validTime",
          "type": "uint256"
        }
      ],
      "name": "setValidTime",
      "outputs": [],
      "stateMutability": "nonpayable",
      "type": "function"
    },
    {
      "inputs": [
        {
          "internalType": "bytes[]",
          "name": "_priceData",
          "type": "bytes[]"
        }
      ],
      "name": "updatePriceFeeds",
      "outputs": [],
      "stateMutability": "payable",
      "type": "function"
    },
    {
      "inputs": [],
      "name": "validTime",
      "outputs": [
        {
          "internalType": "uint256",
          "name": "",
          "type": "uint256"
        }
      ],
      "stateMutability": "view",
      "type": "function"
    }
  ],
  "transactionHash": "0x67cd6981bfabd5c889d4a8f737a46af6fe3d0c86c9ca8765105c3d20fdd83776",
  "args": [
    "0xA2aa501b19aff244D90cc15a4Cf739D2725B5729"
  ],
  "numDeployments": 1,
  "solcInputHash": "2e2174bed1b18cebd3217d0aeec07aa3",
  "bytecode": "0x608060405234801561001057600080fd5b50604051610e89380380610e8983398101604081905261002f91610062565b600080546001600160a01b039092166001600160a01b031992831617905560036001556004805490911633179055610092565b60006020828403121561007457600080fd5b81516001600160a01b038116811461008b57600080fd5b9392505050565b610de8806100a16000396000f3fe6080604052600436106100bd5760003560e01c8063aa014a451161006f578063aa014a45146101fc578063bbe449171461021c578063cfad57a214610232578063d47eed4514610252578063ee22fd6f14610272578063ef9e5e2814610292578063f98d06f0146102a557600080fd5b806312d43a51146100c25780632fc3a70a146100ff5780634c93c1e21461012d5780634e34f26b1461014f5780634fd666061461018f5780635de37932146101af57806386dcbc1a146101dc575b600080fd5b3480156100ce57600080fd5b506004546100e2906001600160a01b031681565b6040516001600160a01b0390911681526020015b60405180910390f35b34801561010b57600080fd5b5061011f61011a3660046108c6565b6102c5565b6040519081526020016100f6565b34801561013957600080fd5b5061014d61014836600461091a565b6104e6565b005b34801561015b57600080fd5b5061017f61016a366004610933565b60036020526000908152604090205460ff1681565b60405190151581526020016100f6565b34801561019b57600080fd5b5061011f6101aa366004610933565b610515565b3480156101bb57600080fd5b5061011f6101ca366004610933565b60026020526000908152604090205481565b3480156101e857600080fd5b5061014d6101f7366004610999565b6105b4565b34801561020857600080fd5b5061014d610217366004610a04565b6106af565b34801561022857600080fd5b5061011f60015481565b34801561023e57600080fd5b5061014d61024d366004610933565b610704565b34801561025e57600080fd5b5061011f61026d366004610a37565b610750565b34801561027e57600080fd5b5061014d61028d366004610933565b6107cd565b61014d6102a0366004610a37565b610819565b3480156102b157600080fd5b506000546100e2906001600160a01b031681565b6001600160a01b03841660009081526003602052604081205460ff16156102fa57506c0c9f2c9cd04674edea400000006104de565b600080546001600160a01b038781168352600260205260408084205490516396834ad360e01b815260048101919091529116906396834ad390602401608060405180830381865afa158015610353573d6000803e3d6000fd5b505050506040513d601f19601f820116820180604052508101906103779190610aa1565b90506000816000015160070b136103e15760405162461bcd60e51b815260206004820152602360248201527f5661756c745072696365466565643a207072696365206e6f7420617661696c61604482015262626c6560e81b60648201526084015b60405180910390fd5b8280156103f15750806060015142115b156104565760015460608201516104089042610b46565b11156104565760405162461bcd60e51b815260206004820152601d60248201527f5661756c745072696365466565643a20707269636520746f6f206f6c6400000060448201526064016103d8565b6000610468826000015160070b610883565b9050600082602001516001600160401b03169050600061048e846040015160030b610883565b61049990601e610b46565b905087156104c257866104b5576104b08284610b46565b6104bf565b6104bf8284610b59565b92505b6104cd81600a610c50565b6104d79084610c5c565b9450505050505b949350505050565b6004546001600160a01b031633146105105760405162461bcd60e51b81526004016103d890610c73565b600155565b600080546001600160a01b038381168352600260205260408084205490516396834ad360e01b8152849392909216916396834ad39161055a9160040190815260200190565b608060405180830381865afa158015610577573d6000803e3d6000fd5b505050506040513d601f19601f8201168201806040525081019061059b9190610aa1565b90508060600151426105ad9190610b46565b9392505050565b6004546001600160a01b031633146105de5760405162461bcd60e51b81526004016103d890610c73565b82811461062d5760405162461bcd60e51b815260206004820152601f60248201527f5661756c745072696365466565643a20696e76616c696420666565644964730060448201526064016103d8565b60005b838110156106a85782828281811061064a5761064a610ca6565b905060200201356002600087878581811061066757610667610ca6565b905060200201602081019061067c9190610933565b6001600160a01b03168152602081019190915260400160002055806106a081610cbc565b915050610630565b5050505050565b6004546001600160a01b031633146106d95760405162461bcd60e51b81526004016103d890610c73565b6001600160a01b03919091166000908152600360205260409020805460ff1916911515919091179055565b6004546001600160a01b0316331461072e5760405162461bcd60e51b81526004016103d890610c73565b600480546001600160a01b0319166001600160a01b0392909216919091179055565b6000805460405163d47eed4560e01b81526001600160a01b039091169063d47eed45906107839086908690600401610cfe565b602060405180830381865afa1580156107a0573d6000803e3d6000fd5b505050506040513d601f19601f820116820180604052508101906107c49190610d99565b90505b92915050565b6004546001600160a01b031633146107f75760405162461bcd60e51b81526004016103d890610c73565b600080546001600160a01b0319166001600160a01b0392909216919091179055565b600054604051631df3cbc560e31b81526001600160a01b039091169063ef9e5e2890349061084d9086908690600401610cfe565b6000604051808303818588803b15801561086657600080fd5b505af115801561087a573d6000803e3d6000fd5b50505050505050565b60008082121561089657816000036107c7565b5090565b80356001600160a01b03811681146108b157600080fd5b919050565b803580151581146108b157600080fd5b600080600080608085870312156108dc57600080fd5b6108e58561089a565b93506108f3602086016108b6565b9250610901604086016108b6565b915061090f606086016108b6565b905092959194509250565b60006020828403121561092c57600080fd5b5035919050565b60006020828403121561094557600080fd5b6107c48261089a565b60008083601f84011261096057600080fd5b5081356001600160401b0381111561097757600080fd5b6020830191508360208260051b850101111561099257600080fd5b9250929050565b600080600080604085870312156109af57600080fd5b84356001600160401b03808211156109c657600080fd5b6109d28883890161094e565b909650945060208701359150808211156109eb57600080fd5b506109f88782880161094e565b95989497509550505050565b60008060408385031215610a1757600080fd5b610a208361089a565b9150610a2e602084016108b6565b90509250929050565b60008060208385031215610a4a57600080fd5b82356001600160401b03811115610a6057600080fd5b610a6c8582860161094e565b90969095509350505050565b80516001600160401b03811681146108b157600080fd5b8051600381900b81146108b157600080fd5b600060808284031215610ab357600080fd5b604051608081018181106001600160401b0382111715610ae357634e487b7160e01b600052604160045260246000fd5b6040528251600781900b8114610af857600080fd5b8152610b0660208401610a78565b6020820152610b1760408401610a8f565b6040820152606083015160608201528091505092915050565b634e487b7160e01b600052601160045260246000fd5b818103818111156107c7576107c7610b30565b808201808211156107c7576107c7610b30565b600181815b80851115610ba7578160001904821115610b8d57610b8d610b30565b80851615610b9a57918102915b93841c9390800290610b71565b509250929050565b600082610bbe575060016107c7565b81610bcb575060006107c7565b8160018114610be15760028114610beb57610c07565b60019150506107c7565b60ff841115610bfc57610bfc610b30565b50506001821b6107c7565b5060208310610133831016604e8410600b8410161715610c2a575081810a6107c7565b610c348383610b6c565b8060001904821115610c4857610c48610b30565b029392505050565b60006107c48383610baf565b80820281158282048414176107c7576107c7610b30565b6020808252601990820152782b30bab63a283934b1b2a332b2b21d103337b93134b23232b760391b604082015260600190565b634e487b7160e01b600052603260045260246000fd5b600060018201610cce57610cce610b30565b5060010190565b81835281816020850137506000828201602090810191909152601f909101601f19169091010190565b60208082528181018390526000906040600585901b8401810190840186845b87811015610d8c57868403603f190183528135368a9003601e19018112610d4357600080fd5b890185810190356001600160401b03811115610d5e57600080fd5b803603821315610d6d57600080fd5b610d78868284610cd5565b955050509184019190840190600101610d1d565b5091979650505050505050565b600060208284031215610dab57600080fd5b505191905056fea264697066735822122046686091f146f1238628b2aa7df50e595af554fcd3a7b215e2e258d8718bf45c64736f6c63430008110033",
  "devdoc": {
    "kind": "dev",
    "methods": {},
    "version": 1
  },
  "userdoc": {
    "kind": "user",
    "methods": {},
    "version": 1
  },
  "storageLayout": {
    "storage": [
      {
        "astId": 10498,
        "contract": "contracts/core/VaultPriceFeed.sol:VaultPriceFeed",
        "label": "pyth",
        "offset": 0,
        "slot": "0",
        "type": "t_contract(IPyth)9976"
      },
      {
        "astId": 10500,
        "contract": "contracts/core/VaultPriceFeed.sol:VaultPriceFeed",
        "label": "validTime",
        "offset": 0,
        "slot": "1",
        "type": "t_uint256"
      },
      {
        "astId": 10504,
        "contract": "contracts/core/VaultPriceFeed.sol:VaultPriceFeed",
        "label": "feedIds",
        "offset": 0,
        "slot": "2",
        "type": "t_mapping(t_address,t_bytes32)"
      },
      {
        "astId": 10508,
        "contract": "contracts/core/VaultPriceFeed.sol:VaultPriceFeed",
        "label": "isStableToken",
        "offset": 0,
        "slot": "3",
        "type": "t_mapping(t_address,t_bool)"
      },
      {
        "astId": 10510,
        "contract": "contracts/core/VaultPriceFeed.sol:VaultPriceFeed",
        "label": "gov",
        "offset": 0,
        "slot": "4",
        "type": "t_address"
      }
    ],
    "types": {
      "t_address": {
        "encoding": "inplace",
        "label": "address",
        "numberOfBytes": "20"
      },
      "t_bool": {
        "encoding": "inplace",
        "label": "bool",
        "numberOfBytes": "1"
      },
      "t_bytes32": {
        "encoding": "inplace",
        "label": "bytes32",
        "numberOfBytes": "32"
      },
      "t_contract(IPyth)9976": {
        "encoding": "inplace",
        "label": "contract IPyth",
        "numberOfBytes": "20"
      },
      "t_mapping(t_address,t_bool)": {
        "encoding": "mapping",
        "key": "t_address",
        "label": "mapping(address => bool)",
        "numberOfBytes": "32",
        "value": "t_bool"
      },
      "t_mapping(t_address,t_bytes32)": {
        "encoding": "mapping",
        "key": "t_address",
        "label": "mapping(address => bytes32)",
        "numberOfBytes": "32",
        "value": "t_bytes32"
      },
      "t_uint256": {
        "encoding": "inplace",
        "label": "uint256",
        "numberOfBytes": "32"
      }
    }
  }
}