{
  "address": "0x6968b0a032647B6073B9343169dBd061c8344Aba",
  "abi": [
    {
      "inputs": [
        {
          "internalType": "address",
          "name": "_vault",
          "type": "address"
        }
      ],
      "stateMutability": "nonpayable",
      "type": "constructor"
    },
    {
      "inputs": [
        {
          "internalType": "bytes32",
          "name": "",
          "type": "bytes32"
        }
      ],
      "name": "data",
      "outputs": [
        {
          "internalType": "bytes32",
          "name": "",
          "type": "bytes32"
        }
      ],
      "stateMutability": "view",
      "type": "function"
    },
    {
      "inputs": [
        {
          "internalType": "address",
          "name": "_account",
          "type": "address"
        },
        {
          "internalType": "address",
          "name": "_collateralToken",
          "type": "address"
        },
        {
          "internalType": "address",
          "name": "_indexToken",
          "type": "address"
        },
        {
          "internalType": "uint256",
          "name": "_nextPrice",
          "type": "uint256"
        },
        {
          "internalType": "uint256",
          "name": "_sizeDelta",
          "type": "uint256"
        },
        {
          "internalType": "bool",
          "name": "_isIncrease",
          "type": "bool"
        }
      ],
      "name": "getNextGlobalShortData",
      "outputs": [
        {
          "internalType": "uint256",
          "name": "",
          "type": "uint256"
        },
        {
          "internalType": "uint256",
          "name": "",
          "type": "uint256"
        }
      ],
      "stateMutability": "view",
      "type": "function"
    },
    {
      "inputs": [
        {
          "internalType": "address",
          "name": "_account",
          "type": "address"
        },
        {
          "internalType": "address",
          "name": "_collateralToken",
          "type": "address"
        },
        {
          "internalType": "address",
          "name": "_indexToken",
          "type": "address"
        },
        {
          "internalType": "uint256",
          "name": "_sizeDelta",
          "type": "uint256"
        },
        {
          "internalType": "bool",
          "name": "_isIncrease",
          "type": "bool"
        }
      ],
      "name": "getRealisedPnl",
      "outputs": [
        {
          "internalType": "int256",
          "name": "",
          "type": "int256"
        }
      ],
      "stateMutability": "view",
      "type": "function"
    },
    {
      "inputs": [
        {
          "internalType": "address",
          "name": "",
          "type": "address"
        }
      ],
      "name": "globalShortAveragePrices",
      "outputs": [
        {
          "internalType": "uint256",
          "name": "",
          "type": "uint256"
        }
      ],
      "stateMutability": "view",
      "type": "function"
    },
    {
      "inputs": [],
      "name": "gov",
      "outputs": [
        {
          "internalType": "address",
          "name": "",
          "type": "address"
        }
      ],
      "stateMutability": "view",
      "type": "function"
    },
    {
      "inputs": [],
      "name": "isGlobalShortDataReady",
      "outputs": [
        {
          "internalType": "bool",
          "name": "",
          "type": "bool"
        }
      ],
      "stateMutability": "view",
      "type": "function"
    },
    {
      "inputs": [
        {
          "internalType": "address",
          "name": "",
          "type": "address"
        }
      ],
      "name": "isHandler",
      "outputs": [
        {
          "internalType": "bool",
          "name": "",
          "type": "bool"
        }
      ],
      "stateMutability": "view",
      "type": "function"
    },
    {
      "inputs": [
        {
          "internalType": "address",
          "name": "_gov",
          "type": "address"
        }
      ],
      "name": "setGov",
      "outputs": [],
      "stateMutability": "nonpayable",
      "type": "function"
    },
    {
      "inputs": [
        {
          "internalType": "address",
          "name": "_handler",
          "type": "address"
        },
        {
          "internalType": "bool",
          "name": "_isActive",
          "type": "bool"
        }
      ],
      "name": "setHandler",
      "outputs": [],
      "stateMutability": "nonpayable",
      "type": "function"
    },
    {
      "inputs": [
        {
          "internalType": "address[]",
          "name": "_tokens",
          "type": "address[]"
        },
        {
          "internalType": "uint256[]",
          "name": "_averagePrices",
          "type": "uint256[]"
        }
      ],
      "name": "setInitData",
      "outputs": [],
      "stateMutability": "nonpayable",
      "type": "function"
    },
    {
      "inputs": [
        {
          "internalType": "bool",
          "name": "value",
          "type": "bool"
        }
      ],
      "name": "setIsGlobalShortDataReady",
      "outputs": [],
      "stateMutability": "nonpayable",
      "type": "function"
    },
    {
      "inputs": [
        {
          "internalType": "address",
          "name": "_account",
          "type": "address"
        },
        {
          "internalType": "address",
          "name": "_collateralToken",
          "type": "address"
        },
        {
          "internalType": "address",
          "name": "_indexToken",
          "type": "address"
        },
        {
          "internalType": "bool",
          "name": "_isLong",
          "type": "bool"
        },
        {
          "internalType": "uint256",
          "name": "_sizeDelta",
          "type": "uint256"
        },
        {
          "internalType": "uint256",
          "name": "_markPrice",
          "type": "uint256"
        },
        {
          "internalType": "bool",
          "name": "_isIncrease",
          "type": "bool"
        }
      ],
      "name": "updateGlobalShortData",
      "outputs": [],
      "stateMutability": "nonpayable",
      "type": "function"
    },
    {
      "inputs": [],
      "name": "vault",
      "outputs": [
        {
          "internalType": "contract IVault",
          "name": "",
          "type": "address"
        }
      ],
      "stateMutability": "view",
      "type": "function"
    }
  ],
  "transactionHash": "0xfec173350a925db98936688f80b9928170781b758783c7ffb8cd5255c39ddb3b",
  "args": [
    "0xC82A1E059168C81A83AEDa3d3954e3760674E48C"
  ],
  "numDeployments": 1,
  "solcInputHash": "45f986e69ef0b1c3adec9bb2994aea31",
  "bytecode": "0x608060405234801561001057600080fd5b5060405161100c38038061100c8339818101604052602081101561003357600080fd5b5051600080546001600160a01b03199081163317909155600180546001600160a01b0390931692909116919091179055610f9a806100726000396000f3fe608060405234801561001057600080fd5b50600436106100bf5760003560e01c80639cb7de4b1161007c5780639cb7de4b146101a05780639cdeb593146101ce578063a83b75fd14610231578063bbd9718714610275578063cfad57a214610333578063f3238cec14610359578063fbfa77cf146103ab576100bf565b80630147fb0c146100c457806312d43a51146100f35780633d30cabf1461011757806346ea87af1461013857806362749803146101725780639a11178f14610198575b600080fd5b6100e1600480360360208110156100da57600080fd5b50356103b3565b60408051918252519081900360200190f35b6100fb6103c5565b604080516001600160a01b039092168252519081900360200190f35b6101366004803603602081101561012d57600080fd5b503515156103d4565b005b61015e6004803603602081101561014e57600080fd5b50356001600160a01b031661043e565b604080519115158252519081900360200190f35b6100e16004803603602081101561018857600080fd5b50356001600160a01b0316610453565b61015e610465565b610136600480360360408110156101b657600080fd5b506001600160a01b038135169060200135151561046e565b610218600480360360c08110156101e457600080fd5b506001600160a01b03813581169160208101358216916040820135169060608101359060808101359060a0013515156105b7565b6040805192835260208301919091528051918290030190f35b6100e1600480360360a081101561024757600080fd5b506001600160a01b038135811691602081013582169160408201351690606081013590608001351515610711565b6101366004803603604081101561028b57600080fd5b810190602081018135600160201b8111156102a557600080fd5b8201836020820111156102b757600080fd5b803590602001918460208302840111600160201b831117156102d857600080fd5b919390929091602081019035600160201b8111156102f557600080fd5b82018360208201111561030757600080fd5b803590602001918460208302840111600160201b8311171561032857600080fd5b509092509050610925565b6101366004803603602081101561034957600080fd5b50356001600160a01b0316610a71565b610136600480360360e081101561036f57600080fd5b506001600160a01b038135811691602081013582169160408201351690606081013515159060808101359060a08101359060c001351515610aea565b6100fb610c0d565b60056020526000908152604090205481565b6000546001600160a01b031681565b6000546001600160a01b0316331461042b576040805162461bcd60e51b815260206004820152601560248201527423b7bb32b93730b136329d103337b93134b23232b760591b604482015290519081900360640190fd5b6004805460ff1916911515919091179055565b60026020526000908152604090205460ff1681565b60036020526000908152604090205481565b60045460ff1681565b6000546001600160a01b031633146104c5576040805162461bcd60e51b815260206004820152601560248201527423b7bb32b93730b136329d103337b93134b23232b760591b604482015290519081900360640190fd5b60408051808201909152601f81527f53686f727473547261636b65723a20696e76616c6964205f68616e646c65720060208201526001600160a01b03831661058b5760405162461bcd60e51b81526004018080602001828103825283818151815260200191508051906020019080838360005b83811015610550578181015183820152602001610538565b50505050905090810190601f16801561057d5780820380516001836020036101000a031916815260200191505b509250505060405180910390fd5b506001600160a01b03919091166000908152600260205260409020805460ff1916911515919091179055565b60008060006105c98989898888610711565b6001600160a01b0388166000908152600360205260408120549192508782116105fb576105f68883610c1c565b610605565b6106058289610c1c565b6001546040805163114f1b5560e31b81526001600160a01b038d811660048301529151939450600093849384931691638a78daa8916024808301926020929190829003018186803b15801561065957600080fd5b505afa15801561066d573d6000803e3d6000fd5b505050506040513d602081101561068357600080fd5b505190508861069b57610696818b610c1c565b6106a5565b6106a5818b610c67565b9250826106be5760008097509750505050505050610706565b846106d457828b97509750505050505050610706565b6106e8856106e28387610cc1565b90610d1a565b91505060006106fa858c85858a610d5c565b92975091955050505050505b965096945050505050565b600081156107215750600061091c565b60015460408051634a3f088d60e01b81526001600160a01b038981166004830152888116602483015287811660448301526000606483018190529251931692829182918591634a3f088d91608480830192610100929190829003018186803b15801561078c57600080fd5b505afa1580156107a0573d6000803e3d6000fd5b505050506040513d6101008110156107b757600080fd5b50805160408083015160e0909301518151635c07eaab60e01b81526001600160a01b038d811660048301526024820185905260448201869052600060648301819052608483018490528451959950959750919550849391891692635c07eaab9260a480840193829003018186803b15801561083157600080fd5b505afa158015610845573d6000803e3d6000fd5b505050506040513d604081101561085b57600080fd5b50805160209091015190925090506000610879866106e28c85610cc1565b90506001600160ff1b0381106040518060400160405280601781526020017653686f727473547261636b65723a206f766572666c6f7760481b815250906109015760405162461bcd60e51b8152602060048201818152835160248401528351909283926044909101919085019080838360008315610550578181015183820152602001610538565b50826109105780600003610912565b805b9750505050505050505b95945050505050565b6000546001600160a01b0316331461097c576040805162461bcd60e51b815260206004820152601560248201527423b7bb32b93730b136329d103337b93134b23232b760591b604482015290519081900360640190fd5b60045460408051808201909152601f81527f53686f727473547261636b65723a20616c7265616479206d696772617465640060208201529060ff1615610a035760405162461bcd60e51b8152602060048201818152835160248401528351909283926044909101919085019080838360008315610550578181015183820152602001610538565b5060005b83811015610a5d57828282818110610a1b57fe5b9050602002013560036000878785818110610a3257fe5b602090810292909201356001600160a01b031683525081019190915260400160002055600101610a07565b50506004805460ff19166001179055505050565b6000546001600160a01b03163314610ac8576040805162461bcd60e51b815260206004820152601560248201527423b7bb32b93730b136329d103337b93134b23232b760591b604482015290519081900360640190fd5b600080546001600160a01b0319166001600160a01b0392909216919091179055565b33600090815260026020908152604091829020548251808401909352601883527729b437b93a39aa3930b1b5b2b91d103337b93134b23232b760411b9183019190915260ff16610b7b5760405162461bcd60e51b8152602060048201818152835160248401528351909283926044909101919085019080838360008315610550578181015183820152602001610538565b508380610b86575082155b15610b9057610c04565b60045460ff16610b9f57610c04565b600080610bb08989898789886105b7565b91509150610bbe8782610dab565b604080518381526020810183905281516001600160a01b038a16927fd6137be44db128ffcf1ea1821dbe8f889f67f949be7656c2d8acba2a4a891a02928290030190a250505b50505050505050565b6001546001600160a01b031681565b6000610c5e83836040518060400160405280601e81526020017f536166654d6174683a207375627472616374696f6e206f766572666c6f770000815250610dc7565b90505b92915050565b600082820183811015610c5e576040805162461bcd60e51b815260206004820152601b60248201527f536166654d6174683a206164646974696f6e206f766572666c6f770000000000604482015290519081900360640190fd5b600082610cd057506000610c61565b82820282848281610cdd57fe5b0414610c5e5760405162461bcd60e51b8152600401808060200182810382526021815260200180610f446021913960400191505060405180910390fd5b6000610c5e83836040518060400160405280601a81526020017f536166654d6174683a206469766973696f6e206279207a65726f000000000000815250610e21565b6000806000610d6d85898987610e86565b915091506000610d9e83610d8a57610d858884610c67565b610d94565b610d948884610c1c565b6106e28a8a610cc1565b9998505050505050505050565b6001600160a01b03909116600090815260036020526040902055565b60008184841115610e195760405162461bcd60e51b8152602060048201818152835160248401528351909283926044909101919085019080838360008315610550578181015183820152602001610538565b505050900390565b60008183610e705760405162461bcd60e51b8152602060048201818152835160248401528351909283926044909101919085019080838360008315610550578181015183820152602001610538565b506000838581610e7c57fe5b0495945050505050565b6000808385118015610ee5576000841315610eca5786841115610eb857610ead8488610c1c565b965060009050610ec5565b610ec28785610c1c565b96505b610edb565b610ed8876000869003610c67565b96505b9150859050610f3a565b6000841315610eff57610ef88785610c67565b9650610f34565b86846000031115610f2357610f18600085900388610c1c565b965060019050610f34565b610f31876000869003610c1c565b96505b91508590505b9450949250505056fe536166654d6174683a206d756c7469706c69636174696f6e206f766572666c6f77a264697066735822122011522c1fb38f8dd92a1665c5acfdc6c56dc6e819fd8c6e570374ab96566d0a3564736f6c634300060c0033",
  "devdoc": {
    "kind": "dev",
    "methods": {},
    "version": 1
  },
  "userdoc": {
    "kind": "user",
    "methods": {},
    "version": 1
  },
  "storageLayout": {
    "storage": [
      {
        "astId": 3,
        "contract": "contracts/core/ShortsTracker.sol:ShortsTracker",
        "label": "gov",
        "offset": 0,
        "slot": "0",
        "type": "t_address"
      },
      {
        "astId": 12456,
        "contract": "contracts/core/ShortsTracker.sol:ShortsTracker",
        "label": "vault",
        "offset": 0,
        "slot": "1",
        "type": "t_contract(IVault)7577"
      },
      {
        "astId": 12460,
        "contract": "contracts/core/ShortsTracker.sol:ShortsTracker",
        "label": "isHandler",
        "offset": 0,
        "slot": "2",
        "type": "t_mapping(t_address,t_bool)"
      },
      {
        "astId": 12465,
        "contract": "contracts/core/ShortsTracker.sol:ShortsTracker",
        "label": "globalShortAveragePrices",
        "offset": 0,
        "slot": "3",
        "type": "t_mapping(t_address,t_uint256)"
      },
      {
        "astId": 12468,
        "contract": "contracts/core/ShortsTracker.sol:ShortsTracker",
        "label": "isGlobalShortDataReady",
        "offset": 0,
        "slot": "4",
        "type": "t_bool"
      },
      {
        "astId": 12472,
        "contract": "contracts/core/ShortsTracker.sol:ShortsTracker",
        "label": "data",
        "offset": 0,
        "slot": "5",
        "type": "t_mapping(t_bytes32,t_bytes32)"
      }
    ],
    "types": {
      "t_address": {
        "encoding": "inplace",
        "label": "address",
        "numberOfBytes": "20"
      },
      "t_bool": {
        "encoding": "inplace",
        "label": "bool",
        "numberOfBytes": "1"
      },
      "t_bytes32": {
        "encoding": "inplace",
        "label": "bytes32",
        "numberOfBytes": "32"
      },
      "t_contract(IVault)7577": {
        "encoding": "inplace",
        "label": "contract IVault",
        "numberOfBytes": "20"
      },
      "t_mapping(t_address,t_bool)": {
        "encoding": "mapping",
        "key": "t_address",
        "label": "mapping(address => bool)",
        "numberOfBytes": "32",
        "value": "t_bool"
      },
      "t_mapping(t_address,t_uint256)": {
        "encoding": "mapping",
        "key": "t_address",
        "label": "mapping(address => uint256)",
        "numberOfBytes": "32",
        "value": "t_uint256"
      },
      "t_mapping(t_bytes32,t_bytes32)": {
        "encoding": "mapping",
        "key": "t_bytes32",
        "label": "mapping(bytes32 => bytes32)",
        "numberOfBytes": "32",
        "value": "t_bytes32"
      },
      "t_uint256": {
        "encoding": "inplace",
        "label": "uint256",
        "numberOfBytes": "32"
      }
    }
  }
}