{
  "address": "0xF3688d65B009dEc6943356E09Bb7139C284a0767",
  "abi": [
    {
      "inputs": [
        {
          "internalType": "string",
          "name": "_n",
          "type": "string"
        },
        {
          "internalType": "uint8",
          "name": "_dc",
          "type": "uint8"
        },
        {
          "internalType": "uint256",
          "name": "_faucetTotal",
          "type": "uint256"
        },
        {
          "internalType": "uint256",
          "name": "_faucetAmount",
          "type": "uint256"
        },
        {
          "internalType": "uint256",
          "name": "_interval",
          "type": "uint256"
        }
      ],
      "stateMutability": "nonpayable",
      "type": "constructor"
    },
    {
      "anonymous": false,
      "inputs": [
        {
          "indexed": true,
          "internalType": "address",
          "name": "owner",
          "type": "address"
        },
        {
          "indexed": true,
          "internalType": "address",
          "name": "spender",
          "type": "address"
        },
        {
          "indexed": false,
          "internalType": "uint256",
          "name": "value",
          "type": "uint256"
        }
      ],
      "name": "Approval",
      "type": "event"
    },
    {
      "anonymous": false,
      "inputs": [
        {
          "indexed": true,
          "internalType": "address",
          "name": "from",
          "type": "address"
        },
        {
          "indexed": true,
          "internalType": "address",
          "name": "to",
          "type": "address"
        },
        {
          "indexed": false,
          "internalType": "uint256",
          "name": "value",
          "type": "uint256"
        }
      ],
      "name": "Transfer",
      "type": "event"
    },
    {
      "inputs": [
        {
          "internalType": "address",
          "name": "owner",
          "type": "address"
        },
        {
          "internalType": "address",
          "name": "spender",
          "type": "address"
        }
      ],
      "name": "allowance",
      "outputs": [
        {
          "internalType": "uint256",
          "name": "",
          "type": "uint256"
        }
      ],
      "stateMutability": "view",
      "type": "function"
    },
    {
      "inputs": [
        {
          "internalType": "address",
          "name": "spender",
          "type": "address"
        },
        {
          "internalType": "uint256",
          "name": "amount",
          "type": "uint256"
        }
      ],
      "name": "approve",
      "outputs": [
        {
          "internalType": "bool",
          "name": "",
          "type": "bool"
        }
      ],
      "stateMutability": "nonpayable",
      "type": "function"
    },
    {
      "inputs": [
        {
          "internalType": "address",
          "name": "account",
          "type": "address"
        }
      ],
      "name": "balanceOf",
      "outputs": [
        {
          "internalType": "uint256",
          "name": "",
          "type": "uint256"
        }
      ],
      "stateMutability": "view",
      "type": "function"
    },
    {
      "inputs": [
        {
          "internalType": "address",
          "name": "account",
          "type": "address"
        },
        {
          "internalType": "uint256",
          "name": "amount",
          "type": "uint256"
        }
      ],
      "name": "burn",
      "outputs": [],
      "stateMutability": "nonpayable",
      "type": "function"
    },
    {
      "inputs": [],
      "name": "decimals",
      "outputs": [
        {
          "internalType": "uint8",
          "name": "",
          "type": "uint8"
        }
      ],
      "stateMutability": "view",
      "type": "function"
    },
    {
      "inputs": [
        {
          "internalType": "address",
          "name": "spender",
          "type": "address"
        },
        {
          "internalType": "uint256",
          "name": "subtractedValue",
          "type": "uint256"
        }
      ],
      "name": "decreaseAllowance",
      "outputs": [
        {
          "internalType": "bool",
          "name": "",
          "type": "bool"
        }
      ],
      "stateMutability": "nonpayable",
      "type": "function"
    },
    {
      "inputs": [],
      "name": "deposit",
      "outputs": [],
      "stateMutability": "payable",
      "type": "function"
    },
    {
      "inputs": [],
      "name": "faucet",
      "outputs": [],
      "stateMutability": "nonpayable",
      "type": "function"
    },
    {
      "inputs": [],
      "name": "faucetAmount",
      "outputs": [
        {
          "internalType": "uint256",
          "name": "",
          "type": "uint256"
        }
      ],
      "stateMutability": "view",
      "type": "function"
    },
    {
      "inputs": [],
      "name": "faucetTotal",
      "outputs": [
        {
          "internalType": "uint256",
          "name": "",
          "type": "uint256"
        }
      ],
      "stateMutability": "view",
      "type": "function"
    },
    {
      "inputs": [],
      "name": "giveawayTotal",
      "outputs": [
        {
          "internalType": "uint256",
          "name": "",
          "type": "uint256"
        }
      ],
      "stateMutability": "view",
      "type": "function"
    },
    {
      "inputs": [
        {
          "internalType": "address",
          "name": "spender",
          "type": "address"
        },
        {
          "internalType": "uint256",
          "name": "addedValue",
          "type": "uint256"
        }
      ],
      "name": "increaseAllowance",
      "outputs": [
        {
          "internalType": "bool",
          "name": "",
          "type": "bool"
        }
      ],
      "stateMutability": "nonpayable",
      "type": "function"
    },
    {
      "inputs": [],
      "name": "interval",
      "outputs": [
        {
          "internalType": "uint256",
          "name": "",
          "type": "uint256"
        }
      ],
      "stateMutability": "view",
      "type": "function"
    },
    {
      "inputs": [
        {
          "internalType": "address",
          "name": "account",
          "type": "address"
        },
        {
          "internalType": "uint256",
          "name": "amount",
          "type": "uint256"
        }
      ],
      "name": "mint",
      "outputs": [],
      "stateMutability": "nonpayable",
      "type": "function"
    },
    {
      "inputs": [],
      "name": "name",
      "outputs": [
        {
          "internalType": "string",
          "name": "",
          "type": "string"
        }
      ],
      "stateMutability": "view",
      "type": "function"
    },
    {
      "inputs": [],
      "name": "openMint",
      "outputs": [
        {
          "internalType": "bool",
          "name": "",
          "type": "bool"
        }
      ],
      "stateMutability": "view",
      "type": "function"
    },
    {
      "inputs": [],
      "name": "owner",
      "outputs": [
        {
          "internalType": "address",
          "name": "",
          "type": "address"
        }
      ],
      "stateMutability": "view",
      "type": "function"
    },
    {
      "inputs": [
        {
          "internalType": "uint256",
          "name": "_faucetAmount",
          "type": "uint256"
        }
      ],
      "name": "setFaucetAmount",
      "outputs": [],
      "stateMutability": "nonpayable",
      "type": "function"
    },
    {
      "inputs": [
        {
          "internalType": "uint256",
          "name": "_faucetTotal",
          "type": "uint256"
        }
      ],
      "name": "setFaucetTotal",
      "outputs": [],
      "stateMutability": "nonpayable",
      "type": "function"
    },
    {
      "inputs": [
        {
          "internalType": "uint256",
          "name": "_inverval",
          "type": "uint256"
        }
      ],
      "name": "setInterval",
      "outputs": [],
      "stateMutability": "nonpayable",
      "type": "function"
    },
    {
      "inputs": [
        {
          "internalType": "bool",
          "name": "open",
          "type": "bool"
        }
      ],
      "name": "setOpenMint",
      "outputs": [],
      "stateMutability": "nonpayable",
      "type": "function"
    },
    {
      "inputs": [],
      "name": "symbol",
      "outputs": [
        {
          "internalType": "string",
          "name": "",
          "type": "string"
        }
      ],
      "stateMutability": "view",
      "type": "function"
    },
    {
      "inputs": [],
      "name": "totalSupply",
      "outputs": [
        {
          "internalType": "uint256",
          "name": "",
          "type": "uint256"
        }
      ],
      "stateMutability": "view",
      "type": "function"
    },
    {
      "inputs": [
        {
          "internalType": "address",
          "name": "recipient",
          "type": "address"
        },
        {
          "internalType": "uint256",
          "name": "amount",
          "type": "uint256"
        }
      ],
      "name": "transfer",
      "outputs": [
        {
          "internalType": "bool",
          "name": "",
          "type": "bool"
        }
      ],
      "stateMutability": "nonpayable",
      "type": "function"
    },
    {
      "inputs": [
        {
          "internalType": "address",
          "name": "sender",
          "type": "address"
        },
        {
          "internalType": "address",
          "name": "recipient",
          "type": "address"
        },
        {
          "internalType": "uint256",
          "name": "amount",
          "type": "uint256"
        }
      ],
      "name": "transferFrom",
      "outputs": [
        {
          "internalType": "bool",
          "name": "",
          "type": "bool"
        }
      ],
      "stateMutability": "nonpayable",
      "type": "function"
    },
    {
      "inputs": [
        {
          "internalType": "address",
          "name": "_owner",
          "type": "address"
        }
      ],
      "name": "transferOwnership",
      "outputs": [],
      "stateMutability": "nonpayable",
      "type": "function"
    },
    {
      "inputs": [
        {
          "internalType": "uint256",
          "name": "amount",
          "type": "uint256"
        }
      ],
      "name": "withdraw",
      "outputs": [],
      "stateMutability": "nonpayable",
      "type": "function"
    },
    {
      "inputs": [
        {
          "internalType": "address",
          "name": "token",
          "type": "address"
        },
        {
          "internalType": "address",
          "name": "account",
          "type": "address"
        },
        {
          "internalType": "uint256",
          "name": "amount",
          "type": "uint256"
        }
      ],
      "name": "withdrawToken",
      "outputs": [],
      "stateMutability": "nonpayable",
      "type": "function"
    }
  ],
  "transactionHash": "0x8258e88f98528cad0e36166e7dac70c7d59bcc6e498c7bf0c9f6338f1472d9c9",
  "args": [
    "ORDI",
    18,
    0,
    0,
    0
  ],
  "numDeployments": 1,
  "solcInputHash": "961be181bab2b100ef5d1333db420c31",
  "bytecode": "0x6080604052600a805460ff191690553480156200001b57600080fd5b506040516200186f3803806200186f833981810160405260a08110156200004157600080fd5b81019080805160405193929190846401000000008211156200006257600080fd5b9083019060208201858111156200007857600080fd5b82516401000000008111828201881017156200009357600080fd5b82525081516020918201929091019080838360005b83811015620000c2578181015183820152602001620000a8565b50505050905090810190601f168015620000f05780820380516001836020036101000a031916815260200191505b5060409081526020828101519183015160608401516080909401518751939650909450916200012691600391908801906200017b565b5084516200013c9060049060208801906200017b565b506005805460069290925560079390935560089190915560ff191660ff9290921691909117610100600160a81b03191661010033021790555062000217565b828054600181600116156101000203166002900490600052602060002090601f016020900481019282601f10620001be57805160ff1916838001178555620001ee565b82800160010185558215620001ee579182015b82811115620001ee578251825591602001919060010190620001d1565b50620001fc92915062000200565b5090565b5b80821115620001fc576000815560010162000201565b61164880620002276000396000f3fe6080604052600436106101775760003560e01c80638da5cb5b116100cc578063a9059cbb1161007a578063a9059cbb14610586578063bce6d672146105bf578063d0e30db0146105d4578063dd62ed3e146105dc578063de5f72fd14610617578063e2af30f41461062c578063f2fde38b1461065857610177565b80638da5cb5b1461047a578063947a36fb146104ab57806395d89b41146104c05780639c281430146104d55780639dc29fac146104ea578063a01c2d7114610523578063a457c2d71461054d57610177565b80632e1a7d4d116101295780632e1a7d4d14610341578063313ce5671461036b578063395093511461039657806340c10f19146103cf5780634c303cb21461040857806370a082311461041d57806381d2fd9c1461045057610177565b806301e336671461017c57806306fdde03146101c1578063095ea7b31461024b57806318160ddd1461029857806322a90082146102bf57806323b872dd146102e9578063294e4c661461032c575b600080fd5b34801561018857600080fd5b506101bf6004803603606081101561019f57600080fd5b506001600160a01b0381358116916020810135909116906040013561068b565b005b3480156101cd57600080fd5b506101d6610713565b6040805160208082528351818301528351919283929083019185019080838360005b838110156102105781810151838201526020016101f8565b50505050905090810190601f16801561023d5780820380516001836020036101000a031916815260200191505b509250505060405180910390f35b34801561025757600080fd5b506102846004803603604081101561026e57600080fd5b506001600160a01b0381351690602001356107a9565b604080519115158252519081900360200190f35b3480156102a457600080fd5b506102ad6107c6565b60408051918252519081900360200190f35b3480156102cb57600080fd5b506101bf600480360360208110156102e257600080fd5b50356107cc565b3480156102f557600080fd5b506102846004803603606081101561030c57600080fd5b506001600160a01b0381358116916020810135909116906040013561082e565b34801561033857600080fd5b506102ad6108b5565b34801561034d57600080fd5b506101bf6004803603602081101561036457600080fd5b50356108bb565b34801561037757600080fd5b506103806109c1565b6040805160ff9092168252519081900360200190f35b3480156103a257600080fd5b50610284600480360360408110156103b957600080fd5b506001600160a01b0381351690602001356109ca565b3480156103db57600080fd5b506101bf600480360360408110156103f257600080fd5b506001600160a01b038135169060200135610a18565b34801561041457600080fd5b506102ad610a89565b34801561042957600080fd5b506102ad6004803603602081101561044057600080fd5b50356001600160a01b0316610a8f565b34801561045c57600080fd5b506101bf6004803603602081101561047357600080fd5b5035610aaa565b34801561048657600080fd5b5061048f610b0c565b604080516001600160a01b039092168252519081900360200190f35b3480156104b757600080fd5b506102ad610b20565b3480156104cc57600080fd5b506101d6610b26565b3480156104e157600080fd5b506102ad610b87565b3480156104f657600080fd5b506101bf6004803603604081101561050d57600080fd5b506001600160a01b038135169060200135610b8d565b34801561052f57600080fd5b506101bf6004803603602081101561054657600080fd5b5035610bf4565b34801561055957600080fd5b506102846004803603604081101561057057600080fd5b506001600160a01b038135169060200135610c56565b34801561059257600080fd5b50610284600480360360408110156105a957600080fd5b506001600160a01b038135169060200135610cbe565b3480156105cb57600080fd5b50610284610cd2565b6101bf610cdb565b3480156105e857600080fd5b506102ad600480360360408110156105ff57600080fd5b506001600160a01b0381358116916020013516610ce7565b34801561062357600080fd5b506101bf610d12565b34801561063857600080fd5b506101bf6004803603602081101561064f57600080fd5b50351515610e59565b34801561066457600080fd5b506101bf6004803603602081101561067b57600080fd5b50356001600160a01b0316610ec9565b826001600160a01b031663a9059cbb83836040518363ffffffff1660e01b815260040180836001600160a01b0316815260200182815260200192505050602060405180830381600087803b1580156106e257600080fd5b505af11580156106f6573d6000803e3d6000fd5b505050506040513d602081101561070c57600080fd5b5050505050565b60038054604080516020601f600260001961010060018816150201909516949094049384018190048102820181019092528281526060939092909183018282801561079f5780601f106107745761010080835404028352916020019161079f565b820191906000526020600020905b81548152906001019060200180831161078257829003601f168201915b5050505050905090565b60006107bd6107b6610f4e565b8484610f52565b50600192915050565b60025490565b6107d4610f4e565b60055461010090046001600160a01b03908116911614610829576040805162461bcd60e51b8152602060048201526017602482015260008051602061148f833981519152604482015290519081900360640190fd5b600655565b600061083b84848461103e565b6108ab84610847610f4e565b6108a68560405180606001604052806028815260200161153c602891396001600160a01b038a16600090815260016020526040812090610885610f4e565b6001600160a01b031681526020810191909152604001600020549190611187565b610f52565b5060019392505050565b60095481565b3360009081526020819052604090205481111561091f576040805162461bcd60e51b815260206004820152601b60248201527f546f6b656e3a20696e73756666696369656e742062616c616e63650000000000604482015290519081900360640190fd5b610929338261121e565b604051600090339083908381818185875af1925050503d806000811461096b576040519150601f19603f3d011682016040523d82523d6000602084013e610970565b606091505b50509050806109bd576040805162461bcd60e51b81526020600482015260146024820152733330b4b632b2103a379039b2b7321032ba3432b960611b604482015290519081900360640190fd5b5050565b60055460ff1690565b60006107bd6109d7610f4e565b846108a685600160006109e8610f4e565b6001600160a01b03908116825260208083019390935260409182016000908120918c168152925290205490611308565b600a5460ff16610a7f57610a2a610f4e565b60055461010090046001600160a01b03908116911614610a7f576040805162461bcd60e51b8152602060048201526017602482015260008051602061148f833981519152604482015290519081900360640190fd5b6109bd8282611369565b60075481565b6001600160a01b031660009081526020819052604090205490565b610ab2610f4e565b60055461010090046001600160a01b03908116911614610b07576040805162461bcd60e51b8152602060048201526017602482015260008051602061148f833981519152604482015290519081900360640190fd5b600855565b60055461010090046001600160a01b031681565b60065481565b60048054604080516020601f600260001961010060018816150201909516949094049384018190048102820181019092528281526060939092909183018282801561079f5780601f106107745761010080835404028352916020019161079f565b60085481565b610b95610f4e565b60055461010090046001600160a01b03908116911614610bea576040805162461bcd60e51b8152602060048201526017602482015260008051602061148f833981519152604482015290519081900360640190fd5b6109bd828261121e565b610bfc610f4e565b60055461010090046001600160a01b03908116911614610c51576040805162461bcd60e51b8152602060048201526017602482015260008051602061148f833981519152604482015290519081900360640190fd5b600755565b60006107bd610c63610f4e565b846108a6856040518060600160405280602581526020016115ee6025913960016000610c8d610f4e565b6001600160a01b03908116825260208083019390935260409182016000908120918d16815292529020549190611187565b60006107bd610ccb610f4e565b848461103e565b600a5460ff1681565b610ce53334611369565b565b6001600160a01b03918216600090815260016020908152604080832093909416825291909152205490565b600060085411610d69576040805162461bcd60e51b815260206004820152601a60248201527f466175636574206973206e6f7420656e61626c6564206e6f772e000000000000604482015290519081900360640190fd5b600854600954016007541015610dc6576040805162461bcd60e51b815260206004820152601a60248201527f4661756365742069732072756e6e696e67206f7574206e6f772e000000000000604482015290519081900360640190fd5b600654336000908152600b602052604090205442031015610e2e576040805162461bcd60e51b815260206004820152601f60248201527f46617563657420696e74657276616c206973206e6f7420657870697265642e00604482015290519081900360640190fd5b60088054600980549091019055336000818152600b602052604090204290559054610ce59190611369565b610e61610f4e565b60055461010090046001600160a01b03908116911614610eb6576040805162461bcd60e51b8152602060048201526017602482015260008051602061148f833981519152604482015290519081900360640190fd5b600a805460ff1916911515919091179055565b610ed1610f4e565b60055461010090046001600160a01b03908116911614610f26576040805162461bcd60e51b8152602060048201526017602482015260008051602061148f833981519152604482015290519081900360640190fd5b600580546001600160a01b0390921661010002610100600160a81b0319909216919091179055565b3390565b6001600160a01b038316610f975760405162461bcd60e51b81526004018080602001828103825260248152602001806115ca6024913960400191505060405180910390fd5b6001600160a01b038216610fdc5760405162461bcd60e51b81526004018080602001828103825260228152602001806114f46022913960400191505060405180910390fd5b6001600160a01b03808416600081815260016020908152604080832094871680845294825291829020859055815185815291517f8c5be1e5ebec7d5bd14f71427d1e84f3dd0314c0f7b2291e5b200ac8c7c3b9259281900390910190a3505050565b6001600160a01b0383166110835760405162461bcd60e51b81526004018080602001828103825260258152602001806115a56025913960400191505060405180910390fd5b6001600160a01b0382166110c85760405162461bcd60e51b81526004018080602001828103825260238152602001806114af6023913960400191505060405180910390fd5b6110d3838383611447565b61111081604051806060016040528060268152602001611516602691396001600160a01b0386166000908152602081905260409020549190611187565b6001600160a01b03808516600090815260208190526040808220939093559084168152205461113f9082611308565b6001600160a01b0380841660008181526020818152604091829020949094558051858152905191939287169260008051602061156483398151915292918290030190a3505050565b600081848411156112165760405162461bcd60e51b81526004018080602001828103825283818151815260200191508051906020019080838360005b838110156111db5781810151838201526020016111c3565b50505050905090810190601f1680156112085780820380516001836020036101000a031916815260200191505b509250505060405180910390fd5b505050900390565b6001600160a01b0382166112635760405162461bcd60e51b81526004018080602001828103825260218152602001806115846021913960400191505060405180910390fd5b61126f82600083611447565b6112ac816040518060600160405280602281526020016114d2602291396001600160a01b0385166000908152602081905260409020549190611187565b6001600160a01b0383166000908152602081905260409020556002546112d2908261144c565b6002556040805182815290516000916001600160a01b038516916000805160206115648339815191529181900360200190a35050565b600082820183811015611362576040805162461bcd60e51b815260206004820152601b60248201527f536166654d6174683a206164646974696f6e206f766572666c6f770000000000604482015290519081900360640190fd5b9392505050565b6001600160a01b0382166113c4576040805162461bcd60e51b815260206004820152601f60248201527f45524332303a206d696e7420746f20746865207a65726f206164647265737300604482015290519081900360640190fd5b6113d060008383611447565b6002546113dd9082611308565b6002556001600160a01b0382166000908152602081905260409020546114039082611308565b6001600160a01b0383166000818152602081815260408083209490945583518581529351929391926000805160206115648339815191529281900390910190a35050565b505050565b600061136283836040518060400160405280601e81526020017f536166654d6174683a207375627472616374696f6e206f766572666c6f77000081525061118756fe43616c6c6572206973206e6f7420746865206f776e657200000000000000000045524332303a207472616e7366657220746f20746865207a65726f206164647265737345524332303a206275726e20616d6f756e7420657863656564732062616c616e636545524332303a20617070726f766520746f20746865207a65726f206164647265737345524332303a207472616e7366657220616d6f756e7420657863656564732062616c616e636545524332303a207472616e7366657220616d6f756e74206578636565647320616c6c6f77616e6365ddf252ad1be2c89b69c2b068fc378daa952ba7f163c4a11628f55a4df523b3ef45524332303a206275726e2066726f6d20746865207a65726f206164647265737345524332303a207472616e736665722066726f6d20746865207a65726f206164647265737345524332303a20617070726f76652066726f6d20746865207a65726f206164647265737345524332303a2064656372656173656420616c6c6f77616e63652062656c6f77207a65726fa2646970667358221220d830707fb750fd4f919b6a98e68b85cf3753c7f7639f2f76c62d269c88887a7964736f6c634300060c0033",
  "devdoc": {
    "details": "Implementation of the {IERC20} interface. This implementation is agnostic to the way tokens are created. This means that a supply mechanism has to be added in a derived contract using {_mint}. For a generic mechanism see {ERC20PresetMinterPauser}. TIP: For a detailed writeup see our guide https://forum.zeppelin.solutions/t/how-to-implement-erc20-supply-mechanisms/226[How to implement supply mechanisms]. We have followed general OpenZeppelin guidelines: functions revert instead of returning `false` on failure. This behavior is nonetheless conventional and does not conflict with the expectations of ERC20 applications. Additionally, an {Approval} event is emitted on calls to {transferFrom}. This allows applications to reconstruct the allowance for all accounts just by listening to said events. Other implementations of the EIP may not emit these events, as it isn't required by the specification. Finally, the non-standard {decreaseAllowance} and {increaseAllowance} functions have been added to mitigate the well-known issues around setting allowances. See {IERC20-approve}.",
    "kind": "dev",
    "methods": {
      "allowance(address,address)": {
        "details": "See {IERC20-allowance}."
      },
      "approve(address,uint256)": {
        "details": "See {IERC20-approve}. Requirements: - `spender` cannot be the zero address."
      },
      "balanceOf(address)": {
        "details": "See {IERC20-balanceOf}."
      },
      "constructor": {
        "details": "Sets the values for {name} and {symbol}, initializes {decimals} with a default value of 18. To select a different value for {decimals}, use {_setupDecimals}. All three of these values are immutable: they can only be set once during construction."
      },
      "decimals()": {
        "details": "Returns the number of decimals used to get its user representation. For example, if `decimals` equals `2`, a balance of `505` tokens should be displayed to a user as `5,05` (`505 / 10 ** 2`). Tokens usually opt for a value of 18, imitating the relationship between Ether and Wei. This is the value {ERC20} uses, unless {_setupDecimals} is called. NOTE: This information is only used for _display_ purposes: it in no way affects any of the arithmetic of the contract, including {IERC20-balanceOf} and {IERC20-transfer}."
      },
      "decreaseAllowance(address,uint256)": {
        "details": "Atomically decreases the allowance granted to `spender` by the caller. This is an alternative to {approve} that can be used as a mitigation for problems described in {IERC20-approve}. Emits an {Approval} event indicating the updated allowance. Requirements: - `spender` cannot be the zero address. - `spender` must have allowance for the caller of at least `subtractedValue`."
      },
      "increaseAllowance(address,uint256)": {
        "details": "Atomically increases the allowance granted to `spender` by the caller. This is an alternative to {approve} that can be used as a mitigation for problems described in {IERC20-approve}. Emits an {Approval} event indicating the updated allowance. Requirements: - `spender` cannot be the zero address."
      },
      "name()": {
        "details": "Returns the name of the token."
      },
      "symbol()": {
        "details": "Returns the symbol of the token, usually a shorter version of the name."
      },
      "totalSupply()": {
        "details": "See {IERC20-totalSupply}."
      },
      "transfer(address,uint256)": {
        "details": "See {IERC20-transfer}. Requirements: - `recipient` cannot be the zero address. - the caller must have a balance of at least `amount`."
      },
      "transferFrom(address,address,uint256)": {
        "details": "See {IERC20-transferFrom}. Emits an {Approval} event indicating the updated allowance. This is not required by the EIP. See the note at the beginning of {ERC20}. Requirements: - `sender` and `recipient` cannot be the zero address. - `sender` must have a balance of at least `amount`. - the caller must have allowance for ``sender``'s tokens of at least `amount`."
      }
    },
    "version": 1
  },
  "userdoc": {
    "kind": "user",
    "methods": {},
    "version": 1
  },
  "storageLayout": {
    "storage": [
      {
        "astId": 15377,
        "contract": "contracts/mock/Token.sol:Token",
        "label": "_balances",
        "offset": 0,
        "slot": "0",
        "type": "t_mapping(t_address,t_uint256)"
      },
      {
        "astId": 15383,
        "contract": "contracts/mock/Token.sol:Token",
        "label": "_allowances",
        "offset": 0,
        "slot": "1",
        "type": "t_mapping(t_address,t_mapping(t_address,t_uint256))"
      },
      {
        "astId": 15385,
        "contract": "contracts/mock/Token.sol:Token",
        "label": "_totalSupply",
        "offset": 0,
        "slot": "2",
        "type": "t_uint256"
      },
      {
        "astId": 15387,
        "contract": "contracts/mock/Token.sol:Token",
        "label": "_name",
        "offset": 0,
        "slot": "3",
        "type": "t_string_storage"
      },
      {
        "astId": 15389,
        "contract": "contracts/mock/Token.sol:Token",
        "label": "_symbol",
        "offset": 0,
        "slot": "4",
        "type": "t_string_storage"
      },
      {
        "astId": 15391,
        "contract": "contracts/mock/Token.sol:Token",
        "label": "_decimals",
        "offset": 0,
        "slot": "5",
        "type": "t_uint8"
      },
      {
        "astId": 15393,
        "contract": "contracts/mock/Token.sol:Token",
        "label": "owner",
        "offset": 1,
        "slot": "5",
        "type": "t_address"
      },
      {
        "astId": 15395,
        "contract": "contracts/mock/Token.sol:Token",
        "label": "interval",
        "offset": 0,
        "slot": "6",
        "type": "t_uint256"
      },
      {
        "astId": 15397,
        "contract": "contracts/mock/Token.sol:Token",
        "label": "faucetTotal",
        "offset": 0,
        "slot": "7",
        "type": "t_uint256"
      },
      {
        "astId": 15399,
        "contract": "contracts/mock/Token.sol:Token",
        "label": "faucetAmount",
        "offset": 0,
        "slot": "8",
        "type": "t_uint256"
      },
      {
        "astId": 15401,
        "contract": "contracts/mock/Token.sol:Token",
        "label": "giveawayTotal",
        "offset": 0,
        "slot": "9",
        "type": "t_uint256"
      },
      {
        "astId": 15404,
        "contract": "contracts/mock/Token.sol:Token",
        "label": "openMint",
        "offset": 0,
        "slot": "10",
        "type": "t_bool"
      },
      {
        "astId": 15408,
        "contract": "contracts/mock/Token.sol:Token",
        "label": "accountLastTime",
        "offset": 0,
        "slot": "11",
        "type": "t_mapping(t_address,t_uint256)"
      }
    ],
    "types": {
      "t_address": {
        "encoding": "inplace",
        "label": "address",
        "numberOfBytes": "20"
      },
      "t_bool": {
        "encoding": "inplace",
        "label": "bool",
        "numberOfBytes": "1"
      },
      "t_mapping(t_address,t_mapping(t_address,t_uint256))": {
        "encoding": "mapping",
        "key": "t_address",
        "label": "mapping(address => mapping(address => uint256))",
        "numberOfBytes": "32",
        "value": "t_mapping(t_address,t_uint256)"
      },
      "t_mapping(t_address,t_uint256)": {
        "encoding": "mapping",
        "key": "t_address",
        "label": "mapping(address => uint256)",
        "numberOfBytes": "32",
        "value": "t_uint256"
      },
      "t_string_storage": {
        "encoding": "bytes",
        "label": "string",
        "numberOfBytes": "32"
      },
      "t_uint256": {
        "encoding": "inplace",
        "label": "uint256",
        "numberOfBytes": "32"
      },
      "t_uint8": {
        "encoding": "inplace",
        "label": "uint8",
        "numberOfBytes": "1"
      }
    }
  }
}