{
  "address": "0x709B9146219E61dC811f7A469943ADa60E013475",
  "abi": [
    {
      "inputs": [],
      "stateMutability": "nonpayable",
      "type": "constructor"
    },
    {
      "inputs": [
        {
          "internalType": "address",
          "name": "_router",
          "type": "address"
        }
      ],
      "name": "addRouter",
      "outputs": [],
      "stateMutability": "nonpayable",
      "type": "function"
    },
    {
      "inputs": [
        {
          "internalType": "uint256",
          "name": "_amount",
          "type": "uint256"
        },
        {
          "internalType": "address",
          "name": "_tokenDiv",
          "type": "address"
        },
        {
          "internalType": "address",
          "name": "_tokenMul",
          "type": "address"
        }
      ],
      "name": "adjustForDecimals",
      "outputs": [
        {
          "internalType": "uint256",
          "name": "",
          "type": "uint256"
        }
      ],
      "stateMutability": "view",
      "type": "function"
    },
    {
      "inputs": [
        {
          "internalType": "uint256",
          "name": "",
          "type": "uint256"
        }
      ],
      "name": "allWhitelistedTokens",
      "outputs": [
        {
          "internalType": "address",
          "name": "",
          "type": "address"
        }
      ],
      "stateMutability": "view",
      "type": "function"
    },
    {
      "inputs": [],
      "name": "allWhitelistedTokensLength",
      "outputs": [
        {
          "internalType": "uint256",
          "name": "",
          "type": "uint256"
        }
      ],
      "stateMutability": "view",
      "type": "function"
    },
    {
      "inputs": [],
      "name": "allowStaleEquityPrice",
      "outputs": [
        {
          "internalType": "bool",
          "name": "",
          "type": "bool"
        }
      ],
      "stateMutability": "view",
      "type": "function"
    },
    {
      "inputs": [
        {
          "internalType": "address",
          "name": "",
          "type": "address"
        },
        {
          "internalType": "address",
          "name": "",
          "type": "address"
        }
      ],
      "name": "approvedRouters",
      "outputs": [
        {
          "internalType": "bool",
          "name": "",
          "type": "bool"
        }
      ],
      "stateMutability": "view",
      "type": "function"
    },
    {
      "inputs": [
        {
          "internalType": "address",
          "name": "",
          "type": "address"
        }
      ],
      "name": "bufferAmounts",
      "outputs": [
        {
          "internalType": "uint256",
          "name": "",
          "type": "uint256"
        }
      ],
      "stateMutability": "view",
      "type": "function"
    },
    {
      "inputs": [
        {
          "internalType": "address",
          "name": "_token",
          "type": "address"
        },
        {
          "internalType": "address",
          "name": "_receiver",
          "type": "address"
        }
      ],
      "name": "buyZKUSD",
      "outputs": [
        {
          "internalType": "uint256",
          "name": "",
          "type": "uint256"
        }
      ],
      "stateMutability": "nonpayable",
      "type": "function"
    },
    {
      "inputs": [
        {
          "internalType": "address",
          "name": "_token",
          "type": "address"
        }
      ],
      "name": "clearTokenConfig",
      "outputs": [],
      "stateMutability": "nonpayable",
      "type": "function"
    },
    {
      "inputs": [
        {
          "internalType": "address",
          "name": "",
          "type": "address"
        }
      ],
      "name": "cumulativeFundingRates",
      "outputs": [
        {
          "internalType": "uint256",
          "name": "",
          "type": "uint256"
        }
      ],
      "stateMutability": "view",
      "type": "function"
    },
    {
      "inputs": [
        {
          "internalType": "address",
          "name": "_account",
          "type": "address"
        },
        {
          "internalType": "address",
          "name": "_collateralToken",
          "type": "address"
        },
        {
          "internalType": "address",
          "name": "_indexToken",
          "type": "address"
        },
        {
          "internalType": "uint256",
          "name": "_collateralDelta",
          "type": "uint256"
        },
        {
          "internalType": "uint256",
          "name": "_sizeDelta",
          "type": "uint256"
        },
        {
          "internalType": "bool",
          "name": "_isLong",
          "type": "bool"
        },
        {
          "internalType": "address",
          "name": "_receiver",
          "type": "address"
        }
      ],
      "name": "decreasePosition",
      "outputs": [
        {
          "internalType": "uint256",
          "name": "",
          "type": "uint256"
        }
      ],
      "stateMutability": "nonpayable",
      "type": "function"
    },
    {
      "inputs": [
        {
          "internalType": "address",
          "name": "_token",
          "type": "address"
        }
      ],
      "name": "directPoolDeposit",
      "outputs": [],
      "stateMutability": "nonpayable",
      "type": "function"
    },
    {
      "inputs": [
        {
          "internalType": "address",
          "name": "",
          "type": "address"
        }
      ],
      "name": "equityTokens",
      "outputs": [
        {
          "internalType": "bool",
          "name": "",
          "type": "bool"
        }
      ],
      "stateMutability": "view",
      "type": "function"
    },
    {
      "inputs": [],
      "name": "errorController",
      "outputs": [
        {
          "internalType": "address",
          "name": "",
          "type": "address"
        }
      ],
      "stateMutability": "view",
      "type": "function"
    },
    {
      "inputs": [
        {
          "internalType": "uint256",
          "name": "",
          "type": "uint256"
        }
      ],
      "name": "errors",
      "outputs": [
        {
          "internalType": "string",
          "name": "",
          "type": "string"
        }
      ],
      "stateMutability": "view",
      "type": "function"
    },
    {
      "inputs": [
        {
          "internalType": "address",
          "name": "",
          "type": "address"
        }
      ],
      "name": "feeReserves",
      "outputs": [
        {
          "internalType": "uint256",
          "name": "",
          "type": "uint256"
        }
      ],
      "stateMutability": "view",
      "type": "function"
    },
    {
      "inputs": [],
      "name": "fundingInterval",
      "outputs": [
        {
          "internalType": "uint256",
          "name": "",
          "type": "uint256"
        }
      ],
      "stateMutability": "view",
      "type": "function"
    },
    {
      "inputs": [],
      "name": "fundingRateFactor",
      "outputs": [
        {
          "internalType": "uint256",
          "name": "",
          "type": "uint256"
        }
      ],
      "stateMutability": "view",
      "type": "function"
    },
    {
      "inputs": [
        {
          "internalType": "address",
          "name": "_indexToken",
          "type": "address"
        },
        {
          "internalType": "uint256",
          "name": "_size",
          "type": "uint256"
        },
        {
          "internalType": "uint256",
          "name": "_averagePrice",
          "type": "uint256"
        },
        {
          "internalType": "bool",
          "name": "_isLong",
          "type": "bool"
        },
        {
          "internalType": "uint256",
          "name": "_lastIncreasedTime",
          "type": "uint256"
        }
      ],
      "name": "getDelta",
      "outputs": [
        {
          "internalType": "bool",
          "name": "",
          "type": "bool"
        },
        {
          "internalType": "uint256",
          "name": "",
          "type": "uint256"
        }
      ],
      "stateMutability": "view",
      "type": "function"
    },
    {
      "inputs": [
        {
          "internalType": "address",
          "name": "_collateralToken",
          "type": "address"
        },
        {
          "internalType": "address",
          "name": "_indexToken",
          "type": "address"
        },
        {
          "internalType": "bool",
          "name": "_isLong",
          "type": "bool"
        }
      ],
      "name": "getEntryFundingRate",
      "outputs": [
        {
          "internalType": "uint256",
          "name": "",
          "type": "uint256"
        }
      ],
      "stateMutability": "view",
      "type": "function"
    },
    {
      "inputs": [
        {
          "internalType": "address",
          "name": "_token",
          "type": "address"
        },
        {
          "internalType": "uint256",
          "name": "_zkusdDelta",
          "type": "uint256"
        },
        {
          "internalType": "uint256",
          "name": "_feeBasisPoints",
          "type": "uint256"
        },
        {
          "internalType": "uint256",
          "name": "_taxBasisPoints",
          "type": "uint256"
        },
        {
          "internalType": "bool",
          "name": "_increment",
          "type": "bool"
        }
      ],
      "name": "getFeeBasisPoints",
      "outputs": [
        {
          "internalType": "uint256",
          "name": "",
          "type": "uint256"
        }
      ],
      "stateMutability": "view",
      "type": "function"
    },
    {
      "inputs": [
        {
          "internalType": "address",
          "name": "_account",
          "type": "address"
        },
        {
          "internalType": "address",
          "name": "_collateralToken",
          "type": "address"
        },
        {
          "internalType": "address",
          "name": "_indexToken",
          "type": "address"
        },
        {
          "internalType": "bool",
          "name": "_isLong",
          "type": "bool"
        },
        {
          "internalType": "uint256",
          "name": "_size",
          "type": "uint256"
        },
        {
          "internalType": "uint256",
          "name": "_entryFundingRate",
          "type": "uint256"
        }
      ],
      "name": "getFundingFee",
      "outputs": [
        {
          "internalType": "uint256",
          "name": "",
          "type": "uint256"
        }
      ],
      "stateMutability": "view",
      "type": "function"
    },
    {
      "inputs": [
        {
          "internalType": "address",
          "name": "_token",
          "type": "address"
        }
      ],
      "name": "getMaxPrice",
      "outputs": [
        {
          "internalType": "uint256",
          "name": "",
          "type": "uint256"
        }
      ],
      "stateMutability": "view",
      "type": "function"
    },
    {
      "inputs": [
        {
          "internalType": "address",
          "name": "_token",
          "type": "address"
        }
      ],
      "name": "getMinPrice",
      "outputs": [
        {
          "internalType": "uint256",
          "name": "",
          "type": "uint256"
        }
      ],
      "stateMutability": "view",
      "type": "function"
    },
    {
      "inputs": [
        {
          "internalType": "address",
          "name": "_indexToken",
          "type": "address"
        },
        {
          "internalType": "uint256",
          "name": "_size",
          "type": "uint256"
        },
        {
          "internalType": "uint256",
          "name": "_averagePrice",
          "type": "uint256"
        },
        {
          "internalType": "bool",
          "name": "_isLong",
          "type": "bool"
        },
        {
          "internalType": "uint256",
          "name": "_nextPrice",
          "type": "uint256"
        },
        {
          "internalType": "uint256",
          "name": "_sizeDelta",
          "type": "uint256"
        },
        {
          "internalType": "uint256",
          "name": "_lastIncreasedTime",
          "type": "uint256"
        }
      ],
      "name": "getNextAveragePrice",
      "outputs": [
        {
          "internalType": "uint256",
          "name": "",
          "type": "uint256"
        }
      ],
      "stateMutability": "view",
      "type": "function"
    },
    {
      "inputs": [
        {
          "internalType": "address",
          "name": "_token",
          "type": "address"
        }
      ],
      "name": "getNextFundingRate",
      "outputs": [
        {
          "internalType": "uint256",
          "name": "",
          "type": "uint256"
        }
      ],
      "stateMutability": "view",
      "type": "function"
    },
    {
      "inputs": [
        {
          "internalType": "address",
          "name": "_indexToken",
          "type": "address"
        },
        {
          "internalType": "uint256",
          "name": "_nextPrice",
          "type": "uint256"
        },
        {
          "internalType": "uint256",
          "name": "_sizeDelta",
          "type": "uint256"
        }
      ],
      "name": "getNextGlobalShortAveragePrice",
      "outputs": [
        {
          "internalType": "uint256",
          "name": "",
          "type": "uint256"
        }
      ],
      "stateMutability": "view",
      "type": "function"
    },
    {
      "inputs": [
        {
          "internalType": "address",
          "name": "_account",
          "type": "address"
        },
        {
          "internalType": "address",
          "name": "_collateralToken",
          "type": "address"
        },
        {
          "internalType": "address",
          "name": "_indexToken",
          "type": "address"
        },
        {
          "internalType": "bool",
          "name": "_isLong",
          "type": "bool"
        }
      ],
      "name": "getPosition",
      "outputs": [
        {
          "internalType": "uint256",
          "name": "",
          "type": "uint256"
        },
        {
          "internalType": "uint256",
          "name": "",
          "type": "uint256"
        },
        {
          "internalType": "uint256",
          "name": "",
          "type": "uint256"
        },
        {
          "internalType": "uint256",
          "name": "",
          "type": "uint256"
        },
        {
          "internalType": "uint256",
          "name": "",
          "type": "uint256"
        },
        {
          "internalType": "uint256",
          "name": "",
          "type": "uint256"
        },
        {
          "internalType": "bool",
          "name": "",
          "type": "bool"
        },
        {
          "internalType": "uint256",
          "name": "",
          "type": "uint256"
        }
      ],
      "stateMutability": "view",
      "type": "function"
    },
    {
      "inputs": [
        {
          "internalType": "address",
          "name": "_account",
          "type": "address"
        },
        {
          "internalType": "address",
          "name": "_collateralToken",
          "type": "address"
        },
        {
          "internalType": "address",
          "name": "_indexToken",
          "type": "address"
        },
        {
          "internalType": "bool",
          "name": "_isLong",
          "type": "bool"
        }
      ],
      "name": "getPositionDelta",
      "outputs": [
        {
          "internalType": "bool",
          "name": "",
          "type": "bool"
        },
        {
          "internalType": "uint256",
          "name": "",
          "type": "uint256"
        }
      ],
      "stateMutability": "view",
      "type": "function"
    },
    {
      "inputs": [
        {
          "internalType": "address",
          "name": "_account",
          "type": "address"
        },
        {
          "internalType": "address",
          "name": "_collateralToken",
          "type": "address"
        },
        {
          "internalType": "address",
          "name": "_indexToken",
          "type": "address"
        },
        {
          "internalType": "bool",
          "name": "_isLong",
          "type": "bool"
        },
        {
          "internalType": "uint256",
          "name": "_sizeDelta",
          "type": "uint256"
        }
      ],
      "name": "getPositionFee",
      "outputs": [
        {
          "internalType": "uint256",
          "name": "",
          "type": "uint256"
        }
      ],
      "stateMutability": "view",
      "type": "function"
    },
    {
      "inputs": [
        {
          "internalType": "address",
          "name": "_account",
          "type": "address"
        },
        {
          "internalType": "address",
          "name": "_collateralToken",
          "type": "address"
        },
        {
          "internalType": "address",
          "name": "_indexToken",
          "type": "address"
        },
        {
          "internalType": "bool",
          "name": "_isLong",
          "type": "bool"
        }
      ],
      "name": "getPositionKey",
      "outputs": [
        {
          "internalType": "bytes32",
          "name": "",
          "type": "bytes32"
        }
      ],
      "stateMutability": "pure",
      "type": "function"
    },
    {
      "inputs": [
        {
          "internalType": "address",
          "name": "_token",
          "type": "address"
        },
        {
          "internalType": "uint256",
          "name": "_zkusdAmount",
          "type": "uint256"
        }
      ],
      "name": "getRedemptionAmount",
      "outputs": [
        {
          "internalType": "uint256",
          "name": "",
          "type": "uint256"
        }
      ],
      "stateMutability": "view",
      "type": "function"
    },
    {
      "inputs": [
        {
          "internalType": "address",
          "name": "_token",
          "type": "address"
        }
      ],
      "name": "getTargetZkusdAmount",
      "outputs": [
        {
          "internalType": "uint256",
          "name": "",
          "type": "uint256"
        }
      ],
      "stateMutability": "view",
      "type": "function"
    },
    {
      "inputs": [
        {
          "internalType": "address",
          "name": "",
          "type": "address"
        }
      ],
      "name": "globalShortAveragePrices",
      "outputs": [
        {
          "internalType": "uint256",
          "name": "",
          "type": "uint256"
        }
      ],
      "stateMutability": "view",
      "type": "function"
    },
    {
      "inputs": [
        {
          "internalType": "address",
          "name": "",
          "type": "address"
        }
      ],
      "name": "globalShortSizes",
      "outputs": [
        {
          "internalType": "uint256",
          "name": "",
          "type": "uint256"
        }
      ],
      "stateMutability": "view",
      "type": "function"
    },
    {
      "inputs": [],
      "name": "gov",
      "outputs": [
        {
          "internalType": "address",
          "name": "",
          "type": "address"
        }
      ],
      "stateMutability": "view",
      "type": "function"
    },
    {
      "inputs": [
        {
          "internalType": "address",
          "name": "",
          "type": "address"
        }
      ],
      "name": "guaranteedUsd",
      "outputs": [
        {
          "internalType": "uint256",
          "name": "",
          "type": "uint256"
        }
      ],
      "stateMutability": "view",
      "type": "function"
    },
    {
      "inputs": [],
      "name": "hasDynamicFees",
      "outputs": [
        {
          "internalType": "bool",
          "name": "",
          "type": "bool"
        }
      ],
      "stateMutability": "view",
      "type": "function"
    },
    {
      "inputs": [],
      "name": "inManagerMode",
      "outputs": [
        {
          "internalType": "bool",
          "name": "",
          "type": "bool"
        }
      ],
      "stateMutability": "view",
      "type": "function"
    },
    {
      "inputs": [],
      "name": "inPrivateLiquidationMode",
      "outputs": [
        {
          "internalType": "bool",
          "name": "",
          "type": "bool"
        }
      ],
      "stateMutability": "view",
      "type": "function"
    },
    {
      "inputs": [
        {
          "internalType": "address",
          "name": "_account",
          "type": "address"
        },
        {
          "internalType": "address",
          "name": "_collateralToken",
          "type": "address"
        },
        {
          "internalType": "address",
          "name": "_indexToken",
          "type": "address"
        },
        {
          "internalType": "uint256",
          "name": "_sizeDelta",
          "type": "uint256"
        },
        {
          "internalType": "bool",
          "name": "_isLong",
          "type": "bool"
        }
      ],
      "name": "increasePosition",
      "outputs": [],
      "stateMutability": "nonpayable",
      "type": "function"
    },
    {
      "inputs": [
        {
          "internalType": "address",
          "name": "_router",
          "type": "address"
        },
        {
          "internalType": "address",
          "name": "_zkusd",
          "type": "address"
        },
        {
          "internalType": "address",
          "name": "_priceFeed",
          "type": "address"
        },
        {
          "internalType": "uint256",
          "name": "_liquidationFeeUsd",
          "type": "uint256"
        },
        {
          "internalType": "uint256",
          "name": "_fundingRateFactor",
          "type": "uint256"
        },
        {
          "internalType": "uint256",
          "name": "_stableFundingRateFactor",
          "type": "uint256"
        }
      ],
      "name": "initialize",
      "outputs": [],
      "stateMutability": "nonpayable",
      "type": "function"
    },
    {
      "inputs": [],
      "name": "isInitialized",
      "outputs": [
        {
          "internalType": "bool",
          "name": "",
          "type": "bool"
        }
      ],
      "stateMutability": "view",
      "type": "function"
    },
    {
      "inputs": [],
      "name": "isLeverageEnabled",
      "outputs": [
        {
          "internalType": "bool",
          "name": "",
          "type": "bool"
        }
      ],
      "stateMutability": "view",
      "type": "function"
    },
    {
      "inputs": [
        {
          "internalType": "address",
          "name": "",
          "type": "address"
        }
      ],
      "name": "isLiquidator",
      "outputs": [
        {
          "internalType": "bool",
          "name": "",
          "type": "bool"
        }
      ],
      "stateMutability": "view",
      "type": "function"
    },
    {
      "inputs": [
        {
          "internalType": "address",
          "name": "",
          "type": "address"
        }
      ],
      "name": "isManager",
      "outputs": [
        {
          "internalType": "bool",
          "name": "",
          "type": "bool"
        }
      ],
      "stateMutability": "view",
      "type": "function"
    },
    {
      "inputs": [
        {
          "internalType": "address",
          "name": "_account",
          "type": "address"
        },
        {
          "internalType": "address",
          "name": "_collateralToken",
          "type": "address"
        },
        {
          "internalType": "address",
          "name": "_indexToken",
          "type": "address"
        },
        {
          "internalType": "bool",
          "name": "_isLong",
          "type": "bool"
        }
      ],
      "name": "isPositionExist",
      "outputs": [
        {
          "internalType": "bool",
          "name": "exist",
          "type": "bool"
        },
        {
          "internalType": "bytes32",
          "name": "key",
          "type": "bytes32"
        }
      ],
      "stateMutability": "view",
      "type": "function"
    },
    {
      "inputs": [],
      "name": "isSwapEnabled",
      "outputs": [
        {
          "internalType": "bool",
          "name": "",
          "type": "bool"
        }
      ],
      "stateMutability": "view",
      "type": "function"
    },
    {
      "inputs": [
        {
          "internalType": "address",
          "name": "",
          "type": "address"
        }
      ],
      "name": "lastFundingTimes",
      "outputs": [
        {
          "internalType": "uint256",
          "name": "",
          "type": "uint256"
        }
      ],
      "stateMutability": "view",
      "type": "function"
    },
    {
      "inputs": [
        {
          "internalType": "address",
          "name": "_account",
          "type": "address"
        },
        {
          "internalType": "address",
          "name": "_collateralToken",
          "type": "address"
        },
        {
          "internalType": "address",
          "name": "_indexToken",
          "type": "address"
        },
        {
          "internalType": "bool",
          "name": "_isLong",
          "type": "bool"
        },
        {
          "internalType": "address",
          "name": "_feeReceiver",
          "type": "address"
        }
      ],
      "name": "liquidatePosition",
      "outputs": [
        {
          "internalType": "uint256",
          "name": "",
          "type": "uint256"
        }
      ],
      "stateMutability": "nonpayable",
      "type": "function"
    },
    {
      "inputs": [],
      "name": "liquidationFeeUsd",
      "outputs": [
        {
          "internalType": "uint256",
          "name": "",
          "type": "uint256"
        }
      ],
      "stateMutability": "view",
      "type": "function"
    },
    {
      "inputs": [],
      "name": "marginFeeBasisPoints",
      "outputs": [
        {
          "internalType": "uint256",
          "name": "",
          "type": "uint256"
        }
      ],
      "stateMutability": "view",
      "type": "function"
    },
    {
      "inputs": [],
      "name": "maxGasPrice",
      "outputs": [
        {
          "internalType": "uint256",
          "name": "",
          "type": "uint256"
        }
      ],
      "stateMutability": "view",
      "type": "function"
    },
    {
      "inputs": [
        {
          "internalType": "address",
          "name": "",
          "type": "address"
        }
      ],
      "name": "maxGlobalShortSizes",
      "outputs": [
        {
          "internalType": "uint256",
          "name": "",
          "type": "uint256"
        }
      ],
      "stateMutability": "view",
      "type": "function"
    },
    {
      "inputs": [],
      "name": "maxLeverage",
      "outputs": [
        {
          "internalType": "uint256",
          "name": "",
          "type": "uint256"
        }
      ],
      "stateMutability": "view",
      "type": "function"
    },
    {
      "inputs": [
        {
          "internalType": "address",
          "name": "",
          "type": "address"
        }
      ],
      "name": "maxZkusdAmounts",
      "outputs": [
        {
          "internalType": "uint256",
          "name": "",
          "type": "uint256"
        }
      ],
      "stateMutability": "view",
      "type": "function"
    },
    {
      "inputs": [
        {
          "internalType": "address",
          "name": "",
          "type": "address"
        }
      ],
      "name": "minProfitBasisPoints",
      "outputs": [
        {
          "internalType": "uint256",
          "name": "",
          "type": "uint256"
        }
      ],
      "stateMutability": "view",
      "type": "function"
    },
    {
      "inputs": [],
      "name": "minProfitTime",
      "outputs": [
        {
          "internalType": "uint256",
          "name": "",
          "type": "uint256"
        }
      ],
      "stateMutability": "view",
      "type": "function"
    },
    {
      "inputs": [],
      "name": "mintBurnFeeBasisPoints",
      "outputs": [
        {
          "internalType": "uint256",
          "name": "",
          "type": "uint256"
        }
      ],
      "stateMutability": "view",
      "type": "function"
    },
    {
      "inputs": [
        {
          "internalType": "address",
          "name": "",
          "type": "address"
        }
      ],
      "name": "poolAmounts",
      "outputs": [
        {
          "internalType": "uint256",
          "name": "",
          "type": "uint256"
        }
      ],
      "stateMutability": "view",
      "type": "function"
    },
    {
      "inputs": [
        {
          "internalType": "bytes32",
          "name": "",
          "type": "bytes32"
        }
      ],
      "name": "positions",
      "outputs": [
        {
          "internalType": "uint256",
          "name": "size",
          "type": "uint256"
        },
        {
          "internalType": "uint256",
          "name": "collateral",
          "type": "uint256"
        },
        {
          "internalType": "uint256",
          "name": "averagePrice",
          "type": "uint256"
        },
        {
          "internalType": "uint256",
          "name": "entryFundingRate",
          "type": "uint256"
        },
        {
          "internalType": "uint256",
          "name": "reserveAmount",
          "type": "uint256"
        },
        {
          "internalType": "int256",
          "name": "realisedPnl",
          "type": "int256"
        },
        {
          "internalType": "uint256",
          "name": "lastIncreasedTime",
          "type": "uint256"
        }
      ],
      "stateMutability": "view",
      "type": "function"
    },
    {
      "inputs": [],
      "name": "priceFeed",
      "outputs": [
        {
          "internalType": "address",
          "name": "",
          "type": "address"
        }
      ],
      "stateMutability": "view",
      "type": "function"
    },
    {
      "inputs": [
        {
          "internalType": "address",
          "name": "_router",
          "type": "address"
        }
      ],
      "name": "removeRouter",
      "outputs": [],
      "stateMutability": "nonpayable",
      "type": "function"
    },
    {
      "inputs": [
        {
          "internalType": "address",
          "name": "",
          "type": "address"
        }
      ],
      "name": "reservedAmounts",
      "outputs": [
        {
          "internalType": "uint256",
          "name": "",
          "type": "uint256"
        }
      ],
      "stateMutability": "view",
      "type": "function"
    },
    {
      "inputs": [],
      "name": "router",
      "outputs": [
        {
          "internalType": "address",
          "name": "",
          "type": "address"
        }
      ],
      "stateMutability": "view",
      "type": "function"
    },
    {
      "inputs": [
        {
          "internalType": "address",
          "name": "_token",
          "type": "address"
        },
        {
          "internalType": "address",
          "name": "_receiver",
          "type": "address"
        }
      ],
      "name": "sellZKUSD",
      "outputs": [
        {
          "internalType": "uint256",
          "name": "",
          "type": "uint256"
        }
      ],
      "stateMutability": "nonpayable",
      "type": "function"
    },
    {
      "inputs": [
        {
          "internalType": "bool",
          "name": "_allowStaleEquityPrice",
          "type": "bool"
        }
      ],
      "name": "setAllowStableEquity",
      "outputs": [],
      "stateMutability": "nonpayable",
      "type": "function"
    },
    {
      "inputs": [
        {
          "internalType": "address",
          "name": "_token",
          "type": "address"
        },
        {
          "internalType": "uint256",
          "name": "_amount",
          "type": "uint256"
        }
      ],
      "name": "setBufferAmount",
      "outputs": [],
      "stateMutability": "nonpayable",
      "type": "function"
    },
    {
      "inputs": [
        {
          "internalType": "uint256",
          "name": "_errorCode",
          "type": "uint256"
        },
        {
          "internalType": "string",
          "name": "_error",
          "type": "string"
        }
      ],
      "name": "setError",
      "outputs": [],
      "stateMutability": "nonpayable",
      "type": "function"
    },
    {
      "inputs": [
        {
          "internalType": "address",
          "name": "_errorController",
          "type": "address"
        }
      ],
      "name": "setErrorController",
      "outputs": [],
      "stateMutability": "nonpayable",
      "type": "function"
    },
    {
      "inputs": [
        {
          "internalType": "uint256",
          "name": "_taxBasisPoints",
          "type": "uint256"
        },
        {
          "internalType": "uint256",
          "name": "_stableTaxBasisPoints",
          "type": "uint256"
        },
        {
          "internalType": "uint256",
          "name": "_mintBurnFeeBasisPoints",
          "type": "uint256"
        },
        {
          "internalType": "uint256",
          "name": "_swapFeeBasisPoints",
          "type": "uint256"
        },
        {
          "internalType": "uint256",
          "name": "_stableSwapFeeBasisPoints",
          "type": "uint256"
        },
        {
          "internalType": "uint256",
          "name": "_marginFeeBasisPoints",
          "type": "uint256"
        },
        {
          "internalType": "uint256",
          "name": "_liquidationFeeUsd",
          "type": "uint256"
        },
        {
          "internalType": "uint256",
          "name": "_minProfitTime",
          "type": "uint256"
        },
        {
          "internalType": "bool",
          "name": "_hasDynamicFees",
          "type": "bool"
        }
      ],
      "name": "setFees",
      "outputs": [],
      "stateMutability": "nonpayable",
      "type": "function"
    },
    {
      "inputs": [
        {
          "internalType": "uint256",
          "name": "_fundingInterval",
          "type": "uint256"
        },
        {
          "internalType": "uint256",
          "name": "_fundingRateFactor",
          "type": "uint256"
        },
        {
          "internalType": "uint256",
          "name": "_stableFundingRateFactor",
          "type": "uint256"
        }
      ],
      "name": "setFundingRate",
      "outputs": [],
      "stateMutability": "nonpayable",
      "type": "function"
    },
    {
      "inputs": [
        {
          "internalType": "address",
          "name": "_gov",
          "type": "address"
        }
      ],
      "name": "setGov",
      "outputs": [],
      "stateMutability": "nonpayable",
      "type": "function"
    },
    {
      "inputs": [
        {
          "internalType": "bool",
          "name": "_inManagerMode",
          "type": "bool"
        }
      ],
      "name": "setInManagerMode",
      "outputs": [],
      "stateMutability": "nonpayable",
      "type": "function"
    },
    {
      "inputs": [
        {
          "internalType": "bool",
          "name": "_inPrivateLiquidationMode",
          "type": "bool"
        }
      ],
      "name": "setInPrivateLiquidationMode",
      "outputs": [],
      "stateMutability": "nonpayable",
      "type": "function"
    },
    {
      "inputs": [
        {
          "internalType": "bool",
          "name": "_isLeverageEnabled",
          "type": "bool"
        }
      ],
      "name": "setIsLeverageEnabled",
      "outputs": [],
      "stateMutability": "nonpayable",
      "type": "function"
    },
    {
      "inputs": [
        {
          "internalType": "bool",
          "name": "_isSwapEnabled",
          "type": "bool"
        }
      ],
      "name": "setIsSwapEnabled",
      "outputs": [],
      "stateMutability": "nonpayable",
      "type": "function"
    },
    {
      "inputs": [
        {
          "internalType": "address",
          "name": "_liquidator",
          "type": "address"
        },
        {
          "internalType": "bool",
          "name": "_isActive",
          "type": "bool"
        }
      ],
      "name": "setLiquidator",
      "outputs": [],
      "stateMutability": "nonpayable",
      "type": "function"
    },
    {
      "inputs": [
        {
          "internalType": "address",
          "name": "_manager",
          "type": "address"
        },
        {
          "internalType": "bool",
          "name": "_isManager",
          "type": "bool"
        }
      ],
      "name": "setManager",
      "outputs": [],
      "stateMutability": "nonpayable",
      "type": "function"
    },
    {
      "inputs": [
        {
          "internalType": "uint256",
          "name": "_maxGasPrice",
          "type": "uint256"
        }
      ],
      "name": "setMaxGasPrice",
      "outputs": [],
      "stateMutability": "nonpayable",
      "type": "function"
    },
    {
      "inputs": [
        {
          "internalType": "address",
          "name": "_token",
          "type": "address"
        },
        {
          "internalType": "uint256",
          "name": "_amount",
          "type": "uint256"
        }
      ],
      "name": "setMaxGlobalShortSize",
      "outputs": [],
      "stateMutability": "nonpayable",
      "type": "function"
    },
    {
      "inputs": [
        {
          "internalType": "uint256",
          "name": "_maxLeverage",
          "type": "uint256"
        }
      ],
      "name": "setMaxLeverage",
      "outputs": [],
      "stateMutability": "nonpayable",
      "type": "function"
    },
    {
      "inputs": [
        {
          "internalType": "uint256",
          "name": "_minProfitTime",
          "type": "uint256"
        }
      ],
      "name": "setMinProfitTime",
      "outputs": [],
      "stateMutability": "nonpayable",
      "type": "function"
    },
    {
      "inputs": [
        {
          "internalType": "address",
          "name": "_priceFeed",
          "type": "address"
        }
      ],
      "name": "setPriceFeed",
      "outputs": [],
      "stateMutability": "nonpayable",
      "type": "function"
    },
    {
      "inputs": [
        {
          "internalType": "address",
          "name": "_token",
          "type": "address"
        },
        {
          "internalType": "uint256",
          "name": "_tokenDecimals",
          "type": "uint256"
        },
        {
          "internalType": "uint256",
          "name": "_tokenWeight",
          "type": "uint256"
        },
        {
          "internalType": "uint256",
          "name": "_minProfitBps",
          "type": "uint256"
        },
        {
          "internalType": "uint256",
          "name": "_maxZkusdAmount",
          "type": "uint256"
        },
        {
          "internalType": "bool",
          "name": "_isStable",
          "type": "bool"
        },
        {
          "internalType": "bool",
          "name": "_isShortable",
          "type": "bool"
        },
        {
          "internalType": "bool",
          "name": "_isEquity",
          "type": "bool"
        }
      ],
      "name": "setTokenConfig",
      "outputs": [],
      "stateMutability": "nonpayable",
      "type": "function"
    },
    {
      "inputs": [
        {
          "internalType": "contract IVaultUtils",
          "name": "_vaultUtils",
          "type": "address"
        }
      ],
      "name": "setVaultUtils",
      "outputs": [],
      "stateMutability": "nonpayable",
      "type": "function"
    },
    {
      "inputs": [
        {
          "internalType": "address",
          "name": "_token",
          "type": "address"
        },
        {
          "internalType": "uint256",
          "name": "_amount",
          "type": "uint256"
        }
      ],
      "name": "setZkusdAmount",
      "outputs": [],
      "stateMutability": "nonpayable",
      "type": "function"
    },
    {
      "inputs": [
        {
          "internalType": "address",
          "name": "_zusd",
          "type": "address"
        }
      ],
      "name": "setZusd",
      "outputs": [],
      "stateMutability": "nonpayable",
      "type": "function"
    },
    {
      "inputs": [
        {
          "internalType": "address",
          "name": "",
          "type": "address"
        }
      ],
      "name": "shortableTokens",
      "outputs": [
        {
          "internalType": "bool",
          "name": "",
          "type": "bool"
        }
      ],
      "stateMutability": "view",
      "type": "function"
    },
    {
      "inputs": [],
      "name": "stableFundingRateFactor",
      "outputs": [
        {
          "internalType": "uint256",
          "name": "",
          "type": "uint256"
        }
      ],
      "stateMutability": "view",
      "type": "function"
    },
    {
      "inputs": [],
      "name": "stableSwapFeeBasisPoints",
      "outputs": [
        {
          "internalType": "uint256",
          "name": "",
          "type": "uint256"
        }
      ],
      "stateMutability": "view",
      "type": "function"
    },
    {
      "inputs": [],
      "name": "stableTaxBasisPoints",
      "outputs": [
        {
          "internalType": "uint256",
          "name": "",
          "type": "uint256"
        }
      ],
      "stateMutability": "view",
      "type": "function"
    },
    {
      "inputs": [
        {
          "internalType": "address",
          "name": "",
          "type": "address"
        }
      ],
      "name": "stableTokens",
      "outputs": [
        {
          "internalType": "bool",
          "name": "",
          "type": "bool"
        }
      ],
      "stateMutability": "view",
      "type": "function"
    },
    {
      "inputs": [
        {
          "internalType": "address",
          "name": "_tokenIn",
          "type": "address"
        },
        {
          "internalType": "address",
          "name": "_tokenOut",
          "type": "address"
        },
        {
          "internalType": "address",
          "name": "_receiver",
          "type": "address"
        }
      ],
      "name": "swap",
      "outputs": [
        {
          "internalType": "uint256",
          "name": "",
          "type": "uint256"
        }
      ],
      "stateMutability": "nonpayable",
      "type": "function"
    },
    {
      "inputs": [],
      "name": "swapFeeBasisPoints",
      "outputs": [
        {
          "internalType": "uint256",
          "name": "",
          "type": "uint256"
        }
      ],
      "stateMutability": "view",
      "type": "function"
    },
    {
      "inputs": [],
      "name": "taxBasisPoints",
      "outputs": [
        {
          "internalType": "uint256",
          "name": "",
          "type": "uint256"
        }
      ],
      "stateMutability": "view",
      "type": "function"
    },
    {
      "inputs": [
        {
          "internalType": "address",
          "name": "",
          "type": "address"
        }
      ],
      "name": "tokenBalances",
      "outputs": [
        {
          "internalType": "uint256",
          "name": "",
          "type": "uint256"
        }
      ],
      "stateMutability": "view",
      "type": "function"
    },
    {
      "inputs": [
        {
          "internalType": "address",
          "name": "",
          "type": "address"
        }
      ],
      "name": "tokenDecimals",
      "outputs": [
        {
          "internalType": "uint256",
          "name": "",
          "type": "uint256"
        }
      ],
      "stateMutability": "view",
      "type": "function"
    },
    {
      "inputs": [
        {
          "internalType": "address",
          "name": "_token",
          "type": "address"
        },
        {
          "internalType": "uint256",
          "name": "_tokenAmount",
          "type": "uint256"
        }
      ],
      "name": "tokenToUsdMin",
      "outputs": [
        {
          "internalType": "uint256",
          "name": "",
          "type": "uint256"
        }
      ],
      "stateMutability": "view",
      "type": "function"
    },
    {
      "inputs": [
        {
          "internalType": "address",
          "name": "",
          "type": "address"
        }
      ],
      "name": "tokenWeights",
      "outputs": [
        {
          "internalType": "uint256",
          "name": "",
          "type": "uint256"
        }
      ],
      "stateMutability": "view",
      "type": "function"
    },
    {
      "inputs": [],
      "name": "totalTokenWeights",
      "outputs": [
        {
          "internalType": "uint256",
          "name": "",
          "type": "uint256"
        }
      ],
      "stateMutability": "view",
      "type": "function"
    },
    {
      "inputs": [
        {
          "internalType": "address",
          "name": "_collateralToken",
          "type": "address"
        },
        {
          "internalType": "address",
          "name": "_indexToken",
          "type": "address"
        }
      ],
      "name": "updateCumulativeFundingRate",
      "outputs": [],
      "stateMutability": "nonpayable",
      "type": "function"
    },
    {
      "inputs": [
        {
          "internalType": "address",
          "name": "_newVault",
          "type": "address"
        },
        {
          "internalType": "address",
          "name": "_token",
          "type": "address"
        },
        {
          "internalType": "uint256",
          "name": "_amount",
          "type": "uint256"
        }
      ],
      "name": "upgradeVault",
      "outputs": [],
      "stateMutability": "nonpayable",
      "type": "function"
    },
    {
      "inputs": [
        {
          "internalType": "address",
          "name": "_token",
          "type": "address"
        },
        {
          "internalType": "uint256",
          "name": "_usdAmount",
          "type": "uint256"
        },
        {
          "internalType": "uint256",
          "name": "_price",
          "type": "uint256"
        }
      ],
      "name": "usdToToken",
      "outputs": [
        {
          "internalType": "uint256",
          "name": "",
          "type": "uint256"
        }
      ],
      "stateMutability": "view",
      "type": "function"
    },
    {
      "inputs": [
        {
          "internalType": "address",
          "name": "_token",
          "type": "address"
        },
        {
          "internalType": "uint256",
          "name": "_usdAmount",
          "type": "uint256"
        }
      ],
      "name": "usdToTokenMax",
      "outputs": [
        {
          "internalType": "uint256",
          "name": "",
          "type": "uint256"
        }
      ],
      "stateMutability": "view",
      "type": "function"
    },
    {
      "inputs": [
        {
          "internalType": "address",
          "name": "_token",
          "type": "address"
        },
        {
          "internalType": "uint256",
          "name": "_usdAmount",
          "type": "uint256"
        }
      ],
      "name": "usdToTokenMin",
      "outputs": [
        {
          "internalType": "uint256",
          "name": "",
          "type": "uint256"
        }
      ],
      "stateMutability": "view",
      "type": "function"
    },
    {
      "inputs": [
        {
          "internalType": "address",
          "name": "_account",
          "type": "address"
        },
        {
          "internalType": "address",
          "name": "_collateralToken",
          "type": "address"
        },
        {
          "internalType": "address",
          "name": "_indexToken",
          "type": "address"
        },
        {
          "internalType": "bool",
          "name": "_isLong",
          "type": "bool"
        },
        {
          "internalType": "bool",
          "name": "_raise",
          "type": "bool"
        }
      ],
      "name": "validateLiquidation",
      "outputs": [
        {
          "internalType": "uint256",
          "name": "",
          "type": "uint256"
        },
        {
          "internalType": "uint256",
          "name": "",
          "type": "uint256"
        }
      ],
      "stateMutability": "view",
      "type": "function"
    },
    {
      "inputs": [],
      "name": "vaultUtils",
      "outputs": [
        {
          "internalType": "contract IVaultUtils",
          "name": "",
          "type": "address"
        }
      ],
      "stateMutability": "view",
      "type": "function"
    },
    {
      "inputs": [],
      "name": "whitelistedTokenCount",
      "outputs": [
        {
          "internalType": "uint256",
          "name": "",
          "type": "uint256"
        }
      ],
      "stateMutability": "view",
      "type": "function"
    },
    {
      "inputs": [
        {
          "internalType": "address",
          "name": "",
          "type": "address"
        }
      ],
      "name": "whitelistedTokens",
      "outputs": [
        {
          "internalType": "bool",
          "name": "",
          "type": "bool"
        }
      ],
      "stateMutability": "view",
      "type": "function"
    },
    {
      "inputs": [
        {
          "internalType": "address",
          "name": "_token",
          "type": "address"
        },
        {
          "internalType": "address",
          "name": "_receiver",
          "type": "address"
        }
      ],
      "name": "withdrawFees",
      "outputs": [
        {
          "internalType": "uint256",
          "name": "",
          "type": "uint256"
        }
      ],
      "stateMutability": "nonpayable",
      "type": "function"
    },
    {
      "inputs": [],
      "name": "zkusd",
      "outputs": [
        {
          "internalType": "address",
          "name": "",
          "type": "address"
        }
      ],
      "stateMutability": "view",
      "type": "function"
    },
    {
      "inputs": [
        {
          "internalType": "address",
          "name": "",
          "type": "address"
        }
      ],
      "name": "zkusdAmounts",
      "outputs": [
        {
          "internalType": "uint256",
          "name": "",
          "type": "uint256"
        }
      ],
      "stateMutability": "view",
      "type": "function"
    },
    {
      "inputs": [],
      "name": "zusd",
      "outputs": [
        {
          "internalType": "address",
          "name": "",
          "type": "address"
        }
      ],
      "stateMutability": "view",
      "type": "function"
    }
  ],
  "transactionHash": "0x12a8713a693e7c4752d49235e45a0a1fd1f5eb2bafa6932789df5e96c4e3239e",
  "args": [],
  "numDeployments": 1,
  "solcInputHash": "961be181bab2b100ef5d1333db420c31",
  "bytecode": "0x6080604052620f4240600b556032600c556014600d55601e600e819055600f556004601055600a601155610e106012556016805464ffffff00001961ff001960ff1990921660011791909116610100171664010000000017905534801561006557600080fd5b506001600081905580546001600160a01b03191633179055615e56806200008d6000396000f3fe608060405234801561001057600080fd5b50600436106105f55760003560e01c80638585f4d211610312578063c7e074c3116101a9578063df73a267116100fa578063f07bbf77116100a8578063f07bbf77146115d6578063f2555278146115f5578063f3ae241514611623578063f887ea4014611649578063fa12dbc014611651578063fbfded6d14611683578063fdaf6ac3146116b1578063fed1a606146116f5576105f5565b8063df73a267146114bc578063e124e6d2146114c4578063e468baf0146114ea578063e67f59a714611507578063ee1310661461152d578063efa10a6e14611584578063f07456ce146115b0576105f5565b8063d9ac422511610157578063d9ac422514611382578063da76524c1461138a578063daf9c210146113d4578063db3555fb146113fa578063db97495f14611420578063dc8f5fac1461146c578063de2ea94814611474576105f5565b8063c7e074c314611227578063cea0c32814611267578063cfad57a21461129d578063d2fa635e146112c3578063d3127e63146112e0578063d54d5a9f146112fd578063d8f897c31461135c576105f5565b80639d7432ca11610263578063ab2f3ad411610211578063ab2f3ad414611141578063ace112de14611167578063ae3302c214611193578063b1cc53ab1461119b578063c3c7b9e9146111d3578063c4f718bf146111f9578063c65bc7b114611201576105f5565b80639d7432ca146110595780639f392eb31461108b578063a22f239214611093578063a42ab3d21461109b578063a5e90eee146110c7578063a8669915146110f5578063a93acac21461111b576105f5565b8063918a045c116102c0578063918a045c14610f7a5780639317020d14610fa05780639331621214610fbf5780639698d25a14610ff75780639849e4121461101d5780639899cd02146110255780639bc90a0f14611051576105f5565b80638585f4d214610e8557806388b1fbdf14610eb15780638a27d46814610ed75780638a78daa814610f005780638ee573ac14610f265780638f7b840414610f4c5780639060b1ca14610f72576105f5565b806345a6f370116104915780635f7bc119116103e2578063724e78da11610390578063724e78da14610d51578063728cdbca14610d77578063741bef1a14610dbf5780637a210a2b14610dc75780637c2eb9f714610dcf5780638097505114610dee57806381a612d614610e0b57806382a0849014610e31576105f5565b80635f7bc11914610c7b5780636092219914610ca157806362287a3214610ccf5780636274980314610cd75780636abbe0c814610cfd5780636ae0b15414610d0557806371089f4d14610d2b576105f5565b8063514ea4bf1161043f578063514ea4bf14610b3e578063523fba7f14610b93578063529a356f14610bb957806352f55eed14610bdf57806354d33cf914610c05578063552036b314610c335780635c07eaab14610c3b576105f5565b806345a6f370146109df578063486fe2a114610a1d57806348d91abf14610a4357806348f35cbb14610a875780634a3f088d14610a8f5780634a993ee914610b105780634d47b30414610b36576105f5565b806328e67be51161054b578063392e53cd116104f9578063392e53cd146108ee5780633de39c11146108f65780633e72a262146108fe57806340eb380214610906578063421528731461095757806342b60b031461098b5780634453a374146109b1576105f5565b806328e67be5146107d85780632c668ec11461084d5780632d4b05761461087957806330455ede146108b7578063318bc689146108d657806332a010d8146108de578063351a964d146108e6576105f5565b8063134ca63b116105a8578063134ca63b146106e85780631511476c146106f0578063174d269414610749578063181e210e146107515780631ce9cb8f1461076d57806324b0c04d1461079357806324ca984e146107b2576105f5565b8062bd0b63146105fa5780630842b07614610622578063086655201461063c57806309c62d5c146106625780630a48d5a91461069057806310eb56c2146106bc57806312d43a51146106c4575b600080fd5b6106206004803603602081101561061057600080fd5b50356001600160a01b0316611787565b005b61062a6117b7565b60408051918252519081900360200190f35b61062a6004803603602081101561065257600080fd5b50356001600160a01b03166117bd565b61062a6004803603604081101561067857600080fd5b506001600160a01b03813581169160200135166117cf565b61062a600480360360408110156106a657600080fd5b506001600160a01b038135169060200135611a49565b61062a611aa2565b6106cc611aa8565b604080516001600160a01b039092168252519081900360200190f35b61062a611ab7565b61072e6004803603608081101561070657600080fd5b506001600160a01b038135811691602081013582169160408201351690606001351515611abd565b60408051921515835260208301919091528051918290030190f35b61062a611ae9565b610759611aef565b604080519115158252519081900360200190f35b61062a6004803603602081101561078357600080fd5b50356001600160a01b0316611aff565b610620600480360360208110156107a957600080fd5b50351515611b11565b610620600480360360208110156107c857600080fd5b50356001600160a01b0316611b37565b610620600480360360408110156107ee57600080fd5b81359190810190604081016020820135600160201b81111561080f57600080fd5b82018360208201111561082157600080fd5b803590602001918460018302840111600160201b8311171561084257600080fd5b509092509050611b68565b61062a6004803603604081101561086357600080fd5b506001600160a01b038135169060200135611c53565b61062a6004803603608081101561088f57600080fd5b506001600160a01b038135811691602081013582169160408201351690606001351515611c98565b610620600480360360208110156108cd57600080fd5b50351515611cf3565b61062a611d0e565b6106cc611d14565b610759611d28565b610759611d31565b61062a611d41565b610759611d47565b610620600480360361012081101561091d57600080fd5b5080359060208101359060408101359060608101359060808101359060a08101359060c08101359060e08101359061010001351515611d55565b61062a6004803603606081101561096d57600080fd5b508035906001600160a01b0360208201358116916040013516611e19565b610759600480360360208110156109a157600080fd5b50356001600160a01b0316611ebb565b610620600480360360408110156109c757600080fd5b506001600160a01b0381351690602001351515611ed0565b61072e600480360360808110156109f557600080fd5b506001600160a01b038135811691602081013582169160408201351690606001351515611f03565b61062a60048036036020811015610a3357600080fd5b50356001600160a01b0316611fa1565b610620600480360360a0811015610a5957600080fd5b506001600160a01b038135811691602081013582169160408201351690606081013590608001351515611fb3565b6106cc6123f1565b610acd60048036036080811015610aa557600080fd5b506001600160a01b038135811691602081013582169160408201351690606001351515612400565b604080519889526020890197909752878701959095526060870193909352608086019190915260a0850152151560c084015260e083015251908190036101000190f35b61062a60048036036020811015610b2657600080fd5b50356001600160a01b03166124f6565b61062a612508565b610b5b60048036036020811015610b5457600080fd5b503561250e565b604080519788526020880196909652868601949094526060860192909252608085015260a084015260c0830152519081900360e00190f35b61062a60048036036020811015610ba957600080fd5b50356001600160a01b031661254b565b61075960048036036020811015610bcf57600080fd5b50356001600160a01b031661255d565b61062a60048036036020811015610bf557600080fd5b50356001600160a01b0316612572565b61062a60048036036040811015610c1b57600080fd5b506001600160a01b0381358116916020013516612584565b61075961283a565b61072e600480360360a0811015610c5157600080fd5b506001600160a01b0381351690602081013590604081013590606081013515159060800135612843565b61062060048036036020811015610c9157600080fd5b50356001600160a01b031661293b565b61075960048036036040811015610cb757600080fd5b506001600160a01b0381358116916020013516612a1e565b61062a612a3e565b61062a60048036036020811015610ced57600080fd5b50356001600160a01b0316612a44565b6106cc612a56565b61062060048036036020811015610d1b57600080fd5b50356001600160a01b0316612a6c565b61062060048036036020811015610d4157600080fd5b50356001600160a01b0316612a9a565b61062060048036036020811015610d6757600080fd5b50356001600160a01b0316612ad0565b610620600480360360c0811015610d8d57600080fd5b506001600160a01b03813581169160208101358216916040820135169060608101359060808101359060a00135612afa565b6106cc612b81565b61062a612b90565b61062060048036036020811015610de557600080fd5b50351515612b96565b61062060048036036020811015610e0457600080fd5b5035612bb8565b61062a60048036036020811015610e2157600080fd5b50356001600160a01b0316612bc5565b61062a600480360360e0811015610e4757600080fd5b506001600160a01b0381358116916020810135821691604082013581169160608101359160808201359160a081013515159160c09091013516612d27565b61062060048036036040811015610e9b57600080fd5b506001600160a01b038135169060200135612da5565b61062a60048036036020811015610ec757600080fd5b50356001600160a01b0316612dc9565b61062060048036036060811015610eed57600080fd5b5080359060208101359060400135612ddb565b61062a60048036036020811015610f1657600080fd5b50356001600160a01b0316612df1565b61062a60048036036020811015610f3c57600080fd5b50356001600160a01b0316612e03565b61062060048036036020811015610f6257600080fd5b50356001600160a01b0316612e15565b610759612e3f565b61062a60048036036020811015610f9057600080fd5b50356001600160a01b0316612e4f565b61062060048036036020811015610fb657600080fd5b50351515612f0f565b61062a60048036036060811015610fd557600080fd5b506001600160a01b038135811691602081013582169160409091013516612f2a565b61062a6004803603602081101561100d57600080fd5b50356001600160a01b03166131f3565b61062a613205565b61062a6004803603604081101561103b57600080fd5b506001600160a01b03813516906020013561320b565b6106cc61322d565b61062a6004803603606081101561106f57600080fd5b506001600160a01b03813516906020810135906040013561323c565b6107596132e5565b61062a6132f4565b61062a600480360360408110156110b157600080fd5b506001600160a01b0381351690602001356132fa565b610620600480360360408110156110dd57600080fd5b506001600160a01b0381351690602001351515613317565b6107596004803603602081101561110b57600080fd5b50356001600160a01b031661334a565b61062a6004803603602081101561113157600080fd5b50356001600160a01b031661335f565b61062a6004803603602081101561115757600080fd5b50356001600160a01b031661345d565b6106206004803603604081101561117d57600080fd5b506001600160a01b03813516906020013561346f565b61062a6134ca565b61062a600480360360608110156111b157600080fd5b506001600160a01b0381358116916020810135909116906040013515156134d0565b61062a600480360360208110156111e957600080fd5b50356001600160a01b031661356b565b61062a61357d565b61062a6004803603602081101561121757600080fd5b50356001600160a01b0316613583565b61062a600480360360a081101561123d57600080fd5b506001600160a01b0381351690602081013590604081013590606081013590608001351515613595565b6106206004803603606081101561127d57600080fd5b506001600160a01b0381358116916020810135909116906040013561363f565b610620600480360360208110156112b357600080fd5b50356001600160a01b031661365b565b610620600480360360208110156112d957600080fd5b5035613685565b610620600480360360208110156112f657600080fd5b5035613692565b611343600480360360a081101561131357600080fd5b506001600160a01b03813581169160208101358216916040820135169060608101351515906080013515156136ae565b6040805192835260208301919091528051918290030190f35b61062a6004803603602081101561137257600080fd5b50356001600160a01b0316613765565b61062a613777565b61062a600480360360c08110156113a057600080fd5b506001600160a01b038135811691602081013582169160408201351690606081013515159060808101359060a0013561377d565b610759600480360360208110156113ea57600080fd5b50356001600160a01b0316613831565b6107596004803603602081101561141057600080fd5b50356001600160a01b0316613846565b61062a600480360360e081101561143657600080fd5b506001600160a01b0381351690602081013590604081013590606081013515159060808101359060a08101359060c0013561385b565b61062a6138ee565b61062a600480360360a081101561148a57600080fd5b506001600160a01b038135811691602081013582169160408201358116916060810135151591608090910135166138f4565b61062a613cb4565b61062a600480360360208110156114da57600080fd5b50356001600160a01b0316613cba565b6106cc6004803603602081101561150057600080fd5b5035613db5565b6106206004803603602081101561151d57600080fd5b50356001600160a01b0316613ddc565b610620600480360361010081101561154457600080fd5b506001600160a01b038135169060208101359060408101359060608101359060808101359060a081013515159060c081013515159060e001351515613eb1565b6106206004803603604081101561159a57600080fd5b506001600160a01b038135169060200135613ffd565b61062a600480360360208110156115c657600080fd5b50356001600160a01b0316614021565b610620600480360360208110156115ec57600080fd5b50351515614032565b61062a6004803603604081101561160b57600080fd5b506001600160a01b0381358116916020013516614059565b6107596004803603602081101561163957600080fd5b50356001600160a01b03166140af565b6106cc6140c4565b61062a6004803603606081101561166757600080fd5b506001600160a01b0381351690602081013590604001356140d3565b6106206004803603604081101561169957600080fd5b506001600160a01b038135811691602001351661410d565b61062a600480360360a08110156116c757600080fd5b506001600160a01b0381358116916020810135821691604082013516906060810135151590608001356142e6565b6117126004803603602081101561170b57600080fd5b503561435c565b6040805160208082528351818301528351919283929083019185019080838360005b8381101561174c578181015183820152602001611734565b50505050905090810190601f1680156117795780820380516001836020036101000a031916815260200191505b509250505060405180910390f35b61178f6143f7565b603080546001600160a01b0390921661010002610100600160a81b0319909216919091179055565b602c5490565b602e6020526000908152604090205481565b600060026000541415611817576040805162461bcd60e51b815260206004820152601f6024820152600080516020615db6833981519152604482015290519081900360640190fd5b6002600055611824614412565b6001600160a01b0383166000908152602d602052604090205461184b9060ff16601361443e565b600354600090611863906001600160a01b03166144ea565b905061187360008211601461443e565b61187d848561410d565b60006118898583611c53565b905061189960008211601561443e565b6118a38583614597565b6118ad8582614679565b60035460408051632770a7eb60e21b81523060048201526024810185905290516001600160a01b0390921691639dc29fac9160448082019260009290919082900301818387803b15801561190057600080fd5b505af1158015611914573d6000803e3d6000fd5b505060035461192e92506001600160a01b0316905061474f565b6016546040805163d1258f6f60e01b81526001600160a01b038881166004830152602482018690529151600093600160281b90049092169163d1258f6f91604480820192602092909190829003018186803b15801561198c57600080fd5b505afa1580156119a0573d6000803e3d6000fd5b505050506040513d60208110156119b657600080fd5b5051905060006119c78784846147ea565b90506119d760008211601661443e565b6119e28782886148b2565b604080516001600160a01b03808916825289166020820152808201869052606081018390526080810184905290517ff05e6366cb941c74f03fb14efe64792f2f8045c0d19de689272fdb19b83aca5a9181900360a00190a160016000559695505050505050565b600081611a5857506000611a9c565b6000611a6384612bc5565b6001600160a01b038516600090815260286020526040902054909150611a97600a82900a611a918685614959565b906149b2565b925050505b92915050565b600d5481565b6001546001600160a01b031681565b60075481565b600080611acc86868686611c98565b600081815260086020526040902054151597909650945050505050565b60055481565b601654600160201b900460ff1681565b60236020526000908152604090205481565b611b196143f7565b6016805491151563010000000263ff00000019909216919091179055565b3360009081526018602090815260408083206001600160a01b0394909416835292905220805460ff19166001179055565b60175460408051808201909152601e81527f5661756c743a20696e76616c6964206572726f72436f6e74726f6c6c657200006020820152906001600160a01b03163314611c335760405162461bcd60e51b81526004018080602001828103825283818151815260200191508051906020019080838360005b83811015611bf8578181015183820152602001611be0565b50505050905090810190601f168015611c255780820380516001836020036101000a031916815260200191505b509250505060405180910390fd5b506000838152602760205260409020611c4d908383615ce5565b50505050565b600080611c5f84613cba565b90506000611c7d82611a918668327cb2734119d3b7a9601e1b614959565b600354909150611a979082906001600160a01b031687611e19565b604080516bffffffffffffffffffffffff19606096871b811660208084019190915295871b811660348301529390951b9092166048850152151560f81b605c8401528051603d818503018152605d9093019052815191012090565b611cfb6143f7565b6016805460ff1916911515919091179055565b60115481565b60305461010090046001600160a01b031681565b60165460ff1681565b600154600160a01b900460ff1681565b60145481565b601654610100900460ff1681565b611d5d6143f7565b611d6d6101f48a1115600361443e565b611d7d6101f4891115600461443e565b611d8d6101f4881115600561443e565b611d9d6101f4871115600661443e565b611dad6101f4861115600761443e565b611dbd6101f4851115600861443e565b611dd96d04ee2d6d415b85acef8100000000841115600961443e565b600c98909855600d96909655600e94909455600f9290925560105560115560055560155560168054911515620100000262ff000019909216919091179055565b60035460009081906001600160a01b03858116911614611e51576001600160a01b038416600090815260286020526040902054611e54565b60125b6003549091506000906001600160a01b03858116911614611e8d576001600160a01b038416600090815260286020526040902054611e90565b60125b9050611eaf82600a0a611a9183600a0a8961495990919063ffffffff16565b925050505b9392505050565b601c6020526000908152604090205460ff1681565b611ed86143f7565b6001600160a01b03919091166000908152601960205260409020805460ff1916911515919091179055565b6000806000611f1487878787611c98565b9050611f1e615d63565b50600081815260086020908152604091829020825160e081018452815480825260018301549382019390935260028201549381018490526003820154606082015260048201546080820152600582015460a082015260069091015460c082018190529092611f929289929091908990612843565b93509350505094509492505050565b602f6020526000908152604090205481565b60026000541415611ff9576040805162461bcd60e51b815260206004820152601f6024820152600080516020615db6833981519152604482015290519081900360640190fd5b600260005560165461201490610100900460ff16601c61443e565b61201c6149f4565b61202585614a10565b612030848483614a73565b60165460408051634eae147d60e11b81526001600160a01b038881166004830152878116602483015286811660448301526064820186905284151560848301529151600160281b90930490911691639d5c28fa9160a480820192600092909190829003018186803b1580156120a457600080fd5b505afa1580156120b8573d6000803e3d6000fd5b505050506120c6848461410d565b60006120d486868685611c98565b6000818152600860205260408120919250836120f8576120f386612bc5565b612101565b61210186613cba565b825490915061211257600282018190555b8154158015906121225750600085115b1561214857612142868360000154846002015487858a886006015461385b565b60028301555b6000612161898989888a88600001548960030154614b8d565b9050600061216e896144ea565b9050600061217c8a83611a49565b600186015490915061218e9082614c5b565b600186018190556121a390841115601d61443e565b60018501546121b29084614cb5565b60018601556121c28a8a896134d0565b600386015584546121d39089614c5b565b8086554260068701556121e9901515601e61443e565b6121fb85600001548660010154614cf7565b6122098b8b8b8a60016136ae565b505060006122178b8a6132fa565b60048701549091506122299082614c5b565b60048701556122388b82614d1b565b871561227d576122518b61224c8b87614c5b565b614dbb565b61225b8b83614e37565b6122658b84614eb3565b6122788b6122738d8761320b565b614679565b6122e9565b6001600160a01b038a166000908152602460205260409020546122ba576001600160a01b038a1660009081526025602052604090208590556122df565b6122c58a868b61323c565b6001600160a01b038b166000908152602560205260409020555b6122e98a8a614fcb565b604080518881526001600160a01b03808f166020830152808e16828401528c1660608201526080810184905260a081018b905289151560c082015260e08101879052610100810186905290517f2fe68525253654c21998f35787a8d0f361905ef647c854092430ab65f2f15022918190036101200190a1855460018701546002880154600389015460048a015460058b0154604080518e81526020810197909752868101959095526060860193909352608085019190915260a084015260c083015260e08201879052517f20853733b590dce729d9f4628682ebd9a34d2354e72679e66f43a008fc03b773918190036101000190a15050600160005550505050505050505050565b6017546001600160a01b031681565b600080600080600080600080600061241a8d8d8d8d611c98565b9050612424615d63565b600860008381526020019081526020016000206040518060e001604052908160008201548152602001600182015481526020016002820154815260200160038201548152602001600482015481526020016005820154815260200160068201548152505090506000808260a00151136124a4578160a001516000036124aa565b8160a001515b9050816000015182602001518360400151846060015185608001518560008860a0015112158860c001519a509a509a509a509a509a509a509a5050505094995094995094999196509450565b601f6020526000908152604090205481565b600e5481565b6008602052600090815260409020805460018201546002830154600384015460048501546005860154600690960154949593949293919290919087565b60296020526000908152604090205481565b60196020526000908152604090205460ff1681565b60096020526000908152604090205481565b6000600260005414156125cc576040805162461bcd60e51b815260206004820152601f6024820152600080516020615db6833981519152604482015290519081900360640190fd5b60026000556125d9614412565b6001600160a01b0383166000908152602d60205260409020546126009060ff16601061443e565b600061260b846144ea565b905061261b60008211601161443e565b612625848561410d565b600061263085612bc5565b9050600061264e68327cb2734119d3b7a9601e1b611a918585614959565b60035490915061266a90829088906001600160a01b0316611e19565b905061267a60008211601261443e565b601654604080516382c04ce760e01b81526001600160a01b038981166004830152602482018590529151600093600160281b9004909216916382c04ce791604480820192602092909190829003018186803b1580156126d857600080fd5b505afa1580156126ec573d6000803e3d6000fd5b505050506040513d602081101561270257600080fd5b5051905060006127138886846147ea565b9050600061273168327cb2734119d3b7a9601e1b611a918488614959565b60035490915061274d9082908b906001600160a01b0316611e19565b905061275989826150c4565b6127638983614eb3565b600354604080516340c10f1960e01b81526001600160a01b038b8116600483015260248201859052915191909216916340c10f1991604480830192600092919082900301818387803b1580156127b857600080fd5b505af11580156127cc573d6000803e3d6000fd5b5050604080516001600160a01b03808d1682528d1660208201528082018a9052606081018590526080810187905290517f1ebbe215538a4163dc9d20a3615a8cdc7b0cfa7c55b7473d142a5e5c3a3dc0a293509081900360a0019150a1600160005598975050505050505050565b60305460ff1681565b60008061285460008611602661443e565b6000846128695761286488613cba565b612872565b61287288612bc5565b9050600081871161288c576128878288614cb5565b612896565b6128968783614cb5565b905060006128a888611a918b85614959565b9050600087156128bb57508783116128c0565b508288115b60006128d760155489614c5b90919063ffffffff16565b42116128fb576001600160a01b038c166000908152601b60205260409020546128fe565b60005b905081801561292157506129128b82614959565b61291e84612710614959565b11155b1561292b57600092505b509a909950975050505050505050565b60026000541415612981576040805162461bcd60e51b815260206004820152601f6024820152600080516020615db6833981519152604482015290519081900360640190fd5b600260009081556001600160a01b0382168152602d60205260409020546129ac9060ff16600e61443e565b60006129b7826144ea565b90506129c760008211600f61443e565b6129d18282614eb3565b604080516001600160a01b03841681526020810183905281517fa5a389190ebf6170a133bda5c769b77f4d6715b8aa172ec0ddf8473d0b4944bd929181900390910190a150506001600055565b601860209081526000928352604080842090915290825290205460ff1681565b60135481565b60256020526000908152604090205481565b601654600160281b90046001600160a01b031681565b3360009081526018602090815260408083206001600160a01b0394909416835292905220805460ff19169055565b612aa26143f7565b601680546001600160a01b03909216600160281b0265010000000000600160c81b0319909216919091179055565b612ad86143f7565b600480546001600160a01b0319166001600160a01b0392909216919091179055565b612b026143f7565b612b1d600160149054906101000a900460ff1615600161443e565b60018054600160a01b60ff60a01b19909116179055600280546001600160a01b03199081166001600160a01b039889161790915560038054821696881696909617909555600480549095169390951692909217909255600591909155600655600755565b6004546001600160a01b031681565b600c5481565b612b9e6143f7565b601680549115156101000261ff0019909216919091179055565b612bc06143f7565b601555565b6001600160a01b0381166000908152601e602052604081205460ff168015612bef575060305460ff165b15612c8d5760048054604080516317e1d38560e11b81526001600160a01b038681169482019490945260016024820152600060448201819052606482015290519290911691632fc3a70a91608480820192602092909190829003018186803b158015612c5a57600080fd5b505afa158015612c6e573d6000803e3d6000fd5b505050506040513d6020811015612c8457600080fd5b50519050612d22565b60048054604080516317e1d38560e11b81526001600160a01b038681169482019490945260016024820181905260006044830152606482015290519290911691632fc3a70a91608480820192602092909190829003018186803b158015612cf357600080fd5b505afa158015612d07573d6000803e3d6000fd5b505050506040513d6020811015612d1d57600080fd5b505190505b919050565b600060026000541415612d6f576040805162461bcd60e51b815260206004820152601f6024820152600080516020615db6833981519152604482015290519081900360640190fd5b6002600055612d7c6149f4565b612d8588614a10565b612d9488888888888888615182565b600160005598975050505050505050565b612dad6143f7565b6001600160a01b039091166000908152601f6020526040902055565b601b6020526000908152604090205481565b612de36143f7565b601292909255600655600755565b60246020526000908152604090205481565b60286020526000908152604090205481565b612e1d6143f7565b601780546001600160a01b0319166001600160a01b0392909216919091179055565b6016546301000000900460ff1681565b600080600360009054906101000a90046001600160a01b03166001600160a01b03166318160ddd6040518163ffffffff1660e01b815260040160206040518083038186803b158015612ea057600080fd5b505afa158015612eb4573d6000803e3d6000fd5b505050506040513d6020811015612eca57600080fd5b5051905080612edd576000915050612d22565b6001600160a01b0383166000908152602a6020526040902054602b54612f0790611a918385614959565b949350505050565b612f176143f7565b6030805460ff1916911515919091179055565b600060026000541415612f72576040805162461bcd60e51b815260206004820152601f6024820152600080516020615db6833981519152604482015290519081900360640190fd5b6002600055601654612f889060ff16601761443e565b6001600160a01b0384166000908152602d6020526040902054612faf9060ff16601861443e565b6001600160a01b0383166000908152602d6020526040902054612fd69060ff16601961443e565b612ff6836001600160a01b0316856001600160a01b03161415601a61443e565b613000848561410d565b61300a838461410d565b6000613015856144ea565b905061302560008211601b61443e565b600061303086612bc5565b9050600061303d86613cba565b9050600061304f82611a918686614959565b905061305c818989611e19565b9050600061307a68327cb2734119d3b7a9601e1b611a918787614959565b6003549091506130969082908b906001600160a01b0316611e19565b60165460408051636d099c0b60e11b81526001600160a01b038d811660048301528c81166024830152604482018590529151939450600093600160281b9093049091169163da13381691606480820192602092909190829003018186803b15801561310057600080fd5b505afa158015613114573d6000803e3d6000fd5b505050506040513d602081101561312a57600080fd5b50519050600061313b8a85846147ea565b90506131478b846150c4565b6131518a84614597565b61315b8b88614eb3565b6131658a85614679565b61316e8a615645565b6131798a828b6148b2565b604080516001600160a01b03808c168252808e1660208301528c1681830152606081018990526080810186905260a0810183905260c0810184905290517f0874b2d545cb271cdbda4e093020c452328b24af12382ed62c4d00f5c26709db9181900360e00190a160016000559a9950505050505050505050565b60266020526000908152604090205481565b60125481565b60008161321a57506000611a9c565b611eb4838361322886613cba565b6140d3565b6003546001600160a01b031681565b6001600160a01b038316600090815260246020908152604080832054602590925282205482858211613277576132728683614cb5565b613281565b6132818287614cb5565b9050600061329383611a918685614959565b905086831160006132a48689614c5b565b90506000826132bc576132b78285614c5b565b6132c6565b6132c68285614cb5565b90506132d681611a918c85614959565b9b9a5050505050505050505050565b60165462010000900460ff1681565b600f5481565b60008161330957506000611a9c565b611eb4838361322886612bc5565b61331f6143f7565b6001600160a01b03919091166000908152601a60205260409020805460ff1916911515919091179055565b601e6020526000908152604090205460ff1681565b6012546001600160a01b0382166000908152602260205260408120549091429161338891614c5b565b111561339657506000612d22565b6012546001600160a01b03831660009081526022602052604081205490916133c391611a91904290614cb5565b6001600160a01b038416600090815260096020526040902054909150806133ef57600092505050612d22565b6001600160a01b0384166000908152601c602052604081205460ff166134175760065461341b565b6007545b6001600160a01b0386166000908152600a6020526040902054909150613454908390611a9190869061344e908690614959565b90614959565b95945050505050565b602a6020526000908152604090205481565b6134776143f7565b6001600160a01b0382166000908152602e6020526040902054808211156134b1576134ab836134a68484614cb5565b6150c4565b506134c6565b6134c4836134bf8385614cb5565b614597565b505b5050565b600b5481565b6016546040805163b1cc53ab60e01b81526001600160a01b038681166004830152858116602483015284151560448301529151600093600160281b90049092169163b1cc53ab91606480820192602092909190829003018186803b15801561353757600080fd5b505afa15801561354b573d6000803e3d6000fd5b505050506040513d602081101561356157600080fd5b5051949350505050565b600a6020526000908152604090205481565b60065481565b60216020526000908152604090205481565b6016546040805163c7e074c360e01b81526001600160a01b03888116600483015260248201889052604482018790526064820186905284151560848301529151600093600160281b90049092169163c7e074c39160a480820192602092909190829003018186803b15801561360957600080fd5b505afa15801561361d573d6000803e3d6000fd5b505050506040513d602081101561363357600080fd5b50519695505050505050565b6136476143f7565b6134c46001600160a01b03831684836156e8565b6136636143f7565b600180546001600160a01b0319166001600160a01b0392909216919091179055565b61368d6143f7565b601455565b61369a6143f7565b6136a96127108211600261443e565b600b55565b6016546040805163d54d5a9f60e01b81526001600160a01b038881166004830152878116602483015286811660448301528515156064830152841515608483015282516000948594600160281b9091049092169263d54d5a9f9260a4808301939192829003018186803b15801561372457600080fd5b505afa158015613738573d6000803e3d6000fd5b505050506040513d604081101561374e57600080fd5b508051602090910151909890975095505050505050565b60226020526000908152604090205481565b60155481565b6016546040805163369d949360e21b81526001600160a01b0389811660048301528881166024830152878116604483015286151560648301526084820186905260a482018590529151600093600160281b90049092169163da76524c9160c480820192602092909190829003018186803b1580156137fa57600080fd5b505afa15801561380e573d6000803e3d6000fd5b505050506040513d602081101561382457600080fd5b5051979650505050505050565b602d6020526000908152604090205460ff1681565b601d6020526000908152604090205460ff1681565b600080600061386d8a8a8a8a88612843565b9092509050600061387e8a87614c5b565b9050600088156138ad578361389c576138978284614cb5565b6138a6565b6138a68284614c5b565b90506138ce565b836138c1576138bc8284614c5b565b6138cb565b6138cb8284614cb5565b90505b6138dc81611a918a85614959565b9450505050505b979650505050505050565b602b5481565b60006002600054141561393c576040805162461bcd60e51b815260206004820152601f6024820152600080516020615db6833981519152604482015290519081900360640190fd5b6002600055601654600160201b900460ff161561397157336000908152601960205260409020546139719060ff16602261443e565b61397b858561410d565b600061398987878787611c98565b9050613993615d63565b50600081815260086020908152604091829020825160e08101845281548082526001830154938201939093526002820154938101939093526003810154606084015260048101546080840152600581015460a08401526006015460c08301526139ff901515602361443e565b600080613a108a8a8a8a60006136ae565b91509150613a238260001415602461443e565b8160021415613a4b57613a408a8a8a600087600001518c33615182565b945050505050613ca6565b6000613a578a8361320b565b6001600160a01b038b16600090815260236020526040902054909150613a7d9082614c5b565b6001600160a01b038b1660008181526023602090815260409182902093909355805191825291810184905280820183905290517f5d0c0019d3d45fadeb74eff9d2c9924d146d000ac6bcf3c28bf0ac3c9baa011a9181900360600190a1613ae88a856080015161573a565b8715613b175760208401518451613b09918c91613b0491614cb5565b614e37565b613b178a6122738c8561320b565b600088613b2c57613b278a613cba565b613b35565b613b358a612bc5565b90507f2e1f85a64a2f22cf2f0c42584e7c919ed4abe8d53675cff0f62bf1e95a1c676f868d8d8d8d8a600001518b602001518c608001518d60a001518a604051808b81526020018a6001600160a01b03168152602001896001600160a01b03168152602001886001600160a01b0316815260200187151581526020018681526020018581526020018481526020018381526020018281526020019a505050505050505050505060405180910390a188158015613bf45750846020015183105b15613c22576020850151600090613c0b9085614cb5565b9050613c208c613c1b8e8461320b565b614eb3565b505b88613c3557613c358a86600001516157f1565b600086815260086020526040812081815560018101829055600281018290556003810182905560048101829055600580820183905560069091019190915554613c85908c9061227390829061320b565b613c9b8b613c958d60055461320b565b8a6148b2565b600096505050505050505b600160005595945050505050565b60105481565b6001600160a01b0381166000908152601e602052604081205460ff168015613ce4575060305460ff165b15613d4f5760048054604080516317e1d38560e11b81526001600160a01b038681169482019490945260016024820181905260448201526000606482015290519290911691632fc3a70a91608480820192602092909190829003018186803b158015612c5a57600080fd5b60048054604080516317e1d38560e11b81526001600160a01b038681169482019490945260016024820181905260448201819052606482015290519290911691632fc3a70a91608480820192602092909190829003018186803b158015612cf357600080fd5b602c8181548110613dc257fe5b6000918252602090912001546001600160a01b0316905081565b613de46143f7565b6001600160a01b0381166000908152602d6020526040902054613e0b9060ff16600d61443e565b6001600160a01b0381166000908152602a6020526040902054602b54613e3091614cb5565b602b556001600160a01b0381166000908152602d60209081526040808320805460ff1990811690915560288352818420849055602a8352818420849055601b8352818420849055602f8352818420849055601c8352818420805482169055601d90925290912080549091169055601354613eab906001614cb5565b60135550565b613eb96143f7565b6001600160a01b0388166000908152602d602052604090205460ff16613f3657601354613ee7906001614c5b565b601355602c80546001810182556000919091527f7416c943b4a09859521022fd2e90eac0dd9026dad28fa317782a135f28a860910180546001600160a01b0319166001600160a01b038a161790555b602b546001600160a01b0389166000908152602a6020526040902054613f5d908290614cb5565b6001600160a01b038a166000908152602d602090815260408083208054600160ff1991821617909155602883528184208d9055602a83528184208c9055601b83528184208b9055602f83528184208a9055601c8352818420805482168a1515179055601d835281842080548216891515179055601e90925290912080549091168415151790559050613fef8188614c5b565b602b55505050505050505050565b6140056143f7565b6001600160a01b03909116600090815260266020526040902055565b602080526000908152604090205481565b61403a6143f7565b60168054911515600160201b0264ff0000000019909216919091179055565b60006140636143f7565b6001600160a01b0383166000908152602360205260409020548061408b576000915050611a9c565b6001600160a01b038416600090815260236020526040812055611eb48482856148b2565b601a6020526000908152604090205460ff1681565b6002546001600160a01b031681565b6000826140e257506000611eb4565b6001600160a01b03841660009081526028602052604090205461345483611a9186600a85900a614959565b6016546040805163fbfded6d60e01b81526001600160a01b03858116600483015284811660248301529151600093600160281b90049092169163fbfded6d9160448082019260209290919082900301818787803b15801561416d57600080fd5b505af1158015614181573d6000803e3d6000fd5b505050506040513d602081101561419757600080fd5b50519050806141a657506134c6565b6001600160a01b0383166000908152602260205260409020546141f3576012546141d49061344e42826149b2565b6001600160a01b038416600090815260226020526040902055506134c6565b6012546001600160a01b038416600090815260226020526040902054429161421b9190614c5b565b111561422757506134c6565b60006142328461335f565b6001600160a01b0385166000908152602160205260409020549091506142589082614c5b565b6001600160a01b0385166000908152602160205260409020556012546142829061344e42826149b2565b6001600160a01b03851660008181526022602090815260408083209490945560218152908390205483519283529082015281517fa146fc154e1913322e9817d49f0d5c37466c24326e15de10e739a948be815eab929181900390910190a150505050565b6016546040805163fdaf6ac360e01b81526001600160a01b038881166004830152878116602483015286811660448301528515156064830152608482018590529151600093600160281b90049092169163fdaf6ac39160a480820192602092909190829003018186803b15801561360957600080fd5b60276020908152600091825260409182902080548351601f6002600019610100600186161502019093169290920491820184900484028101840190945280845290918301828280156143ef5780601f106143c4576101008083540402835291602001916143ef565b820191906000526020600020905b8154815290600101906020018083116143d257829003601f168201915b505050505081565b600154614410906001600160a01b03163314603561443e565b565b6016546301000000900460ff161561441057336000908152601a60205260409020546144109060ff1660365b6000818152602760205260409020826134c45760405162461bcd60e51b81526020600482019081528254600260001961010060018416150201909116046024830181905290918291604490910190849080156144db5780601f106144b0576101008083540402835291602001916144db565b820191906000526020600020905b8154815290600101906020018083116144be57829003601f168201915b50509250505060405180910390fd5b6001600160a01b03811660008181526029602090815260408083205481516370a0823160e01b8152306004820152915193949093859391926370a08231926024808301939192829003018186803b15801561454457600080fd5b505afa158015614558573d6000803e3d6000fd5b505050506040513d602081101561456e57600080fd5b50516001600160a01b03851660009081526029602052604090208190559050612f078183614cb5565b6001600160a01b0382166000908152602e6020526040902054818111614612576001600160a01b0383166000818152602e60209081526040808320929092558151928352820183905280517fec47cc044bef28293f4a873e76cadf7029a60922b8fb2655f475fd89b3bfc0f69281900390910190a1506134c6565b61461c8183614cb5565b6001600160a01b0384166000818152602e602090815260409182902093909355805191825291810184905281517fec47cc044bef28293f4a873e76cadf7029a60922b8fb2655f475fd89b3bfc0f6929181900390910190a1505050565b604080518082018252601a81527f5661756c743a20706f6f6c416d6f756e742065786365656465640000000000006020808301919091526001600160a01b0385166000908152600990915291909120546146d4918390615859565b6001600160a01b0383166000908152600960209081526040808320849055600a909152902054614707911015603261443e565b604080516001600160a01b03841681526020810183905281517f112726233fbeaeed0f5b1dba5cb0b2b81883dee49fb35ff99fd98ed9f6d31eb0929181900390910190a15050565b6000816001600160a01b03166370a08231306040518263ffffffff1660e01b815260040180826001600160a01b0316815260200191505060206040518083038186803b15801561479e57600080fd5b505afa1580156147b2573d6000803e3d6000fd5b505050506040513d60208110156147c857600080fd5b50516001600160a01b0390921660009081526029602052604090209190915550565b600080614807612710611a916148008287614cb5565b8790614959565b905060006148158583614cb5565b6001600160a01b03871660009081526023602052604090205490915061483b9082614c5b565b6001600160a01b0387166000908152602360205260409020557f47cd9dda0e50ce30bcaaacd0488452b596221c07ac402a581cfae4d3933cac2b866148808184611a49565b604080516001600160a01b0390931683526020830191909152818101849052519081900360600190a150949350505050565b6148c66001600160a01b03841682846156e8565b604080516370a0823160e01b815230600482015290516001600160a01b038516916370a08231916024808301926020929190829003018186803b15801561490c57600080fd5b505afa158015614920573d6000803e3d6000fd5b505050506040513d602081101561493657600080fd5b50516001600160a01b039093166000908152602960205260409020929092555050565b60008261496857506000611a9c565b8282028284828161497557fe5b0414611eb45760405162461bcd60e51b8152600401808060200182810382526021815260200180615dd66021913960400191505060405180910390fd5b6000611eb483836040518060400160405280601a81526020017f536166654d6174683a206469766973696f6e206279207a65726f0000000000008152506158b3565b601454614a0057614410565b6144106014543a1115603761443e565b336001600160a01b0382161415614a2657614a70565b6002546001600160a01b0316331415614a3e57614a70565b6001600160a01b0381166000908152601860209081526040808320338452909152902054614a709060ff16602961443e565b50565b8015614aec57614a98826001600160a01b0316846001600160a01b031614602a61443e565b6001600160a01b0383166000908152602d6020526040902054614abf9060ff16602b61443e565b6001600160a01b0383166000908152601c6020526040902054614ae79060ff1615602c61443e565b6134c4565b6001600160a01b0383166000908152602d6020819052604090912054614b179160ff9091169061443e565b6001600160a01b0383166000908152601c6020526040902054614b3e9060ff16602e61443e565b6001600160a01b0382166000908152601c6020526040902054614b669060ff1615602f61443e565b6001600160a01b0382166000908152601d60205260409020546134c49060ff16603061443e565b600080614b9d89898989896142e6565b90506000614baf8a8a8a8a898961377d565b9050614bbb8282614c5b565b91506000614bc98a8461320b565b6001600160a01b038b16600090815260236020526040902054909150614bef9082614c5b565b6001600160a01b038b1660008181526023602090815260409182902093909355805191825291810185905280820183905290517f5d0c0019d3d45fadeb74eff9d2c9924d146d000ac6bcf3c28bf0ac3c9baa011a9181900360600190a150909998505050505050505050565b600082820183811015611eb4576040805162461bcd60e51b815260206004820152601b60248201527f536166654d6174683a206164646974696f6e206f766572666c6f770000000000604482015290519081900360640190fd5b6000611eb483836040518060400160405280601e81526020017f536166654d6174683a207375627472616374696f6e206f766572666c6f770000815250615859565b81614d0d57614d088115602761443e565b6134c6565b6134c681831015602861443e565b6001600160a01b0382166000908152600a6020526040902054614d3e9082614c5b565b6001600160a01b0383166000908152600a6020818152604080842085905560098252909220549152614d73911115603461443e565b604080516001600160a01b03841681526020810183905281517faa5649d82f5462be9d19b0f2b31a59b2259950a6076550bac9f3a1c07db9f66d929181900390910190a15050565b6001600160a01b0382166000908152602080526040902054614ddd9082614c5b565b6001600160a01b0383166000818152602080805260409182902093909355805191825291810183905281517fd9d4761f75e0d0103b5cbeab941eeb443d7a56a35b5baf2a0787c03f03f4e474929181900390910190a15050565b6001600160a01b0382166000908152602080526040902054614e599082614cb5565b6001600160a01b0383166000818152602080805260409182902093909355805191825291810183905281517f34e07158b9db50df5613e591c44ea2ebc82834eff4a4dc3a46e000e608261d68929181900390910190a15050565b6001600160a01b038216600090815260096020526040902054614ed69082614c5b565b6001600160a01b03831660008181526009602090815260408083209490945583516370a0823160e01b8152306004820152935191936370a082319260248083019392829003018186803b158015614f2c57600080fd5b505afa158015614f40573d6000803e3d6000fd5b505050506040513d6020811015614f5657600080fd5b50516001600160a01b038416600090815260096020526040902054909150614f8290821015603161443e565b604080516001600160a01b03851681526020810184905281517f976177fbe09a15e5e43f848844963a42b41ef919ef17ff21a17a5421de8f4737929181900390910190a1505050565b6001600160a01b038216600090815260246020526040902054614fee9082614c5b565b6001600160a01b03831660009081526024602090815260408083209390935560269052205480156134c4578060246000856001600160a01b03166001600160a01b031681526020019081526020016000205411156040518060400160405280601a81526020017f5661756c743a206d61782073686f72747320657863656564656400000000000081525090611c4d5760405162461bcd60e51b8152602060048201818152835160248401528351909283926044909101919085019080838360008315611bf8578181015183820152602001611be0565b6001600160a01b0382166000908152602e60205260409020546150e79082614c5b565b6001600160a01b0383166000908152602e6020908152604080832093909355602f905220548015615139576001600160a01b0383166000908152602e602052604090205461513990821015603361443e565b604080516001600160a01b03851681526020810184905281517f982ef4a8d5cbd9ece9ad1dabc077a621c58fd63f622a48b0a05011d54a2466ab929181900390910190a1505050565b601654604080516381d11a2360e01b81526001600160a01b038a8116600483015289811660248301528881166044830152606482018890526084820187905285151560a483015284811660c48301529151600093600160281b9004909216916381d11a239160e4808201928692909190829003018186803b15801561520657600080fd5b505afa15801561521a573d6000803e3d6000fd5b50505050615228878761410d565b600061523689898987611c98565b6000818152600860205260409020805491925090615257901515601f61443e565b6152698682600001541015602061443e565b61527b8782600101541015602161443e565b60018101548154600483015460009161529891611a91908b614959565b60048401549091506152aa9082614cb5565b60048401556152b98b8261573a565b506000806152cb8d8d8d8d8d8d615918565b85549193509150891461546f576152e38c8c8a6134d0565b600385015583546152f4908a614cb5565b80855560018501546153069190614cf7565b6153148d8d8d8b60016136ae565b50508715615341576153378c61224c866001015486614cb590919063ffffffff16565b6153418c8a614e37565b600088615356576153518c613cba565b61535f565b61535f8c612bc5565b90507f93d75d64d1f84fc6f430a64fc578bdd4c1e090e90ea2d51773e626d19de56d30868f8f8f8f8f8f886153948c8c614cb5565b60408051998a526001600160a01b0398891660208b015296881689880152949096166060880152608087019290925260a0860152151560c085015260e084019290925261010083019190915251908190036101200190a18454600186015460028701546003880154600489015460058a0154604080518d81526020810197909752868101959095526060860193909352608085019190915260a084015260c083015260e08201839052517f20853733b590dce729d9f4628682ebd9a34d2354e72679e66f43a008fc03b773918190036101000190a1506155e3565b87156154895761547f8c84614dbb565b6154898c8a614e37565b60008861549e576154998c613cba565b6154a7565b6154a78c612bc5565b90507f93d75d64d1f84fc6f430a64fc578bdd4c1e090e90ea2d51773e626d19de56d30868f8f8f8f8f8f886154dc8c8c614cb5565b60408051998a526001600160a01b0398891660208b015296881689880152949096166060880152608087019290925260a0860152151560c085015260e084019290925261010083019190915251908190036101200190a18454600186015460028701546003880154600489015460058a0154604080518d81526020810197909752868101959095526060860193909352608085019190915260a084015260c0830152517f73af1d417d82c240fdb6d319b34ad884487c6bf2845d98980cc52ad9171cb4559181900360e00190a15060008581526008602052604081208181556001810182905560028101829055600381018290556004810182905560058101829055600601555b876155f2576155f28b8a6157f1565b811561563257871561560c5761560c8c6122738e8561320b565b60006156188d8361320b565b90506156258d828a6148b2565b95506138e3945050505050565b5060009c9b505050505050505050505050565b6001600160a01b0381166000908152601f60209081526040808320546009909252909120541015614a7057604080518082018252601a81527f5661756c743a20706f6f6c416d6f756e74203c206275666665720000000000006020808301918252925162461bcd60e51b81526004810193845282516024820152825192939283926044909201919080838360008315611bf8578181015183820152602001611be0565b604080516001600160a01b038416602482015260448082018490528251808303909101815260649091019091526020810180516001600160e01b031663a9059cbb60e01b1790526134c4908490615b12565b604080518082018252601b81527f5661756c743a20696e73756666696369656e74207265736572766500000000006020808301919091526001600160a01b0385166000908152600a9091529190912054615795918390615859565b6001600160a01b0383166000818152600a602090815260409182902093909355805191825291810183905281517f533cb5ed32be6a90284e96b5747a1bfc2d38fdb5768a6b5f67ff7d62144ed67b929181900390910190a15050565b6001600160a01b0382166000908152602460205260409020548082111561583157506001600160a01b0382166000908152602460205260408120556134c6565b61583b8183614cb5565b6001600160a01b038416600090815260246020526040902055505050565b600081848411156158ab5760405162461bcd60e51b8152602060048201818152835160248401528351909283926044909101919085019080838360008315611bf8578181015183820152602001611be0565b505050900390565b600081836159025760405162461bcd60e51b8152602060048201818152835160248401528351909283926044909101919085019080838360008315611bf8578181015183820152602001611be0565b50600083858161590e57fe5b0495945050505050565b600080600061592989898987611c98565b6000818152600860205260408120805460038201549394509092615956918d918d918d918b918d91614b8d565b90506000806000806159778d876000015488600201548d8a60060154612843565b8754919550859350915061598f90611a918d84614959565b9250505060008280156159a25750600082115b156159d257506005840180548201905580886159d25760006159c48e8461320b565b90506159d08e82614679565b505b821580156159e05750600082115b15615a245760018501546159f49083614cb5565b600186015588615a18576000615a0a8e8461320b565b9050615a168e82614eb3565b505b60058501805483900390555b8a15615a4c57615a34818c614c5b565b6001860154909150615a46908c614cb5565b60018601555b84548a1415615a6f576001850154615a65908290614c5b565b6000600187015590505b8084811115615a8957615a828286614cb5565b9050615abd565b6001860154615a989086614cb5565b60018701558915615abd576000615aaf8f8761320b565b9050615abb8f82614679565b505b60408051888152851515602082015280820185905290517f3ff41bdde87755b687ae83d0221a232b6be51a803330ed9661c1b5d0105e0d8a9181900360600190a1909e909d509b505050505050505050505050565b6060615b67826040518060400160405280602081526020017f5361666545524332303a206c6f772d6c6576656c2063616c6c206661696c6564815250856001600160a01b0316615bc39092919063ffffffff16565b8051909150156134c457808060200190516020811015615b8657600080fd5b50516134c45760405162461bcd60e51b815260040180806020018281038252602a815260200180615df7602a913960400191505060405180910390fd5b6060612f0784846000858560006060866001600160a01b031685876040518082805190602001908083835b60208310615c0d5780518252601f199092019160209182019101615bee565b6001836020036101000a03801982511681845116808217855250505050505090500191505060006040518083038185875af1925050503d8060008114615c6f576040519150601f19603f3d011682016040523d82523d6000602084013e615c74565b606091505b50915091506138e382828660608315615c8e575081611eb4565b825115615c9e5782518084602001fd5b60405162461bcd60e51b8152602060048201818152845160248401528451859391928392604401919085019080838360008315611bf8578181015183820152602001611be0565b828054600181600116156101000203166002900490600052602060002090601f016020900481019282601f10615d265782800160ff19823516178555615d53565b82800160010185558215615d53579182015b82811115615d53578235825591602001919060010190615d38565b50615d5f929150615da0565b5090565b6040518060e00160405280600081526020016000815260200160008152602001600081526020016000815260200160008152602001600081525090565b5b80821115615d5f5760008155600101615da156fe5265656e7472616e637947756172643a207265656e7472616e742063616c6c00536166654d6174683a206d756c7469706c69636174696f6e206f766572666c6f775361666545524332303a204552433230206f7065726174696f6e20646964206e6f742073756363656564a2646970667358221220eabfbbdf9b72aa3ca83b3caaadc48a4ce1c82f085b2b4816d5d390cdd6ed139364736f6c634300060c0033",
  "devdoc": {
    "kind": "dev",
    "methods": {
      "buyZKUSD(address,address)": {
        "params": {
          "_receiver": "receiver of zkUSD",
          "_token": "token to buy zkUSD with"
        },
        "returns": {
          "_0": "mintAmount amount of zkUSD minted"
        }
      },
      "decreasePosition(address,address,address,uint256,uint256,bool,address)": {
        "params": {
          "_account": "account to decrease position for",
          "_collateralDelta": "amount of collateral to withdraw",
          "_collateralToken": "token to use as collateral",
          "_indexToken": "token to use as index",
          "_isLong": "true if long, false if short",
          "_receiver": "receiver of tokens",
          "_sizeDelta": "size to decrease position by"
        },
        "returns": {
          "_0": "amountOut amount of tokens received"
        }
      },
      "increasePosition(address,address,address,uint256,bool)": {
        "params": {
          "_account": "account to increase position for",
          "_collateralToken": "token to use as collateral",
          "_indexToken": "token to use as index",
          "_isLong": "true if long, false if short",
          "_sizeDelta": "size to increase position by"
        }
      },
      "liquidatePosition(address,address,address,bool,address)": {
        "params": {
          "_account": "account to close position for",
          "_collateralToken": "token to use as collateral",
          "_feeReceiver": "receiver of tokens",
          "_indexToken": "token to use as index",
          "_isLong": "true if long, false if short"
        }
      },
      "sellZKUSD(address,address)": {
        "params": {
          "_receiver": "receiver of token",
          "_token": "token to sell zkUSD for"
        },
        "returns": {
          "_0": "amountOut amount of token received"
        }
      },
      "swap(address,address,address)": {
        "params": {
          "_receiver": "receiver of token",
          "_tokenIn": "token to swap from",
          "_tokenOut": "token to swap to"
        },
        "returns": {
          "_0": "amountOut amount of token received"
        }
      }
    },
    "version": 1
  },
  "userdoc": {
    "kind": "user",
    "methods": {},
    "version": 1
  },
  "storageLayout": {
    "storage": [
      {
        "astId": 15334,
        "contract": "contracts/core/Vault.sol:Vault",
        "label": "_status",
        "offset": 0,
        "slot": "0",
        "type": "t_uint256"
      },
      {
        "astId": 12497,
        "contract": "contracts/core/Vault.sol:Vault",
        "label": "gov",
        "offset": 0,
        "slot": "1",
        "type": "t_address"
      },
      {
        "astId": 12500,
        "contract": "contracts/core/Vault.sol:Vault",
        "label": "isInitialized",
        "offset": 20,
        "slot": "1",
        "type": "t_bool"
      },
      {
        "astId": 12503,
        "contract": "contracts/core/Vault.sol:Vault",
        "label": "router",
        "offset": 0,
        "slot": "2",
        "type": "t_address"
      },
      {
        "astId": 12506,
        "contract": "contracts/core/Vault.sol:Vault",
        "label": "zkusd",
        "offset": 0,
        "slot": "3",
        "type": "t_address"
      },
      {
        "astId": 12509,
        "contract": "contracts/core/Vault.sol:Vault",
        "label": "priceFeed",
        "offset": 0,
        "slot": "4",
        "type": "t_address"
      },
      {
        "astId": 12512,
        "contract": "contracts/core/Vault.sol:Vault",
        "label": "liquidationFeeUsd",
        "offset": 0,
        "slot": "5",
        "type": "t_uint256"
      },
      {
        "astId": 12515,
        "contract": "contracts/core/Vault.sol:Vault",
        "label": "fundingRateFactor",
        "offset": 0,
        "slot": "6",
        "type": "t_uint256"
      },
      {
        "astId": 12518,
        "contract": "contracts/core/Vault.sol:Vault",
        "label": "stableFundingRateFactor",
        "offset": 0,
        "slot": "7",
        "type": "t_uint256"
      },
      {
        "astId": 12522,
        "contract": "contracts/core/Vault.sol:Vault",
        "label": "positions",
        "offset": 0,
        "slot": "8",
        "type": "t_mapping(t_bytes32,t_struct(Position)13614_storage)"
      },
      {
        "astId": 12527,
        "contract": "contracts/core/Vault.sol:Vault",
        "label": "poolAmounts",
        "offset": 0,
        "slot": "9",
        "type": "t_mapping(t_address,t_uint256)"
      },
      {
        "astId": 12532,
        "contract": "contracts/core/Vault.sol:Vault",
        "label": "reservedAmounts",
        "offset": 0,
        "slot": "10",
        "type": "t_mapping(t_address,t_uint256)"
      },
      {
        "astId": 12538,
        "contract": "contracts/core/Vault.sol:Vault",
        "label": "maxLeverage",
        "offset": 0,
        "slot": "11",
        "type": "t_uint256"
      },
      {
        "astId": 12542,
        "contract": "contracts/core/Vault.sol:Vault",
        "label": "taxBasisPoints",
        "offset": 0,
        "slot": "12",
        "type": "t_uint256"
      },
      {
        "astId": 12546,
        "contract": "contracts/core/Vault.sol:Vault",
        "label": "stableTaxBasisPoints",
        "offset": 0,
        "slot": "13",
        "type": "t_uint256"
      },
      {
        "astId": 12550,
        "contract": "contracts/core/Vault.sol:Vault",
        "label": "mintBurnFeeBasisPoints",
        "offset": 0,
        "slot": "14",
        "type": "t_uint256"
      },
      {
        "astId": 12554,
        "contract": "contracts/core/Vault.sol:Vault",
        "label": "swapFeeBasisPoints",
        "offset": 0,
        "slot": "15",
        "type": "t_uint256"
      },
      {
        "astId": 12558,
        "contract": "contracts/core/Vault.sol:Vault",
        "label": "stableSwapFeeBasisPoints",
        "offset": 0,
        "slot": "16",
        "type": "t_uint256"
      },
      {
        "astId": 12562,
        "contract": "contracts/core/Vault.sol:Vault",
        "label": "marginFeeBasisPoints",
        "offset": 0,
        "slot": "17",
        "type": "t_uint256"
      },
      {
        "astId": 12566,
        "contract": "contracts/core/Vault.sol:Vault",
        "label": "fundingInterval",
        "offset": 0,
        "slot": "18",
        "type": "t_uint256"
      },
      {
        "astId": 12569,
        "contract": "contracts/core/Vault.sol:Vault",
        "label": "whitelistedTokenCount",
        "offset": 0,
        "slot": "19",
        "type": "t_uint256"
      },
      {
        "astId": 12572,
        "contract": "contracts/core/Vault.sol:Vault",
        "label": "maxGasPrice",
        "offset": 0,
        "slot": "20",
        "type": "t_uint256"
      },
      {
        "astId": 12575,
        "contract": "contracts/core/Vault.sol:Vault",
        "label": "minProfitTime",
        "offset": 0,
        "slot": "21",
        "type": "t_uint256"
      },
      {
        "astId": 12579,
        "contract": "contracts/core/Vault.sol:Vault",
        "label": "isSwapEnabled",
        "offset": 0,
        "slot": "22",
        "type": "t_bool"
      },
      {
        "astId": 12583,
        "contract": "contracts/core/Vault.sol:Vault",
        "label": "isLeverageEnabled",
        "offset": 1,
        "slot": "22",
        "type": "t_bool"
      },
      {
        "astId": 12587,
        "contract": "contracts/core/Vault.sol:Vault",
        "label": "hasDynamicFees",
        "offset": 2,
        "slot": "22",
        "type": "t_bool"
      },
      {
        "astId": 12591,
        "contract": "contracts/core/Vault.sol:Vault",
        "label": "inManagerMode",
        "offset": 3,
        "slot": "22",
        "type": "t_bool"
      },
      {
        "astId": 12595,
        "contract": "contracts/core/Vault.sol:Vault",
        "label": "inPrivateLiquidationMode",
        "offset": 4,
        "slot": "22",
        "type": "t_bool"
      },
      {
        "astId": 12597,
        "contract": "contracts/core/Vault.sol:Vault",
        "label": "vaultUtils",
        "offset": 5,
        "slot": "22",
        "type": "t_contract(IVaultUtils)7574"
      },
      {
        "astId": 12599,
        "contract": "contracts/core/Vault.sol:Vault",
        "label": "errorController",
        "offset": 0,
        "slot": "23",
        "type": "t_address"
      },
      {
        "astId": 12606,
        "contract": "contracts/core/Vault.sol:Vault",
        "label": "approvedRouters",
        "offset": 0,
        "slot": "24",
        "type": "t_mapping(t_address,t_mapping(t_address,t_bool))"
      },
      {
        "astId": 12611,
        "contract": "contracts/core/Vault.sol:Vault",
        "label": "isLiquidator",
        "offset": 0,
        "slot": "25",
        "type": "t_mapping(t_address,t_bool)"
      },
      {
        "astId": 12616,
        "contract": "contracts/core/Vault.sol:Vault",
        "label": "isManager",
        "offset": 0,
        "slot": "26",
        "type": "t_mapping(t_address,t_bool)"
      },
      {
        "astId": 12621,
        "contract": "contracts/core/Vault.sol:Vault",
        "label": "minProfitBasisPoints",
        "offset": 0,
        "slot": "27",
        "type": "t_mapping(t_address,t_uint256)"
      },
      {
        "astId": 12626,
        "contract": "contracts/core/Vault.sol:Vault",
        "label": "stableTokens",
        "offset": 0,
        "slot": "28",
        "type": "t_mapping(t_address,t_bool)"
      },
      {
        "astId": 12631,
        "contract": "contracts/core/Vault.sol:Vault",
        "label": "shortableTokens",
        "offset": 0,
        "slot": "29",
        "type": "t_mapping(t_address,t_bool)"
      },
      {
        "astId": 12636,
        "contract": "contracts/core/Vault.sol:Vault",
        "label": "equityTokens",
        "offset": 0,
        "slot": "30",
        "type": "t_mapping(t_address,t_bool)"
      },
      {
        "astId": 12641,
        "contract": "contracts/core/Vault.sol:Vault",
        "label": "bufferAmounts",
        "offset": 0,
        "slot": "31",
        "type": "t_mapping(t_address,t_uint256)"
      },
      {
        "astId": 12646,
        "contract": "contracts/core/Vault.sol:Vault",
        "label": "guaranteedUsd",
        "offset": 0,
        "slot": "32",
        "type": "t_mapping(t_address,t_uint256)"
      },
      {
        "astId": 12651,
        "contract": "contracts/core/Vault.sol:Vault",
        "label": "cumulativeFundingRates",
        "offset": 0,
        "slot": "33",
        "type": "t_mapping(t_address,t_uint256)"
      },
      {
        "astId": 12656,
        "contract": "contracts/core/Vault.sol:Vault",
        "label": "lastFundingTimes",
        "offset": 0,
        "slot": "34",
        "type": "t_mapping(t_address,t_uint256)"
      },
      {
        "astId": 12661,
        "contract": "contracts/core/Vault.sol:Vault",
        "label": "feeReserves",
        "offset": 0,
        "slot": "35",
        "type": "t_mapping(t_address,t_uint256)"
      },
      {
        "astId": 12666,
        "contract": "contracts/core/Vault.sol:Vault",
        "label": "globalShortSizes",
        "offset": 0,
        "slot": "36",
        "type": "t_mapping(t_address,t_uint256)"
      },
      {
        "astId": 12671,
        "contract": "contracts/core/Vault.sol:Vault",
        "label": "globalShortAveragePrices",
        "offset": 0,
        "slot": "37",
        "type": "t_mapping(t_address,t_uint256)"
      },
      {
        "astId": 12676,
        "contract": "contracts/core/Vault.sol:Vault",
        "label": "maxGlobalShortSizes",
        "offset": 0,
        "slot": "38",
        "type": "t_mapping(t_address,t_uint256)"
      },
      {
        "astId": 12680,
        "contract": "contracts/core/Vault.sol:Vault",
        "label": "errors",
        "offset": 0,
        "slot": "39",
        "type": "t_mapping(t_uint256,t_string_storage)"
      },
      {
        "astId": 12685,
        "contract": "contracts/core/Vault.sol:Vault",
        "label": "tokenDecimals",
        "offset": 0,
        "slot": "40",
        "type": "t_mapping(t_address,t_uint256)"
      },
      {
        "astId": 12690,
        "contract": "contracts/core/Vault.sol:Vault",
        "label": "tokenBalances",
        "offset": 0,
        "slot": "41",
        "type": "t_mapping(t_address,t_uint256)"
      },
      {
        "astId": 12695,
        "contract": "contracts/core/Vault.sol:Vault",
        "label": "tokenWeights",
        "offset": 0,
        "slot": "42",
        "type": "t_mapping(t_address,t_uint256)"
      },
      {
        "astId": 12698,
        "contract": "contracts/core/Vault.sol:Vault",
        "label": "totalTokenWeights",
        "offset": 0,
        "slot": "43",
        "type": "t_uint256"
      },
      {
        "astId": 12702,
        "contract": "contracts/core/Vault.sol:Vault",
        "label": "allWhitelistedTokens",
        "offset": 0,
        "slot": "44",
        "type": "t_array(t_address)dyn_storage"
      },
      {
        "astId": 12707,
        "contract": "contracts/core/Vault.sol:Vault",
        "label": "whitelistedTokens",
        "offset": 0,
        "slot": "45",
        "type": "t_mapping(t_address,t_bool)"
      },
      {
        "astId": 12712,
        "contract": "contracts/core/Vault.sol:Vault",
        "label": "zkusdAmounts",
        "offset": 0,
        "slot": "46",
        "type": "t_mapping(t_address,t_uint256)"
      },
      {
        "astId": 12717,
        "contract": "contracts/core/Vault.sol:Vault",
        "label": "maxZkusdAmounts",
        "offset": 0,
        "slot": "47",
        "type": "t_mapping(t_address,t_uint256)"
      },
      {
        "astId": 12719,
        "contract": "contracts/core/Vault.sol:Vault",
        "label": "allowStaleEquityPrice",
        "offset": 0,
        "slot": "48",
        "type": "t_bool"
      },
      {
        "astId": 12721,
        "contract": "contracts/core/Vault.sol:Vault",
        "label": "zusd",
        "offset": 1,
        "slot": "48",
        "type": "t_address"
      }
    ],
    "types": {
      "t_address": {
        "encoding": "inplace",
        "label": "address",
        "numberOfBytes": "20"
      },
      "t_array(t_address)dyn_storage": {
        "base": "t_address",
        "encoding": "dynamic_array",
        "label": "address[]",
        "numberOfBytes": "32"
      },
      "t_bool": {
        "encoding": "inplace",
        "label": "bool",
        "numberOfBytes": "1"
      },
      "t_bytes32": {
        "encoding": "inplace",
        "label": "bytes32",
        "numberOfBytes": "32"
      },
      "t_contract(IVaultUtils)7574": {
        "encoding": "inplace",
        "label": "contract IVaultUtils",
        "numberOfBytes": "20"
      },
      "t_int256": {
        "encoding": "inplace",
        "label": "int256",
        "numberOfBytes": "32"
      },
      "t_mapping(t_address,t_bool)": {
        "encoding": "mapping",
        "key": "t_address",
        "label": "mapping(address => bool)",
        "numberOfBytes": "32",
        "value": "t_bool"
      },
      "t_mapping(t_address,t_mapping(t_address,t_bool))": {
        "encoding": "mapping",
        "key": "t_address",
        "label": "mapping(address => mapping(address => bool))",
        "numberOfBytes": "32",
        "value": "t_mapping(t_address,t_bool)"
      },
      "t_mapping(t_address,t_uint256)": {
        "encoding": "mapping",
        "key": "t_address",
        "label": "mapping(address => uint256)",
        "numberOfBytes": "32",
        "value": "t_uint256"
      },
      "t_mapping(t_bytes32,t_struct(Position)13614_storage)": {
        "encoding": "mapping",
        "key": "t_bytes32",
        "label": "mapping(bytes32 => struct DataTypes.Position)",
        "numberOfBytes": "32",
        "value": "t_struct(Position)13614_storage"
      },
      "t_mapping(t_uint256,t_string_storage)": {
        "encoding": "mapping",
        "key": "t_uint256",
        "label": "mapping(uint256 => string)",
        "numberOfBytes": "32",
        "value": "t_string_storage"
      },
      "t_string_storage": {
        "encoding": "bytes",
        "label": "string",
        "numberOfBytes": "32"
      },
      "t_struct(Position)13614_storage": {
        "encoding": "inplace",
        "label": "struct DataTypes.Position",
        "members": [
          {
            "astId": 13601,
            "contract": "contracts/core/Vault.sol:Vault",
            "label": "size",
            "offset": 0,
            "slot": "0",
            "type": "t_uint256"
          },
          {
            "astId": 13603,
            "contract": "contracts/core/Vault.sol:Vault",
            "label": "collateral",
            "offset": 0,
            "slot": "1",
            "type": "t_uint256"
          },
          {
            "astId": 13605,
            "contract": "contracts/core/Vault.sol:Vault",
            "label": "averagePrice",
            "offset": 0,
            "slot": "2",
            "type": "t_uint256"
          },
          {
            "astId": 13607,
            "contract": "contracts/core/Vault.sol:Vault",
            "label": "entryFundingRate",
            "offset": 0,
            "slot": "3",
            "type": "t_uint256"
          },
          {
            "astId": 13609,
            "contract": "contracts/core/Vault.sol:Vault",
            "label": "reserveAmount",
            "offset": 0,
            "slot": "4",
            "type": "t_uint256"
          },
          {
            "astId": 13611,
            "contract": "contracts/core/Vault.sol:Vault",
            "label": "realisedPnl",
            "offset": 0,
            "slot": "5",
            "type": "t_int256"
          },
          {
            "astId": 13613,
            "contract": "contracts/core/Vault.sol:Vault",
            "label": "lastIncreasedTime",
            "offset": 0,
            "slot": "6",
            "type": "t_uint256"
          }
        ],
        "numberOfBytes": "224"
      },
      "t_uint256": {
        "encoding": "inplace",
        "label": "uint256",
        "numberOfBytes": "32"
      }
    }
  }
}