{
  "address": "0x0449854533B847f4e8DD3b10E46CF37d698dAaa0",
  "abi": [
    {
      "inputs": [
        {
          "internalType": "address",
          "name": "_layerZeroEndpoint",
          "type": "address"
        },
        {
          "internalType": "address",
          "name": "_owner",
          "type": "address"
        }
      ],
      "stateMutability": "nonpayable",
      "type": "constructor"
    },
    {
      "anonymous": false,
      "inputs": [
        {
          "indexed": true,
          "internalType": "address",
          "name": "owner",
          "type": "address"
        },
        {
          "indexed": true,
          "internalType": "address",
          "name": "spender",
          "type": "address"
        },
        {
          "indexed": false,
          "internalType": "uint256",
          "name": "value",
          "type": "uint256"
        }
      ],
      "name": "Approval",
      "type": "event"
    },
    {
      "anonymous": false,
      "inputs": [
        {
          "indexed": true,
          "internalType": "uint16",
          "name": "_srcChainId",
          "type": "uint16"
        },
        {
          "indexed": false,
          "internalType": "bytes",
          "name": "_srcAddress",
          "type": "bytes"
        },
        {
          "indexed": false,
          "internalType": "uint64",
          "name": "_nonce",
          "type": "uint64"
        },
        {
          "indexed": false,
          "internalType": "bytes32",
          "name": "_hash",
          "type": "bytes32"
        }
      ],
      "name": "CallOFTReceivedSuccess",
      "type": "event"
    },
    {
      "anonymous": false,
      "inputs": [
        {
          "indexed": false,
          "internalType": "uint16",
          "name": "_srcChainId",
          "type": "uint16"
        },
        {
          "indexed": false,
          "internalType": "bytes",
          "name": "_srcAddress",
          "type": "bytes"
        },
        {
          "indexed": false,
          "internalType": "uint64",
          "name": "_nonce",
          "type": "uint64"
        },
        {
          "indexed": false,
          "internalType": "bytes",
          "name": "_payload",
          "type": "bytes"
        },
        {
          "indexed": false,
          "internalType": "bytes",
          "name": "_reason",
          "type": "bytes"
        }
      ],
      "name": "MessageFailed",
      "type": "event"
    },
    {
      "anonymous": false,
      "inputs": [
        {
          "indexed": false,
          "internalType": "address",
          "name": "_address",
          "type": "address"
        }
      ],
      "name": "NonContractAddress",
      "type": "event"
    },
    {
      "anonymous": false,
      "inputs": [
        {
          "indexed": true,
          "internalType": "address",
          "name": "previousOwner",
          "type": "address"
        },
        {
          "indexed": true,
          "internalType": "address",
          "name": "newOwner",
          "type": "address"
        }
      ],
      "name": "OwnershipTransferred",
      "type": "event"
    },
    {
      "anonymous": false,
      "inputs": [
        {
          "indexed": true,
          "internalType": "uint16",
          "name": "_srcChainId",
          "type": "uint16"
        },
        {
          "indexed": true,
          "internalType": "address",
          "name": "_to",
          "type": "address"
        },
        {
          "indexed": false,
          "internalType": "uint256",
          "name": "_amount",
          "type": "uint256"
        }
      ],
      "name": "ReceiveFromChain",
      "type": "event"
    },
    {
      "anonymous": false,
      "inputs": [
        {
          "indexed": false,
          "internalType": "uint16",
          "name": "_srcChainId",
          "type": "uint16"
        },
        {
          "indexed": false,
          "internalType": "bytes",
          "name": "_srcAddress",
          "type": "bytes"
        },
        {
          "indexed": false,
          "internalType": "uint64",
          "name": "_nonce",
          "type": "uint64"
        },
        {
          "indexed": false,
          "internalType": "bytes32",
          "name": "_payloadHash",
          "type": "bytes32"
        }
      ],
      "name": "RetryMessageSuccess",
      "type": "event"
    },
    {
      "anonymous": false,
      "inputs": [
        {
          "indexed": true,
          "internalType": "uint16",
          "name": "_dstChainId",
          "type": "uint16"
        },
        {
          "indexed": true,
          "internalType": "address",
          "name": "_from",
          "type": "address"
        },
        {
          "indexed": true,
          "internalType": "bytes32",
          "name": "_toAddress",
          "type": "bytes32"
        },
        {
          "indexed": false,
          "internalType": "uint256",
          "name": "_amount",
          "type": "uint256"
        }
      ],
      "name": "SendToChain",
      "type": "event"
    },
    {
      "anonymous": false,
      "inputs": [
        {
          "indexed": false,
          "internalType": "uint16",
          "name": "_dstChainId",
          "type": "uint16"
        },
        {
          "indexed": false,
          "internalType": "uint16",
          "name": "_type",
          "type": "uint16"
        },
        {
          "indexed": false,
          "internalType": "uint256",
          "name": "_minDstGas",
          "type": "uint256"
        }
      ],
      "name": "SetMinDstGas",
      "type": "event"
    },
    {
      "anonymous": false,
      "inputs": [
        {
          "indexed": false,
          "internalType": "address",
          "name": "precrime",
          "type": "address"
        }
      ],
      "name": "SetPrecrime",
      "type": "event"
    },
    {
      "anonymous": false,
      "inputs": [
        {
          "indexed": false,
          "internalType": "uint16",
          "name": "_remoteChainId",
          "type": "uint16"
        },
        {
          "indexed": false,
          "internalType": "bytes",
          "name": "_path",
          "type": "bytes"
        }
      ],
      "name": "SetTrustedRemote",
      "type": "event"
    },
    {
      "anonymous": false,
      "inputs": [
        {
          "indexed": false,
          "internalType": "uint16",
          "name": "_remoteChainId",
          "type": "uint16"
        },
        {
          "indexed": false,
          "internalType": "bytes",
          "name": "_remoteAddress",
          "type": "bytes"
        }
      ],
      "name": "SetTrustedRemoteAddress",
      "type": "event"
    },
    {
      "anonymous": false,
      "inputs": [
        {
          "indexed": false,
          "internalType": "bool",
          "name": "_useCustomAdapterParams",
          "type": "bool"
        }
      ],
      "name": "SetUseCustomAdapterParams",
      "type": "event"
    },
    {
      "anonymous": false,
      "inputs": [
        {
          "indexed": true,
          "internalType": "address",
          "name": "from",
          "type": "address"
        },
        {
          "indexed": true,
          "internalType": "address",
          "name": "to",
          "type": "address"
        },
        {
          "indexed": false,
          "internalType": "uint256",
          "name": "value",
          "type": "uint256"
        }
      ],
      "name": "Transfer",
      "type": "event"
    },
    {
      "inputs": [],
      "name": "DEFAULT_PAYLOAD_SIZE_LIMIT",
      "outputs": [
        {
          "internalType": "uint256",
          "name": "",
          "type": "uint256"
        }
      ],
      "stateMutability": "view",
      "type": "function"
    },
    {
      "inputs": [],
      "name": "NO_EXTRA_GAS",
      "outputs": [
        {
          "internalType": "uint256",
          "name": "",
          "type": "uint256"
        }
      ],
      "stateMutability": "view",
      "type": "function"
    },
    {
      "inputs": [],
      "name": "PT_SEND",
      "outputs": [
        {
          "internalType": "uint8",
          "name": "",
          "type": "uint8"
        }
      ],
      "stateMutability": "view",
      "type": "function"
    },
    {
      "inputs": [],
      "name": "PT_SEND_AND_CALL",
      "outputs": [
        {
          "internalType": "uint8",
          "name": "",
          "type": "uint8"
        }
      ],
      "stateMutability": "view",
      "type": "function"
    },
    {
      "inputs": [
        {
          "internalType": "address",
          "name": "owner",
          "type": "address"
        },
        {
          "internalType": "address",
          "name": "spender",
          "type": "address"
        }
      ],
      "name": "allowance",
      "outputs": [
        {
          "internalType": "uint256",
          "name": "",
          "type": "uint256"
        }
      ],
      "stateMutability": "view",
      "type": "function"
    },
    {
      "inputs": [
        {
          "internalType": "address",
          "name": "spender",
          "type": "address"
        },
        {
          "internalType": "uint256",
          "name": "amount",
          "type": "uint256"
        }
      ],
      "name": "approve",
      "outputs": [
        {
          "internalType": "bool",
          "name": "",
          "type": "bool"
        }
      ],
      "stateMutability": "nonpayable",
      "type": "function"
    },
    {
      "inputs": [
        {
          "internalType": "address",
          "name": "account",
          "type": "address"
        }
      ],
      "name": "balanceOf",
      "outputs": [
        {
          "internalType": "uint256",
          "name": "",
          "type": "uint256"
        }
      ],
      "stateMutability": "view",
      "type": "function"
    },
    {
      "inputs": [
        {
          "internalType": "uint16",
          "name": "_srcChainId",
          "type": "uint16"
        },
        {
          "internalType": "bytes",
          "name": "_srcAddress",
          "type": "bytes"
        },
        {
          "internalType": "uint64",
          "name": "_nonce",
          "type": "uint64"
        },
        {
          "internalType": "bytes32",
          "name": "_from",
          "type": "bytes32"
        },
        {
          "internalType": "address",
          "name": "_to",
          "type": "address"
        },
        {
          "internalType": "uint256",
          "name": "_amount",
          "type": "uint256"
        },
        {
          "internalType": "bytes",
          "name": "_payload",
          "type": "bytes"
        },
        {
          "internalType": "uint256",
          "name": "_gasForCall",
          "type": "uint256"
        }
      ],
      "name": "callOnOFTReceived",
      "outputs": [],
      "stateMutability": "nonpayable",
      "type": "function"
    },
    {
      "inputs": [],
      "name": "circulatingSupply",
      "outputs": [
        {
          "internalType": "uint256",
          "name": "",
          "type": "uint256"
        }
      ],
      "stateMutability": "view",
      "type": "function"
    },
    {
      "inputs": [
        {
          "internalType": "uint16",
          "name": "",
          "type": "uint16"
        },
        {
          "internalType": "bytes",
          "name": "",
          "type": "bytes"
        },
        {
          "internalType": "uint64",
          "name": "",
          "type": "uint64"
        }
      ],
      "name": "creditedPackets",
      "outputs": [
        {
          "internalType": "bool",
          "name": "",
          "type": "bool"
        }
      ],
      "stateMutability": "view",
      "type": "function"
    },
    {
      "inputs": [],
      "name": "decimals",
      "outputs": [
        {
          "internalType": "uint8",
          "name": "",
          "type": "uint8"
        }
      ],
      "stateMutability": "view",
      "type": "function"
    },
    {
      "inputs": [
        {
          "internalType": "address",
          "name": "spender",
          "type": "address"
        },
        {
          "internalType": "uint256",
          "name": "subtractedValue",
          "type": "uint256"
        }
      ],
      "name": "decreaseAllowance",
      "outputs": [
        {
          "internalType": "bool",
          "name": "",
          "type": "bool"
        }
      ],
      "stateMutability": "nonpayable",
      "type": "function"
    },
    {
      "inputs": [
        {
          "internalType": "uint16",
          "name": "_dstChainId",
          "type": "uint16"
        },
        {
          "internalType": "bytes32",
          "name": "_toAddress",
          "type": "bytes32"
        },
        {
          "internalType": "uint256",
          "name": "_amount",
          "type": "uint256"
        },
        {
          "internalType": "bytes",
          "name": "_payload",
          "type": "bytes"
        },
        {
          "internalType": "uint64",
          "name": "_dstGasForCall",
          "type": "uint64"
        },
        {
          "internalType": "bool",
          "name": "_useZro",
          "type": "bool"
        },
        {
          "internalType": "bytes",
          "name": "_adapterParams",
          "type": "bytes"
        }
      ],
      "name": "estimateSendAndCallFee",
      "outputs": [
        {
          "internalType": "uint256",
          "name": "nativeFee",
          "type": "uint256"
        },
        {
          "internalType": "uint256",
          "name": "zroFee",
          "type": "uint256"
        }
      ],
      "stateMutability": "view",
      "type": "function"
    },
    {
      "inputs": [
        {
          "internalType": "uint16",
          "name": "_dstChainId",
          "type": "uint16"
        },
        {
          "internalType": "bytes32",
          "name": "_toAddress",
          "type": "bytes32"
        },
        {
          "internalType": "uint256",
          "name": "_amount",
          "type": "uint256"
        },
        {
          "internalType": "bool",
          "name": "_useZro",
          "type": "bool"
        },
        {
          "internalType": "bytes",
          "name": "_adapterParams",
          "type": "bytes"
        }
      ],
      "name": "estimateSendFee",
      "outputs": [
        {
          "internalType": "uint256",
          "name": "nativeFee",
          "type": "uint256"
        },
        {
          "internalType": "uint256",
          "name": "zroFee",
          "type": "uint256"
        }
      ],
      "stateMutability": "view",
      "type": "function"
    },
    {
      "inputs": [
        {
          "internalType": "uint16",
          "name": "",
          "type": "uint16"
        },
        {
          "internalType": "bytes",
          "name": "",
          "type": "bytes"
        },
        {
          "internalType": "uint64",
          "name": "",
          "type": "uint64"
        }
      ],
      "name": "failedMessages",
      "outputs": [
        {
          "internalType": "bytes32",
          "name": "",
          "type": "bytes32"
        }
      ],
      "stateMutability": "view",
      "type": "function"
    },
    {
      "inputs": [
        {
          "internalType": "uint16",
          "name": "_srcChainId",
          "type": "uint16"
        },
        {
          "internalType": "bytes",
          "name": "_srcAddress",
          "type": "bytes"
        }
      ],
      "name": "forceResumeReceive",
      "outputs": [],
      "stateMutability": "nonpayable",
      "type": "function"
    },
    {
      "inputs": [
        {
          "internalType": "uint16",
          "name": "_version",
          "type": "uint16"
        },
        {
          "internalType": "uint16",
          "name": "_chainId",
          "type": "uint16"
        },
        {
          "internalType": "address",
          "name": "",
          "type": "address"
        },
        {
          "internalType": "uint256",
          "name": "_configType",
          "type": "uint256"
        }
      ],
      "name": "getConfig",
      "outputs": [
        {
          "internalType": "bytes",
          "name": "",
          "type": "bytes"
        }
      ],
      "stateMutability": "view",
      "type": "function"
    },
    {
      "inputs": [
        {
          "internalType": "uint16",
          "name": "_remoteChainId",
          "type": "uint16"
        }
      ],
      "name": "getTrustedRemoteAddress",
      "outputs": [
        {
          "internalType": "bytes",
          "name": "",
          "type": "bytes"
        }
      ],
      "stateMutability": "view",
      "type": "function"
    },
    {
      "inputs": [
        {
          "internalType": "address",
          "name": "spender",
          "type": "address"
        },
        {
          "internalType": "uint256",
          "name": "addedValue",
          "type": "uint256"
        }
      ],
      "name": "increaseAllowance",
      "outputs": [
        {
          "internalType": "bool",
          "name": "",
          "type": "bool"
        }
      ],
      "stateMutability": "nonpayable",
      "type": "function"
    },
    {
      "inputs": [
        {
          "internalType": "uint16",
          "name": "_srcChainId",
          "type": "uint16"
        },
        {
          "internalType": "bytes",
          "name": "_srcAddress",
          "type": "bytes"
        }
      ],
      "name": "isTrustedRemote",
      "outputs": [
        {
          "internalType": "bool",
          "name": "",
          "type": "bool"
        }
      ],
      "stateMutability": "view",
      "type": "function"
    },
    {
      "inputs": [],
      "name": "lzEndpoint",
      "outputs": [
        {
          "internalType": "contract ILayerZeroEndpoint",
          "name": "",
          "type": "address"
        }
      ],
      "stateMutability": "view",
      "type": "function"
    },
    {
      "inputs": [
        {
          "internalType": "uint16",
          "name": "_srcChainId",
          "type": "uint16"
        },
        {
          "internalType": "bytes",
          "name": "_srcAddress",
          "type": "bytes"
        },
        {
          "internalType": "uint64",
          "name": "_nonce",
          "type": "uint64"
        },
        {
          "internalType": "bytes",
          "name": "_payload",
          "type": "bytes"
        }
      ],
      "name": "lzReceive",
      "outputs": [],
      "stateMutability": "nonpayable",
      "type": "function"
    },
    {
      "inputs": [
        {
          "internalType": "uint16",
          "name": "",
          "type": "uint16"
        },
        {
          "internalType": "uint16",
          "name": "",
          "type": "uint16"
        }
      ],
      "name": "minDstGasLookup",
      "outputs": [
        {
          "internalType": "uint256",
          "name": "",
          "type": "uint256"
        }
      ],
      "stateMutability": "view",
      "type": "function"
    },
    {
      "inputs": [
        {
          "internalType": "address",
          "name": "account",
          "type": "address"
        },
        {
          "internalType": "uint256",
          "name": "amount",
          "type": "uint256"
        }
      ],
      "name": "mint",
      "outputs": [],
      "stateMutability": "nonpayable",
      "type": "function"
    },
    {
      "inputs": [],
      "name": "name",
      "outputs": [
        {
          "internalType": "string",
          "name": "",
          "type": "string"
        }
      ],
      "stateMutability": "view",
      "type": "function"
    },
    {
      "inputs": [
        {
          "internalType": "uint16",
          "name": "_srcChainId",
          "type": "uint16"
        },
        {
          "internalType": "bytes",
          "name": "_srcAddress",
          "type": "bytes"
        },
        {
          "internalType": "uint64",
          "name": "_nonce",
          "type": "uint64"
        },
        {
          "internalType": "bytes",
          "name": "_payload",
          "type": "bytes"
        }
      ],
      "name": "nonblockingLzReceive",
      "outputs": [],
      "stateMutability": "nonpayable",
      "type": "function"
    },
    {
      "inputs": [],
      "name": "owner",
      "outputs": [
        {
          "internalType": "address",
          "name": "",
          "type": "address"
        }
      ],
      "stateMutability": "view",
      "type": "function"
    },
    {
      "inputs": [
        {
          "internalType": "uint16",
          "name": "",
          "type": "uint16"
        }
      ],
      "name": "payloadSizeLimitLookup",
      "outputs": [
        {
          "internalType": "uint256",
          "name": "",
          "type": "uint256"
        }
      ],
      "stateMutability": "view",
      "type": "function"
    },
    {
      "inputs": [],
      "name": "precrime",
      "outputs": [
        {
          "internalType": "address",
          "name": "",
          "type": "address"
        }
      ],
      "stateMutability": "view",
      "type": "function"
    },
    {
      "inputs": [],
      "name": "renounceOwnership",
      "outputs": [],
      "stateMutability": "nonpayable",
      "type": "function"
    },
    {
      "inputs": [
        {
          "internalType": "uint16",
          "name": "_srcChainId",
          "type": "uint16"
        },
        {
          "internalType": "bytes",
          "name": "_srcAddress",
          "type": "bytes"
        },
        {
          "internalType": "uint64",
          "name": "_nonce",
          "type": "uint64"
        },
        {
          "internalType": "bytes",
          "name": "_payload",
          "type": "bytes"
        }
      ],
      "name": "retryMessage",
      "outputs": [],
      "stateMutability": "payable",
      "type": "function"
    },
    {
      "inputs": [
        {
          "internalType": "address",
          "name": "_from",
          "type": "address"
        },
        {
          "internalType": "uint16",
          "name": "_dstChainId",
          "type": "uint16"
        },
        {
          "internalType": "bytes32",
          "name": "_toAddress",
          "type": "bytes32"
        },
        {
          "internalType": "uint256",
          "name": "_amount",
          "type": "uint256"
        },
        {
          "internalType": "bytes",
          "name": "_payload",
          "type": "bytes"
        },
        {
          "internalType": "uint64",
          "name": "_dstGasForCall",
          "type": "uint64"
        },
        {
          "components": [
            {
              "internalType": "address payable",
              "name": "refundAddress",
              "type": "address"
            },
            {
              "internalType": "address",
              "name": "zroPaymentAddress",
              "type": "address"
            },
            {
              "internalType": "bytes",
              "name": "adapterParams",
              "type": "bytes"
            }
          ],
          "internalType": "struct ICommonOFT.LzCallParams",
          "name": "_callParams",
          "type": "tuple"
        }
      ],
      "name": "sendAndCall",
      "outputs": [],
      "stateMutability": "payable",
      "type": "function"
    },
    {
      "inputs": [
        {
          "internalType": "address",
          "name": "_from",
          "type": "address"
        },
        {
          "internalType": "uint16",
          "name": "_dstChainId",
          "type": "uint16"
        },
        {
          "internalType": "bytes32",
          "name": "_toAddress",
          "type": "bytes32"
        },
        {
          "internalType": "uint256",
          "name": "_amount",
          "type": "uint256"
        },
        {
          "components": [
            {
              "internalType": "address payable",
              "name": "refundAddress",
              "type": "address"
            },
            {
              "internalType": "address",
              "name": "zroPaymentAddress",
              "type": "address"
            },
            {
              "internalType": "bytes",
              "name": "adapterParams",
              "type": "bytes"
            }
          ],
          "internalType": "struct ICommonOFT.LzCallParams",
          "name": "_callParams",
          "type": "tuple"
        }
      ],
      "name": "sendFrom",
      "outputs": [],
      "stateMutability": "payable",
      "type": "function"
    },
    {
      "inputs": [
        {
          "internalType": "uint16",
          "name": "_version",
          "type": "uint16"
        },
        {
          "internalType": "uint16",
          "name": "_chainId",
          "type": "uint16"
        },
        {
          "internalType": "uint256",
          "name": "_configType",
          "type": "uint256"
        },
        {
          "internalType": "bytes",
          "name": "_config",
          "type": "bytes"
        }
      ],
      "name": "setConfig",
      "outputs": [],
      "stateMutability": "nonpayable",
      "type": "function"
    },
    {
      "inputs": [
        {
          "internalType": "uint16",
          "name": "_dstChainId",
          "type": "uint16"
        },
        {
          "internalType": "uint16",
          "name": "_packetType",
          "type": "uint16"
        },
        {
          "internalType": "uint256",
          "name": "_minGas",
          "type": "uint256"
        }
      ],
      "name": "setMinDstGas",
      "outputs": [],
      "stateMutability": "nonpayable",
      "type": "function"
    },
    {
      "inputs": [
        {
          "internalType": "uint16",
          "name": "_dstChainId",
          "type": "uint16"
        },
        {
          "internalType": "uint256",
          "name": "_size",
          "type": "uint256"
        }
      ],
      "name": "setPayloadSizeLimit",
      "outputs": [],
      "stateMutability": "nonpayable",
      "type": "function"
    },
    {
      "inputs": [
        {
          "internalType": "address",
          "name": "_precrime",
          "type": "address"
        }
      ],
      "name": "setPrecrime",
      "outputs": [],
      "stateMutability": "nonpayable",
      "type": "function"
    },
    {
      "inputs": [
        {
          "internalType": "uint16",
          "name": "_version",
          "type": "uint16"
        }
      ],
      "name": "setReceiveVersion",
      "outputs": [],
      "stateMutability": "nonpayable",
      "type": "function"
    },
    {
      "inputs": [
        {
          "internalType": "uint16",
          "name": "_version",
          "type": "uint16"
        }
      ],
      "name": "setSendVersion",
      "outputs": [],
      "stateMutability": "nonpayable",
      "type": "function"
    },
    {
      "inputs": [
        {
          "internalType": "uint16",
          "name": "_remoteChainId",
          "type": "uint16"
        },
        {
          "internalType": "bytes",
          "name": "_path",
          "type": "bytes"
        }
      ],
      "name": "setTrustedRemote",
      "outputs": [],
      "stateMutability": "nonpayable",
      "type": "function"
    },
    {
      "inputs": [
        {
          "internalType": "uint16",
          "name": "_remoteChainId",
          "type": "uint16"
        },
        {
          "internalType": "bytes",
          "name": "_remoteAddress",
          "type": "bytes"
        }
      ],
      "name": "setTrustedRemoteAddress",
      "outputs": [],
      "stateMutability": "nonpayable",
      "type": "function"
    },
    {
      "inputs": [
        {
          "internalType": "bool",
          "name": "_useCustomAdapterParams",
          "type": "bool"
        }
      ],
      "name": "setUseCustomAdapterParams",
      "outputs": [],
      "stateMutability": "nonpayable",
      "type": "function"
    },
    {
      "inputs": [],
      "name": "sharedDecimals",
      "outputs": [
        {
          "internalType": "uint8",
          "name": "",
          "type": "uint8"
        }
      ],
      "stateMutability": "view",
      "type": "function"
    },
    {
      "inputs": [
        {
          "internalType": "bytes4",
          "name": "interfaceId",
          "type": "bytes4"
        }
      ],
      "name": "supportsInterface",
      "outputs": [
        {
          "internalType": "bool",
          "name": "",
          "type": "bool"
        }
      ],
      "stateMutability": "view",
      "type": "function"
    },
    {
      "inputs": [],
      "name": "symbol",
      "outputs": [
        {
          "internalType": "string",
          "name": "",
          "type": "string"
        }
      ],
      "stateMutability": "view",
      "type": "function"
    },
    {
      "inputs": [],
      "name": "token",
      "outputs": [
        {
          "internalType": "address",
          "name": "",
          "type": "address"
        }
      ],
      "stateMutability": "view",
      "type": "function"
    },
    {
      "inputs": [],
      "name": "totalSupply",
      "outputs": [
        {
          "internalType": "uint256",
          "name": "",
          "type": "uint256"
        }
      ],
      "stateMutability": "view",
      "type": "function"
    },
    {
      "inputs": [
        {
          "internalType": "address",
          "name": "to",
          "type": "address"
        },
        {
          "internalType": "uint256",
          "name": "amount",
          "type": "uint256"
        }
      ],
      "name": "transfer",
      "outputs": [
        {
          "internalType": "bool",
          "name": "",
          "type": "bool"
        }
      ],
      "stateMutability": "nonpayable",
      "type": "function"
    },
    {
      "inputs": [
        {
          "internalType": "address",
          "name": "from",
          "type": "address"
        },
        {
          "internalType": "address",
          "name": "to",
          "type": "address"
        },
        {
          "internalType": "uint256",
          "name": "amount",
          "type": "uint256"
        }
      ],
      "name": "transferFrom",
      "outputs": [
        {
          "internalType": "bool",
          "name": "",
          "type": "bool"
        }
      ],
      "stateMutability": "nonpayable",
      "type": "function"
    },
    {
      "inputs": [
        {
          "internalType": "address",
          "name": "newOwner",
          "type": "address"
        }
      ],
      "name": "transferOwnership",
      "outputs": [],
      "stateMutability": "nonpayable",
      "type": "function"
    },
    {
      "inputs": [
        {
          "internalType": "uint16",
          "name": "",
          "type": "uint16"
        }
      ],
      "name": "trustedRemoteLookup",
      "outputs": [
        {
          "internalType": "bytes",
          "name": "",
          "type": "bytes"
        }
      ],
      "stateMutability": "view",
      "type": "function"
    },
    {
      "inputs": [],
      "name": "useCustomAdapterParams",
      "outputs": [
        {
          "internalType": "bool",
          "name": "",
          "type": "bool"
        }
      ],
      "stateMutability": "view",
      "type": "function"
    }
  ],
  "transactionHash": "0x37f3b0c409df44bc9e1a583ef9b0e011bd472d3f515baa004426bd08e164848c",
  "args": [
    "0xb6319cC6c8c27A8F5dAF0dD3DF91EA35C4720dd7",
    "0x4A8C673bdBC78132D46d5Abd9191debc9c10eBB6"
  ],
  "numDeployments": 1,
  "solcInputHash": "3105813c63e735665e2cce2c199334e9",
  "bytecode": "0x60e06040523480156200001157600080fd5b5060405162004871380380620048718339810160408190526200003491620001fa565b604051806040016040528060068152602001650cae6b49688b60d31b815250604051806040016040528060068152602001650cae6b49688b60d31b815250600684838383838181808062000097620000916200018460201b60201c565b62000188565b6001600160a01b0316608052505060ff1660a05250600b9050620000bc8382620002d7565b50600c620000cb8282620002d7565b5050506000620000e0620001d860201b60201c565b90508060ff168360ff1611156200014d5760405162461bcd60e51b815260206004820152602760248201527f4f46543a20736861726564446563696d616c73206d757374206265203c3d20646044820152666563696d616c7360c81b606482015260840160405180910390fd5b620001598382620003b9565b6200016690600a620004d8565b60c052506200017c935084925050620001889050565b5050620004f0565b3390565b600080546001600160a01b038381166001600160a01b0319831681178455604051919092169283917f8be0079c531659141344cd1fd0a4f28419497f9722a3daafe3b4186f6b6457e09190a35050565b601290565b80516001600160a01b0381168114620001f557600080fd5b919050565b600080604083850312156200020e57600080fd5b6200021983620001dd565b91506200022960208401620001dd565b90509250929050565b634e487b7160e01b600052604160045260246000fd5b600181811c908216806200025d57607f821691505b6020821081036200027e57634e487b7160e01b600052602260045260246000fd5b50919050565b601f821115620002d257600081815260208120601f850160051c81016020861015620002ad5750805b601f850160051c820191505b81811015620002ce57828155600101620002b9565b5050505b505050565b81516001600160401b03811115620002f357620002f362000232565b6200030b8162000304845462000248565b8462000284565b602080601f8311600181146200034357600084156200032a5750858301515b600019600386901b1c1916600185901b178555620002ce565b600085815260208120601f198616915b82811015620003745788860151825594840194600190910190840162000353565b5085821015620003935787850151600019600388901b60f8161c191681555b5050505050600190811b01905550565b634e487b7160e01b600052601160045260246000fd5b60ff8281168282160390811115620003d557620003d5620003a3565b92915050565b600181815b808511156200041c578160001904821115620004005762000400620003a3565b808516156200040e57918102915b93841c9390800290620003e0565b509250929050565b6000826200043557506001620003d5565b816200044457506000620003d5565b81600181146200045d5760028114620004685762000488565b6001915050620003d5565b60ff8411156200047c576200047c620003a3565b50506001821b620003d5565b5060208310610133831016604e8410600b8410161715620004ad575081810a620003d5565b620004b98383620003db565b8060001904821115620004d057620004d0620003a3565b029392505050565b6000620004e960ff84168362000424565b9392505050565b60805160a05160c0516143126200055f6000396000612d820152600061063b01526000818161080a015281816109ba01528181610cd201528181610d9201528181610f65015281816115c301528181611b8d0152818161207f015281816125570152612cc301526143126000f3fe6080604052600436106102be5760003560e01c80638cfd8f5c11610170578063c4461834116100cc578063eab45d9c11610085578063eab45d9c146108ea578063eaffd49a1461090a578063eb8d72b71461092a578063ed629c5c1461094a578063f2fde38b14610964578063f5ecbdbc14610984578063fc0c546a146109a457600080fd5b8063c44618341461084c578063cbed8b9c14610862578063d1deba1f14610882578063dd62ed3e14610895578063df2a5b3b146108b5578063e6a20ae6146108d557600080fd5b80639f38369a116101295780639f38369a14610758578063a457c2d714610778578063a4c51df514610798578063a6c3d165146107b8578063a9059cbb146107d8578063b353aaa7146107f8578063baf3292d1461082c57600080fd5b80638cfd8f5c1461065d5780638da5cb5b146106955780639358928b146106bc578063950c8a74146106d157806395d89b41146106f15780639bdb98121461070657600080fd5b80633f1f4fa41161021f57806366ad5c8a116101d857806366ad5c8a14610578578063695ef6bf1461059857806370a08231146105ab578063715018a6146105e15780637533d788146105f657806376203b4814610616578063857749b01461062957600080fd5b80633f1f4fa41461049257806340c10f19146104bf57806342d65a8d146104df57806344770515146104ff5780634c42899a146105145780635b8c41e61461052957600080fd5b806310ddb1371161027c57806310ddb1371461039c57806318160ddd146103bc57806323b872dd146103db578063313ce567146103fb578063365260b41461041d57806339509351146104525780633d8b38f61461047257600080fd5b80621d3567146102c357806301ffc9a7146102e557806306fdde031461031a57806307e0db171461033c578063095ea7b31461035c5780630df374831461037c575b600080fd5b3480156102cf57600080fd5b506102e36102de36600461331e565b6109b7565b005b3480156102f157600080fd5b506103056103003660046133b1565b610be8565b60405190151581526020015b60405180910390f35b34801561032657600080fd5b5061032f610c1f565b604051610311919061342b565b34801561034857600080fd5b506102e361035736600461343e565b610cb1565b34801561036857600080fd5b5061030561037736600461346e565b610d3a565b34801561038857600080fd5b506102e361039736600461349a565b610d52565b3480156103a857600080fd5b506102e36103b736600461343e565b610d71565b3480156103c857600080fd5b50600a545b604051908152602001610311565b3480156103e757600080fd5b506103056103f63660046134b6565b610dc9565b34801561040757600080fd5b5060125b60405160ff9091168152602001610311565b34801561042957600080fd5b5061043d610438366004613507565b610ded565b60408051928352602083019190915201610311565b34801561045e57600080fd5b5061030561046d36600461346e565b610e42565b34801561047e57600080fd5b5061030561048d36600461356c565b610e64565b34801561049e57600080fd5b506103cd6104ad36600461343e565b60036020526000908152604090205481565b3480156104cb57600080fd5b506102e36104da36600461346e565b610f30565b3480156104eb57600080fd5b506102e36104fa36600461356c565b610f46565b34801561050b57600080fd5b506103cd600081565b34801561052057600080fd5b5061040b600081565b34801561053557600080fd5b506103cd61054436600461362b565b6005602090815260009384526040808520845180860184018051928152908401958401959095209452929052825290205481565b34801561058457600080fd5b506102e361059336600461331e565b610fcc565b6102e36105a63660046136e3565b6110a8565b3480156105b757600080fd5b506103cd6105c6366004613756565b6001600160a01b031660009081526008602052604090205490565b3480156105ed57600080fd5b506102e3611113565b34801561060257600080fd5b5061032f61061136600461343e565b611127565b6102e3610624366004613773565b6111c1565b34801561063557600080fd5b5061040b7f000000000000000000000000000000000000000000000000000000000000000081565b34801561066957600080fd5b506103cd610678366004613825565b600260209081526000928352604080842090915290825290205481565b3480156106a157600080fd5b506000546001600160a01b03165b6040516103119190613858565b3480156106c857600080fd5b506103cd611270565b3480156106dd57600080fd5b506004546106af906001600160a01b031681565b3480156106fd57600080fd5b5061032f611280565b34801561071257600080fd5b5061030561072136600461362b565b6007602090815260009384526040808520845180860184018051928152908401958401959095209452929052825290205460ff1681565b34801561076457600080fd5b5061032f61077336600461343e565b61128f565b34801561078457600080fd5b5061030561079336600461346e565b6113a5565b3480156107a457600080fd5b5061043d6107b336600461386c565b611420565b3480156107c457600080fd5b506102e36107d336600461356c565b6114af565b3480156107e457600080fd5b506103056107f336600461346e565b611538565b34801561080457600080fd5b506106af7f000000000000000000000000000000000000000000000000000000000000000081565b34801561083857600080fd5b506102e3610847366004613756565b611546565b34801561085857600080fd5b506103cd61271081565b34801561086e57600080fd5b506102e361087d366004613925565b6115a4565b6102e361089036600461331e565b61162e565b3480156108a157600080fd5b506103cd6108b0366004613993565b611844565b3480156108c157600080fd5b506102e36108d03660046139cc565b61186f565b3480156108e157600080fd5b5061040b600181565b3480156108f657600080fd5b506102e3610905366004613a08565b611921565b34801561091657600080fd5b506102e3610925366004613a23565b61196a565b34801561093657600080fd5b506102e361094536600461356c565b611a89565b34801561095657600080fd5b506006546103059060ff1681565b34801561097057600080fd5b506102e361097f366004613756565b611ae3565b34801561099057600080fd5b5061032f61099f366004613aeb565b611b5c565b3480156109b057600080fd5b50306106af565b337f00000000000000000000000000000000000000000000000000000000000000006001600160a01b031614610a345760405162461bcd60e51b815260206004820152601e60248201527f4c7a4170703a20696e76616c696420656e64706f696e742063616c6c6572000060448201526064015b60405180910390fd5b61ffff861660009081526001602052604081208054610a5290613b38565b80601f0160208091040260200160405190810160405280929190818152602001828054610a7e90613b38565b8015610acb5780601f10610aa057610100808354040283529160200191610acb565b820191906000526020600020905b815481529060010190602001808311610aae57829003601f168201915b50505050509050805186869050148015610ae6575060008151115b8015610b0e575080516020820120604051610b049088908890613b6c565b6040518091039020145b610b695760405162461bcd60e51b815260206004820152602660248201527f4c7a4170703a20696e76616c696420736f757263652073656e64696e6720636f6044820152651b9d1c9858dd60d21b6064820152608401610a2b565b610bdf8787878080601f01602080910402602001604051908101604052809392919081815260200183838082843760009201919091525050604080516020601f8a018190048102820181019092528881528a935091508890889081908401838280828437600092019190915250611c0d92505050565b50505050505050565b60006001600160e01b03198216631f7ecdf760e01b1480610c1957506301ffc9a760e01b6001600160e01b03198316145b92915050565b6060600b8054610c2e90613b38565b80601f0160208091040260200160405190810160405280929190818152602001828054610c5a90613b38565b8015610ca75780601f10610c7c57610100808354040283529160200191610ca7565b820191906000526020600020905b815481529060010190602001808311610c8a57829003601f168201915b5050505050905090565b610cb9611c86565b6040516307e0db1760e01b815261ffff821660048201527f00000000000000000000000000000000000000000000000000000000000000006001600160a01b0316906307e0db17906024015b600060405180830381600087803b158015610d1f57600080fd5b505af1158015610d33573d6000803e3d6000fd5b5050505050565b600033610d48818585611ce0565b5060019392505050565b610d5a611c86565b61ffff909116600090815260036020526040902055565b610d79611c86565b6040516310ddb13760e01b815261ffff821660048201527f00000000000000000000000000000000000000000000000000000000000000006001600160a01b0316906310ddb13790602401610d05565b600033610dd7858285611e04565b610de2858585611e7e565b506001949350505050565b600080610e338888888888888080601f01602080910402602001604051908101604052809392919081815260200183838082843760009201919091525061201792505050565b91509150965096945050505050565b600033610d48818585610e558383611844565b610e5f9190613b92565b611ce0565b61ffff831660009081526001602052604081208054829190610e8590613b38565b80601f0160208091040260200160405190810160405280929190818152602001828054610eb190613b38565b8015610efe5780601f10610ed357610100808354040283529160200191610efe565b820191906000526020600020905b815481529060010190602001808311610ee157829003601f168201915b505050505090508383604051610f15929190613b6c565b60405180910390208180519060200120149150509392505050565b610f38611c86565b610f42828261210b565b5050565b610f4e611c86565b6040516342d65a8d60e01b81526001600160a01b037f000000000000000000000000000000000000000000000000000000000000000016906342d65a8d90610f9e90869086908690600401613bce565b600060405180830381600087803b158015610fb857600080fd5b505af1158015610bdf573d6000803e3d6000fd5b33301461102a5760405162461bcd60e51b815260206004820152602660248201527f4e6f6e626c6f636b696e674c7a4170703a2063616c6c6572206d7573742062656044820152650204c7a4170760d41b6064820152608401610a2b565b6110a08686868080601f01602080910402602001604051908101604052809392919081815260200183838082843760009201919091525050604080516020601f8901819004810282018101909252878152899350915087908790819084018382808284376000920191909152506121ba92505050565b505050505050565b6110a0858585856110bc6020870187613756565b6110cc6040880160208901613756565b6110d96040890189613bec565b8080601f01602080910402602001604051908101604052809392919081815260200183838082843760009201919091525061224192505050565b61111b611c86565b61112560006122fd565b565b6001602052600090815260409020805461114090613b38565b80601f016020809104026020016040519081016040528092919081815260200182805461116c90613b38565b80156111b95780601f1061118e576101008083540402835291602001916111b9565b820191906000526020600020905b81548152906001019060200180831161119c57829003601f168201915b505050505081565b6112658888888888888080601f0160208091040260200160405190810160405280939291908181526020018383808284376000920191909152508a925061120e9150506020890189613756565b61121e60408a0160208b01613756565b61122b60408b018b613bec565b8080601f01602080910402602001604051908101604052809392919081815260200183838082843760009201919091525061234d92505050565b505050505050505050565b600061127b600a5490565b905090565b6060600c8054610c2e90613b38565b61ffff81166000908152600160205260408120805460609291906112b290613b38565b80601f01602080910402602001604051908101604052809291908181526020018280546112de90613b38565b801561132b5780601f106113005761010080835404028352916020019161132b565b820191906000526020600020905b81548152906001019060200180831161130e57829003601f168201915b5050505050905080516000036113835760405162461bcd60e51b815260206004820152601d60248201527f4c7a4170703a206e6f20747275737465642070617468207265636f72640000006044820152606401610a2b565b61139e6000601483516113969190613c32565b83919061241d565b9392505050565b600033816113b38286611844565b9050838110156114135760405162461bcd60e51b815260206004820152602560248201527f45524332303a2064656372656173656420616c6c6f77616e63652062656c6f77604482015264207a65726f60d81b6064820152608401610a2b565b610de28286868403611ce0565b60008061149d8b8b8b8b8b8080601f01602080910402602001604051908101604052809392919081815260200183838082843760009201919091525050604080516020601f8d018190048102820181019092528b81528e93508d9250908c908c908190840183828082843760009201919091525061252a92505050565b91509150995099975050505050505050565b6114b7611c86565b8181306040516020016114cc93929190613c45565b60408051601f1981840301815291815261ffff85166000908152600160205220906114f79082613cc6565b507f8c0400cfe2d1199b1a725c78960bcc2a344d869b80590d0f2bd005db15a572ce83838360405161152b93929190613bce565b60405180910390a1505050565b600033610d48818585611e7e565b61154e611c86565b600480546001600160a01b0319166001600160a01b0383161790556040517f5db758e995a17ec1ad84bdef7e8c3293a0bd6179bcce400dff5d4c3d87db726b90611599908390613858565b60405180910390a150565b6115ac611c86565b6040516332fb62e760e21b81526001600160a01b037f0000000000000000000000000000000000000000000000000000000000000000169063cbed8b9c906116009088908890889088908890600401613d7f565b600060405180830381600087803b15801561161a57600080fd5b505af1158015611265573d6000803e3d6000fd5b61ffff861660009081526005602052604080822090516116519088908890613b6c565b90815260408051602092819003830190206001600160401b038716600090815292529020549050806116d15760405162461bcd60e51b815260206004820152602360248201527f4e6f6e626c6f636b696e674c7a4170703a206e6f2073746f726564206d65737360448201526261676560e81b6064820152608401610a2b565b8083836040516116e2929190613b6c565b6040518091039020146117415760405162461bcd60e51b815260206004820152602160248201527f4e6f6e626c6f636b696e674c7a4170703a20696e76616c6964207061796c6f616044820152601960fa1b6064820152608401610a2b565b61ffff871660009081526005602052604080822090516117649089908990613b6c565b90815260408051602092819003830181206001600160401b038916600090815290845282902093909355601f880182900482028301820190528682526117fc918991899089908190840183828082843760009201919091525050604080516020601f8a018190048102820181019092528881528a9350915088908890819084018382808284376000920191909152506121ba92505050565b7fc264d91f3adc5588250e1551f547752ca0cfa8f6b530d243b9f9f4cab10ea8e58787878785604051611833959493929190613db8565b60405180910390a150505050505050565b6001600160a01b03918216600090815260096020908152604080832093909416825291909152205490565b611877611c86565b600081116118bf5760405162461bcd60e51b81526020600482015260156024820152744c7a4170703a20696e76616c6964206d696e47617360581b6044820152606401610a2b565b61ffff83811660008181526002602090815260408083209487168084529482529182902085905581519283528201929092529081018290527f9d5c7c0b934da8fefa9c7760c98383778a12dfbfc0c3b3106518f43fb9508ac09060600161152b565b611929611c86565b6006805460ff19168215159081179091556040519081527f1584ad594a70cbe1e6515592e1272a987d922b097ead875069cebe8b40c004a490602001611599565b3330146119b95760405162461bcd60e51b815260206004820152601f60248201527f4f4654436f72653a2063616c6c6572206d757374206265204f4654436f7265006044820152606401610a2b565b6119c43086866125e5565b9350846001600160a01b03168a61ffff167fbf551ec93859b170f9b2141bd9298bf3f64322c6f7beb2543a0cb669834118bf86604051611a0691815260200190565b60405180910390a3604051633fe79aed60e11b81526001600160a01b03861690637fcf35da908390611a4a908e908e908e908e908e908d908d908d90600401613df3565b600060405180830381600088803b158015611a6457600080fd5b5087f1158015611a78573d6000803e3d6000fd5b505050505050505050505050505050565b611a91611c86565b61ffff83166000908152600160205260409020611aaf828483613e4e565b507ffa41487ad5d6728f0b19276fa1eddc16558578f5109fc39d2dc33c3230470dab83838360405161152b93929190613bce565b611aeb611c86565b6001600160a01b038116611b505760405162461bcd60e51b815260206004820152602660248201527f4f776e61626c653a206e6577206f776e657220697320746865207a65726f206160448201526564647265737360d01b6064820152608401610a2b565b611b59816122fd565b50565b604051633d7b2f6f60e21b815261ffff808616600483015284166024820152306044820152606481018290526060907f00000000000000000000000000000000000000000000000000000000000000006001600160a01b03169063f5ecbdbc90608401600060405180830381865afa158015611bdc573d6000803e3d6000fd5b505050506040513d6000823e601f3d908101601f19168201604052611c049190810190613f07565b95945050505050565b600080611c705a60966366ad5c8a60e01b89898989604051602401611c359493929190613f74565b60408051601f198184030181529190526020810180516001600160e01b03166001600160e01b03199093169290921790915230929190612637565b91509150816110a0576110a086868686856126c1565b6000546001600160a01b031633146111255760405162461bcd60e51b815260206004820181905260248201527f4f776e61626c653a2063616c6c6572206973206e6f7420746865206f776e65726044820152606401610a2b565b6001600160a01b038316611d425760405162461bcd60e51b8152602060048201526024808201527f45524332303a20617070726f76652066726f6d20746865207a65726f206164646044820152637265737360e01b6064820152608401610a2b565b6001600160a01b038216611da35760405162461bcd60e51b815260206004820152602260248201527f45524332303a20617070726f766520746f20746865207a65726f206164647265604482015261737360f01b6064820152608401610a2b565b6001600160a01b0383811660008181526009602090815260408083209487168084529482529182902085905590518481527f8c5be1e5ebec7d5bd14f71427d1e84f3dd0314c0f7b2291e5b200ac8c7c3b925910160405180910390a3505050565b6000611e108484611844565b90506000198114611e785781811015611e6b5760405162461bcd60e51b815260206004820152601d60248201527f45524332303a20696e73756666696369656e7420616c6c6f77616e63650000006044820152606401610a2b565b611e788484848403611ce0565b50505050565b6001600160a01b038316611ee25760405162461bcd60e51b815260206004820152602560248201527f45524332303a207472616e736665722066726f6d20746865207a65726f206164604482015264647265737360d81b6064820152608401610a2b565b6001600160a01b038216611f445760405162461bcd60e51b815260206004820152602360248201527f45524332303a207472616e7366657220746f20746865207a65726f206164647260448201526265737360e81b6064820152608401610a2b565b6001600160a01b03831660009081526008602052604090205481811015611fbc5760405162461bcd60e51b815260206004820152602660248201527f45524332303a207472616e7366657220616d6f756e7420657863656564732062604482015265616c616e636560d01b6064820152608401610a2b565b6001600160a01b0380851660008181526008602052604080822086860390559286168082529083902080548601905591516000805160206142bd8339815191529061200a9086815260200190565b60405180910390a3611e78565b60008060006120658761202988612763565b6040805160006020820152602181019390935260c09190911b6001600160c01b0319166041830152805160298184030181526049909201905290565b60405163040a7bb160e41b81529091506001600160a01b037f000000000000000000000000000000000000000000000000000000000000000016906340a7bb10906120bc908b90309086908b908b90600401613fb2565b6040805180830381865afa1580156120d8573d6000803e3d6000fd5b505050506040513d601f19601f820116820180604052508101906120fc9190614006565b92509250509550959350505050565b6001600160a01b0382166121615760405162461bcd60e51b815260206004820152601f60248201527f45524332303a206d696e7420746f20746865207a65726f2061646472657373006044820152606401610a2b565b80600a60008282546121739190613b92565b90915550506001600160a01b0382166000818152600860209081526040808320805486019055518481526000805160206142bd833981519152910160405180910390a35050565b60006121c682826127d1565b905060ff81166121e1576121dc8585858561282d565b610d33565b60001960ff8216016121f9576121dc858585856128bd565b60405162461bcd60e51b815260206004820152601c60248201527f4f4654436f72653a20756e6b6e6f776e207061636b65742074797065000000006044820152606401610a2b565b600061224f87828481612ac6565b61225885612b40565b50905061226788888884612b68565b9050600081116122895760405162461bcd60e51b8152600401610a2b9061402a565b60006122988761202984612763565b90506122a8888287878734612b9a565b86896001600160a01b03168961ffff167fd81fc9b8523134ed613870ed029d6170cbb73aa6a6bc311b9a642689fb9df59a856040516122e991815260200190565b60405180910390a450979650505050505050565b600080546001600160a01b038381166001600160a01b0319831681178455604051919092169283917f8be0079c531659141344cd1fd0a4f28419497f9722a3daafe3b4186f6b6457e09190a35050565b6000612365896001846001600160401b038916612ac6565b61236e87612b40565b50905061237d8a8a8a84612b68565b90506000811161239f5760405162461bcd60e51b8152600401610a2b9061402a565b60006123b6338a6123af85612763565b8a8a612d3f565b90506123c68a8287878734612b9a565b888b6001600160a01b03168b61ffff167fd81fc9b8523134ed613870ed029d6170cbb73aa6a6bc311b9a642689fb9df59a8560405161240791815260200190565b60405180910390a4509998505050505050505050565b60608161242b81601f613b92565b101561246a5760405162461bcd60e51b815260206004820152600e60248201526d736c6963655f6f766572666c6f7760901b6044820152606401610a2b565b6124748284613b92565b845110156124b85760405162461bcd60e51b8152602060048201526011602482015270736c6963655f6f75744f66426f756e647360781b6044820152606401610a2b565b6060821580156124d75760405191506000825260208201604052612521565b6040519150601f8416801560200281840101858101878315602002848b0101015b818310156125105780518352602092830192016124f8565b5050858452601f01601f1916604052505b50949350505050565b600080600061253d338a6123af8b612763565b60405163040a7bb160e41b81529091506001600160a01b037f000000000000000000000000000000000000000000000000000000000000000016906340a7bb1090612594908d90309086908b908b90600401613fb2565b6040805180830381865afa1580156125b0573d6000803e3d6000fd5b505050506040513d601f19601f820116820180604052508101906125d49190614006565b925092505097509795505050505050565b600033306001600160a01b038616148015906126135750806001600160a01b0316856001600160a01b031614155b1561262357612623858285611e04565b61262e858585611e7e565b50909392505050565b6000606060008060008661ffff166001600160401b0381111561265c5761265c6135be565b6040519080825280601f01601f191660200182016040528015612686576020820181803683370190505b50905060008087516020890160008d8df191503d9250868311156126a8578692505b828152826000602083013e909890975095505050505050565b8180519060200120600560008761ffff1661ffff168152602001908152602001600020856040516126f2919061405d565b9081526040805191829003602090810183206001600160401b0388166000908152915220919091557fe183f33de2837795525b4792ca4cd60535bd77c53b7e7030060bfcf5734d6b0c9061274f9087908790879087908790614079565b60405180910390a15050505050565b505050565b60008061276e612d80565b61277890846140e1565b90506001600160401b03811115610c195760405162461bcd60e51b815260206004820152601a60248201527f4f4654436f72653a20616d6f756e745344206f766572666c6f770000000000006044820152606401610a2b565b60006127de826001613b92565b835110156128245760405162461bcd60e51b8152602060048201526013602482015272746f55696e74385f6f75744f66426f756e647360681b6044820152606401610a2b565b50016001015190565b60008061283983612da4565b90925090506001600160a01b0382166128525761dead91505b600061285d82612dfe565b905061286a878483612e1b565b9050826001600160a01b03168761ffff167fbf551ec93859b170f9b2141bd9298bf3f64322c6f7beb2543a0cb669834118bf836040516128ac91815260200190565b60405180910390a350505050505050565b60008060008060006128ce86612e2e565b945094509450945094506000600760008b61ffff1661ffff16815260200190815260200160002089604051612903919061405d565b90815260408051602092819003830190206001600160401b038b166000908152925281205460ff16915061293685612dfe565b9050816129a4576129488b3083612e1b565b61ffff8c16600090815260076020526040908190209051919250600191612970908d9061405d565b90815260408051602092819003830190206001600160401b038d16600090815292529020805460ff19169115159190911790555b6001600160a01b0386163b6129f6577f9aedf5fdba8716db3b6705ca00150643309995d4f818a249ed6dde6677e7792d866040516129e29190613858565b60405180910390a150505050505050611e78565b8a8a8a8a8a8a868a60008a612a14578b6001600160401b0316612a16565b5a5b9050600080612a485a609663eaffd49a60e01b8e8e8e8d8d8d8d8d604051602401611c359897969594939291906140f5565b915091508115612aa1578751602089012060405161ffff8d16907fb8890edbfc1c74692f527444645f95489c3703cc2df42e4a366f5d06fa6cd88490612a93908e908e908690614169565b60405180910390a250612aae565b612aae8b8b8b8b856126c1565b50505050505050505050505050505050505050505050565b60065460ff1615612ae257612add84848484612eba565b611e78565b815115611e785760405162461bcd60e51b815260206004820152602660248201527f4f4654436f72653a205f61646170746572506172616d73206d7573742062652060448201526532b6b83a3c9760d11b6064820152608401610a2b565b600080612b4b612d80565b612b559084614197565b9050612b618184613c32565b9150915091565b6000336001600160a01b0386168114612b8657612b86868285611e04565b612b908684612f99565b5090949350505050565b61ffff861660009081526001602052604081208054612bb890613b38565b80601f0160208091040260200160405190810160405280929190818152602001828054612be490613b38565b8015612c315780601f10612c0657610100808354040283529160200191612c31565b820191906000526020600020905b815481529060010190602001808311612c1457829003601f168201915b505050505090508051600003612ca25760405162461bcd60e51b815260206004820152603060248201527f4c7a4170703a2064657374696e6174696f6e20636861696e206973206e6f742060448201526f61207472757374656420736f7572636560801b6064820152608401610a2b565b612cad8787516130bb565b60405162c5803160e81b81526001600160a01b037f0000000000000000000000000000000000000000000000000000000000000000169063c5803100908490612d04908b9086908c908c908c908c906004016141ab565b6000604051808303818588803b158015612d1d57600080fd5b505af1158015612d31573d6000803e3d6000fd5b505050505050505050505050565b6060600185856001600160a01b0389168587604051602001612d6696959493929190614212565b604051602081830303815290604052905095945050505050565b7f000000000000000000000000000000000000000000000000000000000000000090565b60008080612db284826127d1565b60ff16148015612dc3575082516029145b612ddf5760405162461bcd60e51b8152600401610a2b90614273565b612dea83600d61312c565b9150612df7836021613191565b9050915091565b6000612e08612d80565b610c19906001600160401b0384166142a5565b6000612e27838361210b565b5092915050565b600080806060816001612e4187836127d1565b60ff1614612e615760405162461bcd60e51b8152600401610a2b90614273565b612e6c86600d61312c565b9350612e79866021613191565b9250612e868660296131ee565b9450612e93866049613191565b9050612eaf6051808851612ea79190613c32565b88919061241d565b915091939590929450565b6000612ec58361324c565b61ffff808716600090815260026020908152604080832093891683529290529081205491925090612ef7908490613b92565b905060008111612f495760405162461bcd60e51b815260206004820152601a60248201527f4c7a4170703a206d696e4761734c696d6974206e6f74207365740000000000006044820152606401610a2b565b808210156110a05760405162461bcd60e51b815260206004820152601b60248201527f4c7a4170703a20676173206c696d697420697320746f6f206c6f7700000000006044820152606401610a2b565b6001600160a01b038216612ff95760405162461bcd60e51b815260206004820152602160248201527f45524332303a206275726e2066726f6d20746865207a65726f206164647265736044820152607360f81b6064820152608401610a2b565b6001600160a01b0382166000908152600860205260409020548181101561306d5760405162461bcd60e51b815260206004820152602260248201527f45524332303a206275726e20616d6f756e7420657863656564732062616c616e604482015261636560f01b6064820152608401610a2b565b6001600160a01b03831660008181526008602090815260408083208686039055600a80548790039055518581529192916000805160206142bd833981519152910160405180910390a3505050565b61ffff8216600090815260036020526040812054908190036130dc57506127105b8082111561275e5760405162461bcd60e51b815260206004820181905260248201527f4c7a4170703a207061796c6f61642073697a6520697320746f6f206c617267656044820152606401610a2b565b6000613139826014613b92565b835110156131815760405162461bcd60e51b8152602060048201526015602482015274746f416464726573735f6f75744f66426f756e647360581b6044820152606401610a2b565b500160200151600160601b900490565b600061319e826008613b92565b835110156131e55760405162461bcd60e51b8152602060048201526014602482015273746f55696e7436345f6f75744f66426f756e647360601b6044820152606401610a2b565b50016008015190565b60006131fb826020613b92565b835110156132435760405162461bcd60e51b8152602060048201526015602482015274746f427974657333325f6f75744f66426f756e647360581b6044820152606401610a2b565b50016020015190565b60006022825110156132a05760405162461bcd60e51b815260206004820152601c60248201527f4c7a4170703a20696e76616c69642061646170746572506172616d73000000006044820152606401610a2b565b506022015190565b803561ffff811681146132ba57600080fd5b919050565b60008083601f8401126132d157600080fd5b5081356001600160401b038111156132e857600080fd5b60208301915083602082850101111561330057600080fd5b9250929050565b80356001600160401b03811681146132ba57600080fd5b6000806000806000806080878903121561333757600080fd5b613340876132a8565b955060208701356001600160401b038082111561335c57600080fd5b6133688a838b016132bf565b909750955085915061337c60408a01613307565b9450606089013591508082111561339257600080fd5b5061339f89828a016132bf565b979a9699509497509295939492505050565b6000602082840312156133c357600080fd5b81356001600160e01b03198116811461139e57600080fd5b60005b838110156133f65781810151838201526020016133de565b50506000910152565b600081518084526134178160208601602086016133db565b601f01601f19169290920160200192915050565b60208152600061139e60208301846133ff565b60006020828403121561345057600080fd5b61139e826132a8565b6001600160a01b0381168114611b5957600080fd5b6000806040838503121561348157600080fd5b823561348c81613459565b946020939093013593505050565b600080604083850312156134ad57600080fd5b61348c836132a8565b6000806000606084860312156134cb57600080fd5b83356134d681613459565b925060208401356134e681613459565b929592945050506040919091013590565b803580151581146132ba57600080fd5b60008060008060008060a0878903121561352057600080fd5b613529876132a8565b95506020870135945060408701359350613545606088016134f7565b925060808701356001600160401b0381111561356057600080fd5b61339f89828a016132bf565b60008060006040848603121561358157600080fd5b61358a846132a8565b925060208401356001600160401b038111156135a557600080fd5b6135b1868287016132bf565b9497909650939450505050565b634e487b7160e01b600052604160045260246000fd5b604051601f8201601f191681016001600160401b03811182821017156135fc576135fc6135be565b604052919050565b60006001600160401b0382111561361d5761361d6135be565b50601f01601f191660200190565b60008060006060848603121561364057600080fd5b613649846132a8565b925060208401356001600160401b0381111561366457600080fd5b8401601f8101861361367557600080fd5b803561368861368382613604565b6135d4565b81815287602083850101111561369d57600080fd5b816020840160208301376000602083830101528094505050506136c260408501613307565b90509250925092565b6000606082840312156136dd57600080fd5b50919050565b600080600080600060a086880312156136fb57600080fd5b853561370681613459565b9450613714602087016132a8565b9350604086013592506060860135915060808601356001600160401b0381111561373d57600080fd5b613749888289016136cb565b9150509295509295909350565b60006020828403121561376857600080fd5b813561139e81613459565b60008060008060008060008060e0898b03121561378f57600080fd5b883561379a81613459565b97506137a860208a016132a8565b9650604089013595506060890135945060808901356001600160401b03808211156137d257600080fd5b6137de8c838d016132bf565b90965094508491506137f260a08c01613307565b935060c08b013591508082111561380857600080fd5b506138158b828c016136cb565b9150509295985092959890939650565b6000806040838503121561383857600080fd5b613841836132a8565b915061384f602084016132a8565b90509250929050565b6001600160a01b0391909116815260200190565b600080600080600080600080600060e08a8c03121561388a57600080fd5b6138938a6132a8565b985060208a0135975060408a0135965060608a01356001600160401b03808211156138bd57600080fd5b6138c98d838e016132bf565b90985096508691506138dd60808d01613307565b95506138eb60a08d016134f7565b945060c08c013591508082111561390157600080fd5b5061390e8c828d016132bf565b915080935050809150509295985092959850929598565b60008060008060006080868803121561393d57600080fd5b613946866132a8565b9450613954602087016132a8565b93506040860135925060608601356001600160401b0381111561397657600080fd5b613982888289016132bf565b969995985093965092949392505050565b600080604083850312156139a657600080fd5b82356139b181613459565b915060208301356139c181613459565b809150509250929050565b6000806000606084860312156139e157600080fd5b6139ea846132a8565b92506139f8602085016132a8565b9150604084013590509250925092565b600060208284031215613a1a57600080fd5b61139e826134f7565b6000806000806000806000806000806101008b8d031215613a4357600080fd5b613a4c8b6132a8565b995060208b01356001600160401b0380821115613a6857600080fd5b613a748e838f016132bf565b909b509950899150613a8860408e01613307565b985060608d0135975060808d01359150613aa182613459565b90955060a08c0135945060c08c01359080821115613abe57600080fd5b50613acb8d828e016132bf565b9150809450508092505060e08b013590509295989b9194979a5092959850565b60008060008060808587031215613b0157600080fd5b613b0a856132a8565b9350613b18602086016132a8565b92506040850135613b2881613459565b9396929550929360600135925050565b600181811c90821680613b4c57607f821691505b6020821081036136dd57634e487b7160e01b600052602260045260246000fd5b8183823760009101908152919050565b634e487b7160e01b600052601160045260246000fd5b80820180821115610c1957610c19613b7c565b81835281816020850137506000828201602090810191909152601f909101601f19169091010190565b61ffff84168152604060208201526000611c04604083018486613ba5565b6000808335601e19843603018112613c0357600080fd5b8301803591506001600160401b03821115613c1d57600080fd5b60200191503681900382131561330057600080fd5b81810381811115610c1957610c19613b7c565b8284823760609190911b6bffffffffffffffffffffffff19169101908152601401919050565b601f82111561275e57600081815260208120601f850160051c81016020861015613c925750805b601f850160051c820191505b818110156110a057828155600101613c9e565b600019600383901b1c191660019190911b1790565b81516001600160401b03811115613cdf57613cdf6135be565b613cf381613ced8454613b38565b84613c6b565b602080601f831160018114613d225760008415613d105750858301515b613d1a8582613cb1565b8655506110a0565b600085815260208120601f198616915b82811015613d5157888601518255948401946001909101908401613d32565b5085821015613d6f5787850151600019600388901b60f8161c191681555b5050505050600190811b01905550565b600061ffff808816835280871660208401525084604083015260806060830152613dad608083018486613ba5565b979650505050505050565b61ffff86168152608060208201526000613dd6608083018688613ba5565b6001600160401b0394909416604083015250606001529392505050565b61ffff8916815260c060208201526000613e1160c08301898b613ba5565b6001600160401b038816604084015286606084015285608084015282810360a0840152613e3f818587613ba5565b9b9a5050505050505050505050565b6001600160401b03831115613e6557613e656135be565b613e7983613e738354613b38565b83613c6b565b6000601f841160018114613ea75760008515613e955750838201355b613e9f8682613cb1565b845550610d33565b600083815260209020601f19861690835b82811015613ed85786850135825560209485019460019092019101613eb8565b5086821015613ef55760001960f88860031b161c19848701351681555b505060018560011b0183555050505050565b600060208284031215613f1957600080fd5b81516001600160401b03811115613f2f57600080fd5b8201601f81018413613f4057600080fd5b8051613f4e61368382613604565b818152856020838501011115613f6357600080fd5b611c048260208301602086016133db565b61ffff85168152608060208201526000613f9160808301866133ff565b6001600160401b03851660408401528281036060840152613dad81856133ff565b61ffff861681526001600160a01b038516602082015260a060408201819052600090613fe0908301866133ff565b84151560608401528281036080840152613ffa81856133ff565b98975050505050505050565b6000806040838503121561401957600080fd5b505080516020909101519092909150565b60208082526019908201527813d19510dbdc994e88185b5bdd5b9d081d1bdbc81cdb585b1b603a1b604082015260600190565b6000825161406f8184602087016133db565b9190910192915050565b61ffff8616815260a06020820152600061409660a08301876133ff565b6001600160401b038616604084015282810360608401526140b781866133ff565b90508281036080840152613ffa81856133ff565b634e487b7160e01b600052601260045260246000fd5b6000826140f0576140f06140cb565b500490565b600061010061ffff8b1683528060208401526141138184018b6133ff565b6001600160401b038a166040850152606084018990526001600160a01b038816608085015260a0840187905283810360c0850152905061415381866133ff565b9150508260e08301529998505050505050505050565b60608152600061417c60608301866133ff565b6001600160401b039490941660208301525060400152919050565b6000826141a6576141a66140cb565b500690565b61ffff8716815260c0602082015260006141c860c08301886133ff565b82810360408401526141da81886133ff565b6001600160a01b0387811660608601528616608085015283810360a0850152905061420581856133ff565b9998505050505050505050565b60ff60f81b8760f81b16815285600182015260006001600160401b0360c01b808760c01b166021840152856029840152808560c01b1660498401525082516142618160518501602087016133db565b91909101605101979650505050505050565b60208082526018908201527713d19510dbdc994e881a5b9d985b1a59081c185e5b1bd85960421b604082015260600190565b8082028115828204841417610c1957610c19613b7c56feddf252ad1be2c89b69c2b068fc378daa952ba7f163c4a11628f55a4df523b3efa26469706673582212207d23165b30017ccbb7b905d1ca7f312957bf902d89a5766a8572d23d9e200aa464736f6c63430008110033",
  "devdoc": {
    "kind": "dev",
    "methods": {
      "allowance(address,address)": {
        "details": "See {IERC20-allowance}."
      },
      "approve(address,uint256)": {
        "details": "See {IERC20-approve}. NOTE: If `amount` is the maximum `uint256`, the allowance is not updated on `transferFrom`. This is semantically equivalent to an infinite approval. Requirements: - `spender` cannot be the zero address."
      },
      "balanceOf(address)": {
        "details": "See {IERC20-balanceOf}."
      },
      "circulatingSupply()": {
        "details": "returns the circulating amount of tokens on current chain"
      },
      "decimals()": {
        "details": "Returns the number of decimals used to get its user representation. For example, if `decimals` equals `2`, a balance of `505` tokens should be displayed to a user as `5.05` (`505 / 10 ** 2`). Tokens usually opt for a value of 18, imitating the relationship between Ether and Wei. This is the default value returned by this function, unless it's overridden. NOTE: This information is only used for _display_ purposes: it in no way affects any of the arithmetic of the contract, including {IERC20-balanceOf} and {IERC20-transfer}."
      },
      "decreaseAllowance(address,uint256)": {
        "details": "Atomically decreases the allowance granted to `spender` by the caller. This is an alternative to {approve} that can be used as a mitigation for problems described in {IERC20-approve}. Emits an {Approval} event indicating the updated allowance. Requirements: - `spender` cannot be the zero address. - `spender` must have allowance for the caller of at least `subtractedValue`."
      },
      "estimateSendFee(uint16,bytes32,uint256,bool,bytes)": {
        "details": "estimate send token `_tokenId` to (`_dstChainId`, `_toAddress`) _dstChainId - L0 defined chain id to send tokens too _toAddress - dynamic bytes array which contains the address to whom you are sending tokens to on the dstChain _amount - amount of the tokens to transfer _useZro - indicates to use zro to pay L0 fees _adapterParam - flexible bytes array to indicate messaging adapter services in L0"
      },
      "increaseAllowance(address,uint256)": {
        "details": "Atomically increases the allowance granted to `spender` by the caller. This is an alternative to {approve} that can be used as a mitigation for problems described in {IERC20-approve}. Emits an {Approval} event indicating the updated allowance. Requirements: - `spender` cannot be the zero address."
      },
      "name()": {
        "details": "Returns the name of the token."
      },
      "owner()": {
        "details": "Returns the address of the current owner."
      },
      "renounceOwnership()": {
        "details": "Leaves the contract without owner. It will not be possible to call `onlyOwner` functions. Can only be called by the current owner. NOTE: Renouncing ownership will leave the contract without an owner, thereby disabling any functionality that is only available to the owner."
      },
      "sendFrom(address,uint16,bytes32,uint256,(address,address,bytes))": {
        "details": "send `_amount` amount of token to (`_dstChainId`, `_toAddress`) from `_from` `_from` the owner of token `_dstChainId` the destination chain identifier `_toAddress` can be any size depending on the `dstChainId`. `_amount` the quantity of tokens in wei `_refundAddress` the address LayerZero refunds if too much message fee is sent `_zroPaymentAddress` set to address(0x0) if not paying in ZRO (LayerZero Token) `_adapterParams` is a flexible bytes array to indicate messaging adapter services"
      },
      "symbol()": {
        "details": "Returns the symbol of the token, usually a shorter version of the name."
      },
      "token()": {
        "details": "returns the address of the ERC20 token"
      },
      "totalSupply()": {
        "details": "See {IERC20-totalSupply}."
      },
      "transfer(address,uint256)": {
        "details": "See {IERC20-transfer}. Requirements: - `to` cannot be the zero address. - the caller must have a balance of at least `amount`."
      },
      "transferFrom(address,address,uint256)": {
        "details": "See {IERC20-transferFrom}. Emits an {Approval} event indicating the updated allowance. This is not required by the EIP. See the note at the beginning of {ERC20}. NOTE: Does not update the allowance if the current allowance is the maximum `uint256`. Requirements: - `from` and `to` cannot be the zero address. - `from` must have a balance of at least `amount`. - the caller must have allowance for ``from``'s tokens of at least `amount`."
      },
      "transferOwnership(address)": {
        "details": "Transfers ownership of the contract to a new account (`newOwner`). Can only be called by the current owner."
      }
    },
    "version": 1
  },
  "userdoc": {
    "kind": "user",
    "methods": {},
    "version": 1
  },
  "storageLayout": {
    "storage": [
      {
        "astId": 3053,
        "contract": "contracts/omni/token/esZKDXOmni.sol:esZKDXOmni",
        "label": "_owner",
        "offset": 0,
        "slot": "0",
        "type": "t_address"
      },
      {
        "astId": 353,
        "contract": "contracts/omni/token/esZKDXOmni.sol:esZKDXOmni",
        "label": "trustedRemoteLookup",
        "offset": 0,
        "slot": "1",
        "type": "t_mapping(t_uint16,t_bytes_storage)"
      },
      {
        "astId": 359,
        "contract": "contracts/omni/token/esZKDXOmni.sol:esZKDXOmni",
        "label": "minDstGasLookup",
        "offset": 0,
        "slot": "2",
        "type": "t_mapping(t_uint16,t_mapping(t_uint16,t_uint256))"
      },
      {
        "astId": 363,
        "contract": "contracts/omni/token/esZKDXOmni.sol:esZKDXOmni",
        "label": "payloadSizeLimitLookup",
        "offset": 0,
        "slot": "3",
        "type": "t_mapping(t_uint16,t_uint256)"
      },
      {
        "astId": 365,
        "contract": "contracts/omni/token/esZKDXOmni.sol:esZKDXOmni",
        "label": "precrime",
        "offset": 0,
        "slot": "4",
        "type": "t_address"
      },
      {
        "astId": 902,
        "contract": "contracts/omni/token/esZKDXOmni.sol:esZKDXOmni",
        "label": "failedMessages",
        "offset": 0,
        "slot": "5",
        "type": "t_mapping(t_uint16,t_mapping(t_bytes_memory_ptr,t_mapping(t_uint64,t_bytes32)))"
      },
      {
        "astId": 1451,
        "contract": "contracts/omni/token/esZKDXOmni.sol:esZKDXOmni",
        "label": "useCustomAdapterParams",
        "offset": 0,
        "slot": "6",
        "type": "t_bool"
      },
      {
        "astId": 1459,
        "contract": "contracts/omni/token/esZKDXOmni.sol:esZKDXOmni",
        "label": "creditedPackets",
        "offset": 0,
        "slot": "7",
        "type": "t_mapping(t_uint16,t_mapping(t_bytes_memory_ptr,t_mapping(t_uint64,t_bool)))"
      },
      {
        "astId": 3347,
        "contract": "contracts/omni/token/esZKDXOmni.sol:esZKDXOmni",
        "label": "_balances",
        "offset": 0,
        "slot": "8",
        "type": "t_mapping(t_address,t_uint256)"
      },
      {
        "astId": 3353,
        "contract": "contracts/omni/token/esZKDXOmni.sol:esZKDXOmni",
        "label": "_allowances",
        "offset": 0,
        "slot": "9",
        "type": "t_mapping(t_address,t_mapping(t_address,t_uint256))"
      },
      {
        "astId": 3355,
        "contract": "contracts/omni/token/esZKDXOmni.sol:esZKDXOmni",
        "label": "_totalSupply",
        "offset": 0,
        "slot": "10",
        "type": "t_uint256"
      },
      {
        "astId": 3357,
        "contract": "contracts/omni/token/esZKDXOmni.sol:esZKDXOmni",
        "label": "_name",
        "offset": 0,
        "slot": "11",
        "type": "t_string_storage"
      },
      {
        "astId": 3359,
        "contract": "contracts/omni/token/esZKDXOmni.sol:esZKDXOmni",
        "label": "_symbol",
        "offset": 0,
        "slot": "12",
        "type": "t_string_storage"
      }
    ],
    "types": {
      "t_address": {
        "encoding": "inplace",
        "label": "address",
        "numberOfBytes": "20"
      },
      "t_bool": {
        "encoding": "inplace",
        "label": "bool",
        "numberOfBytes": "1"
      },
      "t_bytes32": {
        "encoding": "inplace",
        "label": "bytes32",
        "numberOfBytes": "32"
      },
      "t_bytes_memory_ptr": {
        "encoding": "bytes",
        "label": "bytes",
        "numberOfBytes": "32"
      },
      "t_bytes_storage": {
        "encoding": "bytes",
        "label": "bytes",
        "numberOfBytes": "32"
      },
      "t_mapping(t_address,t_mapping(t_address,t_uint256))": {
        "encoding": "mapping",
        "key": "t_address",
        "label": "mapping(address => mapping(address => uint256))",
        "numberOfBytes": "32",
        "value": "t_mapping(t_address,t_uint256)"
      },
      "t_mapping(t_address,t_uint256)": {
        "encoding": "mapping",
        "key": "t_address",
        "label": "mapping(address => uint256)",
        "numberOfBytes": "32",
        "value": "t_uint256"
      },
      "t_mapping(t_bytes_memory_ptr,t_mapping(t_uint64,t_bool))": {
        "encoding": "mapping",
        "key": "t_bytes_memory_ptr",
        "label": "mapping(bytes => mapping(uint64 => bool))",
        "numberOfBytes": "32",
        "value": "t_mapping(t_uint64,t_bool)"
      },
      "t_mapping(t_bytes_memory_ptr,t_mapping(t_uint64,t_bytes32))": {
        "encoding": "mapping",
        "key": "t_bytes_memory_ptr",
        "label": "mapping(bytes => mapping(uint64 => bytes32))",
        "numberOfBytes": "32",
        "value": "t_mapping(t_uint64,t_bytes32)"
      },
      "t_mapping(t_uint16,t_bytes_storage)": {
        "encoding": "mapping",
        "key": "t_uint16",
        "label": "mapping(uint16 => bytes)",
        "numberOfBytes": "32",
        "value": "t_bytes_storage"
      },
      "t_mapping(t_uint16,t_mapping(t_bytes_memory_ptr,t_mapping(t_uint64,t_bool)))": {
        "encoding": "mapping",
        "key": "t_uint16",
        "label": "mapping(uint16 => mapping(bytes => mapping(uint64 => bool)))",
        "numberOfBytes": "32",
        "value": "t_mapping(t_bytes_memory_ptr,t_mapping(t_uint64,t_bool))"
      },
      "t_mapping(t_uint16,t_mapping(t_bytes_memory_ptr,t_mapping(t_uint64,t_bytes32)))": {
        "encoding": "mapping",
        "key": "t_uint16",
        "label": "mapping(uint16 => mapping(bytes => mapping(uint64 => bytes32)))",
        "numberOfBytes": "32",
        "value": "t_mapping(t_bytes_memory_ptr,t_mapping(t_uint64,t_bytes32))"
      },
      "t_mapping(t_uint16,t_mapping(t_uint16,t_uint256))": {
        "encoding": "mapping",
        "key": "t_uint16",
        "label": "mapping(uint16 => mapping(uint16 => uint256))",
        "numberOfBytes": "32",
        "value": "t_mapping(t_uint16,t_uint256)"
      },
      "t_mapping(t_uint16,t_uint256)": {
        "encoding": "mapping",
        "key": "t_uint16",
        "label": "mapping(uint16 => uint256)",
        "numberOfBytes": "32",
        "value": "t_uint256"
      },
      "t_mapping(t_uint64,t_bool)": {
        "encoding": "mapping",
        "key": "t_uint64",
        "label": "mapping(uint64 => bool)",
        "numberOfBytes": "32",
        "value": "t_bool"
      },
      "t_mapping(t_uint64,t_bytes32)": {
        "encoding": "mapping",
        "key": "t_uint64",
        "label": "mapping(uint64 => bytes32)",
        "numberOfBytes": "32",
        "value": "t_bytes32"
      },
      "t_string_storage": {
        "encoding": "bytes",
        "label": "string",
        "numberOfBytes": "32"
      },
      "t_uint16": {
        "encoding": "inplace",
        "label": "uint16",
        "numberOfBytes": "2"
      },
      "t_uint256": {
        "encoding": "inplace",
        "label": "uint256",
        "numberOfBytes": "32"
      },
      "t_uint64": {
        "encoding": "inplace",
        "label": "uint64",
        "numberOfBytes": "8"
      }
    }
  }
}