{
  "address": "0xA200F53Be27D962158B67a91AB2A4E74eeE22675",
  "abi": [
    {
      "inputs": [
        {
          "internalType": "address",
          "name": "_vault",
          "type": "address"
        },
        {
          "internalType": "address",
          "name": "_router",
          "type": "address"
        },
        {
          "internalType": "address",
          "name": "_shortsTracker",
          "type": "address"
        },
        {
          "internalType": "address",
          "name": "_weth",
          "type": "address"
        },
        {
          "internalType": "uint256",
          "name": "_depositFee",
          "type": "uint256"
        },
        {
          "internalType": "address",
          "name": "_orderBook",
          "type": "address"
        }
      ],
      "stateMutability": "nonpayable",
      "type": "constructor"
    },
    {
      "inputs": [],
      "name": "BASIS_POINTS_DIVISOR",
      "outputs": [
        {
          "internalType": "uint256",
          "name": "",
          "type": "uint256"
        }
      ],
      "stateMutability": "view",
      "type": "function"
    },
    {
      "inputs": [],
      "name": "admin",
      "outputs": [
        {
          "internalType": "address",
          "name": "",
          "type": "address"
        }
      ],
      "stateMutability": "view",
      "type": "function"
    },
    {
      "inputs": [
        {
          "internalType": "address",
          "name": "_token",
          "type": "address"
        },
        {
          "internalType": "address",
          "name": "_spender",
          "type": "address"
        },
        {
          "internalType": "uint256",
          "name": "_amount",
          "type": "uint256"
        }
      ],
      "name": "approve",
      "outputs": [],
      "stateMutability": "nonpayable",
      "type": "function"
    },
    {
      "inputs": [
        {
          "internalType": "address[]",
          "name": "_path",
          "type": "address[]"
        },
        {
          "internalType": "address",
          "name": "_indexToken",
          "type": "address"
        },
        {
          "internalType": "uint256",
          "name": "_collateralDelta",
          "type": "uint256"
        },
        {
          "internalType": "uint256",
          "name": "_sizeDelta",
          "type": "uint256"
        },
        {
          "internalType": "bool",
          "name": "_isLong",
          "type": "bool"
        },
        {
          "internalType": "address",
          "name": "_receiver",
          "type": "address"
        },
        {
          "internalType": "uint256",
          "name": "_price",
          "type": "uint256"
        },
        {
          "internalType": "uint256",
          "name": "_minOut",
          "type": "uint256"
        },
        {
          "internalType": "bool",
          "name": "_withdrawETH",
          "type": "bool"
        },
        {
          "internalType": "bytes[]",
          "name": "_updateData",
          "type": "bytes[]"
        }
      ],
      "name": "decreasePosition",
      "outputs": [],
      "stateMutability": "payable",
      "type": "function"
    },
    {
      "inputs": [],
      "name": "depositFee",
      "outputs": [
        {
          "internalType": "uint256",
          "name": "",
          "type": "uint256"
        }
      ],
      "stateMutability": "view",
      "type": "function"
    },
    {
      "inputs": [
        {
          "internalType": "address",
          "name": "_account",
          "type": "address"
        },
        {
          "internalType": "uint256",
          "name": "_orderIndex",
          "type": "uint256"
        },
        {
          "internalType": "address payable",
          "name": "_feeReceiver",
          "type": "address"
        },
        {
          "internalType": "bytes[]",
          "name": "_updateData",
          "type": "bytes[]"
        }
      ],
      "name": "executeDecreaseOrder",
      "outputs": [],
      "stateMutability": "payable",
      "type": "function"
    },
    {
      "inputs": [
        {
          "internalType": "address",
          "name": "_account",
          "type": "address"
        },
        {
          "internalType": "uint256",
          "name": "_orderIndex",
          "type": "uint256"
        },
        {
          "internalType": "address payable",
          "name": "_feeReceiver",
          "type": "address"
        },
        {
          "internalType": "bytes[]",
          "name": "_updateData",
          "type": "bytes[]"
        }
      ],
      "name": "executeIncreaseOrder",
      "outputs": [],
      "stateMutability": "payable",
      "type": "function"
    },
    {
      "inputs": [
        {
          "internalType": "address",
          "name": "",
          "type": "address"
        }
      ],
      "name": "feeReserves",
      "outputs": [
        {
          "internalType": "uint256",
          "name": "",
          "type": "uint256"
        }
      ],
      "stateMutability": "view",
      "type": "function"
    },
    {
      "inputs": [],
      "name": "gov",
      "outputs": [
        {
          "internalType": "address",
          "name": "",
          "type": "address"
        }
      ],
      "stateMutability": "view",
      "type": "function"
    },
    {
      "inputs": [
        {
          "internalType": "address[]",
          "name": "_path",
          "type": "address[]"
        },
        {
          "internalType": "address",
          "name": "_indexToken",
          "type": "address"
        },
        {
          "internalType": "uint256",
          "name": "_amountIn",
          "type": "uint256"
        },
        {
          "internalType": "uint256",
          "name": "_minOut",
          "type": "uint256"
        },
        {
          "internalType": "uint256",
          "name": "_sizeDelta",
          "type": "uint256"
        },
        {
          "internalType": "bool",
          "name": "_isLong",
          "type": "bool"
        },
        {
          "internalType": "uint256",
          "name": "_price",
          "type": "uint256"
        },
        {
          "internalType": "bytes[]",
          "name": "_updateData",
          "type": "bytes[]"
        }
      ],
      "name": "increasePosition",
      "outputs": [],
      "stateMutability": "payable",
      "type": "function"
    },
    {
      "inputs": [],
      "name": "increasePositionBufferBps",
      "outputs": [
        {
          "internalType": "uint256",
          "name": "",
          "type": "uint256"
        }
      ],
      "stateMutability": "view",
      "type": "function"
    },
    {
      "inputs": [
        {
          "internalType": "address[]",
          "name": "_path",
          "type": "address[]"
        },
        {
          "internalType": "address",
          "name": "_indexToken",
          "type": "address"
        },
        {
          "internalType": "uint256",
          "name": "_minOut",
          "type": "uint256"
        },
        {
          "internalType": "uint256",
          "name": "_sizeDelta",
          "type": "uint256"
        },
        {
          "internalType": "bool",
          "name": "_isLong",
          "type": "bool"
        },
        {
          "internalType": "uint256",
          "name": "_price",
          "type": "uint256"
        },
        {
          "internalType": "bytes[]",
          "name": "_updateData",
          "type": "bytes[]"
        }
      ],
      "name": "increasePositionETH",
      "outputs": [],
      "stateMutability": "payable",
      "type": "function"
    },
    {
      "inputs": [
        {
          "internalType": "address",
          "name": "",
          "type": "address"
        }
      ],
      "name": "isLiquidator",
      "outputs": [
        {
          "internalType": "bool",
          "name": "",
          "type": "bool"
        }
      ],
      "stateMutability": "view",
      "type": "function"
    },
    {
      "inputs": [
        {
          "internalType": "address",
          "name": "",
          "type": "address"
        }
      ],
      "name": "isOrderKeeper",
      "outputs": [
        {
          "internalType": "bool",
          "name": "",
          "type": "bool"
        }
      ],
      "stateMutability": "view",
      "type": "function"
    },
    {
      "inputs": [
        {
          "internalType": "address",
          "name": "",
          "type": "address"
        }
      ],
      "name": "isPartner",
      "outputs": [
        {
          "internalType": "bool",
          "name": "",
          "type": "bool"
        }
      ],
      "stateMutability": "view",
      "type": "function"
    },
    {
      "inputs": [
        {
          "internalType": "address",
          "name": "_account",
          "type": "address"
        },
        {
          "internalType": "address",
          "name": "_collateralToken",
          "type": "address"
        },
        {
          "internalType": "address",
          "name": "_indexToken",
          "type": "address"
        },
        {
          "internalType": "bool",
          "name": "_isLong",
          "type": "bool"
        },
        {
          "internalType": "address",
          "name": "_feeReceiver",
          "type": "address"
        },
        {
          "internalType": "bytes[]",
          "name": "_updateData",
          "type": "bytes[]"
        }
      ],
      "name": "liquidatePosition",
      "outputs": [],
      "stateMutability": "payable",
      "type": "function"
    },
    {
      "inputs": [
        {
          "internalType": "address",
          "name": "",
          "type": "address"
        }
      ],
      "name": "maxGlobalLongSizes",
      "outputs": [
        {
          "internalType": "uint256",
          "name": "",
          "type": "uint256"
        }
      ],
      "stateMutability": "view",
      "type": "function"
    },
    {
      "inputs": [
        {
          "internalType": "address",
          "name": "",
          "type": "address"
        }
      ],
      "name": "maxGlobalShortSizes",
      "outputs": [
        {
          "internalType": "uint256",
          "name": "",
          "type": "uint256"
        }
      ],
      "stateMutability": "view",
      "type": "function"
    },
    {
      "inputs": [],
      "name": "opened",
      "outputs": [
        {
          "internalType": "bool",
          "name": "",
          "type": "bool"
        }
      ],
      "stateMutability": "view",
      "type": "function"
    },
    {
      "inputs": [],
      "name": "orderBook",
      "outputs": [
        {
          "internalType": "address",
          "name": "",
          "type": "address"
        }
      ],
      "stateMutability": "view",
      "type": "function"
    },
    {
      "inputs": [],
      "name": "router",
      "outputs": [
        {
          "internalType": "address",
          "name": "",
          "type": "address"
        }
      ],
      "stateMutability": "view",
      "type": "function"
    },
    {
      "inputs": [
        {
          "internalType": "address payable",
          "name": "_receiver",
          "type": "address"
        },
        {
          "internalType": "uint256",
          "name": "_amount",
          "type": "uint256"
        }
      ],
      "name": "sendValue",
      "outputs": [],
      "stateMutability": "nonpayable",
      "type": "function"
    },
    {
      "inputs": [
        {
          "internalType": "address",
          "name": "_admin",
          "type": "address"
        }
      ],
      "name": "setAdmin",
      "outputs": [],
      "stateMutability": "nonpayable",
      "type": "function"
    },
    {
      "inputs": [
        {
          "internalType": "uint256",
          "name": "_depositFee",
          "type": "uint256"
        }
      ],
      "name": "setDepositFee",
      "outputs": [],
      "stateMutability": "nonpayable",
      "type": "function"
    },
    {
      "inputs": [
        {
          "internalType": "address",
          "name": "_gov",
          "type": "address"
        }
      ],
      "name": "setGov",
      "outputs": [],
      "stateMutability": "nonpayable",
      "type": "function"
    },
    {
      "inputs": [
        {
          "internalType": "uint256",
          "name": "_increasePositionBufferBps",
          "type": "uint256"
        }
      ],
      "name": "setIncreasePositionBufferBps",
      "outputs": [],
      "stateMutability": "nonpayable",
      "type": "function"
    },
    {
      "inputs": [
        {
          "internalType": "address",
          "name": "_account",
          "type": "address"
        },
        {
          "internalType": "bool",
          "name": "_isActive",
          "type": "bool"
        }
      ],
      "name": "setLiquidator",
      "outputs": [],
      "stateMutability": "nonpayable",
      "type": "function"
    },
    {
      "inputs": [
        {
          "internalType": "address[]",
          "name": "_tokens",
          "type": "address[]"
        },
        {
          "internalType": "uint256[]",
          "name": "_longSizes",
          "type": "uint256[]"
        },
        {
          "internalType": "uint256[]",
          "name": "_shortSizes",
          "type": "uint256[]"
        }
      ],
      "name": "setMaxGlobalSizes",
      "outputs": [],
      "stateMutability": "nonpayable",
      "type": "function"
    },
    {
      "inputs": [
        {
          "internalType": "bool",
          "name": "_opened",
          "type": "bool"
        }
      ],
      "name": "setOpened",
      "outputs": [],
      "stateMutability": "nonpayable",
      "type": "function"
    },
    {
      "inputs": [
        {
          "internalType": "address",
          "name": "_orderBook",
          "type": "address"
        }
      ],
      "name": "setOrderBook",
      "outputs": [],
      "stateMutability": "nonpayable",
      "type": "function"
    },
    {
      "inputs": [
        {
          "internalType": "address",
          "name": "_account",
          "type": "address"
        },
        {
          "internalType": "bool",
          "name": "_isActive",
          "type": "bool"
        }
      ],
      "name": "setOrderKeeper",
      "outputs": [],
      "stateMutability": "nonpayable",
      "type": "function"
    },
    {
      "inputs": [
        {
          "internalType": "address",
          "name": "_account",
          "type": "address"
        },
        {
          "internalType": "bool",
          "name": "_isActive",
          "type": "bool"
        }
      ],
      "name": "setPartner",
      "outputs": [],
      "stateMutability": "nonpayable",
      "type": "function"
    },
    {
      "inputs": [
        {
          "internalType": "bool",
          "name": "_shouldValidateIncreaseOrder",
          "type": "bool"
        }
      ],
      "name": "setShouldValidateIncreaseOrder",
      "outputs": [],
      "stateMutability": "nonpayable",
      "type": "function"
    },
    {
      "inputs": [],
      "name": "shortsTracker",
      "outputs": [
        {
          "internalType": "address",
          "name": "",
          "type": "address"
        }
      ],
      "stateMutability": "view",
      "type": "function"
    },
    {
      "inputs": [],
      "name": "shouldValidateIncreaseOrder",
      "outputs": [
        {
          "internalType": "bool",
          "name": "",
          "type": "bool"
        }
      ],
      "stateMutability": "view",
      "type": "function"
    },
    {
      "inputs": [],
      "name": "vault",
      "outputs": [
        {
          "internalType": "address",
          "name": "",
          "type": "address"
        }
      ],
      "stateMutability": "view",
      "type": "function"
    },
    {
      "inputs": [],
      "name": "weth",
      "outputs": [
        {
          "internalType": "address",
          "name": "",
          "type": "address"
        }
      ],
      "stateMutability": "view",
      "type": "function"
    },
    {
      "inputs": [
        {
          "internalType": "address",
          "name": "_token",
          "type": "address"
        },
        {
          "internalType": "address",
          "name": "_receiver",
          "type": "address"
        }
      ],
      "name": "withdrawFees",
      "outputs": [],
      "stateMutability": "nonpayable",
      "type": "function"
    },
    {
      "stateMutability": "payable",
      "type": "receive"
    }
  ],
  "transactionHash": "0x8cb90421ead7b1c7fadc9eb0eab06814439fc378a42bc21c4e76d7cd3e32beff",
  "args": [
    "0x932C1B63aeda657ec4f30447aF37D27aBDaC7F69",
    "0xBfEf3e7E936c8Eb4D4289DA762606E481db23C9F",
    "0x2b59daF9ec950c8Fdc347b0673966A567bf5238A",
    "0x737C776B11806ab8e111F39Fe12A0FeDa3deE101",
    50,
    "0x7B6dc36aA6d6d9502D683169717fAf7E0D473DD7"
  ],
  "numDeployments": 1,
  "solcInputHash": "37ac44f49d18bdad205cbe889714e32d",
  "bytecode": "0x60806040526002805461ff001960ff199091166001171661010017905560646007553480156200002e57600080fd5b5060405162004a4b38038062004a4b833981016040819052620000519162000116565b600080546001600160a01b03199081163390811790925560018055600980546001600160a01b03998a169083168117909155600b8054988a1698831698909817909755600c805495891695821695909517909455600692909255600a8054948716948416949094179093556008805483169091179055601080549091169092179091556002805491909216620100000262010000600160b01b031990911617905562000192565b80516001600160a01b03811681146200011057600080fd5b92915050565b60008060008060008060c087890312156200012f578182fd5b6200013b8888620000f8565b95506200014c8860208901620000f8565b94506200015d8860408901620000f8565b93506200016e8860608901620000f8565b925060808701519150620001868860a08901620000f8565b90509295509295509295565b6148a980620001a26000396000f3fe6080604052600436106102095760003560e01c806367a5279311610113578063b0007cf0116100ab578063ef12c67e1161006f578063ef12c67e14610607578063f255527814610627578063f851a44014610647578063f887ea401461065c578063fbfa77cf1461067157610261565b8063b0007cf01461058e578063c0eefef4146105a1578063cfad57a2146105b4578063e1f21c67146105d4578063e3b46268146105f457610261565b806367a527931461049c578063704b6c02146104b1578063776af5ba146104d15780638c0f9aac146104e65780639698d25a1461050657806398d1e03a146105265780639a0a18bf1461053b5780639a1598c81461055b578063acb092d21461057b57610261565b806324a084df116101a15780634584bd4b116101655780634584bd4b1461041d578063490ae21014610432578063529a356f146104525780635f88eade14610472578063657bc5d01461048757610261565b806324a084df146103885780632e931cea146103a85780633833f5f5146103bb5780633fc8cef3146103e85780634453a374146103fd57610261565b806305737a24146102665780631045c74e1461027b578063126082cf146102b157806312d43a51146102c65780631b904359146102e85780631ce9cb8f146103085780631e2615381461032857806321acf65914610348578063233bfe3b1461036857610261565b3661026157600c54604080516060810190915260238082526001600160a01b0390921633149161482c60208301399061025e5760405162461bcd60e51b8152600401610255919061433e565b60405180910390fd5b50005b600080fd5b610279610274366004613ab8565b610686565b005b34801561028757600080fd5b5061029b610296366004613912565b610abd565b6040516102a89190614628565b60405180910390f35b3480156102bd57600080fd5b5061029b610acf565b3480156102d257600080fd5b506102db610ad5565b6040516102a89190614047565b3480156102f457600080fd5b50610279610303366004613f0b565b610ae4565b34801561031457600080fd5b5061029b610323366004613912565b610b5c565b34801561033457600080fd5b50610279610343366004613a8b565b610b6e565b34801561035457600080fd5b50610279610363366004613a8b565b610bf8565b34801561037457600080fd5b50610279610383366004613f43565b610c84565b34801561039457600080fd5b506102796103a336600461394a565b610ce3565b6102796103b6366004613c4a565b610d24565b3480156103c757600080fd5b506103db6103d6366004613912565b610ed9565b6040516102a89190614333565b3480156103f457600080fd5b506102db610eee565b34801561040957600080fd5b50610279610418366004613a8b565b610efd565b34801561042957600080fd5b506103db610f7b565b34801561043e57600080fd5b5061027961044d366004613f43565b610f89565b34801561045e57600080fd5b506103db61046d366004613912565b610fe8565b34801561047e57600080fd5b506103db610ffd565b34801561049357600080fd5b506102db611006565b3480156104a857600080fd5b5061029b611015565b3480156104bd57600080fd5b506102796104cc366004613912565b61101b565b3480156104dd57600080fd5b506102db611090565b3480156104f257600080fd5b506103db610501366004613912565b6110a5565b34801561051257600080fd5b5061029b610521366004613912565b6110ba565b34801561053257600080fd5b5061029b6110cc565b34801561054757600080fd5b50610279610556366004613f0b565b6110d2565b34801561056757600080fd5b50610279610576366004613912565b61113a565b610279610589366004613d23565b61118e565b61027961059c366004613ab8565b6113d8565b6102796105af3660046139ad565b611766565b3480156105c057600080fd5b506102796105cf366004613912565b611baf565b3480156105e057600080fd5b506102796105ef366004613a4b565b611bfb565b610279610602366004613dcf565b611cab565b34801561061357600080fd5b50610279610622366004613e88565b611f30565b34801561063357600080fd5b50610279610642366004613975565b612036565b34801561065357600080fd5b506102db6120db565b34801561066857600080fd5b506102db6120ea565b34801561067d57600080fd5b506102db6120f9565b33600090815260036020908152604091829020548251808401909352601a83526000805160206147e38339815191529183019190915260ff166106dc5760405162461bcd60e51b8152600401610255919061433e565b506106e78282612108565b506106f28585612280565b600954604080516312d43a5160e01b815290516001600160a01b039092169160009183916312d43a5191600480820192602092909190829003018186803b15801561073c57600080fd5b505afa158015610750573d6000803e3d6000fd5b505050506040513d601f19601f82011682018060405250810190610774919061392e565b60025460405163d3bab1d160e01b81529192506000918291829182916201000090046001600160a01b03169063d3bab1d1906107b6908e908e906004016141f7565b6101206040518083038186803b1580156107cf57600080fd5b505afa1580156107e3573d6000803e3d6000fd5b505050506040513d601f19601f820116820180604052508101906108079190613b28565b5050509550955095509550505060008161089c576040516340d3096b60e11b81526001600160a01b038816906381a612d690610847908790600401614047565b60206040518083038186803b15801561085f57600080fd5b505afa158015610873573d6000803e3d6000fd5b505050506040513d601f19601f820116820180604052508101906108979190613f5b565b610918565b604051637092736960e11b81526001600160a01b0388169063e124e6d2906108c8908790600401614047565b60206040518083038186803b1580156108e057600080fd5b505afa1580156108f4573d6000803e3d6000fd5b505050506040513d601f19601f820116820180604052508101906109189190613f5b565b600a54604051633cc8e33b60e21b81529192506001600160a01b03169063f3238cec90610956908f908990899088908a908990600190600401614104565b600060405180830381600087803b15801561097057600080fd5b505af1158015610984573d6000803e3d6000fd5b50506040516306d63c1d60e41b81526001600160a01b0389169250636d63c1d091506109b4908a90600401614047565b600060405180830381600087803b1580156109ce57600080fd5b505af11580156109e2573d6000803e3d6000fd5b505060025460405163d38ab51960e01b8152620100009091046001600160a01b0316925063d38ab5199150610a1f908f908f908f90600401614210565b600060405180830381600087803b158015610a3957600080fd5b505af1158015610a4d573d6000803e3d6000fd5b505060405163d3c87bbb60e01b81526001600160a01b038916925063d3c87bbb9150610a7d908a90600401614047565b600060405180830381600087803b158015610a9757600080fd5b505af1158015610aab573d6000803e3d6000fd5b50505050505050505050505050505050565b600d6020526000908152604090205481565b61271081565b6000546001600160a01b031681565b6008546001600160a01b03163314610b0e5760405162461bcd60e51b815260040161025590614570565b6002805461ff001916610100831515021790556040517fa956222e37fe025ff51e5440ac729a9bd417ff91e485e14dcffa2c0ba8894f4090610b51908390614333565b60405180910390a150565b600f6020526000908152604090205481565b6008546001600160a01b03163314610b985760405162461bcd60e51b815260040161025590614570565b6001600160a01b03821660008181526003602052604090819020805460ff1916841515179055517f1d5bc0255b943d6a5b5279e8a55d74d620baccbceecb25e87a3558f14c4c118e90610bec908490614333565b60405180910390a25050565b6008546001600160a01b03163314610c225760405162461bcd60e51b815260040161025590614570565b6001600160a01b03821660009081526004602052604090819020805460ff1916831515179055517fa4e46c70ff429a91de7d1716d736e877c7cca1c22ac850b23d242530dd95e47490610c7890849084906141dc565b60405180910390a15050565b6008546001600160a01b03163314610cae5760405162461bcd60e51b815260040161025590614570565b60078190556040517f21167d0d4661af93817ebce920f18986eed3d75d5e1c03f2aed05efcbafbc45290610b51908390614628565b6000546001600160a01b03163314610d0d5760405162461bcd60e51b8152600401610255906144b9565b610d206001600160a01b03831682612527565b5050565b60026001541415610d475760405162461bcd60e51b8152600401610255906145f1565b60026001553360009081526004602052604090205460ff1680610d6c575060025460ff165b6040518060400160405280601a81526020016000805160206147e383398151915281525090610dae5760405162461bcd60e51b8152600401610255919061433e565b50610db98282612108565b508a5160011480610dcb57508a516002145b60405180606001604052806025815260200161484f6025913990610e025760405162461bcd60e51b8152600401610255919061433e565b508215610e9257600c548b516001600160a01b03909116908c906000198101908110610e2a57fe5b60200260200101516001600160a01b0316146040518060400160405280601e81526020017f506f736974696f6e4d616e616765723a20696e76616c6964205f70617468000081525090610e905760405162461bcd60e51b8152600401610255919061433e565b505b6000610eb8338d600081518110610ea557fe5b60200260200101518d8d8d8d308d6125c8565b9050610ec7818d8988886129b4565b50506001805550505050505050505050565b60036020526000908152604090205460ff1681565b600c546001600160a01b031681565b6008546001600160a01b03163314610f275760405162461bcd60e51b815260040161025590614570565b6001600160a01b03821660008181526005602052604090819020805460ff1916841515179055517f8c0d56805c3b43d441481229dc64bee168253ffe4305f37ab7cfe63b1c4268c690610bec908490614333565b600254610100900460ff1681565b6008546001600160a01b03163314610fb35760405162461bcd60e51b815260040161025590614570565b60068190556040517f974fd3c1fcb4653dfc4fb740c4c692cd212d55c28f163f310128cb64d830067590610b51908390614628565b60056020526000908152604090205460ff1681565b60025460ff1681565b600a546001600160a01b031681565b60065481565b6000546001600160a01b031633146110455760405162461bcd60e51b8152600401610255906144b9565b600880546001600160a01b0319166001600160a01b0383161790556040517f5a272403b402d892977df56625f4164ccaf70ca3863991c43ecfe76a6905b0a190610b51908390614047565b6002546201000090046001600160a01b031681565b60046020526000908152604090205460ff1681565b600e6020526000908152604090205481565b60075481565b6008546001600160a01b031633146110fc5760405162461bcd60e51b815260040161025590614570565b6002805460ff19168215151790556040517fb396a770d36909ca07c2b7d7d408f43c9bb74425c5d17caf44336c4f09c4209490610b51908390614333565b6008546001600160a01b031633146111645760405162461bcd60e51b815260040161025590614570565b600280546001600160a01b03909216620100000262010000600160b01b0319909216919091179055565b600260015414156111b15760405162461bcd60e51b8152600401610255906145f1565b60026001553360009081526004602052604090205460ff16806111d6575060025460ff165b6040518060400160405280601a81526020016000805160206147e3833981519152815250906112185760405162461bcd60e51b8152600401610255919061433e565b5060006112258383612108565b9050885160011480611238575088516002145b60405180606001604052806025815260200161484f602591399061126f5760405162461bcd60e51b8152600401610255919061433e565b50600c5489516001600160a01b03909116908a9060009061128c57fe5b60200260200101516001600160a01b0316146040518060400160405280601e81526020017f506f736974696f6e4d616e616765723a20696e76616c6964205f706174680000815250906112f25760405162461bcd60e51b8152600401610255919061433e565b5060006112ff3483612a23565b905080156113a35761131081612a6c565b60018a51111561134557600954600c54611337916001600160a01b03918216911683612ad8565b6113428a8930612b2e565b90505b6000611355338c848d8b8d612ba7565b90506113a1600960009054906101000a90046001600160a01b0316828d60018f51038151811061138157fe5b60200260200101516001600160a01b0316612ad89092919063ffffffff16565b505b6113c8338b60018d5103815181106113b757fe5b60200260200101518b8a8a8a612c80565b5050600180555050505050505050565b33600090815260036020908152604091829020548251808401909352601a83526000805160206147e38339815191529183019190915260ff1661142e5760405162461bcd60e51b8152600401610255919061433e565b506114398282612108565b50600954604080516312d43a5160e01b815290516001600160a01b039092169160009183916312d43a5191600480820192602092909190829003018186803b15801561148457600080fd5b505afa158015611498573d6000803e3d6000fd5b505050506040513d601f19601f820116820180604052508101906114bc919061392e565b600254604051630130197760e11b81529192506000918291829182916201000090046001600160a01b03169063026032ee906114fe908e908e906004016141f7565b6101006040518083038186803b15801561151757600080fd5b505afa15801561152b573d6000803e3d6000fd5b505050506040513d601f19601f8201168201806040525081019061154f9190613bc3565b5050509450945094505093506000816115e357604051637092736960e11b81526001600160a01b0388169063e124e6d29061158e908790600401614047565b60206040518083038186803b1580156115a657600080fd5b505afa1580156115ba573d6000803e3d6000fd5b505050506040513d601f19601f820116820180604052508101906115de9190613f5b565b61165f565b6040516340d3096b60e11b81526001600160a01b038816906381a612d69061160f908790600401614047565b60206040518083038186803b15801561162757600080fd5b505afa15801561163b573d6000803e3d6000fd5b505050506040513d601f19601f8201168201806040525081019061165f9190613f5b565b600a54604051633cc8e33b60e21b81529192506001600160a01b03169063f3238cec9061169d908f908990899088908a908990600090600401614104565b600060405180830381600087803b1580156116b757600080fd5b505af11580156116cb573d6000803e3d6000fd5b50506040516306d63c1d60e41b81526001600160a01b0389169250636d63c1d091506116fb908a90600401614047565b600060405180830381600087803b15801561171557600080fd5b505af1158015611729573d6000803e3d6000fd5b50506002546040516308eca22560e11b8152620100009091046001600160a01b031692506311d9444a9150610a1f908f908f908f90600401614210565b600260015414156117895760405162461bcd60e51b8152600401610255906145f1565b600260015533600090815260056020908152604091829020548251808401909352601a83526000805160206147e38339815191529183019190915260ff166117e45760405162461bcd60e51b8152600401610255919061433e565b506117ef8282612108565b50600954604080516312d43a5160e01b815290516001600160a01b039092169160009183916312d43a5191600480820192602092909190829003018186803b15801561183a57600080fd5b505afa15801561184e573d6000803e3d6000fd5b505050506040513d601f19601f82011682018060405250810190611872919061392e565b600954604051634a3f088d60e01b81529192506000916001600160a01b0390911690634a3f088d906118ae908d908d908d908d906004016140a8565b6101006040518083038186803b1580156118c757600080fd5b505afa1580156118db573d6000803e3d6000fd5b505050506040513d601f19601f820116820180604052508101906118ff9190613f73565b50505050505050905060008761199057604051637092736960e11b81526001600160a01b0385169063e124e6d29061193b908c90600401614047565b60206040518083038186803b15801561195357600080fd5b505afa158015611967573d6000803e3d6000fd5b505050506040513d601f19601f8201168201806040525081019061198b9190613f5b565b611a0c565b6040516340d3096b60e11b81526001600160a01b038516906381a612d6906119bc908c90600401614047565b60206040518083038186803b1580156119d457600080fd5b505afa1580156119e8573d6000803e3d6000fd5b505050506040513d601f19601f82011682018060405250810190611a0c9190613f5b565b600a54604051633cc8e33b60e21b81529192506001600160a01b03169063f3238cec90611a4a908e908e908e908e9089908990600090600401614104565b600060405180830381600087803b158015611a6457600080fd5b505af1158015611a78573d6000803e3d6000fd5b50506040516306d63c1d60e41b81526001600160a01b0386169250636d63c1d09150611aa8908790600401614047565b600060405180830381600087803b158015611ac257600080fd5b505af1158015611ad6573d6000803e3d6000fd5b5050604051631bc5d52960e31b81526001600160a01b038716925063de2ea9489150611b0e908e908e908e908e908e906004016140d2565b600060405180830381600087803b158015611b2857600080fd5b505af1158015611b3c573d6000803e3d6000fd5b505060405163d3c87bbb60e01b81526001600160a01b038616925063d3c87bbb9150611b6c908790600401614047565b600060405180830381600087803b158015611b8657600080fd5b505af1158015611b9a573d6000803e3d6000fd5b50506001805550505050505050505050505050565b6000546001600160a01b03163314611bd95760405162461bcd60e51b8152600401610255906144b9565b600080546001600160a01b0319166001600160a01b0392909216919091179055565b6000546001600160a01b03163314611c255760405162461bcd60e51b8152600401610255906144b9565b60405163095ea7b360e01b81526001600160a01b0384169063095ea7b390611c5390859085906004016141f7565b602060405180830381600087803b158015611c6d57600080fd5b505af1158015611c81573d6000803e3d6000fd5b505050506040513d601f19601f82011682018060405250810190611ca59190613f27565b50505050565b60026001541415611cce5760405162461bcd60e51b8152600401610255906145f1565b60026001553360009081526004602052604090205460ff1680611cf3575060025460ff165b6040518060400160405280601a81526020016000805160206147e383398151915281525090611d355760405162461bcd60e51b8152600401610255919061433e565b50611d408282612108565b50885160011480611d52575088516002145b60405180606001604052806025815260200161484f6025913990611d895760405162461bcd60e51b8152600401610255919061433e565b508615611efc57885160011415611e1d57600b5489516001600160a01b0390911690631b827878908b90600090611dbc57fe5b602002602001015133308b6040518563ffffffff1660e01b8152600401611de6949392919061405b565b600060405180830381600087803b158015611e0057600080fd5b505af1158015611e14573d6000803e3d6000fd5b50505050611ebe565b600b5489516001600160a01b0390911690631b827878908b90600090611e3f57fe5b602002602001015133600960009054906101000a90046001600160a01b03168b6040518563ffffffff1660e01b8152600401611e7e949392919061405b565b600060405180830381600087803b158015611e9857600080fd5b505af1158015611eac573d6000803e3d6000fd5b50505050611ebb898730612b2e565b96505b6000611ece338b8a8c898b612ba7565b9050611efa600960009054906101000a90046001600160a01b0316828c60018e51038151811061138157fe5b505b611f21338a60018c510381518110611f1057fe5b60200260200101518a888888612c80565b50506001805550505050505050565b6008546001600160a01b03163314611f5a5760405162461bcd60e51b815260040161025590614570565b60005b8351811015611ff5576000848281518110611f7457fe5b60200260200101519050838281518110611f8a57fe5b6020026020010151600d6000836001600160a01b03166001600160a01b0316815260200190815260200160002081905550828281518110611fc757fe5b6020908102919091018101516001600160a01b039092166000908152600e9091526040902055600101611f5d565b507fae32d569b058895b9620d6552b09aaffedc9a6f396be4d595a224ad09f8b213983838360405161202993929190614233565b60405180910390a1505050565b6008546001600160a01b031633146120605760405162461bcd60e51b815260040161025590614570565b6001600160a01b0382166000908152600f6020526040902054806120845750610d20565b6001600160a01b0383166000818152600f60205260408120556120a8908383612ad8565b7f4f1b51dd7a2fcb861aa2670f668be66835c4ee12b4bbbf037e4d0018f39819e4838383604051612029939291906141b8565b6008546001600160a01b031681565b600b546001600160a01b031681565b6009546001600160a01b031681565b6000816121175750600061227a565b60105460408051633a0df78d60e11b815290516000926001600160a01b03169163741bef1a916004808301926020929190829003018186803b15801561215c57600080fd5b505afa158015612170573d6000803e3d6000fd5b505050506040513d601f19601f82011682018060405250810190612194919061392e565b60405163d47eed4560e01b81529091506001600160a01b0382169063d47eed45906121c5908790879060040161429e565b60206040518083038186803b1580156121dd57600080fd5b505afa1580156121f1573d6000803e3d6000fd5b505050506040513d601f19601f820116820180604052508101906122159190613f5b565b9150806001600160a01b031663ef9e5e288386866040518463ffffffff1660e01b815260040161224692919061429e565b6000604051808303818588803b15801561225f57600080fd5b505af1158015612273573d6000803e3d6000fd5b5050505050505b92915050565b60008060008060008060028054906101000a90046001600160a01b03166001600160a01b031663d3bab1d189896040518363ffffffff1660e01b81526004016122ca9291906141f7565b6101206040518083038186803b1580156122e357600080fd5b505afa1580156122f7573d6000803e3d6000fd5b505050506040513d601f19601f8201168201806040525081019061231b9190613b28565b505050955095509550955095509550612335838284613035565b600254610100900460ff1661234f57505050505050610d20565b8061235f57505050505050610d20565b6000821161237f5760405162461bcd60e51b815260040161025590614371565b600954604051634a3f088d60e01b81526001600160a01b039091169060009081908390634a3f088d906123bc908e908b908b908a906004016140a8565b6101006040518083038186803b1580156123d557600080fd5b505afa1580156123e9573d6000803e3d6000fd5b505050506040513d601f19601f8201168201806040525081019061240d9190613f73565b50505050505091509150816000141561242e57505050505050505050610d20565b600061243a83876131c5565b90506000846001600160a01b0316630a48d5a98c8c6040518363ffffffff1660e01b815260040161246c9291906141f7565b60206040518083038186803b15801561248457600080fd5b505afa158015612498573d6000803e3d6000fd5b505050506040513d601f19601f820116820180604052508101906124bc9190613f5b565b905060006124ca84836131c5565b905060006124e4856124de886127106131ea565b90613224565b90506000612505836124de60075461271001886131ea90919063ffffffff16565b905081811015610aab5760405162461bcd60e51b815260040161025590614529565b804710156125475760405162461bcd60e51b81526004016102559061443c565b6000826001600160a01b03168260405161256090614044565b60006040518083038185875af1925050503d806000811461259d576040519150601f19603f3d011682016040523d82523d6000602084013e6125a2565b606091505b50509050806125c35760405162461bcd60e51b8152600401610255906143df565b505050565b6009546000906001600160a01b0316818561265e57604051637092736960e11b81526001600160a01b0383169063e124e6d290612609908c90600401614047565b60206040518083038186803b15801561262157600080fd5b505afa158015612635573d6000803e3d6000fd5b505050506040513d601f19601f820116820180604052508101906126599190613f5b565b6126da565b6040516340d3096b60e11b81526001600160a01b038316906381a612d69061268a908c90600401614047565b60206040518083038186803b1580156126a257600080fd5b505afa1580156126b6573d6000803e3d6000fd5b505050506040513d601f19601f820116820180604052508101906126da9190613f5b565b905085156127235783811015604051806060016040528060308152602001614722603091399061271d5760405162461bcd60e51b8152600401610255919061433e565b50612760565b838111156040518060600160405280603181526020016147b2603191399061275e5760405162461bcd60e51b8152600401610255919061433e565b505b6000826001600160a01b03166312d43a516040518163ffffffff1660e01b815260040160206040518083038186803b15801561279b57600080fd5b505afa1580156127af573d6000803e3d6000fd5b505050506040513d601f19601f820116820180604052508101906127d3919061392e565b600a54604051633cc8e33b60e21b81529192506001600160a01b03169063f3238cec90612811908f908f908f908d908f908a90600090600401614104565b600060405180830381600087803b15801561282b57600080fd5b505af115801561283f573d6000803e3d6000fd5b50506040516306d63c1d60e41b81526001600160a01b0384169250636d63c1d0915061286f908690600401614047565b600060405180830381600087803b15801561288957600080fd5b505af115801561289d573d6000803e3d6000fd5b505050506000600b60009054906101000a90046001600160a01b03166001600160a01b0316632662166b8e8e8e8e8e8e8e6040518863ffffffff1660e01b81526004016128f09796959493929190614179565b602060405180830381600087803b15801561290a57600080fd5b505af115801561291e573d6000803e3d6000fd5b505050506040513d601f19601f820116820180604052508101906129429190613f5b565b60405163d3c87bbb60e01b81529091506001600160a01b0383169063d3c87bbb90612971908790600401614047565b600060405180830381600087803b15801561298b57600080fd5b505af115801561299f573d6000803e3d6000fd5b50929f9e505050505050505050505050505050565b8415612a1c576001845111156129f25760095484516129e4916001600160a01b0316908790879060009061138157fe5b6129ef848330612b2e565b94505b8015612a0757612a028584613266565b612a1c565b612a1c83868660018851038151811061138157fe5b5050505050565b6000612a6583836040518060400160405280601e81526020017f536166654d6174683a207375627472616374696f6e206f766572666c6f77000081525061335f565b9392505050565b600c60009054906101000a90046001600160a01b03166001600160a01b031663d0e30db0826040518263ffffffff1660e01b81526004016000604051808303818588803b158015612abc57600080fd5b505af1158015612ad0573d6000803e3d6000fd5b505050505050565b6125c38363a9059cbb60e01b8484604051602401612af79291906141f7565b60408051601f198184030181529190526020810180516001600160e01b03166001600160e01b03199093169290921790915261338b565b6000835160021415612b7557612b6e84600081518110612b4a57fe5b602002602001015185600181518110612b5f57fe5b6020026020010151858561341a565b9050612a65565b6040518060600160405280602981526020016148036029913960405162461bcd60e51b8152600401610255919061433e565b600080612bb88888888888886134ec565b90508015612c71576000612be96127106124de612be2600654612710612a2390919063ffffffff16565b8a906131ea565b90506000612bf78883612a23565b905060008960018b510381518110612c0b57fe5b60200260200101519050612c4d82600f6000846001600160a01b03166001600160a01b03168152602001908152602001600020546131c590919063ffffffff16565b6001600160a01b039091166000908152600f6020526040902055509150612c769050565b859150505b9695505050505050565b6009546001600160a01b0316600083612d14576040516340d3096b60e11b81526001600160a01b038316906381a612d690612cbf908990600401614047565b60206040518083038186803b158015612cd757600080fd5b505afa158015612ceb573d6000803e3d6000fd5b505050506040513d601f19601f82011682018060405250810190612d0f9190613f5b565b612d90565b604051637092736960e11b81526001600160a01b0383169063e124e6d290612d40908990600401614047565b60206040518083038186803b158015612d5857600080fd5b505afa158015612d6c573d6000803e3d6000fd5b505050506040513d601f19601f82011682018060405250810190612d909190613f5b565b90508315612dd957828111156040518060600160405280603181526020016147b26031913990612dd35760405162461bcd60e51b8152600401610255919061433e565b50612e16565b828110156040518060600160405280603081526020016147226030913990612e145760405162461bcd60e51b8152600401610255919061433e565b505b612e21868587613035565b6000826001600160a01b03166312d43a516040518163ffffffff1660e01b815260040160206040518083038186803b158015612e5c57600080fd5b505afa158015612e70573d6000803e3d6000fd5b505050506040513d601f19601f82011682018060405250810190612e94919061392e565b600a54604051633cc8e33b60e21b81529192506001600160a01b03169063f3238cec90612ed2908c908c908c908b908d908a90600190600401614104565b600060405180830381600087803b158015612eec57600080fd5b505af1158015612f00573d6000803e3d6000fd5b50506040516306d63c1d60e41b81526001600160a01b0384169250636d63c1d09150612f30908690600401614047565b600060405180830381600087803b158015612f4a57600080fd5b505af1158015612f5e573d6000803e3d6000fd5b5050600b54604051630f8ee8bb60e11b81526001600160a01b039091169250631f1dd1769150612f9a908c908c908c908c908c90600401614145565b600060405180830381600087803b158015612fb457600080fd5b505af1158015612fc8573d6000803e3d6000fd5b505060405163d3c87bbb60e01b81526001600160a01b038416925063d3c87bbb9150612ff8908690600401614047565b600060405180830381600087803b15801561301257600080fd5b505af1158015613026573d6000803e3d6000fd5b50505050505050505050505050565b8061303f576125c3565b8115613133576001600160a01b0383166000908152600d602052604090205480158015906130f6575060095460405163783a2b6760e11b815282916130f49185916001600160a01b03169063f07456ce9061309e908a90600401614047565b60206040518083038186803b1580156130b657600080fd5b505afa1580156130ca573d6000803e3d6000fd5b505050506040513d601f19601f820116820180604052508101906130ee9190613f5b565b906131c5565b115b1561312d576040518060600160405280602e81526020016146c9602e913960405162461bcd60e51b8152600401610255919061433e565b506125c3565b6001600160a01b0383166000908152600e6020526040902054801580159061318e575060095460405163114f1b5560e31b8152829161318c9185916001600160a01b031690638a78daa89061309e908a90600401614047565b115b15611ca5576040518060600160405280602f8152602001614752602f913960405162461bcd60e51b8152600401610255919061433e565b600082820183811015612a655760405162461bcd60e51b8152600401610255906143a8565b6000826131f95750600061227a565b8282028284828161320657fe5b0414612a655760405162461bcd60e51b8152600401610255906144e8565b6000612a6583836040518060400160405280601a81526020017f536166654d6174683a206469766973696f6e206279207a65726f0000000000008152506136bc565b600c54604051632e1a7d4d60e01b81526001600160a01b0390911690632e1a7d4d90613296908590600401614628565b600060405180830381600087803b1580156132b057600080fd5b505af11580156132c4573d6000803e3d6000fd5b505050506000816001600160a01b0316836040516132e190614044565b60006040518083038185875af1925050503d806000811461331e576040519150601f19603f3d011682016040523d82523d6000602084013e613323565b606091505b50509050806040518060600160405280603181526020016147816031913990611ca55760405162461bcd60e51b8152600401610255919061433e565b600081848411156133835760405162461bcd60e51b8152600401610255919061433e565b505050900390565b60606133e0826040518060400160405280602081526020017f5361666545524332303a206c6f772d6c6576656c2063616c6c206661696c6564815250856001600160a01b03166136f39092919063ffffffff16565b8051909150156125c357808060200190518101906133fe9190613f27565b6125c35760405162461bcd60e51b8152600401610255906145a7565b600954604051634998b10960e11b815260009182916001600160a01b039091169063933162129061345390899089908890600401614085565b602060405180830381600087803b15801561346d57600080fd5b505af1158015613481573d6000803e3d6000fd5b505050506040513d601f19601f820116820180604052508101906134a59190613f5b565b9050838110156040518060600160405280602b81526020016146f7602b9139906134e25760405162461bcd60e51b8152600401610255919061433e565b5095945050505050565b6000826134fb57506000612c76565b8161350857506001612c76565b60008660018851038151811061351a57fe5b6020908102919091010151600954604051634a3f088d60e01b81529192506001600160a01b03169060009081908390634a3f088d90613563908e9088908d908d906004016140a8565b6101006040518083038186803b15801561357c57600080fd5b505afa158015613590573d6000803e3d6000fd5b505050506040513d601f19601f820116820180604052508101906135b49190613f73565b5050505050509150915081600014156135d4576000945050505050612c76565b60006135e083886131c5565b90506000846001600160a01b0316630a48d5a9878d6040518363ffffffff1660e01b81526004016136129291906141f7565b60206040518083038186803b15801561362a57600080fd5b505afa15801561363e573d6000803e3d6000fd5b505050506040513d601f19601f820116820180604052508101906136629190613f5b565b9050600061367084836131c5565b90506000613684856124de886127106131ea565b905060006136a5836124de60075461271001886131ea90919063ffffffff16565b919091109f9e505050505050505050505050505050565b600081836136dd5760405162461bcd60e51b8152600401610255919061433e565b5060008385816136e957fe5b0495945050505050565b6060613702848460008561370a565b949350505050565b60608247101561372c5760405162461bcd60e51b815260040161025590614473565b60006060866001600160a01b031685876040516137499190614028565b60006040518083038185875af1925050503d8060008114613786576040519150601f19603f3d011682016040523d82523d6000602084013e61378b565b606091505b509150915061379b8282866137a6565b979650505050505050565b606083156137b5575081612a65565b8251156137c55782518084602001fd5b8160405162461bcd60e51b8152600401610255919061433e565b803561227a816146a2565b600082601f8301126137fa578081fd5b813561380d61380882614657565b614631565b81815291506020808301908481018184028601820187101561382e57600080fd5b60005b84811015613856578135613844816146a2565b84529282019290820190600101613831565b505050505092915050565b60008083601f840112613872578182fd5b5081356001600160401b03811115613888578182fd5b60208301915083602080830285010111156138a257600080fd5b9250929050565b600082601f8301126138b9578081fd5b81356138c761380882614657565b8181529150602080830190848101818402860182018710156138e857600080fd5b60005b84811015613856578135845292820192908201906001016138eb565b803561227a816146ba565b600060208284031215613923578081fd5b8135612a65816146a2565b60006020828403121561393f578081fd5b8151612a65816146a2565b6000806040838503121561395c578081fd5b8235613967816146a2565b946020939093013593505050565b60008060408385031215613987578182fd5b8235613992816146a2565b915060208301356139a2816146a2565b809150509250929050565b600080600080600080600060c0888a0312156139c7578283fd5b87356139d2816146a2565b965060208801356139e2816146a2565b955060408801356139f2816146a2565b94506060880135613a02816146ba565b93506080880135613a12816146a2565b925060a08801356001600160401b03811115613a2c578283fd5b613a388a828b01613861565b989b979a50959850939692959293505050565b600080600060608486031215613a5f578283fd5b8335613a6a816146a2565b92506020840135613a7a816146a2565b929592945050506040919091013590565b60008060408385031215613a9d578182fd5b8235613aa8816146a2565b915060208301356139a2816146ba565b600080600080600060808688031215613acf578081fd5b8535613ada816146a2565b9450602086013593506040860135613af1816146a2565b925060608601356001600160401b03811115613b0b578182fd5b613b1788828901613861565b969995985093965092949392505050565b60008060008060008060008060006101208a8c031215613b46578182fd5b8951613b51816146a2565b60208b015160408c0151919a509850613b69816146a2565b60608b0151909750613b7a816146a2565b60808b015160a08c01519197509550613b92816146ba565b60c08b015160e08c01519195509350613baa816146ba565b809250506101008a015190509295985092959850929598565b600080600080600080600080610100898b031215613bdf578182fd5b8851613bea816146a2565b60208a015160408b01519199509750613c02816146a2565b60608a015160808b01519197509550613c1a816146ba565b60a08a015160c08b01519195509350613c32816146ba565b8092505060e089015190509295985092959890939650565b60008060008060008060008060008060006101408c8e031215613c6b578485fd5b6001600160401b03808d351115613c80578586fd5b613c8d8e8e358f016137ea565b9b50613c9c8e60208f016137df565b9a5060408d0135995060608d01359850613cb98e60808f01613907565b9750613cc88e60a08f016137df565b965060c08d0135955060e08d01359450613ce68e6101008f01613907565b9350806101208e01351115613cf9578283fd5b50613d0b8d6101208e01358e01613861565b81935080925050509295989b509295989b9093969950565b60008060008060008060008060e0898b031215613d3e578182fd5b88356001600160401b0380821115613d54578384fd5b613d608c838d016137ea565b995060208b01359150613d72826146a2565b90975060408a0135965060608a0135955060808a013590613d92826146ba565b90945060a08a0135935060c08a01359080821115613dae578384fd5b50613dbb8b828c01613861565b999c989b5096995094979396929594505050565b60008060008060008060008060006101008a8c031215613ded578283fd5b89356001600160401b0380821115613e03578485fd5b613e0f8d838e016137ea565b9a5060208c01359150613e21826146a2565b90985060408b0135975060608b0135965060808b0135955060a08b013590613e48826146ba565b90945060c08b0135935060e08b01359080821115613e64578384fd5b50613e718c828d01613861565b915080935050809150509295985092959850929598565b600080600060608486031215613e9c578081fd5b83356001600160401b0380821115613eb2578283fd5b613ebe878388016137ea565b94506020860135915080821115613ed3578283fd5b613edf878388016138a9565b93506040860135915080821115613ef4578283fd5b50613f01868287016138a9565b9150509250925092565b600060208284031215613f1c578081fd5b8135612a65816146ba565b600060208284031215613f38578081fd5b8151612a65816146ba565b600060208284031215613f54578081fd5b5035919050565b600060208284031215613f6c578081fd5b5051919050565b600080600080600080600080610100898b031215613f8f578182fd5b885197506020890151965060408901519550606089015194506080890151935060a0890151925060c0890151613c32816146ba565b6000815180845260208085019450808401835b83811015613ff357815187529582019590820190600101613fd7565b509495945050505050565b60008284528282602086013780602084860101526020601f19601f85011685010190509392505050565b6000825161403a818460208701614676565b9190910192915050565b90565b6001600160a01b0391909116815260200190565b6001600160a01b039485168152928416602084015292166040820152606081019190915260800190565b6001600160a01b0393841681529183166020830152909116604082015260600190565b6001600160a01b039485168152928416602084015292166040820152901515606082015260800190565b6001600160a01b0395861681529385166020850152918416604084015215156060830152909116608082015260a00190565b6001600160a01b03978816815295871660208701529390951660408501529015156060840152608083015260a082019290925290151560c082015260e00190565b6001600160a01b03958616815293851660208501529190931660408301526060820192909252901515608082015260a00190565b6001600160a01b0397881681529587166020870152938616604086015260608501929092526080840152151560a083015290911660c082015260e00190565b6001600160a01b039384168152919092166020820152604081019190915260600190565b6001600160a01b039290921682521515602082015260400190565b6001600160a01b03929092168252602082015260400190565b6001600160a01b0393841681526020810192909252909116604082015260600190565b606080825284519082018190526000906020906080840190828801845b828110156142755781516001600160a01b031684529284019290840190600101614250565b505050838103828501526142898187613fc4565b9150508281036040840152612c768185613fc4565b602080825281810183905260009060408482028401810190840186845b8781101561432657868403603f190183528135368a9003601e190181126142e0578687fd5b890180356001600160401b038111156142f7578788fd5b8036038b1315614305578788fd5b6143128682898501613ffe565b9550505091840191908401906001016142bb565b5091979650505050505050565b901515815260200190565b600060208252825180602084015261435d816040850160208701614676565b601f01601f19169190910160400192915050565b6020808252601d908201527f506f736974696f6e4d616e616765723a206c6f6e67206465706f736974000000604082015260600190565b6020808252601b908201527f536166654d6174683a206164646974696f6e206f766572666c6f770000000000604082015260600190565b6020808252603a908201527f416464726573733a20756e61626c6520746f2073656e642076616c75652c207260408201527f6563697069656e74206d61792068617665207265766572746564000000000000606082015260800190565b6020808252601d908201527f416464726573733a20696e73756666696369656e742062616c616e6365000000604082015260600190565b60208082526026908201527f416464726573733a20696e73756666696369656e742062616c616e636520666f6040820152651c8818d85b1b60d21b606082015260800190565b60208082526015908201527423b7bb32b93730b136329d103337b93134b23232b760591b604082015260600190565b60208082526021908201527f536166654d6174683a206d756c7469706c69636174696f6e206f766572666c6f6040820152607760f81b606082015260800190565b60208082526027908201527f506f736974696f6e4d616e616765723a206c6f6e67206c6576657261676520646040820152666563726561736560c81b606082015260800190565b6020808252601e908201527f42617365506f736974696f6e4d616e616765723a20666f7262696464656e0000604082015260600190565b6020808252602a908201527f5361666545524332303a204552433230206f7065726174696f6e20646964206e6040820152691bdd081cdd58d8d9595960b21b606082015260800190565b6020808252601f908201527f5265656e7472616e637947756172643a207265656e7472616e742063616c6c00604082015260600190565b90815260200190565b6040518181016001600160401b038111828210171561464f57600080fd5b604052919050565b60006001600160401b0382111561466c578081fd5b5060209081020190565b60005b83811015614691578181015183820152602001614679565b83811115611ca55750506000910152565b6001600160a01b03811681146146b757600080fd5b50565b80151581146146b757600080fdfe42617365506f736974696f6e4d616e616765723a206d617820676c6f62616c206c6f6e677320657863656564656442617365506f736974696f6e4d616e616765723a20696e73756666696369656e7420616d6f756e744f757442617365506f736974696f6e4d616e616765723a206d61726b207072696365206c6f776572207468616e206c696d697442617365506f736974696f6e4d616e616765723a206d617820676c6f62616c2073686f72747320657863656564656442617365506f736974696f6e4d616e616765723a206661696c656420746f207472616e73666572206f757420657468657242617365506f736974696f6e4d616e616765723a206d61726b20707269636520686967686572207468616e206c696d6974506f736974696f6e4d616e616765723a20666f7262696464656e00000000000042617365506f736974696f6e4d616e616765723a20696e76616c6964205f706174682e6c656e67746842617365506f736974696f6e4d616e616765723a20696e76616c69642073656e646572506f736974696f6e4d616e616765723a20696e76616c6964205f706174682e6c656e677468a2646970667358221220a4fc8b23c0a4382c167af496ee18647b36711447e7deea0bf5888c7d0e76604b64736f6c634300060c0033",
  "devdoc": {
    "kind": "dev",
    "methods": {},
    "version": 1
  },
  "userdoc": {
    "kind": "user",
    "methods": {},
    "version": 1
  },
  "storageLayout": {
    "storage": [
      {
        "astId": 3,
        "contract": "contracts/core/PositionManager.sol:PositionManager",
        "label": "gov",
        "offset": 0,
        "slot": "0",
        "type": "t_address"
      },
      {
        "astId": 15251,
        "contract": "contracts/core/PositionManager.sol:PositionManager",
        "label": "_status",
        "offset": 0,
        "slot": "1",
        "type": "t_uint256"
      },
      {
        "astId": 12032,
        "contract": "contracts/core/PositionManager.sol:PositionManager",
        "label": "opened",
        "offset": 0,
        "slot": "2",
        "type": "t_bool"
      },
      {
        "astId": 12035,
        "contract": "contracts/core/PositionManager.sol:PositionManager",
        "label": "shouldValidateIncreaseOrder",
        "offset": 1,
        "slot": "2",
        "type": "t_bool"
      },
      {
        "astId": 12037,
        "contract": "contracts/core/PositionManager.sol:PositionManager",
        "label": "orderBook",
        "offset": 2,
        "slot": "2",
        "type": "t_address"
      },
      {
        "astId": 12041,
        "contract": "contracts/core/PositionManager.sol:PositionManager",
        "label": "isOrderKeeper",
        "offset": 0,
        "slot": "3",
        "type": "t_mapping(t_address,t_bool)"
      },
      {
        "astId": 12045,
        "contract": "contracts/core/PositionManager.sol:PositionManager",
        "label": "isPartner",
        "offset": 0,
        "slot": "4",
        "type": "t_mapping(t_address,t_bool)"
      },
      {
        "astId": 12049,
        "contract": "contracts/core/PositionManager.sol:PositionManager",
        "label": "isLiquidator",
        "offset": 0,
        "slot": "5",
        "type": "t_mapping(t_address,t_bool)"
      },
      {
        "astId": 11844,
        "contract": "contracts/core/PositionManager.sol:PositionManager",
        "label": "depositFee",
        "offset": 0,
        "slot": "6",
        "type": "t_uint256"
      },
      {
        "astId": 11847,
        "contract": "contracts/core/PositionManager.sol:PositionManager",
        "label": "increasePositionBufferBps",
        "offset": 0,
        "slot": "7",
        "type": "t_uint256"
      },
      {
        "astId": 11849,
        "contract": "contracts/core/PositionManager.sol:PositionManager",
        "label": "admin",
        "offset": 0,
        "slot": "8",
        "type": "t_address"
      },
      {
        "astId": 11851,
        "contract": "contracts/core/PositionManager.sol:PositionManager",
        "label": "vault",
        "offset": 0,
        "slot": "9",
        "type": "t_address"
      },
      {
        "astId": 11853,
        "contract": "contracts/core/PositionManager.sol:PositionManager",
        "label": "shortsTracker",
        "offset": 0,
        "slot": "10",
        "type": "t_address"
      },
      {
        "astId": 11855,
        "contract": "contracts/core/PositionManager.sol:PositionManager",
        "label": "router",
        "offset": 0,
        "slot": "11",
        "type": "t_address"
      },
      {
        "astId": 11857,
        "contract": "contracts/core/PositionManager.sol:PositionManager",
        "label": "weth",
        "offset": 0,
        "slot": "12",
        "type": "t_address"
      },
      {
        "astId": 11862,
        "contract": "contracts/core/PositionManager.sol:PositionManager",
        "label": "maxGlobalLongSizes",
        "offset": 0,
        "slot": "13",
        "type": "t_mapping(t_address,t_uint256)"
      },
      {
        "astId": 11867,
        "contract": "contracts/core/PositionManager.sol:PositionManager",
        "label": "maxGlobalShortSizes",
        "offset": 0,
        "slot": "14",
        "type": "t_mapping(t_address,t_uint256)"
      },
      {
        "astId": 11871,
        "contract": "contracts/core/PositionManager.sol:PositionManager",
        "label": "feeReserves",
        "offset": 0,
        "slot": "15",
        "type": "t_mapping(t_address,t_uint256)"
      },
      {
        "astId": 176,
        "contract": "contracts/core/PositionManager.sol:PositionManager",
        "label": "_IVault",
        "offset": 0,
        "slot": "16",
        "type": "t_contract(IVault)7393"
      }
    ],
    "types": {
      "t_address": {
        "encoding": "inplace",
        "label": "address",
        "numberOfBytes": "20"
      },
      "t_bool": {
        "encoding": "inplace",
        "label": "bool",
        "numberOfBytes": "1"
      },
      "t_contract(IVault)7393": {
        "encoding": "inplace",
        "label": "contract IVault",
        "numberOfBytes": "20"
      },
      "t_mapping(t_address,t_bool)": {
        "encoding": "mapping",
        "key": "t_address",
        "label": "mapping(address => bool)",
        "numberOfBytes": "32",
        "value": "t_bool"
      },
      "t_mapping(t_address,t_uint256)": {
        "encoding": "mapping",
        "key": "t_address",
        "label": "mapping(address => uint256)",
        "numberOfBytes": "32",
        "value": "t_uint256"
      },
      "t_uint256": {
        "encoding": "inplace",
        "label": "uint256",
        "numberOfBytes": "32"
      }
    }
  }
}