{
  "address": "0xab93d353c96066fa389cc3eAf16f23ea719081Db",
  "abi": [
    {
      "inputs": [],
      "name": "gov",
      "outputs": [
        {
          "internalType": "address",
          "name": "",
          "type": "address"
        }
      ],
      "stateMutability": "view",
      "type": "function"
    },
    {
      "inputs": [
        {
          "internalType": "contract IVault",
          "name": "_vault",
          "type": "address"
        },
        {
          "internalType": "string[]",
          "name": "_errors",
          "type": "string[]"
        }
      ],
      "name": "setErrors",
      "outputs": [],
      "stateMutability": "nonpayable",
      "type": "function"
    },
    {
      "inputs": [
        {
          "internalType": "address",
          "name": "_gov",
          "type": "address"
        }
      ],
      "name": "setGov",
      "outputs": [],
      "stateMutability": "nonpayable",
      "type": "function"
    }
  ],
  "transactionHash": "0x5cddc759c97d6858eac7ddf9853aeffaab4bd7d9d441b3d2f3e99101f9c1fa21",
  "args": [],
  "numDeployments": 1,
  "solcInputHash": "37ac44f49d18bdad205cbe889714e32d",
  "bytecode": "0x608060405234801561001057600080fd5b50600080546001600160a01b0319163317905561036d806100326000396000f3fe608060405234801561001057600080fd5b50600436106100415760003560e01c806312d43a51146100465780636216c01b14610064578063cfad57a214610079575b600080fd5b61004e61008c565b60405161005b919061025a565b60405180910390f35b6100776100723660046101d8565b61009b565b005b6100776100873660046101b5565b610169565b6000546001600160a01b031681565b6000546001600160a01b031633146100ce5760405162461bcd60e51b81526004016100c59061026e565b60405180910390fd5b60005b8181101561016357836001600160a01b03166328e67be5828585858181106100f557fe5b905060200281019061010791906102d3565b6040518463ffffffff1660e01b81526004016101259392919061029d565b600060405180830381600087803b15801561013f57600080fd5b505af1158015610153573d6000803e3d6000fd5b5050600190920191506100d19050565b50505050565b6000546001600160a01b031633146101935760405162461bcd60e51b81526004016100c59061026e565b600080546001600160a01b0319166001600160a01b0392909216919091179055565b6000602082840312156101c6578081fd5b81356101d18161031f565b9392505050565b6000806000604084860312156101ec578182fd5b83356101f78161031f565b9250602084013567ffffffffffffffff80821115610213578384fd5b818601915086601f830112610226578384fd5b813581811115610234578485fd5b8760208083028501011115610247578485fd5b6020830194508093505050509250925092565b6001600160a01b0391909116815260200190565b60208082526015908201527423b7bb32b93730b136329d103337b93134b23232b760591b604082015260600190565b60008482526040602083015282604083015282846060840137818301606090810191909152601f909201601f1916010192915050565b6000808335601e198436030181126102e9578283fd5b83018035915067ffffffffffffffff821115610303578283fd5b60200191503681900382131561031857600080fd5b9250929050565b6001600160a01b038116811461033457600080fd5b5056fea264697066735822122028e0b0307722e5a206b017c65381b42585077da30a1ce7b07342e03f047248dc64736f6c634300060c0033",
  "devdoc": {
    "kind": "dev",
    "methods": {},
    "version": 1
  },
  "userdoc": {
    "kind": "user",
    "methods": {},
    "version": 1
  },
  "storageLayout": {
    "storage": [
      {
        "astId": 3,
        "contract": "contracts/core/VaultErrorController.sol:VaultErrorController",
        "label": "gov",
        "offset": 0,
        "slot": "0",
        "type": "t_address"
      }
    ],
    "types": {
      "t_address": {
        "encoding": "inplace",
        "label": "address",
        "numberOfBytes": "20"
      }
    }
  }
}