{
  "address": "0x932C1B63aeda657ec4f30447aF37D27aBDaC7F69",
  "abi": [
    {
      "inputs": [],
      "stateMutability": "nonpayable",
      "type": "constructor"
    },
    {
      "inputs": [
        {
          "internalType": "address",
          "name": "_router",
          "type": "address"
        }
      ],
      "name": "addRouter",
      "outputs": [],
      "stateMutability": "nonpayable",
      "type": "function"
    },
    {
      "inputs": [
        {
          "internalType": "uint256",
          "name": "_amount",
          "type": "uint256"
        },
        {
          "internalType": "address",
          "name": "_tokenDiv",
          "type": "address"
        },
        {
          "internalType": "address",
          "name": "_tokenMul",
          "type": "address"
        }
      ],
      "name": "adjustForDecimals",
      "outputs": [
        {
          "internalType": "uint256",
          "name": "",
          "type": "uint256"
        }
      ],
      "stateMutability": "view",
      "type": "function"
    },
    {
      "inputs": [
        {
          "internalType": "uint256",
          "name": "",
          "type": "uint256"
        }
      ],
      "name": "allWhitelistedTokens",
      "outputs": [
        {
          "internalType": "address",
          "name": "",
          "type": "address"
        }
      ],
      "stateMutability": "view",
      "type": "function"
    },
    {
      "inputs": [],
      "name": "allWhitelistedTokensLength",
      "outputs": [
        {
          "internalType": "uint256",
          "name": "",
          "type": "uint256"
        }
      ],
      "stateMutability": "view",
      "type": "function"
    },
    {
      "inputs": [],
      "name": "allowStaleEquityPrice",
      "outputs": [
        {
          "internalType": "bool",
          "name": "",
          "type": "bool"
        }
      ],
      "stateMutability": "view",
      "type": "function"
    },
    {
      "inputs": [
        {
          "internalType": "address",
          "name": "",
          "type": "address"
        },
        {
          "internalType": "address",
          "name": "",
          "type": "address"
        }
      ],
      "name": "approvedRouters",
      "outputs": [
        {
          "internalType": "bool",
          "name": "",
          "type": "bool"
        }
      ],
      "stateMutability": "view",
      "type": "function"
    },
    {
      "inputs": [
        {
          "internalType": "address",
          "name": "",
          "type": "address"
        }
      ],
      "name": "bufferAmounts",
      "outputs": [
        {
          "internalType": "uint256",
          "name": "",
          "type": "uint256"
        }
      ],
      "stateMutability": "view",
      "type": "function"
    },
    {
      "inputs": [
        {
          "internalType": "address",
          "name": "_token",
          "type": "address"
        },
        {
          "internalType": "address",
          "name": "_receiver",
          "type": "address"
        }
      ],
      "name": "buyZKUSD",
      "outputs": [
        {
          "internalType": "uint256",
          "name": "",
          "type": "uint256"
        }
      ],
      "stateMutability": "nonpayable",
      "type": "function"
    },
    {
      "inputs": [
        {
          "internalType": "address",
          "name": "_token",
          "type": "address"
        }
      ],
      "name": "clearTokenConfig",
      "outputs": [],
      "stateMutability": "nonpayable",
      "type": "function"
    },
    {
      "inputs": [
        {
          "internalType": "address",
          "name": "",
          "type": "address"
        }
      ],
      "name": "cumulativeFundingRates",
      "outputs": [
        {
          "internalType": "uint256",
          "name": "",
          "type": "uint256"
        }
      ],
      "stateMutability": "view",
      "type": "function"
    },
    {
      "inputs": [
        {
          "internalType": "address",
          "name": "_account",
          "type": "address"
        },
        {
          "internalType": "address",
          "name": "_collateralToken",
          "type": "address"
        },
        {
          "internalType": "address",
          "name": "_indexToken",
          "type": "address"
        },
        {
          "internalType": "uint256",
          "name": "_collateralDelta",
          "type": "uint256"
        },
        {
          "internalType": "uint256",
          "name": "_sizeDelta",
          "type": "uint256"
        },
        {
          "internalType": "bool",
          "name": "_isLong",
          "type": "bool"
        },
        {
          "internalType": "address",
          "name": "_receiver",
          "type": "address"
        }
      ],
      "name": "decreasePosition",
      "outputs": [
        {
          "internalType": "uint256",
          "name": "",
          "type": "uint256"
        }
      ],
      "stateMutability": "nonpayable",
      "type": "function"
    },
    {
      "inputs": [
        {
          "internalType": "address",
          "name": "_token",
          "type": "address"
        }
      ],
      "name": "directPoolDeposit",
      "outputs": [],
      "stateMutability": "nonpayable",
      "type": "function"
    },
    {
      "inputs": [
        {
          "internalType": "address",
          "name": "",
          "type": "address"
        }
      ],
      "name": "equityTokens",
      "outputs": [
        {
          "internalType": "bool",
          "name": "",
          "type": "bool"
        }
      ],
      "stateMutability": "view",
      "type": "function"
    },
    {
      "inputs": [],
      "name": "errorController",
      "outputs": [
        {
          "internalType": "address",
          "name": "",
          "type": "address"
        }
      ],
      "stateMutability": "view",
      "type": "function"
    },
    {
      "inputs": [
        {
          "internalType": "uint256",
          "name": "",
          "type": "uint256"
        }
      ],
      "name": "errors",
      "outputs": [
        {
          "internalType": "string",
          "name": "",
          "type": "string"
        }
      ],
      "stateMutability": "view",
      "type": "function"
    },
    {
      "inputs": [
        {
          "internalType": "address",
          "name": "",
          "type": "address"
        }
      ],
      "name": "feeReserves",
      "outputs": [
        {
          "internalType": "uint256",
          "name": "",
          "type": "uint256"
        }
      ],
      "stateMutability": "view",
      "type": "function"
    },
    {
      "inputs": [],
      "name": "fundingInterval",
      "outputs": [
        {
          "internalType": "uint256",
          "name": "",
          "type": "uint256"
        }
      ],
      "stateMutability": "view",
      "type": "function"
    },
    {
      "inputs": [],
      "name": "fundingRateFactor",
      "outputs": [
        {
          "internalType": "uint256",
          "name": "",
          "type": "uint256"
        }
      ],
      "stateMutability": "view",
      "type": "function"
    },
    {
      "inputs": [
        {
          "internalType": "address",
          "name": "_indexToken",
          "type": "address"
        },
        {
          "internalType": "uint256",
          "name": "_size",
          "type": "uint256"
        },
        {
          "internalType": "uint256",
          "name": "_averagePrice",
          "type": "uint256"
        },
        {
          "internalType": "bool",
          "name": "_isLong",
          "type": "bool"
        },
        {
          "internalType": "uint256",
          "name": "_lastIncreasedTime",
          "type": "uint256"
        }
      ],
      "name": "getDelta",
      "outputs": [
        {
          "internalType": "bool",
          "name": "",
          "type": "bool"
        },
        {
          "internalType": "uint256",
          "name": "",
          "type": "uint256"
        }
      ],
      "stateMutability": "view",
      "type": "function"
    },
    {
      "inputs": [
        {
          "internalType": "address",
          "name": "_collateralToken",
          "type": "address"
        },
        {
          "internalType": "address",
          "name": "_indexToken",
          "type": "address"
        },
        {
          "internalType": "bool",
          "name": "_isLong",
          "type": "bool"
        }
      ],
      "name": "getEntryFundingRate",
      "outputs": [
        {
          "internalType": "uint256",
          "name": "",
          "type": "uint256"
        }
      ],
      "stateMutability": "view",
      "type": "function"
    },
    {
      "inputs": [
        {
          "internalType": "address",
          "name": "_token",
          "type": "address"
        },
        {
          "internalType": "uint256",
          "name": "_zkusdDelta",
          "type": "uint256"
        },
        {
          "internalType": "uint256",
          "name": "_feeBasisPoints",
          "type": "uint256"
        },
        {
          "internalType": "uint256",
          "name": "_taxBasisPoints",
          "type": "uint256"
        },
        {
          "internalType": "bool",
          "name": "_increment",
          "type": "bool"
        }
      ],
      "name": "getFeeBasisPoints",
      "outputs": [
        {
          "internalType": "uint256",
          "name": "",
          "type": "uint256"
        }
      ],
      "stateMutability": "view",
      "type": "function"
    },
    {
      "inputs": [
        {
          "internalType": "address",
          "name": "_account",
          "type": "address"
        },
        {
          "internalType": "address",
          "name": "_collateralToken",
          "type": "address"
        },
        {
          "internalType": "address",
          "name": "_indexToken",
          "type": "address"
        },
        {
          "internalType": "bool",
          "name": "_isLong",
          "type": "bool"
        },
        {
          "internalType": "uint256",
          "name": "_size",
          "type": "uint256"
        },
        {
          "internalType": "uint256",
          "name": "_entryFundingRate",
          "type": "uint256"
        }
      ],
      "name": "getFundingFee",
      "outputs": [
        {
          "internalType": "uint256",
          "name": "",
          "type": "uint256"
        }
      ],
      "stateMutability": "view",
      "type": "function"
    },
    {
      "inputs": [
        {
          "internalType": "address",
          "name": "_token",
          "type": "address"
        }
      ],
      "name": "getMaxPrice",
      "outputs": [
        {
          "internalType": "uint256",
          "name": "",
          "type": "uint256"
        }
      ],
      "stateMutability": "view",
      "type": "function"
    },
    {
      "inputs": [
        {
          "internalType": "address",
          "name": "_token",
          "type": "address"
        }
      ],
      "name": "getMinPrice",
      "outputs": [
        {
          "internalType": "uint256",
          "name": "",
          "type": "uint256"
        }
      ],
      "stateMutability": "view",
      "type": "function"
    },
    {
      "inputs": [
        {
          "internalType": "address",
          "name": "_indexToken",
          "type": "address"
        },
        {
          "internalType": "uint256",
          "name": "_size",
          "type": "uint256"
        },
        {
          "internalType": "uint256",
          "name": "_averagePrice",
          "type": "uint256"
        },
        {
          "internalType": "bool",
          "name": "_isLong",
          "type": "bool"
        },
        {
          "internalType": "uint256",
          "name": "_nextPrice",
          "type": "uint256"
        },
        {
          "internalType": "uint256",
          "name": "_sizeDelta",
          "type": "uint256"
        },
        {
          "internalType": "uint256",
          "name": "_lastIncreasedTime",
          "type": "uint256"
        }
      ],
      "name": "getNextAveragePrice",
      "outputs": [
        {
          "internalType": "uint256",
          "name": "",
          "type": "uint256"
        }
      ],
      "stateMutability": "view",
      "type": "function"
    },
    {
      "inputs": [
        {
          "internalType": "address",
          "name": "_token",
          "type": "address"
        }
      ],
      "name": "getNextFundingRate",
      "outputs": [
        {
          "internalType": "uint256",
          "name": "",
          "type": "uint256"
        }
      ],
      "stateMutability": "view",
      "type": "function"
    },
    {
      "inputs": [
        {
          "internalType": "address",
          "name": "_indexToken",
          "type": "address"
        },
        {
          "internalType": "uint256",
          "name": "_nextPrice",
          "type": "uint256"
        },
        {
          "internalType": "uint256",
          "name": "_sizeDelta",
          "type": "uint256"
        }
      ],
      "name": "getNextGlobalShortAveragePrice",
      "outputs": [
        {
          "internalType": "uint256",
          "name": "",
          "type": "uint256"
        }
      ],
      "stateMutability": "view",
      "type": "function"
    },
    {
      "inputs": [
        {
          "internalType": "address",
          "name": "_account",
          "type": "address"
        },
        {
          "internalType": "address",
          "name": "_collateralToken",
          "type": "address"
        },
        {
          "internalType": "address",
          "name": "_indexToken",
          "type": "address"
        },
        {
          "internalType": "bool",
          "name": "_isLong",
          "type": "bool"
        }
      ],
      "name": "getPosition",
      "outputs": [
        {
          "internalType": "uint256",
          "name": "",
          "type": "uint256"
        },
        {
          "internalType": "uint256",
          "name": "",
          "type": "uint256"
        },
        {
          "internalType": "uint256",
          "name": "",
          "type": "uint256"
        },
        {
          "internalType": "uint256",
          "name": "",
          "type": "uint256"
        },
        {
          "internalType": "uint256",
          "name": "",
          "type": "uint256"
        },
        {
          "internalType": "uint256",
          "name": "",
          "type": "uint256"
        },
        {
          "internalType": "bool",
          "name": "",
          "type": "bool"
        },
        {
          "internalType": "uint256",
          "name": "",
          "type": "uint256"
        }
      ],
      "stateMutability": "view",
      "type": "function"
    },
    {
      "inputs": [
        {
          "internalType": "address",
          "name": "_account",
          "type": "address"
        },
        {
          "internalType": "address",
          "name": "_collateralToken",
          "type": "address"
        },
        {
          "internalType": "address",
          "name": "_indexToken",
          "type": "address"
        },
        {
          "internalType": "bool",
          "name": "_isLong",
          "type": "bool"
        }
      ],
      "name": "getPositionDelta",
      "outputs": [
        {
          "internalType": "bool",
          "name": "",
          "type": "bool"
        },
        {
          "internalType": "uint256",
          "name": "",
          "type": "uint256"
        }
      ],
      "stateMutability": "view",
      "type": "function"
    },
    {
      "inputs": [
        {
          "internalType": "address",
          "name": "_account",
          "type": "address"
        },
        {
          "internalType": "address",
          "name": "_collateralToken",
          "type": "address"
        },
        {
          "internalType": "address",
          "name": "_indexToken",
          "type": "address"
        },
        {
          "internalType": "bool",
          "name": "_isLong",
          "type": "bool"
        },
        {
          "internalType": "uint256",
          "name": "_sizeDelta",
          "type": "uint256"
        }
      ],
      "name": "getPositionFee",
      "outputs": [
        {
          "internalType": "uint256",
          "name": "",
          "type": "uint256"
        }
      ],
      "stateMutability": "view",
      "type": "function"
    },
    {
      "inputs": [
        {
          "internalType": "address",
          "name": "_account",
          "type": "address"
        },
        {
          "internalType": "address",
          "name": "_collateralToken",
          "type": "address"
        },
        {
          "internalType": "address",
          "name": "_indexToken",
          "type": "address"
        },
        {
          "internalType": "bool",
          "name": "_isLong",
          "type": "bool"
        }
      ],
      "name": "getPositionKey",
      "outputs": [
        {
          "internalType": "bytes32",
          "name": "",
          "type": "bytes32"
        }
      ],
      "stateMutability": "pure",
      "type": "function"
    },
    {
      "inputs": [
        {
          "internalType": "address",
          "name": "_token",
          "type": "address"
        },
        {
          "internalType": "uint256",
          "name": "_zkusdAmount",
          "type": "uint256"
        }
      ],
      "name": "getRedemptionAmount",
      "outputs": [
        {
          "internalType": "uint256",
          "name": "",
          "type": "uint256"
        }
      ],
      "stateMutability": "view",
      "type": "function"
    },
    {
      "inputs": [
        {
          "internalType": "address",
          "name": "_token",
          "type": "address"
        }
      ],
      "name": "getTargetZkusdAmount",
      "outputs": [
        {
          "internalType": "uint256",
          "name": "",
          "type": "uint256"
        }
      ],
      "stateMutability": "view",
      "type": "function"
    },
    {
      "inputs": [
        {
          "internalType": "address",
          "name": "",
          "type": "address"
        }
      ],
      "name": "globalShortAveragePrices",
      "outputs": [
        {
          "internalType": "uint256",
          "name": "",
          "type": "uint256"
        }
      ],
      "stateMutability": "view",
      "type": "function"
    },
    {
      "inputs": [
        {
          "internalType": "address",
          "name": "",
          "type": "address"
        }
      ],
      "name": "globalShortSizes",
      "outputs": [
        {
          "internalType": "uint256",
          "name": "",
          "type": "uint256"
        }
      ],
      "stateMutability": "view",
      "type": "function"
    },
    {
      "inputs": [],
      "name": "gov",
      "outputs": [
        {
          "internalType": "address",
          "name": "",
          "type": "address"
        }
      ],
      "stateMutability": "view",
      "type": "function"
    },
    {
      "inputs": [
        {
          "internalType": "address",
          "name": "",
          "type": "address"
        }
      ],
      "name": "guaranteedUsd",
      "outputs": [
        {
          "internalType": "uint256",
          "name": "",
          "type": "uint256"
        }
      ],
      "stateMutability": "view",
      "type": "function"
    },
    {
      "inputs": [],
      "name": "hasDynamicFees",
      "outputs": [
        {
          "internalType": "bool",
          "name": "",
          "type": "bool"
        }
      ],
      "stateMutability": "view",
      "type": "function"
    },
    {
      "inputs": [],
      "name": "inManagerMode",
      "outputs": [
        {
          "internalType": "bool",
          "name": "",
          "type": "bool"
        }
      ],
      "stateMutability": "view",
      "type": "function"
    },
    {
      "inputs": [],
      "name": "inPrivateLiquidationMode",
      "outputs": [
        {
          "internalType": "bool",
          "name": "",
          "type": "bool"
        }
      ],
      "stateMutability": "view",
      "type": "function"
    },
    {
      "inputs": [
        {
          "internalType": "address",
          "name": "_account",
          "type": "address"
        },
        {
          "internalType": "address",
          "name": "_collateralToken",
          "type": "address"
        },
        {
          "internalType": "address",
          "name": "_indexToken",
          "type": "address"
        },
        {
          "internalType": "uint256",
          "name": "_sizeDelta",
          "type": "uint256"
        },
        {
          "internalType": "bool",
          "name": "_isLong",
          "type": "bool"
        }
      ],
      "name": "increasePosition",
      "outputs": [],
      "stateMutability": "nonpayable",
      "type": "function"
    },
    {
      "inputs": [
        {
          "internalType": "address",
          "name": "_router",
          "type": "address"
        },
        {
          "internalType": "address",
          "name": "_zkusd",
          "type": "address"
        },
        {
          "internalType": "address",
          "name": "_priceFeed",
          "type": "address"
        },
        {
          "internalType": "uint256",
          "name": "_liquidationFeeUsd",
          "type": "uint256"
        },
        {
          "internalType": "uint256",
          "name": "_fundingRateFactor",
          "type": "uint256"
        },
        {
          "internalType": "uint256",
          "name": "_stableFundingRateFactor",
          "type": "uint256"
        }
      ],
      "name": "initialize",
      "outputs": [],
      "stateMutability": "nonpayable",
      "type": "function"
    },
    {
      "inputs": [],
      "name": "isInitialized",
      "outputs": [
        {
          "internalType": "bool",
          "name": "",
          "type": "bool"
        }
      ],
      "stateMutability": "view",
      "type": "function"
    },
    {
      "inputs": [],
      "name": "isLeverageEnabled",
      "outputs": [
        {
          "internalType": "bool",
          "name": "",
          "type": "bool"
        }
      ],
      "stateMutability": "view",
      "type": "function"
    },
    {
      "inputs": [
        {
          "internalType": "address",
          "name": "",
          "type": "address"
        }
      ],
      "name": "isLiquidator",
      "outputs": [
        {
          "internalType": "bool",
          "name": "",
          "type": "bool"
        }
      ],
      "stateMutability": "view",
      "type": "function"
    },
    {
      "inputs": [
        {
          "internalType": "address",
          "name": "",
          "type": "address"
        }
      ],
      "name": "isManager",
      "outputs": [
        {
          "internalType": "bool",
          "name": "",
          "type": "bool"
        }
      ],
      "stateMutability": "view",
      "type": "function"
    },
    {
      "inputs": [],
      "name": "isSwapEnabled",
      "outputs": [
        {
          "internalType": "bool",
          "name": "",
          "type": "bool"
        }
      ],
      "stateMutability": "view",
      "type": "function"
    },
    {
      "inputs": [
        {
          "internalType": "address",
          "name": "",
          "type": "address"
        }
      ],
      "name": "lastFundingTimes",
      "outputs": [
        {
          "internalType": "uint256",
          "name": "",
          "type": "uint256"
        }
      ],
      "stateMutability": "view",
      "type": "function"
    },
    {
      "inputs": [
        {
          "internalType": "address",
          "name": "_account",
          "type": "address"
        },
        {
          "internalType": "address",
          "name": "_collateralToken",
          "type": "address"
        },
        {
          "internalType": "address",
          "name": "_indexToken",
          "type": "address"
        },
        {
          "internalType": "bool",
          "name": "_isLong",
          "type": "bool"
        },
        {
          "internalType": "address",
          "name": "_feeReceiver",
          "type": "address"
        }
      ],
      "name": "liquidatePosition",
      "outputs": [],
      "stateMutability": "nonpayable",
      "type": "function"
    },
    {
      "inputs": [],
      "name": "liquidationFeeUsd",
      "outputs": [
        {
          "internalType": "uint256",
          "name": "",
          "type": "uint256"
        }
      ],
      "stateMutability": "view",
      "type": "function"
    },
    {
      "inputs": [],
      "name": "marginFeeBasisPoints",
      "outputs": [
        {
          "internalType": "uint256",
          "name": "",
          "type": "uint256"
        }
      ],
      "stateMutability": "view",
      "type": "function"
    },
    {
      "inputs": [],
      "name": "maxGasPrice",
      "outputs": [
        {
          "internalType": "uint256",
          "name": "",
          "type": "uint256"
        }
      ],
      "stateMutability": "view",
      "type": "function"
    },
    {
      "inputs": [
        {
          "internalType": "address",
          "name": "",
          "type": "address"
        }
      ],
      "name": "maxGlobalShortSizes",
      "outputs": [
        {
          "internalType": "uint256",
          "name": "",
          "type": "uint256"
        }
      ],
      "stateMutability": "view",
      "type": "function"
    },
    {
      "inputs": [],
      "name": "maxLeverage",
      "outputs": [
        {
          "internalType": "uint256",
          "name": "",
          "type": "uint256"
        }
      ],
      "stateMutability": "view",
      "type": "function"
    },
    {
      "inputs": [
        {
          "internalType": "address",
          "name": "",
          "type": "address"
        }
      ],
      "name": "maxZkusdAmounts",
      "outputs": [
        {
          "internalType": "uint256",
          "name": "",
          "type": "uint256"
        }
      ],
      "stateMutability": "view",
      "type": "function"
    },
    {
      "inputs": [
        {
          "internalType": "address",
          "name": "",
          "type": "address"
        }
      ],
      "name": "minProfitBasisPoints",
      "outputs": [
        {
          "internalType": "uint256",
          "name": "",
          "type": "uint256"
        }
      ],
      "stateMutability": "view",
      "type": "function"
    },
    {
      "inputs": [],
      "name": "minProfitTime",
      "outputs": [
        {
          "internalType": "uint256",
          "name": "",
          "type": "uint256"
        }
      ],
      "stateMutability": "view",
      "type": "function"
    },
    {
      "inputs": [],
      "name": "mintBurnFeeBasisPoints",
      "outputs": [
        {
          "internalType": "uint256",
          "name": "",
          "type": "uint256"
        }
      ],
      "stateMutability": "view",
      "type": "function"
    },
    {
      "inputs": [
        {
          "internalType": "address",
          "name": "",
          "type": "address"
        }
      ],
      "name": "poolAmounts",
      "outputs": [
        {
          "internalType": "uint256",
          "name": "",
          "type": "uint256"
        }
      ],
      "stateMutability": "view",
      "type": "function"
    },
    {
      "inputs": [
        {
          "internalType": "bytes32",
          "name": "",
          "type": "bytes32"
        }
      ],
      "name": "positions",
      "outputs": [
        {
          "internalType": "uint256",
          "name": "size",
          "type": "uint256"
        },
        {
          "internalType": "uint256",
          "name": "collateral",
          "type": "uint256"
        },
        {
          "internalType": "uint256",
          "name": "averagePrice",
          "type": "uint256"
        },
        {
          "internalType": "uint256",
          "name": "entryFundingRate",
          "type": "uint256"
        },
        {
          "internalType": "uint256",
          "name": "reserveAmount",
          "type": "uint256"
        },
        {
          "internalType": "int256",
          "name": "realisedPnl",
          "type": "int256"
        },
        {
          "internalType": "uint256",
          "name": "lastIncreasedTime",
          "type": "uint256"
        }
      ],
      "stateMutability": "view",
      "type": "function"
    },
    {
      "inputs": [],
      "name": "priceFeed",
      "outputs": [
        {
          "internalType": "address",
          "name": "",
          "type": "address"
        }
      ],
      "stateMutability": "view",
      "type": "function"
    },
    {
      "inputs": [
        {
          "internalType": "address",
          "name": "_router",
          "type": "address"
        }
      ],
      "name": "removeRouter",
      "outputs": [],
      "stateMutability": "nonpayable",
      "type": "function"
    },
    {
      "inputs": [
        {
          "internalType": "address",
          "name": "",
          "type": "address"
        }
      ],
      "name": "reservedAmounts",
      "outputs": [
        {
          "internalType": "uint256",
          "name": "",
          "type": "uint256"
        }
      ],
      "stateMutability": "view",
      "type": "function"
    },
    {
      "inputs": [],
      "name": "router",
      "outputs": [
        {
          "internalType": "address",
          "name": "",
          "type": "address"
        }
      ],
      "stateMutability": "view",
      "type": "function"
    },
    {
      "inputs": [
        {
          "internalType": "address",
          "name": "_token",
          "type": "address"
        },
        {
          "internalType": "address",
          "name": "_receiver",
          "type": "address"
        }
      ],
      "name": "sellZKUSD",
      "outputs": [
        {
          "internalType": "uint256",
          "name": "",
          "type": "uint256"
        }
      ],
      "stateMutability": "nonpayable",
      "type": "function"
    },
    {
      "inputs": [
        {
          "internalType": "bool",
          "name": "_allowStaleEquityPrice",
          "type": "bool"
        }
      ],
      "name": "setAllowStableEquity",
      "outputs": [],
      "stateMutability": "nonpayable",
      "type": "function"
    },
    {
      "inputs": [
        {
          "internalType": "address",
          "name": "_token",
          "type": "address"
        },
        {
          "internalType": "uint256",
          "name": "_amount",
          "type": "uint256"
        }
      ],
      "name": "setBufferAmount",
      "outputs": [],
      "stateMutability": "nonpayable",
      "type": "function"
    },
    {
      "inputs": [
        {
          "internalType": "uint256",
          "name": "_errorCode",
          "type": "uint256"
        },
        {
          "internalType": "string",
          "name": "_error",
          "type": "string"
        }
      ],
      "name": "setError",
      "outputs": [],
      "stateMutability": "nonpayable",
      "type": "function"
    },
    {
      "inputs": [
        {
          "internalType": "address",
          "name": "_errorController",
          "type": "address"
        }
      ],
      "name": "setErrorController",
      "outputs": [],
      "stateMutability": "nonpayable",
      "type": "function"
    },
    {
      "inputs": [
        {
          "internalType": "uint256",
          "name": "_taxBasisPoints",
          "type": "uint256"
        },
        {
          "internalType": "uint256",
          "name": "_stableTaxBasisPoints",
          "type": "uint256"
        },
        {
          "internalType": "uint256",
          "name": "_mintBurnFeeBasisPoints",
          "type": "uint256"
        },
        {
          "internalType": "uint256",
          "name": "_swapFeeBasisPoints",
          "type": "uint256"
        },
        {
          "internalType": "uint256",
          "name": "_stableSwapFeeBasisPoints",
          "type": "uint256"
        },
        {
          "internalType": "uint256",
          "name": "_marginFeeBasisPoints",
          "type": "uint256"
        },
        {
          "internalType": "uint256",
          "name": "_liquidationFeeUsd",
          "type": "uint256"
        },
        {
          "internalType": "uint256",
          "name": "_minProfitTime",
          "type": "uint256"
        },
        {
          "internalType": "bool",
          "name": "_hasDynamicFees",
          "type": "bool"
        }
      ],
      "name": "setFees",
      "outputs": [],
      "stateMutability": "nonpayable",
      "type": "function"
    },
    {
      "inputs": [
        {
          "internalType": "uint256",
          "name": "_fundingInterval",
          "type": "uint256"
        },
        {
          "internalType": "uint256",
          "name": "_fundingRateFactor",
          "type": "uint256"
        },
        {
          "internalType": "uint256",
          "name": "_stableFundingRateFactor",
          "type": "uint256"
        }
      ],
      "name": "setFundingRate",
      "outputs": [],
      "stateMutability": "nonpayable",
      "type": "function"
    },
    {
      "inputs": [
        {
          "internalType": "address",
          "name": "_gov",
          "type": "address"
        }
      ],
      "name": "setGov",
      "outputs": [],
      "stateMutability": "nonpayable",
      "type": "function"
    },
    {
      "inputs": [
        {
          "internalType": "bool",
          "name": "_inManagerMode",
          "type": "bool"
        }
      ],
      "name": "setInManagerMode",
      "outputs": [],
      "stateMutability": "nonpayable",
      "type": "function"
    },
    {
      "inputs": [
        {
          "internalType": "bool",
          "name": "_inPrivateLiquidationMode",
          "type": "bool"
        }
      ],
      "name": "setInPrivateLiquidationMode",
      "outputs": [],
      "stateMutability": "nonpayable",
      "type": "function"
    },
    {
      "inputs": [
        {
          "internalType": "bool",
          "name": "_isLeverageEnabled",
          "type": "bool"
        }
      ],
      "name": "setIsLeverageEnabled",
      "outputs": [],
      "stateMutability": "nonpayable",
      "type": "function"
    },
    {
      "inputs": [
        {
          "internalType": "bool",
          "name": "_isSwapEnabled",
          "type": "bool"
        }
      ],
      "name": "setIsSwapEnabled",
      "outputs": [],
      "stateMutability": "nonpayable",
      "type": "function"
    },
    {
      "inputs": [
        {
          "internalType": "address",
          "name": "_liquidator",
          "type": "address"
        },
        {
          "internalType": "bool",
          "name": "_isActive",
          "type": "bool"
        }
      ],
      "name": "setLiquidator",
      "outputs": [],
      "stateMutability": "nonpayable",
      "type": "function"
    },
    {
      "inputs": [
        {
          "internalType": "address",
          "name": "_manager",
          "type": "address"
        },
        {
          "internalType": "bool",
          "name": "_isManager",
          "type": "bool"
        }
      ],
      "name": "setManager",
      "outputs": [],
      "stateMutability": "nonpayable",
      "type": "function"
    },
    {
      "inputs": [
        {
          "internalType": "uint256",
          "name": "_maxGasPrice",
          "type": "uint256"
        }
      ],
      "name": "setMaxGasPrice",
      "outputs": [],
      "stateMutability": "nonpayable",
      "type": "function"
    },
    {
      "inputs": [
        {
          "internalType": "address",
          "name": "_token",
          "type": "address"
        },
        {
          "internalType": "uint256",
          "name": "_amount",
          "type": "uint256"
        }
      ],
      "name": "setMaxGlobalShortSize",
      "outputs": [],
      "stateMutability": "nonpayable",
      "type": "function"
    },
    {
      "inputs": [
        {
          "internalType": "uint256",
          "name": "_maxLeverage",
          "type": "uint256"
        }
      ],
      "name": "setMaxLeverage",
      "outputs": [],
      "stateMutability": "nonpayable",
      "type": "function"
    },
    {
      "inputs": [
        {
          "internalType": "uint256",
          "name": "_minProfitTime",
          "type": "uint256"
        }
      ],
      "name": "setMinProfitTime",
      "outputs": [],
      "stateMutability": "nonpayable",
      "type": "function"
    },
    {
      "inputs": [
        {
          "internalType": "address",
          "name": "_priceFeed",
          "type": "address"
        }
      ],
      "name": "setPriceFeed",
      "outputs": [],
      "stateMutability": "nonpayable",
      "type": "function"
    },
    {
      "inputs": [
        {
          "internalType": "address",
          "name": "_token",
          "type": "address"
        },
        {
          "internalType": "uint256",
          "name": "_tokenDecimals",
          "type": "uint256"
        },
        {
          "internalType": "uint256",
          "name": "_tokenWeight",
          "type": "uint256"
        },
        {
          "internalType": "uint256",
          "name": "_minProfitBps",
          "type": "uint256"
        },
        {
          "internalType": "uint256",
          "name": "_maxZkusdAmount",
          "type": "uint256"
        },
        {
          "internalType": "bool",
          "name": "_isStable",
          "type": "bool"
        },
        {
          "internalType": "bool",
          "name": "_isShortable",
          "type": "bool"
        },
        {
          "internalType": "bool",
          "name": "_isEquity",
          "type": "bool"
        }
      ],
      "name": "setTokenConfig",
      "outputs": [],
      "stateMutability": "nonpayable",
      "type": "function"
    },
    {
      "inputs": [
        {
          "internalType": "contract IVaultUtils",
          "name": "_vaultUtils",
          "type": "address"
        }
      ],
      "name": "setVaultUtils",
      "outputs": [],
      "stateMutability": "nonpayable",
      "type": "function"
    },
    {
      "inputs": [
        {
          "internalType": "address",
          "name": "_token",
          "type": "address"
        },
        {
          "internalType": "uint256",
          "name": "_amount",
          "type": "uint256"
        }
      ],
      "name": "setZkusdAmount",
      "outputs": [],
      "stateMutability": "nonpayable",
      "type": "function"
    },
    {
      "inputs": [
        {
          "internalType": "address",
          "name": "",
          "type": "address"
        }
      ],
      "name": "shortableTokens",
      "outputs": [
        {
          "internalType": "bool",
          "name": "",
          "type": "bool"
        }
      ],
      "stateMutability": "view",
      "type": "function"
    },
    {
      "inputs": [],
      "name": "stableFundingRateFactor",
      "outputs": [
        {
          "internalType": "uint256",
          "name": "",
          "type": "uint256"
        }
      ],
      "stateMutability": "view",
      "type": "function"
    },
    {
      "inputs": [],
      "name": "stableSwapFeeBasisPoints",
      "outputs": [
        {
          "internalType": "uint256",
          "name": "",
          "type": "uint256"
        }
      ],
      "stateMutability": "view",
      "type": "function"
    },
    {
      "inputs": [],
      "name": "stableTaxBasisPoints",
      "outputs": [
        {
          "internalType": "uint256",
          "name": "",
          "type": "uint256"
        }
      ],
      "stateMutability": "view",
      "type": "function"
    },
    {
      "inputs": [
        {
          "internalType": "address",
          "name": "",
          "type": "address"
        }
      ],
      "name": "stableTokens",
      "outputs": [
        {
          "internalType": "bool",
          "name": "",
          "type": "bool"
        }
      ],
      "stateMutability": "view",
      "type": "function"
    },
    {
      "inputs": [
        {
          "internalType": "address",
          "name": "_tokenIn",
          "type": "address"
        },
        {
          "internalType": "address",
          "name": "_tokenOut",
          "type": "address"
        },
        {
          "internalType": "address",
          "name": "_receiver",
          "type": "address"
        }
      ],
      "name": "swap",
      "outputs": [
        {
          "internalType": "uint256",
          "name": "",
          "type": "uint256"
        }
      ],
      "stateMutability": "nonpayable",
      "type": "function"
    },
    {
      "inputs": [],
      "name": "swapFeeBasisPoints",
      "outputs": [
        {
          "internalType": "uint256",
          "name": "",
          "type": "uint256"
        }
      ],
      "stateMutability": "view",
      "type": "function"
    },
    {
      "inputs": [],
      "name": "taxBasisPoints",
      "outputs": [
        {
          "internalType": "uint256",
          "name": "",
          "type": "uint256"
        }
      ],
      "stateMutability": "view",
      "type": "function"
    },
    {
      "inputs": [
        {
          "internalType": "address",
          "name": "",
          "type": "address"
        }
      ],
      "name": "tokenBalances",
      "outputs": [
        {
          "internalType": "uint256",
          "name": "",
          "type": "uint256"
        }
      ],
      "stateMutability": "view",
      "type": "function"
    },
    {
      "inputs": [
        {
          "internalType": "address",
          "name": "",
          "type": "address"
        }
      ],
      "name": "tokenDecimals",
      "outputs": [
        {
          "internalType": "uint256",
          "name": "",
          "type": "uint256"
        }
      ],
      "stateMutability": "view",
      "type": "function"
    },
    {
      "inputs": [
        {
          "internalType": "address",
          "name": "_token",
          "type": "address"
        },
        {
          "internalType": "uint256",
          "name": "_tokenAmount",
          "type": "uint256"
        }
      ],
      "name": "tokenToUsdMin",
      "outputs": [
        {
          "internalType": "uint256",
          "name": "",
          "type": "uint256"
        }
      ],
      "stateMutability": "view",
      "type": "function"
    },
    {
      "inputs": [
        {
          "internalType": "address",
          "name": "",
          "type": "address"
        }
      ],
      "name": "tokenWeights",
      "outputs": [
        {
          "internalType": "uint256",
          "name": "",
          "type": "uint256"
        }
      ],
      "stateMutability": "view",
      "type": "function"
    },
    {
      "inputs": [],
      "name": "totalTokenWeights",
      "outputs": [
        {
          "internalType": "uint256",
          "name": "",
          "type": "uint256"
        }
      ],
      "stateMutability": "view",
      "type": "function"
    },
    {
      "inputs": [
        {
          "internalType": "address",
          "name": "_collateralToken",
          "type": "address"
        },
        {
          "internalType": "address",
          "name": "_indexToken",
          "type": "address"
        }
      ],
      "name": "updateCumulativeFundingRate",
      "outputs": [],
      "stateMutability": "nonpayable",
      "type": "function"
    },
    {
      "inputs": [
        {
          "internalType": "address",
          "name": "_newVault",
          "type": "address"
        },
        {
          "internalType": "address",
          "name": "_token",
          "type": "address"
        },
        {
          "internalType": "uint256",
          "name": "_amount",
          "type": "uint256"
        }
      ],
      "name": "upgradeVault",
      "outputs": [],
      "stateMutability": "nonpayable",
      "type": "function"
    },
    {
      "inputs": [
        {
          "internalType": "address",
          "name": "_token",
          "type": "address"
        },
        {
          "internalType": "uint256",
          "name": "_usdAmount",
          "type": "uint256"
        },
        {
          "internalType": "uint256",
          "name": "_price",
          "type": "uint256"
        }
      ],
      "name": "usdToToken",
      "outputs": [
        {
          "internalType": "uint256",
          "name": "",
          "type": "uint256"
        }
      ],
      "stateMutability": "view",
      "type": "function"
    },
    {
      "inputs": [
        {
          "internalType": "address",
          "name": "_token",
          "type": "address"
        },
        {
          "internalType": "uint256",
          "name": "_usdAmount",
          "type": "uint256"
        }
      ],
      "name": "usdToTokenMax",
      "outputs": [
        {
          "internalType": "uint256",
          "name": "",
          "type": "uint256"
        }
      ],
      "stateMutability": "view",
      "type": "function"
    },
    {
      "inputs": [
        {
          "internalType": "address",
          "name": "_token",
          "type": "address"
        },
        {
          "internalType": "uint256",
          "name": "_usdAmount",
          "type": "uint256"
        }
      ],
      "name": "usdToTokenMin",
      "outputs": [
        {
          "internalType": "uint256",
          "name": "",
          "type": "uint256"
        }
      ],
      "stateMutability": "view",
      "type": "function"
    },
    {
      "inputs": [
        {
          "internalType": "address",
          "name": "_account",
          "type": "address"
        },
        {
          "internalType": "address",
          "name": "_collateralToken",
          "type": "address"
        },
        {
          "internalType": "address",
          "name": "_indexToken",
          "type": "address"
        },
        {
          "internalType": "bool",
          "name": "_isLong",
          "type": "bool"
        },
        {
          "internalType": "bool",
          "name": "_raise",
          "type": "bool"
        }
      ],
      "name": "validateLiquidation",
      "outputs": [
        {
          "internalType": "uint256",
          "name": "",
          "type": "uint256"
        },
        {
          "internalType": "uint256",
          "name": "",
          "type": "uint256"
        }
      ],
      "stateMutability": "view",
      "type": "function"
    },
    {
      "inputs": [],
      "name": "vaultUtils",
      "outputs": [
        {
          "internalType": "contract IVaultUtils",
          "name": "",
          "type": "address"
        }
      ],
      "stateMutability": "view",
      "type": "function"
    },
    {
      "inputs": [],
      "name": "whitelistedTokenCount",
      "outputs": [
        {
          "internalType": "uint256",
          "name": "",
          "type": "uint256"
        }
      ],
      "stateMutability": "view",
      "type": "function"
    },
    {
      "inputs": [
        {
          "internalType": "address",
          "name": "",
          "type": "address"
        }
      ],
      "name": "whitelistedTokens",
      "outputs": [
        {
          "internalType": "bool",
          "name": "",
          "type": "bool"
        }
      ],
      "stateMutability": "view",
      "type": "function"
    },
    {
      "inputs": [
        {
          "internalType": "address",
          "name": "_token",
          "type": "address"
        },
        {
          "internalType": "address",
          "name": "_receiver",
          "type": "address"
        }
      ],
      "name": "withdrawFees",
      "outputs": [
        {
          "internalType": "uint256",
          "name": "",
          "type": "uint256"
        }
      ],
      "stateMutability": "nonpayable",
      "type": "function"
    },
    {
      "inputs": [],
      "name": "zkusd",
      "outputs": [
        {
          "internalType": "address",
          "name": "",
          "type": "address"
        }
      ],
      "stateMutability": "view",
      "type": "function"
    },
    {
      "inputs": [
        {
          "internalType": "address",
          "name": "",
          "type": "address"
        }
      ],
      "name": "zkusdAmounts",
      "outputs": [
        {
          "internalType": "uint256",
          "name": "",
          "type": "uint256"
        }
      ],
      "stateMutability": "view",
      "type": "function"
    }
  ],
  "transactionHash": "0xf0b62fba1833d6a805844cbf0e3f9320fa7e8d9fe8ce0d9a74c99b2198552f6d",
  "args": [],
  "numDeployments": 1,
  "solcInputHash": "37ac44f49d18bdad205cbe889714e32d",
  "bytecode": "0x6080604052620f4240600b556032600c556014600d55601e600e819055600f556004601055600a601155610e106012556016805464ffffff00001961ff001960ff1990921660011791909116610100171664010000000017905534801561006557600080fd5b506001600081905580546001600160a01b03191633179055615d39806200008d6000396000f3fe608060405234801561001057600080fd5b50600436106105d55760003560e01c806388b1fbdf11610307578063cea0c3281161019e578063e124e6d2116100ef578063f25552781161009d578063f255527814611569578063f3ae241514611597578063f887ea40146115bd578063fa12dbc0146115c5578063fbfded6d146115f7578063fdaf6ac314611625578063fed1a60614611669576105d5565b8063e124e6d214611438578063e468baf01461145e578063e67f59a71461147b578063ee131066146114a1578063efa10a6e146114f8578063f07456ce14611524578063f07bbf771461154a576105d5565b8063da76524c1161014c578063da76524c146112fe578063daf9c21014611348578063db3555fb1461136e578063db97495f14611394578063dc8f5fac146113e0578063de2ea948146113e8578063df73a26714611430576105d5565b8063cea0c328146111db578063cfad57a214611211578063d2fa635e14611237578063d3127e6314611254578063d54d5a9f14611271578063d8f897c3146112d0578063d9ac4225146112f6576105d5565b80639f392eb311610258578063ace112de11610206578063ace112de146110db578063ae3302c214611107578063b1cc53ab1461110f578063c3c7b9e914611147578063c4f718bf1461116d578063c65bc7b114611175578063c7e074c31461119b576105d5565b80639f392eb314610fff578063a22f239214611007578063a42ab3d21461100f578063a5e90eee1461103b578063a866991514611069578063a93acac21461108f578063ab2f3ad4146110b5576105d5565b80639317020d116102b55780639317020d14610f145780639331621214610f335780639698d25a14610f6b5780639849e41214610f915780639899cd0214610f995780639bc90a0f14610fc55780639d7432ca14610fcd576105d5565b806388b1fbdf14610e255780638a27d46814610e4b5780638a78daa814610e745780638ee573ac14610e9a5780638f7b840414610ec05780639060b1ca14610ee6578063918a045c14610eee576105d5565b806348d91abf1161047b57806362287a32116103cc578063741bef1a1161037a578063741bef1a14610d335780637a210a2b14610d3b5780637c2eb9f714610d435780638097505114610d6257806381a612d614610d7f57806382a0849014610da55780638585f4d214610df9576105d5565b806362287a3214610c435780636274980314610c4b5780636abbe0c814610c715780636ae0b15414610c7957806371089f4d14610c9f578063724e78da14610cc5578063728cdbca14610ceb576105d5565b8063529a356f11610429578063529a356f14610b2d57806352f55eed14610b5357806354d33cf914610b79578063552036b314610ba75780635c07eaab14610baf5780635f7bc11914610bef5780636092219914610c15576105d5565b806348d91abf146109b757806348f35cbb146109fb5780634a3f088d14610a035780634a993ee914610a845780634d47b30414610aaa578063514ea4bf14610ab2578063523fba7f14610b07576105d5565b80632c668ec1116105355780633e72a262116104e35780633e72a2621461085757806340eb38021461085f57806342152873146108b057806342b60b03146108e45780634453a3741461090a57806345a6f37014610938578063486fe2a114610991576105d5565b80632c668ec1146107ae5780632d4b0576146107da57806330455ede14610818578063318bc68914610837578063351a964d1461083f578063392e53cd146108475780633de39c111461084f576105d5565b8063134ca63b11610592578063134ca63b146106a0578063174d2694146106a8578063181e210e146106b05780631ce9cb8f146106cc57806324b0c04d146106f257806324ca984e1461071357806328e67be514610739576105d5565b80630842b076146105da57806308665520146105f457806309c62d5c1461061a5780630a48d5a91461064857806310eb56c21461067457806312d43a511461067c575b600080fd5b6105e26116fb565b60408051918252519081900360200190f35b6105e26004803603602081101561060a57600080fd5b50356001600160a01b0316611701565b6105e26004803603604081101561063057600080fd5b506001600160a01b0381358116916020013516611713565b6105e26004803603604081101561065e57600080fd5b506001600160a01b03813516906020013561198d565b6105e26119e6565b6106846119ec565b604080516001600160a01b039092168252519081900360200190f35b6105e26119fb565b6105e2611a01565b6106b8611a07565b604080519115158252519081900360200190f35b6105e2600480360360208110156106e257600080fd5b50356001600160a01b0316611a17565b6107116004803603602081101561070857600080fd5b50351515611a29565b005b6107116004803603602081101561072957600080fd5b50356001600160a01b0316611a4f565b6107116004803603604081101561074f57600080fd5b81359190810190604081016020820135600160201b81111561077057600080fd5b82018360208201111561078257600080fd5b803590602001918460018302840111600160201b831117156107a357600080fd5b509092509050611a80565b6105e2600480360360408110156107c457600080fd5b506001600160a01b038135169060200135611b6b565b6105e2600480360360808110156107f057600080fd5b506001600160a01b038135811691602081013582169160408201351690606001351515611bb0565b6107116004803603602081101561082e57600080fd5b50351515611c0b565b6105e2611c26565b6106b8611c2c565b6106b8611c35565b6105e2611c45565b6106b8611c4b565b610711600480360361012081101561087657600080fd5b5080359060208101359060408101359060608101359060808101359060a08101359060c08101359060e08101359061010001351515611c59565b6105e2600480360360608110156108c657600080fd5b508035906001600160a01b0360208201358116916040013516611d1d565b6106b8600480360360208110156108fa57600080fd5b50356001600160a01b0316611dbf565b6107116004803603604081101561092057600080fd5b506001600160a01b0381351690602001351515611dd4565b6109766004803603608081101561094e57600080fd5b506001600160a01b038135811691602081013582169160408201351690606001351515611e07565b60408051921515835260208301919091528051918290030190f35b6105e2600480360360208110156109a757600080fd5b50356001600160a01b0316611ea5565b610711600480360360a08110156109cd57600080fd5b506001600160a01b038135811691602081013582169160408201351690606081013590608001351515611eb7565b6106846122f5565b610a4160048036036080811015610a1957600080fd5b506001600160a01b038135811691602081013582169160408201351690606001351515612304565b604080519889526020890197909752878701959095526060870193909352608086019190915260a0850152151560c084015260e083015251908190036101000190f35b6105e260048036036020811015610a9a57600080fd5b50356001600160a01b03166123fa565b6105e261240c565b610acf60048036036020811015610ac857600080fd5b5035612412565b604080519788526020880196909652868601949094526060860192909252608085015260a084015260c0830152519081900360e00190f35b6105e260048036036020811015610b1d57600080fd5b50356001600160a01b031661244f565b6106b860048036036020811015610b4357600080fd5b50356001600160a01b0316612461565b6105e260048036036020811015610b6957600080fd5b50356001600160a01b0316612476565b6105e260048036036040811015610b8f57600080fd5b506001600160a01b0381358116916020013516612488565b6106b861273e565b610976600480360360a0811015610bc557600080fd5b506001600160a01b0381351690602081013590604081013590606081013515159060800135612747565b61071160048036036020811015610c0557600080fd5b50356001600160a01b031661283f565b6106b860048036036040811015610c2b57600080fd5b506001600160a01b0381358116916020013516612922565b6105e2612942565b6105e260048036036020811015610c6157600080fd5b50356001600160a01b0316612948565b61068461295a565b61071160048036036020811015610c8f57600080fd5b50356001600160a01b0316612970565b61071160048036036020811015610cb557600080fd5b50356001600160a01b031661299e565b61071160048036036020811015610cdb57600080fd5b50356001600160a01b03166129d4565b610711600480360360c0811015610d0157600080fd5b506001600160a01b03813581169160208101358216916040820135169060608101359060808101359060a001356129fe565b610684612a85565b6105e2612a94565b61071160048036036020811015610d5957600080fd5b50351515612a9a565b61071160048036036020811015610d7857600080fd5b5035612abc565b6105e260048036036020811015610d9557600080fd5b50356001600160a01b0316612ac9565b6105e2600480360360e0811015610dbb57600080fd5b506001600160a01b0381358116916020810135821691604082013581169160608101359160808201359160a081013515159160c09091013516612c1d565b61071160048036036040811015610e0f57600080fd5b506001600160a01b038135169060200135612c9b565b6105e260048036036020811015610e3b57600080fd5b50356001600160a01b0316612cbf565b61071160048036036060811015610e6157600080fd5b5080359060208101359060400135612cd1565b6105e260048036036020811015610e8a57600080fd5b50356001600160a01b0316612ce7565b6105e260048036036020811015610eb057600080fd5b50356001600160a01b0316612cf9565b61071160048036036020811015610ed657600080fd5b50356001600160a01b0316612d0b565b6106b8612d35565b6105e260048036036020811015610f0457600080fd5b50356001600160a01b0316612d45565b61071160048036036020811015610f2a57600080fd5b50351515612e05565b6105e260048036036060811015610f4957600080fd5b506001600160a01b038135811691602081013582169160409091013516612e20565b6105e260048036036020811015610f8157600080fd5b50356001600160a01b03166130e9565b6105e26130fb565b6105e260048036036040811015610faf57600080fd5b506001600160a01b038135169060200135613101565b610684613123565b6105e260048036036060811015610fe357600080fd5b506001600160a01b038135169060208101359060400135613132565b6106b86131db565b6105e26131ea565b6105e26004803603604081101561102557600080fd5b506001600160a01b0381351690602001356131f0565b6107116004803603604081101561105157600080fd5b506001600160a01b038135169060200135151561320d565b6106b86004803603602081101561107f57600080fd5b50356001600160a01b0316613240565b6105e2600480360360208110156110a557600080fd5b50356001600160a01b0316613255565b6105e2600480360360208110156110cb57600080fd5b50356001600160a01b0316613353565b610711600480360360408110156110f157600080fd5b506001600160a01b038135169060200135613365565b6105e26133c0565b6105e26004803603606081101561112557600080fd5b506001600160a01b0381358116916020810135909116906040013515156133c6565b6105e26004803603602081101561115d57600080fd5b50356001600160a01b0316613461565b6105e2613473565b6105e26004803603602081101561118b57600080fd5b50356001600160a01b0316613479565b6105e2600480360360a08110156111b157600080fd5b506001600160a01b038135169060208101359060408101359060608101359060800135151561348b565b610711600480360360608110156111f157600080fd5b506001600160a01b03813581169160208101359091169060400135613535565b6107116004803603602081101561122757600080fd5b50356001600160a01b0316613551565b6107116004803603602081101561124d57600080fd5b503561357b565b6107116004803603602081101561126a57600080fd5b5035613588565b6112b7600480360360a081101561128757600080fd5b506001600160a01b03813581169160208101358216916040820135169060608101351515906080013515156135a4565b6040805192835260208301919091528051918290030190f35b6105e2600480360360208110156112e657600080fd5b50356001600160a01b031661365b565b6105e261366d565b6105e2600480360360c081101561131457600080fd5b506001600160a01b038135811691602081013582169160408201351690606081013515159060808101359060a00135613673565b6106b86004803603602081101561135e57600080fd5b50356001600160a01b0316613727565b6106b86004803603602081101561138457600080fd5b50356001600160a01b031661373c565b6105e2600480360360e08110156113aa57600080fd5b506001600160a01b0381351690602081013590604081013590606081013515159060808101359060a08101359060c00135613751565b6105e26137e4565b610711600480360360a08110156113fe57600080fd5b506001600160a01b038135811691602081013582169160408201358116916060810135151591608090910135166137ea565b6105e2613ba1565b6105e26004803603602081101561144e57600080fd5b50356001600160a01b0316613ba7565b6106846004803603602081101561147457600080fd5b5035613c94565b6107116004803603602081101561149157600080fd5b50356001600160a01b0316613cbb565b61071160048036036101008110156114b857600080fd5b506001600160a01b038135169060208101359060408101359060608101359060808101359060a081013515159060c081013515159060e001351515613d90565b6107116004803603604081101561150e57600080fd5b506001600160a01b038135169060200135613edc565b6105e26004803603602081101561153a57600080fd5b50356001600160a01b0316613f00565b6107116004803603602081101561156057600080fd5b50351515613f11565b6105e26004803603604081101561157f57600080fd5b506001600160a01b0381358116916020013516613f38565b6106b8600480360360208110156115ad57600080fd5b50356001600160a01b0316613f8e565b610684613fa3565b6105e2600480360360608110156115db57600080fd5b506001600160a01b038135169060208101359060400135613fb2565b6107116004803603604081101561160d57600080fd5b506001600160a01b0381358116916020013516613fec565b6105e2600480360360a081101561163b57600080fd5b506001600160a01b0381358116916020810135821691604082013516906060810135151590608001356141c5565b6116866004803603602081101561167f57600080fd5b503561423b565b6040805160208082528351818301528351919283929083019185019080838360005b838110156116c05781810151838201526020016116a8565b50505050905090810190601f1680156116ed5780820380516001836020036101000a031916815260200191505b509250505060405180910390f35b602c5490565b602e6020526000908152604090205481565b60006002600054141561175b576040805162461bcd60e51b815260206004820152601f6024820152600080516020615c99833981519152604482015290519081900360640190fd5b60026000556117686142d6565b6001600160a01b0383166000908152602d602052604090205461178f9060ff166013614308565b6003546000906117a7906001600160a01b03166143b4565b90506117b7600082116014614308565b6117c18485613fec565b60006117cd8583611b6b565b90506117dd600082116015614308565b6117e78583614461565b6117f18582614543565b60035460408051632770a7eb60e21b81523060048201526024810185905290516001600160a01b0390921691639dc29fac9160448082019260009290919082900301818387803b15801561184457600080fd5b505af1158015611858573d6000803e3d6000fd5b505060035461187292506001600160a01b03169050614619565b6016546040805163d1258f6f60e01b81526001600160a01b038881166004830152602482018690529151600093600160281b90049092169163d1258f6f91604480820192602092909190829003018186803b1580156118d057600080fd5b505afa1580156118e4573d6000803e3d6000fd5b505050506040513d60208110156118fa57600080fd5b50519050600061190b8784846146b4565b905061191b600082116016614308565b61192687828861477c565b604080516001600160a01b03808916825289166020820152808201869052606081018390526080810184905290517ff05e6366cb941c74f03fb14efe64792f2f8045c0d19de689272fdb19b83aca5a9181900360a00190a160016000559695505050505050565b60008161199c575060006119e0565b60006119a784612ac9565b6001600160a01b0385166000908152602860205260409020549091506119db600a82900a6119d58685614823565b9061487c565b925050505b92915050565b600d5481565b6001546001600160a01b031681565b60075481565b60055481565b601654600160201b900460ff1681565b60236020526000908152604090205481565b611a316148be565b6016805491151563010000000263ff00000019909216919091179055565b3360009081526018602090815260408083206001600160a01b0394909416835292905220805460ff19166001179055565b60175460408051808201909152601e81527f5661756c743a20696e76616c6964206572726f72436f6e74726f6c6c657200006020820152906001600160a01b03163314611b4b5760405162461bcd60e51b81526004018080602001828103825283818151815260200191508051906020019080838360005b83811015611b10578181015183820152602001611af8565b50505050905090810190601f168015611b3d5780820380516001836020036101000a031916815260200191505b509250505060405180910390fd5b506000838152602760205260409020611b65908383615bc8565b50505050565b600080611b7784613ba7565b90506000611b95826119d58668327cb2734119d3b7a9601e1b614823565b6003549091506119db9082906001600160a01b031687611d1d565b604080516bffffffffffffffffffffffff19606096871b811660208084019190915295871b811660348301529390951b9092166048850152151560f81b605c8401528051603d818503018152605d9093019052815191012090565b611c136148be565b6016805460ff1916911515919091179055565b60115481565b60165460ff1681565b600154600160a01b900460ff1681565b60145481565b601654610100900460ff1681565b611c616148be565b611c716101f48a11156003614308565b611c816101f48911156004614308565b611c916101f48811156005614308565b611ca16101f48711156006614308565b611cb16101f48611156007614308565b611cc16101f48511156008614308565b611cdd6d04ee2d6d415b85acef81000000008411156009614308565b600c98909855600d96909655600e94909455600f9290925560105560115560055560155560168054911515620100000262ff000019909216919091179055565b60035460009081906001600160a01b03858116911614611d55576001600160a01b038416600090815260286020526040902054611d58565b60125b6003549091506000906001600160a01b03858116911614611d91576001600160a01b038416600090815260286020526040902054611d94565b60125b9050611db382600a0a6119d583600a0a8961482390919063ffffffff16565b925050505b9392505050565b601c6020526000908152604090205460ff1681565b611ddc6148be565b6001600160a01b03919091166000908152601960205260409020805460ff1916911515919091179055565b6000806000611e1887878787611bb0565b9050611e22615c46565b50600081815260086020908152604091829020825160e081018452815480825260018301549382019390935260028201549381018490526003820154606082015260048201546080820152600582015460a082015260069091015460c082018190529092611e969289929091908990612747565b93509350505094509492505050565b602f6020526000908152604090205481565b60026000541415611efd576040805162461bcd60e51b815260206004820152601f6024820152600080516020615c99833981519152604482015290519081900360640190fd5b6002600055601654611f1890610100900460ff16601c614308565b611f206148d7565b611f29856148f3565b611f34848483614956565b60165460408051634eae147d60e11b81526001600160a01b038881166004830152878116602483015286811660448301526064820186905284151560848301529151600160281b90930490911691639d5c28fa9160a480820192600092909190829003018186803b158015611fa857600080fd5b505afa158015611fbc573d6000803e3d6000fd5b50505050611fca8484613fec565b6000611fd886868685611bb0565b600081815260086020526040812091925083611ffc57611ff786612ac9565b612005565b61200586613ba7565b825490915061201657600282018190555b8154158015906120265750600085115b1561204c57612046868360000154846002015487858a8860060154613751565b60028301555b6000612065898989888a88600001548960030154614a70565b90506000612072896143b4565b905060006120808a8361198d565b60018601549091506120929082614b3e565b600186018190556120a790841115601d614308565b60018501546120b69084614b98565b60018601556120c68a8a896133c6565b600386015584546120d79089614b3e565b8086554260068701556120ed901515601e614308565b6120ff85600001548660010154614bda565b61210d8b8b8b8a60016135a4565b5050600061211b8b8a6131f0565b600487015490915061212d9082614b3e565b600487015561213c8b82614bfe565b8715612181576121558b6121508b87614b3e565b614c9e565b61215f8b83614d1a565b6121698b84614d96565b61217c8b6121778d87613101565b614543565b6121ed565b6001600160a01b038a166000908152602460205260409020546121be576001600160a01b038a1660009081526025602052604090208590556121e3565b6121c98a868b613132565b6001600160a01b038b166000908152602560205260409020555b6121ed8a8a614eae565b604080518881526001600160a01b03808f166020830152808e16828401528c1660608201526080810184905260a081018b905289151560c082015260e08101879052610100810186905290517f2fe68525253654c21998f35787a8d0f361905ef647c854092430ab65f2f15022918190036101200190a1855460018701546002880154600389015460048a015460058b0154604080518e81526020810197909752868101959095526060860193909352608085019190915260a084015260c083015260e08201879052517f20853733b590dce729d9f4628682ebd9a34d2354e72679e66f43a008fc03b773918190036101000190a15050600160005550505050505050505050565b6017546001600160a01b031681565b600080600080600080600080600061231e8d8d8d8d611bb0565b9050612328615c46565b600860008381526020019081526020016000206040518060e001604052908160008201548152602001600182015481526020016002820154815260200160038201548152602001600482015481526020016005820154815260200160068201548152505090506000808260a00151136123a8578160a001516000036123ae565b8160a001515b9050816000015182602001518360400151846060015185608001518560008860a0015112158860c001519a509a509a509a509a509a509a509a5050505094995094995094999196509450565b601f6020526000908152604090205481565b600e5481565b6008602052600090815260409020805460018201546002830154600384015460048501546005860154600690960154949593949293919290919087565b60296020526000908152604090205481565b60196020526000908152604090205460ff1681565b60096020526000908152604090205481565b6000600260005414156124d0576040805162461bcd60e51b815260206004820152601f6024820152600080516020615c99833981519152604482015290519081900360640190fd5b60026000556124dd6142d6565b6001600160a01b0383166000908152602d60205260409020546125049060ff166010614308565b600061250f846143b4565b905061251f600082116011614308565b6125298485613fec565b600061253485612ac9565b9050600061255268327cb2734119d3b7a9601e1b6119d58585614823565b60035490915061256e90829088906001600160a01b0316611d1d565b905061257e600082116012614308565b601654604080516382c04ce760e01b81526001600160a01b038981166004830152602482018590529151600093600160281b9004909216916382c04ce791604480820192602092909190829003018186803b1580156125dc57600080fd5b505afa1580156125f0573d6000803e3d6000fd5b505050506040513d602081101561260657600080fd5b5051905060006126178886846146b4565b9050600061263568327cb2734119d3b7a9601e1b6119d58488614823565b6003549091506126519082908b906001600160a01b0316611d1d565b905061265d8982614fa7565b6126678983614d96565b600354604080516340c10f1960e01b81526001600160a01b038b8116600483015260248201859052915191909216916340c10f1991604480830192600092919082900301818387803b1580156126bc57600080fd5b505af11580156126d0573d6000803e3d6000fd5b5050604080516001600160a01b03808d1682528d1660208201528082018a9052606081018590526080810187905290517f1ebbe215538a4163dc9d20a3615a8cdc7b0cfa7c55b7473d142a5e5c3a3dc0a293509081900360a0019150a1600160005598975050505050505050565b60305460ff1681565b600080612758600086116026614308565b60008461276d5761276888613ba7565b612776565b61277688612ac9565b905060008187116127905761278b8288614b98565b61279a565b61279a8783614b98565b905060006127ac886119d58b85614823565b9050600087156127bf57508783116127c4565b508288115b60006127db60155489614b3e90919063ffffffff16565b42116127ff576001600160a01b038c166000908152601b6020526040902054612802565b60005b905081801561282557506128168b82614823565b61282284612710614823565b11155b1561282f57600092505b509a909950975050505050505050565b60026000541415612885576040805162461bcd60e51b815260206004820152601f6024820152600080516020615c99833981519152604482015290519081900360640190fd5b600260009081556001600160a01b0382168152602d60205260409020546128b09060ff16600e614308565b60006128bb826143b4565b90506128cb60008211600f614308565b6128d58282614d96565b604080516001600160a01b03841681526020810183905281517fa5a389190ebf6170a133bda5c769b77f4d6715b8aa172ec0ddf8473d0b4944bd929181900390910190a150506001600055565b601860209081526000928352604080842090915290825290205460ff1681565b60135481565b60256020526000908152604090205481565b601654600160281b90046001600160a01b031681565b3360009081526018602090815260408083206001600160a01b0394909416835292905220805460ff19169055565b6129a66148be565b601680546001600160a01b03909216600160281b0265010000000000600160c81b0319909216919091179055565b6129dc6148be565b600480546001600160a01b0319166001600160a01b0392909216919091179055565b612a066148be565b612a21600160149054906101000a900460ff16156001614308565b60018054600160a01b60ff60a01b19909116179055600280546001600160a01b03199081166001600160a01b039889161790915560038054821696881696909617909555600480549095169390951692909217909255600591909155600655600755565b6004546001600160a01b031681565b600c5481565b612aa26148be565b601680549115156101000261ff0019909216919091179055565b612ac46148be565b601555565b6001600160a01b0381166000908152601e602052604081205460ff168015612af3575060305460ff165b15612b8a576004805460408051635ae6916360e01b81526001600160a01b0386811694820194909452600060248201819052604482015290519290911691635ae6916391606480820192602092909190829003018186803b158015612b5757600080fd5b505afa158015612b6b573d6000803e3d6000fd5b505050506040513d6020811015612b8157600080fd5b50519050612c18565b6004805460408051635ae6916360e01b81526001600160a01b0386811694820194909452600060248201526001604482015290519290911691635ae6916391606480820192602092909190829003018186803b158015612be957600080fd5b505afa158015612bfd573d6000803e3d6000fd5b505050506040513d6020811015612c1357600080fd5b505190505b919050565b600060026000541415612c65576040805162461bcd60e51b815260206004820152601f6024820152600080516020615c99833981519152604482015290519081900360640190fd5b6002600055612c726148d7565b612c7b886148f3565b612c8a88888888888888615065565b600160005598975050505050505050565b612ca36148be565b6001600160a01b039091166000908152601f6020526040902055565b601b6020526000908152604090205481565b612cd96148be565b601292909255600655600755565b60246020526000908152604090205481565b60286020526000908152604090205481565b612d136148be565b601780546001600160a01b0319166001600160a01b0392909216919091179055565b6016546301000000900460ff1681565b600080600360009054906101000a90046001600160a01b03166001600160a01b03166318160ddd6040518163ffffffff1660e01b815260040160206040518083038186803b158015612d9657600080fd5b505afa158015612daa573d6000803e3d6000fd5b505050506040513d6020811015612dc057600080fd5b5051905080612dd3576000915050612c18565b6001600160a01b0383166000908152602a6020526040902054602b54612dfd906119d58385614823565b949350505050565b612e0d6148be565b6030805460ff1916911515919091179055565b600060026000541415612e68576040805162461bcd60e51b815260206004820152601f6024820152600080516020615c99833981519152604482015290519081900360640190fd5b6002600055601654612e7e9060ff166017614308565b6001600160a01b0384166000908152602d6020526040902054612ea59060ff166018614308565b6001600160a01b0383166000908152602d6020526040902054612ecc9060ff166019614308565b612eec836001600160a01b0316856001600160a01b03161415601a614308565b612ef68485613fec565b612f008384613fec565b6000612f0b856143b4565b9050612f1b60008211601b614308565b6000612f2686612ac9565b90506000612f3386613ba7565b90506000612f45826119d58686614823565b9050612f52818989611d1d565b90506000612f7068327cb2734119d3b7a9601e1b6119d58787614823565b600354909150612f8c9082908b906001600160a01b0316611d1d565b60165460408051636d099c0b60e11b81526001600160a01b038d811660048301528c81166024830152604482018590529151939450600093600160281b9093049091169163da13381691606480820192602092909190829003018186803b158015612ff657600080fd5b505afa15801561300a573d6000803e3d6000fd5b505050506040513d602081101561302057600080fd5b5051905060006130318a85846146b4565b905061303d8b84614fa7565b6130478a84614461565b6130518b88614d96565b61305b8a85614543565b6130648a615528565b61306f8a828b61477c565b604080516001600160a01b03808c168252808e1660208301528c1681830152606081018990526080810186905260a0810183905260c0810184905290517f0874b2d545cb271cdbda4e093020c452328b24af12382ed62c4d00f5c26709db9181900360e00190a160016000559a9950505050505050505050565b60266020526000908152604090205481565b60125481565b600081613110575060006119e0565b611db8838361311e86613ba7565b613fb2565b6003546001600160a01b031681565b6001600160a01b03831660009081526024602090815260408083205460259092528220548285821161316d576131688683614b98565b613177565b6131778287614b98565b90506000613189836119d58685614823565b9050868311600061319a8689614b3e565b90506000826131b2576131ad8285614b3e565b6131bc565b6131bc8285614b98565b90506131cc816119d58c85614823565b9b9a5050505050505050505050565b60165462010000900460ff1681565b600f5481565b6000816131ff575060006119e0565b611db8838361311e86612ac9565b6132156148be565b6001600160a01b03919091166000908152601a60205260409020805460ff1916911515919091179055565b601e6020526000908152604090205460ff1681565b6012546001600160a01b0382166000908152602260205260408120549091429161327e91614b3e565b111561328c57506000612c18565b6012546001600160a01b03831660009081526022602052604081205490916132b9916119d5904290614b98565b6001600160a01b038416600090815260096020526040902054909150806132e557600092505050612c18565b6001600160a01b0384166000908152601c602052604081205460ff1661330d57600654613311565b6007545b6001600160a01b0386166000908152600a602052604090205490915061334a9083906119d5908690613344908690614823565b90614823565b95945050505050565b602a6020526000908152604090205481565b61336d6148be565b6001600160a01b0382166000908152602e6020526040902054808211156133a7576133a18361339c8484614b98565b614fa7565b506133bc565b6133ba836133b58385614b98565b614461565b505b5050565b600b5481565b6016546040805163b1cc53ab60e01b81526001600160a01b038681166004830152858116602483015284151560448301529151600093600160281b90049092169163b1cc53ab91606480820192602092909190829003018186803b15801561342d57600080fd5b505afa158015613441573d6000803e3d6000fd5b505050506040513d602081101561345757600080fd5b5051949350505050565b600a6020526000908152604090205481565b60065481565b60216020526000908152604090205481565b6016546040805163c7e074c360e01b81526001600160a01b03888116600483015260248201889052604482018790526064820186905284151560848301529151600093600160281b90049092169163c7e074c39160a480820192602092909190829003018186803b1580156134ff57600080fd5b505afa158015613513573d6000803e3d6000fd5b505050506040513d602081101561352957600080fd5b50519695505050505050565b61353d6148be565b6133ba6001600160a01b03831684836155cb565b6135596148be565b600180546001600160a01b0319166001600160a01b0392909216919091179055565b6135836148be565b601455565b6135906148be565b61359f61271082116002614308565b600b55565b6016546040805163d54d5a9f60e01b81526001600160a01b038881166004830152878116602483015286811660448301528515156064830152841515608483015282516000948594600160281b9091049092169263d54d5a9f9260a4808301939192829003018186803b15801561361a57600080fd5b505afa15801561362e573d6000803e3d6000fd5b505050506040513d604081101561364457600080fd5b508051602090910151909890975095505050505050565b60226020526000908152604090205481565b60155481565b6016546040805163369d949360e21b81526001600160a01b0389811660048301528881166024830152878116604483015286151560648301526084820186905260a482018590529151600093600160281b90049092169163da76524c9160c480820192602092909190829003018186803b1580156136f057600080fd5b505afa158015613704573d6000803e3d6000fd5b505050506040513d602081101561371a57600080fd5b5051979650505050505050565b602d6020526000908152604090205460ff1681565b601d6020526000908152604090205460ff1681565b60008060006137638a8a8a8a88612747565b909250905060006137748a87614b3e565b9050600088156137a357836137925761378d8284614b98565b61379c565b61379c8284614b3e565b90506137c4565b836137b7576137b28284614b3e565b6137c1565b6137c18284614b98565b90505b6137d2816119d58a85614823565b9450505050505b979650505050505050565b602b5481565b60026000541415613830576040805162461bcd60e51b815260206004820152601f6024820152600080516020615c99833981519152604482015290519081900360640190fd5b6002600055601654600160201b900460ff161561386557336000908152601960205260409020546138659060ff166022614308565b61386f8484613fec565b600061387d86868686611bb0565b9050613887615c46565b50600081815260086020908152604091829020825160e08101845281548082526001830154938201939093526002820154938101939093526003810154606084015260048101546080840152600581015460a08401526006015460c08301526138f39015156023614308565b6000806139048989898960006135a4565b9150915061391782600014156024614308565b816002141561393e57613934898989600087600001518b8f615065565b5050505050613b95565b600061394a8983613101565b6001600160a01b038a166000908152602360205260409020549091506139709082614b3e565b6001600160a01b038a1660008181526023602090815260409182902093909355805191825291810184905280820183905290517f5d0c0019d3d45fadeb74eff9d2c9924d146d000ac6bcf3c28bf0ac3c9baa011a9181900360600190a16139db89856080015161561d565b8615613a0a57602084015184516139fc918b916139f791614b98565b614d1a565b613a0a896121778b85613101565b600087613a1f57613a1a89613ba7565b613a28565b613a2889612ac9565b90507f2e1f85a64a2f22cf2f0c42584e7c919ed4abe8d53675cff0f62bf1e95a1c676f868c8c8c8c8a600001518b602001518c608001518d60a001518a604051808b81526020018a6001600160a01b03168152602001896001600160a01b03168152602001886001600160a01b0316815260200187151581526020018681526020018581526020018481526020018381526020018281526020019a505050505050505050505060405180910390a187158015613ae75750846020015183105b15613b15576020850151600090613afe9085614b98565b9050613b138b613b0e8d84613101565b614d96565b505b87613b2857613b288986600001516156d4565b600086815260086020526040812081815560018101829055600281018290556003810182905560048101829055600580820183905560069091019190915554613b78908b90612177908290613101565b613b8e8a613b888c600554613101565b8961477c565b5050505050505b50506001600055505050565b60105481565b6001600160a01b0381166000908152601e602052604081205460ff168015613bd1575060305460ff165b15613c35576004805460408051635ae6916360e01b81526001600160a01b0386811694820194909452600160248201526000604482015290519290911691635ae6916391606480820192602092909190829003018186803b158015612b5757600080fd5b6004805460408051635ae6916360e01b81526001600160a01b0386811694820194909452600160248201819052604482015290519290911691635ae6916391606480820192602092909190829003018186803b158015612be957600080fd5b602c8181548110613ca157fe5b6000918252602090912001546001600160a01b0316905081565b613cc36148be565b6001600160a01b0381166000908152602d6020526040902054613cea9060ff16600d614308565b6001600160a01b0381166000908152602a6020526040902054602b54613d0f91614b98565b602b556001600160a01b0381166000908152602d60209081526040808320805460ff1990811690915560288352818420849055602a8352818420849055601b8352818420849055602f8352818420849055601c8352818420805482169055601d90925290912080549091169055601354613d8a906001614b98565b60135550565b613d986148be565b6001600160a01b0388166000908152602d602052604090205460ff16613e1557601354613dc6906001614b3e565b601355602c80546001810182556000919091527f7416c943b4a09859521022fd2e90eac0dd9026dad28fa317782a135f28a860910180546001600160a01b0319166001600160a01b038a161790555b602b546001600160a01b0389166000908152602a6020526040902054613e3c908290614b98565b6001600160a01b038a166000908152602d602090815260408083208054600160ff1991821617909155602883528184208d9055602a83528184208c9055601b83528184208b9055602f83528184208a9055601c8352818420805482168a1515179055601d835281842080548216891515179055601e90925290912080549091168415151790559050613ece8188614b3e565b602b55505050505050505050565b613ee46148be565b6001600160a01b03909116600090815260266020526040902055565b602080526000908152604090205481565b613f196148be565b60168054911515600160201b0264ff0000000019909216919091179055565b6000613f426148be565b6001600160a01b03831660009081526023602052604090205480613f6a5760009150506119e0565b6001600160a01b038416600090815260236020526040812055611db884828561477c565b601a6020526000908152604090205460ff1681565b6002546001600160a01b031681565b600082613fc157506000611db8565b6001600160a01b03841660009081526028602052604090205461334a836119d586600a85900a614823565b6016546040805163fbfded6d60e01b81526001600160a01b03858116600483015284811660248301529151600093600160281b90049092169163fbfded6d9160448082019260209290919082900301818787803b15801561404c57600080fd5b505af1158015614060573d6000803e3d6000fd5b505050506040513d602081101561407657600080fd5b505190508061408557506133bc565b6001600160a01b0383166000908152602260205260409020546140d2576012546140b390613344428261487c565b6001600160a01b038416600090815260226020526040902055506133bc565b6012546001600160a01b03841660009081526022602052604090205442916140fa9190614b3e565b111561410657506133bc565b600061411184613255565b6001600160a01b0385166000908152602160205260409020549091506141379082614b3e565b6001600160a01b03851660009081526021602052604090205560125461416190613344428261487c565b6001600160a01b03851660008181526022602090815260408083209490945560218152908390205483519283529082015281517fa146fc154e1913322e9817d49f0d5c37466c24326e15de10e739a948be815eab929181900390910190a150505050565b6016546040805163fdaf6ac360e01b81526001600160a01b038881166004830152878116602483015286811660448301528515156064830152608482018590529151600093600160281b90049092169163fdaf6ac39160a480820192602092909190829003018186803b1580156134ff57600080fd5b60276020908152600091825260409182902080548351601f6002600019610100600186161502019093169290920491820184900484028101840190945280845290918301828280156142ce5780601f106142a3576101008083540402835291602001916142ce565b820191906000526020600020905b8154815290600101906020018083116142b157829003601f168201915b505050505081565b6016546301000000900460ff161561430657336000908152601a60205260409020546143069060ff166036614308565b565b6000818152602760205260409020826133ba5760405162461bcd60e51b81526020600482019081528254600260001961010060018416150201909116046024830181905290918291604490910190849080156143a55780601f1061437a576101008083540402835291602001916143a5565b820191906000526020600020905b81548152906001019060200180831161438857829003601f168201915b50509250505060405180910390fd5b6001600160a01b03811660008181526029602090815260408083205481516370a0823160e01b8152306004820152915193949093859391926370a08231926024808301939192829003018186803b15801561440e57600080fd5b505afa158015614422573d6000803e3d6000fd5b505050506040513d602081101561443857600080fd5b50516001600160a01b03851660009081526029602052604090208190559050612dfd8183614b98565b6001600160a01b0382166000908152602e60205260409020548181116144dc576001600160a01b0383166000818152602e60209081526040808320929092558151928352820183905280517fec47cc044bef28293f4a873e76cadf7029a60922b8fb2655f475fd89b3bfc0f69281900390910190a1506133bc565b6144e68183614b98565b6001600160a01b0384166000818152602e602090815260409182902093909355805191825291810184905281517fec47cc044bef28293f4a873e76cadf7029a60922b8fb2655f475fd89b3bfc0f6929181900390910190a1505050565b604080518082018252601a81527f5661756c743a20706f6f6c416d6f756e742065786365656465640000000000006020808301919091526001600160a01b03851660009081526009909152919091205461459e91839061573c565b6001600160a01b0383166000908152600960209081526040808320849055600a9091529020546145d19110156032614308565b604080516001600160a01b03841681526020810183905281517f112726233fbeaeed0f5b1dba5cb0b2b81883dee49fb35ff99fd98ed9f6d31eb0929181900390910190a15050565b6000816001600160a01b03166370a08231306040518263ffffffff1660e01b815260040180826001600160a01b0316815260200191505060206040518083038186803b15801561466857600080fd5b505afa15801561467c573d6000803e3d6000fd5b505050506040513d602081101561469257600080fd5b50516001600160a01b0390921660009081526029602052604090209190915550565b6000806146d16127106119d56146ca8287614b98565b8790614823565b905060006146df8583614b98565b6001600160a01b0387166000908152602360205260409020549091506147059082614b3e565b6001600160a01b0387166000908152602360205260409020557f47cd9dda0e50ce30bcaaacd0488452b596221c07ac402a581cfae4d3933cac2b8661474a818461198d565b604080516001600160a01b0390931683526020830191909152818101849052519081900360600190a150949350505050565b6147906001600160a01b03841682846155cb565b604080516370a0823160e01b815230600482015290516001600160a01b038516916370a08231916024808301926020929190829003018186803b1580156147d657600080fd5b505afa1580156147ea573d6000803e3d6000fd5b505050506040513d602081101561480057600080fd5b50516001600160a01b039093166000908152602960205260409020929092555050565b600082614832575060006119e0565b8282028284828161483f57fe5b0414611db85760405162461bcd60e51b8152600401808060200182810382526021815260200180615cb96021913960400191505060405180910390fd5b6000611db883836040518060400160405280601a81526020017f536166654d6174683a206469766973696f6e206279207a65726f000000000000815250615796565b600154614306906001600160a01b031633146035614308565b6014546148e357614306565b6143066014543a11156037614308565b336001600160a01b038216141561490957614953565b6002546001600160a01b031633141561492157614953565b6001600160a01b03811660009081526018602090815260408083203384529091529020546149539060ff166029614308565b50565b80156149cf5761497b826001600160a01b0316846001600160a01b031614602a614308565b6001600160a01b0383166000908152602d60205260409020546149a29060ff16602b614308565b6001600160a01b0383166000908152601c60205260409020546149ca9060ff1615602c614308565b6133ba565b6001600160a01b0383166000908152602d60208190526040909120546149fa9160ff90911690614308565b6001600160a01b0383166000908152601c6020526040902054614a219060ff16602e614308565b6001600160a01b0382166000908152601c6020526040902054614a499060ff1615602f614308565b6001600160a01b0382166000908152601d60205260409020546133ba9060ff166030614308565b600080614a8089898989896141c5565b90506000614a928a8a8a8a8989613673565b9050614a9e8282614b3e565b91506000614aac8a84613101565b6001600160a01b038b16600090815260236020526040902054909150614ad29082614b3e565b6001600160a01b038b1660008181526023602090815260409182902093909355805191825291810185905280820183905290517f5d0c0019d3d45fadeb74eff9d2c9924d146d000ac6bcf3c28bf0ac3c9baa011a9181900360600190a150909998505050505050505050565b600082820183811015611db8576040805162461bcd60e51b815260206004820152601b60248201527f536166654d6174683a206164646974696f6e206f766572666c6f770000000000604482015290519081900360640190fd5b6000611db883836040518060400160405280601e81526020017f536166654d6174683a207375627472616374696f6e206f766572666c6f77000081525061573c565b81614bf057614beb81156027614308565b6133bc565b6133bc818310156028614308565b6001600160a01b0382166000908152600a6020526040902054614c219082614b3e565b6001600160a01b0383166000908152600a6020818152604080842085905560098252909220549152614c569111156034614308565b604080516001600160a01b03841681526020810183905281517faa5649d82f5462be9d19b0f2b31a59b2259950a6076550bac9f3a1c07db9f66d929181900390910190a15050565b6001600160a01b0382166000908152602080526040902054614cc09082614b3e565b6001600160a01b0383166000818152602080805260409182902093909355805191825291810183905281517fd9d4761f75e0d0103b5cbeab941eeb443d7a56a35b5baf2a0787c03f03f4e474929181900390910190a15050565b6001600160a01b0382166000908152602080526040902054614d3c9082614b98565b6001600160a01b0383166000818152602080805260409182902093909355805191825291810183905281517f34e07158b9db50df5613e591c44ea2ebc82834eff4a4dc3a46e000e608261d68929181900390910190a15050565b6001600160a01b038216600090815260096020526040902054614db99082614b3e565b6001600160a01b03831660008181526009602090815260408083209490945583516370a0823160e01b8152306004820152935191936370a082319260248083019392829003018186803b158015614e0f57600080fd5b505afa158015614e23573d6000803e3d6000fd5b505050506040513d6020811015614e3957600080fd5b50516001600160a01b038416600090815260096020526040902054909150614e65908210156031614308565b604080516001600160a01b03851681526020810184905281517f976177fbe09a15e5e43f848844963a42b41ef919ef17ff21a17a5421de8f4737929181900390910190a1505050565b6001600160a01b038216600090815260246020526040902054614ed19082614b3e565b6001600160a01b03831660009081526024602090815260408083209390935560269052205480156133ba578060246000856001600160a01b03166001600160a01b031681526020019081526020016000205411156040518060400160405280601a81526020017f5661756c743a206d61782073686f72747320657863656564656400000000000081525090611b655760405162461bcd60e51b8152602060048201818152835160248401528351909283926044909101919085019080838360008315611b10578181015183820152602001611af8565b6001600160a01b0382166000908152602e6020526040902054614fca9082614b3e565b6001600160a01b0383166000908152602e6020908152604080832093909355602f90522054801561501c576001600160a01b0383166000908152602e602052604090205461501c908210156033614308565b604080516001600160a01b03851681526020810184905281517f982ef4a8d5cbd9ece9ad1dabc077a621c58fd63f622a48b0a05011d54a2466ab929181900390910190a1505050565b601654604080516381d11a2360e01b81526001600160a01b038a8116600483015289811660248301528881166044830152606482018890526084820187905285151560a483015284811660c48301529151600093600160281b9004909216916381d11a239160e4808201928692909190829003018186803b1580156150e957600080fd5b505afa1580156150fd573d6000803e3d6000fd5b5050505061510b8787613fec565b600061511989898987611bb0565b600081815260086020526040902080549192509061513a901515601f614308565b61514c86826000015410156020614308565b61515e87826001015410156021614308565b60018101548154600483015460009161517b916119d5908b614823565b600484015490915061518d9082614b98565b600484015561519c8b8261561d565b506000806151ae8d8d8d8d8d8d6157fb565b855491935091508914615352576151c68c8c8a6133c6565b600385015583546151d7908a614b98565b80855560018501546151e99190614bda565b6151f78d8d8d8b60016135a4565b505087156152245761521a8c612150866001015486614b9890919063ffffffff16565b6152248c8a614d1a565b600088615239576152348c613ba7565b615242565b6152428c612ac9565b90507f93d75d64d1f84fc6f430a64fc578bdd4c1e090e90ea2d51773e626d19de56d30868f8f8f8f8f8f886152778c8c614b98565b60408051998a526001600160a01b0398891660208b015296881689880152949096166060880152608087019290925260a0860152151560c085015260e084019290925261010083019190915251908190036101200190a18454600186015460028701546003880154600489015460058a0154604080518d81526020810197909752868101959095526060860193909352608085019190915260a084015260c083015260e08201839052517f20853733b590dce729d9f4628682ebd9a34d2354e72679e66f43a008fc03b773918190036101000190a1506154c6565b871561536c576153628c84614c9e565b61536c8c8a614d1a565b6000886153815761537c8c613ba7565b61538a565b61538a8c612ac9565b90507f93d75d64d1f84fc6f430a64fc578bdd4c1e090e90ea2d51773e626d19de56d30868f8f8f8f8f8f886153bf8c8c614b98565b60408051998a526001600160a01b0398891660208b015296881689880152949096166060880152608087019290925260a0860152151560c085015260e084019290925261010083019190915251908190036101200190a18454600186015460028701546003880154600489015460058a0154604080518d81526020810197909752868101959095526060860193909352608085019190915260a084015260c0830152517f73af1d417d82c240fdb6d319b34ad884487c6bf2845d98980cc52ad9171cb4559181900360e00190a15060008581526008602052604081208181556001810182905560028101829055600381018290556004810182905560058101829055600601555b876154d5576154d58b8a6156d4565b81156155155787156154ef576154ef8c6121778e85613101565b60006154fb8d83613101565b90506155088d828a61477c565b95506137d9945050505050565b5060009c9b505050505050505050505050565b6001600160a01b0381166000908152601f6020908152604080832054600990925290912054101561495357604080518082018252601a81527f5661756c743a20706f6f6c416d6f756e74203c206275666665720000000000006020808301918252925162461bcd60e51b81526004810193845282516024820152825192939283926044909201919080838360008315611b10578181015183820152602001611af8565b604080516001600160a01b038416602482015260448082018490528251808303909101815260649091019091526020810180516001600160e01b031663a9059cbb60e01b1790526133ba9084906159f5565b604080518082018252601b81527f5661756c743a20696e73756666696369656e74207265736572766500000000006020808301919091526001600160a01b0385166000908152600a909152919091205461567891839061573c565b6001600160a01b0383166000818152600a602090815260409182902093909355805191825291810183905281517f533cb5ed32be6a90284e96b5747a1bfc2d38fdb5768a6b5f67ff7d62144ed67b929181900390910190a15050565b6001600160a01b0382166000908152602460205260409020548082111561571457506001600160a01b0382166000908152602460205260408120556133bc565b61571e8183614b98565b6001600160a01b038416600090815260246020526040902055505050565b6000818484111561578e5760405162461bcd60e51b8152602060048201818152835160248401528351909283926044909101919085019080838360008315611b10578181015183820152602001611af8565b505050900390565b600081836157e55760405162461bcd60e51b8152602060048201818152835160248401528351909283926044909101919085019080838360008315611b10578181015183820152602001611af8565b5060008385816157f157fe5b0495945050505050565b600080600061580c89898987611bb0565b6000818152600860205260408120805460038201549394509092615839918d918d918d918b918d91614a70565b905060008060008061585a8d876000015488600201548d8a60060154612747565b87549195508593509150615872906119d58d84614823565b9250505060008280156158855750600082115b156158b557506005840180548201905580886158b55760006158a78e84613101565b90506158b38e82614543565b505b821580156158c35750600082115b156159075760018501546158d79083614b98565b6001860155886158fb5760006158ed8e84613101565b90506158f98e82614d96565b505b60058501805483900390555b8a1561592f57615917818c614b3e565b6001860154909150615929908c614b98565b60018601555b84548a1415615952576001850154615948908290614b3e565b6000600187015590505b808481111561596c576159658286614b98565b90506159a0565b600186015461597b9086614b98565b600187015589156159a05760006159928f87613101565b905061599e8f82614543565b505b60408051888152851515602082015280820185905290517f3ff41bdde87755b687ae83d0221a232b6be51a803330ed9661c1b5d0105e0d8a9181900360600190a1909e909d509b505050505050505050505050565b6060615a4a826040518060400160405280602081526020017f5361666545524332303a206c6f772d6c6576656c2063616c6c206661696c6564815250856001600160a01b0316615aa69092919063ffffffff16565b8051909150156133ba57808060200190516020811015615a6957600080fd5b50516133ba5760405162461bcd60e51b815260040180806020018281038252602a815260200180615cda602a913960400191505060405180910390fd5b6060612dfd84846000858560006060866001600160a01b031685876040518082805190602001908083835b60208310615af05780518252601f199092019160209182019101615ad1565b6001836020036101000a03801982511681845116808217855250505050505090500191505060006040518083038185875af1925050503d8060008114615b52576040519150601f19603f3d011682016040523d82523d6000602084013e615b57565b606091505b50915091506137d982828660608315615b71575081611db8565b825115615b815782518084602001fd5b60405162461bcd60e51b8152602060048201818152845160248401528451859391928392604401919085019080838360008315611b10578181015183820152602001611af8565b828054600181600116156101000203166002900490600052602060002090601f016020900481019282601f10615c095782800160ff19823516178555615c36565b82800160010185558215615c36579182015b82811115615c36578235825591602001919060010190615c1b565b50615c42929150615c83565b5090565b6040518060e00160405280600081526020016000815260200160008152602001600081526020016000815260200160008152602001600081525090565b5b80821115615c425760008155600101615c8456fe5265656e7472616e637947756172643a207265656e7472616e742063616c6c00536166654d6174683a206d756c7469706c69636174696f6e206f766572666c6f775361666545524332303a204552433230206f7065726174696f6e20646964206e6f742073756363656564a2646970667358221220113074d5f7b5624c9dfbae422188bbfe3e9eef57868473dca043d9551edb01c664736f6c634300060c0033",
  "devdoc": {
    "kind": "dev",
    "methods": {},
    "version": 1
  },
  "userdoc": {
    "kind": "user",
    "methods": {},
    "version": 1
  },
  "storageLayout": {
    "storage": [
      {
        "astId": 15251,
        "contract": "contracts/core/Vault.sol:Vault",
        "label": "_status",
        "offset": 0,
        "slot": "0",
        "type": "t_uint256"
      },
      {
        "astId": 12419,
        "contract": "contracts/core/Vault.sol:Vault",
        "label": "gov",
        "offset": 0,
        "slot": "1",
        "type": "t_address"
      },
      {
        "astId": 12422,
        "contract": "contracts/core/Vault.sol:Vault",
        "label": "isInitialized",
        "offset": 20,
        "slot": "1",
        "type": "t_bool"
      },
      {
        "astId": 12425,
        "contract": "contracts/core/Vault.sol:Vault",
        "label": "router",
        "offset": 0,
        "slot": "2",
        "type": "t_address"
      },
      {
        "astId": 12428,
        "contract": "contracts/core/Vault.sol:Vault",
        "label": "zkusd",
        "offset": 0,
        "slot": "3",
        "type": "t_address"
      },
      {
        "astId": 12431,
        "contract": "contracts/core/Vault.sol:Vault",
        "label": "priceFeed",
        "offset": 0,
        "slot": "4",
        "type": "t_address"
      },
      {
        "astId": 12434,
        "contract": "contracts/core/Vault.sol:Vault",
        "label": "liquidationFeeUsd",
        "offset": 0,
        "slot": "5",
        "type": "t_uint256"
      },
      {
        "astId": 12437,
        "contract": "contracts/core/Vault.sol:Vault",
        "label": "fundingRateFactor",
        "offset": 0,
        "slot": "6",
        "type": "t_uint256"
      },
      {
        "astId": 12440,
        "contract": "contracts/core/Vault.sol:Vault",
        "label": "stableFundingRateFactor",
        "offset": 0,
        "slot": "7",
        "type": "t_uint256"
      },
      {
        "astId": 12444,
        "contract": "contracts/core/Vault.sol:Vault",
        "label": "positions",
        "offset": 0,
        "slot": "8",
        "type": "t_mapping(t_bytes32,t_struct(Position)13534_storage)"
      },
      {
        "astId": 12449,
        "contract": "contracts/core/Vault.sol:Vault",
        "label": "poolAmounts",
        "offset": 0,
        "slot": "9",
        "type": "t_mapping(t_address,t_uint256)"
      },
      {
        "astId": 12454,
        "contract": "contracts/core/Vault.sol:Vault",
        "label": "reservedAmounts",
        "offset": 0,
        "slot": "10",
        "type": "t_mapping(t_address,t_uint256)"
      },
      {
        "astId": 12460,
        "contract": "contracts/core/Vault.sol:Vault",
        "label": "maxLeverage",
        "offset": 0,
        "slot": "11",
        "type": "t_uint256"
      },
      {
        "astId": 12464,
        "contract": "contracts/core/Vault.sol:Vault",
        "label": "taxBasisPoints",
        "offset": 0,
        "slot": "12",
        "type": "t_uint256"
      },
      {
        "astId": 12468,
        "contract": "contracts/core/Vault.sol:Vault",
        "label": "stableTaxBasisPoints",
        "offset": 0,
        "slot": "13",
        "type": "t_uint256"
      },
      {
        "astId": 12472,
        "contract": "contracts/core/Vault.sol:Vault",
        "label": "mintBurnFeeBasisPoints",
        "offset": 0,
        "slot": "14",
        "type": "t_uint256"
      },
      {
        "astId": 12476,
        "contract": "contracts/core/Vault.sol:Vault",
        "label": "swapFeeBasisPoints",
        "offset": 0,
        "slot": "15",
        "type": "t_uint256"
      },
      {
        "astId": 12480,
        "contract": "contracts/core/Vault.sol:Vault",
        "label": "stableSwapFeeBasisPoints",
        "offset": 0,
        "slot": "16",
        "type": "t_uint256"
      },
      {
        "astId": 12484,
        "contract": "contracts/core/Vault.sol:Vault",
        "label": "marginFeeBasisPoints",
        "offset": 0,
        "slot": "17",
        "type": "t_uint256"
      },
      {
        "astId": 12488,
        "contract": "contracts/core/Vault.sol:Vault",
        "label": "fundingInterval",
        "offset": 0,
        "slot": "18",
        "type": "t_uint256"
      },
      {
        "astId": 12491,
        "contract": "contracts/core/Vault.sol:Vault",
        "label": "whitelistedTokenCount",
        "offset": 0,
        "slot": "19",
        "type": "t_uint256"
      },
      {
        "astId": 12494,
        "contract": "contracts/core/Vault.sol:Vault",
        "label": "maxGasPrice",
        "offset": 0,
        "slot": "20",
        "type": "t_uint256"
      },
      {
        "astId": 12497,
        "contract": "contracts/core/Vault.sol:Vault",
        "label": "minProfitTime",
        "offset": 0,
        "slot": "21",
        "type": "t_uint256"
      },
      {
        "astId": 12501,
        "contract": "contracts/core/Vault.sol:Vault",
        "label": "isSwapEnabled",
        "offset": 0,
        "slot": "22",
        "type": "t_bool"
      },
      {
        "astId": 12505,
        "contract": "contracts/core/Vault.sol:Vault",
        "label": "isLeverageEnabled",
        "offset": 1,
        "slot": "22",
        "type": "t_bool"
      },
      {
        "astId": 12509,
        "contract": "contracts/core/Vault.sol:Vault",
        "label": "hasDynamicFees",
        "offset": 2,
        "slot": "22",
        "type": "t_bool"
      },
      {
        "astId": 12513,
        "contract": "contracts/core/Vault.sol:Vault",
        "label": "inManagerMode",
        "offset": 3,
        "slot": "22",
        "type": "t_bool"
      },
      {
        "astId": 12517,
        "contract": "contracts/core/Vault.sol:Vault",
        "label": "inPrivateLiquidationMode",
        "offset": 4,
        "slot": "22",
        "type": "t_bool"
      },
      {
        "astId": 12519,
        "contract": "contracts/core/Vault.sol:Vault",
        "label": "vaultUtils",
        "offset": 5,
        "slot": "22",
        "type": "t_contract(IVaultUtils)7568"
      },
      {
        "astId": 12521,
        "contract": "contracts/core/Vault.sol:Vault",
        "label": "errorController",
        "offset": 0,
        "slot": "23",
        "type": "t_address"
      },
      {
        "astId": 12528,
        "contract": "contracts/core/Vault.sol:Vault",
        "label": "approvedRouters",
        "offset": 0,
        "slot": "24",
        "type": "t_mapping(t_address,t_mapping(t_address,t_bool))"
      },
      {
        "astId": 12533,
        "contract": "contracts/core/Vault.sol:Vault",
        "label": "isLiquidator",
        "offset": 0,
        "slot": "25",
        "type": "t_mapping(t_address,t_bool)"
      },
      {
        "astId": 12538,
        "contract": "contracts/core/Vault.sol:Vault",
        "label": "isManager",
        "offset": 0,
        "slot": "26",
        "type": "t_mapping(t_address,t_bool)"
      },
      {
        "astId": 12543,
        "contract": "contracts/core/Vault.sol:Vault",
        "label": "minProfitBasisPoints",
        "offset": 0,
        "slot": "27",
        "type": "t_mapping(t_address,t_uint256)"
      },
      {
        "astId": 12548,
        "contract": "contracts/core/Vault.sol:Vault",
        "label": "stableTokens",
        "offset": 0,
        "slot": "28",
        "type": "t_mapping(t_address,t_bool)"
      },
      {
        "astId": 12553,
        "contract": "contracts/core/Vault.sol:Vault",
        "label": "shortableTokens",
        "offset": 0,
        "slot": "29",
        "type": "t_mapping(t_address,t_bool)"
      },
      {
        "astId": 12558,
        "contract": "contracts/core/Vault.sol:Vault",
        "label": "equityTokens",
        "offset": 0,
        "slot": "30",
        "type": "t_mapping(t_address,t_bool)"
      },
      {
        "astId": 12563,
        "contract": "contracts/core/Vault.sol:Vault",
        "label": "bufferAmounts",
        "offset": 0,
        "slot": "31",
        "type": "t_mapping(t_address,t_uint256)"
      },
      {
        "astId": 12568,
        "contract": "contracts/core/Vault.sol:Vault",
        "label": "guaranteedUsd",
        "offset": 0,
        "slot": "32",
        "type": "t_mapping(t_address,t_uint256)"
      },
      {
        "astId": 12573,
        "contract": "contracts/core/Vault.sol:Vault",
        "label": "cumulativeFundingRates",
        "offset": 0,
        "slot": "33",
        "type": "t_mapping(t_address,t_uint256)"
      },
      {
        "astId": 12578,
        "contract": "contracts/core/Vault.sol:Vault",
        "label": "lastFundingTimes",
        "offset": 0,
        "slot": "34",
        "type": "t_mapping(t_address,t_uint256)"
      },
      {
        "astId": 12583,
        "contract": "contracts/core/Vault.sol:Vault",
        "label": "feeReserves",
        "offset": 0,
        "slot": "35",
        "type": "t_mapping(t_address,t_uint256)"
      },
      {
        "astId": 12588,
        "contract": "contracts/core/Vault.sol:Vault",
        "label": "globalShortSizes",
        "offset": 0,
        "slot": "36",
        "type": "t_mapping(t_address,t_uint256)"
      },
      {
        "astId": 12593,
        "contract": "contracts/core/Vault.sol:Vault",
        "label": "globalShortAveragePrices",
        "offset": 0,
        "slot": "37",
        "type": "t_mapping(t_address,t_uint256)"
      },
      {
        "astId": 12598,
        "contract": "contracts/core/Vault.sol:Vault",
        "label": "maxGlobalShortSizes",
        "offset": 0,
        "slot": "38",
        "type": "t_mapping(t_address,t_uint256)"
      },
      {
        "astId": 12602,
        "contract": "contracts/core/Vault.sol:Vault",
        "label": "errors",
        "offset": 0,
        "slot": "39",
        "type": "t_mapping(t_uint256,t_string_storage)"
      },
      {
        "astId": 12607,
        "contract": "contracts/core/Vault.sol:Vault",
        "label": "tokenDecimals",
        "offset": 0,
        "slot": "40",
        "type": "t_mapping(t_address,t_uint256)"
      },
      {
        "astId": 12612,
        "contract": "contracts/core/Vault.sol:Vault",
        "label": "tokenBalances",
        "offset": 0,
        "slot": "41",
        "type": "t_mapping(t_address,t_uint256)"
      },
      {
        "astId": 12617,
        "contract": "contracts/core/Vault.sol:Vault",
        "label": "tokenWeights",
        "offset": 0,
        "slot": "42",
        "type": "t_mapping(t_address,t_uint256)"
      },
      {
        "astId": 12620,
        "contract": "contracts/core/Vault.sol:Vault",
        "label": "totalTokenWeights",
        "offset": 0,
        "slot": "43",
        "type": "t_uint256"
      },
      {
        "astId": 12624,
        "contract": "contracts/core/Vault.sol:Vault",
        "label": "allWhitelistedTokens",
        "offset": 0,
        "slot": "44",
        "type": "t_array(t_address)dyn_storage"
      },
      {
        "astId": 12629,
        "contract": "contracts/core/Vault.sol:Vault",
        "label": "whitelistedTokens",
        "offset": 0,
        "slot": "45",
        "type": "t_mapping(t_address,t_bool)"
      },
      {
        "astId": 12634,
        "contract": "contracts/core/Vault.sol:Vault",
        "label": "zkusdAmounts",
        "offset": 0,
        "slot": "46",
        "type": "t_mapping(t_address,t_uint256)"
      },
      {
        "astId": 12639,
        "contract": "contracts/core/Vault.sol:Vault",
        "label": "maxZkusdAmounts",
        "offset": 0,
        "slot": "47",
        "type": "t_mapping(t_address,t_uint256)"
      },
      {
        "astId": 12641,
        "contract": "contracts/core/Vault.sol:Vault",
        "label": "allowStaleEquityPrice",
        "offset": 0,
        "slot": "48",
        "type": "t_bool"
      }
    ],
    "types": {
      "t_address": {
        "encoding": "inplace",
        "label": "address",
        "numberOfBytes": "20"
      },
      "t_array(t_address)dyn_storage": {
        "base": "t_address",
        "encoding": "dynamic_array",
        "label": "address[]",
        "numberOfBytes": "32"
      },
      "t_bool": {
        "encoding": "inplace",
        "label": "bool",
        "numberOfBytes": "1"
      },
      "t_bytes32": {
        "encoding": "inplace",
        "label": "bytes32",
        "numberOfBytes": "32"
      },
      "t_contract(IVaultUtils)7568": {
        "encoding": "inplace",
        "label": "contract IVaultUtils",
        "numberOfBytes": "20"
      },
      "t_int256": {
        "encoding": "inplace",
        "label": "int256",
        "numberOfBytes": "32"
      },
      "t_mapping(t_address,t_bool)": {
        "encoding": "mapping",
        "key": "t_address",
        "label": "mapping(address => bool)",
        "numberOfBytes": "32",
        "value": "t_bool"
      },
      "t_mapping(t_address,t_mapping(t_address,t_bool))": {
        "encoding": "mapping",
        "key": "t_address",
        "label": "mapping(address => mapping(address => bool))",
        "numberOfBytes": "32",
        "value": "t_mapping(t_address,t_bool)"
      },
      "t_mapping(t_address,t_uint256)": {
        "encoding": "mapping",
        "key": "t_address",
        "label": "mapping(address => uint256)",
        "numberOfBytes": "32",
        "value": "t_uint256"
      },
      "t_mapping(t_bytes32,t_struct(Position)13534_storage)": {
        "encoding": "mapping",
        "key": "t_bytes32",
        "label": "mapping(bytes32 => struct DataTypes.Position)",
        "numberOfBytes": "32",
        "value": "t_struct(Position)13534_storage"
      },
      "t_mapping(t_uint256,t_string_storage)": {
        "encoding": "mapping",
        "key": "t_uint256",
        "label": "mapping(uint256 => string)",
        "numberOfBytes": "32",
        "value": "t_string_storage"
      },
      "t_string_storage": {
        "encoding": "bytes",
        "label": "string",
        "numberOfBytes": "32"
      },
      "t_struct(Position)13534_storage": {
        "encoding": "inplace",
        "label": "struct DataTypes.Position",
        "members": [
          {
            "astId": 13521,
            "contract": "contracts/core/Vault.sol:Vault",
            "label": "size",
            "offset": 0,
            "slot": "0",
            "type": "t_uint256"
          },
          {
            "astId": 13523,
            "contract": "contracts/core/Vault.sol:Vault",
            "label": "collateral",
            "offset": 0,
            "slot": "1",
            "type": "t_uint256"
          },
          {
            "astId": 13525,
            "contract": "contracts/core/Vault.sol:Vault",
            "label": "averagePrice",
            "offset": 0,
            "slot": "2",
            "type": "t_uint256"
          },
          {
            "astId": 13527,
            "contract": "contracts/core/Vault.sol:Vault",
            "label": "entryFundingRate",
            "offset": 0,
            "slot": "3",
            "type": "t_uint256"
          },
          {
            "astId": 13529,
            "contract": "contracts/core/Vault.sol:Vault",
            "label": "reserveAmount",
            "offset": 0,
            "slot": "4",
            "type": "t_uint256"
          },
          {
            "astId": 13531,
            "contract": "contracts/core/Vault.sol:Vault",
            "label": "realisedPnl",
            "offset": 0,
            "slot": "5",
            "type": "t_int256"
          },
          {
            "astId": 13533,
            "contract": "contracts/core/Vault.sol:Vault",
            "label": "lastIncreasedTime",
            "offset": 0,
            "slot": "6",
            "type": "t_uint256"
          }
        ],
        "numberOfBytes": "224"
      },
      "t_uint256": {
        "encoding": "inplace",
        "label": "uint256",
        "numberOfBytes": "32"
      }
    }
  }
}