{
  "address": "0xE0D1977a23cb90252B9997aB07b03136E214E0C6",
  "abi": [
    {
      "inputs": [
        {
          "internalType": "address",
          "name": "_stakingToken",
          "type": "address"
        },
        {
          "internalType": "address",
          "name": "_rewardToken",
          "type": "address"
        },
        {
          "internalType": "uint256",
          "name": "_duration",
          "type": "uint256"
        }
      ],
      "stateMutability": "nonpayable",
      "type": "constructor"
    },
    {
      "anonymous": false,
      "inputs": [
        {
          "indexed": true,
          "internalType": "address",
          "name": "previousOwner",
          "type": "address"
        },
        {
          "indexed": true,
          "internalType": "address",
          "name": "newOwner",
          "type": "address"
        }
      ],
      "name": "OwnershipTransferred",
      "type": "event"
    },
    {
      "anonymous": false,
      "inputs": [
        {
          "indexed": false,
          "internalType": "address",
          "name": "account",
          "type": "address"
        }
      ],
      "name": "Paused",
      "type": "event"
    },
    {
      "anonymous": false,
      "inputs": [
        {
          "indexed": false,
          "internalType": "address",
          "name": "account",
          "type": "address"
        }
      ],
      "name": "Unpaused",
      "type": "event"
    },
    {
      "inputs": [
        {
          "internalType": "address",
          "name": "",
          "type": "address"
        }
      ],
      "name": "balanceOf",
      "outputs": [
        {
          "internalType": "uint256",
          "name": "",
          "type": "uint256"
        }
      ],
      "stateMutability": "view",
      "type": "function"
    },
    {
      "inputs": [],
      "name": "duration",
      "outputs": [
        {
          "internalType": "uint256",
          "name": "",
          "type": "uint256"
        }
      ],
      "stateMutability": "view",
      "type": "function"
    },
    {
      "inputs": [
        {
          "internalType": "address",
          "name": "_account",
          "type": "address"
        }
      ],
      "name": "earned",
      "outputs": [
        {
          "internalType": "uint256",
          "name": "",
          "type": "uint256"
        }
      ],
      "stateMutability": "view",
      "type": "function"
    },
    {
      "inputs": [],
      "name": "finishAt",
      "outputs": [
        {
          "internalType": "uint256",
          "name": "",
          "type": "uint256"
        }
      ],
      "stateMutability": "view",
      "type": "function"
    },
    {
      "inputs": [],
      "name": "getReward",
      "outputs": [],
      "stateMutability": "nonpayable",
      "type": "function"
    },
    {
      "inputs": [],
      "name": "lastTimeRewardApplicable",
      "outputs": [
        {
          "internalType": "uint256",
          "name": "",
          "type": "uint256"
        }
      ],
      "stateMutability": "view",
      "type": "function"
    },
    {
      "inputs": [
        {
          "internalType": "uint256",
          "name": "_amount",
          "type": "uint256"
        }
      ],
      "name": "notifyRewardAmount",
      "outputs": [],
      "stateMutability": "nonpayable",
      "type": "function"
    },
    {
      "inputs": [],
      "name": "owner",
      "outputs": [
        {
          "internalType": "address",
          "name": "",
          "type": "address"
        }
      ],
      "stateMutability": "view",
      "type": "function"
    },
    {
      "inputs": [],
      "name": "paused",
      "outputs": [
        {
          "internalType": "bool",
          "name": "",
          "type": "bool"
        }
      ],
      "stateMutability": "view",
      "type": "function"
    },
    {
      "inputs": [],
      "name": "renounceOwnership",
      "outputs": [],
      "stateMutability": "nonpayable",
      "type": "function"
    },
    {
      "inputs": [],
      "name": "rewardPerToken",
      "outputs": [
        {
          "internalType": "uint256",
          "name": "",
          "type": "uint256"
        }
      ],
      "stateMutability": "view",
      "type": "function"
    },
    {
      "inputs": [],
      "name": "rewardPerTokenStored",
      "outputs": [
        {
          "internalType": "uint256",
          "name": "",
          "type": "uint256"
        }
      ],
      "stateMutability": "view",
      "type": "function"
    },
    {
      "inputs": [],
      "name": "rewardRate",
      "outputs": [
        {
          "internalType": "uint256",
          "name": "",
          "type": "uint256"
        }
      ],
      "stateMutability": "view",
      "type": "function"
    },
    {
      "inputs": [
        {
          "internalType": "address",
          "name": "",
          "type": "address"
        }
      ],
      "name": "rewards",
      "outputs": [
        {
          "internalType": "uint256",
          "name": "",
          "type": "uint256"
        }
      ],
      "stateMutability": "view",
      "type": "function"
    },
    {
      "inputs": [],
      "name": "rewardsToken",
      "outputs": [
        {
          "internalType": "contract IERC20",
          "name": "",
          "type": "address"
        }
      ],
      "stateMutability": "view",
      "type": "function"
    },
    {
      "inputs": [
        {
          "internalType": "bool",
          "name": "_paused",
          "type": "bool"
        }
      ],
      "name": "setPaused",
      "outputs": [],
      "stateMutability": "nonpayable",
      "type": "function"
    },
    {
      "inputs": [
        {
          "internalType": "uint256",
          "name": "_duration",
          "type": "uint256"
        }
      ],
      "name": "setRewardsDuration",
      "outputs": [],
      "stateMutability": "nonpayable",
      "type": "function"
    },
    {
      "inputs": [
        {
          "internalType": "uint256",
          "name": "_amount",
          "type": "uint256"
        }
      ],
      "name": "stake",
      "outputs": [],
      "stateMutability": "nonpayable",
      "type": "function"
    },
    {
      "inputs": [],
      "name": "stakingToken",
      "outputs": [
        {
          "internalType": "contract IERC20",
          "name": "",
          "type": "address"
        }
      ],
      "stateMutability": "view",
      "type": "function"
    },
    {
      "inputs": [],
      "name": "totalSupply",
      "outputs": [
        {
          "internalType": "uint256",
          "name": "",
          "type": "uint256"
        }
      ],
      "stateMutability": "view",
      "type": "function"
    },
    {
      "inputs": [
        {
          "internalType": "address",
          "name": "newOwner",
          "type": "address"
        }
      ],
      "name": "transferOwnership",
      "outputs": [],
      "stateMutability": "nonpayable",
      "type": "function"
    },
    {
      "inputs": [],
      "name": "updatedAt",
      "outputs": [
        {
          "internalType": "uint256",
          "name": "",
          "type": "uint256"
        }
      ],
      "stateMutability": "view",
      "type": "function"
    },
    {
      "inputs": [
        {
          "internalType": "address",
          "name": "",
          "type": "address"
        }
      ],
      "name": "userRewardPerTokenPaid",
      "outputs": [
        {
          "internalType": "uint256",
          "name": "",
          "type": "uint256"
        }
      ],
      "stateMutability": "view",
      "type": "function"
    },
    {
      "inputs": [
        {
          "internalType": "uint256",
          "name": "_amount",
          "type": "uint256"
        }
      ],
      "name": "withdraw",
      "outputs": [],
      "stateMutability": "nonpayable",
      "type": "function"
    }
  ],
  "transactionHash": "0xb91a4047f511ab2476833ebcc8f8f28d7f16b5258d40cbb8139ab6e6883409de",
  "args": [
    "0x176211869cA2b568f2A7D4EE941E073a821EE1ff",
    "0x0449854533B847f4e8DD3b10E46CF37d698dAaa0",
    2592000
  ],
  "numDeployments": 1,
  "solcInputHash": "c7c7a6b8c96b897ebfd55ac03083c0c2",
  "bytecode": "0x608060405234801561001057600080fd5b506040516111be3803806111be83398101604081905261002f916100f5565b60016000819055805460ff191690556100473361007f565b600280546001600160a01b039485166001600160a01b0319918216179091556003805493909416921691909117909155600455610131565b600180546001600160a01b03838116610100818102610100600160a81b031985161790945560405193909204169182907f8be0079c531659141344cd1fd0a4f28419497f9722a3daafe3b4186f6b6457e090600090a35050565b80516001600160a01b03811681146100f057600080fd5b919050565b60008060006060848603121561010a57600080fd5b610113846100d9565b9250610121602085016100d9565b9150604084015190509250925092565b61107e806101406000396000f3fe608060405234801561001057600080fd5b50600436106101575760003560e01c806372f702f3116100c3578063a694fc3a1161007c578063a694fc3a146102ae578063cc1a378f146102c1578063cd3daf9d146102d4578063d1af0c7d146102dc578063df136d65146102ef578063f2fde38b146102f857600080fd5b806372f702f31461023e5780637519ab501461025e5780637b0a47ee1461026757806380faa57d146102705780638b876347146102785780638da5cb5b1461029857600080fd5b80633c6b16ab116101155780633c6b16ab146101dc5780633d18b912146101ef5780635c975abb146101f757806367d3b4881461020d57806370a0823114610216578063715018a61461023657600080fd5b80628cc2621461015c5780630700037d146101825780630fb5a6b4146101a257806316c38b3c146101ab57806318160ddd146101c05780632e1a7d4d146101c9575b600080fd5b61016f61016a366004610e60565b61030b565b6040519081526020015b60405180910390f35b61016f610190366004610e60565b600a6020526000908152604090205481565b61016f60045481565b6101be6101b9366004610e97565b610388565b005b61016f600b5481565b6101be6101d7366004610eb4565b6103a9565b6101be6101ea366004610eb4565b6104a4565b6101be61064d565b60015460ff166040519015158152602001610179565b61016f60055481565b61016f610224366004610e60565b600c6020526000908152604090205481565b6101be6106cd565b600254610251906001600160a01b031681565b6040516101799190610ecd565b61016f60065481565b61016f60075481565b61016f6106df565b61016f610286366004610e60565b60096020526000908152604090205481565b60015461010090046001600160a01b0316610251565b6101be6102bc366004610eb4565b6106f2565b6101be6102cf366004610eb4565b61083f565b61016f61084c565b600354610251906001600160a01b031681565b61016f60085481565b6101be610306366004610e60565b6108ad565b6001600160a01b0381166000908152600a60209081526040808320546009909252822054670de0b6b3a76400009061034161084c565b61034b9190610ef7565b6001600160a01b0385166000908152600c602052604090205461036e9190610f0a565b6103789190610f21565b6103829190610f43565b92915050565b610390610923565b80156103a15761039e610983565b50565b61039e6109d1565b6103b1610a0a565b6103b9610a63565b336103c261084c565b6008556103cd6106df565b6006556001600160a01b03811615610414576103e88161030b565b6001600160a01b0382166000908152600a60209081526040808320939093556008546009909152919020555b6000821161043d5760405162461bcd60e51b815260040161043490610f56565b60405180910390fd5b336000908152600c60205260408120805484929061045c908490610ef7565b9250508190555081600b60008282546104759190610ef7565b9091555050600254610491906001600160a01b03163384610aa9565b610499610b00565b5061039e6001600055565b6104ac610923565b60006104b661084c565b6008556104c16106df565b6006556001600160a01b03811615610508576104dc8161030b565b6001600160a01b0382166000908152600a60209081526040808320939093556008546009909152919020555b6004546105159083610f21565b60078190556105665760405162461bcd60e51b815260206004820152601e60248201527f5a6b64785374616b696e673a2072657761726420726174652077726f6e6700006044820152606401610434565b6003546040516370a0823160e01b81526001600160a01b03909116906370a0823190610596903090600401610ecd565b602060405180830381865afa1580156105b3573d6000803e3d6000fd5b505050506040513d601f19601f820116820180604052508101906105d79190610f9f565b6004546007546105e79190610f0a565b11156106355760405162461bcd60e51b815260206004820181905260248201527f5a6b64785374616b696e673a2072657761726420616d6f756e742077726f6e676044820152606401610434565b6004546106429042610f43565b600555505042600655565b610655610a0a565b61065d610a63565b3361066661084c565b6008556106716106df565b6006556001600160a01b038116156106b85761068c8161030b565b6001600160a01b0382166000908152600a60209081526040808320939093556008546009909152919020555b6106c0610b00565b506106cb6001600055565b565b6106d5610923565b6106cb6000610b3f565b60006106ed60055442610b99565b905090565b6106fa610a0a565b610702610a63565b3361070b61084c565b6008556107166106df565b6006556001600160a01b0381161561075d576107318161030b565b6001600160a01b0382166000908152600a60209081526040808320939093556008546009909152919020555b6000821161077d5760405162461bcd60e51b815260040161043490610f56565b6002546040516323b872dd60e01b8152336004820152306024820152604481018490526001600160a01b03909116906323b872dd906064016020604051808303816000875af11580156107d4573d6000803e3d6000fd5b505050506040513d601f19601f820116820180604052508101906107f89190610fb8565b50336000908152600c602052604081208054849290610818908490610f43565b9250508190555081600b60008282546108319190610f43565b909155505060016000555050565b610847610923565b600455565b6000600b5460000361085f575060085490565b600b5460065461086d6106df565b6108779190610ef7565b6007546108849190610f0a565b61089690670de0b6b3a7640000610f0a565b6108a09190610f21565b6008546106ed9190610f43565b6108b5610923565b6001600160a01b03811661091a5760405162461bcd60e51b815260206004820152602660248201527f4f776e61626c653a206e6577206f776e657220697320746865207a65726f206160448201526564647265737360d01b6064820152608401610434565b61039e81610b3f565b6001546001600160a01b036101009091041633146106cb5760405162461bcd60e51b815260206004820181905260248201527f4f776e61626c653a2063616c6c6572206973206e6f7420746865206f776e65726044820152606401610434565b61098b610a63565b6001805460ff1916811790557f62e78cea01bee320cd4e420270b5ea74000d11b0c9f74754ebdbfc544b05a258335b6040516109c79190610ecd565b60405180910390a1565b6109d9610bb2565b6001805460ff191690557f5db9ee0a495bf2e6ff9c91a7834c1ba4fdd244a5e8aa4e537bd38aeae4b073aa336109ba565b600260005403610a5c5760405162461bcd60e51b815260206004820152601f60248201527f5265656e7472616e637947756172643a207265656e7472616e742063616c6c006044820152606401610434565b6002600055565b60015460ff16156106cb5760405162461bcd60e51b815260206004820152601060248201526f14185d5cd8589b194e881c185d5cd95960821b6044820152606401610434565b604080516001600160a01b038416602482015260448082018490528251808303909101815260649091019091526020810180516001600160e01b031663a9059cbb60e01b179052610afb908490610bfb565b505050565b336000908152600a6020526040902054801561039e57336000818152600a602052604081205560035461039e916001600160a01b039091169083610aa9565b600180546001600160a01b03838116610100818102610100600160a81b031985161790945560405193909204169182907f8be0079c531659141344cd1fd0a4f28419497f9722a3daafe3b4186f6b6457e090600090a35050565b600081831115610ba95781610bab565b825b9392505050565b60015460ff166106cb5760405162461bcd60e51b815260206004820152601460248201527314185d5cd8589b194e881b9bdd081c185d5cd95960621b6044820152606401610434565b6000610c50826040518060400160405280602081526020017f5361666545524332303a206c6f772d6c6576656c2063616c6c206661696c6564815250856001600160a01b0316610cd09092919063ffffffff16565b9050805160001480610c71575080806020019051810190610c719190610fb8565b610afb5760405162461bcd60e51b815260206004820152602a60248201527f5361666545524332303a204552433230206f7065726174696f6e20646964206e6044820152691bdd081cdd58d8d9595960b21b6064820152608401610434565b6060610cdf8484600085610ce7565b949350505050565b606082471015610d485760405162461bcd60e51b815260206004820152602660248201527f416464726573733a20696e73756666696369656e742062616c616e636520666f6044820152651c8818d85b1b60d21b6064820152608401610434565b600080866001600160a01b03168587604051610d649190610ff9565b60006040518083038185875af1925050503d8060008114610da1576040519150601f19603f3d011682016040523d82523d6000602084013e610da6565b606091505b5091509150610db787838387610dc2565b979650505050505050565b60608315610e31578251600003610e2a576001600160a01b0385163b610e2a5760405162461bcd60e51b815260206004820152601d60248201527f416464726573733a2063616c6c20746f206e6f6e2d636f6e74726163740000006044820152606401610434565b5081610cdf565b610cdf8383815115610e465781518083602001fd5b8060405162461bcd60e51b81526004016104349190611015565b600060208284031215610e7257600080fd5b81356001600160a01b0381168114610bab57600080fd5b801515811461039e57600080fd5b600060208284031215610ea957600080fd5b8135610bab81610e89565b600060208284031215610ec657600080fd5b5035919050565b6001600160a01b0391909116815260200190565b634e487b7160e01b600052601160045260246000fd5b8181038181111561038257610382610ee1565b808202811582820484141761038257610382610ee1565b600082610f3e57634e487b7160e01b600052601260045260246000fd5b500490565b8082018082111561038257610382610ee1565b60208082526029908201527f5a6b64785374616b696e673a20616d6f756e74206d757374206265206269676760408201526806572207468616e20360bc1b606082015260800190565b600060208284031215610fb157600080fd5b5051919050565b600060208284031215610fca57600080fd5b8151610bab81610e89565b60005b83811015610ff0578181015183820152602001610fd8565b50506000910152565b6000825161100b818460208701610fd5565b9190910192915050565b6020815260008251806020840152611034816040850160208701610fd5565b601f01601f1916919091016040019291505056fea2646970667358221220e809c378f894e42f7095a66bd737535883b8d5e5c0f66272dd2d1836ea623f7164736f6c63430008110033",
  "devdoc": {
    "kind": "dev",
    "methods": {
      "owner()": {
        "details": "Returns the address of the current owner."
      },
      "paused()": {
        "details": "Returns true if the contract is paused, and false otherwise."
      },
      "renounceOwnership()": {
        "details": "Leaves the contract without owner. It will not be possible to call `onlyOwner` functions. Can only be called by the current owner. NOTE: Renouncing ownership will leave the contract without an owner, thereby disabling any functionality that is only available to the owner."
      },
      "transferOwnership(address)": {
        "details": "Transfers ownership of the contract to a new account (`newOwner`). Can only be called by the current owner."
      }
    },
    "version": 1
  },
  "userdoc": {
    "kind": "user",
    "methods": {},
    "version": 1
  },
  "storageLayout": {
    "storage": [
      {
        "astId": 4820,
        "contract": "contracts/staking/ZkdxStaking.sol:ZkdxStaking",
        "label": "_status",
        "offset": 0,
        "slot": "0",
        "type": "t_uint256"
      },
      {
        "astId": 4719,
        "contract": "contracts/staking/ZkdxStaking.sol:ZkdxStaking",
        "label": "_paused",
        "offset": 0,
        "slot": "1",
        "type": "t_bool"
      },
      {
        "astId": 4596,
        "contract": "contracts/staking/ZkdxStaking.sol:ZkdxStaking",
        "label": "_owner",
        "offset": 1,
        "slot": "1",
        "type": "t_address"
      },
      {
        "astId": 13827,
        "contract": "contracts/staking/ZkdxStaking.sol:ZkdxStaking",
        "label": "stakingToken",
        "offset": 0,
        "slot": "2",
        "type": "t_contract(IERC20)5539"
      },
      {
        "astId": 13830,
        "contract": "contracts/staking/ZkdxStaking.sol:ZkdxStaking",
        "label": "rewardsToken",
        "offset": 0,
        "slot": "3",
        "type": "t_contract(IERC20)5539"
      },
      {
        "astId": 13836,
        "contract": "contracts/staking/ZkdxStaking.sol:ZkdxStaking",
        "label": "duration",
        "offset": 0,
        "slot": "4",
        "type": "t_uint256"
      },
      {
        "astId": 13838,
        "contract": "contracts/staking/ZkdxStaking.sol:ZkdxStaking",
        "label": "finishAt",
        "offset": 0,
        "slot": "5",
        "type": "t_uint256"
      },
      {
        "astId": 13840,
        "contract": "contracts/staking/ZkdxStaking.sol:ZkdxStaking",
        "label": "updatedAt",
        "offset": 0,
        "slot": "6",
        "type": "t_uint256"
      },
      {
        "astId": 13842,
        "contract": "contracts/staking/ZkdxStaking.sol:ZkdxStaking",
        "label": "rewardRate",
        "offset": 0,
        "slot": "7",
        "type": "t_uint256"
      },
      {
        "astId": 13844,
        "contract": "contracts/staking/ZkdxStaking.sol:ZkdxStaking",
        "label": "rewardPerTokenStored",
        "offset": 0,
        "slot": "8",
        "type": "t_uint256"
      },
      {
        "astId": 13848,
        "contract": "contracts/staking/ZkdxStaking.sol:ZkdxStaking",
        "label": "userRewardPerTokenPaid",
        "offset": 0,
        "slot": "9",
        "type": "t_mapping(t_address,t_uint256)"
      },
      {
        "astId": 13852,
        "contract": "contracts/staking/ZkdxStaking.sol:ZkdxStaking",
        "label": "rewards",
        "offset": 0,
        "slot": "10",
        "type": "t_mapping(t_address,t_uint256)"
      },
      {
        "astId": 13854,
        "contract": "contracts/staking/ZkdxStaking.sol:ZkdxStaking",
        "label": "totalSupply",
        "offset": 0,
        "slot": "11",
        "type": "t_uint256"
      },
      {
        "astId": 13858,
        "contract": "contracts/staking/ZkdxStaking.sol:ZkdxStaking",
        "label": "balanceOf",
        "offset": 0,
        "slot": "12",
        "type": "t_mapping(t_address,t_uint256)"
      }
    ],
    "types": {
      "t_address": {
        "encoding": "inplace",
        "label": "address",
        "numberOfBytes": "20"
      },
      "t_bool": {
        "encoding": "inplace",
        "label": "bool",
        "numberOfBytes": "1"
      },
      "t_contract(IERC20)5539": {
        "encoding": "inplace",
        "label": "contract IERC20",
        "numberOfBytes": "20"
      },
      "t_mapping(t_address,t_uint256)": {
        "encoding": "mapping",
        "key": "t_address",
        "label": "mapping(address => uint256)",
        "numberOfBytes": "32",
        "value": "t_uint256"
      },
      "t_uint256": {
        "encoding": "inplace",
        "label": "uint256",
        "numberOfBytes": "32"
      }
    }
  }
}