{
  "address": "0x3e636c4dC9Bd55831055c3400160e1e8A25DaD8a",
  "abi": [
    {
      "inputs": [
        {
          "internalType": "address",
          "name": "_weth",
          "type": "address"
        },
        {
          "internalType": "address",
          "name": "_rewardToken",
          "type": "address"
        },
        {
          "internalType": "uint256",
          "name": "_duration",
          "type": "uint256"
        }
      ],
      "stateMutability": "nonpayable",
      "type": "constructor"
    },
    {
      "anonymous": false,
      "inputs": [
        {
          "indexed": true,
          "internalType": "address",
          "name": "previousOwner",
          "type": "address"
        },
        {
          "indexed": true,
          "internalType": "address",
          "name": "newOwner",
          "type": "address"
        }
      ],
      "name": "OwnershipTransferred",
      "type": "event"
    },
    {
      "anonymous": false,
      "inputs": [
        {
          "indexed": false,
          "internalType": "address",
          "name": "account",
          "type": "address"
        }
      ],
      "name": "Paused",
      "type": "event"
    },
    {
      "anonymous": false,
      "inputs": [
        {
          "indexed": false,
          "internalType": "address",
          "name": "account",
          "type": "address"
        }
      ],
      "name": "Unpaused",
      "type": "event"
    },
    {
      "inputs": [
        {
          "internalType": "address",
          "name": "",
          "type": "address"
        }
      ],
      "name": "balanceOf",
      "outputs": [
        {
          "internalType": "uint256",
          "name": "",
          "type": "uint256"
        }
      ],
      "stateMutability": "view",
      "type": "function"
    },
    {
      "inputs": [],
      "name": "duration",
      "outputs": [
        {
          "internalType": "uint256",
          "name": "",
          "type": "uint256"
        }
      ],
      "stateMutability": "view",
      "type": "function"
    },
    {
      "inputs": [
        {
          "internalType": "address",
          "name": "_account",
          "type": "address"
        }
      ],
      "name": "earned",
      "outputs": [
        {
          "internalType": "uint256",
          "name": "",
          "type": "uint256"
        }
      ],
      "stateMutability": "view",
      "type": "function"
    },
    {
      "inputs": [],
      "name": "finishAt",
      "outputs": [
        {
          "internalType": "uint256",
          "name": "",
          "type": "uint256"
        }
      ],
      "stateMutability": "view",
      "type": "function"
    },
    {
      "inputs": [],
      "name": "getReward",
      "outputs": [],
      "stateMutability": "nonpayable",
      "type": "function"
    },
    {
      "inputs": [],
      "name": "lastTimeRewardApplicable",
      "outputs": [
        {
          "internalType": "uint256",
          "name": "",
          "type": "uint256"
        }
      ],
      "stateMutability": "view",
      "type": "function"
    },
    {
      "inputs": [
        {
          "internalType": "uint256",
          "name": "_amount",
          "type": "uint256"
        }
      ],
      "name": "notifyRewardAmount",
      "outputs": [],
      "stateMutability": "nonpayable",
      "type": "function"
    },
    {
      "inputs": [],
      "name": "owner",
      "outputs": [
        {
          "internalType": "address",
          "name": "",
          "type": "address"
        }
      ],
      "stateMutability": "view",
      "type": "function"
    },
    {
      "inputs": [],
      "name": "paused",
      "outputs": [
        {
          "internalType": "bool",
          "name": "",
          "type": "bool"
        }
      ],
      "stateMutability": "view",
      "type": "function"
    },
    {
      "inputs": [],
      "name": "renounceOwnership",
      "outputs": [],
      "stateMutability": "nonpayable",
      "type": "function"
    },
    {
      "inputs": [],
      "name": "rewardPerToken",
      "outputs": [
        {
          "internalType": "uint256",
          "name": "",
          "type": "uint256"
        }
      ],
      "stateMutability": "view",
      "type": "function"
    },
    {
      "inputs": [],
      "name": "rewardPerTokenStored",
      "outputs": [
        {
          "internalType": "uint256",
          "name": "",
          "type": "uint256"
        }
      ],
      "stateMutability": "view",
      "type": "function"
    },
    {
      "inputs": [],
      "name": "rewardRate",
      "outputs": [
        {
          "internalType": "uint256",
          "name": "",
          "type": "uint256"
        }
      ],
      "stateMutability": "view",
      "type": "function"
    },
    {
      "inputs": [
        {
          "internalType": "address",
          "name": "",
          "type": "address"
        }
      ],
      "name": "rewards",
      "outputs": [
        {
          "internalType": "uint256",
          "name": "",
          "type": "uint256"
        }
      ],
      "stateMutability": "view",
      "type": "function"
    },
    {
      "inputs": [],
      "name": "rewardsToken",
      "outputs": [
        {
          "internalType": "contract IERC20",
          "name": "",
          "type": "address"
        }
      ],
      "stateMutability": "view",
      "type": "function"
    },
    {
      "inputs": [
        {
          "internalType": "bool",
          "name": "_paused",
          "type": "bool"
        }
      ],
      "name": "setPaused",
      "outputs": [],
      "stateMutability": "nonpayable",
      "type": "function"
    },
    {
      "inputs": [
        {
          "internalType": "uint256",
          "name": "_duration",
          "type": "uint256"
        }
      ],
      "name": "setRewardsDuration",
      "outputs": [],
      "stateMutability": "nonpayable",
      "type": "function"
    },
    {
      "inputs": [],
      "name": "stake",
      "outputs": [],
      "stateMutability": "payable",
      "type": "function"
    },
    {
      "inputs": [],
      "name": "totalSupply",
      "outputs": [
        {
          "internalType": "uint256",
          "name": "",
          "type": "uint256"
        }
      ],
      "stateMutability": "view",
      "type": "function"
    },
    {
      "inputs": [
        {
          "internalType": "address",
          "name": "newOwner",
          "type": "address"
        }
      ],
      "name": "transferOwnership",
      "outputs": [],
      "stateMutability": "nonpayable",
      "type": "function"
    },
    {
      "inputs": [],
      "name": "updatedAt",
      "outputs": [
        {
          "internalType": "uint256",
          "name": "",
          "type": "uint256"
        }
      ],
      "stateMutability": "view",
      "type": "function"
    },
    {
      "inputs": [
        {
          "internalType": "address",
          "name": "",
          "type": "address"
        }
      ],
      "name": "userRewardPerTokenPaid",
      "outputs": [
        {
          "internalType": "uint256",
          "name": "",
          "type": "uint256"
        }
      ],
      "stateMutability": "view",
      "type": "function"
    },
    {
      "inputs": [],
      "name": "weth",
      "outputs": [
        {
          "internalType": "contract IWETH",
          "name": "",
          "type": "address"
        }
      ],
      "stateMutability": "view",
      "type": "function"
    },
    {
      "inputs": [
        {
          "internalType": "uint256",
          "name": "_amount",
          "type": "uint256"
        }
      ],
      "name": "withdraw",
      "outputs": [],
      "stateMutability": "nonpayable",
      "type": "function"
    },
    {
      "stateMutability": "payable",
      "type": "receive"
    }
  ],
  "transactionHash": "0x3e7ab72f63918e3300a9f5f889045dafec5b555b8633779a1a9edd5d39491207",
  "args": [
    "0xe5D7C2a44FfDDf6b295A15c148167daaAf5Cf34f",
    "0x0449854533B847f4e8DD3b10E46CF37d698dAaa0",
    2592000
  ],
  "numDeployments": 1,
  "solcInputHash": "c7c7a6b8c96b897ebfd55ac03083c0c2",
  "bytecode": "0x608060405234801561001057600080fd5b506040516200140038038062001400833981016040819052610031916100f7565b60016000819055805460ff1916905561004933610081565b600280546001600160a01b039485166001600160a01b0319918216179091556003805493909416921691909117909155600455610133565b600180546001600160a01b03838116610100818102610100600160a81b031985161790945560405193909204169182907f8be0079c531659141344cd1fd0a4f28419497f9722a3daafe3b4186f6b6457e090600090a35050565b80516001600160a01b03811681146100f257600080fd5b919050565b60008060006060848603121561010c57600080fd5b610115846100db565b9250610123602085016100db565b9150604084015190509250925092565b6112bd80620001436000396000f3fe60806040526004361061014e5760003560e01c806370a08231116100b65780638da5cb5b1161006f5780638da5cb5b146103d8578063cc1a378f146103fb578063cd3daf9d1461041b578063d1af0c7d14610430578063df136d6514610450578063f2fde38b1461046657600080fd5b806370a0823114610328578063715018a6146103555780637519ab501461036a5780637b0a47ee1461038057806380faa57d146103965780638b876347146103ab57600080fd5b80633a4b66f1116101085780633a4b66f1146102855780633c6b16ab1461028d5780633d18b912146102ad5780633fc8cef3146102c25780635c975abb146102ef57806367d3b4881461031257600080fd5b80628cc262146101b95780630700037d146101ec5780630fb5a6b41461021957806316c38b3c1461022f57806318160ddd1461024f5780632e1a7d4d1461026557600080fd5b366101b4576002546001600160a01b031633146101b25760405162461bcd60e51b815260206004820152601d60248201527f5a6b64785374616b696e673a2077726f6e67206574682073656e64657200000060448201526064015b60405180910390fd5b005b600080fd5b3480156101c557600080fd5b506101d96101d436600461109f565b610486565b6040519081526020015b60405180910390f35b3480156101f857600080fd5b506101d961020736600461109f565b600a6020526000908152604090205481565b34801561022557600080fd5b506101d960045481565b34801561023b57600080fd5b506101b261024a3660046110d6565b610503565b34801561025b57600080fd5b506101d9600b5481565b34801561027157600080fd5b506101b26102803660046110f3565b610524565b6101b261060a565b34801561029957600080fd5b506101b26102a83660046110f3565b610748565b3480156102b957600080fd5b506101b26108f1565b3480156102ce57600080fd5b506002546102e2906001600160a01b031681565b6040516101e3919061110c565b3480156102fb57600080fd5b5060015460ff1660405190151581526020016101e3565b34801561031e57600080fd5b506101d960055481565b34801561033457600080fd5b506101d961034336600461109f565b600c6020526000908152604090205481565b34801561036157600080fd5b506101b261096f565b34801561037657600080fd5b506101d960065481565b34801561038c57600080fd5b506101d960075481565b3480156103a257600080fd5b506101d9610981565b3480156103b757600080fd5b506101d96103c636600461109f565b60096020526000908152604090205481565b3480156103e457600080fd5b5060015461010090046001600160a01b03166102e2565b34801561040757600080fd5b506101b26104163660046110f3565b610994565b34801561042757600080fd5b506101d96109a1565b34801561043c57600080fd5b506003546102e2906001600160a01b031681565b34801561045c57600080fd5b506101d960085481565b34801561047257600080fd5b506101b261048136600461109f565b610a02565b6001600160a01b0381166000908152600a60209081526040808320546009909252822054670de0b6b3a7640000906104bc6109a1565b6104c69190611136565b6001600160a01b0385166000908152600c60205260409020546104e99190611149565b6104f39190611160565b6104fd9190611182565b92915050565b61050b610a78565b801561051c57610519610ad8565b50565b610519610b26565b61052c610b5f565b610534610bb8565b3361053d6109a1565b600855610548610981565b6006556001600160a01b0381161561058f5761056381610486565b6001600160a01b0382166000908152600a60209081526040808320939093556008546009909152919020555b600082116105af5760405162461bcd60e51b81526004016101a990611195565b336000908152600c6020526040812080548492906105ce908490611136565b9250508190555081600b60008282546105e79190611136565b909155506105f790508233610bfe565b6105ff610d04565b506105196001600055565b610612610b5f565b61061a610bb8565b336106236109a1565b60085561062e610981565b6006556001600160a01b038116156106755761064981610486565b6001600160a01b0382166000908152600a60209081526040808320939093556008546009909152919020555b600034116106955760405162461bcd60e51b81526004016101a990611195565b600260009054906101000a90046001600160a01b03166001600160a01b031663d0e30db0346040518263ffffffff1660e01b81526004016000604051808303818588803b1580156106e557600080fd5b505af11580156106f9573d6000803e3d6000fd5b5050336000908152600c602052604081208054349550909350909150610720908490611182565b9250508190555034600b60008282546107399190611182565b9091555050600160005550565b565b610750610a78565b600061075a6109a1565b600855610765610981565b6006556001600160a01b038116156107ac5761078081610486565b6001600160a01b0382166000908152600a60209081526040808320939093556008546009909152919020555b6004546107b99083611160565b600781905561080a5760405162461bcd60e51b815260206004820152601e60248201527f5a6b64785374616b696e673a2072657761726420726174652077726f6e67000060448201526064016101a9565b6003546040516370a0823160e01b81526001600160a01b03909116906370a082319061083a90309060040161110c565b602060405180830381865afa158015610857573d6000803e3d6000fd5b505050506040513d601f19601f8201168201806040525081019061087b91906111de565b60045460075461088b9190611149565b11156108d95760405162461bcd60e51b815260206004820181905260248201527f5a6b64785374616b696e673a2072657761726420616d6f756e742077726f6e6760448201526064016101a9565b6004546108e69042611182565b600555505042600655565b6108f9610b5f565b610901610bb8565b3361090a6109a1565b600855610915610981565b6006556001600160a01b0381161561095c5761093081610486565b6001600160a01b0382166000908152600a60209081526040808320939093556008546009909152919020555b610964610d04565b506107466001600055565b610977610a78565b6107466000610d43565b600061098f60055442610d9d565b905090565b61099c610a78565b600455565b6000600b546000036109b4575060085490565b600b546006546109c2610981565b6109cc9190611136565b6007546109d99190611149565b6109eb90670de0b6b3a7640000611149565b6109f59190611160565b60085461098f9190611182565b610a0a610a78565b6001600160a01b038116610a6f5760405162461bcd60e51b815260206004820152602660248201527f4f776e61626c653a206e6577206f776e657220697320746865207a65726f206160448201526564647265737360d01b60648201526084016101a9565b61051981610d43565b6001546001600160a01b036101009091041633146107465760405162461bcd60e51b815260206004820181905260248201527f4f776e61626c653a2063616c6c6572206973206e6f7420746865206f776e657260448201526064016101a9565b610ae0610bb8565b6001805460ff1916811790557f62e78cea01bee320cd4e420270b5ea74000d11b0c9f74754ebdbfc544b05a258335b604051610b1c919061110c565b60405180910390a1565b610b2e610db6565b6001805460ff191690557f5db9ee0a495bf2e6ff9c91a7834c1ba4fdd244a5e8aa4e537bd38aeae4b073aa33610b0f565b600260005403610bb15760405162461bcd60e51b815260206004820152601f60248201527f5265656e7472616e637947756172643a207265656e7472616e742063616c6c0060448201526064016101a9565b6002600055565b60015460ff16156107465760405162461bcd60e51b815260206004820152601060248201526f14185d5cd8589b194e881c185d5cd95960821b60448201526064016101a9565b600254604051632e1a7d4d60e01b8152600481018490526001600160a01b0390911690632e1a7d4d90602401600060405180830381600087803b158015610c4457600080fd5b505af1158015610c58573d6000803e3d6000fd5b505050506000816001600160a01b03168360405160006040518083038185875af1925050503d8060008114610ca9576040519150601f19603f3d011682016040523d82523d6000602084013e610cae565b606091505b5050905080610cff5760405162461bcd60e51b815260206004820152601f60248201527f5a6b64785374616b696e673a206661696c656420746f2073656e64204554480060448201526064016101a9565b505050565b336000908152600a6020526040902054801561051957336000818152600a6020526040812055600354610519916001600160a01b039091169083610dff565b600180546001600160a01b03838116610100818102610100600160a81b031985161790945560405193909204169182907f8be0079c531659141344cd1fd0a4f28419497f9722a3daafe3b4186f6b6457e090600090a35050565b600081831115610dad5781610daf565b825b9392505050565b60015460ff166107465760405162461bcd60e51b815260206004820152601460248201527314185d5cd8589b194e881b9bdd081c185d5cd95960621b60448201526064016101a9565b604080516001600160a01b03848116602483015260448083018590528351808403909101815260649092018352602080830180516001600160e01b031663a9059cbb60e01b17905283518085019094528084527f5361666545524332303a206c6f772d6c6576656c2063616c6c206661696c656490840152610cff92869291600091610e8f918516908490610f0f565b9050805160001480610eb0575080806020019051810190610eb091906111f7565b610cff5760405162461bcd60e51b815260206004820152602a60248201527f5361666545524332303a204552433230206f7065726174696f6e20646964206e6044820152691bdd081cdd58d8d9595960b21b60648201526084016101a9565b6060610f1e8484600085610f26565b949350505050565b606082471015610f875760405162461bcd60e51b815260206004820152602660248201527f416464726573733a20696e73756666696369656e742062616c616e636520666f6044820152651c8818d85b1b60d21b60648201526084016101a9565b600080866001600160a01b03168587604051610fa39190611238565b60006040518083038185875af1925050503d8060008114610fe0576040519150601f19603f3d011682016040523d82523d6000602084013e610fe5565b606091505b5091509150610ff687838387611001565b979650505050505050565b60608315611070578251600003611069576001600160a01b0385163b6110695760405162461bcd60e51b815260206004820152601d60248201527f416464726573733a2063616c6c20746f206e6f6e2d636f6e747261637400000060448201526064016101a9565b5081610f1e565b610f1e83838151156110855781518083602001fd5b8060405162461bcd60e51b81526004016101a99190611254565b6000602082840312156110b157600080fd5b81356001600160a01b0381168114610daf57600080fd5b801515811461051957600080fd5b6000602082840312156110e857600080fd5b8135610daf816110c8565b60006020828403121561110557600080fd5b5035919050565b6001600160a01b0391909116815260200190565b634e487b7160e01b600052601160045260246000fd5b818103818111156104fd576104fd611120565b80820281158282048414176104fd576104fd611120565b60008261117d57634e487b7160e01b600052601260045260246000fd5b500490565b808201808211156104fd576104fd611120565b60208082526029908201527f5a6b64785374616b696e673a20616d6f756e74206d757374206265206269676760408201526806572207468616e20360bc1b606082015260800190565b6000602082840312156111f057600080fd5b5051919050565b60006020828403121561120957600080fd5b8151610daf816110c8565b60005b8381101561122f578181015183820152602001611217565b50506000910152565b6000825161124a818460208701611214565b9190910192915050565b6020815260008251806020840152611273816040850160208701611214565b601f01601f1916919091016040019291505056fea2646970667358221220c0183337133ee62191ba2d98059ef4b997c1f0f6501f2b3176841f6fa2dd723164736f6c63430008110033",
  "devdoc": {
    "kind": "dev",
    "methods": {
      "owner()": {
        "details": "Returns the address of the current owner."
      },
      "paused()": {
        "details": "Returns true if the contract is paused, and false otherwise."
      },
      "renounceOwnership()": {
        "details": "Leaves the contract without owner. It will not be possible to call `onlyOwner` functions. Can only be called by the current owner. NOTE: Renouncing ownership will leave the contract without an owner, thereby disabling any functionality that is only available to the owner."
      },
      "transferOwnership(address)": {
        "details": "Transfers ownership of the contract to a new account (`newOwner`). Can only be called by the current owner."
      }
    },
    "version": 1
  },
  "userdoc": {
    "kind": "user",
    "methods": {},
    "version": 1
  },
  "storageLayout": {
    "storage": [
      {
        "astId": 4820,
        "contract": "contracts/staking/ZkdxStakingETH.sol:ZkdxStakingETH",
        "label": "_status",
        "offset": 0,
        "slot": "0",
        "type": "t_uint256"
      },
      {
        "astId": 4719,
        "contract": "contracts/staking/ZkdxStakingETH.sol:ZkdxStakingETH",
        "label": "_paused",
        "offset": 0,
        "slot": "1",
        "type": "t_bool"
      },
      {
        "astId": 4596,
        "contract": "contracts/staking/ZkdxStakingETH.sol:ZkdxStakingETH",
        "label": "_owner",
        "offset": 1,
        "slot": "1",
        "type": "t_address"
      },
      {
        "astId": 14258,
        "contract": "contracts/staking/ZkdxStakingETH.sol:ZkdxStakingETH",
        "label": "weth",
        "offset": 0,
        "slot": "2",
        "type": "t_contract(IWETH)14249"
      },
      {
        "astId": 14261,
        "contract": "contracts/staking/ZkdxStakingETH.sol:ZkdxStakingETH",
        "label": "rewardsToken",
        "offset": 0,
        "slot": "3",
        "type": "t_contract(IERC20)5539"
      },
      {
        "astId": 14267,
        "contract": "contracts/staking/ZkdxStakingETH.sol:ZkdxStakingETH",
        "label": "duration",
        "offset": 0,
        "slot": "4",
        "type": "t_uint256"
      },
      {
        "astId": 14269,
        "contract": "contracts/staking/ZkdxStakingETH.sol:ZkdxStakingETH",
        "label": "finishAt",
        "offset": 0,
        "slot": "5",
        "type": "t_uint256"
      },
      {
        "astId": 14271,
        "contract": "contracts/staking/ZkdxStakingETH.sol:ZkdxStakingETH",
        "label": "updatedAt",
        "offset": 0,
        "slot": "6",
        "type": "t_uint256"
      },
      {
        "astId": 14273,
        "contract": "contracts/staking/ZkdxStakingETH.sol:ZkdxStakingETH",
        "label": "rewardRate",
        "offset": 0,
        "slot": "7",
        "type": "t_uint256"
      },
      {
        "astId": 14275,
        "contract": "contracts/staking/ZkdxStakingETH.sol:ZkdxStakingETH",
        "label": "rewardPerTokenStored",
        "offset": 0,
        "slot": "8",
        "type": "t_uint256"
      },
      {
        "astId": 14279,
        "contract": "contracts/staking/ZkdxStakingETH.sol:ZkdxStakingETH",
        "label": "userRewardPerTokenPaid",
        "offset": 0,
        "slot": "9",
        "type": "t_mapping(t_address,t_uint256)"
      },
      {
        "astId": 14283,
        "contract": "contracts/staking/ZkdxStakingETH.sol:ZkdxStakingETH",
        "label": "rewards",
        "offset": 0,
        "slot": "10",
        "type": "t_mapping(t_address,t_uint256)"
      },
      {
        "astId": 14285,
        "contract": "contracts/staking/ZkdxStakingETH.sol:ZkdxStakingETH",
        "label": "totalSupply",
        "offset": 0,
        "slot": "11",
        "type": "t_uint256"
      },
      {
        "astId": 14289,
        "contract": "contracts/staking/ZkdxStakingETH.sol:ZkdxStakingETH",
        "label": "balanceOf",
        "offset": 0,
        "slot": "12",
        "type": "t_mapping(t_address,t_uint256)"
      }
    ],
    "types": {
      "t_address": {
        "encoding": "inplace",
        "label": "address",
        "numberOfBytes": "20"
      },
      "t_bool": {
        "encoding": "inplace",
        "label": "bool",
        "numberOfBytes": "1"
      },
      "t_contract(IERC20)5539": {
        "encoding": "inplace",
        "label": "contract IERC20",
        "numberOfBytes": "20"
      },
      "t_contract(IWETH)14249": {
        "encoding": "inplace",
        "label": "contract IWETH",
        "numberOfBytes": "20"
      },
      "t_mapping(t_address,t_uint256)": {
        "encoding": "mapping",
        "key": "t_address",
        "label": "mapping(address => uint256)",
        "numberOfBytes": "32",
        "value": "t_uint256"
      },
      "t_uint256": {
        "encoding": "inplace",
        "label": "uint256",
        "numberOfBytes": "32"
      }
    }
  }
}