{
  "address": "0x363b21eCe7bCb37F0ae8AE5f8915738902Bf4e95",
  "abi": [
    {
      "inputs": [],
      "stateMutability": "nonpayable",
      "type": "constructor"
    },
    {
      "inputs": [
        {
          "internalType": "address",
          "name": "_router",
          "type": "address"
        }
      ],
      "name": "addRouter",
      "outputs": [],
      "stateMutability": "nonpayable",
      "type": "function"
    },
    {
      "inputs": [
        {
          "internalType": "uint256",
          "name": "_amount",
          "type": "uint256"
        },
        {
          "internalType": "address",
          "name": "_tokenDiv",
          "type": "address"
        },
        {
          "internalType": "address",
          "name": "_tokenMul",
          "type": "address"
        }
      ],
      "name": "adjustForDecimals",
      "outputs": [
        {
          "internalType": "uint256",
          "name": "",
          "type": "uint256"
        }
      ],
      "stateMutability": "view",
      "type": "function"
    },
    {
      "inputs": [
        {
          "internalType": "uint256",
          "name": "",
          "type": "uint256"
        }
      ],
      "name": "allWhitelistedTokens",
      "outputs": [
        {
          "internalType": "address",
          "name": "",
          "type": "address"
        }
      ],
      "stateMutability": "view",
      "type": "function"
    },
    {
      "inputs": [],
      "name": "allWhitelistedTokensLength",
      "outputs": [
        {
          "internalType": "uint256",
          "name": "",
          "type": "uint256"
        }
      ],
      "stateMutability": "view",
      "type": "function"
    },
    {
      "inputs": [],
      "name": "allowStaleEquityPrice",
      "outputs": [
        {
          "internalType": "bool",
          "name": "",
          "type": "bool"
        }
      ],
      "stateMutability": "view",
      "type": "function"
    },
    {
      "inputs": [
        {
          "internalType": "address",
          "name": "",
          "type": "address"
        },
        {
          "internalType": "address",
          "name": "",
          "type": "address"
        }
      ],
      "name": "approvedRouters",
      "outputs": [
        {
          "internalType": "bool",
          "name": "",
          "type": "bool"
        }
      ],
      "stateMutability": "view",
      "type": "function"
    },
    {
      "inputs": [
        {
          "internalType": "address",
          "name": "",
          "type": "address"
        }
      ],
      "name": "bufferAmounts",
      "outputs": [
        {
          "internalType": "uint256",
          "name": "",
          "type": "uint256"
        }
      ],
      "stateMutability": "view",
      "type": "function"
    },
    {
      "inputs": [
        {
          "internalType": "address",
          "name": "_token",
          "type": "address"
        },
        {
          "internalType": "address",
          "name": "_receiver",
          "type": "address"
        }
      ],
      "name": "buyZKUSD",
      "outputs": [
        {
          "internalType": "uint256",
          "name": "",
          "type": "uint256"
        }
      ],
      "stateMutability": "nonpayable",
      "type": "function"
    },
    {
      "inputs": [
        {
          "internalType": "address",
          "name": "_token",
          "type": "address"
        }
      ],
      "name": "clearTokenConfig",
      "outputs": [],
      "stateMutability": "nonpayable",
      "type": "function"
    },
    {
      "inputs": [
        {
          "internalType": "address",
          "name": "",
          "type": "address"
        }
      ],
      "name": "cumulativeFundingRates",
      "outputs": [
        {
          "internalType": "uint256",
          "name": "",
          "type": "uint256"
        }
      ],
      "stateMutability": "view",
      "type": "function"
    },
    {
      "inputs": [
        {
          "internalType": "address",
          "name": "_account",
          "type": "address"
        },
        {
          "internalType": "address",
          "name": "_collateralToken",
          "type": "address"
        },
        {
          "internalType": "address",
          "name": "_indexToken",
          "type": "address"
        },
        {
          "internalType": "uint256",
          "name": "_collateralDelta",
          "type": "uint256"
        },
        {
          "internalType": "uint256",
          "name": "_sizeDelta",
          "type": "uint256"
        },
        {
          "internalType": "bool",
          "name": "_isLong",
          "type": "bool"
        },
        {
          "internalType": "address",
          "name": "_receiver",
          "type": "address"
        }
      ],
      "name": "decreasePosition",
      "outputs": [
        {
          "internalType": "uint256",
          "name": "",
          "type": "uint256"
        }
      ],
      "stateMutability": "nonpayable",
      "type": "function"
    },
    {
      "inputs": [
        {
          "internalType": "address",
          "name": "_token",
          "type": "address"
        }
      ],
      "name": "directPoolDeposit",
      "outputs": [],
      "stateMutability": "nonpayable",
      "type": "function"
    },
    {
      "inputs": [
        {
          "internalType": "address",
          "name": "",
          "type": "address"
        }
      ],
      "name": "equityTokens",
      "outputs": [
        {
          "internalType": "bool",
          "name": "",
          "type": "bool"
        }
      ],
      "stateMutability": "view",
      "type": "function"
    },
    {
      "inputs": [],
      "name": "errorController",
      "outputs": [
        {
          "internalType": "address",
          "name": "",
          "type": "address"
        }
      ],
      "stateMutability": "view",
      "type": "function"
    },
    {
      "inputs": [
        {
          "internalType": "uint256",
          "name": "",
          "type": "uint256"
        }
      ],
      "name": "errors",
      "outputs": [
        {
          "internalType": "string",
          "name": "",
          "type": "string"
        }
      ],
      "stateMutability": "view",
      "type": "function"
    },
    {
      "inputs": [
        {
          "internalType": "address",
          "name": "",
          "type": "address"
        }
      ],
      "name": "feeReserves",
      "outputs": [
        {
          "internalType": "uint256",
          "name": "",
          "type": "uint256"
        }
      ],
      "stateMutability": "view",
      "type": "function"
    },
    {
      "inputs": [],
      "name": "fundingInterval",
      "outputs": [
        {
          "internalType": "uint256",
          "name": "",
          "type": "uint256"
        }
      ],
      "stateMutability": "view",
      "type": "function"
    },
    {
      "inputs": [],
      "name": "fundingRateFactor",
      "outputs": [
        {
          "internalType": "uint256",
          "name": "",
          "type": "uint256"
        }
      ],
      "stateMutability": "view",
      "type": "function"
    },
    {
      "inputs": [
        {
          "internalType": "address",
          "name": "_indexToken",
          "type": "address"
        },
        {
          "internalType": "uint256",
          "name": "_size",
          "type": "uint256"
        },
        {
          "internalType": "uint256",
          "name": "_averagePrice",
          "type": "uint256"
        },
        {
          "internalType": "bool",
          "name": "_isLong",
          "type": "bool"
        },
        {
          "internalType": "uint256",
          "name": "_lastIncreasedTime",
          "type": "uint256"
        }
      ],
      "name": "getDelta",
      "outputs": [
        {
          "internalType": "bool",
          "name": "",
          "type": "bool"
        },
        {
          "internalType": "uint256",
          "name": "",
          "type": "uint256"
        }
      ],
      "stateMutability": "view",
      "type": "function"
    },
    {
      "inputs": [
        {
          "internalType": "address",
          "name": "_collateralToken",
          "type": "address"
        },
        {
          "internalType": "address",
          "name": "_indexToken",
          "type": "address"
        },
        {
          "internalType": "bool",
          "name": "_isLong",
          "type": "bool"
        }
      ],
      "name": "getEntryFundingRate",
      "outputs": [
        {
          "internalType": "uint256",
          "name": "",
          "type": "uint256"
        }
      ],
      "stateMutability": "view",
      "type": "function"
    },
    {
      "inputs": [
        {
          "internalType": "address",
          "name": "_token",
          "type": "address"
        },
        {
          "internalType": "uint256",
          "name": "_zkusdDelta",
          "type": "uint256"
        },
        {
          "internalType": "uint256",
          "name": "_feeBasisPoints",
          "type": "uint256"
        },
        {
          "internalType": "uint256",
          "name": "_taxBasisPoints",
          "type": "uint256"
        },
        {
          "internalType": "bool",
          "name": "_increment",
          "type": "bool"
        }
      ],
      "name": "getFeeBasisPoints",
      "outputs": [
        {
          "internalType": "uint256",
          "name": "",
          "type": "uint256"
        }
      ],
      "stateMutability": "view",
      "type": "function"
    },
    {
      "inputs": [
        {
          "internalType": "address",
          "name": "_account",
          "type": "address"
        },
        {
          "internalType": "address",
          "name": "_collateralToken",
          "type": "address"
        },
        {
          "internalType": "address",
          "name": "_indexToken",
          "type": "address"
        },
        {
          "internalType": "bool",
          "name": "_isLong",
          "type": "bool"
        },
        {
          "internalType": "uint256",
          "name": "_size",
          "type": "uint256"
        },
        {
          "internalType": "uint256",
          "name": "_entryFundingRate",
          "type": "uint256"
        }
      ],
      "name": "getFundingFee",
      "outputs": [
        {
          "internalType": "uint256",
          "name": "",
          "type": "uint256"
        }
      ],
      "stateMutability": "view",
      "type": "function"
    },
    {
      "inputs": [
        {
          "internalType": "address",
          "name": "_token",
          "type": "address"
        }
      ],
      "name": "getMaxPrice",
      "outputs": [
        {
          "internalType": "uint256",
          "name": "",
          "type": "uint256"
        }
      ],
      "stateMutability": "view",
      "type": "function"
    },
    {
      "inputs": [
        {
          "internalType": "address",
          "name": "_token",
          "type": "address"
        }
      ],
      "name": "getMinPrice",
      "outputs": [
        {
          "internalType": "uint256",
          "name": "",
          "type": "uint256"
        }
      ],
      "stateMutability": "view",
      "type": "function"
    },
    {
      "inputs": [
        {
          "internalType": "address",
          "name": "_indexToken",
          "type": "address"
        },
        {
          "internalType": "uint256",
          "name": "_size",
          "type": "uint256"
        },
        {
          "internalType": "uint256",
          "name": "_averagePrice",
          "type": "uint256"
        },
        {
          "internalType": "bool",
          "name": "_isLong",
          "type": "bool"
        },
        {
          "internalType": "uint256",
          "name": "_nextPrice",
          "type": "uint256"
        },
        {
          "internalType": "uint256",
          "name": "_sizeDelta",
          "type": "uint256"
        },
        {
          "internalType": "uint256",
          "name": "_lastIncreasedTime",
          "type": "uint256"
        }
      ],
      "name": "getNextAveragePrice",
      "outputs": [
        {
          "internalType": "uint256",
          "name": "",
          "type": "uint256"
        }
      ],
      "stateMutability": "view",
      "type": "function"
    },
    {
      "inputs": [
        {
          "internalType": "address",
          "name": "_token",
          "type": "address"
        }
      ],
      "name": "getNextFundingRate",
      "outputs": [
        {
          "internalType": "uint256",
          "name": "",
          "type": "uint256"
        }
      ],
      "stateMutability": "view",
      "type": "function"
    },
    {
      "inputs": [
        {
          "internalType": "address",
          "name": "_indexToken",
          "type": "address"
        },
        {
          "internalType": "uint256",
          "name": "_nextPrice",
          "type": "uint256"
        },
        {
          "internalType": "uint256",
          "name": "_sizeDelta",
          "type": "uint256"
        }
      ],
      "name": "getNextGlobalShortAveragePrice",
      "outputs": [
        {
          "internalType": "uint256",
          "name": "",
          "type": "uint256"
        }
      ],
      "stateMutability": "view",
      "type": "function"
    },
    {
      "inputs": [
        {
          "internalType": "address",
          "name": "_account",
          "type": "address"
        },
        {
          "internalType": "address",
          "name": "_collateralToken",
          "type": "address"
        },
        {
          "internalType": "address",
          "name": "_indexToken",
          "type": "address"
        },
        {
          "internalType": "bool",
          "name": "_isLong",
          "type": "bool"
        }
      ],
      "name": "getPosition",
      "outputs": [
        {
          "internalType": "uint256",
          "name": "",
          "type": "uint256"
        },
        {
          "internalType": "uint256",
          "name": "",
          "type": "uint256"
        },
        {
          "internalType": "uint256",
          "name": "",
          "type": "uint256"
        },
        {
          "internalType": "uint256",
          "name": "",
          "type": "uint256"
        },
        {
          "internalType": "uint256",
          "name": "",
          "type": "uint256"
        },
        {
          "internalType": "uint256",
          "name": "",
          "type": "uint256"
        },
        {
          "internalType": "bool",
          "name": "",
          "type": "bool"
        },
        {
          "internalType": "uint256",
          "name": "",
          "type": "uint256"
        }
      ],
      "stateMutability": "view",
      "type": "function"
    },
    {
      "inputs": [
        {
          "internalType": "address",
          "name": "_account",
          "type": "address"
        },
        {
          "internalType": "address",
          "name": "_collateralToken",
          "type": "address"
        },
        {
          "internalType": "address",
          "name": "_indexToken",
          "type": "address"
        },
        {
          "internalType": "bool",
          "name": "_isLong",
          "type": "bool"
        }
      ],
      "name": "getPositionDelta",
      "outputs": [
        {
          "internalType": "bool",
          "name": "",
          "type": "bool"
        },
        {
          "internalType": "uint256",
          "name": "",
          "type": "uint256"
        }
      ],
      "stateMutability": "view",
      "type": "function"
    },
    {
      "inputs": [
        {
          "internalType": "address",
          "name": "_account",
          "type": "address"
        },
        {
          "internalType": "address",
          "name": "_collateralToken",
          "type": "address"
        },
        {
          "internalType": "address",
          "name": "_indexToken",
          "type": "address"
        },
        {
          "internalType": "bool",
          "name": "_isLong",
          "type": "bool"
        },
        {
          "internalType": "uint256",
          "name": "_sizeDelta",
          "type": "uint256"
        }
      ],
      "name": "getPositionFee",
      "outputs": [
        {
          "internalType": "uint256",
          "name": "",
          "type": "uint256"
        }
      ],
      "stateMutability": "view",
      "type": "function"
    },
    {
      "inputs": [
        {
          "internalType": "address",
          "name": "_account",
          "type": "address"
        },
        {
          "internalType": "address",
          "name": "_collateralToken",
          "type": "address"
        },
        {
          "internalType": "address",
          "name": "_indexToken",
          "type": "address"
        },
        {
          "internalType": "bool",
          "name": "_isLong",
          "type": "bool"
        }
      ],
      "name": "getPositionKey",
      "outputs": [
        {
          "internalType": "bytes32",
          "name": "",
          "type": "bytes32"
        }
      ],
      "stateMutability": "pure",
      "type": "function"
    },
    {
      "inputs": [
        {
          "internalType": "address",
          "name": "_token",
          "type": "address"
        },
        {
          "internalType": "uint256",
          "name": "_zkusdAmount",
          "type": "uint256"
        }
      ],
      "name": "getRedemptionAmount",
      "outputs": [
        {
          "internalType": "uint256",
          "name": "",
          "type": "uint256"
        }
      ],
      "stateMutability": "view",
      "type": "function"
    },
    {
      "inputs": [
        {
          "internalType": "address",
          "name": "_token",
          "type": "address"
        }
      ],
      "name": "getTargetZkusdAmount",
      "outputs": [
        {
          "internalType": "uint256",
          "name": "",
          "type": "uint256"
        }
      ],
      "stateMutability": "view",
      "type": "function"
    },
    {
      "inputs": [
        {
          "internalType": "address",
          "name": "",
          "type": "address"
        }
      ],
      "name": "globalShortAveragePrices",
      "outputs": [
        {
          "internalType": "uint256",
          "name": "",
          "type": "uint256"
        }
      ],
      "stateMutability": "view",
      "type": "function"
    },
    {
      "inputs": [
        {
          "internalType": "address",
          "name": "",
          "type": "address"
        }
      ],
      "name": "globalShortSizes",
      "outputs": [
        {
          "internalType": "uint256",
          "name": "",
          "type": "uint256"
        }
      ],
      "stateMutability": "view",
      "type": "function"
    },
    {
      "inputs": [],
      "name": "gov",
      "outputs": [
        {
          "internalType": "address",
          "name": "",
          "type": "address"
        }
      ],
      "stateMutability": "view",
      "type": "function"
    },
    {
      "inputs": [
        {
          "internalType": "address",
          "name": "",
          "type": "address"
        }
      ],
      "name": "guaranteedUsd",
      "outputs": [
        {
          "internalType": "uint256",
          "name": "",
          "type": "uint256"
        }
      ],
      "stateMutability": "view",
      "type": "function"
    },
    {
      "inputs": [],
      "name": "hasDynamicFees",
      "outputs": [
        {
          "internalType": "bool",
          "name": "",
          "type": "bool"
        }
      ],
      "stateMutability": "view",
      "type": "function"
    },
    {
      "inputs": [],
      "name": "inManagerMode",
      "outputs": [
        {
          "internalType": "bool",
          "name": "",
          "type": "bool"
        }
      ],
      "stateMutability": "view",
      "type": "function"
    },
    {
      "inputs": [],
      "name": "inPrivateLiquidationMode",
      "outputs": [
        {
          "internalType": "bool",
          "name": "",
          "type": "bool"
        }
      ],
      "stateMutability": "view",
      "type": "function"
    },
    {
      "inputs": [
        {
          "internalType": "address",
          "name": "_account",
          "type": "address"
        },
        {
          "internalType": "address",
          "name": "_collateralToken",
          "type": "address"
        },
        {
          "internalType": "address",
          "name": "_indexToken",
          "type": "address"
        },
        {
          "internalType": "uint256",
          "name": "_sizeDelta",
          "type": "uint256"
        },
        {
          "internalType": "bool",
          "name": "_isLong",
          "type": "bool"
        }
      ],
      "name": "increasePosition",
      "outputs": [],
      "stateMutability": "nonpayable",
      "type": "function"
    },
    {
      "inputs": [
        {
          "internalType": "address",
          "name": "_router",
          "type": "address"
        },
        {
          "internalType": "address",
          "name": "_zkusd",
          "type": "address"
        },
        {
          "internalType": "address",
          "name": "_priceFeed",
          "type": "address"
        },
        {
          "internalType": "uint256",
          "name": "_liquidationFeeUsd",
          "type": "uint256"
        },
        {
          "internalType": "uint256",
          "name": "_fundingRateFactor",
          "type": "uint256"
        },
        {
          "internalType": "uint256",
          "name": "_stableFundingRateFactor",
          "type": "uint256"
        }
      ],
      "name": "initialize",
      "outputs": [],
      "stateMutability": "nonpayable",
      "type": "function"
    },
    {
      "inputs": [],
      "name": "isInitialized",
      "outputs": [
        {
          "internalType": "bool",
          "name": "",
          "type": "bool"
        }
      ],
      "stateMutability": "view",
      "type": "function"
    },
    {
      "inputs": [],
      "name": "isLeverageEnabled",
      "outputs": [
        {
          "internalType": "bool",
          "name": "",
          "type": "bool"
        }
      ],
      "stateMutability": "view",
      "type": "function"
    },
    {
      "inputs": [
        {
          "internalType": "address",
          "name": "",
          "type": "address"
        }
      ],
      "name": "isLiquidator",
      "outputs": [
        {
          "internalType": "bool",
          "name": "",
          "type": "bool"
        }
      ],
      "stateMutability": "view",
      "type": "function"
    },
    {
      "inputs": [
        {
          "internalType": "address",
          "name": "",
          "type": "address"
        }
      ],
      "name": "isManager",
      "outputs": [
        {
          "internalType": "bool",
          "name": "",
          "type": "bool"
        }
      ],
      "stateMutability": "view",
      "type": "function"
    },
    {
      "inputs": [
        {
          "internalType": "address",
          "name": "_account",
          "type": "address"
        },
        {
          "internalType": "address",
          "name": "_collateralToken",
          "type": "address"
        },
        {
          "internalType": "address",
          "name": "_indexToken",
          "type": "address"
        },
        {
          "internalType": "bool",
          "name": "_isLong",
          "type": "bool"
        }
      ],
      "name": "isPositionExist",
      "outputs": [
        {
          "internalType": "bool",
          "name": "exist",
          "type": "bool"
        },
        {
          "internalType": "bytes32",
          "name": "key",
          "type": "bytes32"
        }
      ],
      "stateMutability": "view",
      "type": "function"
    },
    {
      "inputs": [],
      "name": "isSwapEnabled",
      "outputs": [
        {
          "internalType": "bool",
          "name": "",
          "type": "bool"
        }
      ],
      "stateMutability": "view",
      "type": "function"
    },
    {
      "inputs": [
        {
          "internalType": "address",
          "name": "",
          "type": "address"
        }
      ],
      "name": "lastFundingTimes",
      "outputs": [
        {
          "internalType": "uint256",
          "name": "",
          "type": "uint256"
        }
      ],
      "stateMutability": "view",
      "type": "function"
    },
    {
      "inputs": [
        {
          "internalType": "address",
          "name": "_account",
          "type": "address"
        },
        {
          "internalType": "address",
          "name": "_collateralToken",
          "type": "address"
        },
        {
          "internalType": "address",
          "name": "_indexToken",
          "type": "address"
        },
        {
          "internalType": "bool",
          "name": "_isLong",
          "type": "bool"
        },
        {
          "internalType": "address",
          "name": "_feeReceiver",
          "type": "address"
        }
      ],
      "name": "liquidatePosition",
      "outputs": [],
      "stateMutability": "nonpayable",
      "type": "function"
    },
    {
      "inputs": [],
      "name": "liquidationFeeUsd",
      "outputs": [
        {
          "internalType": "uint256",
          "name": "",
          "type": "uint256"
        }
      ],
      "stateMutability": "view",
      "type": "function"
    },
    {
      "inputs": [],
      "name": "marginFeeBasisPoints",
      "outputs": [
        {
          "internalType": "uint256",
          "name": "",
          "type": "uint256"
        }
      ],
      "stateMutability": "view",
      "type": "function"
    },
    {
      "inputs": [],
      "name": "maxGasPrice",
      "outputs": [
        {
          "internalType": "uint256",
          "name": "",
          "type": "uint256"
        }
      ],
      "stateMutability": "view",
      "type": "function"
    },
    {
      "inputs": [
        {
          "internalType": "address",
          "name": "",
          "type": "address"
        }
      ],
      "name": "maxGlobalShortSizes",
      "outputs": [
        {
          "internalType": "uint256",
          "name": "",
          "type": "uint256"
        }
      ],
      "stateMutability": "view",
      "type": "function"
    },
    {
      "inputs": [],
      "name": "maxLeverage",
      "outputs": [
        {
          "internalType": "uint256",
          "name": "",
          "type": "uint256"
        }
      ],
      "stateMutability": "view",
      "type": "function"
    },
    {
      "inputs": [
        {
          "internalType": "address",
          "name": "",
          "type": "address"
        }
      ],
      "name": "maxZkusdAmounts",
      "outputs": [
        {
          "internalType": "uint256",
          "name": "",
          "type": "uint256"
        }
      ],
      "stateMutability": "view",
      "type": "function"
    },
    {
      "inputs": [
        {
          "internalType": "address",
          "name": "",
          "type": "address"
        }
      ],
      "name": "minProfitBasisPoints",
      "outputs": [
        {
          "internalType": "uint256",
          "name": "",
          "type": "uint256"
        }
      ],
      "stateMutability": "view",
      "type": "function"
    },
    {
      "inputs": [],
      "name": "minProfitTime",
      "outputs": [
        {
          "internalType": "uint256",
          "name": "",
          "type": "uint256"
        }
      ],
      "stateMutability": "view",
      "type": "function"
    },
    {
      "inputs": [],
      "name": "mintBurnFeeBasisPoints",
      "outputs": [
        {
          "internalType": "uint256",
          "name": "",
          "type": "uint256"
        }
      ],
      "stateMutability": "view",
      "type": "function"
    },
    {
      "inputs": [
        {
          "internalType": "address",
          "name": "",
          "type": "address"
        }
      ],
      "name": "poolAmounts",
      "outputs": [
        {
          "internalType": "uint256",
          "name": "",
          "type": "uint256"
        }
      ],
      "stateMutability": "view",
      "type": "function"
    },
    {
      "inputs": [
        {
          "internalType": "bytes32",
          "name": "",
          "type": "bytes32"
        }
      ],
      "name": "positions",
      "outputs": [
        {
          "internalType": "uint256",
          "name": "size",
          "type": "uint256"
        },
        {
          "internalType": "uint256",
          "name": "collateral",
          "type": "uint256"
        },
        {
          "internalType": "uint256",
          "name": "averagePrice",
          "type": "uint256"
        },
        {
          "internalType": "uint256",
          "name": "entryFundingRate",
          "type": "uint256"
        },
        {
          "internalType": "uint256",
          "name": "reserveAmount",
          "type": "uint256"
        },
        {
          "internalType": "int256",
          "name": "realisedPnl",
          "type": "int256"
        },
        {
          "internalType": "uint256",
          "name": "lastIncreasedTime",
          "type": "uint256"
        }
      ],
      "stateMutability": "view",
      "type": "function"
    },
    {
      "inputs": [],
      "name": "priceFeed",
      "outputs": [
        {
          "internalType": "address",
          "name": "",
          "type": "address"
        }
      ],
      "stateMutability": "view",
      "type": "function"
    },
    {
      "inputs": [
        {
          "internalType": "address",
          "name": "_router",
          "type": "address"
        }
      ],
      "name": "removeRouter",
      "outputs": [],
      "stateMutability": "nonpayable",
      "type": "function"
    },
    {
      "inputs": [
        {
          "internalType": "address",
          "name": "",
          "type": "address"
        }
      ],
      "name": "reservedAmounts",
      "outputs": [
        {
          "internalType": "uint256",
          "name": "",
          "type": "uint256"
        }
      ],
      "stateMutability": "view",
      "type": "function"
    },
    {
      "inputs": [],
      "name": "router",
      "outputs": [
        {
          "internalType": "address",
          "name": "",
          "type": "address"
        }
      ],
      "stateMutability": "view",
      "type": "function"
    },
    {
      "inputs": [
        {
          "internalType": "address",
          "name": "_token",
          "type": "address"
        },
        {
          "internalType": "address",
          "name": "_receiver",
          "type": "address"
        }
      ],
      "name": "sellZKUSD",
      "outputs": [
        {
          "internalType": "uint256",
          "name": "",
          "type": "uint256"
        }
      ],
      "stateMutability": "nonpayable",
      "type": "function"
    },
    {
      "inputs": [
        {
          "internalType": "bool",
          "name": "_allowStaleEquityPrice",
          "type": "bool"
        }
      ],
      "name": "setAllowStableEquity",
      "outputs": [],
      "stateMutability": "nonpayable",
      "type": "function"
    },
    {
      "inputs": [
        {
          "internalType": "address",
          "name": "_token",
          "type": "address"
        },
        {
          "internalType": "uint256",
          "name": "_amount",
          "type": "uint256"
        }
      ],
      "name": "setBufferAmount",
      "outputs": [],
      "stateMutability": "nonpayable",
      "type": "function"
    },
    {
      "inputs": [
        {
          "internalType": "uint256",
          "name": "_errorCode",
          "type": "uint256"
        },
        {
          "internalType": "string",
          "name": "_error",
          "type": "string"
        }
      ],
      "name": "setError",
      "outputs": [],
      "stateMutability": "nonpayable",
      "type": "function"
    },
    {
      "inputs": [
        {
          "internalType": "address",
          "name": "_errorController",
          "type": "address"
        }
      ],
      "name": "setErrorController",
      "outputs": [],
      "stateMutability": "nonpayable",
      "type": "function"
    },
    {
      "inputs": [
        {
          "internalType": "uint256",
          "name": "_taxBasisPoints",
          "type": "uint256"
        },
        {
          "internalType": "uint256",
          "name": "_stableTaxBasisPoints",
          "type": "uint256"
        },
        {
          "internalType": "uint256",
          "name": "_mintBurnFeeBasisPoints",
          "type": "uint256"
        },
        {
          "internalType": "uint256",
          "name": "_swapFeeBasisPoints",
          "type": "uint256"
        },
        {
          "internalType": "uint256",
          "name": "_stableSwapFeeBasisPoints",
          "type": "uint256"
        },
        {
          "internalType": "uint256",
          "name": "_marginFeeBasisPoints",
          "type": "uint256"
        },
        {
          "internalType": "uint256",
          "name": "_liquidationFeeUsd",
          "type": "uint256"
        },
        {
          "internalType": "uint256",
          "name": "_minProfitTime",
          "type": "uint256"
        },
        {
          "internalType": "bool",
          "name": "_hasDynamicFees",
          "type": "bool"
        }
      ],
      "name": "setFees",
      "outputs": [],
      "stateMutability": "nonpayable",
      "type": "function"
    },
    {
      "inputs": [
        {
          "internalType": "uint256",
          "name": "_fundingInterval",
          "type": "uint256"
        },
        {
          "internalType": "uint256",
          "name": "_fundingRateFactor",
          "type": "uint256"
        },
        {
          "internalType": "uint256",
          "name": "_stableFundingRateFactor",
          "type": "uint256"
        }
      ],
      "name": "setFundingRate",
      "outputs": [],
      "stateMutability": "nonpayable",
      "type": "function"
    },
    {
      "inputs": [
        {
          "internalType": "address",
          "name": "_gov",
          "type": "address"
        }
      ],
      "name": "setGov",
      "outputs": [],
      "stateMutability": "nonpayable",
      "type": "function"
    },
    {
      "inputs": [
        {
          "internalType": "bool",
          "name": "_inManagerMode",
          "type": "bool"
        }
      ],
      "name": "setInManagerMode",
      "outputs": [],
      "stateMutability": "nonpayable",
      "type": "function"
    },
    {
      "inputs": [
        {
          "internalType": "bool",
          "name": "_inPrivateLiquidationMode",
          "type": "bool"
        }
      ],
      "name": "setInPrivateLiquidationMode",
      "outputs": [],
      "stateMutability": "nonpayable",
      "type": "function"
    },
    {
      "inputs": [
        {
          "internalType": "bool",
          "name": "_isLeverageEnabled",
          "type": "bool"
        }
      ],
      "name": "setIsLeverageEnabled",
      "outputs": [],
      "stateMutability": "nonpayable",
      "type": "function"
    },
    {
      "inputs": [
        {
          "internalType": "bool",
          "name": "_isSwapEnabled",
          "type": "bool"
        }
      ],
      "name": "setIsSwapEnabled",
      "outputs": [],
      "stateMutability": "nonpayable",
      "type": "function"
    },
    {
      "inputs": [
        {
          "internalType": "address",
          "name": "_liquidator",
          "type": "address"
        },
        {
          "internalType": "bool",
          "name": "_isActive",
          "type": "bool"
        }
      ],
      "name": "setLiquidator",
      "outputs": [],
      "stateMutability": "nonpayable",
      "type": "function"
    },
    {
      "inputs": [
        {
          "internalType": "address",
          "name": "_manager",
          "type": "address"
        },
        {
          "internalType": "bool",
          "name": "_isManager",
          "type": "bool"
        }
      ],
      "name": "setManager",
      "outputs": [],
      "stateMutability": "nonpayable",
      "type": "function"
    },
    {
      "inputs": [
        {
          "internalType": "uint256",
          "name": "_maxGasPrice",
          "type": "uint256"
        }
      ],
      "name": "setMaxGasPrice",
      "outputs": [],
      "stateMutability": "nonpayable",
      "type": "function"
    },
    {
      "inputs": [
        {
          "internalType": "address",
          "name": "_token",
          "type": "address"
        },
        {
          "internalType": "uint256",
          "name": "_amount",
          "type": "uint256"
        }
      ],
      "name": "setMaxGlobalShortSize",
      "outputs": [],
      "stateMutability": "nonpayable",
      "type": "function"
    },
    {
      "inputs": [
        {
          "internalType": "uint256",
          "name": "_maxLeverage",
          "type": "uint256"
        }
      ],
      "name": "setMaxLeverage",
      "outputs": [],
      "stateMutability": "nonpayable",
      "type": "function"
    },
    {
      "inputs": [
        {
          "internalType": "uint256",
          "name": "_minProfitTime",
          "type": "uint256"
        }
      ],
      "name": "setMinProfitTime",
      "outputs": [],
      "stateMutability": "nonpayable",
      "type": "function"
    },
    {
      "inputs": [
        {
          "internalType": "address",
          "name": "_priceFeed",
          "type": "address"
        }
      ],
      "name": "setPriceFeed",
      "outputs": [],
      "stateMutability": "nonpayable",
      "type": "function"
    },
    {
      "inputs": [
        {
          "internalType": "address",
          "name": "_token",
          "type": "address"
        },
        {
          "internalType": "uint256",
          "name": "_tokenDecimals",
          "type": "uint256"
        },
        {
          "internalType": "uint256",
          "name": "_tokenWeight",
          "type": "uint256"
        },
        {
          "internalType": "uint256",
          "name": "_minProfitBps",
          "type": "uint256"
        },
        {
          "internalType": "uint256",
          "name": "_maxZkusdAmount",
          "type": "uint256"
        },
        {
          "internalType": "bool",
          "name": "_isStable",
          "type": "bool"
        },
        {
          "internalType": "bool",
          "name": "_isShortable",
          "type": "bool"
        },
        {
          "internalType": "bool",
          "name": "_isEquity",
          "type": "bool"
        }
      ],
      "name": "setTokenConfig",
      "outputs": [],
      "stateMutability": "nonpayable",
      "type": "function"
    },
    {
      "inputs": [
        {
          "internalType": "contract IVaultUtils",
          "name": "_vaultUtils",
          "type": "address"
        }
      ],
      "name": "setVaultUtils",
      "outputs": [],
      "stateMutability": "nonpayable",
      "type": "function"
    },
    {
      "inputs": [
        {
          "internalType": "address",
          "name": "_token",
          "type": "address"
        },
        {
          "internalType": "uint256",
          "name": "_amount",
          "type": "uint256"
        }
      ],
      "name": "setZkusdAmount",
      "outputs": [],
      "stateMutability": "nonpayable",
      "type": "function"
    },
    {
      "inputs": [
        {
          "internalType": "address",
          "name": "",
          "type": "address"
        }
      ],
      "name": "shortableTokens",
      "outputs": [
        {
          "internalType": "bool",
          "name": "",
          "type": "bool"
        }
      ],
      "stateMutability": "view",
      "type": "function"
    },
    {
      "inputs": [],
      "name": "stableFundingRateFactor",
      "outputs": [
        {
          "internalType": "uint256",
          "name": "",
          "type": "uint256"
        }
      ],
      "stateMutability": "view",
      "type": "function"
    },
    {
      "inputs": [],
      "name": "stableSwapFeeBasisPoints",
      "outputs": [
        {
          "internalType": "uint256",
          "name": "",
          "type": "uint256"
        }
      ],
      "stateMutability": "view",
      "type": "function"
    },
    {
      "inputs": [],
      "name": "stableTaxBasisPoints",
      "outputs": [
        {
          "internalType": "uint256",
          "name": "",
          "type": "uint256"
        }
      ],
      "stateMutability": "view",
      "type": "function"
    },
    {
      "inputs": [
        {
          "internalType": "address",
          "name": "",
          "type": "address"
        }
      ],
      "name": "stableTokens",
      "outputs": [
        {
          "internalType": "bool",
          "name": "",
          "type": "bool"
        }
      ],
      "stateMutability": "view",
      "type": "function"
    },
    {
      "inputs": [
        {
          "internalType": "address",
          "name": "_tokenIn",
          "type": "address"
        },
        {
          "internalType": "address",
          "name": "_tokenOut",
          "type": "address"
        },
        {
          "internalType": "address",
          "name": "_receiver",
          "type": "address"
        }
      ],
      "name": "swap",
      "outputs": [
        {
          "internalType": "uint256",
          "name": "",
          "type": "uint256"
        }
      ],
      "stateMutability": "nonpayable",
      "type": "function"
    },
    {
      "inputs": [],
      "name": "swapFeeBasisPoints",
      "outputs": [
        {
          "internalType": "uint256",
          "name": "",
          "type": "uint256"
        }
      ],
      "stateMutability": "view",
      "type": "function"
    },
    {
      "inputs": [],
      "name": "taxBasisPoints",
      "outputs": [
        {
          "internalType": "uint256",
          "name": "",
          "type": "uint256"
        }
      ],
      "stateMutability": "view",
      "type": "function"
    },
    {
      "inputs": [
        {
          "internalType": "address",
          "name": "",
          "type": "address"
        }
      ],
      "name": "tokenBalances",
      "outputs": [
        {
          "internalType": "uint256",
          "name": "",
          "type": "uint256"
        }
      ],
      "stateMutability": "view",
      "type": "function"
    },
    {
      "inputs": [
        {
          "internalType": "address",
          "name": "",
          "type": "address"
        }
      ],
      "name": "tokenDecimals",
      "outputs": [
        {
          "internalType": "uint256",
          "name": "",
          "type": "uint256"
        }
      ],
      "stateMutability": "view",
      "type": "function"
    },
    {
      "inputs": [
        {
          "internalType": "address",
          "name": "_token",
          "type": "address"
        },
        {
          "internalType": "uint256",
          "name": "_tokenAmount",
          "type": "uint256"
        }
      ],
      "name": "tokenToUsdMin",
      "outputs": [
        {
          "internalType": "uint256",
          "name": "",
          "type": "uint256"
        }
      ],
      "stateMutability": "view",
      "type": "function"
    },
    {
      "inputs": [
        {
          "internalType": "address",
          "name": "",
          "type": "address"
        }
      ],
      "name": "tokenWeights",
      "outputs": [
        {
          "internalType": "uint256",
          "name": "",
          "type": "uint256"
        }
      ],
      "stateMutability": "view",
      "type": "function"
    },
    {
      "inputs": [],
      "name": "totalTokenWeights",
      "outputs": [
        {
          "internalType": "uint256",
          "name": "",
          "type": "uint256"
        }
      ],
      "stateMutability": "view",
      "type": "function"
    },
    {
      "inputs": [
        {
          "internalType": "address",
          "name": "_collateralToken",
          "type": "address"
        },
        {
          "internalType": "address",
          "name": "_indexToken",
          "type": "address"
        }
      ],
      "name": "updateCumulativeFundingRate",
      "outputs": [],
      "stateMutability": "nonpayable",
      "type": "function"
    },
    {
      "inputs": [
        {
          "internalType": "address",
          "name": "_newVault",
          "type": "address"
        },
        {
          "internalType": "address",
          "name": "_token",
          "type": "address"
        },
        {
          "internalType": "uint256",
          "name": "_amount",
          "type": "uint256"
        }
      ],
      "name": "upgradeVault",
      "outputs": [],
      "stateMutability": "nonpayable",
      "type": "function"
    },
    {
      "inputs": [
        {
          "internalType": "address",
          "name": "_token",
          "type": "address"
        },
        {
          "internalType": "uint256",
          "name": "_usdAmount",
          "type": "uint256"
        },
        {
          "internalType": "uint256",
          "name": "_price",
          "type": "uint256"
        }
      ],
      "name": "usdToToken",
      "outputs": [
        {
          "internalType": "uint256",
          "name": "",
          "type": "uint256"
        }
      ],
      "stateMutability": "view",
      "type": "function"
    },
    {
      "inputs": [
        {
          "internalType": "address",
          "name": "_token",
          "type": "address"
        },
        {
          "internalType": "uint256",
          "name": "_usdAmount",
          "type": "uint256"
        }
      ],
      "name": "usdToTokenMax",
      "outputs": [
        {
          "internalType": "uint256",
          "name": "",
          "type": "uint256"
        }
      ],
      "stateMutability": "view",
      "type": "function"
    },
    {
      "inputs": [
        {
          "internalType": "address",
          "name": "_token",
          "type": "address"
        },
        {
          "internalType": "uint256",
          "name": "_usdAmount",
          "type": "uint256"
        }
      ],
      "name": "usdToTokenMin",
      "outputs": [
        {
          "internalType": "uint256",
          "name": "",
          "type": "uint256"
        }
      ],
      "stateMutability": "view",
      "type": "function"
    },
    {
      "inputs": [
        {
          "internalType": "address",
          "name": "_account",
          "type": "address"
        },
        {
          "internalType": "address",
          "name": "_collateralToken",
          "type": "address"
        },
        {
          "internalType": "address",
          "name": "_indexToken",
          "type": "address"
        },
        {
          "internalType": "bool",
          "name": "_isLong",
          "type": "bool"
        },
        {
          "internalType": "bool",
          "name": "_raise",
          "type": "bool"
        }
      ],
      "name": "validateLiquidation",
      "outputs": [
        {
          "internalType": "uint256",
          "name": "",
          "type": "uint256"
        },
        {
          "internalType": "uint256",
          "name": "",
          "type": "uint256"
        }
      ],
      "stateMutability": "view",
      "type": "function"
    },
    {
      "inputs": [],
      "name": "vaultUtils",
      "outputs": [
        {
          "internalType": "contract IVaultUtils",
          "name": "",
          "type": "address"
        }
      ],
      "stateMutability": "view",
      "type": "function"
    },
    {
      "inputs": [],
      "name": "whitelistedTokenCount",
      "outputs": [
        {
          "internalType": "uint256",
          "name": "",
          "type": "uint256"
        }
      ],
      "stateMutability": "view",
      "type": "function"
    },
    {
      "inputs": [
        {
          "internalType": "address",
          "name": "",
          "type": "address"
        }
      ],
      "name": "whitelistedTokens",
      "outputs": [
        {
          "internalType": "bool",
          "name": "",
          "type": "bool"
        }
      ],
      "stateMutability": "view",
      "type": "function"
    },
    {
      "inputs": [
        {
          "internalType": "address",
          "name": "_token",
          "type": "address"
        },
        {
          "internalType": "address",
          "name": "_receiver",
          "type": "address"
        }
      ],
      "name": "withdrawFees",
      "outputs": [
        {
          "internalType": "uint256",
          "name": "",
          "type": "uint256"
        }
      ],
      "stateMutability": "nonpayable",
      "type": "function"
    },
    {
      "inputs": [],
      "name": "zkusd",
      "outputs": [
        {
          "internalType": "address",
          "name": "",
          "type": "address"
        }
      ],
      "stateMutability": "view",
      "type": "function"
    },
    {
      "inputs": [
        {
          "internalType": "address",
          "name": "",
          "type": "address"
        }
      ],
      "name": "zkusdAmounts",
      "outputs": [
        {
          "internalType": "uint256",
          "name": "",
          "type": "uint256"
        }
      ],
      "stateMutability": "view",
      "type": "function"
    }
  ],
  "transactionHash": "0x2da73c8f365a9cf66cdc12b2cb623eaef371c96a9a251cbe4c8dbf71b1a0c418",
  "args": [],
  "numDeployments": 1,
  "solcInputHash": "45f986e69ef0b1c3adec9bb2994aea31",
  "bytecode": "0x6080604052620f4240600b556032600c556014600d55601e600e819055600f556004601055600a601155610e106012556016805464ffffff00001961ff001960ff1990921660011791909116610100171664010000000017905534801561006557600080fd5b506001600081905580546001600160a01b03191633179055615dae806200008d6000396000f3fe608060405234801561001057600080fd5b50600436106105e05760003560e01c806388b1fbdf11610307578063cea0c3281161019e578063e124e6d2116100ef578063f25552781161009d578063f2555278146115b2578063f3ae2415146115e0578063f887ea4014611606578063fa12dbc01461160e578063fbfded6d14611640578063fdaf6ac31461166e578063fed1a606146116b2576105e0565b8063e124e6d214611481578063e468baf0146114a7578063e67f59a7146114c4578063ee131066146114ea578063efa10a6e14611541578063f07456ce1461156d578063f07bbf7714611593576105e0565b8063da76524c1161014c578063da76524c14611347578063daf9c21014611391578063db3555fb146113b7578063db97495f146113dd578063dc8f5fac14611429578063de2ea94814611431578063df73a26714611479576105e0565b8063cea0c32814611224578063cfad57a21461125a578063d2fa635e14611280578063d3127e631461129d578063d54d5a9f146112ba578063d8f897c314611319578063d9ac42251461133f576105e0565b80639f392eb311610258578063ace112de11610206578063ace112de14611124578063ae3302c214611150578063b1cc53ab14611158578063c3c7b9e914611190578063c4f718bf146111b6578063c65bc7b1146111be578063c7e074c3146111e4576105e0565b80639f392eb314611048578063a22f239214611050578063a42ab3d214611058578063a5e90eee14611084578063a8669915146110b2578063a93acac2146110d8578063ab2f3ad4146110fe576105e0565b80639317020d116102b55780639317020d14610f5d5780639331621214610f7c5780639698d25a14610fb45780639849e41214610fda5780639899cd0214610fe25780639bc90a0f1461100e5780639d7432ca14611016576105e0565b806388b1fbdf14610e6e5780638a27d46814610e945780638a78daa814610ebd5780638ee573ac14610ee35780638f7b840414610f095780639060b1ca14610f2f578063918a045c14610f37576105e0565b806348d91abf1161047b57806362287a32116103cc578063741bef1a1161037a578063741bef1a14610d7c5780637a210a2b14610d845780637c2eb9f714610d8c5780638097505114610dab57806381a612d614610dc857806382a0849014610dee5780638585f4d214610e42576105e0565b806362287a3214610c8c5780636274980314610c945780636abbe0c814610cba5780636ae0b15414610cc257806371089f4d14610ce8578063724e78da14610d0e578063728cdbca14610d34576105e0565b8063529a356f11610429578063529a356f14610b7657806352f55eed14610b9c57806354d33cf914610bc2578063552036b314610bf05780635c07eaab14610bf85780635f7bc11914610c385780636092219914610c5e576105e0565b806348d91abf14610a0057806348f35cbb14610a445780634a3f088d14610a4c5780634a993ee914610acd5780634d47b30414610af3578063514ea4bf14610afb578063523fba7f14610b50576105e0565b80632c668ec1116105355780633e72a262116104e35780633e72a262146108bb57806340eb3802146108c3578063421528731461091457806342b60b03146109485780634453a3741461096e57806345a6f3701461099c578063486fe2a1146109da576105e0565b80632c668ec1146108125780632d4b05761461083e57806330455ede1461087c578063318bc6891461089b578063351a964d146108a3578063392e53cd146108ab5780633de39c11146108b3576105e0565b80631511476c116105925780631511476c146106b3578063174d26941461070c578063181e210e146107145780631ce9cb8f1461073057806324b0c04d1461075657806324ca984e1461077757806328e67be51461079d576105e0565b80630842b076146105e557806308665520146105ff57806309c62d5c146106255780630a48d5a91461065357806310eb56c21461067f57806312d43a5114610687578063134ca63b146106ab575b600080fd5b6105ed611744565b60408051918252519081900360200190f35b6105ed6004803603602081101561061557600080fd5b50356001600160a01b031661174a565b6105ed6004803603604081101561063b57600080fd5b506001600160a01b038135811691602001351661175c565b6105ed6004803603604081101561066957600080fd5b506001600160a01b0381351690602001356119d6565b6105ed611a2f565b61068f611a35565b604080516001600160a01b039092168252519081900360200190f35b6105ed611a44565b6106f1600480360360808110156106c957600080fd5b506001600160a01b038135811691602081013582169160408201351690606001351515611a4a565b60408051921515835260208301919091528051918290030190f35b6105ed611a76565b61071c611a7c565b604080519115158252519081900360200190f35b6105ed6004803603602081101561074657600080fd5b50356001600160a01b0316611a8c565b6107756004803603602081101561076c57600080fd5b50351515611a9e565b005b6107756004803603602081101561078d57600080fd5b50356001600160a01b0316611ac4565b610775600480360360408110156107b357600080fd5b81359190810190604081016020820135600160201b8111156107d457600080fd5b8201836020820111156107e657600080fd5b803590602001918460018302840111600160201b8311171561080757600080fd5b509092509050611af5565b6105ed6004803603604081101561082857600080fd5b506001600160a01b038135169060200135611be0565b6105ed6004803603608081101561085457600080fd5b506001600160a01b038135811691602081013582169160408201351690606001351515611c25565b6107756004803603602081101561089257600080fd5b50351515611c80565b6105ed611c9b565b61071c611ca1565b61071c611caa565b6105ed611cba565b61071c611cc0565b61077560048036036101208110156108da57600080fd5b5080359060208101359060408101359060608101359060808101359060a08101359060c08101359060e08101359061010001351515611cce565b6105ed6004803603606081101561092a57600080fd5b508035906001600160a01b0360208201358116916040013516611d92565b61071c6004803603602081101561095e57600080fd5b50356001600160a01b0316611e34565b6107756004803603604081101561098457600080fd5b506001600160a01b0381351690602001351515611e49565b6106f1600480360360808110156109b257600080fd5b506001600160a01b038135811691602081013582169160408201351690606001351515611e7c565b6105ed600480360360208110156109f057600080fd5b50356001600160a01b0316611f1a565b610775600480360360a0811015610a1657600080fd5b506001600160a01b038135811691602081013582169160408201351690606081013590608001351515611f2c565b61068f61236a565b610a8a60048036036080811015610a6257600080fd5b506001600160a01b038135811691602081013582169160408201351690606001351515612379565b604080519889526020890197909752878701959095526060870193909352608086019190915260a0850152151560c084015260e083015251908190036101000190f35b6105ed60048036036020811015610ae357600080fd5b50356001600160a01b031661246f565b6105ed612481565b610b1860048036036020811015610b1157600080fd5b5035612487565b604080519788526020880196909652868601949094526060860192909252608085015260a084015260c0830152519081900360e00190f35b6105ed60048036036020811015610b6657600080fd5b50356001600160a01b03166124c4565b61071c60048036036020811015610b8c57600080fd5b50356001600160a01b03166124d6565b6105ed60048036036020811015610bb257600080fd5b50356001600160a01b03166124eb565b6105ed60048036036040811015610bd857600080fd5b506001600160a01b03813581169160200135166124fd565b61071c6127b3565b6106f1600480360360a0811015610c0e57600080fd5b506001600160a01b03813516906020810135906040810135906060810135151590608001356127bc565b61077560048036036020811015610c4e57600080fd5b50356001600160a01b03166128b4565b61071c60048036036040811015610c7457600080fd5b506001600160a01b0381358116916020013516612997565b6105ed6129b7565b6105ed60048036036020811015610caa57600080fd5b50356001600160a01b03166129bd565b61068f6129cf565b61077560048036036020811015610cd857600080fd5b50356001600160a01b03166129e5565b61077560048036036020811015610cfe57600080fd5b50356001600160a01b0316612a13565b61077560048036036020811015610d2457600080fd5b50356001600160a01b0316612a49565b610775600480360360c0811015610d4a57600080fd5b506001600160a01b03813581169160208101358216916040820135169060608101359060808101359060a00135612a73565b61068f612afa565b6105ed612b09565b61077560048036036020811015610da257600080fd5b50351515612b0f565b61077560048036036020811015610dc157600080fd5b5035612b31565b6105ed60048036036020811015610dde57600080fd5b50356001600160a01b0316612b3e565b6105ed600480360360e0811015610e0457600080fd5b506001600160a01b0381358116916020810135821691604082013581169160608101359160808201359160a081013515159160c09091013516612c92565b61077560048036036040811015610e5857600080fd5b506001600160a01b038135169060200135612d10565b6105ed60048036036020811015610e8457600080fd5b50356001600160a01b0316612d34565b61077560048036036060811015610eaa57600080fd5b5080359060208101359060400135612d46565b6105ed60048036036020811015610ed357600080fd5b50356001600160a01b0316612d5c565b6105ed60048036036020811015610ef957600080fd5b50356001600160a01b0316612d6e565b61077560048036036020811015610f1f57600080fd5b50356001600160a01b0316612d80565b61071c612daa565b6105ed60048036036020811015610f4d57600080fd5b50356001600160a01b0316612dba565b61077560048036036020811015610f7357600080fd5b50351515612e7a565b6105ed60048036036060811015610f9257600080fd5b506001600160a01b038135811691602081013582169160409091013516612e95565b6105ed60048036036020811015610fca57600080fd5b50356001600160a01b031661315e565b6105ed613170565b6105ed60048036036040811015610ff857600080fd5b506001600160a01b038135169060200135613176565b61068f613198565b6105ed6004803603606081101561102c57600080fd5b506001600160a01b0381351690602081013590604001356131a7565b61071c613250565b6105ed61325f565b6105ed6004803603604081101561106e57600080fd5b506001600160a01b038135169060200135613265565b6107756004803603604081101561109a57600080fd5b506001600160a01b0381351690602001351515613282565b61071c600480360360208110156110c857600080fd5b50356001600160a01b03166132b5565b6105ed600480360360208110156110ee57600080fd5b50356001600160a01b03166132ca565b6105ed6004803603602081101561111457600080fd5b50356001600160a01b03166133c8565b6107756004803603604081101561113a57600080fd5b506001600160a01b0381351690602001356133da565b6105ed613435565b6105ed6004803603606081101561116e57600080fd5b506001600160a01b03813581169160208101359091169060400135151561343b565b6105ed600480360360208110156111a657600080fd5b50356001600160a01b03166134d6565b6105ed6134e8565b6105ed600480360360208110156111d457600080fd5b50356001600160a01b03166134ee565b6105ed600480360360a08110156111fa57600080fd5b506001600160a01b0381351690602081013590604081013590606081013590608001351515613500565b6107756004803603606081101561123a57600080fd5b506001600160a01b038135811691602081013590911690604001356135aa565b6107756004803603602081101561127057600080fd5b50356001600160a01b03166135c6565b6107756004803603602081101561129657600080fd5b50356135f0565b610775600480360360208110156112b357600080fd5b50356135fd565b611300600480360360a08110156112d057600080fd5b506001600160a01b0381358116916020810135821691604082013516906060810135151590608001351515613619565b6040805192835260208301919091528051918290030190f35b6105ed6004803603602081101561132f57600080fd5b50356001600160a01b03166136d0565b6105ed6136e2565b6105ed600480360360c081101561135d57600080fd5b506001600160a01b038135811691602081013582169160408201351690606081013515159060808101359060a001356136e8565b61071c600480360360208110156113a757600080fd5b50356001600160a01b031661379c565b61071c600480360360208110156113cd57600080fd5b50356001600160a01b03166137b1565b6105ed600480360360e08110156113f357600080fd5b506001600160a01b0381351690602081013590604081013590606081013515159060808101359060a08101359060c001356137c6565b6105ed613859565b610775600480360360a081101561144757600080fd5b506001600160a01b0381358116916020810135821691604082013581169160608101351515916080909101351661385f565b6105ed613c16565b6105ed6004803603602081101561149757600080fd5b50356001600160a01b0316613c1c565b61068f600480360360208110156114bd57600080fd5b5035613d09565b610775600480360360208110156114da57600080fd5b50356001600160a01b0316613d30565b610775600480360361010081101561150157600080fd5b506001600160a01b038135169060208101359060408101359060608101359060808101359060a081013515159060c081013515159060e001351515613e05565b6107756004803603604081101561155757600080fd5b506001600160a01b038135169060200135613f51565b6105ed6004803603602081101561158357600080fd5b50356001600160a01b0316613f75565b610775600480360360208110156115a957600080fd5b50351515613f86565b6105ed600480360360408110156115c857600080fd5b506001600160a01b0381358116916020013516613fad565b61071c600480360360208110156115f657600080fd5b50356001600160a01b0316614003565b61068f614018565b6105ed6004803603606081101561162457600080fd5b506001600160a01b038135169060208101359060400135614027565b6107756004803603604081101561165657600080fd5b506001600160a01b0381358116916020013516614061565b6105ed600480360360a081101561168457600080fd5b506001600160a01b03813581169160208101358216916040820135169060608101351515906080013561423a565b6116cf600480360360208110156116c857600080fd5b50356142b0565b6040805160208082528351818301528351919283929083019185019080838360005b838110156117095781810151838201526020016116f1565b50505050905090810190601f1680156117365780820380516001836020036101000a031916815260200191505b509250505060405180910390f35b602c5490565b602e6020526000908152604090205481565b6000600260005414156117a4576040805162461bcd60e51b815260206004820152601f6024820152600080516020615d0e833981519152604482015290519081900360640190fd5b60026000556117b161434b565b6001600160a01b0383166000908152602d60205260409020546117d89060ff16601361437d565b6003546000906117f0906001600160a01b0316614429565b905061180060008211601461437d565b61180a8485614061565b60006118168583611be0565b905061182660008211601561437d565b61183085836144d6565b61183a85826145b8565b60035460408051632770a7eb60e21b81523060048201526024810185905290516001600160a01b0390921691639dc29fac9160448082019260009290919082900301818387803b15801561188d57600080fd5b505af11580156118a1573d6000803e3d6000fd5b50506003546118bb92506001600160a01b0316905061468e565b6016546040805163d1258f6f60e01b81526001600160a01b038881166004830152602482018690529151600093600160281b90049092169163d1258f6f91604480820192602092909190829003018186803b15801561191957600080fd5b505afa15801561192d573d6000803e3d6000fd5b505050506040513d602081101561194357600080fd5b505190506000611954878484614729565b905061196460008211601661437d565b61196f8782886147f1565b604080516001600160a01b03808916825289166020820152808201869052606081018390526080810184905290517ff05e6366cb941c74f03fb14efe64792f2f8045c0d19de689272fdb19b83aca5a9181900360a00190a160016000559695505050505050565b6000816119e557506000611a29565b60006119f084612b3e565b6001600160a01b038516600090815260286020526040902054909150611a24600a82900a611a1e8685614898565b906148f1565b925050505b92915050565b600d5481565b6001546001600160a01b031681565b60075481565b600080611a5986868686611c25565b600081815260086020526040902054151597909650945050505050565b60055481565b601654600160201b900460ff1681565b60236020526000908152604090205481565b611aa6614933565b6016805491151563010000000263ff00000019909216919091179055565b3360009081526018602090815260408083206001600160a01b0394909416835292905220805460ff19166001179055565b60175460408051808201909152601e81527f5661756c743a20696e76616c6964206572726f72436f6e74726f6c6c657200006020820152906001600160a01b03163314611bc05760405162461bcd60e51b81526004018080602001828103825283818151815260200191508051906020019080838360005b83811015611b85578181015183820152602001611b6d565b50505050905090810190601f168015611bb25780820380516001836020036101000a031916815260200191505b509250505060405180910390fd5b506000838152602760205260409020611bda908383615c3d565b50505050565b600080611bec84613c1c565b90506000611c0a82611a1e8668327cb2734119d3b7a9601e1b614898565b600354909150611a249082906001600160a01b031687611d92565b604080516bffffffffffffffffffffffff19606096871b811660208084019190915295871b811660348301529390951b9092166048850152151560f81b605c8401528051603d818503018152605d9093019052815191012090565b611c88614933565b6016805460ff1916911515919091179055565b60115481565b60165460ff1681565b600154600160a01b900460ff1681565b60145481565b601654610100900460ff1681565b611cd6614933565b611ce66101f48a1115600361437d565b611cf66101f4891115600461437d565b611d066101f4881115600561437d565b611d166101f4871115600661437d565b611d266101f4861115600761437d565b611d366101f4851115600861437d565b611d526d04ee2d6d415b85acef8100000000841115600961437d565b600c98909855600d96909655600e94909455600f9290925560105560115560055560155560168054911515620100000262ff000019909216919091179055565b60035460009081906001600160a01b03858116911614611dca576001600160a01b038416600090815260286020526040902054611dcd565b60125b6003549091506000906001600160a01b03858116911614611e06576001600160a01b038416600090815260286020526040902054611e09565b60125b9050611e2882600a0a611a1e83600a0a8961489890919063ffffffff16565b925050505b9392505050565b601c6020526000908152604090205460ff1681565b611e51614933565b6001600160a01b03919091166000908152601960205260409020805460ff1916911515919091179055565b6000806000611e8d87878787611c25565b9050611e97615cbb565b50600081815260086020908152604091829020825160e081018452815480825260018301549382019390935260028201549381018490526003820154606082015260048201546080820152600582015460a082015260069091015460c082018190529092611f0b92899290919089906127bc565b93509350505094509492505050565b602f6020526000908152604090205481565b60026000541415611f72576040805162461bcd60e51b815260206004820152601f6024820152600080516020615d0e833981519152604482015290519081900360640190fd5b6002600055601654611f8d90610100900460ff16601c61437d565b611f9561494c565b611f9e85614968565b611fa98484836149cb565b60165460408051634eae147d60e11b81526001600160a01b038881166004830152878116602483015286811660448301526064820186905284151560848301529151600160281b90930490911691639d5c28fa9160a480820192600092909190829003018186803b15801561201d57600080fd5b505afa158015612031573d6000803e3d6000fd5b5050505061203f8484614061565b600061204d86868685611c25565b6000818152600860205260408120919250836120715761206c86612b3e565b61207a565b61207a86613c1c565b825490915061208b57600282018190555b81541580159061209b5750600085115b156120c1576120bb868360000154846002015487858a88600601546137c6565b60028301555b60006120da898989888a88600001548960030154614ae5565b905060006120e789614429565b905060006120f58a836119d6565b60018601549091506121079082614bb3565b6001860181905561211c90841115601d61437d565b600185015461212b9084614c0d565b600186015561213b8a8a8961343b565b6003860155845461214c9089614bb3565b808655426006870155612162901515601e61437d565b61217485600001548660010154614c4f565b6121828b8b8b8a6001613619565b505060006121908b8a613265565b60048701549091506121a29082614bb3565b60048701556121b18b82614c73565b87156121f6576121ca8b6121c58b87614bb3565b614d13565b6121d48b83614d8f565b6121de8b84614e0b565b6121f18b6121ec8d87613176565b6145b8565b612262565b6001600160a01b038a16600090815260246020526040902054612233576001600160a01b038a166000908152602560205260409020859055612258565b61223e8a868b6131a7565b6001600160a01b038b166000908152602560205260409020555b6122628a8a614f23565b604080518881526001600160a01b03808f166020830152808e16828401528c1660608201526080810184905260a081018b905289151560c082015260e08101879052610100810186905290517f2fe68525253654c21998f35787a8d0f361905ef647c854092430ab65f2f15022918190036101200190a1855460018701546002880154600389015460048a015460058b0154604080518e81526020810197909752868101959095526060860193909352608085019190915260a084015260c083015260e08201879052517f20853733b590dce729d9f4628682ebd9a34d2354e72679e66f43a008fc03b773918190036101000190a15050600160005550505050505050505050565b6017546001600160a01b031681565b60008060008060008060008060006123938d8d8d8d611c25565b905061239d615cbb565b600860008381526020019081526020016000206040518060e001604052908160008201548152602001600182015481526020016002820154815260200160038201548152602001600482015481526020016005820154815260200160068201548152505090506000808260a001511361241d578160a00151600003612423565b8160a001515b9050816000015182602001518360400151846060015185608001518560008860a0015112158860c001519a509a509a509a509a509a509a509a5050505094995094995094999196509450565b601f6020526000908152604090205481565b600e5481565b6008602052600090815260409020805460018201546002830154600384015460048501546005860154600690960154949593949293919290919087565b60296020526000908152604090205481565b60196020526000908152604090205460ff1681565b60096020526000908152604090205481565b600060026000541415612545576040805162461bcd60e51b815260206004820152601f6024820152600080516020615d0e833981519152604482015290519081900360640190fd5b600260005561255261434b565b6001600160a01b0383166000908152602d60205260409020546125799060ff16601061437d565b600061258484614429565b905061259460008211601161437d565b61259e8485614061565b60006125a985612b3e565b905060006125c768327cb2734119d3b7a9601e1b611a1e8585614898565b6003549091506125e390829088906001600160a01b0316611d92565b90506125f360008211601261437d565b601654604080516382c04ce760e01b81526001600160a01b038981166004830152602482018590529151600093600160281b9004909216916382c04ce791604480820192602092909190829003018186803b15801561265157600080fd5b505afa158015612665573d6000803e3d6000fd5b505050506040513d602081101561267b57600080fd5b50519050600061268c888684614729565b905060006126aa68327cb2734119d3b7a9601e1b611a1e8488614898565b6003549091506126c69082908b906001600160a01b0316611d92565b90506126d2898261501c565b6126dc8983614e0b565b600354604080516340c10f1960e01b81526001600160a01b038b8116600483015260248201859052915191909216916340c10f1991604480830192600092919082900301818387803b15801561273157600080fd5b505af1158015612745573d6000803e3d6000fd5b5050604080516001600160a01b03808d1682528d1660208201528082018a9052606081018590526080810187905290517f1ebbe215538a4163dc9d20a3615a8cdc7b0cfa7c55b7473d142a5e5c3a3dc0a293509081900360a0019150a1600160005598975050505050505050565b60305460ff1681565b6000806127cd60008611602661437d565b6000846127e2576127dd88613c1c565b6127eb565b6127eb88612b3e565b90506000818711612805576128008288614c0d565b61280f565b61280f8783614c0d565b9050600061282188611a1e8b85614898565b9050600087156128345750878311612839565b508288115b600061285060155489614bb390919063ffffffff16565b4211612874576001600160a01b038c166000908152601b6020526040902054612877565b60005b905081801561289a575061288b8b82614898565b61289784612710614898565b11155b156128a457600092505b509a909950975050505050505050565b600260005414156128fa576040805162461bcd60e51b815260206004820152601f6024820152600080516020615d0e833981519152604482015290519081900360640190fd5b600260009081556001600160a01b0382168152602d60205260409020546129259060ff16600e61437d565b600061293082614429565b905061294060008211600f61437d565b61294a8282614e0b565b604080516001600160a01b03841681526020810183905281517fa5a389190ebf6170a133bda5c769b77f4d6715b8aa172ec0ddf8473d0b4944bd929181900390910190a150506001600055565b601860209081526000928352604080842090915290825290205460ff1681565b60135481565b60256020526000908152604090205481565b601654600160281b90046001600160a01b031681565b3360009081526018602090815260408083206001600160a01b0394909416835292905220805460ff19169055565b612a1b614933565b601680546001600160a01b03909216600160281b0265010000000000600160c81b0319909216919091179055565b612a51614933565b600480546001600160a01b0319166001600160a01b0392909216919091179055565b612a7b614933565b612a96600160149054906101000a900460ff1615600161437d565b60018054600160a01b60ff60a01b19909116179055600280546001600160a01b03199081166001600160a01b039889161790915560038054821696881696909617909555600480549095169390951692909217909255600591909155600655600755565b6004546001600160a01b031681565b600c5481565b612b17614933565b601680549115156101000261ff0019909216919091179055565b612b39614933565b601555565b6001600160a01b0381166000908152601e602052604081205460ff168015612b68575060305460ff165b15612bff576004805460408051635ae6916360e01b81526001600160a01b0386811694820194909452600060248201819052604482015290519290911691635ae6916391606480820192602092909190829003018186803b158015612bcc57600080fd5b505afa158015612be0573d6000803e3d6000fd5b505050506040513d6020811015612bf657600080fd5b50519050612c8d565b6004805460408051635ae6916360e01b81526001600160a01b0386811694820194909452600060248201526001604482015290519290911691635ae6916391606480820192602092909190829003018186803b158015612c5e57600080fd5b505afa158015612c72573d6000803e3d6000fd5b505050506040513d6020811015612c8857600080fd5b505190505b919050565b600060026000541415612cda576040805162461bcd60e51b815260206004820152601f6024820152600080516020615d0e833981519152604482015290519081900360640190fd5b6002600055612ce761494c565b612cf088614968565b612cff888888888888886150da565b600160005598975050505050505050565b612d18614933565b6001600160a01b039091166000908152601f6020526040902055565b601b6020526000908152604090205481565b612d4e614933565b601292909255600655600755565b60246020526000908152604090205481565b60286020526000908152604090205481565b612d88614933565b601780546001600160a01b0319166001600160a01b0392909216919091179055565b6016546301000000900460ff1681565b600080600360009054906101000a90046001600160a01b03166001600160a01b03166318160ddd6040518163ffffffff1660e01b815260040160206040518083038186803b158015612e0b57600080fd5b505afa158015612e1f573d6000803e3d6000fd5b505050506040513d6020811015612e3557600080fd5b5051905080612e48576000915050612c8d565b6001600160a01b0383166000908152602a6020526040902054602b54612e7290611a1e8385614898565b949350505050565b612e82614933565b6030805460ff1916911515919091179055565b600060026000541415612edd576040805162461bcd60e51b815260206004820152601f6024820152600080516020615d0e833981519152604482015290519081900360640190fd5b6002600055601654612ef39060ff16601761437d565b6001600160a01b0384166000908152602d6020526040902054612f1a9060ff16601861437d565b6001600160a01b0383166000908152602d6020526040902054612f419060ff16601961437d565b612f61836001600160a01b0316856001600160a01b03161415601a61437d565b612f6b8485614061565b612f758384614061565b6000612f8085614429565b9050612f9060008211601b61437d565b6000612f9b86612b3e565b90506000612fa886613c1c565b90506000612fba82611a1e8686614898565b9050612fc7818989611d92565b90506000612fe568327cb2734119d3b7a9601e1b611a1e8787614898565b6003549091506130019082908b906001600160a01b0316611d92565b60165460408051636d099c0b60e11b81526001600160a01b038d811660048301528c81166024830152604482018590529151939450600093600160281b9093049091169163da13381691606480820192602092909190829003018186803b15801561306b57600080fd5b505afa15801561307f573d6000803e3d6000fd5b505050506040513d602081101561309557600080fd5b5051905060006130a68a8584614729565b90506130b28b8461501c565b6130bc8a846144d6565b6130c68b88614e0b565b6130d08a856145b8565b6130d98a61559d565b6130e48a828b6147f1565b604080516001600160a01b03808c168252808e1660208301528c1681830152606081018990526080810186905260a0810183905260c0810184905290517f0874b2d545cb271cdbda4e093020c452328b24af12382ed62c4d00f5c26709db9181900360e00190a160016000559a9950505050505050505050565b60266020526000908152604090205481565b60125481565b60008161318557506000611a29565b611e2d838361319386613c1c565b614027565b6003546001600160a01b031681565b6001600160a01b0383166000908152602460209081526040808320546025909252822054828582116131e2576131dd8683614c0d565b6131ec565b6131ec8287614c0d565b905060006131fe83611a1e8685614898565b9050868311600061320f8689614bb3565b9050600082613227576132228285614bb3565b613231565b6132318285614c0d565b905061324181611a1e8c85614898565b9b9a5050505050505050505050565b60165462010000900460ff1681565b600f5481565b60008161327457506000611a29565b611e2d838361319386612b3e565b61328a614933565b6001600160a01b03919091166000908152601a60205260409020805460ff1916911515919091179055565b601e6020526000908152604090205460ff1681565b6012546001600160a01b038216600090815260226020526040812054909142916132f391614bb3565b111561330157506000612c8d565b6012546001600160a01b038316600090815260226020526040812054909161332e91611a1e904290614c0d565b6001600160a01b0384166000908152600960205260409020549091508061335a57600092505050612c8d565b6001600160a01b0384166000908152601c602052604081205460ff1661338257600654613386565b6007545b6001600160a01b0386166000908152600a60205260409020549091506133bf908390611a1e9086906133b9908690614898565b90614898565b95945050505050565b602a6020526000908152604090205481565b6133e2614933565b6001600160a01b0382166000908152602e60205260409020548082111561341c57613416836134118484614c0d565b61501c565b50613431565b61342f8361342a8385614c0d565b6144d6565b505b5050565b600b5481565b6016546040805163b1cc53ab60e01b81526001600160a01b038681166004830152858116602483015284151560448301529151600093600160281b90049092169163b1cc53ab91606480820192602092909190829003018186803b1580156134a257600080fd5b505afa1580156134b6573d6000803e3d6000fd5b505050506040513d60208110156134cc57600080fd5b5051949350505050565b600a6020526000908152604090205481565b60065481565b60216020526000908152604090205481565b6016546040805163c7e074c360e01b81526001600160a01b03888116600483015260248201889052604482018790526064820186905284151560848301529151600093600160281b90049092169163c7e074c39160a480820192602092909190829003018186803b15801561357457600080fd5b505afa158015613588573d6000803e3d6000fd5b505050506040513d602081101561359e57600080fd5b50519695505050505050565b6135b2614933565b61342f6001600160a01b0383168483615640565b6135ce614933565b600180546001600160a01b0319166001600160a01b0392909216919091179055565b6135f8614933565b601455565b613605614933565b6136146127108211600261437d565b600b55565b6016546040805163d54d5a9f60e01b81526001600160a01b038881166004830152878116602483015286811660448301528515156064830152841515608483015282516000948594600160281b9091049092169263d54d5a9f9260a4808301939192829003018186803b15801561368f57600080fd5b505afa1580156136a3573d6000803e3d6000fd5b505050506040513d60408110156136b957600080fd5b508051602090910151909890975095505050505050565b60226020526000908152604090205481565b60155481565b6016546040805163369d949360e21b81526001600160a01b0389811660048301528881166024830152878116604483015286151560648301526084820186905260a482018590529151600093600160281b90049092169163da76524c9160c480820192602092909190829003018186803b15801561376557600080fd5b505afa158015613779573d6000803e3d6000fd5b505050506040513d602081101561378f57600080fd5b5051979650505050505050565b602d6020526000908152604090205460ff1681565b601d6020526000908152604090205460ff1681565b60008060006137d88a8a8a8a886127bc565b909250905060006137e98a87614bb3565b9050600088156138185783613807576138028284614c0d565b613811565b6138118284614bb3565b9050613839565b8361382c576138278284614bb3565b613836565b6138368284614c0d565b90505b61384781611a1e8a85614898565b9450505050505b979650505050505050565b602b5481565b600260005414156138a5576040805162461bcd60e51b815260206004820152601f6024820152600080516020615d0e833981519152604482015290519081900360640190fd5b6002600055601654600160201b900460ff16156138da57336000908152601960205260409020546138da9060ff16602261437d565b6138e48484614061565b60006138f286868686611c25565b90506138fc615cbb565b50600081815260086020908152604091829020825160e08101845281548082526001830154938201939093526002820154938101939093526003810154606084015260048101546080840152600581015460a08401526006015460c0830152613968901515602361437d565b600080613979898989896000613619565b9150915061398c8260001415602461437d565b81600214156139b3576139a9898989600087600001518b8f6150da565b5050505050613c0a565b60006139bf8983613176565b6001600160a01b038a166000908152602360205260409020549091506139e59082614bb3565b6001600160a01b038a1660008181526023602090815260409182902093909355805191825291810184905280820183905290517f5d0c0019d3d45fadeb74eff9d2c9924d146d000ac6bcf3c28bf0ac3c9baa011a9181900360600190a1613a50898560800151615692565b8615613a7f5760208401518451613a71918b91613a6c91614c0d565b614d8f565b613a7f896121ec8b85613176565b600087613a9457613a8f89613c1c565b613a9d565b613a9d89612b3e565b90507f2e1f85a64a2f22cf2f0c42584e7c919ed4abe8d53675cff0f62bf1e95a1c676f868c8c8c8c8a600001518b602001518c608001518d60a001518a604051808b81526020018a6001600160a01b03168152602001896001600160a01b03168152602001886001600160a01b0316815260200187151581526020018681526020018581526020018481526020018381526020018281526020019a505050505050505050505060405180910390a187158015613b5c5750846020015183105b15613b8a576020850151600090613b739085614c0d565b9050613b888b613b838d84613176565b614e0b565b505b87613b9d57613b9d898660000151615749565b600086815260086020526040812081815560018101829055600281018290556003810182905560048101829055600580820183905560069091019190915554613bed908b906121ec908290613176565b613c038a613bfd8c600554613176565b896147f1565b5050505050505b50506001600055505050565b60105481565b6001600160a01b0381166000908152601e602052604081205460ff168015613c46575060305460ff165b15613caa576004805460408051635ae6916360e01b81526001600160a01b0386811694820194909452600160248201526000604482015290519290911691635ae6916391606480820192602092909190829003018186803b158015612bcc57600080fd5b6004805460408051635ae6916360e01b81526001600160a01b0386811694820194909452600160248201819052604482015290519290911691635ae6916391606480820192602092909190829003018186803b158015612c5e57600080fd5b602c8181548110613d1657fe5b6000918252602090912001546001600160a01b0316905081565b613d38614933565b6001600160a01b0381166000908152602d6020526040902054613d5f9060ff16600d61437d565b6001600160a01b0381166000908152602a6020526040902054602b54613d8491614c0d565b602b556001600160a01b0381166000908152602d60209081526040808320805460ff1990811690915560288352818420849055602a8352818420849055601b8352818420849055602f8352818420849055601c8352818420805482169055601d90925290912080549091169055601354613dff906001614c0d565b60135550565b613e0d614933565b6001600160a01b0388166000908152602d602052604090205460ff16613e8a57601354613e3b906001614bb3565b601355602c80546001810182556000919091527f7416c943b4a09859521022fd2e90eac0dd9026dad28fa317782a135f28a860910180546001600160a01b0319166001600160a01b038a161790555b602b546001600160a01b0389166000908152602a6020526040902054613eb1908290614c0d565b6001600160a01b038a166000908152602d602090815260408083208054600160ff1991821617909155602883528184208d9055602a83528184208c9055601b83528184208b9055602f83528184208a9055601c8352818420805482168a1515179055601d835281842080548216891515179055601e90925290912080549091168415151790559050613f438188614bb3565b602b55505050505050505050565b613f59614933565b6001600160a01b03909116600090815260266020526040902055565b602080526000908152604090205481565b613f8e614933565b60168054911515600160201b0264ff0000000019909216919091179055565b6000613fb7614933565b6001600160a01b03831660009081526023602052604090205480613fdf576000915050611a29565b6001600160a01b038416600090815260236020526040812055611e2d8482856147f1565b601a6020526000908152604090205460ff1681565b6002546001600160a01b031681565b60008261403657506000611e2d565b6001600160a01b0384166000908152602860205260409020546133bf83611a1e86600a85900a614898565b6016546040805163fbfded6d60e01b81526001600160a01b03858116600483015284811660248301529151600093600160281b90049092169163fbfded6d9160448082019260209290919082900301818787803b1580156140c157600080fd5b505af11580156140d5573d6000803e3d6000fd5b505050506040513d60208110156140eb57600080fd5b50519050806140fa5750613431565b6001600160a01b03831660009081526022602052604090205461414757601254614128906133b942826148f1565b6001600160a01b03841660009081526022602052604090205550613431565b6012546001600160a01b038416600090815260226020526040902054429161416f9190614bb3565b111561417b5750613431565b6000614186846132ca565b6001600160a01b0385166000908152602160205260409020549091506141ac9082614bb3565b6001600160a01b0385166000908152602160205260409020556012546141d6906133b942826148f1565b6001600160a01b03851660008181526022602090815260408083209490945560218152908390205483519283529082015281517fa146fc154e1913322e9817d49f0d5c37466c24326e15de10e739a948be815eab929181900390910190a150505050565b6016546040805163fdaf6ac360e01b81526001600160a01b038881166004830152878116602483015286811660448301528515156064830152608482018590529151600093600160281b90049092169163fdaf6ac39160a480820192602092909190829003018186803b15801561357457600080fd5b60276020908152600091825260409182902080548351601f6002600019610100600186161502019093169290920491820184900484028101840190945280845290918301828280156143435780601f1061431857610100808354040283529160200191614343565b820191906000526020600020905b81548152906001019060200180831161432657829003601f168201915b505050505081565b6016546301000000900460ff161561437b57336000908152601a602052604090205461437b9060ff16603661437d565b565b60008181526027602052604090208261342f5760405162461bcd60e51b815260206004820190815282546002600019610100600184161502019091160460248301819052909182916044909101908490801561441a5780601f106143ef5761010080835404028352916020019161441a565b820191906000526020600020905b8154815290600101906020018083116143fd57829003601f168201915b50509250505060405180910390fd5b6001600160a01b03811660008181526029602090815260408083205481516370a0823160e01b8152306004820152915193949093859391926370a08231926024808301939192829003018186803b15801561448357600080fd5b505afa158015614497573d6000803e3d6000fd5b505050506040513d60208110156144ad57600080fd5b50516001600160a01b03851660009081526029602052604090208190559050612e728183614c0d565b6001600160a01b0382166000908152602e6020526040902054818111614551576001600160a01b0383166000818152602e60209081526040808320929092558151928352820183905280517fec47cc044bef28293f4a873e76cadf7029a60922b8fb2655f475fd89b3bfc0f69281900390910190a150613431565b61455b8183614c0d565b6001600160a01b0384166000818152602e602090815260409182902093909355805191825291810184905281517fec47cc044bef28293f4a873e76cadf7029a60922b8fb2655f475fd89b3bfc0f6929181900390910190a1505050565b604080518082018252601a81527f5661756c743a20706f6f6c416d6f756e742065786365656465640000000000006020808301919091526001600160a01b0385166000908152600990915291909120546146139183906157b1565b6001600160a01b0383166000908152600960209081526040808320849055600a909152902054614646911015603261437d565b604080516001600160a01b03841681526020810183905281517f112726233fbeaeed0f5b1dba5cb0b2b81883dee49fb35ff99fd98ed9f6d31eb0929181900390910190a15050565b6000816001600160a01b03166370a08231306040518263ffffffff1660e01b815260040180826001600160a01b0316815260200191505060206040518083038186803b1580156146dd57600080fd5b505afa1580156146f1573d6000803e3d6000fd5b505050506040513d602081101561470757600080fd5b50516001600160a01b0390921660009081526029602052604090209190915550565b600080614746612710611a1e61473f8287614c0d565b8790614898565b905060006147548583614c0d565b6001600160a01b03871660009081526023602052604090205490915061477a9082614bb3565b6001600160a01b0387166000908152602360205260409020557f47cd9dda0e50ce30bcaaacd0488452b596221c07ac402a581cfae4d3933cac2b866147bf81846119d6565b604080516001600160a01b0390931683526020830191909152818101849052519081900360600190a150949350505050565b6148056001600160a01b0384168284615640565b604080516370a0823160e01b815230600482015290516001600160a01b038516916370a08231916024808301926020929190829003018186803b15801561484b57600080fd5b505afa15801561485f573d6000803e3d6000fd5b505050506040513d602081101561487557600080fd5b50516001600160a01b039093166000908152602960205260409020929092555050565b6000826148a757506000611a29565b828202828482816148b457fe5b0414611e2d5760405162461bcd60e51b8152600401808060200182810382526021815260200180615d2e6021913960400191505060405180910390fd5b6000611e2d83836040518060400160405280601a81526020017f536166654d6174683a206469766973696f6e206279207a65726f00000000000081525061580b565b60015461437b906001600160a01b03163314603561437d565b6014546149585761437b565b61437b6014543a1115603761437d565b336001600160a01b038216141561497e576149c8565b6002546001600160a01b0316331415614996576149c8565b6001600160a01b03811660009081526018602090815260408083203384529091529020546149c89060ff16602961437d565b50565b8015614a44576149f0826001600160a01b0316846001600160a01b031614602a61437d565b6001600160a01b0383166000908152602d6020526040902054614a179060ff16602b61437d565b6001600160a01b0383166000908152601c6020526040902054614a3f9060ff1615602c61437d565b61342f565b6001600160a01b0383166000908152602d6020819052604090912054614a6f9160ff9091169061437d565b6001600160a01b0383166000908152601c6020526040902054614a969060ff16602e61437d565b6001600160a01b0382166000908152601c6020526040902054614abe9060ff1615602f61437d565b6001600160a01b0382166000908152601d602052604090205461342f9060ff16603061437d565b600080614af5898989898961423a565b90506000614b078a8a8a8a89896136e8565b9050614b138282614bb3565b91506000614b218a84613176565b6001600160a01b038b16600090815260236020526040902054909150614b479082614bb3565b6001600160a01b038b1660008181526023602090815260409182902093909355805191825291810185905280820183905290517f5d0c0019d3d45fadeb74eff9d2c9924d146d000ac6bcf3c28bf0ac3c9baa011a9181900360600190a150909998505050505050505050565b600082820183811015611e2d576040805162461bcd60e51b815260206004820152601b60248201527f536166654d6174683a206164646974696f6e206f766572666c6f770000000000604482015290519081900360640190fd5b6000611e2d83836040518060400160405280601e81526020017f536166654d6174683a207375627472616374696f6e206f766572666c6f7700008152506157b1565b81614c6557614c608115602761437d565b613431565b61343181831015602861437d565b6001600160a01b0382166000908152600a6020526040902054614c969082614bb3565b6001600160a01b0383166000908152600a6020818152604080842085905560098252909220549152614ccb911115603461437d565b604080516001600160a01b03841681526020810183905281517faa5649d82f5462be9d19b0f2b31a59b2259950a6076550bac9f3a1c07db9f66d929181900390910190a15050565b6001600160a01b0382166000908152602080526040902054614d359082614bb3565b6001600160a01b0383166000818152602080805260409182902093909355805191825291810183905281517fd9d4761f75e0d0103b5cbeab941eeb443d7a56a35b5baf2a0787c03f03f4e474929181900390910190a15050565b6001600160a01b0382166000908152602080526040902054614db19082614c0d565b6001600160a01b0383166000818152602080805260409182902093909355805191825291810183905281517f34e07158b9db50df5613e591c44ea2ebc82834eff4a4dc3a46e000e608261d68929181900390910190a15050565b6001600160a01b038216600090815260096020526040902054614e2e9082614bb3565b6001600160a01b03831660008181526009602090815260408083209490945583516370a0823160e01b8152306004820152935191936370a082319260248083019392829003018186803b158015614e8457600080fd5b505afa158015614e98573d6000803e3d6000fd5b505050506040513d6020811015614eae57600080fd5b50516001600160a01b038416600090815260096020526040902054909150614eda90821015603161437d565b604080516001600160a01b03851681526020810184905281517f976177fbe09a15e5e43f848844963a42b41ef919ef17ff21a17a5421de8f4737929181900390910190a1505050565b6001600160a01b038216600090815260246020526040902054614f469082614bb3565b6001600160a01b038316600090815260246020908152604080832093909355602690522054801561342f578060246000856001600160a01b03166001600160a01b031681526020019081526020016000205411156040518060400160405280601a81526020017f5661756c743a206d61782073686f72747320657863656564656400000000000081525090611bda5760405162461bcd60e51b8152602060048201818152835160248401528351909283926044909101919085019080838360008315611b85578181015183820152602001611b6d565b6001600160a01b0382166000908152602e602052604090205461503f9082614bb3565b6001600160a01b0383166000908152602e6020908152604080832093909355602f905220548015615091576001600160a01b0383166000908152602e602052604090205461509190821015603361437d565b604080516001600160a01b03851681526020810184905281517f982ef4a8d5cbd9ece9ad1dabc077a621c58fd63f622a48b0a05011d54a2466ab929181900390910190a1505050565b601654604080516381d11a2360e01b81526001600160a01b038a8116600483015289811660248301528881166044830152606482018890526084820187905285151560a483015284811660c48301529151600093600160281b9004909216916381d11a239160e4808201928692909190829003018186803b15801561515e57600080fd5b505afa158015615172573d6000803e3d6000fd5b505050506151808787614061565b600061518e89898987611c25565b60008181526008602052604090208054919250906151af901515601f61437d565b6151c18682600001541015602061437d565b6151d38782600101541015602161437d565b6001810154815460048301546000916151f091611a1e908b614898565b60048401549091506152029082614c0d565b60048401556152118b82615692565b506000806152238d8d8d8d8d8d615870565b8554919350915089146153c75761523b8c8c8a61343b565b6003850155835461524c908a614c0d565b808555600185015461525e9190614c4f565b61526c8d8d8d8b6001613619565b505087156152995761528f8c6121c5866001015486614c0d90919063ffffffff16565b6152998c8a614d8f565b6000886152ae576152a98c613c1c565b6152b7565b6152b78c612b3e565b90507f93d75d64d1f84fc6f430a64fc578bdd4c1e090e90ea2d51773e626d19de56d30868f8f8f8f8f8f886152ec8c8c614c0d565b60408051998a526001600160a01b0398891660208b015296881689880152949096166060880152608087019290925260a0860152151560c085015260e084019290925261010083019190915251908190036101200190a18454600186015460028701546003880154600489015460058a0154604080518d81526020810197909752868101959095526060860193909352608085019190915260a084015260c083015260e08201839052517f20853733b590dce729d9f4628682ebd9a34d2354e72679e66f43a008fc03b773918190036101000190a15061553b565b87156153e1576153d78c84614d13565b6153e18c8a614d8f565b6000886153f6576153f18c613c1c565b6153ff565b6153ff8c612b3e565b90507f93d75d64d1f84fc6f430a64fc578bdd4c1e090e90ea2d51773e626d19de56d30868f8f8f8f8f8f886154348c8c614c0d565b60408051998a526001600160a01b0398891660208b015296881689880152949096166060880152608087019290925260a0860152151560c085015260e084019290925261010083019190915251908190036101200190a18454600186015460028701546003880154600489015460058a0154604080518d81526020810197909752868101959095526060860193909352608085019190915260a084015260c0830152517f73af1d417d82c240fdb6d319b34ad884487c6bf2845d98980cc52ad9171cb4559181900360e00190a15060008581526008602052604081208181556001810182905560028101829055600381018290556004810182905560058101829055600601555b8761554a5761554a8b8a615749565b811561558a578715615564576155648c6121ec8e85613176565b60006155708d83613176565b905061557d8d828a6147f1565b955061384e945050505050565b5060009c9b505050505050505050505050565b6001600160a01b0381166000908152601f602090815260408083205460099092529091205410156149c857604080518082018252601a81527f5661756c743a20706f6f6c416d6f756e74203c206275666665720000000000006020808301918252925162461bcd60e51b81526004810193845282516024820152825192939283926044909201919080838360008315611b85578181015183820152602001611b6d565b604080516001600160a01b038416602482015260448082018490528251808303909101815260649091019091526020810180516001600160e01b031663a9059cbb60e01b17905261342f908490615a6a565b604080518082018252601b81527f5661756c743a20696e73756666696369656e74207265736572766500000000006020808301919091526001600160a01b0385166000908152600a90915291909120546156ed9183906157b1565b6001600160a01b0383166000818152600a602090815260409182902093909355805191825291810183905281517f533cb5ed32be6a90284e96b5747a1bfc2d38fdb5768a6b5f67ff7d62144ed67b929181900390910190a15050565b6001600160a01b0382166000908152602460205260409020548082111561578957506001600160a01b038216600090815260246020526040812055613431565b6157938183614c0d565b6001600160a01b038416600090815260246020526040902055505050565b600081848411156158035760405162461bcd60e51b8152602060048201818152835160248401528351909283926044909101919085019080838360008315611b85578181015183820152602001611b6d565b505050900390565b6000818361585a5760405162461bcd60e51b8152602060048201818152835160248401528351909283926044909101919085019080838360008315611b85578181015183820152602001611b6d565b50600083858161586657fe5b0495945050505050565b600080600061588189898987611c25565b60008181526008602052604081208054600382015493945090926158ae918d918d918d918b918d91614ae5565b90506000806000806158cf8d876000015488600201548d8a600601546127bc565b875491955085935091506158e790611a1e8d84614898565b9250505060008280156158fa5750600082115b1561592a575060058401805482019055808861592a57600061591c8e84613176565b90506159288e826145b8565b505b821580156159385750600082115b1561597c57600185015461594c9083614c0d565b6001860155886159705760006159628e84613176565b905061596e8e82614e0b565b505b60058501805483900390555b8a156159a45761598c818c614bb3565b600186015490915061599e908c614c0d565b60018601555b84548a14156159c75760018501546159bd908290614bb3565b6000600187015590505b80848111156159e1576159da8286614c0d565b9050615a15565b60018601546159f09086614c0d565b60018701558915615a15576000615a078f87613176565b9050615a138f826145b8565b505b60408051888152851515602082015280820185905290517f3ff41bdde87755b687ae83d0221a232b6be51a803330ed9661c1b5d0105e0d8a9181900360600190a1909e909d509b505050505050505050505050565b6060615abf826040518060400160405280602081526020017f5361666545524332303a206c6f772d6c6576656c2063616c6c206661696c6564815250856001600160a01b0316615b1b9092919063ffffffff16565b80519091501561342f57808060200190516020811015615ade57600080fd5b505161342f5760405162461bcd60e51b815260040180806020018281038252602a815260200180615d4f602a913960400191505060405180910390fd5b6060612e7284846000858560006060866001600160a01b031685876040518082805190602001908083835b60208310615b655780518252601f199092019160209182019101615b46565b6001836020036101000a03801982511681845116808217855250505050505090500191505060006040518083038185875af1925050503d8060008114615bc7576040519150601f19603f3d011682016040523d82523d6000602084013e615bcc565b606091505b509150915061384e82828660608315615be6575081611e2d565b825115615bf65782518084602001fd5b60405162461bcd60e51b8152602060048201818152845160248401528451859391928392604401919085019080838360008315611b85578181015183820152602001611b6d565b828054600181600116156101000203166002900490600052602060002090601f016020900481019282601f10615c7e5782800160ff19823516178555615cab565b82800160010185558215615cab579182015b82811115615cab578235825591602001919060010190615c90565b50615cb7929150615cf8565b5090565b6040518060e00160405280600081526020016000815260200160008152602001600081526020016000815260200160008152602001600081525090565b5b80821115615cb75760008155600101615cf956fe5265656e7472616e637947756172643a207265656e7472616e742063616c6c00536166654d6174683a206d756c7469706c69636174696f6e206f766572666c6f775361666545524332303a204552433230206f7065726174696f6e20646964206e6f742073756363656564a26469706673582212203b9e29d3b0103e794ff55c714d0fb6f6912e0427c2009c64880d954b3c2b77a364736f6c634300060c0033",
  "devdoc": {
    "kind": "dev",
    "methods": {},
    "version": 1
  },
  "userdoc": {
    "kind": "user",
    "methods": {},
    "version": 1
  },
  "storageLayout": {
    "storage": [
      {
        "astId": 15478,
        "contract": "contracts/core/Vault.sol:Vault",
        "label": "_status",
        "offset": 0,
        "slot": "0",
        "type": "t_uint256"
      },
      {
        "astId": 12643,
        "contract": "contracts/core/Vault.sol:Vault",
        "label": "gov",
        "offset": 0,
        "slot": "1",
        "type": "t_address"
      },
      {
        "astId": 12646,
        "contract": "contracts/core/Vault.sol:Vault",
        "label": "isInitialized",
        "offset": 20,
        "slot": "1",
        "type": "t_bool"
      },
      {
        "astId": 12649,
        "contract": "contracts/core/Vault.sol:Vault",
        "label": "router",
        "offset": 0,
        "slot": "2",
        "type": "t_address"
      },
      {
        "astId": 12652,
        "contract": "contracts/core/Vault.sol:Vault",
        "label": "zkusd",
        "offset": 0,
        "slot": "3",
        "type": "t_address"
      },
      {
        "astId": 12655,
        "contract": "contracts/core/Vault.sol:Vault",
        "label": "priceFeed",
        "offset": 0,
        "slot": "4",
        "type": "t_address"
      },
      {
        "astId": 12658,
        "contract": "contracts/core/Vault.sol:Vault",
        "label": "liquidationFeeUsd",
        "offset": 0,
        "slot": "5",
        "type": "t_uint256"
      },
      {
        "astId": 12661,
        "contract": "contracts/core/Vault.sol:Vault",
        "label": "fundingRateFactor",
        "offset": 0,
        "slot": "6",
        "type": "t_uint256"
      },
      {
        "astId": 12664,
        "contract": "contracts/core/Vault.sol:Vault",
        "label": "stableFundingRateFactor",
        "offset": 0,
        "slot": "7",
        "type": "t_uint256"
      },
      {
        "astId": 12668,
        "contract": "contracts/core/Vault.sol:Vault",
        "label": "positions",
        "offset": 0,
        "slot": "8",
        "type": "t_mapping(t_bytes32,t_struct(Position)13758_storage)"
      },
      {
        "astId": 12673,
        "contract": "contracts/core/Vault.sol:Vault",
        "label": "poolAmounts",
        "offset": 0,
        "slot": "9",
        "type": "t_mapping(t_address,t_uint256)"
      },
      {
        "astId": 12678,
        "contract": "contracts/core/Vault.sol:Vault",
        "label": "reservedAmounts",
        "offset": 0,
        "slot": "10",
        "type": "t_mapping(t_address,t_uint256)"
      },
      {
        "astId": 12684,
        "contract": "contracts/core/Vault.sol:Vault",
        "label": "maxLeverage",
        "offset": 0,
        "slot": "11",
        "type": "t_uint256"
      },
      {
        "astId": 12688,
        "contract": "contracts/core/Vault.sol:Vault",
        "label": "taxBasisPoints",
        "offset": 0,
        "slot": "12",
        "type": "t_uint256"
      },
      {
        "astId": 12692,
        "contract": "contracts/core/Vault.sol:Vault",
        "label": "stableTaxBasisPoints",
        "offset": 0,
        "slot": "13",
        "type": "t_uint256"
      },
      {
        "astId": 12696,
        "contract": "contracts/core/Vault.sol:Vault",
        "label": "mintBurnFeeBasisPoints",
        "offset": 0,
        "slot": "14",
        "type": "t_uint256"
      },
      {
        "astId": 12700,
        "contract": "contracts/core/Vault.sol:Vault",
        "label": "swapFeeBasisPoints",
        "offset": 0,
        "slot": "15",
        "type": "t_uint256"
      },
      {
        "astId": 12704,
        "contract": "contracts/core/Vault.sol:Vault",
        "label": "stableSwapFeeBasisPoints",
        "offset": 0,
        "slot": "16",
        "type": "t_uint256"
      },
      {
        "astId": 12708,
        "contract": "contracts/core/Vault.sol:Vault",
        "label": "marginFeeBasisPoints",
        "offset": 0,
        "slot": "17",
        "type": "t_uint256"
      },
      {
        "astId": 12712,
        "contract": "contracts/core/Vault.sol:Vault",
        "label": "fundingInterval",
        "offset": 0,
        "slot": "18",
        "type": "t_uint256"
      },
      {
        "astId": 12715,
        "contract": "contracts/core/Vault.sol:Vault",
        "label": "whitelistedTokenCount",
        "offset": 0,
        "slot": "19",
        "type": "t_uint256"
      },
      {
        "astId": 12718,
        "contract": "contracts/core/Vault.sol:Vault",
        "label": "maxGasPrice",
        "offset": 0,
        "slot": "20",
        "type": "t_uint256"
      },
      {
        "astId": 12721,
        "contract": "contracts/core/Vault.sol:Vault",
        "label": "minProfitTime",
        "offset": 0,
        "slot": "21",
        "type": "t_uint256"
      },
      {
        "astId": 12725,
        "contract": "contracts/core/Vault.sol:Vault",
        "label": "isSwapEnabled",
        "offset": 0,
        "slot": "22",
        "type": "t_bool"
      },
      {
        "astId": 12729,
        "contract": "contracts/core/Vault.sol:Vault",
        "label": "isLeverageEnabled",
        "offset": 1,
        "slot": "22",
        "type": "t_bool"
      },
      {
        "astId": 12733,
        "contract": "contracts/core/Vault.sol:Vault",
        "label": "hasDynamicFees",
        "offset": 2,
        "slot": "22",
        "type": "t_bool"
      },
      {
        "astId": 12737,
        "contract": "contracts/core/Vault.sol:Vault",
        "label": "inManagerMode",
        "offset": 3,
        "slot": "22",
        "type": "t_bool"
      },
      {
        "astId": 12741,
        "contract": "contracts/core/Vault.sol:Vault",
        "label": "inPrivateLiquidationMode",
        "offset": 4,
        "slot": "22",
        "type": "t_bool"
      },
      {
        "astId": 12743,
        "contract": "contracts/core/Vault.sol:Vault",
        "label": "vaultUtils",
        "offset": 5,
        "slot": "22",
        "type": "t_contract(IVaultUtils)7752"
      },
      {
        "astId": 12745,
        "contract": "contracts/core/Vault.sol:Vault",
        "label": "errorController",
        "offset": 0,
        "slot": "23",
        "type": "t_address"
      },
      {
        "astId": 12752,
        "contract": "contracts/core/Vault.sol:Vault",
        "label": "approvedRouters",
        "offset": 0,
        "slot": "24",
        "type": "t_mapping(t_address,t_mapping(t_address,t_bool))"
      },
      {
        "astId": 12757,
        "contract": "contracts/core/Vault.sol:Vault",
        "label": "isLiquidator",
        "offset": 0,
        "slot": "25",
        "type": "t_mapping(t_address,t_bool)"
      },
      {
        "astId": 12762,
        "contract": "contracts/core/Vault.sol:Vault",
        "label": "isManager",
        "offset": 0,
        "slot": "26",
        "type": "t_mapping(t_address,t_bool)"
      },
      {
        "astId": 12767,
        "contract": "contracts/core/Vault.sol:Vault",
        "label": "minProfitBasisPoints",
        "offset": 0,
        "slot": "27",
        "type": "t_mapping(t_address,t_uint256)"
      },
      {
        "astId": 12772,
        "contract": "contracts/core/Vault.sol:Vault",
        "label": "stableTokens",
        "offset": 0,
        "slot": "28",
        "type": "t_mapping(t_address,t_bool)"
      },
      {
        "astId": 12777,
        "contract": "contracts/core/Vault.sol:Vault",
        "label": "shortableTokens",
        "offset": 0,
        "slot": "29",
        "type": "t_mapping(t_address,t_bool)"
      },
      {
        "astId": 12782,
        "contract": "contracts/core/Vault.sol:Vault",
        "label": "equityTokens",
        "offset": 0,
        "slot": "30",
        "type": "t_mapping(t_address,t_bool)"
      },
      {
        "astId": 12787,
        "contract": "contracts/core/Vault.sol:Vault",
        "label": "bufferAmounts",
        "offset": 0,
        "slot": "31",
        "type": "t_mapping(t_address,t_uint256)"
      },
      {
        "astId": 12792,
        "contract": "contracts/core/Vault.sol:Vault",
        "label": "guaranteedUsd",
        "offset": 0,
        "slot": "32",
        "type": "t_mapping(t_address,t_uint256)"
      },
      {
        "astId": 12797,
        "contract": "contracts/core/Vault.sol:Vault",
        "label": "cumulativeFundingRates",
        "offset": 0,
        "slot": "33",
        "type": "t_mapping(t_address,t_uint256)"
      },
      {
        "astId": 12802,
        "contract": "contracts/core/Vault.sol:Vault",
        "label": "lastFundingTimes",
        "offset": 0,
        "slot": "34",
        "type": "t_mapping(t_address,t_uint256)"
      },
      {
        "astId": 12807,
        "contract": "contracts/core/Vault.sol:Vault",
        "label": "feeReserves",
        "offset": 0,
        "slot": "35",
        "type": "t_mapping(t_address,t_uint256)"
      },
      {
        "astId": 12812,
        "contract": "contracts/core/Vault.sol:Vault",
        "label": "globalShortSizes",
        "offset": 0,
        "slot": "36",
        "type": "t_mapping(t_address,t_uint256)"
      },
      {
        "astId": 12817,
        "contract": "contracts/core/Vault.sol:Vault",
        "label": "globalShortAveragePrices",
        "offset": 0,
        "slot": "37",
        "type": "t_mapping(t_address,t_uint256)"
      },
      {
        "astId": 12822,
        "contract": "contracts/core/Vault.sol:Vault",
        "label": "maxGlobalShortSizes",
        "offset": 0,
        "slot": "38",
        "type": "t_mapping(t_address,t_uint256)"
      },
      {
        "astId": 12826,
        "contract": "contracts/core/Vault.sol:Vault",
        "label": "errors",
        "offset": 0,
        "slot": "39",
        "type": "t_mapping(t_uint256,t_string_storage)"
      },
      {
        "astId": 12831,
        "contract": "contracts/core/Vault.sol:Vault",
        "label": "tokenDecimals",
        "offset": 0,
        "slot": "40",
        "type": "t_mapping(t_address,t_uint256)"
      },
      {
        "astId": 12836,
        "contract": "contracts/core/Vault.sol:Vault",
        "label": "tokenBalances",
        "offset": 0,
        "slot": "41",
        "type": "t_mapping(t_address,t_uint256)"
      },
      {
        "astId": 12841,
        "contract": "contracts/core/Vault.sol:Vault",
        "label": "tokenWeights",
        "offset": 0,
        "slot": "42",
        "type": "t_mapping(t_address,t_uint256)"
      },
      {
        "astId": 12844,
        "contract": "contracts/core/Vault.sol:Vault",
        "label": "totalTokenWeights",
        "offset": 0,
        "slot": "43",
        "type": "t_uint256"
      },
      {
        "astId": 12848,
        "contract": "contracts/core/Vault.sol:Vault",
        "label": "allWhitelistedTokens",
        "offset": 0,
        "slot": "44",
        "type": "t_array(t_address)dyn_storage"
      },
      {
        "astId": 12853,
        "contract": "contracts/core/Vault.sol:Vault",
        "label": "whitelistedTokens",
        "offset": 0,
        "slot": "45",
        "type": "t_mapping(t_address,t_bool)"
      },
      {
        "astId": 12858,
        "contract": "contracts/core/Vault.sol:Vault",
        "label": "zkusdAmounts",
        "offset": 0,
        "slot": "46",
        "type": "t_mapping(t_address,t_uint256)"
      },
      {
        "astId": 12863,
        "contract": "contracts/core/Vault.sol:Vault",
        "label": "maxZkusdAmounts",
        "offset": 0,
        "slot": "47",
        "type": "t_mapping(t_address,t_uint256)"
      },
      {
        "astId": 12865,
        "contract": "contracts/core/Vault.sol:Vault",
        "label": "allowStaleEquityPrice",
        "offset": 0,
        "slot": "48",
        "type": "t_bool"
      }
    ],
    "types": {
      "t_address": {
        "encoding": "inplace",
        "label": "address",
        "numberOfBytes": "20"
      },
      "t_array(t_address)dyn_storage": {
        "base": "t_address",
        "encoding": "dynamic_array",
        "label": "address[]",
        "numberOfBytes": "32"
      },
      "t_bool": {
        "encoding": "inplace",
        "label": "bool",
        "numberOfBytes": "1"
      },
      "t_bytes32": {
        "encoding": "inplace",
        "label": "bytes32",
        "numberOfBytes": "32"
      },
      "t_contract(IVaultUtils)7752": {
        "encoding": "inplace",
        "label": "contract IVaultUtils",
        "numberOfBytes": "20"
      },
      "t_int256": {
        "encoding": "inplace",
        "label": "int256",
        "numberOfBytes": "32"
      },
      "t_mapping(t_address,t_bool)": {
        "encoding": "mapping",
        "key": "t_address",
        "label": "mapping(address => bool)",
        "numberOfBytes": "32",
        "value": "t_bool"
      },
      "t_mapping(t_address,t_mapping(t_address,t_bool))": {
        "encoding": "mapping",
        "key": "t_address",
        "label": "mapping(address => mapping(address => bool))",
        "numberOfBytes": "32",
        "value": "t_mapping(t_address,t_bool)"
      },
      "t_mapping(t_address,t_uint256)": {
        "encoding": "mapping",
        "key": "t_address",
        "label": "mapping(address => uint256)",
        "numberOfBytes": "32",
        "value": "t_uint256"
      },
      "t_mapping(t_bytes32,t_struct(Position)13758_storage)": {
        "encoding": "mapping",
        "key": "t_bytes32",
        "label": "mapping(bytes32 => struct DataTypes.Position)",
        "numberOfBytes": "32",
        "value": "t_struct(Position)13758_storage"
      },
      "t_mapping(t_uint256,t_string_storage)": {
        "encoding": "mapping",
        "key": "t_uint256",
        "label": "mapping(uint256 => string)",
        "numberOfBytes": "32",
        "value": "t_string_storage"
      },
      "t_string_storage": {
        "encoding": "bytes",
        "label": "string",
        "numberOfBytes": "32"
      },
      "t_struct(Position)13758_storage": {
        "encoding": "inplace",
        "label": "struct DataTypes.Position",
        "members": [
          {
            "astId": 13745,
            "contract": "contracts/core/Vault.sol:Vault",
            "label": "size",
            "offset": 0,
            "slot": "0",
            "type": "t_uint256"
          },
          {
            "astId": 13747,
            "contract": "contracts/core/Vault.sol:Vault",
            "label": "collateral",
            "offset": 0,
            "slot": "1",
            "type": "t_uint256"
          },
          {
            "astId": 13749,
            "contract": "contracts/core/Vault.sol:Vault",
            "label": "averagePrice",
            "offset": 0,
            "slot": "2",
            "type": "t_uint256"
          },
          {
            "astId": 13751,
            "contract": "contracts/core/Vault.sol:Vault",
            "label": "entryFundingRate",
            "offset": 0,
            "slot": "3",
            "type": "t_uint256"
          },
          {
            "astId": 13753,
            "contract": "contracts/core/Vault.sol:Vault",
            "label": "reserveAmount",
            "offset": 0,
            "slot": "4",
            "type": "t_uint256"
          },
          {
            "astId": 13755,
            "contract": "contracts/core/Vault.sol:Vault",
            "label": "realisedPnl",
            "offset": 0,
            "slot": "5",
            "type": "t_int256"
          },
          {
            "astId": 13757,
            "contract": "contracts/core/Vault.sol:Vault",
            "label": "lastIncreasedTime",
            "offset": 0,
            "slot": "6",
            "type": "t_uint256"
          }
        ],
        "numberOfBytes": "224"
      },
      "t_uint256": {
        "encoding": "inplace",
        "label": "uint256",
        "numberOfBytes": "32"
      }
    }
  }
}