{
  "address": "0xaF10d4A7CbDd2627BC19774578D1223Cd649d736",
  "abi": [
    {
      "inputs": [
        {
          "internalType": "address",
          "name": "_router",
          "type": "address"
        },
        {
          "internalType": "address",
          "name": "_vault",
          "type": "address"
        },
        {
          "internalType": "address",
          "name": "_weth",
          "type": "address"
        },
        {
          "internalType": "address",
          "name": "_zkusd",
          "type": "address"
        },
        {
          "internalType": "uint256",
          "name": "_minExecutionFee",
          "type": "uint256"
        }
      ],
      "stateMutability": "nonpayable",
      "type": "constructor"
    },
    {
      "inputs": [
        {
          "internalType": "uint256",
          "name": "_orderIndex",
          "type": "uint256"
        }
      ],
      "name": "cancelDecreaseOrder",
      "outputs": [],
      "stateMutability": "nonpayable",
      "type": "function"
    },
    {
      "inputs": [
        {
          "internalType": "uint256",
          "name": "_orderIndex",
          "type": "uint256"
        }
      ],
      "name": "cancelIncreaseOrder",
      "outputs": [],
      "stateMutability": "nonpayable",
      "type": "function"
    },
    {
      "inputs": [
        {
          "internalType": "uint256[]",
          "name": "_increaseOrderIndexes",
          "type": "uint256[]"
        },
        {
          "internalType": "uint256[]",
          "name": "_decreaseOrderIndexes",
          "type": "uint256[]"
        }
      ],
      "name": "cancelMultiple",
      "outputs": [],
      "stateMutability": "nonpayable",
      "type": "function"
    },
    {
      "inputs": [
        {
          "internalType": "address",
          "name": "_indexToken",
          "type": "address"
        },
        {
          "internalType": "uint256",
          "name": "_sizeDelta",
          "type": "uint256"
        },
        {
          "internalType": "address",
          "name": "_collateralToken",
          "type": "address"
        },
        {
          "internalType": "uint256",
          "name": "_collateralDelta",
          "type": "uint256"
        },
        {
          "internalType": "bool",
          "name": "_isLong",
          "type": "bool"
        },
        {
          "internalType": "uint256",
          "name": "_triggerPrice",
          "type": "uint256"
        },
        {
          "internalType": "bool",
          "name": "_triggerAboveThreshold",
          "type": "bool"
        }
      ],
      "name": "createDecreaseOrder",
      "outputs": [],
      "stateMutability": "payable",
      "type": "function"
    },
    {
      "inputs": [
        {
          "internalType": "address",
          "name": "_purchaseToken",
          "type": "address"
        },
        {
          "internalType": "uint256",
          "name": "_amountIn",
          "type": "uint256"
        },
        {
          "internalType": "address",
          "name": "_indexToken",
          "type": "address"
        },
        {
          "internalType": "uint256",
          "name": "_sizeDelta",
          "type": "uint256"
        },
        {
          "internalType": "address",
          "name": "_collateralToken",
          "type": "address"
        },
        {
          "internalType": "bool",
          "name": "_isLong",
          "type": "bool"
        },
        {
          "internalType": "uint256",
          "name": "_triggerPrice",
          "type": "uint256"
        },
        {
          "internalType": "bool",
          "name": "_triggerAboveThreshold",
          "type": "bool"
        },
        {
          "internalType": "uint256",
          "name": "_executionFee",
          "type": "uint256"
        },
        {
          "internalType": "bool",
          "name": "_shouldWrap",
          "type": "bool"
        }
      ],
      "name": "createIncreaseOrder",
      "outputs": [],
      "stateMutability": "payable",
      "type": "function"
    },
    {
      "inputs": [
        {
          "internalType": "address",
          "name": "",
          "type": "address"
        },
        {
          "internalType": "uint256",
          "name": "",
          "type": "uint256"
        }
      ],
      "name": "decreaseOrders",
      "outputs": [
        {
          "internalType": "address",
          "name": "account",
          "type": "address"
        },
        {
          "internalType": "address",
          "name": "collateralToken",
          "type": "address"
        },
        {
          "internalType": "uint256",
          "name": "collateralDelta",
          "type": "uint256"
        },
        {
          "internalType": "address",
          "name": "indexToken",
          "type": "address"
        },
        {
          "internalType": "uint256",
          "name": "sizeDelta",
          "type": "uint256"
        },
        {
          "internalType": "bool",
          "name": "isLong",
          "type": "bool"
        },
        {
          "internalType": "uint256",
          "name": "triggerPrice",
          "type": "uint256"
        },
        {
          "internalType": "bool",
          "name": "triggerAboveThreshold",
          "type": "bool"
        },
        {
          "internalType": "uint256",
          "name": "executionFee",
          "type": "uint256"
        }
      ],
      "stateMutability": "view",
      "type": "function"
    },
    {
      "inputs": [
        {
          "internalType": "address",
          "name": "",
          "type": "address"
        }
      ],
      "name": "decreaseOrdersIndex",
      "outputs": [
        {
          "internalType": "uint256",
          "name": "",
          "type": "uint256"
        }
      ],
      "stateMutability": "view",
      "type": "function"
    },
    {
      "inputs": [
        {
          "internalType": "address",
          "name": "_address",
          "type": "address"
        },
        {
          "internalType": "uint256",
          "name": "_orderIndex",
          "type": "uint256"
        },
        {
          "internalType": "address payable",
          "name": "_feeReceiver",
          "type": "address"
        }
      ],
      "name": "executeDecreaseOrder",
      "outputs": [],
      "stateMutability": "nonpayable",
      "type": "function"
    },
    {
      "inputs": [
        {
          "internalType": "address",
          "name": "_address",
          "type": "address"
        },
        {
          "internalType": "uint256",
          "name": "_orderIndex",
          "type": "uint256"
        },
        {
          "internalType": "address payable",
          "name": "_feeReceiver",
          "type": "address"
        }
      ],
      "name": "executeIncreaseOrder",
      "outputs": [],
      "stateMutability": "nonpayable",
      "type": "function"
    },
    {
      "inputs": [
        {
          "internalType": "address",
          "name": "_account",
          "type": "address"
        },
        {
          "internalType": "uint256",
          "name": "_orderIndex",
          "type": "uint256"
        }
      ],
      "name": "getDecreaseOrder",
      "outputs": [
        {
          "internalType": "address",
          "name": "collateralToken",
          "type": "address"
        },
        {
          "internalType": "uint256",
          "name": "collateralDelta",
          "type": "uint256"
        },
        {
          "internalType": "address",
          "name": "indexToken",
          "type": "address"
        },
        {
          "internalType": "uint256",
          "name": "sizeDelta",
          "type": "uint256"
        },
        {
          "internalType": "bool",
          "name": "isLong",
          "type": "bool"
        },
        {
          "internalType": "uint256",
          "name": "triggerPrice",
          "type": "uint256"
        },
        {
          "internalType": "bool",
          "name": "triggerAboveThreshold",
          "type": "bool"
        },
        {
          "internalType": "uint256",
          "name": "executionFee",
          "type": "uint256"
        }
      ],
      "stateMutability": "view",
      "type": "function"
    },
    {
      "inputs": [
        {
          "internalType": "address",
          "name": "_account",
          "type": "address"
        },
        {
          "internalType": "uint256",
          "name": "_orderIndex",
          "type": "uint256"
        }
      ],
      "name": "getIncreaseOrder",
      "outputs": [
        {
          "internalType": "address",
          "name": "purchaseToken",
          "type": "address"
        },
        {
          "internalType": "uint256",
          "name": "purchaseTokenAmount",
          "type": "uint256"
        },
        {
          "internalType": "address",
          "name": "collateralToken",
          "type": "address"
        },
        {
          "internalType": "address",
          "name": "indexToken",
          "type": "address"
        },
        {
          "internalType": "uint256",
          "name": "sizeDelta",
          "type": "uint256"
        },
        {
          "internalType": "bool",
          "name": "isLong",
          "type": "bool"
        },
        {
          "internalType": "uint256",
          "name": "triggerPrice",
          "type": "uint256"
        },
        {
          "internalType": "bool",
          "name": "triggerAboveThreshold",
          "type": "bool"
        },
        {
          "internalType": "uint256",
          "name": "executionFee",
          "type": "uint256"
        }
      ],
      "stateMutability": "view",
      "type": "function"
    },
    {
      "inputs": [],
      "name": "gov",
      "outputs": [
        {
          "internalType": "address",
          "name": "",
          "type": "address"
        }
      ],
      "stateMutability": "view",
      "type": "function"
    },
    {
      "inputs": [
        {
          "internalType": "address",
          "name": "",
          "type": "address"
        },
        {
          "internalType": "uint256",
          "name": "",
          "type": "uint256"
        }
      ],
      "name": "increaseOrders",
      "outputs": [
        {
          "internalType": "address",
          "name": "account",
          "type": "address"
        },
        {
          "internalType": "address",
          "name": "purchaseToken",
          "type": "address"
        },
        {
          "internalType": "uint256",
          "name": "purchaseTokenAmount",
          "type": "uint256"
        },
        {
          "internalType": "address",
          "name": "collateralToken",
          "type": "address"
        },
        {
          "internalType": "address",
          "name": "indexToken",
          "type": "address"
        },
        {
          "internalType": "uint256",
          "name": "sizeDelta",
          "type": "uint256"
        },
        {
          "internalType": "bool",
          "name": "isLong",
          "type": "bool"
        },
        {
          "internalType": "uint256",
          "name": "triggerPrice",
          "type": "uint256"
        },
        {
          "internalType": "bool",
          "name": "triggerAboveThreshold",
          "type": "bool"
        },
        {
          "internalType": "uint256",
          "name": "executionFee",
          "type": "uint256"
        }
      ],
      "stateMutability": "view",
      "type": "function"
    },
    {
      "inputs": [
        {
          "internalType": "address",
          "name": "",
          "type": "address"
        }
      ],
      "name": "increaseOrdersIndex",
      "outputs": [
        {
          "internalType": "uint256",
          "name": "",
          "type": "uint256"
        }
      ],
      "stateMutability": "view",
      "type": "function"
    },
    {
      "inputs": [],
      "name": "minExecutionFee",
      "outputs": [
        {
          "internalType": "uint256",
          "name": "",
          "type": "uint256"
        }
      ],
      "stateMutability": "view",
      "type": "function"
    },
    {
      "inputs": [],
      "name": "router",
      "outputs": [
        {
          "internalType": "address",
          "name": "",
          "type": "address"
        }
      ],
      "stateMutability": "view",
      "type": "function"
    },
    {
      "inputs": [
        {
          "internalType": "address",
          "name": "_gov",
          "type": "address"
        }
      ],
      "name": "setGov",
      "outputs": [],
      "stateMutability": "nonpayable",
      "type": "function"
    },
    {
      "inputs": [
        {
          "internalType": "uint256",
          "name": "_minExecutionFee",
          "type": "uint256"
        }
      ],
      "name": "setMinExecutionFee",
      "outputs": [],
      "stateMutability": "nonpayable",
      "type": "function"
    },
    {
      "inputs": [
        {
          "internalType": "uint256",
          "name": "_orderIndex",
          "type": "uint256"
        },
        {
          "internalType": "uint256",
          "name": "_collateralDelta",
          "type": "uint256"
        },
        {
          "internalType": "uint256",
          "name": "_sizeDelta",
          "type": "uint256"
        },
        {
          "internalType": "uint256",
          "name": "_triggerPrice",
          "type": "uint256"
        },
        {
          "internalType": "bool",
          "name": "_triggerAboveThreshold",
          "type": "bool"
        }
      ],
      "name": "updateDecreaseOrder",
      "outputs": [],
      "stateMutability": "nonpayable",
      "type": "function"
    },
    {
      "inputs": [
        {
          "internalType": "uint256",
          "name": "_orderIndex",
          "type": "uint256"
        },
        {
          "internalType": "uint256",
          "name": "_sizeDelta",
          "type": "uint256"
        },
        {
          "internalType": "uint256",
          "name": "_triggerPrice",
          "type": "uint256"
        },
        {
          "internalType": "bool",
          "name": "_triggerAboveThreshold",
          "type": "bool"
        }
      ],
      "name": "updateIncreaseOrder",
      "outputs": [],
      "stateMutability": "nonpayable",
      "type": "function"
    },
    {
      "inputs": [
        {
          "internalType": "bool",
          "name": "_triggerAboveThreshold",
          "type": "bool"
        },
        {
          "internalType": "uint256",
          "name": "_triggerPrice",
          "type": "uint256"
        },
        {
          "internalType": "address",
          "name": "_indexToken",
          "type": "address"
        },
        {
          "internalType": "bool",
          "name": "_maximizePrice",
          "type": "bool"
        },
        {
          "internalType": "bool",
          "name": "_raise",
          "type": "bool"
        }
      ],
      "name": "validatePositionOrderPrice",
      "outputs": [
        {
          "internalType": "uint256",
          "name": "",
          "type": "uint256"
        },
        {
          "internalType": "bool",
          "name": "",
          "type": "bool"
        }
      ],
      "stateMutability": "view",
      "type": "function"
    },
    {
      "inputs": [],
      "name": "vault",
      "outputs": [
        {
          "internalType": "address",
          "name": "",
          "type": "address"
        }
      ],
      "stateMutability": "view",
      "type": "function"
    },
    {
      "inputs": [],
      "name": "weth",
      "outputs": [
        {
          "internalType": "address",
          "name": "",
          "type": "address"
        }
      ],
      "stateMutability": "view",
      "type": "function"
    },
    {
      "inputs": [],
      "name": "zkusd",
      "outputs": [
        {
          "internalType": "address",
          "name": "",
          "type": "address"
        }
      ],
      "stateMutability": "view",
      "type": "function"
    },
    {
      "stateMutability": "payable",
      "type": "receive"
    }
  ],
  "transactionHash": "0xf412c36412e6ef8db94adc4ca987d750930d0d19fc0d722f66b670578ce16510",
  "args": [
    "0x0daC4bba3Fb99E0CD2270C6CAd4F0DcE4F2Ac8F4",
    "0x61dD442523d9fb1ed7de5f4a1188Ccd1F0A0bE58",
    "0xc2DD968aD9CD32bF50Bc5ba3580C69E931F6626D",
    "0xE194fbc4e16F13077aA5a326a8EE14d209C3f1A7",
    "500000000000000"
  ],
  "numDeployments": 1,
  "solcInputHash": "45f986e69ef0b1c3adec9bb2994aea31",
  "bytecode": "0x60806040523480156200001157600080fd5b50604051620030e9380380620030e983398101604081905262000034916200009f565b6001600081905580546001600160a01b03199081166001600160a01b039788161790915560028054821695871695909517909455600380548516938616939093179092556004805484169190941617909255600591909155600680543392169190911790556200012b565b600080600080600060a08688031215620000b7578081fd5b8551620000c48162000112565b6020870151909550620000d78162000112565b6040870151909450620000ea8162000112565b6060870151909350620000fd8162000112565b80925050608086015190509295509295909350565b6001600160a01b03811681146200012857600080fd5b50565b612fae806200013b6000396000f3fe60806040526004361061014f5760003560e01c8063a397ea54116100b6578063d566d0ca1161006f578063d566d0ca1461042d578063f2d2e01b1461044d578063f887ea4014610482578063fbfa77cf14610497578063fc2cee62146104ac578063ff637e81146104cc576101bc565b8063a397ea5414610365578063aec2245514610385578063c16cde8a146103a5578063cfad57a2146103b8578063d38ab519146103d8578063d3bab1d1146103f8576101bc565b80634c54f0b0116101085780634c54f0b0146102ad5780634fda41e0146102db57806363ae2103146102ee5780639983ee1b146103105780639bc90a0f146103305780639e71b0f014610345576101bc565b8063026032ee146101c157806311d9444a146101fe57806312d43a51146102205780632b7d6290146102425780633fc8cef31461027857806347e0bbd01461028d576101bc565b366101bc5760035460408051808201909152601981527827b93232b92137b7b59d1034b73b30b634b21039b2b73232b960391b6020820152906001600160a01b031633146101b95760405162461bcd60e51b81526004016101b091906129aa565b60405180910390fd5b50005b600080fd5b3480156101cd57600080fd5b506101e16101dc366004612412565b6104ec565b6040516101f5989796959493929190612961565b60405180910390f35b34801561020a57600080fd5b5061021e61021936600461243d565b6105c1565b005b34801561022c57600080fd5b5061023561089f565b6040516101f59190612754565b34801561024e57600080fd5b5061026261025d366004612412565b6108ae565b6040516101f59a99989796959493929190612842565b34801561028457600080fd5b50610235610920565b34801561029957600080fd5b5061021e6102a8366004612687565b61092f565b3480156102b957600080fd5b506102cd6102c8366004612620565b610ba0565b6040516101f5929190612f12565b61021e6102e936600461247e565b610cf7565b3480156102fa57600080fd5b50610303610e53565b6040516101f59190612d25565b34801561031c57600080fd5b5061021e61032b3660046126b7565b610e59565b34801561033c57600080fd5b50610235610f50565b34801561035157600080fd5b5061021e610360366004612687565b610f5f565b34801561037157600080fd5b5061021e6103803660046126f7565b611132565b34801561039157600080fd5b506103036103a03660046123f6565b61121c565b61021e6103b3366004612529565b61122e565b3480156103c457600080fd5b5061021e6103d33660046123f6565b61129e565b3480156103e457600080fd5b5061021e6103f336600461243d565b61134c565b34801561040457600080fd5b50610418610413366004612412565b6116e9565b6040516101f59998979695949392919061290c565b34801561043957600080fd5b506103036104483660046123f6565b6117cf565b34801561045957600080fd5b5061046d610468366004612412565b6117e1565b6040516101f59998979695949392919061289e565b34801561048e57600080fd5b5061023561184b565b3480156104a357600080fd5b5061023561185a565b3480156104b857600080fd5b5061021e6104c7366004612687565b611869565b3480156104d857600080fd5b5061021e6104e73660046125a3565b6118f6565b6000806000806000806000806105006122c3565b505050506001600160a01b0396871660009081526009602090815260408083209883529781529087902087516101208101895281548a16815260018201548a169281018390526002820154988101899052600382015490991660608a01819052600482015460808b01819052600583015460ff908116151560a08d01819052600685015460c08e018190526007860154909216151560e08e01819052600890950154610100909d018d9052949c9a9b929a9199509397509295509093509150565b600260005414156105e45760405162461bcd60e51b81526004016101b090612cee565b60026000556105f16122c3565b506001600160a01b0380841660009081526009602090815260408083208684528252918290208251610120810184528154851680825260018301548616938201939093526002820154938101939093526003810154909316606083015260048301546080830152600583015460ff908116151560a0840152600684015460c0840152600784015416151560e0830152600890920154610100820152906106a95760405162461bcd60e51b81526004016101b090612c1f565b60006106ca8260e001518360c0015184606001518560a00151156001610ba0565b506001600160a01b038087166000908152600960209081526040808320898452825280832080546001600160a01b03199081168255600180830180548316905560028301869055600383018054909216909155600480830186905560058301805460ff1990811690915560068401879055600784018054909116905560089092018590555488519389015160608a01518a85015160808c015160a08d01519651632662166b60e01b81529a9b5097999390981697632662166b9761079b979693959294919390929091309101612803565b602060405180830381600087803b1580156107b557600080fd5b505af11580156107c9573d6000803e3d6000fd5b505050506040513d601f19601f820116820180604052508101906107ed919061269f565b8351602085015191925061080b916001600160a01b0316908361195c565b61081a836101000151856119b2565b82600001516001600160a01b03167f9a382661d6573da86db000471303be6f0b2b1bb66089b08e3c16a85d7b6e94f88685602001518660400151876060015188608001518960a001518a60c001518b60e001518c61010001518c60405161088a9a99989796959493929190612ebc565b60405180910390a25050600160005550505050565b6006546001600160a01b031681565b6007602081815260009384526040808520909152918352912080546001820154600283015460038401546004850154600586015460068701549787015460088801546009909801546001600160a01b0397881699968816989597948516969490931694919360ff90811693919216908a565b6003546001600160a01b031681565b600260005414156109525760405162461bcd60e51b81526004016101b090612cee565b600260005561095f61230f565b5033600090815260076020818152604080842085855282529283902083516101408101855281546001600160a01b03908116808352600184015482169483019490945260028301549582019590955260038201548516606082015260048201549094166080850152600581015460a0850152600681015460ff908116151560c08601529281015460e085015260088101549092161515610100840152600990910154610120830152610a235760405162461bcd60e51b81526004016101b090612c1f565b3360009081526007602081815260408084208685528252832080546001600160a01b03199081168255600182018054821690556002820185905560038083018054831690556004830180549092169091556005820185905560068201805460ff199081169091559382018590556008820180549094169093556009019290925554908201516001600160a01b0390811691161415610ae557610ae0610ada8260400151836101200151611a9090919063ffffffff16565b336119b2565b610b1a565b610b0b33826040015183602001516001600160a01b031661195c9092919063ffffffff16565b610b1a816101200151336119b2565b80600001516001600160a01b03167fd500f34e0ec655b7614ae42e1d9c666d5e4dde909a1297829f8c5ecf00805d328383602001518460400151856060015186608001518760a001518860c001518960e001518a61010001518b6101200151604051610b8f9a99989796959493929190612d6c565b60405180910390a250506001600055565b600080600084610c2f576002546040516340d3096b60e11b81526001600160a01b03909116906381a612d690610bda908990600401612754565b60206040518083038186803b158015610bf257600080fd5b505afa158015610c06573d6000803e3d6000fd5b505050506040513d601f19601f82011682018060405250810190610c2a919061269f565b610caf565b600254604051637092736960e11b81526001600160a01b039091169063e124e6d290610c5f908990600401612754565b60206040518083038186803b158015610c7757600080fd5b505afa158015610c8b573d6000803e3d6000fd5b505050506040513d601f19601f82011682018060405250810190610caf919061269f565b9050600088610cc057878210610cc4565b8782115b90508415610ce95780610ce95760405162461bcd60e51b81526004016101b090612bd9565b909890975095505050505050565b60026000541415610d1a5760405162461bcd60e51b81526004016101b090612cee565b6002600055610d27611abc565b600554821015610d495760405162461bcd60e51b81526004016101b090612b17565b8015610da9576003546001600160a01b038b8116911614610d7c5760405162461bcd60e51b81526004016101b090612ad2565b610d86828a611a90565b3414610da45760405162461bcd60e51b81526004016101b090612b5c565b610e31565b813414610dc85760405162461bcd60e51b81526004016101b090612ca0565b6001546040516303704f0f60e31b81526001600160a01b0390911690631b82787890610dfe908d90339030908f90600401612782565b600060405180830381600087803b158015610e1857600080fd5b505af1158015610e2c573d6000803e3d6000fd5b505050505b610e428a8a888b8b8a8a8a8a611b2e565b505060016000555050505050505050565b60055481565b60026000541415610e7c5760405162461bcd60e51b81526004016101b090612cee565b60026000908155338152600760209081526040808320878452909152902080546001600160a01b0316610ec15760405162461bcd60e51b81526004016101b090612c1f565b6007810183905560088101805460ff19168315151790556005810184905560038101546004820154600683015460405133937f0a0360dd5c354235bbf8d386ba3b24ef8134088e0785677de1504df219d9149a93610f3c938b936001600160a01b03938416939092169160ff909116908b908b908b90612d2e565b60405180910390a250506001600055505050565b6004546001600160a01b031681565b60026000541415610f825760405162461bcd60e51b81526004016101b090612cee565b6002600055610f8f6122c3565b5033600090815260096020908152604080832084845282529182902082516101208101845281546001600160a01b0390811680835260018401548216948301949094526002830154948201949094526003820154909316606084015260048101546080840152600581015460ff908116151560a0850152600682015460c0850152600782015416151560e0840152600801546101008301526110435760405162461bcd60e51b81526004016101b090612c1f565b336000818152600960209081526040808320868452909152812080546001600160a01b03199081168255600182018054821690556002820183905560038201805490911690556004810182905560058101805460ff19908116909155600682018390556007820180549091169055600801556101008201516110c4916119b2565b80600001516001600160a01b03167f1154174c82984656b028c8021671988f60a346497e56fe02554761184f82a0758383602001518460400151856060015186608001518760a001518860c001518960e001518a6101000151604051610b8f99989796959493929190612e6c565b600260005414156111555760405162461bcd60e51b81526004016101b090612cee565b60026000908155338152600960209081526040808320888452909152902080546001600160a01b031661119a5760405162461bcd60e51b81526004016101b090612c1f565b6006810183905560078101805460ff1916831515179055600481018490556002810185905560018101546003820154600583015460405133937f75781255bc71c83f89f29e5a2599f2c174a562d2cd8f2e818a47f132e72804989361088a938c936001600160a01b03938416938d9316918c9160ff909116908c908c90612e25565b60086020526000908152604090205481565b600260005414156112515760405162461bcd60e51b81526004016101b090612cee565b600260005561125e611abc565b6005543410156112805760405162461bcd60e51b81526004016101b090612b17565b6112903386868a8a888888611ce4565b505060016000555050505050565b60065460408051808201909152601481527327b93232b92137b7b59d103337b93134b23232b760611b6020820152906001600160a01b031633146112f55760405162461bcd60e51b81526004016101b091906129aa565b50600680546001600160a01b0319166001600160a01b0383161790556040517fe24c39186e9137521953beaa8446e71f55b8f12296984f9d4273ceb1af728d9090611341908390612754565b60405180910390a150565b6002600054141561136f5760405162461bcd60e51b81526004016101b090612cee565b600260005561137c61230f565b506001600160a01b03808416600090815260076020818152604080842087855282529283902083516101408101855281548616808252600183015487169382019390935260028201549481019490945260038101548516606085015260048101549094166080840152600584015460a0840152600684015460ff908116151560c08501529184015460e084015260088401549091161515610100830152600990920154610120820152906114425760405162461bcd60e51b81526004016101b090612c1f565b60006114638261010001518360e0015184608001518560c001516001610ba0565b506001600160a01b0380871660009081526007602081815260408084208a8552825280842080546001600160a01b03199081168255600182018054821690556002808301879055600383018054831690556004830180549092169091556005820186905560068201805460ff19908116909155948201869055600882018054909516909455600901939093559054918601519086015193945061150d93831692919091169061195c565b81606001516001600160a01b031682602001516001600160a01b0316146115e557604080516002808252606080830184529260208301908036833701905050905082602001518160008151811061156057fe5b60200260200101906001600160a01b031690816001600160a01b03168152505082606001518160018151811061159257fe5b60200260200101906001600160a01b031690816001600160a01b03168152505060006115c082600030611e83565b60025460608601519192506115e2916001600160a01b0390811691168361195c565b50505b60015482516060840151608085015160a086015160c0870151604051630f8ee8bb60e11b81526001600160a01b0390961695631f1dd176956116319590949093909290916004016127cf565b600060405180830381600087803b15801561164b57600080fd5b505af115801561165f573d6000803e3d6000fd5b50505050611672826101200151846119b2565b81600001516001600160a01b03167f7fb1c74d1ea6aa1c9c585e17ce8274c8ff98745e85e7459b73f87d784494f58e8584602001518560400151866060015187608001518860a001518960c001518a60e001518b61010001518c61012001518c604051610f3c9b9a99989796959493929190612dc3565b60008060008060008060008060006116ff61230f565b505050506001600160a01b0397881660009081526007602081815260408084209a845299815291899020895161014081018b5281548c16815260018201548c1693810184905260028201549a81018b905260038201548c16606082018190526004830154909c1660808201819052600583015460a08301819052600684015460ff908116151560c085018190529585015460e08501819052600886015490911615156101008501819052600990950154610120909401849052959e9c9d9c919b5099509297509295509350909150565b600a6020526000908152604090205481565b60096020908152600092835260408084209091529082529020805460018201546002830154600384015460048501546005860154600687015460078801546008909801546001600160a01b03978816989688169795969490951694929360ff928316939192169089565b6001546001600160a01b031681565b6002546001600160a01b031681565b60065460408051808201909152601481527327b93232b92137b7b59d103337b93134b23232b760611b6020820152906001600160a01b031633146118c05760405162461bcd60e51b81526004016101b091906129aa565b5060058190556040517fbde5eafdc37b81830d70124cddccaaa6d034e71dda3c8fc18a959ca76a7cbcfc90611341908390612d25565b60005b82518110156119265761191e83828151811061191157fe5b602002602001015161092f565b6001016118f9565b5060005b81518110156119575761194f82828151811061194257fe5b6020026020010151610f5f565b60010161192a565b505050565b6119578363a9059cbb60e01b848460405160240161197b9291906128f3565b60408051601f198184030181529190526020810180516001600160e01b03166001600160e01b031990931692909217909152611fa8565b600354604051632e1a7d4d60e01b81526001600160a01b0390911690632e1a7d4d906119e2908590600401612d25565b600060405180830381600087803b1580156119fc57600080fd5b505af1158015611a10573d6000803e3d6000fd5b505050506000816001600160a01b031683604051611a2d90612751565b60006040518083038185875af1925050503d8060008114611a6a576040519150601f19603f3d011682016040523d82523d6000602084013e611a6f565b606091505b50509050806119575760405162461bcd60e51b81526004016101b090612a14565b600082820183811015611ab55760405162461bcd60e51b81526004016101b0906129dd565b9392505050565b3415611b2c57600360009054906101000a90046001600160a01b03166001600160a01b031663d0e30db0346040518263ffffffff1660e01b81526004016000604051808303818588803b158015611b1257600080fd5b505af1158015611b26573d6000803e3d6000fd5b50505050505b565b33600090815260086020526040902054611b4661230f565b5060408051610140810182523381526001600160a01b038c811660208301529181018b90528982166060820152908816608082015260a0810187905285151560c082015260e081018590528315156101008201526101208101839052611bad826001611a90565b336000818152600860208181526040808420959095556007808252858420888552825292859020865181546001600160a01b03199081166001600160a01b0392831617835592880151600183018054851691831691909117905587870151600283015560608801516003830180548516918316919091179055608088015160048301805490941691161790915560a0860151600582015560c086015160068201805460ff1990811692151592909217905560e08701519382019390935561010086015191810180549093169115159190911790915561012084015160099091015590517fb27b9afe3043b93788c40cfc3cc73f5d928a2e40f3ba01820b246426de8fa1b990611ccf9085908f908f908f908f908f908f908f908f908f90612d6c565b60405180910390a25050505050505050505050565b6001600160a01b0388166000908152600a6020526040902054611d056122c3565b5060408051610120810182526001600160a01b03808c1682528a8116602083015291810189905290871660608201526080810186905284151560a082015260c0810184905282151560e082015234610100820152611d64826001611a90565b6001600160a01b03808c166000818152600a602090815260408083209590955560098152848220878352815290849020855181549085166001600160a01b0319918216178255918601516001820180549186169184169190911790558585015160028201556060860151600382018054919095169216919091179092556080840151600483015560a084015160058301805491151560ff1992831617905560c0850151600684015560e08501516007840180549115159190921617905561010084015160089092019190915590517f48ee333d2a65cc45fdb83bc012920d89181c3377390cd239d2b63f2bef67a02d90611e6f9085908d908d908d908d908d908d908d903490612e6c565b60405180910390a250505050505050505050565b6000835160021415611eca57611ec384600081518110611e9f57fe5b602002602001015185600181518110611eb457fe5b60200260200101518585612037565b9050611ab5565b835160031415611f90576000611f0b85600081518110611ee657fe5b602002602001015186600181518110611efb57fe5b6020026020010151600030612037565b9050611f54600260009054906101000a90046001600160a01b03168287600181518110611f3457fe5b60200260200101516001600160a01b031661195c9092919063ffffffff16565b611f8885600181518110611f6457fe5b602002602001015186600281518110611f7957fe5b60200260200101518686612037565b915050611ab5565b60405162461bcd60e51b81526004016101b090612ba2565b6060611ffd826040518060400160405280602081526020017f5361666545524332303a206c6f772d6c6576656c2063616c6c206661696c6564815250856001600160a01b03166121d79092919063ffffffff16565b805190915015611957578080602001905181019061201b9190612604565b6119575760405162461bcd60e51b81526004016101b090612c56565b60045460009081906001600160a01b03868116911614156120dd576002546040516354d33cf960e01b81526001600160a01b03909116906354d33cf9906120849089908790600401612768565b602060405180830381600087803b15801561209e57600080fd5b505af11580156120b2573d6000803e3d6000fd5b505050506040513d601f19601f820116820180604052508101906120d6919061269f565b90506121ae565b6004546001600160a01b0387811691161415612125576002546040516302718b5760e21b81526001600160a01b03909116906309c62d5c906120849088908790600401612768565b600254604051634998b10960e11b81526001600160a01b0390911690639331621290612159908990899088906004016127ac565b602060405180830381600087803b15801561217357600080fd5b505af1158015612187573d6000803e3d6000fd5b505050506040513d601f19601f820116820180604052508101906121ab919061269f565b90505b838110156121ce5760405162461bcd60e51b81526004016101b090612a91565b95945050505050565b60606121e684846000856121ee565b949350505050565b6060824710156122105760405162461bcd60e51b81526004016101b090612a4b565b60006060866001600160a01b0316858760405161222d9190612735565b60006040518083038185875af1925050503d806000811461226a576040519150601f19603f3d011682016040523d82523d6000602084013e61226f565b606091505b509150915061227f82828661228a565b979650505050505050565b60608315612299575081611ab5565b8251156122a95782518084602001fd5b8160405162461bcd60e51b81526004016101b091906129aa565b6040805161012081018252600080825260208201819052918101829052606081018290526080810182905260a0810182905260c0810182905260e0810182905261010081019190915290565b6040805161014081018252600080825260208201819052918101829052606081018290526080810182905260a0810182905260c0810182905260e08101829052610100810182905261012081019190915290565b600082601f830112612373578081fd5b813567ffffffffffffffff8082111561238a578283fd5b6020808302604051828282010181811085821117156123a7578687fd5b6040528481529450818501925085820181870183018810156123c857600080fd5b600091505b848210156123eb5780358452928201926001919091019082016123cd565b505050505092915050565b600060208284031215612407578081fd5b8135611ab581612f52565b60008060408385031215612424578081fd5b823561242f81612f52565b946020939093013593505050565b600080600060608486031215612451578081fd5b833561245c81612f52565b925060208401359150604084013561247381612f52565b809150509250925092565b6000806000806000806000806000806101408b8d03121561249d578586fd5b8a356124a881612f52565b995060208b0135985060408b01356124bf81612f52565b975060608b0135965060808b01356124d681612f52565b955060a08b01356124e681612f6a565b945060c08b0135935060e08b01356124fd81612f6a565b92506101008b013591506101208b013561251681612f6a565b809150509295989b9194979a5092959850565b600080600080600080600060e0888a031215612543578283fd5b873561254e81612f52565b965060208801359550604088013561256581612f52565b945060608801359350608088013561257c81612f6a565b925060a0880135915060c088013561259381612f6a565b8091505092959891949750929550565b600080604083850312156125b5578182fd5b823567ffffffffffffffff808211156125cc578384fd5b6125d886838701612363565b935060208501359150808211156125ed578283fd5b506125fa85828601612363565b9150509250929050565b600060208284031215612615578081fd5b8151611ab581612f6a565b600080600080600060a08688031215612637578081fd5b853561264281612f6a565b945060208601359350604086013561265981612f52565b9250606086013561266981612f6a565b9150608086013561267981612f6a565b809150509295509295909350565b600060208284031215612698578081fd5b5035919050565b6000602082840312156126b0578081fd5b5051919050565b600080600080608085870312156126cc578384fd5b84359350602085013592506040850135915060608501356126ec81612f6a565b939692955090935050565b600080600080600060a0868803121561270e578283fd5b85359450602086013593506040860135925060608601359150608086013561267981612f6a565b60008251612747818460208701612f22565b9190910192915050565b90565b6001600160a01b0391909116815260200190565b6001600160a01b0392831681529116602082015260400190565b6001600160a01b039485168152928416602084015292166040820152606081019190915260800190565b6001600160a01b0393841681529183166020830152909116604082015260600190565b6001600160a01b03958616815293851660208501529190931660408301526060820192909252901515608082015260a00190565b6001600160a01b0397881681529587166020870152938616604086015260608501929092526080840152151560a083015290911660c082015260e00190565b6001600160a01b039a8b168152988a1660208a01526040890197909752948816606088015292909616608086015260a085015293151560c084015260e08301939093529115156101008201526101208101919091526101400190565b6001600160a01b03998a168152978916602089015260408801969096529390961660608601526080850191909152151560a084015260c083019390935291151560e08201526101008101919091526101200190565b6001600160a01b03929092168252602082015260400190565b6001600160a01b03998a168152602081019890985295881660408801529390961660608601526080850191909152151560a084015260c083019390935291151560e08201526101008101919091526101200190565b6001600160a01b039889168152602081019790975294909616604086015260608501929092521515608084015260a083015291151560c082015260e08101919091526101000190565b60006020825282518060208401526129c9816040850160208701612f22565b601f01601f19169190910160400192915050565b6020808252601b908201527f536166654d6174683a206164646974696f6e206f766572666c6f770000000000604082015260600190565b6020808252601d908201527f4f72646572426f6f6b3a206661696c656420746f2073656e6420455448000000604082015260600190565b60208082526026908201527f416464726573733a20696e73756666696369656e742062616c616e636520666f6040820152651c8818d85b1b60d21b606082015260800190565b60208082526021908201527f4f72646572426f6f6b3a20696e73756666696369656e7420616d6f756e744f756040820152601d60fa1b606082015260800190565b60208082526025908201527f4f72646572426f6f6b3a206f6e6c79207765746820636f756c64206265207772604082015264185c1c195960da1b606082015260800190565b60208082526025908201527f4f72646572426f6f6b3a20696e73756666696369656e7420657865637574696f6040820152646e2066656560d81b606082015260800190565b60208082526026908201527f4f72646572426f6f6b3a20696e636f72726563742076616c7565207472616e7360408201526519995c9c995960d21b606082015260800190565b6020808252601f908201527f4f72646572426f6f6b3a20696e76616c6964205f706174682e6c656e67746800604082015260600190565b60208082526026908201527f4f72646572426f6f6b3a20696e76616c696420707269636520666f722065786560408201526531baba34b7b760d11b606082015260800190565b6020808252601d908201527f4f72646572426f6f6b3a206e6f6e2d6578697374656e74206f72646572000000604082015260600190565b6020808252602a908201527f5361666545524332303a204552433230206f7065726174696f6e20646964206e6040820152691bdd081cdd58d8d9595960b21b606082015260800190565b6020808252602e908201527f4f72646572426f6f6b3a20696e636f727265637420657865637574696f6e206660408201526d1959481d1c985b9cd9995c9c995960921b606082015260800190565b6020808252601f908201527f5265656e7472616e637947756172643a207265656e7472616e742063616c6c00604082015260600190565b90815260200190565b9687526001600160a01b0395861660208801529390941660408601529015156060850152608084015260a0830191909152151560c082015260e00190565b998a526001600160a01b0398891660208b015260408a0197909752948716606089015292909516608087015260a086015292151560c085015260e08401929092529015156101008301526101208201526101400190565b9a8b526001600160a01b03998a1660208c015260408b019890985295881660608a015293909616608088015260a0870191909152151560c086015260e08501939093529115156101008401526101208301919091526101408201526101600190565b9788526001600160a01b0396871660208901526040880195909552929094166060860152608085015291151560a084015260c0830191909152151560e08201526101000190565b9889526001600160a01b0397881660208a015260408901969096529390951660608701526080860191909152151560a085015260c084019290925290151560e08301526101008201526101200190565b998a526001600160a01b0398891660208b015260408a01979097529490961660608801526080870192909252151560a086015260c085015291151560e08401526101008301919091526101208201526101400190565b9182521515602082015260400190565b60005b83811015612f3d578181015183820152602001612f25565b83811115612f4c576000848401525b50505050565b6001600160a01b0381168114612f6757600080fd5b50565b8015158114612f6757600080fdfea2646970667358221220e68a6c3553a28039671f87adbf627d30e8b4ece874fd89e79e88583697a7cc7f64736f6c634300060c0033",
  "devdoc": {
    "kind": "dev",
    "methods": {},
    "version": 1
  },
  "userdoc": {
    "kind": "user",
    "methods": {},
    "version": 1
  },
  "storageLayout": {
    "storage": [
      {
        "astId": 15478,
        "contract": "contracts/core/OrderBook.sol:OrderBook",
        "label": "_status",
        "offset": 0,
        "slot": "0",
        "type": "t_uint256"
      },
      {
        "astId": 12170,
        "contract": "contracts/core/OrderBook.sol:OrderBook",
        "label": "router",
        "offset": 0,
        "slot": "1",
        "type": "t_address"
      },
      {
        "astId": 12172,
        "contract": "contracts/core/OrderBook.sol:OrderBook",
        "label": "vault",
        "offset": 0,
        "slot": "2",
        "type": "t_address"
      },
      {
        "astId": 12174,
        "contract": "contracts/core/OrderBook.sol:OrderBook",
        "label": "weth",
        "offset": 0,
        "slot": "3",
        "type": "t_address"
      },
      {
        "astId": 12176,
        "contract": "contracts/core/OrderBook.sol:OrderBook",
        "label": "zkusd",
        "offset": 0,
        "slot": "4",
        "type": "t_address"
      },
      {
        "astId": 12178,
        "contract": "contracts/core/OrderBook.sol:OrderBook",
        "label": "minExecutionFee",
        "offset": 0,
        "slot": "5",
        "type": "t_uint256"
      },
      {
        "astId": 12180,
        "contract": "contracts/core/OrderBook.sol:OrderBook",
        "label": "gov",
        "offset": 0,
        "slot": "6",
        "type": "t_address"
      },
      {
        "astId": 12226,
        "contract": "contracts/core/OrderBook.sol:OrderBook",
        "label": "increaseOrders",
        "offset": 0,
        "slot": "7",
        "type": "t_mapping(t_address,t_mapping(t_uint256,t_struct(IncreaseOrder)12201_storage))"
      },
      {
        "astId": 12230,
        "contract": "contracts/core/OrderBook.sol:OrderBook",
        "label": "increaseOrdersIndex",
        "offset": 0,
        "slot": "8",
        "type": "t_mapping(t_address,t_uint256)"
      },
      {
        "astId": 12236,
        "contract": "contracts/core/OrderBook.sol:OrderBook",
        "label": "decreaseOrders",
        "offset": 0,
        "slot": "9",
        "type": "t_mapping(t_address,t_mapping(t_uint256,t_struct(DecreaseOrder)12220_storage))"
      },
      {
        "astId": 12240,
        "contract": "contracts/core/OrderBook.sol:OrderBook",
        "label": "decreaseOrdersIndex",
        "offset": 0,
        "slot": "10",
        "type": "t_mapping(t_address,t_uint256)"
      }
    ],
    "types": {
      "t_address": {
        "encoding": "inplace",
        "label": "address",
        "numberOfBytes": "20"
      },
      "t_bool": {
        "encoding": "inplace",
        "label": "bool",
        "numberOfBytes": "1"
      },
      "t_mapping(t_address,t_mapping(t_uint256,t_struct(DecreaseOrder)12220_storage))": {
        "encoding": "mapping",
        "key": "t_address",
        "label": "mapping(address => mapping(uint256 => struct OrderBookStorage.DecreaseOrder))",
        "numberOfBytes": "32",
        "value": "t_mapping(t_uint256,t_struct(DecreaseOrder)12220_storage)"
      },
      "t_mapping(t_address,t_mapping(t_uint256,t_struct(IncreaseOrder)12201_storage))": {
        "encoding": "mapping",
        "key": "t_address",
        "label": "mapping(address => mapping(uint256 => struct OrderBookStorage.IncreaseOrder))",
        "numberOfBytes": "32",
        "value": "t_mapping(t_uint256,t_struct(IncreaseOrder)12201_storage)"
      },
      "t_mapping(t_address,t_uint256)": {
        "encoding": "mapping",
        "key": "t_address",
        "label": "mapping(address => uint256)",
        "numberOfBytes": "32",
        "value": "t_uint256"
      },
      "t_mapping(t_uint256,t_struct(DecreaseOrder)12220_storage)": {
        "encoding": "mapping",
        "key": "t_uint256",
        "label": "mapping(uint256 => struct OrderBookStorage.DecreaseOrder)",
        "numberOfBytes": "32",
        "value": "t_struct(DecreaseOrder)12220_storage"
      },
      "t_mapping(t_uint256,t_struct(IncreaseOrder)12201_storage)": {
        "encoding": "mapping",
        "key": "t_uint256",
        "label": "mapping(uint256 => struct OrderBookStorage.IncreaseOrder)",
        "numberOfBytes": "32",
        "value": "t_struct(IncreaseOrder)12201_storage"
      },
      "t_struct(DecreaseOrder)12220_storage": {
        "encoding": "inplace",
        "label": "struct OrderBookStorage.DecreaseOrder",
        "members": [
          {
            "astId": 12203,
            "contract": "contracts/core/OrderBook.sol:OrderBook",
            "label": "account",
            "offset": 0,
            "slot": "0",
            "type": "t_address"
          },
          {
            "astId": 12205,
            "contract": "contracts/core/OrderBook.sol:OrderBook",
            "label": "collateralToken",
            "offset": 0,
            "slot": "1",
            "type": "t_address"
          },
          {
            "astId": 12207,
            "contract": "contracts/core/OrderBook.sol:OrderBook",
            "label": "collateralDelta",
            "offset": 0,
            "slot": "2",
            "type": "t_uint256"
          },
          {
            "astId": 12209,
            "contract": "contracts/core/OrderBook.sol:OrderBook",
            "label": "indexToken",
            "offset": 0,
            "slot": "3",
            "type": "t_address"
          },
          {
            "astId": 12211,
            "contract": "contracts/core/OrderBook.sol:OrderBook",
            "label": "sizeDelta",
            "offset": 0,
            "slot": "4",
            "type": "t_uint256"
          },
          {
            "astId": 12213,
            "contract": "contracts/core/OrderBook.sol:OrderBook",
            "label": "isLong",
            "offset": 0,
            "slot": "5",
            "type": "t_bool"
          },
          {
            "astId": 12215,
            "contract": "contracts/core/OrderBook.sol:OrderBook",
            "label": "triggerPrice",
            "offset": 0,
            "slot": "6",
            "type": "t_uint256"
          },
          {
            "astId": 12217,
            "contract": "contracts/core/OrderBook.sol:OrderBook",
            "label": "triggerAboveThreshold",
            "offset": 0,
            "slot": "7",
            "type": "t_bool"
          },
          {
            "astId": 12219,
            "contract": "contracts/core/OrderBook.sol:OrderBook",
            "label": "executionFee",
            "offset": 0,
            "slot": "8",
            "type": "t_uint256"
          }
        ],
        "numberOfBytes": "288"
      },
      "t_struct(IncreaseOrder)12201_storage": {
        "encoding": "inplace",
        "label": "struct OrderBookStorage.IncreaseOrder",
        "members": [
          {
            "astId": 12182,
            "contract": "contracts/core/OrderBook.sol:OrderBook",
            "label": "account",
            "offset": 0,
            "slot": "0",
            "type": "t_address"
          },
          {
            "astId": 12184,
            "contract": "contracts/core/OrderBook.sol:OrderBook",
            "label": "purchaseToken",
            "offset": 0,
            "slot": "1",
            "type": "t_address"
          },
          {
            "astId": 12186,
            "contract": "contracts/core/OrderBook.sol:OrderBook",
            "label": "purchaseTokenAmount",
            "offset": 0,
            "slot": "2",
            "type": "t_uint256"
          },
          {
            "astId": 12188,
            "contract": "contracts/core/OrderBook.sol:OrderBook",
            "label": "collateralToken",
            "offset": 0,
            "slot": "3",
            "type": "t_address"
          },
          {
            "astId": 12190,
            "contract": "contracts/core/OrderBook.sol:OrderBook",
            "label": "indexToken",
            "offset": 0,
            "slot": "4",
            "type": "t_address"
          },
          {
            "astId": 12192,
            "contract": "contracts/core/OrderBook.sol:OrderBook",
            "label": "sizeDelta",
            "offset": 0,
            "slot": "5",
            "type": "t_uint256"
          },
          {
            "astId": 12194,
            "contract": "contracts/core/OrderBook.sol:OrderBook",
            "label": "isLong",
            "offset": 0,
            "slot": "6",
            "type": "t_bool"
          },
          {
            "astId": 12196,
            "contract": "contracts/core/OrderBook.sol:OrderBook",
            "label": "triggerPrice",
            "offset": 0,
            "slot": "7",
            "type": "t_uint256"
          },
          {
            "astId": 12198,
            "contract": "contracts/core/OrderBook.sol:OrderBook",
            "label": "triggerAboveThreshold",
            "offset": 0,
            "slot": "8",
            "type": "t_bool"
          },
          {
            "astId": 12200,
            "contract": "contracts/core/OrderBook.sol:OrderBook",
            "label": "executionFee",
            "offset": 0,
            "slot": "9",
            "type": "t_uint256"
          }
        ],
        "numberOfBytes": "320"
      },
      "t_uint256": {
        "encoding": "inplace",
        "label": "uint256",
        "numberOfBytes": "32"
      }
    }
  }
}