{
  "address": "0x7419100B06783666E1BCe8d302538868CcBb7e3e",
  "abi": [
    {
      "inputs": [
        {
          "internalType": "address",
          "name": "_pyth",
          "type": "address"
        }
      ],
      "stateMutability": "nonpayable",
      "type": "constructor"
    },
    {
      "inputs": [
        {
          "internalType": "address",
          "name": "",
          "type": "address"
        }
      ],
      "name": "feedIds",
      "outputs": [
        {
          "internalType": "bytes32",
          "name": "",
          "type": "bytes32"
        }
      ],
      "stateMutability": "view",
      "type": "function"
    },
    {
      "inputs": [
        {
          "internalType": "address",
          "name": "_token",
          "type": "address"
        },
        {
          "internalType": "bool",
          "name": "_maximise",
          "type": "bool"
        },
        {
          "internalType": "bool",
          "name": "_fresh",
          "type": "bool"
        }
      ],
      "name": "getPrice",
      "outputs": [
        {
          "internalType": "uint256",
          "name": "",
          "type": "uint256"
        }
      ],
      "stateMutability": "view",
      "type": "function"
    },
    {
      "inputs": [
        {
          "internalType": "bytes[]",
          "name": "_updateData",
          "type": "bytes[]"
        }
      ],
      "name": "getUpdateFee",
      "outputs": [
        {
          "internalType": "uint256",
          "name": "",
          "type": "uint256"
        }
      ],
      "stateMutability": "view",
      "type": "function"
    },
    {
      "inputs": [],
      "name": "gov",
      "outputs": [
        {
          "internalType": "address",
          "name": "",
          "type": "address"
        }
      ],
      "stateMutability": "view",
      "type": "function"
    },
    {
      "inputs": [
        {
          "internalType": "address",
          "name": "_token",
          "type": "address"
        }
      ],
      "name": "latestTime",
      "outputs": [
        {
          "internalType": "uint256",
          "name": "_diff",
          "type": "uint256"
        }
      ],
      "stateMutability": "view",
      "type": "function"
    },
    {
      "inputs": [],
      "name": "pyth",
      "outputs": [
        {
          "internalType": "contract IPyth",
          "name": "",
          "type": "address"
        }
      ],
      "stateMutability": "view",
      "type": "function"
    },
    {
      "inputs": [
        {
          "internalType": "address[]",
          "name": "_tokens",
          "type": "address[]"
        },
        {
          "internalType": "bytes32[]",
          "name": "_feedIds",
          "type": "bytes32[]"
        }
      ],
      "name": "setFeedIds",
      "outputs": [],
      "stateMutability": "nonpayable",
      "type": "function"
    },
    {
      "inputs": [
        {
          "internalType": "address",
          "name": "_gov",
          "type": "address"
        }
      ],
      "name": "setGov",
      "outputs": [],
      "stateMutability": "nonpayable",
      "type": "function"
    },
    {
      "inputs": [
        {
          "internalType": "address",
          "name": "_pyth",
          "type": "address"
        }
      ],
      "name": "setPyth",
      "outputs": [],
      "stateMutability": "nonpayable",
      "type": "function"
    },
    {
      "inputs": [
        {
          "internalType": "uint256",
          "name": "_validTime",
          "type": "uint256"
        }
      ],
      "name": "setValidTime",
      "outputs": [],
      "stateMutability": "nonpayable",
      "type": "function"
    },
    {
      "inputs": [
        {
          "internalType": "bytes[]",
          "name": "_priceData",
          "type": "bytes[]"
        }
      ],
      "name": "updatePriceFeeds",
      "outputs": [],
      "stateMutability": "payable",
      "type": "function"
    },
    {
      "inputs": [],
      "name": "validTime",
      "outputs": [
        {
          "internalType": "uint256",
          "name": "",
          "type": "uint256"
        }
      ],
      "stateMutability": "view",
      "type": "function"
    }
  ],
  "transactionHash": "0x8cff97a83bfa31cbc308b34a855a55283b9b906650c5ce921f1dc4a4f859a246",
  "args": [
    "0xff1a0f4744e8582DF1aE09D5611b887B6a12925C"
  ],
  "numDeployments": 1,
  "solcInputHash": "136f62b55852fe19f5c64d50e5c6241e",
  "bytecode": "0x608060405234801561001057600080fd5b50604051610d48380380610d4883398101604081905261002f91610062565b600080546001600160a01b039092166001600160a01b031992831617905560036001819055805490911633179055610092565b60006020828403121561007457600080fd5b81516001600160a01b038116811461008b57600080fd5b9392505050565b610ca7806100a16000396000f3fe6080604052600436106100a75760003560e01c8063bbe4491711610064578063bbe44917146101a6578063cfad57a2146101bc578063d47eed45146101dc578063ee22fd6f146101fc578063ef9e5e281461021c578063f98d06f01461022f57600080fd5b806312d43a51146100ac5780634c93c1e2146100e95780634fd666061461010b5780635ae69163146101395780635de379321461015957806386dcbc1a14610186575b600080fd5b3480156100b857600080fd5b506003546100cc906001600160a01b031681565b6040516001600160a01b0390911681526020015b60405180910390f35b3480156100f557600080fd5b5061010961010436600461079d565b61024f565b005b34801561011757600080fd5b5061012b6101263660046107d2565b610287565b6040519081526020016100e0565b34801561014557600080fd5b5061012b6101543660046107fd565b610326565b34801561016557600080fd5b5061012b6101743660046107d2565b60026020526000908152604090205481565b34801561019257600080fd5b506101096101a136600461088b565b61050c565b3480156101b257600080fd5b5061012b60015481565b3480156101c857600080fd5b506101096101d73660046107d2565b610607565b3480156101e857600080fd5b5061012b6101f73660046108f6565b610653565b34801561020857600080fd5b506101096102173660046107d2565b6106d0565b61010961022a3660046108f6565b61071c565b34801561023b57600080fd5b506000546100cc906001600160a01b031681565b6003546001600160a01b031633146102825760405162461bcd60e51b815260040161027990610937565b60405180910390fd5b600155565b600080546001600160a01b038381168352600260205260408084205490516396834ad360e01b8152849392909216916396834ad3916102cc9160040190815260200190565b608060405180830381865afa1580156102e9573d6000803e3d6000fd5b505050506040513d601f19601f8201168201806040525081019061030d9190610993565b905080606001514261031f9190610a38565b9392505050565b600080546001600160a01b038581168352600260205260408084205490516396834ad360e01b8152849392909216916396834ad39161036b9160040190815260200190565b608060405180830381865afa158015610388573d6000803e3d6000fd5b505050506040513d601f19601f820116820180604052508101906103ac9190610993565b90506000816000015160070b136104115760405162461bcd60e51b815260206004820152602360248201527f5661756c745072696365466565643a207072696365206e6f7420617661696c61604482015262626c6560e81b6064820152608401610279565b8280156104215750806060015142115b156104865760015460608201516104389042610a38565b11156104865760405162461bcd60e51b815260206004820152601d60248201527f5661756c745072696365466565643a20707269636520746f6f206f6c640000006044820152606401610279565b6000610498826000015160070b610786565b9050600082602001516001600160401b0316905060006104be846040015160030b610786565b6104c990601e610a38565b9050866104df576104da8284610a38565b6104e9565b6104e98284610a4b565b92506104f681600a610b42565b6105009084610b4e565b98975050505050505050565b6003546001600160a01b031633146105365760405162461bcd60e51b815260040161027990610937565b8281146105855760405162461bcd60e51b815260206004820152601f60248201527f5661756c745072696365466565643a20696e76616c69642066656564496473006044820152606401610279565b60005b83811015610600578282828181106105a2576105a2610b65565b90506020020135600260008787858181106105bf576105bf610b65565b90506020020160208101906105d491906107d2565b6001600160a01b03168152602081019190915260400160002055806105f881610b7b565b915050610588565b5050505050565b6003546001600160a01b031633146106315760405162461bcd60e51b815260040161027990610937565b600380546001600160a01b0319166001600160a01b0392909216919091179055565b6000805460405163d47eed4560e01b81526001600160a01b039091169063d47eed45906106869086908690600401610bbd565b602060405180830381865afa1580156106a3573d6000803e3d6000fd5b505050506040513d601f19601f820116820180604052508101906106c79190610c58565b90505b92915050565b6003546001600160a01b031633146106fa5760405162461bcd60e51b815260040161027990610937565b600080546001600160a01b0319166001600160a01b0392909216919091179055565b600054604051631df3cbc560e31b81526001600160a01b039091169063ef9e5e289034906107509086908690600401610bbd565b6000604051808303818588803b15801561076957600080fd5b505af115801561077d573d6000803e3d6000fd5b50505050505050565b60008082121561079957816000036106ca565b5090565b6000602082840312156107af57600080fd5b5035919050565b80356001600160a01b03811681146107cd57600080fd5b919050565b6000602082840312156107e457600080fd5b6106c7826107b6565b803580151581146107cd57600080fd5b60008060006060848603121561081257600080fd5b61081b846107b6565b9250610829602085016107ed565b9150610837604085016107ed565b90509250925092565b60008083601f84011261085257600080fd5b5081356001600160401b0381111561086957600080fd5b6020830191508360208260051b850101111561088457600080fd5b9250929050565b600080600080604085870312156108a157600080fd5b84356001600160401b03808211156108b857600080fd5b6108c488838901610840565b909650945060208701359150808211156108dd57600080fd5b506108ea87828801610840565b95989497509550505050565b6000806020838503121561090957600080fd5b82356001600160401b0381111561091f57600080fd5b61092b85828601610840565b90969095509350505050565b6020808252601990820152782b30bab63a283934b1b2a332b2b21d103337b93134b23232b760391b604082015260600190565b80516001600160401b03811681146107cd57600080fd5b8051600381900b81146107cd57600080fd5b6000608082840312156109a557600080fd5b604051608081018181106001600160401b03821117156109d557634e487b7160e01b600052604160045260246000fd5b6040528251600781900b81146109ea57600080fd5b81526109f86020840161096a565b6020820152610a0960408401610981565b6040820152606083015160608201528091505092915050565b634e487b7160e01b600052601160045260246000fd5b818103818111156106ca576106ca610a22565b808201808211156106ca576106ca610a22565b600181815b80851115610a99578160001904821115610a7f57610a7f610a22565b80851615610a8c57918102915b93841c9390800290610a63565b509250929050565b600082610ab0575060016106ca565b81610abd575060006106ca565b8160018114610ad35760028114610add57610af9565b60019150506106ca565b60ff841115610aee57610aee610a22565b50506001821b6106ca565b5060208310610133831016604e8410600b8410161715610b1c575081810a6106ca565b610b268383610a5e565b8060001904821115610b3a57610b3a610a22565b029392505050565b60006106c78383610aa1565b80820281158282048414176106ca576106ca610a22565b634e487b7160e01b600052603260045260246000fd5b600060018201610b8d57610b8d610a22565b5060010190565b81835281816020850137506000828201602090810191909152601f909101601f19169091010190565b60208082528181018390526000906040600585901b8401810190840186845b87811015610c4b57868403603f190183528135368a9003601e19018112610c0257600080fd5b890185810190356001600160401b03811115610c1d57600080fd5b803603821315610c2c57600080fd5b610c37868284610b94565b955050509184019190840190600101610bdc565b5091979650505050505050565b600060208284031215610c6a57600080fd5b505191905056fea26469706673582212203eba0f1f66042babdf56005af1899a804754ae793240bf7b17af60d76729f22e64736f6c63430008110033",
  "devdoc": {
    "kind": "dev",
    "methods": {},
    "version": 1
  },
  "userdoc": {
    "kind": "user",
    "methods": {},
    "version": 1
  },
  "storageLayout": {
    "storage": [
      {
        "astId": 10498,
        "contract": "contracts/core/VaultPriceFeed.sol:VaultPriceFeed",
        "label": "pyth",
        "offset": 0,
        "slot": "0",
        "type": "t_contract(IPyth)9976"
      },
      {
        "astId": 10500,
        "contract": "contracts/core/VaultPriceFeed.sol:VaultPriceFeed",
        "label": "validTime",
        "offset": 0,
        "slot": "1",
        "type": "t_uint256"
      },
      {
        "astId": 10504,
        "contract": "contracts/core/VaultPriceFeed.sol:VaultPriceFeed",
        "label": "feedIds",
        "offset": 0,
        "slot": "2",
        "type": "t_mapping(t_address,t_bytes32)"
      },
      {
        "astId": 10506,
        "contract": "contracts/core/VaultPriceFeed.sol:VaultPriceFeed",
        "label": "gov",
        "offset": 0,
        "slot": "3",
        "type": "t_address"
      }
    ],
    "types": {
      "t_address": {
        "encoding": "inplace",
        "label": "address",
        "numberOfBytes": "20"
      },
      "t_bytes32": {
        "encoding": "inplace",
        "label": "bytes32",
        "numberOfBytes": "32"
      },
      "t_contract(IPyth)9976": {
        "encoding": "inplace",
        "label": "contract IPyth",
        "numberOfBytes": "20"
      },
      "t_mapping(t_address,t_bytes32)": {
        "encoding": "mapping",
        "key": "t_address",
        "label": "mapping(address => bytes32)",
        "numberOfBytes": "32",
        "value": "t_bytes32"
      },
      "t_uint256": {
        "encoding": "inplace",
        "label": "uint256",
        "numberOfBytes": "32"
      }
    }
  }
}