{
  "address": "0x8251f16AbC584E5BB12199a04aafA50695cF2B11",
  "abi": [
    {
      "inputs": [],
      "stateMutability": "nonpayable",
      "type": "constructor"
    },
    {
      "anonymous": false,
      "inputs": [
        {
          "indexed": true,
          "internalType": "address",
          "name": "owner",
          "type": "address"
        },
        {
          "indexed": true,
          "internalType": "address",
          "name": "spender",
          "type": "address"
        },
        {
          "indexed": false,
          "internalType": "uint256",
          "name": "value",
          "type": "uint256"
        }
      ],
      "name": "Approval",
      "type": "event"
    },
    {
      "anonymous": false,
      "inputs": [
        {
          "indexed": true,
          "internalType": "address",
          "name": "from",
          "type": "address"
        },
        {
          "indexed": true,
          "internalType": "address",
          "name": "to",
          "type": "address"
        },
        {
          "indexed": false,
          "internalType": "uint256",
          "name": "value",
          "type": "uint256"
        }
      ],
      "name": "Transfer",
      "type": "event"
    },
    {
      "inputs": [
        {
          "internalType": "address",
          "name": "_account",
          "type": "address"
        }
      ],
      "name": "addAdmin",
      "outputs": [],
      "stateMutability": "nonpayable",
      "type": "function"
    },
    {
      "inputs": [
        {
          "internalType": "address",
          "name": "_account",
          "type": "address"
        }
      ],
      "name": "addNonStakingAccount",
      "outputs": [],
      "stateMutability": "nonpayable",
      "type": "function"
    },
    {
      "inputs": [
        {
          "internalType": "address",
          "name": "",
          "type": "address"
        }
      ],
      "name": "admins",
      "outputs": [
        {
          "internalType": "bool",
          "name": "",
          "type": "bool"
        }
      ],
      "stateMutability": "view",
      "type": "function"
    },
    {
      "inputs": [
        {
          "internalType": "address",
          "name": "_owner",
          "type": "address"
        },
        {
          "internalType": "address",
          "name": "_spender",
          "type": "address"
        }
      ],
      "name": "allowance",
      "outputs": [
        {
          "internalType": "uint256",
          "name": "",
          "type": "uint256"
        }
      ],
      "stateMutability": "view",
      "type": "function"
    },
    {
      "inputs": [
        {
          "internalType": "address",
          "name": "",
          "type": "address"
        },
        {
          "internalType": "address",
          "name": "",
          "type": "address"
        }
      ],
      "name": "allowances",
      "outputs": [
        {
          "internalType": "uint256",
          "name": "",
          "type": "uint256"
        }
      ],
      "stateMutability": "view",
      "type": "function"
    },
    {
      "inputs": [
        {
          "internalType": "address",
          "name": "_spender",
          "type": "address"
        },
        {
          "internalType": "uint256",
          "name": "_amount",
          "type": "uint256"
        }
      ],
      "name": "approve",
      "outputs": [
        {
          "internalType": "bool",
          "name": "",
          "type": "bool"
        }
      ],
      "stateMutability": "nonpayable",
      "type": "function"
    },
    {
      "inputs": [
        {
          "internalType": "address",
          "name": "_account",
          "type": "address"
        }
      ],
      "name": "balanceOf",
      "outputs": [
        {
          "internalType": "uint256",
          "name": "",
          "type": "uint256"
        }
      ],
      "stateMutability": "view",
      "type": "function"
    },
    {
      "inputs": [
        {
          "internalType": "address",
          "name": "",
          "type": "address"
        }
      ],
      "name": "balances",
      "outputs": [
        {
          "internalType": "uint256",
          "name": "",
          "type": "uint256"
        }
      ],
      "stateMutability": "view",
      "type": "function"
    },
    {
      "inputs": [
        {
          "internalType": "address",
          "name": "_account",
          "type": "address"
        },
        {
          "internalType": "uint256",
          "name": "_amount",
          "type": "uint256"
        }
      ],
      "name": "burn",
      "outputs": [],
      "stateMutability": "nonpayable",
      "type": "function"
    },
    {
      "inputs": [
        {
          "internalType": "address",
          "name": "_receiver",
          "type": "address"
        }
      ],
      "name": "claim",
      "outputs": [],
      "stateMutability": "nonpayable",
      "type": "function"
    },
    {
      "inputs": [],
      "name": "decimals",
      "outputs": [
        {
          "internalType": "uint8",
          "name": "",
          "type": "uint8"
        }
      ],
      "stateMutability": "view",
      "type": "function"
    },
    {
      "inputs": [],
      "name": "gov",
      "outputs": [
        {
          "internalType": "address",
          "name": "",
          "type": "address"
        }
      ],
      "stateMutability": "view",
      "type": "function"
    },
    {
      "inputs": [],
      "name": "id",
      "outputs": [
        {
          "internalType": "string",
          "name": "_name",
          "type": "string"
        }
      ],
      "stateMutability": "pure",
      "type": "function"
    },
    {
      "inputs": [],
      "name": "inPrivateTransferMode",
      "outputs": [
        {
          "internalType": "bool",
          "name": "",
          "type": "bool"
        }
      ],
      "stateMutability": "view",
      "type": "function"
    },
    {
      "inputs": [
        {
          "internalType": "address",
          "name": "",
          "type": "address"
        }
      ],
      "name": "isHandler",
      "outputs": [
        {
          "internalType": "bool",
          "name": "",
          "type": "bool"
        }
      ],
      "stateMutability": "view",
      "type": "function"
    },
    {
      "inputs": [
        {
          "internalType": "address",
          "name": "",
          "type": "address"
        }
      ],
      "name": "isMinter",
      "outputs": [
        {
          "internalType": "bool",
          "name": "",
          "type": "bool"
        }
      ],
      "stateMutability": "view",
      "type": "function"
    },
    {
      "inputs": [
        {
          "internalType": "address",
          "name": "_account",
          "type": "address"
        },
        {
          "internalType": "uint256",
          "name": "_amount",
          "type": "uint256"
        }
      ],
      "name": "mint",
      "outputs": [],
      "stateMutability": "nonpayable",
      "type": "function"
    },
    {
      "inputs": [],
      "name": "name",
      "outputs": [
        {
          "internalType": "string",
          "name": "",
          "type": "string"
        }
      ],
      "stateMutability": "view",
      "type": "function"
    },
    {
      "inputs": [
        {
          "internalType": "address",
          "name": "",
          "type": "address"
        }
      ],
      "name": "nonStakingAccounts",
      "outputs": [
        {
          "internalType": "bool",
          "name": "",
          "type": "bool"
        }
      ],
      "stateMutability": "view",
      "type": "function"
    },
    {
      "inputs": [],
      "name": "nonStakingSupply",
      "outputs": [
        {
          "internalType": "uint256",
          "name": "",
          "type": "uint256"
        }
      ],
      "stateMutability": "view",
      "type": "function"
    },
    {
      "inputs": [
        {
          "internalType": "address",
          "name": "_account",
          "type": "address"
        },
        {
          "internalType": "address",
          "name": "_receiver",
          "type": "address"
        }
      ],
      "name": "recoverClaim",
      "outputs": [],
      "stateMutability": "nonpayable",
      "type": "function"
    },
    {
      "inputs": [
        {
          "internalType": "address",
          "name": "_account",
          "type": "address"
        }
      ],
      "name": "removeAdmin",
      "outputs": [],
      "stateMutability": "nonpayable",
      "type": "function"
    },
    {
      "inputs": [
        {
          "internalType": "address",
          "name": "_account",
          "type": "address"
        }
      ],
      "name": "removeNonStakingAccount",
      "outputs": [],
      "stateMutability": "nonpayable",
      "type": "function"
    },
    {
      "inputs": [
        {
          "internalType": "address",
          "name": "_gov",
          "type": "address"
        }
      ],
      "name": "setGov",
      "outputs": [],
      "stateMutability": "nonpayable",
      "type": "function"
    },
    {
      "inputs": [
        {
          "internalType": "address",
          "name": "_handler",
          "type": "address"
        },
        {
          "internalType": "bool",
          "name": "_isActive",
          "type": "bool"
        }
      ],
      "name": "setHandler",
      "outputs": [],
      "stateMutability": "nonpayable",
      "type": "function"
    },
    {
      "inputs": [
        {
          "internalType": "bool",
          "name": "_inPrivateTransferMode",
          "type": "bool"
        }
      ],
      "name": "setInPrivateTransferMode",
      "outputs": [],
      "stateMutability": "nonpayable",
      "type": "function"
    },
    {
      "inputs": [
        {
          "internalType": "string",
          "name": "_name",
          "type": "string"
        },
        {
          "internalType": "string",
          "name": "_symbol",
          "type": "string"
        }
      ],
      "name": "setInfo",
      "outputs": [],
      "stateMutability": "nonpayable",
      "type": "function"
    },
    {
      "inputs": [
        {
          "internalType": "address",
          "name": "_minter",
          "type": "address"
        },
        {
          "internalType": "bool",
          "name": "_isActive",
          "type": "bool"
        }
      ],
      "name": "setMinter",
      "outputs": [],
      "stateMutability": "nonpayable",
      "type": "function"
    },
    {
      "inputs": [
        {
          "internalType": "address[]",
          "name": "_yieldTrackers",
          "type": "address[]"
        }
      ],
      "name": "setYieldTrackers",
      "outputs": [],
      "stateMutability": "nonpayable",
      "type": "function"
    },
    {
      "inputs": [
        {
          "internalType": "address",
          "name": "_account",
          "type": "address"
        }
      ],
      "name": "stakedBalance",
      "outputs": [
        {
          "internalType": "uint256",
          "name": "",
          "type": "uint256"
        }
      ],
      "stateMutability": "view",
      "type": "function"
    },
    {
      "inputs": [],
      "name": "symbol",
      "outputs": [
        {
          "internalType": "string",
          "name": "",
          "type": "string"
        }
      ],
      "stateMutability": "view",
      "type": "function"
    },
    {
      "inputs": [],
      "name": "totalStaked",
      "outputs": [
        {
          "internalType": "uint256",
          "name": "",
          "type": "uint256"
        }
      ],
      "stateMutability": "view",
      "type": "function"
    },
    {
      "inputs": [],
      "name": "totalSupply",
      "outputs": [
        {
          "internalType": "uint256",
          "name": "",
          "type": "uint256"
        }
      ],
      "stateMutability": "view",
      "type": "function"
    },
    {
      "inputs": [
        {
          "internalType": "address",
          "name": "_recipient",
          "type": "address"
        },
        {
          "internalType": "uint256",
          "name": "_amount",
          "type": "uint256"
        }
      ],
      "name": "transfer",
      "outputs": [
        {
          "internalType": "bool",
          "name": "",
          "type": "bool"
        }
      ],
      "stateMutability": "nonpayable",
      "type": "function"
    },
    {
      "inputs": [
        {
          "internalType": "address",
          "name": "_sender",
          "type": "address"
        },
        {
          "internalType": "address",
          "name": "_recipient",
          "type": "address"
        },
        {
          "internalType": "uint256",
          "name": "_amount",
          "type": "uint256"
        }
      ],
      "name": "transferFrom",
      "outputs": [
        {
          "internalType": "bool",
          "name": "",
          "type": "bool"
        }
      ],
      "stateMutability": "nonpayable",
      "type": "function"
    },
    {
      "inputs": [
        {
          "internalType": "address",
          "name": "_token",
          "type": "address"
        },
        {
          "internalType": "address",
          "name": "_account",
          "type": "address"
        },
        {
          "internalType": "uint256",
          "name": "_amount",
          "type": "uint256"
        }
      ],
      "name": "withdrawToken",
      "outputs": [],
      "stateMutability": "nonpayable",
      "type": "function"
    },
    {
      "inputs": [
        {
          "internalType": "uint256",
          "name": "",
          "type": "uint256"
        }
      ],
      "name": "yieldTrackers",
      "outputs": [
        {
          "internalType": "address",
          "name": "",
          "type": "address"
        }
      ],
      "stateMutability": "view",
      "type": "function"
    }
  ],
  "transactionHash": "0x5819482699869f5db0c57d5bfa8b5d685d52615c34356681280241b780a42feb",
  "args": [],
  "numDeployments": 1,
  "solcInputHash": "45f986e69ef0b1c3adec9bb2994aea31",
  "bytecode": "0x60806040523480156200001157600080fd5b506040518060400160405280600581526020016405a4b444c560dc1b8152506040518060400160405280600581526020016405a4b444c560dc1b815250600082828282600090805190602001906200006b9291906200035e565b508151620000819060019060208501906200035e565b50600480546001600160a01b03191633908117909155620000a39082620000af565b505050505050620003fa565b60006001600160a01b0316826001600160a01b0316141560405180606001604052806023815260200162002a2660239139906200016d5760405162461bcd60e51b81526004018080602001828103825283818151815260200191508051906020019080838360005b838110156200013157818101518382015260200162000117565b50505050905090810190601f1680156200015f5780820380516001836020036101000a031916815260200191505b509250505060405180910390fd5b5062000179826200025d565b6200019581600254620002fc60201b620017ff1790919060201c565b6002556001600160a01b038216600090815260056020908152604090912054620001ca918390620017ff620002fc821b17901c565b6001600160a01b03831660009081526005602090815260408083209390935560089052205460ff161562000218576200021481600354620002fc60201b620017ff1790919060201c565b6003555b6040805182815290516001600160a01b038416916000917fddf252ad1be2c89b69c2b068fc378daa952ba7f163c4a11628f55a4df523b3ef9181900360200190a35050565b60005b600754811015620002f8576000600782815481106200027b57fe5b600091825260208220015460408051635fd6196560e01b81526001600160a01b03878116600483015291519190921693508392635fd61965926024808201939182900301818387803b158015620002d157600080fd5b505af1158015620002e6573d6000803e3d6000fd5b50506001909301925062000260915050565b5050565b60008282018381101562000357576040805162461bcd60e51b815260206004820152601b60248201527f536166654d6174683a206164646974696f6e206f766572666c6f770000000000604482015290519081900360640190fd5b9392505050565b828054600181600116156101000203166002900490600052602060002090601f016020900481019282601f10620003a157805160ff1916838001178555620003d1565b82800160010185558215620003d1579182015b82811115620003d1578251825591602001919060010190620003b4565b50620003df929150620003e3565b5090565b5b80821115620003df5760008155600101620003e4565b61261c806200040a6000396000f3fe608060405234801561001057600080fd5b50600436106101f75760003560e01c80636228907711610120578063a9059cbb116100b8578063cf456ae71161007c578063cf456ae714610859578063cfad57a214610887578063dd62ed3e146108ad578063dfbaefb1146108db578063fb30d916146108e3576101f7565b8063a9059cbb146106ce578063a923fc40146106fa578063aa271e1a14610823578063af640d0f14610849578063c93be63614610851576101f7565b8063622890771461059e57806370480275146105c457806370a08231146105ea578063817b1cd2146106105780639554381a1461061857806395d89b411461063e578063996f11ee146106465780639cb7de4b146106745780639dc29fac146106a2576101f7565b806327e235e31161019357806327e235e314610452578063313ce5671461047857806340c10f1914610496578063429b62e5146104c257806346ea87af146104e857806352cd38d91461050e57806355b6ed5c1461052b5780635a47a1a7146105595780636021726714610578576101f7565b806301e33667146101fc57806306fdde0314610234578063095ea7b3146102b157806312d43a51146102f15780631785f53c1461031557806318160ddd1461033b5780631e83409a1461035557806323b872dd1461037b578063276eab4e146103b1575b600080fd5b6102326004803603606081101561021257600080fd5b506001600160a01b03813581169160208101359091169060400135610909565b005b61023c6109dc565b6040805160208082528351818301528351919283929083019185019080838360005b8381101561027657818101518382015260200161025e565b50505050905090810190601f1680156102a35780820380516001836020036101000a031916815260200191505b509250505060405180910390f35b6102dd600480360360408110156102c757600080fd5b506001600160a01b038135169060200135610a6a565b604080519115158252519081900360200190f35b6102f9610a80565b604080516001600160a01b039092168252519081900360200190f35b6102326004803603602081101561032b57600080fd5b50356001600160a01b0316610a8f565b610343610b2d565b60408051918252519081900360200190f35b6102326004803603602081101561036b57600080fd5b50356001600160a01b0316610b33565b6102dd6004803603606081101561039157600080fd5b506001600160a01b03813581169160208101359091169060400135610bea565b610232600480360360208110156103c757600080fd5b810190602081018135600160201b8111156103e157600080fd5b8201836020820111156103f357600080fd5b803590602001918460208302840111600160201b8311171561041457600080fd5b919080806020026020016040519081016040528093929190818152602001838360200280828437600092019190915250929550610c84945050505050565b6103436004803603602081101561046857600080fd5b50356001600160a01b0316610d14565b610480610d26565b6040805160ff9092168252519081900360200190f35b610232600480360360408110156104ac57600080fd5b506001600160a01b038135169060200135610d2b565b6102dd600480360360208110156104d857600080fd5b50356001600160a01b0316610dcc565b6102dd600480360360208110156104fe57600080fd5b50356001600160a01b0316610de1565b6102f96004803603602081101561052457600080fd5b5035610df6565b6103436004803603604081101561054157600080fd5b506001600160a01b0381358116916020013516610e1d565b6102326004803603602081101561056f57600080fd5b50351515610e3a565b6103436004803603602081101561058e57600080fd5b50356001600160a01b0316610eca565b610232600480360360208110156105b457600080fd5b50356001600160a01b0316610f13565b610232600480360360208110156105da57600080fd5b50356001600160a01b0316611068565b6103436004803603602081101561060057600080fd5b50356001600160a01b0316611109565b610343611124565b6102dd6004803603602081101561062e57600080fd5b50356001600160a01b0316611142565b61023c611157565b6102326004803603604081101561065c57600080fd5b506001600160a01b03813581169160200135166111b1565b6102326004803603604081101561068a57600080fd5b506001600160a01b03813516906020013515156112eb565b610232600480360360408110156106b857600080fd5b506001600160a01b038135169060200135611393565b6102dd600480360360408110156106e457600080fd5b506001600160a01b038135169060200135611434565b6102326004803603604081101561071057600080fd5b810190602081018135600160201b81111561072a57600080fd5b82018360208201111561073c57600080fd5b803590602001918460018302840111600160201b8311171561075d57600080fd5b91908080601f0160208091040260200160405190810160405280939291908181526020018383808284376000920191909152509295949360208101935035915050600160201b8111156107af57600080fd5b8201836020820111156107c157600080fd5b803590602001918460018302840111600160201b831117156107e257600080fd5b91908080601f016020809104026020016040519081016040528093929190818152602001838380828437600092019190915250929550611441945050505050565b6102dd6004803603602081101561083957600080fd5b50356001600160a01b03166114e5565b61023c6114fa565b610343611519565b6102326004803603604081101561086f57600080fd5b506001600160a01b038135169060200135151561151f565b6102326004803603602081101561089d57600080fd5b50356001600160a01b03166115c7565b610343600480360360408110156108c357600080fd5b506001600160a01b0381358116916020013516611666565b6102dd611691565b610232600480360360208110156108f957600080fd5b50356001600160a01b031661169a565b60045460408051808201909152601481526000805160206124958339815191526020820152906001600160a01b031633146109c25760405162461bcd60e51b81526004018080602001828103825283818151815260200191508051906020019080838360005b8381101561098757818101518382015260200161096f565b50505050905090810190601f1680156109b45780820380516001836020036101000a031916815260200191505b509250505060405180910390fd5b506109d76001600160a01b0384168383611859565b505050565b6000805460408051602060026001851615610100026000190190941693909304601f81018490048402820184019092528181529291830182828015610a625780601f10610a3757610100808354040283529160200191610a62565b820191906000526020600020905b815481529060010190602001808311610a4557829003601f168201915b505050505081565b6000610a773384846118ab565b50600192915050565b6004546001600160a01b031681565b60045460408051808201909152601481526000805160206124958339815191526020820152906001600160a01b03163314610b0b5760405162461bcd60e51b815260206004820181815283516024840152835190928392604490910191908501908083836000831561098757818101518382015260200161096f565b506001600160a01b03166000908152600960205260409020805460ff19169055565b60025481565b60005b600754811015610be657600060078281548110610b4f57fe5b6000918252602080832090910154604080516310e059a160e11b81523360048201526001600160a01b038881166024830152915191909216945084936321c0b34293604480850194919392918390030190829087803b158015610bb157600080fd5b505af1158015610bc5573d6000803e3d6000fd5b505050506040513d6020811015610bdb57600080fd5b505050600101610b36565b5050565b336000908152600b602052604081205460ff1615610c1557610c0d848484611a07565b506001610c7d565b6000610c5f836040518060600160405280602c8152602001612443602c91396001600160a01b03881660009081526006602090815260408083203384529091529020549190611cbd565b9050610c6c8533836118ab565b610c77858585611a07565b60019150505b9392505050565b60045460408051808201909152601481526000805160206124958339815191526020820152906001600160a01b03163314610d005760405162461bcd60e51b815260206004820181815283516024840152835190928392604490910191908501908083836000831561098757818101518382015260200161096f565b508051610be690600790602084019061229a565b60056020526000908152604090205481565b601281565b336000908152600c6020908152604091829020548251808401909352601c83527f4d696e7461626c6542617365546f6b656e3a20666f7262696464656e000000009183019190915260ff16610dc15760405162461bcd60e51b815260206004820181815283516024840152835190928392604490910191908501908083836000831561098757818101518382015260200161096f565b50610be68282611d17565b60096020526000908152604090205460ff1681565b600b6020526000908152604090205460ff1681565b60078181548110610e0357fe5b6000918252602090912001546001600160a01b0316905081565b600660209081526000928352604080842090915290825290205481565b60045460408051808201909152601481526000805160206124958339815191526020820152906001600160a01b03163314610eb65760405162461bcd60e51b815260206004820181815283516024840152835190928392604490910191908501908083836000831561098757818101518382015260200161096f565b50600a805460ff1916911515919091179055565b6001600160a01b03811660009081526008602052604081205460ff1615610ef357506000610f0e565b506001600160a01b0381166000908152600560205260409020545b919050565b33600090815260096020908152604091829020548251808401909352601483526000805160206124958339815191529183019190915260ff16610f975760405162461bcd60e51b815260206004820181815283516024840152835190928392604490910191908501908083836000831561098757818101518382015260200161096f565b506001600160a01b03811660009081526008602090815260409182902054825160608101909352602280845260ff909116159291612527908301399061101e5760405162461bcd60e51b815260206004820181815283516024840152835190928392604490910191908501908083836000831561098757818101518382015260200161096f565b5061102881611e41565b6001600160a01b0381166000908152600860209081526040808320805460ff191660011790556005909152902054600354611062916117ff565b60035550565b60045460408051808201909152601481526000805160206124958339815191526020820152906001600160a01b031633146110e45760405162461bcd60e51b815260206004820181815283516024840152835190928392604490910191908501908083836000831561098757818101518382015260200161096f565b506001600160a01b03166000908152600960205260409020805460ff19166001179055565b6001600160a01b031660009081526005602052604090205490565b600061113d600354600254611ed790919063ffffffff16565b905090565b60086020526000908152604090205460ff1681565b60018054604080516020600284861615610100026000190190941693909304601f81018490048402820184019092528181529291830182828015610a625780601f10610a3757610100808354040283529160200191610a62565b33600090815260096020908152604091829020548251808401909352601483526000805160206124958339815191529183019190915260ff166112355760405162461bcd60e51b815260206004820181815283516024840152835190928392604490910191908501908083836000831561098757818101518382015260200161096f565b5060005b6007548110156109d75760006007828154811061125257fe5b6000918252602080832090910154604080516310e059a160e11b81526001600160a01b0389811660048301528881166024830152915191909216945084936321c0b34293604480850194919392918390030190829087803b1580156112b657600080fd5b505af11580156112ca573d6000803e3d6000fd5b505050506040513d60208110156112e057600080fd5b505050600101611239565b60045460408051808201909152601481526000805160206124958339815191526020820152906001600160a01b031633146113675760405162461bcd60e51b815260206004820181815283516024840152835190928392604490910191908501908083836000831561098757818101518382015260200161096f565b506001600160a01b03919091166000908152600b60205260409020805460ff1916911515919091179055565b336000908152600c6020908152604091829020548251808401909352601c83527f4d696e7461626c6542617365546f6b656e3a20666f7262696464656e000000009183019190915260ff166114295760405162461bcd60e51b815260206004820181815283516024840152835190928392604490910191908501908083836000831561098757818101518382015260200161096f565b50610be68282611f19565b6000610a77338484611a07565b60045460408051808201909152601481526000805160206124958339815191526020820152906001600160a01b031633146114bd5760405162461bcd60e51b815260206004820181815283516024840152835190928392604490910191908501908083836000831561098757818101518382015260200161096f565b5081516114d19060009060208501906122ff565b5080516109d79060019060208401906122ff565b600c6020526000908152604090205460ff1681565b60408051808201909152600581526405a4b444c560dc1b602082015290565b60035481565b60045460408051808201909152601481526000805160206124958339815191526020820152906001600160a01b0316331461159b5760405162461bcd60e51b815260206004820181815283516024840152835190928392604490910191908501908083836000831561098757818101518382015260200161096f565b506001600160a01b03919091166000908152600c60205260409020805460ff1916911515919091179055565b60045460408051808201909152601481526000805160206124958339815191526020820152906001600160a01b031633146116435760405162461bcd60e51b815260206004820181815283516024840152835190928392604490910191908501908083836000831561098757818101518382015260200161096f565b50600480546001600160a01b0319166001600160a01b0392909216919091179055565b6001600160a01b03918216600090815260066020908152604080832093909416825291909152205490565b600a5460ff1681565b33600090815260096020908152604091829020548251808401909352601483526000805160206124958339815191529183019190915260ff1661171e5760405162461bcd60e51b815260206004820181815283516024840152835190928392604490910191908501908083836000831561098757818101518382015260200161096f565b506001600160a01b038116600090815260086020908152604091829020548251808401909352601e83527f42617365546f6b656e3a205f6163636f756e74206e6f74206d61726b656400009183019190915260ff166117be5760405162461bcd60e51b815260206004820181815283516024840152835190928392604490910191908501908083836000831561098757818101518382015260200161096f565b506117c881611e41565b6001600160a01b0381166000908152600860209081526040808320805460ff19169055600590915290205460035461106291611ed7565b600082820183811015610c7d576040805162461bcd60e51b815260206004820152601b60248201527f536166654d6174683a206164646974696f6e206f766572666c6f770000000000604482015290519081900360640190fd5b604080516001600160a01b038416602482015260448082018490528251808303909101815260649091019091526020810180516001600160e01b031663a9059cbb60e01b1790526109d790849061206a565b60006001600160a01b0316836001600160a01b031614156040518060600160405280602881526020016124b560289139906119275760405162461bcd60e51b815260206004820181815283516024840152835190928392604490910191908501908083836000831561098757818101518382015260200161096f565b5060006001600160a01b0316826001600160a01b0316141560405180606001604052806026815260200161241d60269139906119a45760405162461bcd60e51b815260206004820181815283516024840152835190928392604490910191908501908083836000831561098757818101518382015260200161096f565b506001600160a01b03808416600081815260066020908152604080832094871680845294825291829020859055815185815291517f8c5be1e5ebec7d5bd14f71427d1e84f3dd0314c0f7b2291e5b200ac8c7c3b9259281900390910190a3505050565b60006001600160a01b0316836001600160a01b031614156040518060600160405280602981526020016125be6029913990611a835760405162461bcd60e51b815260206004820181815283516024840152835190928392604490910191908501908083836000831561098757818101518382015260200161096f565b5060006001600160a01b0316826001600160a01b031614156040518060600160405280602781526020016123d36027913990611b005760405162461bcd60e51b815260206004820181815283516024840152835190928392604490910191908501908083836000831561098757818101518382015260200161096f565b50600a5460ff1615611b8a57336000908152600b602090815260409182902054825160608101909352602580845260ff90911692916123ae9083013990611b885760405162461bcd60e51b815260206004820181815283516024840152835190928392604490910191908501908083836000831561098757818101518382015260200161096f565b505b611b9383611e41565b611b9c82611e41565b611bd9816040518060600160405280602a81526020016124dd602a91396001600160a01b0386166000908152600560205260409020549190611cbd565b6001600160a01b038085166000908152600560205260408082209390935590841681522054611c0890826117ff565b6001600160a01b0380841660009081526005602090815260408083209490945591861681526008909152205460ff1615611c4d57600354611c499082611ed7565b6003555b6001600160a01b03821660009081526008602052604090205460ff1615611c7f57600354611c7b90826117ff565b6003555b816001600160a01b0316836001600160a01b0316600080516020612507833981519152836040518082815260200191505060405180910390a3505050565b60008184841115611d0f5760405162461bcd60e51b815260206004820181815283516024840152835190928392604490910191908501908083836000831561098757818101518382015260200161096f565b505050900390565b60006001600160a01b0316826001600160a01b031614156040518060600160405280602381526020016123fa6023913990611d935760405162461bcd60e51b815260206004820181815283516024840152835190928392604490910191908501908083836000831561098757818101518382015260200161096f565b50611d9d82611e41565b600254611daa90826117ff565b6002556001600160a01b038216600090815260056020526040902054611dd090826117ff565b6001600160a01b03831660009081526005602090815260408083209390935560089052205460ff1615611e0e57600354611e0a90826117ff565b6003555b6040805182815290516001600160a01b038416916000916000805160206125078339815191529181900360200190a35050565b60005b600754811015610be657600060078281548110611e5d57fe5b600091825260208220015460408051635fd6196560e01b81526001600160a01b03878116600483015291519190921693508392635fd61965926024808201939182900301818387803b158015611eb257600080fd5b505af1158015611ec6573d6000803e3d6000fd5b505060019093019250611e44915050565b6000610c7d83836040518060400160405280601e81526020017f536166654d6174683a207375627472616374696f6e206f766572666c6f770000815250611cbd565b60006001600160a01b0316826001600160a01b031614156040518060600160405280602581526020016125996025913990611f955760405162461bcd60e51b815260206004820181815283516024840152835190928392604490910191908501908083836000831561098757818101518382015260200161096f565b50611f9f82611e41565b611fdc81604051806060016040528060268152602001612549602691396001600160a01b0385166000908152600560205260409020549190611cbd565b6001600160a01b0383166000908152600560205260409020556002546120029082611ed7565b6002556001600160a01b03821660009081526008602052604090205460ff1615612037576003546120339082611ed7565b6003555b6040805182815290516000916001600160a01b038516916000805160206125078339815191529181900360200190a35050565b60606120bf826040518060400160405280602081526020017f5361666545524332303a206c6f772d6c6576656c2063616c6c206661696c6564815250856001600160a01b031661211b9092919063ffffffff16565b8051909150156109d7578080602001905160208110156120de57600080fd5b50516109d75760405162461bcd60e51b815260040180806020018281038252602a81526020018061256f602a913960400191505060405180910390fd5b606061212a8484600085612132565b949350505050565b6060824710156121735760405162461bcd60e51b815260040180806020018281038252602681526020018061246f6026913960400191505060405180910390fd5b60006060866001600160a01b031685876040518082805190602001908083835b602083106121b25780518252601f199092019160209182019101612193565b6001836020036101000a03801982511681845116808217855250505050505090500191505060006040518083038185875af1925050503d8060008114612214576040519150601f19603f3d011682016040523d82523d6000602084013e612219565b606091505b5091509150612229828286612234565b979650505050505050565b60608315612243575081610c7d565b8251156122535782518084602001fd5b60405162461bcd60e51b815260206004820181815284516024840152845185939192839260440191908501908083836000831561098757818101518382015260200161096f565b8280548282559060005260206000209081019282156122ef579160200282015b828111156122ef57825182546001600160a01b0319166001600160a01b039091161782556020909201916001909101906122ba565b506122fb929150612379565b5090565b828054600181600116156101000203166002900490600052602060002090601f016020900481019282601f1061234057805160ff191683800117855561236d565b8280016001018555821561236d579182015b8281111561236d578251825591602001919060010190612352565b506122fb929150612398565b5b808211156122fb5780546001600160a01b031916815560010161237a565b5b808211156122fb576000815560010161239956fe42617365546f6b656e3a206d73672e73656e646572206e6f742077686974656c697374656442617365546f6b656e3a207472616e7366657220746f20746865207a65726f206164647265737342617365546f6b656e3a206d696e7420746f20746865207a65726f206164647265737342617365546f6b656e3a20617070726f766520746f20746865207a65726f206164647265737342617365546f6b656e3a207472616e7366657220616d6f756e74206578636565647320616c6c6f77616e6365416464726573733a20696e73756666696369656e742062616c616e636520666f722063616c6c42617365546f6b656e3a20666f7262696464656e00000000000000000000000042617365546f6b656e3a20617070726f76652066726f6d20746865207a65726f206164647265737342617365546f6b656e3a207472616e7366657220616d6f756e7420657863656564732062616c616e6365ddf252ad1be2c89b69c2b068fc378daa952ba7f163c4a11628f55a4df523b3ef42617365546f6b656e3a205f6163636f756e7420616c7265616479206d61726b656442617365546f6b656e3a206275726e20616d6f756e7420657863656564732062616c616e63655361666545524332303a204552433230206f7065726174696f6e20646964206e6f74207375636365656442617365546f6b656e3a206275726e2066726f6d20746865207a65726f206164647265737342617365546f6b656e3a207472616e736665722066726f6d20746865207a65726f2061646472657373a2646970667358221220c71491a19c0ee6c515194f6f01a6e28dfa37cca723e5066f03a0cdf2b18491a264736f6c634300060c003342617365546f6b656e3a206d696e7420746f20746865207a65726f2061646472657373",
  "devdoc": {
    "kind": "dev",
    "methods": {},
    "version": 1
  },
  "userdoc": {
    "kind": "user",
    "methods": {},
    "version": 1
  },
  "storageLayout": {
    "storage": [
      {
        "astId": 20102,
        "contract": "contracts/tokens/ZKDLP.sol:ZKDLP",
        "label": "name",
        "offset": 0,
        "slot": "0",
        "type": "t_string_storage"
      },
      {
        "astId": 20104,
        "contract": "contracts/tokens/ZKDLP.sol:ZKDLP",
        "label": "symbol",
        "offset": 0,
        "slot": "1",
        "type": "t_string_storage"
      },
      {
        "astId": 20110,
        "contract": "contracts/tokens/ZKDLP.sol:ZKDLP",
        "label": "totalSupply",
        "offset": 0,
        "slot": "2",
        "type": "t_uint256"
      },
      {
        "astId": 20112,
        "contract": "contracts/tokens/ZKDLP.sol:ZKDLP",
        "label": "nonStakingSupply",
        "offset": 0,
        "slot": "3",
        "type": "t_uint256"
      },
      {
        "astId": 20114,
        "contract": "contracts/tokens/ZKDLP.sol:ZKDLP",
        "label": "gov",
        "offset": 0,
        "slot": "4",
        "type": "t_address"
      },
      {
        "astId": 20118,
        "contract": "contracts/tokens/ZKDLP.sol:ZKDLP",
        "label": "balances",
        "offset": 0,
        "slot": "5",
        "type": "t_mapping(t_address,t_uint256)"
      },
      {
        "astId": 20124,
        "contract": "contracts/tokens/ZKDLP.sol:ZKDLP",
        "label": "allowances",
        "offset": 0,
        "slot": "6",
        "type": "t_mapping(t_address,t_mapping(t_address,t_uint256))"
      },
      {
        "astId": 20127,
        "contract": "contracts/tokens/ZKDLP.sol:ZKDLP",
        "label": "yieldTrackers",
        "offset": 0,
        "slot": "7",
        "type": "t_array(t_address)dyn_storage"
      },
      {
        "astId": 20131,
        "contract": "contracts/tokens/ZKDLP.sol:ZKDLP",
        "label": "nonStakingAccounts",
        "offset": 0,
        "slot": "8",
        "type": "t_mapping(t_address,t_bool)"
      },
      {
        "astId": 20135,
        "contract": "contracts/tokens/ZKDLP.sol:ZKDLP",
        "label": "admins",
        "offset": 0,
        "slot": "9",
        "type": "t_mapping(t_address,t_bool)"
      },
      {
        "astId": 20137,
        "contract": "contracts/tokens/ZKDLP.sol:ZKDLP",
        "label": "inPrivateTransferMode",
        "offset": 0,
        "slot": "10",
        "type": "t_bool"
      },
      {
        "astId": 20141,
        "contract": "contracts/tokens/ZKDLP.sol:ZKDLP",
        "label": "isHandler",
        "offset": 0,
        "slot": "11",
        "type": "t_mapping(t_address,t_bool)"
      },
      {
        "astId": 20943,
        "contract": "contracts/tokens/ZKDLP.sol:ZKDLP",
        "label": "isMinter",
        "offset": 0,
        "slot": "12",
        "type": "t_mapping(t_address,t_bool)"
      }
    ],
    "types": {
      "t_address": {
        "encoding": "inplace",
        "label": "address",
        "numberOfBytes": "20"
      },
      "t_array(t_address)dyn_storage": {
        "base": "t_address",
        "encoding": "dynamic_array",
        "label": "address[]",
        "numberOfBytes": "32"
      },
      "t_bool": {
        "encoding": "inplace",
        "label": "bool",
        "numberOfBytes": "1"
      },
      "t_mapping(t_address,t_bool)": {
        "encoding": "mapping",
        "key": "t_address",
        "label": "mapping(address => bool)",
        "numberOfBytes": "32",
        "value": "t_bool"
      },
      "t_mapping(t_address,t_mapping(t_address,t_uint256))": {
        "encoding": "mapping",
        "key": "t_address",
        "label": "mapping(address => mapping(address => uint256))",
        "numberOfBytes": "32",
        "value": "t_mapping(t_address,t_uint256)"
      },
      "t_mapping(t_address,t_uint256)": {
        "encoding": "mapping",
        "key": "t_address",
        "label": "mapping(address => uint256)",
        "numberOfBytes": "32",
        "value": "t_uint256"
      },
      "t_string_storage": {
        "encoding": "bytes",
        "label": "string",
        "numberOfBytes": "32"
      },
      "t_uint256": {
        "encoding": "inplace",
        "label": "uint256",
        "numberOfBytes": "32"
      }
    }
  }
}