{
  "address": "0x866D91fAC7EeA8d762116173eC9Dd536EC3D705E",
  "abi": [
    {
      "inputs": [
        {
          "internalType": "address",
          "name": "_vault",
          "type": "address"
        },
        {
          "internalType": "address",
          "name": "_router",
          "type": "address"
        },
        {
          "internalType": "address",
          "name": "_shortsTracker",
          "type": "address"
        },
        {
          "internalType": "address",
          "name": "_weth",
          "type": "address"
        },
        {
          "internalType": "uint256",
          "name": "_depositFee",
          "type": "uint256"
        },
        {
          "internalType": "address",
          "name": "_orderBook",
          "type": "address"
        }
      ],
      "stateMutability": "nonpayable",
      "type": "constructor"
    },
    {
      "inputs": [],
      "name": "BASIS_POINTS_DIVISOR",
      "outputs": [
        {
          "internalType": "uint256",
          "name": "",
          "type": "uint256"
        }
      ],
      "stateMutability": "view",
      "type": "function"
    },
    {
      "inputs": [],
      "name": "admin",
      "outputs": [
        {
          "internalType": "address",
          "name": "",
          "type": "address"
        }
      ],
      "stateMutability": "view",
      "type": "function"
    },
    {
      "inputs": [
        {
          "internalType": "address",
          "name": "_token",
          "type": "address"
        },
        {
          "internalType": "address",
          "name": "_spender",
          "type": "address"
        },
        {
          "internalType": "uint256",
          "name": "_amount",
          "type": "uint256"
        }
      ],
      "name": "approve",
      "outputs": [],
      "stateMutability": "nonpayable",
      "type": "function"
    },
    {
      "inputs": [
        {
          "internalType": "address[]",
          "name": "_path",
          "type": "address[]"
        },
        {
          "internalType": "address",
          "name": "_indexToken",
          "type": "address"
        },
        {
          "internalType": "uint256",
          "name": "_collateralDelta",
          "type": "uint256"
        },
        {
          "internalType": "uint256",
          "name": "_sizeDelta",
          "type": "uint256"
        },
        {
          "internalType": "bool",
          "name": "_isLong",
          "type": "bool"
        },
        {
          "internalType": "address",
          "name": "_receiver",
          "type": "address"
        },
        {
          "internalType": "uint256",
          "name": "_price",
          "type": "uint256"
        },
        {
          "internalType": "uint256",
          "name": "_minOut",
          "type": "uint256"
        },
        {
          "internalType": "bool",
          "name": "_withdrawETH",
          "type": "bool"
        },
        {
          "internalType": "bytes[]",
          "name": "_updateData",
          "type": "bytes[]"
        }
      ],
      "name": "decreasePosition",
      "outputs": [],
      "stateMutability": "payable",
      "type": "function"
    },
    {
      "inputs": [],
      "name": "depositFee",
      "outputs": [
        {
          "internalType": "uint256",
          "name": "",
          "type": "uint256"
        }
      ],
      "stateMutability": "view",
      "type": "function"
    },
    {
      "inputs": [
        {
          "internalType": "address",
          "name": "_account",
          "type": "address"
        },
        {
          "internalType": "uint256",
          "name": "_orderIndex",
          "type": "uint256"
        },
        {
          "internalType": "address payable",
          "name": "_feeReceiver",
          "type": "address"
        },
        {
          "internalType": "bytes[]",
          "name": "_updateData",
          "type": "bytes[]"
        }
      ],
      "name": "executeDecreaseOrder",
      "outputs": [],
      "stateMutability": "payable",
      "type": "function"
    },
    {
      "inputs": [
        {
          "internalType": "address",
          "name": "_account",
          "type": "address"
        },
        {
          "internalType": "uint256",
          "name": "_orderIndex",
          "type": "uint256"
        },
        {
          "internalType": "address payable",
          "name": "_feeReceiver",
          "type": "address"
        },
        {
          "internalType": "bytes[]",
          "name": "_updateData",
          "type": "bytes[]"
        }
      ],
      "name": "executeIncreaseOrder",
      "outputs": [],
      "stateMutability": "payable",
      "type": "function"
    },
    {
      "inputs": [
        {
          "internalType": "address",
          "name": "",
          "type": "address"
        }
      ],
      "name": "feeReserves",
      "outputs": [
        {
          "internalType": "uint256",
          "name": "",
          "type": "uint256"
        }
      ],
      "stateMutability": "view",
      "type": "function"
    },
    {
      "inputs": [],
      "name": "gov",
      "outputs": [
        {
          "internalType": "address",
          "name": "",
          "type": "address"
        }
      ],
      "stateMutability": "view",
      "type": "function"
    },
    {
      "inputs": [
        {
          "internalType": "address[]",
          "name": "_path",
          "type": "address[]"
        },
        {
          "internalType": "address",
          "name": "_indexToken",
          "type": "address"
        },
        {
          "internalType": "uint256",
          "name": "_amountIn",
          "type": "uint256"
        },
        {
          "internalType": "uint256",
          "name": "_minOut",
          "type": "uint256"
        },
        {
          "internalType": "uint256",
          "name": "_sizeDelta",
          "type": "uint256"
        },
        {
          "internalType": "bool",
          "name": "_isLong",
          "type": "bool"
        },
        {
          "internalType": "uint256",
          "name": "_price",
          "type": "uint256"
        },
        {
          "internalType": "bytes[]",
          "name": "_updateData",
          "type": "bytes[]"
        }
      ],
      "name": "increasePosition",
      "outputs": [],
      "stateMutability": "payable",
      "type": "function"
    },
    {
      "inputs": [],
      "name": "increasePositionBufferBps",
      "outputs": [
        {
          "internalType": "uint256",
          "name": "",
          "type": "uint256"
        }
      ],
      "stateMutability": "view",
      "type": "function"
    },
    {
      "inputs": [
        {
          "internalType": "address[]",
          "name": "_path",
          "type": "address[]"
        },
        {
          "internalType": "address",
          "name": "_indexToken",
          "type": "address"
        },
        {
          "internalType": "uint256",
          "name": "_minOut",
          "type": "uint256"
        },
        {
          "internalType": "uint256",
          "name": "_sizeDelta",
          "type": "uint256"
        },
        {
          "internalType": "bool",
          "name": "_isLong",
          "type": "bool"
        },
        {
          "internalType": "uint256",
          "name": "_price",
          "type": "uint256"
        },
        {
          "internalType": "bytes[]",
          "name": "_updateData",
          "type": "bytes[]"
        }
      ],
      "name": "increasePositionETH",
      "outputs": [],
      "stateMutability": "payable",
      "type": "function"
    },
    {
      "inputs": [
        {
          "internalType": "address",
          "name": "",
          "type": "address"
        }
      ],
      "name": "isLiquidator",
      "outputs": [
        {
          "internalType": "bool",
          "name": "",
          "type": "bool"
        }
      ],
      "stateMutability": "view",
      "type": "function"
    },
    {
      "inputs": [
        {
          "internalType": "address",
          "name": "",
          "type": "address"
        }
      ],
      "name": "isOrderKeeper",
      "outputs": [
        {
          "internalType": "bool",
          "name": "",
          "type": "bool"
        }
      ],
      "stateMutability": "view",
      "type": "function"
    },
    {
      "inputs": [
        {
          "internalType": "address",
          "name": "",
          "type": "address"
        }
      ],
      "name": "isPartner",
      "outputs": [
        {
          "internalType": "bool",
          "name": "",
          "type": "bool"
        }
      ],
      "stateMutability": "view",
      "type": "function"
    },
    {
      "inputs": [
        {
          "internalType": "address",
          "name": "_account",
          "type": "address"
        },
        {
          "internalType": "address",
          "name": "_collateralToken",
          "type": "address"
        },
        {
          "internalType": "address",
          "name": "_indexToken",
          "type": "address"
        },
        {
          "internalType": "bool",
          "name": "_isLong",
          "type": "bool"
        },
        {
          "internalType": "address payable",
          "name": "_feeReceiver",
          "type": "address"
        },
        {
          "internalType": "bytes[]",
          "name": "_updateData",
          "type": "bytes[]"
        }
      ],
      "name": "liquidatePosition",
      "outputs": [],
      "stateMutability": "payable",
      "type": "function"
    },
    {
      "inputs": [
        {
          "internalType": "bytes32",
          "name": "",
          "type": "bytes32"
        }
      ],
      "name": "liquidationFees",
      "outputs": [
        {
          "internalType": "uint256",
          "name": "",
          "type": "uint256"
        }
      ],
      "stateMutability": "view",
      "type": "function"
    },
    {
      "inputs": [
        {
          "internalType": "address",
          "name": "",
          "type": "address"
        }
      ],
      "name": "maxGlobalLongSizes",
      "outputs": [
        {
          "internalType": "uint256",
          "name": "",
          "type": "uint256"
        }
      ],
      "stateMutability": "view",
      "type": "function"
    },
    {
      "inputs": [
        {
          "internalType": "address",
          "name": "",
          "type": "address"
        }
      ],
      "name": "maxGlobalShortSizes",
      "outputs": [
        {
          "internalType": "uint256",
          "name": "",
          "type": "uint256"
        }
      ],
      "stateMutability": "view",
      "type": "function"
    },
    {
      "inputs": [],
      "name": "minLiquidationFee",
      "outputs": [
        {
          "internalType": "uint256",
          "name": "",
          "type": "uint256"
        }
      ],
      "stateMutability": "view",
      "type": "function"
    },
    {
      "inputs": [],
      "name": "opened",
      "outputs": [
        {
          "internalType": "bool",
          "name": "",
          "type": "bool"
        }
      ],
      "stateMutability": "view",
      "type": "function"
    },
    {
      "inputs": [],
      "name": "orderBook",
      "outputs": [
        {
          "internalType": "address",
          "name": "",
          "type": "address"
        }
      ],
      "stateMutability": "view",
      "type": "function"
    },
    {
      "inputs": [],
      "name": "router",
      "outputs": [
        {
          "internalType": "address",
          "name": "",
          "type": "address"
        }
      ],
      "stateMutability": "view",
      "type": "function"
    },
    {
      "inputs": [
        {
          "internalType": "address payable",
          "name": "_receiver",
          "type": "address"
        },
        {
          "internalType": "uint256",
          "name": "_amount",
          "type": "uint256"
        }
      ],
      "name": "sendValue",
      "outputs": [],
      "stateMutability": "nonpayable",
      "type": "function"
    },
    {
      "inputs": [
        {
          "internalType": "address",
          "name": "_admin",
          "type": "address"
        }
      ],
      "name": "setAdmin",
      "outputs": [],
      "stateMutability": "nonpayable",
      "type": "function"
    },
    {
      "inputs": [
        {
          "internalType": "uint256",
          "name": "_depositFee",
          "type": "uint256"
        }
      ],
      "name": "setDepositFee",
      "outputs": [],
      "stateMutability": "nonpayable",
      "type": "function"
    },
    {
      "inputs": [
        {
          "internalType": "address",
          "name": "_gov",
          "type": "address"
        }
      ],
      "name": "setGov",
      "outputs": [],
      "stateMutability": "nonpayable",
      "type": "function"
    },
    {
      "inputs": [
        {
          "internalType": "uint256",
          "name": "_increasePositionBufferBps",
          "type": "uint256"
        }
      ],
      "name": "setIncreasePositionBufferBps",
      "outputs": [],
      "stateMutability": "nonpayable",
      "type": "function"
    },
    {
      "inputs": [
        {
          "internalType": "address",
          "name": "_account",
          "type": "address"
        },
        {
          "internalType": "bool",
          "name": "_isActive",
          "type": "bool"
        }
      ],
      "name": "setLiquidator",
      "outputs": [],
      "stateMutability": "nonpayable",
      "type": "function"
    },
    {
      "inputs": [
        {
          "internalType": "address[]",
          "name": "_tokens",
          "type": "address[]"
        },
        {
          "internalType": "uint256[]",
          "name": "_longSizes",
          "type": "uint256[]"
        },
        {
          "internalType": "uint256[]",
          "name": "_shortSizes",
          "type": "uint256[]"
        }
      ],
      "name": "setMaxGlobalSizes",
      "outputs": [],
      "stateMutability": "nonpayable",
      "type": "function"
    },
    {
      "inputs": [
        {
          "internalType": "uint256",
          "name": "_minLiquidateFee",
          "type": "uint256"
        }
      ],
      "name": "setMinLiquidationFee",
      "outputs": [],
      "stateMutability": "nonpayable",
      "type": "function"
    },
    {
      "inputs": [
        {
          "internalType": "bool",
          "name": "_opened",
          "type": "bool"
        }
      ],
      "name": "setOpened",
      "outputs": [],
      "stateMutability": "nonpayable",
      "type": "function"
    },
    {
      "inputs": [
        {
          "internalType": "address",
          "name": "_orderBook",
          "type": "address"
        }
      ],
      "name": "setOrderBook",
      "outputs": [],
      "stateMutability": "nonpayable",
      "type": "function"
    },
    {
      "inputs": [
        {
          "internalType": "address",
          "name": "_account",
          "type": "address"
        },
        {
          "internalType": "bool",
          "name": "_isActive",
          "type": "bool"
        }
      ],
      "name": "setOrderKeeper",
      "outputs": [],
      "stateMutability": "nonpayable",
      "type": "function"
    },
    {
      "inputs": [
        {
          "internalType": "address",
          "name": "_account",
          "type": "address"
        },
        {
          "internalType": "bool",
          "name": "_isActive",
          "type": "bool"
        }
      ],
      "name": "setPartner",
      "outputs": [],
      "stateMutability": "nonpayable",
      "type": "function"
    },
    {
      "inputs": [
        {
          "internalType": "bool",
          "name": "_shouldValidateIncreaseOrder",
          "type": "bool"
        }
      ],
      "name": "setShouldValidateIncreaseOrder",
      "outputs": [],
      "stateMutability": "nonpayable",
      "type": "function"
    },
    {
      "inputs": [],
      "name": "shortsTracker",
      "outputs": [
        {
          "internalType": "address",
          "name": "",
          "type": "address"
        }
      ],
      "stateMutability": "view",
      "type": "function"
    },
    {
      "inputs": [],
      "name": "shouldValidateIncreaseOrder",
      "outputs": [
        {
          "internalType": "bool",
          "name": "",
          "type": "bool"
        }
      ],
      "stateMutability": "view",
      "type": "function"
    },
    {
      "inputs": [],
      "name": "vault",
      "outputs": [
        {
          "internalType": "address",
          "name": "",
          "type": "address"
        }
      ],
      "stateMutability": "view",
      "type": "function"
    },
    {
      "inputs": [],
      "name": "weth",
      "outputs": [
        {
          "internalType": "address",
          "name": "",
          "type": "address"
        }
      ],
      "stateMutability": "view",
      "type": "function"
    },
    {
      "inputs": [
        {
          "internalType": "address",
          "name": "_token",
          "type": "address"
        },
        {
          "internalType": "address",
          "name": "_receiver",
          "type": "address"
        }
      ],
      "name": "withdrawFees",
      "outputs": [],
      "stateMutability": "nonpayable",
      "type": "function"
    },
    {
      "stateMutability": "payable",
      "type": "receive"
    }
  ],
  "transactionHash": "0x52877690d7ca89e3a509590dd5018be4366f5fbfcbba6b9c7ddc33a3ca373fcb",
  "args": [
    "0x2ef4ad8fd5eC0eDea26bC0f76A65d434713b016a",
    "0xc9470c7aAB7e2FcFD65ff0B2890a0d60856D234b",
    "0xfAcAC6FeB134aCd6960CEf44265e1aCdd8EcE067",
    "0x6ae6634c37D519b4B56c167F44dBfb7c91a71e57",
    50,
    "0x068631b69e0e1B4877a14dCecf7A2f97c2685717"
  ],
  "numDeployments": 1,
  "solcInputHash": "45f986e69ef0b1c3adec9bb2994aea31",
  "bytecode": "0x60806040526002805461ff001960ff199091166001171661010017905560646007553480156200002e57600080fd5b5060405162004d8838038062004d88833981016040819052620000519162000116565b600080546001600160a01b03199081163390811790925560018055600980546001600160a01b03998a169083168117909155600b8054988a1698831698909817909755600c805495891695821695909517909455600692909255600a8054948716948416949094179093556008805483169091179055601280549091169092179091556002805491909216620100000262010000600160b01b031990911617905562000192565b80516001600160a01b03811681146200011057600080fd5b92915050565b60008060008060008060c087890312156200012f578182fd5b6200013b8888620000f8565b95506200014c8860208901620000f8565b94506200015d8860408901620000f8565b93506200016e8860608901620000f8565b925060808701519150620001868860a08901620000f8565b90509295509295509295565b614be680620001a26000396000f3fe60806040526004361061024a5760003560e01c8063657bc5d011610139578063b0007cf0116100b6578063e85581731161007a578063e85581731461067d578063ef12c67e1461069d578063f2555278146106bd578063f851a440146106dd578063f887ea40146106f2578063fbfa77cf14610707576102a2565b8063b0007cf014610604578063c0eefef414610617578063cfad57a21461062a578063e1f21c671461064a578063e3b462681461066a576102a2565b80639698d25a116100fd5780639698d25a1461057c57806398d1e03a1461059c5780639a0a18bf146105b15780639a1598c8146105d1578063acb092d2146105f1576102a2565b8063657bc5d0146104fd57806367a5279314610512578063704b6c0214610527578063776af5ba146105475780638c0f9aac1461055c576102a2565b80632e931cea116101c7578063490ae2101161018b578063490ae21014610473578063529a356f1461049357806358e707f8146104b35780635f88eade146104d357806360a6d82a146104e8576102a2565b80632e931cea146103e95780633833f5f5146103fc5780633fc8cef3146104295780634453a3741461043e5780634584bd4b1461045e576102a2565b80631ce9cb8f1161020e5780631ce9cb8f146103495780631e2615381461036957806321acf65914610389578063233bfe3b146103a957806324a084df146103c9576102a2565b806305737a24146102a75780631045c74e146102bc578063126082cf146102f257806312d43a51146103075780631b90435914610329576102a2565b366102a257600c54604080516060810190915260238082526001600160a01b03909216331491614b6960208301399061029f5760405162461bcd60e51b8152600401610296919061465a565b60405180910390fd5b50005b600080fd5b6102ba6102b5366004613da7565b61071c565b005b3480156102c857600080fd5b506102dc6102d7366004613c01565b610b53565b6040516102e99190614944565b60405180910390f35b3480156102fe57600080fd5b506102dc610b65565b34801561031357600080fd5b5061031c610b6b565b6040516102e99190614363565b34801561033557600080fd5b506102ba6103443660046141fa565b610b7a565b34801561035557600080fd5b506102dc610364366004613c01565b610bf2565b34801561037557600080fd5b506102ba610384366004613d7a565b610c04565b34801561039557600080fd5b506102ba6103a4366004613d7a565b610c8e565b3480156103b557600080fd5b506102ba6103c436600461425f565b610d1a565b3480156103d557600080fd5b506102ba6103e4366004613c39565b610d79565b6102ba6103f7366004613f39565b610dba565b34801561040857600080fd5b5061041c610417366004613c01565b610f6f565b6040516102e9919061464f565b34801561043557600080fd5b5061031c610f84565b34801561044a57600080fd5b506102ba610459366004613d7a565b610f93565b34801561046a57600080fd5b5061041c611011565b34801561047f57600080fd5b506102ba61048e36600461425f565b61101f565b34801561049f57600080fd5b5061041c6104ae366004613c01565b61107e565b3480156104bf57600080fd5b506102ba6104ce36600461425f565b611093565b3480156104df57600080fd5b5061041c6110c2565b3480156104f457600080fd5b506102dc6110cb565b34801561050957600080fd5b5061031c6110d1565b34801561051e57600080fd5b506102dc6110e0565b34801561053357600080fd5b506102ba610542366004613c01565b6110e6565b34801561055357600080fd5b5061031c61115b565b34801561056857600080fd5b5061041c610577366004613c01565b611170565b34801561058857600080fd5b506102dc610597366004613c01565b611185565b3480156105a857600080fd5b506102dc611197565b3480156105bd57600080fd5b506102ba6105cc3660046141fa565b61119d565b3480156105dd57600080fd5b506102ba6105ec366004613c01565b611205565b6102ba6105ff366004614012565b611259565b6102ba610612366004613da7565b6114a3565b6102ba610625366004613c9c565b611831565b34801561063657600080fd5b506102ba610645366004613c01565b611c99565b34801561065657600080fd5b506102ba610665366004613d3a565b611ce5565b6102ba6106783660046140be565b611d95565b34801561068957600080fd5b506102dc61069836600461425f565b612032565b3480156106a957600080fd5b506102ba6106b8366004614177565b612044565b3480156106c957600080fd5b506102ba6106d8366004613c64565b61214a565b3480156106e957600080fd5b5061031c6121ef565b3480156106fe57600080fd5b5061031c6121fe565b34801561071357600080fd5b5061031c61220d565b33600090815260036020908152604091829020548251808401909352601a8352600080516020614b208339815191529183019190915260ff166107725760405162461bcd60e51b8152600401610296919061465a565b5061077d828261221c565b506107888585612394565b600954604080516312d43a5160e01b815290516001600160a01b039092169160009183916312d43a5191600480820192602092909190829003018186803b1580156107d257600080fd5b505afa1580156107e6573d6000803e3d6000fd5b505050506040513d601f19601f8201168201806040525081019061080a9190613c1d565b60025460405163d3bab1d160e01b81529192506000918291829182916201000090046001600160a01b03169063d3bab1d19061084c908e908e90600401614513565b6101206040518083038186803b15801561086557600080fd5b505afa158015610879573d6000803e3d6000fd5b505050506040513d601f19601f8201168201806040525081019061089d9190613e17565b50505095509550955095505050600081610932576040516340d3096b60e11b81526001600160a01b038816906381a612d6906108dd908790600401614363565b60206040518083038186803b1580156108f557600080fd5b505afa158015610909573d6000803e3d6000fd5b505050506040513d601f19601f8201168201806040525081019061092d9190614277565b6109ae565b604051637092736960e11b81526001600160a01b0388169063e124e6d29061095e908790600401614363565b60206040518083038186803b15801561097657600080fd5b505afa15801561098a573d6000803e3d6000fd5b505050506040513d601f19601f820116820180604052508101906109ae9190614277565b600a54604051633cc8e33b60e21b81529192506001600160a01b03169063f3238cec906109ec908f908990899088908a908990600190600401614420565b600060405180830381600087803b158015610a0657600080fd5b505af1158015610a1a573d6000803e3d6000fd5b50506040516306d63c1d60e41b81526001600160a01b0389169250636d63c1d09150610a4a908a90600401614363565b600060405180830381600087803b158015610a6457600080fd5b505af1158015610a78573d6000803e3d6000fd5b505060025460405163d38ab51960e01b8152620100009091046001600160a01b0316925063d38ab5199150610ab5908f908f908f9060040161452c565b600060405180830381600087803b158015610acf57600080fd5b505af1158015610ae3573d6000803e3d6000fd5b505060405163d3c87bbb60e01b81526001600160a01b038916925063d3c87bbb9150610b13908a90600401614363565b600060405180830381600087803b158015610b2d57600080fd5b505af1158015610b41573d6000803e3d6000fd5b50505050505050505050505050505050565b600d6020526000908152604090205481565b61271081565b6000546001600160a01b031681565b6008546001600160a01b03163314610ba45760405162461bcd60e51b81526004016102969061488c565b6002805461ff001916610100831515021790556040517fa956222e37fe025ff51e5440ac729a9bd417ff91e485e14dcffa2c0ba8894f4090610be790839061464f565b60405180910390a150565b600f6020526000908152604090205481565b6008546001600160a01b03163314610c2e5760405162461bcd60e51b81526004016102969061488c565b6001600160a01b03821660008181526003602052604090819020805460ff1916841515179055517f1d5bc0255b943d6a5b5279e8a55d74d620baccbceecb25e87a3558f14c4c118e90610c8290849061464f565b60405180910390a25050565b6008546001600160a01b03163314610cb85760405162461bcd60e51b81526004016102969061488c565b6001600160a01b03821660009081526004602052604090819020805460ff1916831515179055517fa4e46c70ff429a91de7d1716d736e877c7cca1c22ac850b23d242530dd95e47490610d0e90849084906144f8565b60405180910390a15050565b6008546001600160a01b03163314610d445760405162461bcd60e51b81526004016102969061488c565b60078190556040517f21167d0d4661af93817ebce920f18986eed3d75d5e1c03f2aed05efcbafbc45290610be7908390614944565b6000546001600160a01b03163314610da35760405162461bcd60e51b8152600401610296906147d5565b610db66001600160a01b0383168261263b565b5050565b60026001541415610ddd5760405162461bcd60e51b81526004016102969061490d565b60026001553360009081526004602052604090205460ff1680610e02575060025460ff165b6040518060400160405280601a8152602001600080516020614b2083398151915281525090610e445760405162461bcd60e51b8152600401610296919061465a565b50610e4f828261221c565b508a5160011480610e6157508a516002145b604051806060016040528060258152602001614b8c6025913990610e985760405162461bcd60e51b8152600401610296919061465a565b508215610f2857600c548b516001600160a01b03909116908c906000198101908110610ec057fe5b60200260200101516001600160a01b0316146040518060400160405280601e81526020017f506f736974696f6e4d616e616765723a20696e76616c6964205f70617468000081525090610f265760405162461bcd60e51b8152600401610296919061465a565b505b6000610f4e338d600081518110610f3b57fe5b60200260200101518d8d8d8d308d6126dc565b9050610f5d818d898888612ac8565b50506001805550505050505050505050565b60036020526000908152604090205460ff1681565b600c546001600160a01b031681565b6008546001600160a01b03163314610fbd5760405162461bcd60e51b81526004016102969061488c565b6001600160a01b03821660008181526005602052604090819020805460ff1916841515179055517f8c0d56805c3b43d441481229dc64bee168253ffe4305f37ab7cfe63b1c4268c690610c8290849061464f565b600254610100900460ff1681565b6008546001600160a01b031633146110495760405162461bcd60e51b81526004016102969061488c565b60068190556040517f974fd3c1fcb4653dfc4fb740c4c692cd212d55c28f163f310128cb64d830067590610be7908390614944565b60056020526000908152604090205460ff1681565b6008546001600160a01b031633146110bd5760405162461bcd60e51b81526004016102969061488c565b601055565b60025460ff1681565b60105481565b600a546001600160a01b031681565b60065481565b6000546001600160a01b031633146111105760405162461bcd60e51b8152600401610296906147d5565b600880546001600160a01b0319166001600160a01b0383161790556040517f5a272403b402d892977df56625f4164ccaf70ca3863991c43ecfe76a6905b0a190610be7908390614363565b6002546201000090046001600160a01b031681565b60046020526000908152604090205460ff1681565b600e6020526000908152604090205481565b60075481565b6008546001600160a01b031633146111c75760405162461bcd60e51b81526004016102969061488c565b6002805460ff19168215151790556040517fb396a770d36909ca07c2b7d7d408f43c9bb74425c5d17caf44336c4f09c4209490610be790839061464f565b6008546001600160a01b0316331461122f5760405162461bcd60e51b81526004016102969061488c565b600280546001600160a01b03909216620100000262010000600160b01b0319909216919091179055565b6002600154141561127c5760405162461bcd60e51b81526004016102969061490d565b60026001553360009081526004602052604090205460ff16806112a1575060025460ff165b6040518060400160405280601a8152602001600080516020614b20833981519152815250906112e35760405162461bcd60e51b8152600401610296919061465a565b5060006112f0838361221c565b9050885160011480611303575088516002145b604051806060016040528060258152602001614b8c602591399061133a5760405162461bcd60e51b8152600401610296919061465a565b50600c5489516001600160a01b03909116908a9060009061135757fe5b60200260200101516001600160a01b0316146040518060400160405280601e81526020017f506f736974696f6e4d616e616765723a20696e76616c6964205f706174680000815250906113bd5760405162461bcd60e51b8152600401610296919061465a565b5060006113ca3483612b37565b9050801561146e576113db81612b80565b60018a51111561141057600954600c54611402916001600160a01b03918216911683612bec565b61140d8a8930612c42565b90505b6000611420338c848d8b8d612cbb565b905061146c600960009054906101000a90046001600160a01b0316828d60018f51038151811061144c57fe5b60200260200101516001600160a01b0316612bec9092919063ffffffff16565b505b611493338b60018d51038151811061148257fe5b60200260200101518b8a8a8a612d94565b5050600180555050505050505050565b33600090815260036020908152604091829020548251808401909352601a8352600080516020614b208339815191529183019190915260ff166114f95760405162461bcd60e51b8152600401610296919061465a565b50611504828261221c565b50600954604080516312d43a5160e01b815290516001600160a01b039092169160009183916312d43a5191600480820192602092909190829003018186803b15801561154f57600080fd5b505afa158015611563573d6000803e3d6000fd5b505050506040513d601f19601f820116820180604052508101906115879190613c1d565b600254604051630130197760e11b81529192506000918291829182916201000090046001600160a01b03169063026032ee906115c9908e908e90600401614513565b6101006040518083038186803b1580156115e257600080fd5b505afa1580156115f6573d6000803e3d6000fd5b505050506040513d601f19601f8201168201806040525081019061161a9190613eb2565b5050509450945094505093506000816116ae57604051637092736960e11b81526001600160a01b0388169063e124e6d290611659908790600401614363565b60206040518083038186803b15801561167157600080fd5b505afa158015611685573d6000803e3d6000fd5b505050506040513d601f19601f820116820180604052508101906116a99190614277565b61172a565b6040516340d3096b60e11b81526001600160a01b038816906381a612d6906116da908790600401614363565b60206040518083038186803b1580156116f257600080fd5b505afa158015611706573d6000803e3d6000fd5b505050506040513d601f19601f8201168201806040525081019061172a9190614277565b600a54604051633cc8e33b60e21b81529192506001600160a01b03169063f3238cec90611768908f908990899088908a908990600090600401614420565b600060405180830381600087803b15801561178257600080fd5b505af1158015611796573d6000803e3d6000fd5b50506040516306d63c1d60e41b81526001600160a01b0389169250636d63c1d091506117c6908a90600401614363565b600060405180830381600087803b1580156117e057600080fd5b505af11580156117f4573d6000803e3d6000fd5b50506002546040516308eca22560e11b8152620100009091046001600160a01b031692506311d9444a9150610ab5908f908f908f9060040161452c565b600260015414156118545760405162461bcd60e51b81526004016102969061490d565b60026001553360009081526005602052604090205460ff168061187f5750336001600160a01b038816145b6040518060400160405280601a8152602001600080516020614b20833981519152815250906118c15760405162461bcd60e51b8152600401610296919061465a565b506118cc828261221c565b50600954604080516312d43a5160e01b815290516001600160a01b039092169160009183916312d43a5191600480820192602092909190829003018186803b15801561191757600080fd5b505afa15801561192b573d6000803e3d6000fd5b505050506040513d601f19601f8201168201806040525081019061194f9190613c1d565b600954604051634a3f088d60e01b81529192506000916001600160a01b0390911690634a3f088d9061198b908d908d908d908d906004016143c4565b6101006040518083038186803b1580156119a457600080fd5b505afa1580156119b8573d6000803e3d6000fd5b505050506040513d601f19601f820116820180604052508101906119dc919061428f565b505050505050509050600087611a6d57604051637092736960e11b81526001600160a01b0385169063e124e6d290611a18908c90600401614363565b60206040518083038186803b158015611a3057600080fd5b505afa158015611a44573d6000803e3d6000fd5b505050506040513d601f19601f82011682018060405250810190611a689190614277565b611ae9565b6040516340d3096b60e11b81526001600160a01b038516906381a612d690611a99908c90600401614363565b60206040518083038186803b158015611ab157600080fd5b505afa158015611ac5573d6000803e3d6000fd5b505050506040513d601f19601f82011682018060405250810190611ae99190614277565b600a54604051633cc8e33b60e21b81529192506001600160a01b03169063f3238cec90611b27908e908e908e908e9089908990600090600401614420565b600060405180830381600087803b158015611b4157600080fd5b505af1158015611b55573d6000803e3d6000fd5b50506040516306d63c1d60e41b81526001600160a01b0386169250636d63c1d09150611b85908790600401614363565b600060405180830381600087803b158015611b9f57600080fd5b505af1158015611bb3573d6000803e3d6000fd5b5050604051631bc5d52960e31b81526001600160a01b038716925063de2ea9489150611beb908e908e908e908e908e906004016143ee565b600060405180830381600087803b158015611c0557600080fd5b505af1158015611c19573d6000803e3d6000fd5b505060405163d3c87bbb60e01b81526001600160a01b038616925063d3c87bbb9150611c49908790600401614363565b600060405180830381600087803b158015611c6357600080fd5b505af1158015611c77573d6000803e3d6000fd5b50505050611c888b8b8b8b8b613149565b505060018055505050505050505050565b6000546001600160a01b03163314611cc35760405162461bcd60e51b8152600401610296906147d5565b600080546001600160a01b0319166001600160a01b0392909216919091179055565b6000546001600160a01b03163314611d0f5760405162461bcd60e51b8152600401610296906147d5565b60405163095ea7b360e01b81526001600160a01b0384169063095ea7b390611d3d9085908590600401614513565b602060405180830381600087803b158015611d5757600080fd5b505af1158015611d6b573d6000803e3d6000fd5b505050506040513d601f19601f82011682018060405250810190611d8f9190614216565b50505050565b60026001541415611db85760405162461bcd60e51b81526004016102969061490d565b60026001553360009081526004602052604090205460ff1680611ddd575060025460ff165b6040518060400160405280601a8152602001600080516020614b2083398151915281525090611e1f5760405162461bcd60e51b8152600401610296919061465a565b506000611e2c838361221c565b9050611e52338b60018d510381518110611e4257fe5b60200260200101518b888561321d565b895160011480611e63575089516002145b604051806060016040528060258152602001614b8c6025913990611e9a5760405162461bcd60e51b8152600401610296919061465a565b50871561200d57895160011415611f2e57600b548a516001600160a01b0390911690631b827878908c90600090611ecd57fe5b602002602001015133308c6040518563ffffffff1660e01b8152600401611ef79493929190614377565b600060405180830381600087803b158015611f1157600080fd5b505af1158015611f25573d6000803e3d6000fd5b50505050611fcf565b600b548a516001600160a01b0390911690631b827878908c90600090611f5057fe5b602002602001015133600960009054906101000a90046001600160a01b03168c6040518563ffffffff1660e01b8152600401611f8f9493929190614377565b600060405180830381600087803b158015611fa957600080fd5b505af1158015611fbd573d6000803e3d6000fd5b50505050611fcc8a8830612c42565b97505b6000611fdf338c8b8d8a8c612cbb565b905061200b600960009054906101000a90046001600160a01b0316828d60018f51038151811061144c57fe5b505b611493338b60018d51038151811061202157fe5b60200260200101518b898989612d94565b60116020526000908152604090205481565b6008546001600160a01b0316331461206e5760405162461bcd60e51b81526004016102969061488c565b60005b835181101561210957600084828151811061208857fe5b6020026020010151905083828151811061209e57fe5b6020026020010151600d6000836001600160a01b03166001600160a01b03168152602001908152602001600020819055508282815181106120db57fe5b6020908102919091018101516001600160a01b039092166000908152600e9091526040902055600101612071565b507fae32d569b058895b9620d6552b09aaffedc9a6f396be4d595a224ad09f8b213983838360405161213d9392919061454f565b60405180910390a1505050565b6008546001600160a01b031633146121745760405162461bcd60e51b81526004016102969061488c565b6001600160a01b0382166000908152600f6020526040902054806121985750610db6565b6001600160a01b0383166000818152600f60205260408120556121bc908383612bec565b7f4f1b51dd7a2fcb861aa2670f668be66835c4ee12b4bbbf037e4d0018f39819e483838360405161213d939291906144d4565b6008546001600160a01b031681565b600b546001600160a01b031681565b6009546001600160a01b031681565b60008161222b5750600061238e565b60125460408051633a0df78d60e11b815290516000926001600160a01b03169163741bef1a916004808301926020929190829003018186803b15801561227057600080fd5b505afa158015612284573d6000803e3d6000fd5b505050506040513d601f19601f820116820180604052508101906122a89190613c1d565b60405163d47eed4560e01b81529091506001600160a01b0382169063d47eed45906122d990879087906004016145ba565b60206040518083038186803b1580156122f157600080fd5b505afa158015612305573d6000803e3d6000fd5b505050506040513d601f19601f820116820180604052508101906123299190614277565b9150806001600160a01b031663ef9e5e288386866040518463ffffffff1660e01b815260040161235a9291906145ba565b6000604051808303818588803b15801561237357600080fd5b505af1158015612387573d6000803e3d6000fd5b5050505050505b92915050565b60008060008060008060028054906101000a90046001600160a01b03166001600160a01b031663d3bab1d189896040518363ffffffff1660e01b81526004016123de929190614513565b6101206040518083038186803b1580156123f757600080fd5b505afa15801561240b573d6000803e3d6000fd5b505050506040513d601f19601f8201168201806040525081019061242f9190613e17565b505050955095509550955095509550612449838284613324565b600254610100900460ff1661246357505050505050610db6565b8061247357505050505050610db6565b600082116124935760405162461bcd60e51b81526004016102969061468d565b600954604051634a3f088d60e01b81526001600160a01b039091169060009081908390634a3f088d906124d0908e908b908b908a906004016143c4565b6101006040518083038186803b1580156124e957600080fd5b505afa1580156124fd573d6000803e3d6000fd5b505050506040513d601f19601f82011682018060405250810190612521919061428f565b50505050505091509150816000141561254257505050505050505050610db6565b600061254e83876134b4565b90506000846001600160a01b0316630a48d5a98c8c6040518363ffffffff1660e01b8152600401612580929190614513565b60206040518083038186803b15801561259857600080fd5b505afa1580156125ac573d6000803e3d6000fd5b505050506040513d601f19601f820116820180604052508101906125d09190614277565b905060006125de84836134b4565b905060006125f8856125f2886127106134d9565b90613513565b90506000612619836125f260075461271001886134d990919063ffffffff16565b905081811015610b415760405162461bcd60e51b815260040161029690614845565b8047101561265b5760405162461bcd60e51b815260040161029690614758565b6000826001600160a01b03168260405161267490614360565b60006040518083038185875af1925050503d80600081146126b1576040519150601f19603f3d011682016040523d82523d6000602084013e6126b6565b606091505b50509050806126d75760405162461bcd60e51b8152600401610296906146fb565b505050565b6009546000906001600160a01b0316818561277257604051637092736960e11b81526001600160a01b0383169063e124e6d29061271d908c90600401614363565b60206040518083038186803b15801561273557600080fd5b505afa158015612749573d6000803e3d6000fd5b505050506040513d601f19601f8201168201806040525081019061276d9190614277565b6127ee565b6040516340d3096b60e11b81526001600160a01b038316906381a612d69061279e908c90600401614363565b60206040518083038186803b1580156127b657600080fd5b505afa1580156127ca573d6000803e3d6000fd5b505050506040513d601f19601f820116820180604052508101906127ee9190614277565b905085156128375783811015604051806060016040528060308152602001614a5f60309139906128315760405162461bcd60e51b8152600401610296919061465a565b50612874565b83811115604051806060016040528060318152602001614aef60319139906128725760405162461bcd60e51b8152600401610296919061465a565b505b6000826001600160a01b03166312d43a516040518163ffffffff1660e01b815260040160206040518083038186803b1580156128af57600080fd5b505afa1580156128c3573d6000803e3d6000fd5b505050506040513d601f19601f820116820180604052508101906128e79190613c1d565b600a54604051633cc8e33b60e21b81529192506001600160a01b03169063f3238cec90612925908f908f908f908d908f908a90600090600401614420565b600060405180830381600087803b15801561293f57600080fd5b505af1158015612953573d6000803e3d6000fd5b50506040516306d63c1d60e41b81526001600160a01b0384169250636d63c1d09150612983908690600401614363565b600060405180830381600087803b15801561299d57600080fd5b505af11580156129b1573d6000803e3d6000fd5b505050506000600b60009054906101000a90046001600160a01b03166001600160a01b0316632662166b8e8e8e8e8e8e8e6040518863ffffffff1660e01b8152600401612a049796959493929190614495565b602060405180830381600087803b158015612a1e57600080fd5b505af1158015612a32573d6000803e3d6000fd5b505050506040513d601f19601f82011682018060405250810190612a569190614277565b60405163d3c87bbb60e01b81529091506001600160a01b0383169063d3c87bbb90612a85908790600401614363565b600060405180830381600087803b158015612a9f57600080fd5b505af1158015612ab3573d6000803e3d6000fd5b50929f9e505050505050505050505050505050565b8415612b3057600184511115612b06576009548451612af8916001600160a01b0316908790879060009061144c57fe5b612b03848330612c42565b94505b8015612b1b57612b168584613555565b612b30565b612b3083868660018851038151811061144c57fe5b5050505050565b6000612b7983836040518060400160405280601e81526020017f536166654d6174683a207375627472616374696f6e206f766572666c6f77000081525061364e565b9392505050565b600c60009054906101000a90046001600160a01b03166001600160a01b031663d0e30db0826040518263ffffffff1660e01b81526004016000604051808303818588803b158015612bd057600080fd5b505af1158015612be4573d6000803e3d6000fd5b505050505050565b6126d78363a9059cbb60e01b8484604051602401612c0b929190614513565b60408051601f198184030181529190526020810180516001600160e01b03166001600160e01b03199093169290921790915261367a565b6000835160021415612c8957612c8284600081518110612c5e57fe5b602002602001015185600181518110612c7357fe5b60200260200101518585613709565b9050612b79565b604051806060016040528060298152602001614b406029913960405162461bcd60e51b8152600401610296919061465a565b600080612ccc8888888888886137db565b90508015612d85576000612cfd6127106125f2612cf6600654612710612b3790919063ffffffff16565b8a906134d9565b90506000612d0b8883612b37565b905060008960018b510381518110612d1f57fe5b60200260200101519050612d6182600f6000846001600160a01b03166001600160a01b03168152602001908152602001600020546134b490919063ffffffff16565b6001600160a01b039091166000908152600f6020526040902055509150612d8a9050565b859150505b9695505050505050565b6009546001600160a01b0316600083612e28576040516340d3096b60e11b81526001600160a01b038316906381a612d690612dd3908990600401614363565b60206040518083038186803b158015612deb57600080fd5b505afa158015612dff573d6000803e3d6000fd5b505050506040513d601f19601f82011682018060405250810190612e239190614277565b612ea4565b604051637092736960e11b81526001600160a01b0383169063e124e6d290612e54908990600401614363565b60206040518083038186803b158015612e6c57600080fd5b505afa158015612e80573d6000803e3d6000fd5b505050506040513d601f19601f82011682018060405250810190612ea49190614277565b90508315612eed5782811115604051806060016040528060318152602001614aef6031913990612ee75760405162461bcd60e51b8152600401610296919061465a565b50612f2a565b82811015604051806060016040528060308152602001614a5f6030913990612f285760405162461bcd60e51b8152600401610296919061465a565b505b612f35868587613324565b6000826001600160a01b03166312d43a516040518163ffffffff1660e01b815260040160206040518083038186803b158015612f7057600080fd5b505afa158015612f84573d6000803e3d6000fd5b505050506040513d601f19601f82011682018060405250810190612fa89190613c1d565b600a54604051633cc8e33b60e21b81529192506001600160a01b03169063f3238cec90612fe6908c908c908c908b908d908a90600190600401614420565b600060405180830381600087803b15801561300057600080fd5b505af1158015613014573d6000803e3d6000fd5b50506040516306d63c1d60e41b81526001600160a01b0384169250636d63c1d09150613044908690600401614363565b600060405180830381600087803b15801561305e57600080fd5b505af1158015613072573d6000803e3d6000fd5b5050600b54604051630f8ee8bb60e11b81526001600160a01b039091169250631f1dd17691506130ae908c908c908c908c908c90600401614461565b600060405180830381600087803b1580156130c857600080fd5b505af11580156130dc573d6000803e3d6000fd5b505060405163d3c87bbb60e01b81526001600160a01b038416925063d3c87bbb915061310c908690600401614363565b600060405180830381600087803b15801561312657600080fd5b505af115801561313a573d6000803e3d6000fd5b50505050505050505050505050565b60095460405163054451db60e21b815260009182916001600160a01b0390911690631511476c90613184908a908a908a908a906004016143c4565b604080518083038186803b15801561319b57600080fd5b505afa1580156131af573d6000803e3d6000fd5b505050506040513d601f19601f820116820180604052508101906131d39190614232565b6000818152601160205260409020549193509150821580156131f55750600081115b15613213576000828152601160205260408120556132138185613555565b5050505050505050565b60105461322957612b30565b60095460405163054451db60e21b815260009182916001600160a01b0390911690631511476c90613264908a908a908a908a906004016143c4565b604080518083038186803b15801561327b57600080fd5b505afa15801561328f573d6000803e3d6000fd5b505050506040513d601f19601f820116820180604052508101906132b39190614232565b915091508161331b5760008334039050601054811015604051806060016040528060218152602001614a1360219139906133005760405162461bcd60e51b8152600401610296919061465a565b50600082815260116020526040902081905561321381612b80565b50505050505050565b8061332e576126d7565b8115613422576001600160a01b0383166000908152600d602052604090205480158015906133e5575060095460405163783a2b6760e11b815282916133e39185916001600160a01b03169063f07456ce9061338d908a90600401614363565b60206040518083038186803b1580156133a557600080fd5b505afa1580156133b9573d6000803e3d6000fd5b505050506040513d601f19601f820116820180604052508101906133dd9190614277565b906134b4565b115b1561341c576040518060600160405280602e81526020016149e5602e913960405162461bcd60e51b8152600401610296919061465a565b506126d7565b6001600160a01b0383166000908152600e6020526040902054801580159061347d575060095460405163114f1b5560e31b8152829161347b9185916001600160a01b031690638a78daa89061338d908a90600401614363565b115b15611d8f576040518060600160405280602f8152602001614a8f602f913960405162461bcd60e51b8152600401610296919061465a565b600082820183811015612b795760405162461bcd60e51b8152600401610296906146c4565b6000826134e85750600061238e565b828202828482816134f557fe5b0414612b795760405162461bcd60e51b815260040161029690614804565b6000612b7983836040518060400160405280601a81526020017f536166654d6174683a206469766973696f6e206279207a65726f0000000000008152506139ab565b600c54604051632e1a7d4d60e01b81526001600160a01b0390911690632e1a7d4d90613585908590600401614944565b600060405180830381600087803b15801561359f57600080fd5b505af11580156135b3573d6000803e3d6000fd5b505050506000816001600160a01b0316836040516135d090614360565b60006040518083038185875af1925050503d806000811461360d576040519150601f19603f3d011682016040523d82523d6000602084013e613612565b606091505b5050905080604051806060016040528060318152602001614abe6031913990611d8f5760405162461bcd60e51b8152600401610296919061465a565b600081848411156136725760405162461bcd60e51b8152600401610296919061465a565b505050900390565b60606136cf826040518060400160405280602081526020017f5361666545524332303a206c6f772d6c6576656c2063616c6c206661696c6564815250856001600160a01b03166139e29092919063ffffffff16565b8051909150156126d757808060200190518101906136ed9190614216565b6126d75760405162461bcd60e51b8152600401610296906148c3565b600954604051634998b10960e11b815260009182916001600160a01b0390911690639331621290613742908990899088906004016143a1565b602060405180830381600087803b15801561375c57600080fd5b505af1158015613770573d6000803e3d6000fd5b505050506040513d601f19601f820116820180604052508101906137949190614277565b9050838110156040518060600160405280602b8152602001614a34602b9139906137d15760405162461bcd60e51b8152600401610296919061465a565b5095945050505050565b6000826137ea57506000612d8a565b816137f757506001612d8a565b60008660018851038151811061380957fe5b6020908102919091010151600954604051634a3f088d60e01b81529192506001600160a01b03169060009081908390634a3f088d90613852908e9088908d908d906004016143c4565b6101006040518083038186803b15801561386b57600080fd5b505afa15801561387f573d6000803e3d6000fd5b505050506040513d601f19601f820116820180604052508101906138a3919061428f565b5050505050509150915081600014156138c3576000945050505050612d8a565b60006138cf83886134b4565b90506000846001600160a01b0316630a48d5a9878d6040518363ffffffff1660e01b8152600401613901929190614513565b60206040518083038186803b15801561391957600080fd5b505afa15801561392d573d6000803e3d6000fd5b505050506040513d601f19601f820116820180604052508101906139519190614277565b9050600061395f84836134b4565b90506000613973856125f2886127106134d9565b90506000613994836125f260075461271001886134d990919063ffffffff16565b919091109f9e505050505050505050505050505050565b600081836139cc5760405162461bcd60e51b8152600401610296919061465a565b5060008385816139d857fe5b0495945050505050565b60606139f184846000856139f9565b949350505050565b606082471015613a1b5760405162461bcd60e51b81526004016102969061478f565b60006060866001600160a01b03168587604051613a389190614344565b60006040518083038185875af1925050503d8060008114613a75576040519150601f19603f3d011682016040523d82523d6000602084013e613a7a565b606091505b5091509150613a8a828286613a95565b979650505050505050565b60608315613aa4575081612b79565b825115613ab45782518084602001fd5b8160405162461bcd60e51b8152600401610296919061465a565b803561238e816149be565b600082601f830112613ae9578081fd5b8135613afc613af782614973565b61494d565b818152915060208083019084810181840286018201871015613b1d57600080fd5b60005b84811015613b45578135613b33816149be565b84529282019290820190600101613b20565b505050505092915050565b60008083601f840112613b61578182fd5b5081356001600160401b03811115613b77578182fd5b6020830191508360208083028501011115613b9157600080fd5b9250929050565b600082601f830112613ba8578081fd5b8135613bb6613af782614973565b818152915060208083019084810181840286018201871015613bd757600080fd5b60005b84811015613b4557813584529282019290820190600101613bda565b803561238e816149d6565b600060208284031215613c12578081fd5b8135612b79816149be565b600060208284031215613c2e578081fd5b8151612b79816149be565b60008060408385031215613c4b578081fd5b8235613c56816149be565b946020939093013593505050565b60008060408385031215613c76578182fd5b8235613c81816149be565b91506020830135613c91816149be565b809150509250929050565b600080600080600080600060c0888a031215613cb6578283fd5b8735613cc1816149be565b96506020880135613cd1816149be565b95506040880135613ce1816149be565b94506060880135613cf1816149d6565b93506080880135613d01816149be565b925060a08801356001600160401b03811115613d1b578283fd5b613d278a828b01613b50565b989b979a50959850939692959293505050565b600080600060608486031215613d4e578283fd5b8335613d59816149be565b92506020840135613d69816149be565b929592945050506040919091013590565b60008060408385031215613d8c578182fd5b8235613d97816149be565b91506020830135613c91816149d6565b600080600080600060808688031215613dbe578081fd5b8535613dc9816149be565b9450602086013593506040860135613de0816149be565b925060608601356001600160401b03811115613dfa578182fd5b613e0688828901613b50565b969995985093965092949392505050565b60008060008060008060008060006101208a8c031215613e35578182fd5b8951613e40816149be565b60208b015160408c0151919a509850613e58816149be565b60608b0151909750613e69816149be565b60808b015160a08c01519197509550613e81816149d6565b60c08b015160e08c01519195509350613e99816149d6565b809250506101008a015190509295985092959850929598565b600080600080600080600080610100898b031215613ece578182fd5b8851613ed9816149be565b60208a015160408b01519199509750613ef1816149be565b60608a015160808b01519197509550613f09816149d6565b60a08a015160c08b01519195509350613f21816149d6565b8092505060e089015190509295985092959890939650565b60008060008060008060008060008060006101408c8e031215613f5a578485fd5b6001600160401b03808d351115613f6f578586fd5b613f7c8e8e358f01613ad9565b9b50613f8b8e60208f01613ace565b9a5060408d0135995060608d01359850613fa88e60808f01613bf6565b9750613fb78e60a08f01613ace565b965060c08d0135955060e08d01359450613fd58e6101008f01613bf6565b9350806101208e01351115613fe8578283fd5b50613ffa8d6101208e01358e01613b50565b81935080925050509295989b509295989b9093969950565b60008060008060008060008060e0898b03121561402d578182fd5b88356001600160401b0380821115614043578384fd5b61404f8c838d01613ad9565b995060208b01359150614061826149be565b90975060408a0135965060608a0135955060808a013590614081826149d6565b90945060a08a0135935060c08a0135908082111561409d578384fd5b506140aa8b828c01613b50565b999c989b5096995094979396929594505050565b60008060008060008060008060006101008a8c0312156140dc578283fd5b89356001600160401b03808211156140f2578485fd5b6140fe8d838e01613ad9565b9a5060208c01359150614110826149be565b90985060408b0135975060608b0135965060808b0135955060a08b013590614137826149d6565b90945060c08b0135935060e08b01359080821115614153578384fd5b506141608c828d01613b50565b915080935050809150509295985092959850929598565b60008060006060848603121561418b578081fd5b83356001600160401b03808211156141a1578283fd5b6141ad87838801613ad9565b945060208601359150808211156141c2578283fd5b6141ce87838801613b98565b935060408601359150808211156141e3578283fd5b506141f086828701613b98565b9150509250925092565b60006020828403121561420b578081fd5b8135612b79816149d6565b600060208284031215614227578081fd5b8151612b79816149d6565b60008060408385031215614244578182fd5b825161424f816149d6565b6020939093015192949293505050565b600060208284031215614270578081fd5b5035919050565b600060208284031215614288578081fd5b5051919050565b600080600080600080600080610100898b0312156142ab578182fd5b885197506020890151965060408901519550606089015194506080890151935060a0890151925060c0890151613f21816149d6565b6000815180845260208085019450808401835b8381101561430f578151875295820195908201906001016142f3565b509495945050505050565b60008284528282602086013780602084860101526020601f19601f85011685010190509392505050565b60008251614356818460208701614992565b9190910192915050565b90565b6001600160a01b0391909116815260200190565b6001600160a01b039485168152928416602084015292166040820152606081019190915260800190565b6001600160a01b0393841681529183166020830152909116604082015260600190565b6001600160a01b039485168152928416602084015292166040820152901515606082015260800190565b6001600160a01b0395861681529385166020850152918416604084015215156060830152909116608082015260a00190565b6001600160a01b03978816815295871660208701529390951660408501529015156060840152608083015260a082019290925290151560c082015260e00190565b6001600160a01b03958616815293851660208501529190931660408301526060820192909252901515608082015260a00190565b6001600160a01b0397881681529587166020870152938616604086015260608501929092526080840152151560a083015290911660c082015260e00190565b6001600160a01b039384168152919092166020820152604081019190915260600190565b6001600160a01b039290921682521515602082015260400190565b6001600160a01b03929092168252602082015260400190565b6001600160a01b0393841681526020810192909252909116604082015260600190565b606080825284519082018190526000906020906080840190828801845b828110156145915781516001600160a01b03168452928401929084019060010161456c565b505050838103828501526145a581876142e0565b9150508281036040840152612d8a81856142e0565b602080825281810183905260009060408482028401810190840186845b8781101561464257868403603f190183528135368a9003601e190181126145fc578687fd5b890180356001600160401b03811115614613578788fd5b8036038b1315614621578788fd5b61462e868289850161431a565b9550505091840191908401906001016145d7565b5091979650505050505050565b901515815260200190565b6000602082528251806020840152614679816040850160208701614992565b601f01601f19169190910160400192915050565b6020808252601d908201527f506f736974696f6e4d616e616765723a206c6f6e67206465706f736974000000604082015260600190565b6020808252601b908201527f536166654d6174683a206164646974696f6e206f766572666c6f770000000000604082015260600190565b6020808252603a908201527f416464726573733a20756e61626c6520746f2073656e642076616c75652c207260408201527f6563697069656e74206d61792068617665207265766572746564000000000000606082015260800190565b6020808252601d908201527f416464726573733a20696e73756666696369656e742062616c616e6365000000604082015260600190565b60208082526026908201527f416464726573733a20696e73756666696369656e742062616c616e636520666f6040820152651c8818d85b1b60d21b606082015260800190565b60208082526015908201527423b7bb32b93730b136329d103337b93134b23232b760591b604082015260600190565b60208082526021908201527f536166654d6174683a206d756c7469706c69636174696f6e206f766572666c6f6040820152607760f81b606082015260800190565b60208082526027908201527f506f736974696f6e4d616e616765723a206c6f6e67206c6576657261676520646040820152666563726561736560c81b606082015260800190565b6020808252601e908201527f42617365506f736974696f6e4d616e616765723a20666f7262696464656e0000604082015260600190565b6020808252602a908201527f5361666545524332303a204552433230206f7065726174696f6e20646964206e6040820152691bdd081cdd58d8d9595960b21b606082015260800190565b6020808252601f908201527f5265656e7472616e637947756172643a207265656e7472616e742063616c6c00604082015260600190565b90815260200190565b6040518181016001600160401b038111828210171561496b57600080fd5b604052919050565b60006001600160401b03821115614988578081fd5b5060209081020190565b60005b838110156149ad578181015183820152602001614995565b83811115611d8f5750506000910152565b6001600160a01b03811681146149d357600080fd5b50565b80151581146149d357600080fdfe42617365506f736974696f6e4d616e616765723a206d617820676c6f62616c206c6f6e6773206578636565646564506f736974696f6e4d616e616765723a20696e73756666696369656e742066656542617365506f736974696f6e4d616e616765723a20696e73756666696369656e7420616d6f756e744f757442617365506f736974696f6e4d616e616765723a206d61726b207072696365206c6f776572207468616e206c696d697442617365506f736974696f6e4d616e616765723a206d617820676c6f62616c2073686f72747320657863656564656442617365506f736974696f6e4d616e616765723a206661696c656420746f207472616e73666572206f757420657468657242617365506f736974696f6e4d616e616765723a206d61726b20707269636520686967686572207468616e206c696d6974506f736974696f6e4d616e616765723a20666f7262696464656e00000000000042617365506f736974696f6e4d616e616765723a20696e76616c6964205f706174682e6c656e67746842617365506f736974696f6e4d616e616765723a20696e76616c69642073656e646572506f736974696f6e4d616e616765723a20696e76616c6964205f706174682e6c656e677468a26469706673582212200a0bb2418d6512a31f736f4a7bc271c6b03b19ea27cf633bda7093cc5a286e1764736f6c634300060c0033",
  "devdoc": {
    "kind": "dev",
    "methods": {},
    "version": 1
  },
  "userdoc": {
    "kind": "user",
    "methods": {},
    "version": 1
  },
  "storageLayout": {
    "storage": [
      {
        "astId": 3,
        "contract": "contracts/core/PositionManager.sol:PositionManager",
        "label": "gov",
        "offset": 0,
        "slot": "0",
        "type": "t_address"
      },
      {
        "astId": 15478,
        "contract": "contracts/core/PositionManager.sol:PositionManager",
        "label": "_status",
        "offset": 0,
        "slot": "1",
        "type": "t_uint256"
      },
      {
        "astId": 12269,
        "contract": "contracts/core/PositionManager.sol:PositionManager",
        "label": "opened",
        "offset": 0,
        "slot": "2",
        "type": "t_bool"
      },
      {
        "astId": 12272,
        "contract": "contracts/core/PositionManager.sol:PositionManager",
        "label": "shouldValidateIncreaseOrder",
        "offset": 1,
        "slot": "2",
        "type": "t_bool"
      },
      {
        "astId": 12274,
        "contract": "contracts/core/PositionManager.sol:PositionManager",
        "label": "orderBook",
        "offset": 2,
        "slot": "2",
        "type": "t_address"
      },
      {
        "astId": 12278,
        "contract": "contracts/core/PositionManager.sol:PositionManager",
        "label": "isOrderKeeper",
        "offset": 0,
        "slot": "3",
        "type": "t_mapping(t_address,t_bool)"
      },
      {
        "astId": 12282,
        "contract": "contracts/core/PositionManager.sol:PositionManager",
        "label": "isPartner",
        "offset": 0,
        "slot": "4",
        "type": "t_mapping(t_address,t_bool)"
      },
      {
        "astId": 12286,
        "contract": "contracts/core/PositionManager.sol:PositionManager",
        "label": "isLiquidator",
        "offset": 0,
        "slot": "5",
        "type": "t_mapping(t_address,t_bool)"
      },
      {
        "astId": 12075,
        "contract": "contracts/core/PositionManager.sol:PositionManager",
        "label": "depositFee",
        "offset": 0,
        "slot": "6",
        "type": "t_uint256"
      },
      {
        "astId": 12078,
        "contract": "contracts/core/PositionManager.sol:PositionManager",
        "label": "increasePositionBufferBps",
        "offset": 0,
        "slot": "7",
        "type": "t_uint256"
      },
      {
        "astId": 12080,
        "contract": "contracts/core/PositionManager.sol:PositionManager",
        "label": "admin",
        "offset": 0,
        "slot": "8",
        "type": "t_address"
      },
      {
        "astId": 12082,
        "contract": "contracts/core/PositionManager.sol:PositionManager",
        "label": "vault",
        "offset": 0,
        "slot": "9",
        "type": "t_address"
      },
      {
        "astId": 12084,
        "contract": "contracts/core/PositionManager.sol:PositionManager",
        "label": "shortsTracker",
        "offset": 0,
        "slot": "10",
        "type": "t_address"
      },
      {
        "astId": 12086,
        "contract": "contracts/core/PositionManager.sol:PositionManager",
        "label": "router",
        "offset": 0,
        "slot": "11",
        "type": "t_address"
      },
      {
        "astId": 12088,
        "contract": "contracts/core/PositionManager.sol:PositionManager",
        "label": "weth",
        "offset": 0,
        "slot": "12",
        "type": "t_address"
      },
      {
        "astId": 12093,
        "contract": "contracts/core/PositionManager.sol:PositionManager",
        "label": "maxGlobalLongSizes",
        "offset": 0,
        "slot": "13",
        "type": "t_mapping(t_address,t_uint256)"
      },
      {
        "astId": 12098,
        "contract": "contracts/core/PositionManager.sol:PositionManager",
        "label": "maxGlobalShortSizes",
        "offset": 0,
        "slot": "14",
        "type": "t_mapping(t_address,t_uint256)"
      },
      {
        "astId": 12102,
        "contract": "contracts/core/PositionManager.sol:PositionManager",
        "label": "feeReserves",
        "offset": 0,
        "slot": "15",
        "type": "t_mapping(t_address,t_uint256)"
      },
      {
        "astId": 12104,
        "contract": "contracts/core/PositionManager.sol:PositionManager",
        "label": "minLiquidationFee",
        "offset": 0,
        "slot": "16",
        "type": "t_uint256"
      },
      {
        "astId": 12108,
        "contract": "contracts/core/PositionManager.sol:PositionManager",
        "label": "liquidationFees",
        "offset": 0,
        "slot": "17",
        "type": "t_mapping(t_bytes32,t_uint256)"
      },
      {
        "astId": 291,
        "contract": "contracts/core/PositionManager.sol:PositionManager",
        "label": "_IVault",
        "offset": 0,
        "slot": "18",
        "type": "t_contract(IVault)7577"
      }
    ],
    "types": {
      "t_address": {
        "encoding": "inplace",
        "label": "address",
        "numberOfBytes": "20"
      },
      "t_bool": {
        "encoding": "inplace",
        "label": "bool",
        "numberOfBytes": "1"
      },
      "t_bytes32": {
        "encoding": "inplace",
        "label": "bytes32",
        "numberOfBytes": "32"
      },
      "t_contract(IVault)7577": {
        "encoding": "inplace",
        "label": "contract IVault",
        "numberOfBytes": "20"
      },
      "t_mapping(t_address,t_bool)": {
        "encoding": "mapping",
        "key": "t_address",
        "label": "mapping(address => bool)",
        "numberOfBytes": "32",
        "value": "t_bool"
      },
      "t_mapping(t_address,t_uint256)": {
        "encoding": "mapping",
        "key": "t_address",
        "label": "mapping(address => uint256)",
        "numberOfBytes": "32",
        "value": "t_uint256"
      },
      "t_mapping(t_bytes32,t_uint256)": {
        "encoding": "mapping",
        "key": "t_bytes32",
        "label": "mapping(bytes32 => uint256)",
        "numberOfBytes": "32",
        "value": "t_uint256"
      },
      "t_uint256": {
        "encoding": "inplace",
        "label": "uint256",
        "numberOfBytes": "32"
      }
    }
  }
}