{
  "address": "0xc9470c7aAB7e2FcFD65ff0B2890a0d60856D234b",
  "abi": [
    {
      "inputs": [
        {
          "internalType": "address",
          "name": "_vault",
          "type": "address"
        },
        {
          "internalType": "address",
          "name": "_zkusd",
          "type": "address"
        },
        {
          "internalType": "address",
          "name": "_weth",
          "type": "address"
        }
      ],
      "stateMutability": "nonpayable",
      "type": "constructor"
    },
    {
      "inputs": [
        {
          "internalType": "address",
          "name": "_plugin",
          "type": "address"
        }
      ],
      "name": "addPlugin",
      "outputs": [],
      "stateMutability": "nonpayable",
      "type": "function"
    },
    {
      "inputs": [
        {
          "internalType": "address",
          "name": "_token",
          "type": "address"
        },
        {
          "internalType": "uint256",
          "name": "_amount",
          "type": "uint256"
        }
      ],
      "name": "directPoolDeposit",
      "outputs": [],
      "stateMutability": "nonpayable",
      "type": "function"
    },
    {
      "inputs": [],
      "name": "gov",
      "outputs": [
        {
          "internalType": "address",
          "name": "",
          "type": "address"
        }
      ],
      "stateMutability": "view",
      "type": "function"
    },
    {
      "inputs": [
        {
          "internalType": "address",
          "name": "_account",
          "type": "address"
        },
        {
          "internalType": "address",
          "name": "_collateralToken",
          "type": "address"
        },
        {
          "internalType": "address",
          "name": "_indexToken",
          "type": "address"
        },
        {
          "internalType": "uint256",
          "name": "_collateralDelta",
          "type": "uint256"
        },
        {
          "internalType": "uint256",
          "name": "_sizeDelta",
          "type": "uint256"
        },
        {
          "internalType": "bool",
          "name": "_isLong",
          "type": "bool"
        },
        {
          "internalType": "address",
          "name": "_receiver",
          "type": "address"
        }
      ],
      "name": "pluginDecreasePosition",
      "outputs": [
        {
          "internalType": "uint256",
          "name": "",
          "type": "uint256"
        }
      ],
      "stateMutability": "nonpayable",
      "type": "function"
    },
    {
      "inputs": [
        {
          "internalType": "address",
          "name": "_account",
          "type": "address"
        },
        {
          "internalType": "address",
          "name": "_collateralToken",
          "type": "address"
        },
        {
          "internalType": "address",
          "name": "_indexToken",
          "type": "address"
        },
        {
          "internalType": "uint256",
          "name": "_sizeDelta",
          "type": "uint256"
        },
        {
          "internalType": "bool",
          "name": "_isLong",
          "type": "bool"
        }
      ],
      "name": "pluginIncreasePosition",
      "outputs": [],
      "stateMutability": "nonpayable",
      "type": "function"
    },
    {
      "inputs": [
        {
          "internalType": "address",
          "name": "_token",
          "type": "address"
        },
        {
          "internalType": "address",
          "name": "_account",
          "type": "address"
        },
        {
          "internalType": "address",
          "name": "_receiver",
          "type": "address"
        },
        {
          "internalType": "uint256",
          "name": "_amount",
          "type": "uint256"
        }
      ],
      "name": "pluginTransfer",
      "outputs": [],
      "stateMutability": "nonpayable",
      "type": "function"
    },
    {
      "inputs": [
        {
          "internalType": "address",
          "name": "",
          "type": "address"
        }
      ],
      "name": "plugins",
      "outputs": [
        {
          "internalType": "bool",
          "name": "",
          "type": "bool"
        }
      ],
      "stateMutability": "view",
      "type": "function"
    },
    {
      "inputs": [
        {
          "internalType": "address",
          "name": "_plugin",
          "type": "address"
        }
      ],
      "name": "removePlugin",
      "outputs": [],
      "stateMutability": "nonpayable",
      "type": "function"
    },
    {
      "inputs": [
        {
          "internalType": "address",
          "name": "_gov",
          "type": "address"
        }
      ],
      "name": "setGov",
      "outputs": [],
      "stateMutability": "nonpayable",
      "type": "function"
    },
    {
      "inputs": [
        {
          "internalType": "address[]",
          "name": "_path",
          "type": "address[]"
        },
        {
          "internalType": "uint256",
          "name": "_amountIn",
          "type": "uint256"
        },
        {
          "internalType": "uint256",
          "name": "_minOut",
          "type": "uint256"
        },
        {
          "internalType": "address",
          "name": "_receiver",
          "type": "address"
        },
        {
          "internalType": "bytes[]",
          "name": "_updateData",
          "type": "bytes[]"
        }
      ],
      "name": "swap",
      "outputs": [],
      "stateMutability": "payable",
      "type": "function"
    },
    {
      "inputs": [
        {
          "internalType": "address[]",
          "name": "_path",
          "type": "address[]"
        },
        {
          "internalType": "uint256",
          "name": "_minOut",
          "type": "uint256"
        },
        {
          "internalType": "address",
          "name": "_receiver",
          "type": "address"
        },
        {
          "internalType": "bytes[]",
          "name": "_updateData",
          "type": "bytes[]"
        }
      ],
      "name": "swapETHToTokens",
      "outputs": [],
      "stateMutability": "payable",
      "type": "function"
    },
    {
      "inputs": [
        {
          "internalType": "address[]",
          "name": "_path",
          "type": "address[]"
        },
        {
          "internalType": "uint256",
          "name": "_amountIn",
          "type": "uint256"
        },
        {
          "internalType": "uint256",
          "name": "_minOut",
          "type": "uint256"
        },
        {
          "internalType": "address payable",
          "name": "_receiver",
          "type": "address"
        },
        {
          "internalType": "bytes[]",
          "name": "_updateData",
          "type": "bytes[]"
        }
      ],
      "name": "swapTokensToETH",
      "outputs": [],
      "stateMutability": "payable",
      "type": "function"
    },
    {
      "inputs": [],
      "name": "vault",
      "outputs": [
        {
          "internalType": "address",
          "name": "",
          "type": "address"
        }
      ],
      "stateMutability": "view",
      "type": "function"
    },
    {
      "inputs": [],
      "name": "weth",
      "outputs": [
        {
          "internalType": "address",
          "name": "",
          "type": "address"
        }
      ],
      "stateMutability": "view",
      "type": "function"
    },
    {
      "inputs": [],
      "name": "zkusd",
      "outputs": [
        {
          "internalType": "address",
          "name": "",
          "type": "address"
        }
      ],
      "stateMutability": "view",
      "type": "function"
    },
    {
      "stateMutability": "payable",
      "type": "receive"
    }
  ],
  "transactionHash": "0xafa3ea926c85aa9b1aff35e51d89f595391f94d329dff66b633a99151f714560",
  "args": [
    "0x2ef4ad8fd5eC0eDea26bC0f76A65d434713b016a",
    "0x51C5a4FAC0ed0d4ff593C0CD413C8A31e729641f",
    "0x6ae6634c37D519b4B56c167F44dBfb7c91a71e57"
  ],
  "numDeployments": 1,
  "solcInputHash": "45f986e69ef0b1c3adec9bb2994aea31",
  "bytecode": "0x60806040523480156200001157600080fd5b5060405162001b3738038062001b37833981016040819052620000349162000091565b600580546001600160a01b039485166001600160a01b0319918216811790925560038054821690921790915560028054938516938216939093179092556001805491909316908216179091556000805490911633179055620000fd565b600080600060608486031215620000a6578283fd5b8351620000b381620000e4565b6020850151909350620000c681620000e4565b6040850151909250620000d981620000e4565b809150509250925092565b6001600160a01b0381168114620000fa57600080fd5b50565b611a2a806200010d6000396000f3fe6080604052600436106100cc5760003560e01c806374b17a3f1161007a57806374b17a3f1461022a57806390b64ad31461023d5780639bc90a0f1461025d578063a24ce39814610272578063a4d95b6414610285578063cfad57a2146102a5578063d8867fc8146102c5578063fbfa77cf146102e557610136565b8063013d29771461013b57806312d43a51146101505780631b8278781461017b5780631f1dd1761461019b5780632662166b146101bb5780633fc8cef3146101e85780634b12e643146101fd57610136565b36610136576001546040805180820190915260168152752937baba32b91d1034b73b30b634b21039b2b73232b960511b6020820152906001600160a01b031633146101335760405162461bcd60e51b815260040161012a9190611825565b60405180910390fd5b50005b600080fd5b61014e610149366004611543565b6102fa565b005b34801561015c57600080fd5b506101656103bf565b604051610172919061164f565b60405180910390f35b34801561018757600080fd5b5061014e610196366004611358565b6103ce565b3480156101a757600080fd5b5061014e6101b63660046113a8565b6103f1565b3480156101c757600080fd5b506101db6101d636600461140f565b61046a565b604051610172919061197c565b3480156101f457600080fd5b5061016561050e565b34801561020957600080fd5b5061021d610218366004611320565b61051d565b604051610172919061181a565b61014e610238366004611543565b610532565b34801561024957600080fd5b5061014e610258366004611492565b6105fe565b34801561026957600080fd5b50610165610686565b61014e6102803660046114bd565b610695565b34801561029157600080fd5b5061014e6102a0366004611320565b6107a5565b3480156102b157600080fd5b5061014e6102c0366004611320565b61081b565b3480156102d157600080fd5b5061014e6102e0366004611320565b610892565b3480156102f157600080fd5b5061016561090b565b610304828261091a565b5061034f610310610a92565b60035488516001600160a01b039091169088908a9060009061032e57fe5b60200260200101516001600160a01b0316610a96909392919063ffffffff16565b600061035c878686610aee565b90506000805160206119d5833981519152338860008151811061037b57fe5b60200260200101518960018b51038151811061039357fe5b602002602001015189856040516103ae959493929190611663565b60405180910390a150505050505050565b6000546001600160a01b031681565b6103d6610c4d565b6103eb6001600160a01b038516848484610a96565b50505050565b6103f9610c4d565b6003546040516348d91abf60e01b81526001600160a01b03909116906348d91abf9061043190889088908890889088906004016116d4565b600060405180830381600087803b15801561044b57600080fd5b505af115801561045f573d6000803e3d6000fd5b505050505050505050565b6000610474610c4d565b60035460405163082a084960e41b81526001600160a01b03909116906382a08490906104b0908b908b908b908b908b908b908b90600401611708565b602060405180830381600087803b1580156104ca57600080fd5b505af11580156104de573d6000803e3d6000fd5b505050506040513d601f19601f8201168201806040525081019061050291906115ee565b98975050505050505050565b6001546001600160a01b031681565b60046020526000908152604090205460ff1681565b61053c828261091a565b5060015486516001600160a01b03909116908790600019810190811061055e57fe5b60200260200101516001600160a01b031614604051806040016040528060158152602001740a4deeae8cae47440d2dcecc2d8d2c840bee0c2e8d605b1b815250906105bc5760405162461bcd60e51b815260040161012a9190611825565b506105c8610310610a92565b60006105d5878630610aee565b90506105e18185610cb1565b6000805160206119d5833981519152338860008151811061037b57fe5b610620610609610a92565b6003546001600160a01b0385811692911684610a96565b600354604051635f7bc11960e01b81526001600160a01b0390911690635f7bc1199061065090859060040161164f565b600060405180830381600087803b15801561066a57600080fd5b505af115801561067e573d6000803e3d6000fd5b505050505050565b6002546001600160a01b031681565b60006106a1838361091a565b60015487519192506001600160a01b03169087906000906106be57fe5b60200260200101516001600160a01b031614604051806040016040528060158152602001740a4deeae8cae47440d2dcecc2d8d2c840bee0c2e8d605b1b8152509061071c5760405162461bcd60e51b815260040161012a9190611825565b5060006107293483610d2b565b905061073481610d6d565b6000610741888888610aee565b90506000805160206119d5833981519152338960008151811061076057fe5b60200260200101518a60018c51038151811061077857fe5b60200260200101518585604051610793959493929190611663565b60405180910390a15050505050505050565b6000546040805180820190915260118152702937baba32b91d103337b93134b23232b760791b6020820152906001600160a01b031633146107f95760405162461bcd60e51b815260040161012a9190611825565b506001600160a01b03166000908152600460205260409020805460ff19169055565b6000546040805180820190915260118152702937baba32b91d103337b93134b23232b760791b6020820152906001600160a01b0316331461086f5760405162461bcd60e51b815260040161012a9190611825565b50600080546001600160a01b0319166001600160a01b0392909216919091179055565b6000546040805180820190915260118152702937baba32b91d103337b93134b23232b760791b6020820152906001600160a01b031633146108e65760405162461bcd60e51b815260040161012a9190611825565b506001600160a01b03166000908152600460205260409020805460ff19166001179055565b6003546001600160a01b031681565b60008161092957506000610a8c565b60055460408051633a0df78d60e11b815290516000926001600160a01b03169163741bef1a916004808301926020929190829003018186803b15801561096e57600080fd5b505afa158015610982573d6000803e3d6000fd5b505050506040513d601f19601f820116820180604052508101906109a6919061133c565b60405163d47eed4560e01b81529091506001600160a01b0382169063d47eed45906109d79087908790600401611784565b60206040518083038186803b1580156109ef57600080fd5b505afa158015610a03573d6000803e3d6000fd5b505050506040513d601f19601f82011682018060405250810190610a2791906115ee565b9150806001600160a01b031663ef9e5e288386866040518463ffffffff1660e01b8152600401610a58929190611784565b6000604051808303818588803b158015610a7157600080fd5b505af1158015610a85573d6000803e3d6000fd5b5050505050505b92915050565b3390565b6103eb846323b872dd60e01b858585604051602401610ab793929190611747565b60408051601f198184030181529190526020810180516001600160e01b03166001600160e01b031990931692909217909152610df4565b6000835160021415610b3557610b2e84600081518110610b0a57fe5b602002602001015185600181518110610b1f57fe5b60200260200101518585610e88565b9050610c46565b835160031415610bfb576000610b7685600081518110610b5157fe5b602002602001015186600181518110610b6657fe5b6020026020010151600030610e88565b9050610bbf600360009054906101000a90046001600160a01b03168287600181518110610b9f57fe5b60200260200101516001600160a01b031661105e9092919063ffffffff16565b610bf385600181518110610bcf57fe5b602002602001015186600281518110610be457fe5b60200260200101518686610e88565b915050610c46565b604080518082018252601c81527f526f757465723a20696e76616c6964205f706174682e6c656e677468000000006020820152905162461bcd60e51b815261012a9190600401611825565b9392505050565b3360009081526004602090815260409182902054825180840190935260168352752937baba32b91d1034b73b30b634b21038363ab3b4b760511b9183019190915260ff16610cae5760405162461bcd60e51b815260040161012a9190611825565b50565b600154604051632e1a7d4d60e01b81526001600160a01b0390911690632e1a7d4d90610ce190859060040161197c565b600060405180830381600087803b158015610cfb57600080fd5b505af1158015610d0f573d6000803e3d6000fd5b50610d27925050506001600160a01b0382168361107d565b5050565b6000610c4683836040518060400160405280601e81526020017f536166654d6174683a207375627472616374696f6e206f766572666c6f770000815250611119565b600160009054906101000a90046001600160a01b03166001600160a01b031663d0e30db0826040518263ffffffff1660e01b81526004016000604051808303818588803b158015610dbd57600080fd5b505af1158015610dd1573d6000803e3d6000fd5b5050600354600154610cae94506001600160a01b0390811693501690508361105e565b6060610e49826040518060400160405280602081526020017f5361666545524332303a206c6f772d6c6576656c2063616c6c206661696c6564815250856001600160a01b03166111459092919063ffffffff16565b805190915015610e835780806020019051810190610e6791906115d2565b610e835760405162461bcd60e51b815260040161012a90611932565b505050565b60025460009081906001600160a01b0386811691161415610f2e576003546040516354d33cf960e01b81526001600160a01b03909116906354d33cf990610ed59089908790600401611697565b602060405180830381600087803b158015610eef57600080fd5b505af1158015610f03573d6000803e3d6000fd5b505050506040513d601f19601f82011682018060405250810190610f2791906115ee565b9050610fff565b6002546001600160a01b0387811691161415610f76576003546040516302718b5760e21b81526001600160a01b03909116906309c62d5c90610ed59088908790600401611697565b600354604051634998b10960e11b81526001600160a01b0390911690639331621290610faa908990899088906004016116b1565b602060405180830381600087803b158015610fc457600080fd5b505af1158015610fd8573d6000803e3d6000fd5b505050506040513d601f19601f82011682018060405250810190610ffc91906115ee565b90505b60408051808201909152601e81527f526f757465723a20696e73756666696369656e7420616d6f756e744f757400006020820152848210156110545760405162461bcd60e51b815260040161012a9190611825565b5095945050505050565b610e838363a9059cbb60e01b8484604051602401610ab792919061176b565b8047101561109d5760405162461bcd60e51b815260040161012a906118b5565b6000826001600160a01b0316826040516110b69061164c565b60006040518083038185875af1925050503d80600081146110f3576040519150601f19603f3d011682016040523d82523d6000602084013e6110f8565b606091505b5050905080610e835760405162461bcd60e51b815260040161012a90611858565b6000818484111561113d5760405162461bcd60e51b815260040161012a9190611825565b505050900390565b6060611154848460008561115c565b949350505050565b60608247101561117e5760405162461bcd60e51b815260040161012a906118ec565b60006060866001600160a01b0316858760405161119b9190611630565b60006040518083038185875af1925050503d80600081146111d8576040519150601f19603f3d011682016040523d82523d6000602084013e6111dd565b606091505b50915091506111ed8282866111f8565b979650505050505050565b60608315611207575081610c46565b8251156112175782518084602001fd5b8160405162461bcd60e51b815260040161012a9190611825565b8035610a8c816119b1565b600082601f83011261124c578081fd5b813567ffffffffffffffff80821115611263578283fd5b602080830260405182828201018181108582111715611280578687fd5b6040528481529450818501925085820181870183018810156112a157600080fd5b600091505b848210156112cc576112b88882611231565b8452928201926001919091019082016112a6565b505050505092915050565b60008083601f8401126112e8578182fd5b50813567ffffffffffffffff8111156112ff578182fd5b602083019150836020808302850101111561131957600080fd5b9250929050565b600060208284031215611331578081fd5b8135610c46816119b1565b60006020828403121561134d578081fd5b8151610c46816119b1565b6000806000806080858703121561136d578283fd5b8435611378816119b1565b93506020850135611388816119b1565b92506040850135611398816119b1565b9396929550929360600135925050565b600080600080600060a086880312156113bf578081fd5b85356113ca816119b1565b945060208601356113da816119b1565b935060408601356113ea816119b1565b9250606086013591506080860135611401816119c6565b809150509295509295909350565b600080600080600080600060e0888a031215611429578182fd5b8735611434816119b1565b96506020880135611444816119b1565b95506040880135611454816119b1565b9450606088013593506080880135925060a0880135611472816119c6565b915060c0880135611482816119b1565b8091505092959891949750929550565b600080604083850312156114a4578182fd5b82356114af816119b1565b946020939093013593505050565b6000806000806000608086880312156114d4578081fd5b853567ffffffffffffffff808211156114eb578283fd5b6114f789838a0161123c565b96506020880135955060408801359150611510826119b1565b90935060608701359080821115611525578283fd5b50611532888289016112d7565b969995985093965092949392505050565b60008060008060008060a0878903121561155b578182fd5b863567ffffffffffffffff80821115611572578384fd5b61157e8a838b0161123c565b975060208901359650604089013595506060890135915061159e826119b1565b909350608088013590808211156115b3578384fd5b506115c089828a016112d7565b979a9699509497509295939492505050565b6000602082840312156115e3578081fd5b8151610c46816119c6565b6000602082840312156115ff578081fd5b5051919050565b60008284528282602086013780602084860101526020601f19601f85011685010190509392505050565b60008251611642818460208701611985565b9190910192915050565b90565b6001600160a01b0391909116815260200190565b6001600160a01b03958616815293851660208501529190931660408301526060820192909252608081019190915260a00190565b6001600160a01b0392831681529116602082015260400190565b6001600160a01b0393841681529183166020830152909116604082015260600190565b6001600160a01b03958616815293851660208501529190931660408301526060820192909252901515608082015260a00190565b6001600160a01b0397881681529587166020870152938616604086015260608501929092526080840152151560a083015290911660c082015260e00190565b6001600160a01b039384168152919092166020820152604081019190915260600190565b6001600160a01b03929092168252602082015260400190565b602080825281810183905260009060408482028401810190840186845b8781101561180d57868403603f190183528135368a9003601e190181126117c6578687fd5b8901803567ffffffffffffffff8111156117de578788fd5b8036038b13156117ec578788fd5b6117f98682898501611606565b9550505091840191908401906001016117a1565b5091979650505050505050565b901515815260200190565b6000602082528251806020840152611844816040850160208701611985565b601f01601f19169190910160400192915050565b6020808252603a908201527f416464726573733a20756e61626c6520746f2073656e642076616c75652c207260408201527f6563697069656e74206d61792068617665207265766572746564000000000000606082015260800190565b6020808252601d908201527f416464726573733a20696e73756666696369656e742062616c616e6365000000604082015260600190565b60208082526026908201527f416464726573733a20696e73756666696369656e742062616c616e636520666f6040820152651c8818d85b1b60d21b606082015260800190565b6020808252602a908201527f5361666545524332303a204552433230206f7065726174696f6e20646964206e6040820152691bdd081cdd58d8d9595960b21b606082015260800190565b90815260200190565b60005b838110156119a0578181015183820152602001611988565b838111156103eb5750506000910152565b6001600160a01b0381168114610cae57600080fd5b8015158114610cae57600080fdfecd3829a3813dc3cdd188fd3d01dcf3268c16be2fdd2dd21d0665418816e46062a2646970667358221220e2d847f2b2f0ac0dc7ce7601f9a167c3ce9cd4d14bd4bf7f25902bc518bd98e264736f6c634300060c0033",
  "devdoc": {
    "kind": "dev",
    "methods": {},
    "version": 1
  },
  "userdoc": {
    "kind": "user",
    "methods": {},
    "version": 1
  },
  "storageLayout": {
    "storage": [
      {
        "astId": 12402,
        "contract": "contracts/core/Router.sol:Router",
        "label": "gov",
        "offset": 0,
        "slot": "0",
        "type": "t_address"
      },
      {
        "astId": 12404,
        "contract": "contracts/core/Router.sol:Router",
        "label": "weth",
        "offset": 0,
        "slot": "1",
        "type": "t_address"
      },
      {
        "astId": 12406,
        "contract": "contracts/core/Router.sol:Router",
        "label": "zkusd",
        "offset": 0,
        "slot": "2",
        "type": "t_address"
      },
      {
        "astId": 12408,
        "contract": "contracts/core/Router.sol:Router",
        "label": "vault",
        "offset": 0,
        "slot": "3",
        "type": "t_address"
      },
      {
        "astId": 12412,
        "contract": "contracts/core/Router.sol:Router",
        "label": "plugins",
        "offset": 0,
        "slot": "4",
        "type": "t_mapping(t_address,t_bool)"
      },
      {
        "astId": 291,
        "contract": "contracts/core/Router.sol:Router",
        "label": "_IVault",
        "offset": 0,
        "slot": "5",
        "type": "t_contract(IVault)7577"
      }
    ],
    "types": {
      "t_address": {
        "encoding": "inplace",
        "label": "address",
        "numberOfBytes": "20"
      },
      "t_bool": {
        "encoding": "inplace",
        "label": "bool",
        "numberOfBytes": "1"
      },
      "t_contract(IVault)7577": {
        "encoding": "inplace",
        "label": "contract IVault",
        "numberOfBytes": "20"
      },
      "t_mapping(t_address,t_bool)": {
        "encoding": "mapping",
        "key": "t_address",
        "label": "mapping(address => bool)",
        "numberOfBytes": "32",
        "value": "t_bool"
      }
    }
  }
}