{
  "address": "0x10aA87B5cc111a0Db66C02ca884baf7A8dCf2638",
  "abi": [
    {
      "inputs": [
        {
          "internalType": "string",
          "name": "_n",
          "type": "string"
        },
        {
          "internalType": "uint8",
          "name": "_dc",
          "type": "uint8"
        },
        {
          "internalType": "uint256",
          "name": "_faucetTotal",
          "type": "uint256"
        },
        {
          "internalType": "uint256",
          "name": "_faucetAmount",
          "type": "uint256"
        },
        {
          "internalType": "uint256",
          "name": "_interval",
          "type": "uint256"
        }
      ],
      "stateMutability": "nonpayable",
      "type": "constructor"
    },
    {
      "anonymous": false,
      "inputs": [
        {
          "indexed": true,
          "internalType": "address",
          "name": "owner",
          "type": "address"
        },
        {
          "indexed": true,
          "internalType": "address",
          "name": "spender",
          "type": "address"
        },
        {
          "indexed": false,
          "internalType": "uint256",
          "name": "value",
          "type": "uint256"
        }
      ],
      "name": "Approval",
      "type": "event"
    },
    {
      "anonymous": false,
      "inputs": [
        {
          "indexed": true,
          "internalType": "address",
          "name": "from",
          "type": "address"
        },
        {
          "indexed": true,
          "internalType": "address",
          "name": "to",
          "type": "address"
        },
        {
          "indexed": false,
          "internalType": "uint256",
          "name": "value",
          "type": "uint256"
        }
      ],
      "name": "Transfer",
      "type": "event"
    },
    {
      "inputs": [
        {
          "internalType": "address",
          "name": "owner",
          "type": "address"
        },
        {
          "internalType": "address",
          "name": "spender",
          "type": "address"
        }
      ],
      "name": "allowance",
      "outputs": [
        {
          "internalType": "uint256",
          "name": "",
          "type": "uint256"
        }
      ],
      "stateMutability": "view",
      "type": "function"
    },
    {
      "inputs": [
        {
          "internalType": "address",
          "name": "spender",
          "type": "address"
        },
        {
          "internalType": "uint256",
          "name": "amount",
          "type": "uint256"
        }
      ],
      "name": "approve",
      "outputs": [
        {
          "internalType": "bool",
          "name": "",
          "type": "bool"
        }
      ],
      "stateMutability": "nonpayable",
      "type": "function"
    },
    {
      "inputs": [
        {
          "internalType": "address",
          "name": "account",
          "type": "address"
        }
      ],
      "name": "balanceOf",
      "outputs": [
        {
          "internalType": "uint256",
          "name": "",
          "type": "uint256"
        }
      ],
      "stateMutability": "view",
      "type": "function"
    },
    {
      "inputs": [
        {
          "internalType": "address",
          "name": "account",
          "type": "address"
        },
        {
          "internalType": "uint256",
          "name": "amount",
          "type": "uint256"
        }
      ],
      "name": "burn",
      "outputs": [],
      "stateMutability": "nonpayable",
      "type": "function"
    },
    {
      "inputs": [],
      "name": "decimals",
      "outputs": [
        {
          "internalType": "uint8",
          "name": "",
          "type": "uint8"
        }
      ],
      "stateMutability": "view",
      "type": "function"
    },
    {
      "inputs": [
        {
          "internalType": "address",
          "name": "spender",
          "type": "address"
        },
        {
          "internalType": "uint256",
          "name": "subtractedValue",
          "type": "uint256"
        }
      ],
      "name": "decreaseAllowance",
      "outputs": [
        {
          "internalType": "bool",
          "name": "",
          "type": "bool"
        }
      ],
      "stateMutability": "nonpayable",
      "type": "function"
    },
    {
      "inputs": [],
      "name": "deposit",
      "outputs": [],
      "stateMutability": "payable",
      "type": "function"
    },
    {
      "inputs": [],
      "name": "faucet",
      "outputs": [],
      "stateMutability": "nonpayable",
      "type": "function"
    },
    {
      "inputs": [],
      "name": "faucetAmount",
      "outputs": [
        {
          "internalType": "uint256",
          "name": "",
          "type": "uint256"
        }
      ],
      "stateMutability": "view",
      "type": "function"
    },
    {
      "inputs": [],
      "name": "faucetTotal",
      "outputs": [
        {
          "internalType": "uint256",
          "name": "",
          "type": "uint256"
        }
      ],
      "stateMutability": "view",
      "type": "function"
    },
    {
      "inputs": [],
      "name": "giveawayTotal",
      "outputs": [
        {
          "internalType": "uint256",
          "name": "",
          "type": "uint256"
        }
      ],
      "stateMutability": "view",
      "type": "function"
    },
    {
      "inputs": [
        {
          "internalType": "address",
          "name": "spender",
          "type": "address"
        },
        {
          "internalType": "uint256",
          "name": "addedValue",
          "type": "uint256"
        }
      ],
      "name": "increaseAllowance",
      "outputs": [
        {
          "internalType": "bool",
          "name": "",
          "type": "bool"
        }
      ],
      "stateMutability": "nonpayable",
      "type": "function"
    },
    {
      "inputs": [],
      "name": "interval",
      "outputs": [
        {
          "internalType": "uint256",
          "name": "",
          "type": "uint256"
        }
      ],
      "stateMutability": "view",
      "type": "function"
    },
    {
      "inputs": [
        {
          "internalType": "address",
          "name": "account",
          "type": "address"
        },
        {
          "internalType": "uint256",
          "name": "amount",
          "type": "uint256"
        }
      ],
      "name": "mint",
      "outputs": [],
      "stateMutability": "nonpayable",
      "type": "function"
    },
    {
      "inputs": [],
      "name": "name",
      "outputs": [
        {
          "internalType": "string",
          "name": "",
          "type": "string"
        }
      ],
      "stateMutability": "view",
      "type": "function"
    },
    {
      "inputs": [],
      "name": "openMint",
      "outputs": [
        {
          "internalType": "bool",
          "name": "",
          "type": "bool"
        }
      ],
      "stateMutability": "view",
      "type": "function"
    },
    {
      "inputs": [
        {
          "internalType": "uint256",
          "name": "_faucetAmount",
          "type": "uint256"
        }
      ],
      "name": "setFaucetAmount",
      "outputs": [],
      "stateMutability": "nonpayable",
      "type": "function"
    },
    {
      "inputs": [
        {
          "internalType": "uint256",
          "name": "_faucetTotal",
          "type": "uint256"
        }
      ],
      "name": "setFaucetTotal",
      "outputs": [],
      "stateMutability": "nonpayable",
      "type": "function"
    },
    {
      "inputs": [
        {
          "internalType": "uint256",
          "name": "_inverval",
          "type": "uint256"
        }
      ],
      "name": "setInterval",
      "outputs": [],
      "stateMutability": "nonpayable",
      "type": "function"
    },
    {
      "inputs": [
        {
          "internalType": "bool",
          "name": "open",
          "type": "bool"
        }
      ],
      "name": "setOpenMint",
      "outputs": [],
      "stateMutability": "nonpayable",
      "type": "function"
    },
    {
      "inputs": [],
      "name": "symbol",
      "outputs": [
        {
          "internalType": "string",
          "name": "",
          "type": "string"
        }
      ],
      "stateMutability": "view",
      "type": "function"
    },
    {
      "inputs": [],
      "name": "totalSupply",
      "outputs": [
        {
          "internalType": "uint256",
          "name": "",
          "type": "uint256"
        }
      ],
      "stateMutability": "view",
      "type": "function"
    },
    {
      "inputs": [
        {
          "internalType": "address",
          "name": "recipient",
          "type": "address"
        },
        {
          "internalType": "uint256",
          "name": "amount",
          "type": "uint256"
        }
      ],
      "name": "transfer",
      "outputs": [
        {
          "internalType": "bool",
          "name": "",
          "type": "bool"
        }
      ],
      "stateMutability": "nonpayable",
      "type": "function"
    },
    {
      "inputs": [
        {
          "internalType": "address",
          "name": "sender",
          "type": "address"
        },
        {
          "internalType": "address",
          "name": "recipient",
          "type": "address"
        },
        {
          "internalType": "uint256",
          "name": "amount",
          "type": "uint256"
        }
      ],
      "name": "transferFrom",
      "outputs": [
        {
          "internalType": "bool",
          "name": "",
          "type": "bool"
        }
      ],
      "stateMutability": "nonpayable",
      "type": "function"
    },
    {
      "inputs": [
        {
          "internalType": "uint256",
          "name": "amount",
          "type": "uint256"
        }
      ],
      "name": "withdraw",
      "outputs": [],
      "stateMutability": "nonpayable",
      "type": "function"
    },
    {
      "inputs": [
        {
          "internalType": "address",
          "name": "token",
          "type": "address"
        },
        {
          "internalType": "address",
          "name": "account",
          "type": "address"
        },
        {
          "internalType": "uint256",
          "name": "amount",
          "type": "uint256"
        }
      ],
      "name": "withdrawToken",
      "outputs": [],
      "stateMutability": "nonpayable",
      "type": "function"
    }
  ],
  "transactionHash": "0xb6e560afcc76ac03575265881a499daa7b04a545d0592c6755666dd684294897",
  "args": [
    "WETH",
    18,
    0,
    0,
    0
  ],
  "numDeployments": 1,
  "solcInputHash": "45f986e69ef0b1c3adec9bb2994aea31",
  "bytecode": "0x6080604052600a805460ff191690553480156200001b57600080fd5b50604051620016b2380380620016b2833981810160405260a08110156200004157600080fd5b81019080805160405193929190846401000000008211156200006257600080fd5b9083019060208201858111156200007857600080fd5b82516401000000008111828201881017156200009357600080fd5b82525081516020918201929091019080838360005b83811015620000c2578181015183820152602001620000a8565b50505050905090810190601f168015620000f05780820380516001836020036101000a031916815260200191505b5060409081526020828101519183015160608401516080909401518751939650909450916200012691600391908801906200017b565b5084516200013c9060049060208801906200017b565b506005805460069290925560079390935560089190915560ff191660ff9290921691909117610100600160a81b03191661010033021790555062000217565b828054600181600116156101000203166002900490600052602060002090601f016020900481019282601f10620001be57805160ff1916838001178555620001ee565b82800160010185558215620001ee579182015b82811115620001ee578251825591602001919060010190620001d1565b50620001fc92915062000200565b5090565b5b80821115620001fc576000815560010162000201565b61148b80620002276000396000f3fe6080604052600436106101615760003560e01c806381d2fd9c116100c1578063a457c2d71161007a578063a457c2d714610506578063a9059cbb1461053f578063bce6d67214610578578063d0e30db01461058d578063dd62ed3e14610595578063de5f72fd146105d0578063e2af30f4146105e557610161565b806381d2fd9c1461043a578063947a36fb1461046457806395d89b41146104795780639c2814301461048e5780639dc29fac146104a3578063a01c2d71146104dc57610161565b8063294e4c661161011e578063294e4c66146103165780632e1a7d4d1461032b578063313ce56714610355578063395093511461038057806340c10f19146103b95780634c303cb2146103f257806370a082311461040757610161565b806301e336671461016657806306fdde03146101ab578063095ea7b31461023557806318160ddd1461028257806322a90082146102a957806323b872dd146102d3575b600080fd5b34801561017257600080fd5b506101a96004803603606081101561018957600080fd5b506001600160a01b03813581169160208101359091169060400135610611565b005b3480156101b757600080fd5b506101c0610699565b6040805160208082528351818301528351919283929083019185019080838360005b838110156101fa5781810151838201526020016101e2565b50505050905090810190601f1680156102275780820380516001836020036101000a031916815260200191505b509250505060405180910390f35b34801561024157600080fd5b5061026e6004803603604081101561025857600080fd5b506001600160a01b03813516906020013561072f565b604080519115158252519081900360200190f35b34801561028e57600080fd5b5061029761074c565b60408051918252519081900360200190f35b3480156102b557600080fd5b506101a9600480360360208110156102cc57600080fd5b5035610752565b3480156102df57600080fd5b5061026e600480360360608110156102f657600080fd5b506001600160a01b038135811691602081013590911690604001356107c0565b34801561032257600080fd5b50610297610847565b34801561033757600080fd5b506101a96004803603602081101561034e57600080fd5b503561084d565b34801561036157600080fd5b5061036a610953565b6040805160ff9092168252519081900360200190f35b34801561038c57600080fd5b5061026e600480360360408110156103a357600080fd5b506001600160a01b03813516906020013561095c565b3480156103c557600080fd5b506101a9600480360360408110156103dc57600080fd5b506001600160a01b0381351690602001356109aa565b3480156103fe57600080fd5b50610297610a27565b34801561041357600080fd5b506102976004803603602081101561042a57600080fd5b50356001600160a01b0316610a2d565b34801561044657600080fd5b506101a96004803603602081101561045d57600080fd5b5035610a48565b34801561047057600080fd5b50610297610ab6565b34801561048557600080fd5b506101c0610abc565b34801561049a57600080fd5b50610297610b1d565b3480156104af57600080fd5b506101a9600480360360408110156104c657600080fd5b506001600160a01b038135169060200135610b23565b3480156104e857600080fd5b506101a9600480360360208110156104ff57600080fd5b5035610b96565b34801561051257600080fd5b5061026e6004803603604081101561052957600080fd5b506001600160a01b038135169060200135610b9b565b34801561054b57600080fd5b5061026e6004803603604081101561056257600080fd5b506001600160a01b038135169060200135610c03565b34801561058457600080fd5b5061026e610c17565b6101a9610c20565b3480156105a157600080fd5b50610297600480360360408110156105b857600080fd5b506001600160a01b0381358116916020013516610c2c565b3480156105dc57600080fd5b506101a9610c57565b3480156105f157600080fd5b506101a96004803603602081101561060857600080fd5b50351515610d9e565b826001600160a01b031663a9059cbb83836040518363ffffffff1660e01b815260040180836001600160a01b0316815260200182815260200192505050602060405180830381600087803b15801561066857600080fd5b505af115801561067c573d6000803e3d6000fd5b505050506040513d602081101561069257600080fd5b5050505050565b60038054604080516020601f60026000196101006001881615020190951694909404938401819004810282018101909252828152606093909290918301828280156107255780601f106106fa57610100808354040283529160200191610725565b820191906000526020600020905b81548152906001019060200180831161070857829003601f168201915b5050505050905090565b600061074361073c610db1565b8484610db5565b50600192915050565b60025490565b61075a610db1565b60055461010090046001600160a01b039081169116146107bb576040805162461bcd60e51b815260206004820152601760248201527621b0b63632b91034b9903737ba103a34329037bbb732b960491b604482015290519081900360640190fd5b600655565b60006107cd848484610ea1565b61083d846107d9610db1565b6108388560405180606001604052806028815260200161137f602891396001600160a01b038a16600090815260016020526040812090610817610db1565b6001600160a01b031681526020810191909152604001600020549190610fea565b610db5565b5060019392505050565b60095481565b336000908152602081905260409020548111156108b1576040805162461bcd60e51b815260206004820152601b60248201527f546f6b656e3a20696e73756666696369656e742062616c616e63650000000000604482015290519081900360640190fd5b6108bb3382611081565b604051600090339083908381818185875af1925050503d80600081146108fd576040519150601f19603f3d011682016040523d82523d6000602084013e610902565b606091505b505090508061094f576040805162461bcd60e51b81526020600482015260146024820152733330b4b632b2103a379039b2b7321032ba3432b960611b604482015290519081900360640190fd5b5050565b60055460ff1690565b6000610743610969610db1565b84610838856001600061097a610db1565b6001600160a01b03908116825260208083019390935260409182016000908120918c16815292529020549061116b565b600a5460ff16610a1d576109bc610db1565b60055461010090046001600160a01b03908116911614610a1d576040805162461bcd60e51b815260206004820152601760248201527621b0b63632b91034b9903737ba103a34329037bbb732b960491b604482015290519081900360640190fd5b61094f82826111cc565b60075481565b6001600160a01b031660009081526020819052604090205490565b610a50610db1565b60055461010090046001600160a01b03908116911614610ab1576040805162461bcd60e51b815260206004820152601760248201527621b0b63632b91034b9903737ba103a34329037bbb732b960491b604482015290519081900360640190fd5b600855565b60065481565b60048054604080516020601f60026000196101006001881615020190951694909404938401819004810282018101909252828152606093909290918301828280156107255780601f106106fa57610100808354040283529160200191610725565b60085481565b610b2b610db1565b60055461010090046001600160a01b03908116911614610b8c576040805162461bcd60e51b815260206004820152601760248201527621b0b63632b91034b9903737ba103a34329037bbb732b960491b604482015290519081900360640190fd5b61094f8282611081565b600755565b6000610743610ba8610db1565b84610838856040518060600160405280602581526020016114316025913960016000610bd2610db1565b6001600160a01b03908116825260208083019390935260409182016000908120918d16815292529020549190610fea565b6000610743610c10610db1565b8484610ea1565b600a5460ff1681565b610c2a33346111cc565b565b6001600160a01b03918216600090815260016020908152604080832093909416825291909152205490565b600060085411610cae576040805162461bcd60e51b815260206004820152601a60248201527f466175636574206973206e6f7420656e61626c6564206e6f772e000000000000604482015290519081900360640190fd5b600854600954016007541015610d0b576040805162461bcd60e51b815260206004820152601a60248201527f4661756365742069732072756e6e696e67206f7574206e6f772e000000000000604482015290519081900360640190fd5b600654336000908152600b602052604090205442031015610d73576040805162461bcd60e51b815260206004820152601f60248201527f46617563657420696e74657276616c206973206e6f7420657870697265642e00604482015290519081900360640190fd5b60088054600980549091019055336000818152600b602052604090204290559054610c2a91906111cc565b600a805460ff1916911515919091179055565b3390565b6001600160a01b038316610dfa5760405162461bcd60e51b815260040180806020018281038252602481526020018061140d6024913960400191505060405180910390fd5b6001600160a01b038216610e3f5760405162461bcd60e51b81526004018080602001828103825260228152602001806113376022913960400191505060405180910390fd5b6001600160a01b03808416600081815260016020908152604080832094871680845294825291829020859055815185815291517f8c5be1e5ebec7d5bd14f71427d1e84f3dd0314c0f7b2291e5b200ac8c7c3b9259281900390910190a3505050565b6001600160a01b038316610ee65760405162461bcd60e51b81526004018080602001828103825260258152602001806113e86025913960400191505060405180910390fd5b6001600160a01b038216610f2b5760405162461bcd60e51b81526004018080602001828103825260238152602001806112f26023913960400191505060405180910390fd5b610f368383836112aa565b610f7381604051806060016040528060268152602001611359602691396001600160a01b0386166000908152602081905260409020549190610fea565b6001600160a01b038085166000908152602081905260408082209390935590841681522054610fa2908261116b565b6001600160a01b038084166000818152602081815260409182902094909455805185815290519193928716926000805160206113a783398151915292918290030190a3505050565b600081848411156110795760405162461bcd60e51b81526004018080602001828103825283818151815260200191508051906020019080838360005b8381101561103e578181015183820152602001611026565b50505050905090810190601f16801561106b5780820380516001836020036101000a031916815260200191505b509250505060405180910390fd5b505050900390565b6001600160a01b0382166110c65760405162461bcd60e51b81526004018080602001828103825260218152602001806113c76021913960400191505060405180910390fd5b6110d2826000836112aa565b61110f81604051806060016040528060228152602001611315602291396001600160a01b0385166000908152602081905260409020549190610fea565b6001600160a01b03831660009081526020819052604090205560025461113590826112af565b6002556040805182815290516000916001600160a01b038516916000805160206113a78339815191529181900360200190a35050565b6000828201838110156111c5576040805162461bcd60e51b815260206004820152601b60248201527f536166654d6174683a206164646974696f6e206f766572666c6f770000000000604482015290519081900360640190fd5b9392505050565b6001600160a01b038216611227576040805162461bcd60e51b815260206004820152601f60248201527f45524332303a206d696e7420746f20746865207a65726f206164647265737300604482015290519081900360640190fd5b611233600083836112aa565b600254611240908261116b565b6002556001600160a01b038216600090815260208190526040902054611266908261116b565b6001600160a01b0383166000818152602081815260408083209490945583518581529351929391926000805160206113a78339815191529281900390910190a35050565b505050565b60006111c583836040518060400160405280601e81526020017f536166654d6174683a207375627472616374696f6e206f766572666c6f770000815250610fea56fe45524332303a207472616e7366657220746f20746865207a65726f206164647265737345524332303a206275726e20616d6f756e7420657863656564732062616c616e636545524332303a20617070726f766520746f20746865207a65726f206164647265737345524332303a207472616e7366657220616d6f756e7420657863656564732062616c616e636545524332303a207472616e7366657220616d6f756e74206578636565647320616c6c6f77616e6365ddf252ad1be2c89b69c2b068fc378daa952ba7f163c4a11628f55a4df523b3ef45524332303a206275726e2066726f6d20746865207a65726f206164647265737345524332303a207472616e736665722066726f6d20746865207a65726f206164647265737345524332303a20617070726f76652066726f6d20746865207a65726f206164647265737345524332303a2064656372656173656420616c6c6f77616e63652062656c6f77207a65726fa26469706673582212206377a75276f39d9cbfc619a8bf28eb58afa3b4b0fbc1df2a4edf070e5e96966d64736f6c634300060c0033",
  "devdoc": {
    "details": "Implementation of the {IERC20} interface. This implementation is agnostic to the way tokens are created. This means that a supply mechanism has to be added in a derived contract using {_mint}. For a generic mechanism see {ERC20PresetMinterPauser}. TIP: For a detailed writeup see our guide https://forum.zeppelin.solutions/t/how-to-implement-erc20-supply-mechanisms/226[How to implement supply mechanisms]. We have followed general OpenZeppelin guidelines: functions revert instead of returning `false` on failure. This behavior is nonetheless conventional and does not conflict with the expectations of ERC20 applications. Additionally, an {Approval} event is emitted on calls to {transferFrom}. This allows applications to reconstruct the allowance for all accounts just by listening to said events. Other implementations of the EIP may not emit these events, as it isn't required by the specification. Finally, the non-standard {decreaseAllowance} and {increaseAllowance} functions have been added to mitigate the well-known issues around setting allowances. See {IERC20-approve}.",
    "kind": "dev",
    "methods": {
      "allowance(address,address)": {
        "details": "See {IERC20-allowance}."
      },
      "approve(address,uint256)": {
        "details": "See {IERC20-approve}. Requirements: - `spender` cannot be the zero address."
      },
      "balanceOf(address)": {
        "details": "See {IERC20-balanceOf}."
      },
      "constructor": {
        "details": "Sets the values for {name} and {symbol}, initializes {decimals} with a default value of 18. To select a different value for {decimals}, use {_setupDecimals}. All three of these values are immutable: they can only be set once during construction."
      },
      "decimals()": {
        "details": "Returns the number of decimals used to get its user representation. For example, if `decimals` equals `2`, a balance of `505` tokens should be displayed to a user as `5,05` (`505 / 10 ** 2`). Tokens usually opt for a value of 18, imitating the relationship between Ether and Wei. This is the value {ERC20} uses, unless {_setupDecimals} is called. NOTE: This information is only used for _display_ purposes: it in no way affects any of the arithmetic of the contract, including {IERC20-balanceOf} and {IERC20-transfer}."
      },
      "decreaseAllowance(address,uint256)": {
        "details": "Atomically decreases the allowance granted to `spender` by the caller. This is an alternative to {approve} that can be used as a mitigation for problems described in {IERC20-approve}. Emits an {Approval} event indicating the updated allowance. Requirements: - `spender` cannot be the zero address. - `spender` must have allowance for the caller of at least `subtractedValue`."
      },
      "increaseAllowance(address,uint256)": {
        "details": "Atomically increases the allowance granted to `spender` by the caller. This is an alternative to {approve} that can be used as a mitigation for problems described in {IERC20-approve}. Emits an {Approval} event indicating the updated allowance. Requirements: - `spender` cannot be the zero address."
      },
      "name()": {
        "details": "Returns the name of the token."
      },
      "symbol()": {
        "details": "Returns the symbol of the token, usually a shorter version of the name."
      },
      "totalSupply()": {
        "details": "See {IERC20-totalSupply}."
      },
      "transfer(address,uint256)": {
        "details": "See {IERC20-transfer}. Requirements: - `recipient` cannot be the zero address. - the caller must have a balance of at least `amount`."
      },
      "transferFrom(address,address,uint256)": {
        "details": "See {IERC20-transferFrom}. Emits an {Approval} event indicating the updated allowance. This is not required by the EIP. See the note at the beginning of {ERC20}. Requirements: - `sender` and `recipient` cannot be the zero address. - `sender` must have a balance of at least `amount`. - the caller must have allowance for ``sender``'s tokens of at least `amount`."
      }
    },
    "version": 1
  },
  "userdoc": {
    "kind": "user",
    "methods": {},
    "version": 1
  },
  "storageLayout": {
    "storage": [
      {
        "astId": 15521,
        "contract": "contracts/mock/Token.sol:Token",
        "label": "_balances",
        "offset": 0,
        "slot": "0",
        "type": "t_mapping(t_address,t_uint256)"
      },
      {
        "astId": 15527,
        "contract": "contracts/mock/Token.sol:Token",
        "label": "_allowances",
        "offset": 0,
        "slot": "1",
        "type": "t_mapping(t_address,t_mapping(t_address,t_uint256))"
      },
      {
        "astId": 15529,
        "contract": "contracts/mock/Token.sol:Token",
        "label": "_totalSupply",
        "offset": 0,
        "slot": "2",
        "type": "t_uint256"
      },
      {
        "astId": 15531,
        "contract": "contracts/mock/Token.sol:Token",
        "label": "_name",
        "offset": 0,
        "slot": "3",
        "type": "t_string_storage"
      },
      {
        "astId": 15533,
        "contract": "contracts/mock/Token.sol:Token",
        "label": "_symbol",
        "offset": 0,
        "slot": "4",
        "type": "t_string_storage"
      },
      {
        "astId": 15535,
        "contract": "contracts/mock/Token.sol:Token",
        "label": "_decimals",
        "offset": 0,
        "slot": "5",
        "type": "t_uint8"
      },
      {
        "astId": 15537,
        "contract": "contracts/mock/Token.sol:Token",
        "label": "_owner",
        "offset": 1,
        "slot": "5",
        "type": "t_address"
      },
      {
        "astId": 15539,
        "contract": "contracts/mock/Token.sol:Token",
        "label": "interval",
        "offset": 0,
        "slot": "6",
        "type": "t_uint256"
      },
      {
        "astId": 15541,
        "contract": "contracts/mock/Token.sol:Token",
        "label": "faucetTotal",
        "offset": 0,
        "slot": "7",
        "type": "t_uint256"
      },
      {
        "astId": 15543,
        "contract": "contracts/mock/Token.sol:Token",
        "label": "faucetAmount",
        "offset": 0,
        "slot": "8",
        "type": "t_uint256"
      },
      {
        "astId": 15545,
        "contract": "contracts/mock/Token.sol:Token",
        "label": "giveawayTotal",
        "offset": 0,
        "slot": "9",
        "type": "t_uint256"
      },
      {
        "astId": 15548,
        "contract": "contracts/mock/Token.sol:Token",
        "label": "openMint",
        "offset": 0,
        "slot": "10",
        "type": "t_bool"
      },
      {
        "astId": 15552,
        "contract": "contracts/mock/Token.sol:Token",
        "label": "accountLastTime",
        "offset": 0,
        "slot": "11",
        "type": "t_mapping(t_address,t_uint256)"
      }
    ],
    "types": {
      "t_address": {
        "encoding": "inplace",
        "label": "address",
        "numberOfBytes": "20"
      },
      "t_bool": {
        "encoding": "inplace",
        "label": "bool",
        "numberOfBytes": "1"
      },
      "t_mapping(t_address,t_mapping(t_address,t_uint256))": {
        "encoding": "mapping",
        "key": "t_address",
        "label": "mapping(address => mapping(address => uint256))",
        "numberOfBytes": "32",
        "value": "t_mapping(t_address,t_uint256)"
      },
      "t_mapping(t_address,t_uint256)": {
        "encoding": "mapping",
        "key": "t_address",
        "label": "mapping(address => uint256)",
        "numberOfBytes": "32",
        "value": "t_uint256"
      },
      "t_string_storage": {
        "encoding": "bytes",
        "label": "string",
        "numberOfBytes": "32"
      },
      "t_uint256": {
        "encoding": "inplace",
        "label": "uint256",
        "numberOfBytes": "32"
      },
      "t_uint8": {
        "encoding": "inplace",
        "label": "uint8",
        "numberOfBytes": "1"
      }
    }
  }
}