{
  "address": "0x14a4e13efb2ad55B18E371a59aeCA54f8b691D5d",
  "abi": [
    {
      "inputs": [
        {
          "internalType": "address",
          "name": "_vault",
          "type": "address"
        },
        {
          "internalType": "address",
          "name": "_zkusd",
          "type": "address"
        },
        {
          "internalType": "address",
          "name": "_zkdlp",
          "type": "address"
        },
        {
          "internalType": "address",
          "name": "_shortsTracker",
          "type": "address"
        },
        {
          "internalType": "uint256",
          "name": "_cooldownDuration",
          "type": "uint256"
        }
      ],
      "stateMutability": "nonpayable",
      "type": "constructor"
    },
    {
      "inputs": [
        {
          "internalType": "address",
          "name": "_fundingAccount",
          "type": "address"
        },
        {
          "internalType": "address",
          "name": "_account",
          "type": "address"
        },
        {
          "internalType": "address",
          "name": "_token",
          "type": "address"
        },
        {
          "internalType": "uint256",
          "name": "_amount",
          "type": "uint256"
        },
        {
          "internalType": "uint256",
          "name": "_minZkusd",
          "type": "uint256"
        },
        {
          "internalType": "uint256",
          "name": "_minZkdlp",
          "type": "uint256"
        }
      ],
      "name": "addLiquidityForAccount",
      "outputs": [
        {
          "internalType": "uint256",
          "name": "",
          "type": "uint256"
        }
      ],
      "stateMutability": "nonpayable",
      "type": "function"
    },
    {
      "inputs": [],
      "name": "aumAddition",
      "outputs": [
        {
          "internalType": "uint256",
          "name": "",
          "type": "uint256"
        }
      ],
      "stateMutability": "view",
      "type": "function"
    },
    {
      "inputs": [],
      "name": "aumDeduction",
      "outputs": [
        {
          "internalType": "uint256",
          "name": "",
          "type": "uint256"
        }
      ],
      "stateMutability": "view",
      "type": "function"
    },
    {
      "inputs": [],
      "name": "cooldownDuration",
      "outputs": [
        {
          "internalType": "uint256",
          "name": "",
          "type": "uint256"
        }
      ],
      "stateMutability": "view",
      "type": "function"
    },
    {
      "inputs": [
        {
          "internalType": "bool",
          "name": "maximise",
          "type": "bool"
        },
        {
          "internalType": "bool",
          "name": "fresh",
          "type": "bool"
        }
      ],
      "name": "getAum",
      "outputs": [
        {
          "internalType": "uint256",
          "name": "",
          "type": "uint256"
        }
      ],
      "stateMutability": "view",
      "type": "function"
    },
    {
      "inputs": [
        {
          "internalType": "bool",
          "name": "maximise",
          "type": "bool"
        }
      ],
      "name": "getAumInZkusd",
      "outputs": [
        {
          "internalType": "uint256",
          "name": "",
          "type": "uint256"
        }
      ],
      "stateMutability": "view",
      "type": "function"
    },
    {
      "inputs": [],
      "name": "getAums",
      "outputs": [
        {
          "internalType": "uint256[]",
          "name": "",
          "type": "uint256[]"
        }
      ],
      "stateMutability": "view",
      "type": "function"
    },
    {
      "inputs": [
        {
          "internalType": "address",
          "name": "_token",
          "type": "address"
        }
      ],
      "name": "getGlobalShortAveragePrice",
      "outputs": [
        {
          "internalType": "uint256",
          "name": "",
          "type": "uint256"
        }
      ],
      "stateMutability": "view",
      "type": "function"
    },
    {
      "inputs": [
        {
          "internalType": "address",
          "name": "_token",
          "type": "address"
        },
        {
          "internalType": "uint256",
          "name": "_price",
          "type": "uint256"
        },
        {
          "internalType": "uint256",
          "name": "_size",
          "type": "uint256"
        }
      ],
      "name": "getGlobalShortDelta",
      "outputs": [
        {
          "internalType": "uint256",
          "name": "",
          "type": "uint256"
        },
        {
          "internalType": "bool",
          "name": "",
          "type": "bool"
        }
      ],
      "stateMutability": "view",
      "type": "function"
    },
    {
      "inputs": [
        {
          "internalType": "bool",
          "name": "_maximise",
          "type": "bool"
        }
      ],
      "name": "getPrice",
      "outputs": [
        {
          "internalType": "uint256",
          "name": "",
          "type": "uint256"
        }
      ],
      "stateMutability": "view",
      "type": "function"
    },
    {
      "inputs": [],
      "name": "gov",
      "outputs": [
        {
          "internalType": "address",
          "name": "",
          "type": "address"
        }
      ],
      "stateMutability": "view",
      "type": "function"
    },
    {
      "inputs": [],
      "name": "inPrivateMode",
      "outputs": [
        {
          "internalType": "bool",
          "name": "",
          "type": "bool"
        }
      ],
      "stateMutability": "view",
      "type": "function"
    },
    {
      "inputs": [
        {
          "internalType": "address",
          "name": "",
          "type": "address"
        }
      ],
      "name": "isHandler",
      "outputs": [
        {
          "internalType": "bool",
          "name": "",
          "type": "bool"
        }
      ],
      "stateMutability": "view",
      "type": "function"
    },
    {
      "inputs": [
        {
          "internalType": "address",
          "name": "",
          "type": "address"
        }
      ],
      "name": "lastAddedAt",
      "outputs": [
        {
          "internalType": "uint256",
          "name": "",
          "type": "uint256"
        }
      ],
      "stateMutability": "view",
      "type": "function"
    },
    {
      "inputs": [
        {
          "internalType": "address",
          "name": "_account",
          "type": "address"
        },
        {
          "internalType": "address",
          "name": "_tokenOut",
          "type": "address"
        },
        {
          "internalType": "uint256",
          "name": "_zkdlpAmount",
          "type": "uint256"
        },
        {
          "internalType": "uint256",
          "name": "_minOut",
          "type": "uint256"
        },
        {
          "internalType": "address",
          "name": "_receiver",
          "type": "address"
        }
      ],
      "name": "removeLiquidityForAccount",
      "outputs": [
        {
          "internalType": "uint256",
          "name": "",
          "type": "uint256"
        }
      ],
      "stateMutability": "nonpayable",
      "type": "function"
    },
    {
      "inputs": [
        {
          "internalType": "uint256",
          "name": "_aumAddition",
          "type": "uint256"
        },
        {
          "internalType": "uint256",
          "name": "_aumDeduction",
          "type": "uint256"
        }
      ],
      "name": "setAumAdjustment",
      "outputs": [],
      "stateMutability": "nonpayable",
      "type": "function"
    },
    {
      "inputs": [
        {
          "internalType": "uint256",
          "name": "_cooldownDuration",
          "type": "uint256"
        }
      ],
      "name": "setCooldownDuration",
      "outputs": [],
      "stateMutability": "nonpayable",
      "type": "function"
    },
    {
      "inputs": [
        {
          "internalType": "address",
          "name": "_gov",
          "type": "address"
        }
      ],
      "name": "setGov",
      "outputs": [],
      "stateMutability": "nonpayable",
      "type": "function"
    },
    {
      "inputs": [
        {
          "internalType": "address",
          "name": "_handler",
          "type": "address"
        },
        {
          "internalType": "bool",
          "name": "_isActive",
          "type": "bool"
        }
      ],
      "name": "setHandler",
      "outputs": [],
      "stateMutability": "nonpayable",
      "type": "function"
    },
    {
      "inputs": [
        {
          "internalType": "bool",
          "name": "_inPrivateMode",
          "type": "bool"
        }
      ],
      "name": "setInPrivateMode",
      "outputs": [],
      "stateMutability": "nonpayable",
      "type": "function"
    },
    {
      "inputs": [
        {
          "internalType": "uint256",
          "name": "_shortsTrackerAveragePriceWeight",
          "type": "uint256"
        }
      ],
      "name": "setShortsTrackerAveragePriceWeight",
      "outputs": [],
      "stateMutability": "nonpayable",
      "type": "function"
    },
    {
      "inputs": [],
      "name": "shortsTracker",
      "outputs": [
        {
          "internalType": "contract IShortsTracker",
          "name": "",
          "type": "address"
        }
      ],
      "stateMutability": "view",
      "type": "function"
    },
    {
      "inputs": [],
      "name": "shortsTrackerAveragePriceWeight",
      "outputs": [
        {
          "internalType": "uint256",
          "name": "",
          "type": "uint256"
        }
      ],
      "stateMutability": "view",
      "type": "function"
    },
    {
      "inputs": [],
      "name": "vault",
      "outputs": [
        {
          "internalType": "contract IVault",
          "name": "",
          "type": "address"
        }
      ],
      "stateMutability": "view",
      "type": "function"
    },
    {
      "inputs": [],
      "name": "zkUsd",
      "outputs": [
        {
          "internalType": "address",
          "name": "",
          "type": "address"
        }
      ],
      "stateMutability": "view",
      "type": "function"
    },
    {
      "inputs": [],
      "name": "zkdlp",
      "outputs": [
        {
          "internalType": "address",
          "name": "",
          "type": "address"
        }
      ],
      "stateMutability": "view",
      "type": "function"
    }
  ],
  "transactionHash": "0x3d8816a062e439fcaa9fcd8e55bace6357a23d5ab0a212b33305656beddf5b5a",
  "args": [
    "0xf5a47EffA2406dfC0786A9D9b64C261bE49764E1",
    "0x21AAE09E6fF58dbE93a01086151F7cDb281382a1",
    "0xab3B4a9ebfAe2Ffd6482B0FfEEbA7E3952c8e58E",
    "0xA67444Eea8aBe437dAb0a8fdDC2C3d64478e5279",
    0
  ],
  "numDeployments": 1,
  "solcInputHash": "45f986e69ef0b1c3adec9bb2994aea31",
  "bytecode": "0x60806040526005805460ff60a01b1916600160a01b17905534801561002357600080fd5b506040516126a43803806126a4833981810160405260a081101561004657600080fd5b5080516020820151604083015160608401516080909401516001600081905580546001600160a01b031990811633908117821617909155600280546001600160a01b0396871690831617905560038054948616948216949094179093556004805492851692841692909217909155600580549390941692909116919091179091556008556125cb806100d96000396000f3fe608060405234801561001057600080fd5b506004361061016e5760003560e01c80636a86da19116100ce578063a1acd3d511610087578063a1acd3d5146103be578063ab341df114610409578063b172bb0c14610430578063cfad57a214610438578063e245b5af1461045e578063ed0d1c041461047d578063fbfa77cf146104d55761016e565b80636a86da19146102c757806371d597ad146102e65780638b770e111461032a5780639116c4ae14610350578063966be075146103735780639cb7de4b146103905761016e565b8063440d828a1161012b578063440d828a1461022557806346ea87af1461024b5780634a56443f146102715780634f5f6b5e146102795780635ecbe8d41461029857806364e6617f146102b7578063657bc5d0146102bf5761016e565b8063044c097514610173578063070eacee1461019757806312d43a51146101b357806317eb2a15146101bb578063196b68cb14610215578063352693151461021d575b600080fd5b61017b6104dd565b604080516001600160a01b039092168252519081900360200190f35b61019f6104ec565b604080519115158252519081900360200190f35b61017b6104fc565b610203600480360360c08110156101d157600080fd5b506001600160a01b03813581169160208101358216916040820135169060608101359060808101359060a0013561050b565b60408051918252519081900360200190f35b610203610590565b610203610596565b6102036004803603602081101561023b57600080fd5b50356001600160a01b031661059c565b61019f6004803603602081101561026157600080fd5b50356001600160a01b03166108bf565b61017b6108d4565b6102966004803603602081101561028f57600080fd5b50356108e3565b005b610203600480360360208110156102ae57600080fd5b503515156109f8565b610203610a32565b61017b610a38565b610296600480360360208110156102dd57600080fd5b50351515610a47565b610203600480360360a08110156102fc57600080fd5b506001600160a01b038135811691602081013582169160408201359160608101359160809091013516610ab2565b6102036004803603602081101561034057600080fd5b50356001600160a01b0316610b35565b6102966004803603604081101561036657600080fd5b5080359060200135610b47565b6102966004803603602081101561038957600080fd5b5035610b9f565b610296600480360360408110156103a657600080fd5b506001600160a01b0381351690602001351515610c5e565b6103f0600480360360608110156103d457600080fd5b506001600160a01b038135169060208101359060400135610cd6565b6040805192835290151560208301528051918290030190f35b6102036004803603604081101561041f57600080fd5b508035151590602001351515610d2a565b61020361151d565b6102966004803603602081101561044e57600080fd5b50356001600160a01b0316611523565b6102036004803603602081101561047457600080fd5b50351515611592565b61048561164c565b60408051602080825283518183015283519192839290830191858101910280838360005b838110156104c15781810151838201526020016104a9565b505050509050019250505060405180910390f35b61017b6116bd565b6004546001600160a01b031681565b600554600160a01b900460ff1681565b6001546001600160a01b031681565b600060026000541415610565576040805162461bcd60e51b815260206004820152601f60248201527f5265656e7472616e637947756172643a207265656e7472616e742063616c6c00604482015290519081900360640190fd5b60026000556105726116cc565b61058087878787878761175f565b6001600055979650505050505050565b60095481565b60085481565b6005546000906001600160a01b031680158061061a5750806001600160a01b0316639a11178f6040518163ffffffff1660e01b815260040160206040518083038186803b1580156105ec57600080fd5b505afa158015610600573d6000803e3d6000fd5b505050506040513d602081101561061657600080fd5b5051155b156106a15760025460408051636274980360e01b81526001600160a01b038681166004830152915191909216916362749803916024808301926020929190829003018186803b15801561066c57600080fd5b505afa158015610680573d6000803e3d6000fd5b505050506040513d602081101561069657600080fd5b505191506108ba9050565b6006548061072c5760025460408051636274980360e01b81526001600160a01b038781166004830152915191909216916362749803916024808301926020929190829003018186803b1580156106f657600080fd5b505afa15801561070a573d6000803e3d6000fd5b505050506040513d602081101561072057600080fd5b505192506108ba915050565b61271081141561078357816001600160a01b03166362749803856040518263ffffffff1660e01b815260040180826001600160a01b0316815260200191505060206040518083038186803b1580156106f657600080fd5b60025460408051636274980360e01b81526001600160a01b03878116600483015291516000939290921691636274980391602480820192602092909190829003018186803b1580156107d457600080fd5b505afa1580156107e8573d6000803e3d6000fd5b505050506040513d60208110156107fe57600080fd5b505160408051636274980360e01b81526001600160a01b038881166004830152915192935060009291861691636274980391602480820192602092909190829003018186803b15801561085057600080fd5b505afa158015610864573d6000803e3d6000fd5b505050506040513d602081101561087a57600080fd5b505190506108b36127106108ad6108918487611b10565b6108a76108a061271089611b69565b8790611b10565b90611bab565b90611c05565b9450505050505b919050565b60076020526000908152604090205460ff1681565b6003546001600160a01b031681565b6001546001600160a01b03163314610930576040805162461bcd60e51b81526020600482015260156024820152600080516020612445833981519152604482015290519081900360640190fd5b60408051808201909152601c81527f5a6b646c704d616e616765723a20696e76616c6964207765696768740000000060208201526127108211156109f25760405162461bcd60e51b81526004018080602001828103825283818151815260200191508051906020019080838360005b838110156109b757818101518382015260200161099f565b50505050905090810190601f1680156109e45780820380516001836020036101000a031916815260200191505b509250505060405180910390fd5b50600655565b600080610a06836001610d2a565b9050610a2b6c0c9f2c9cd04674edea400000006108ad83670de0b6b3a7640000611b10565b9392505050565b60065481565b6005546001600160a01b031681565b6001546001600160a01b03163314610a94576040805162461bcd60e51b81526020600482015260156024820152600080516020612445833981519152604482015290519081900360640190fd5b60058054911515600160a01b0260ff60a01b19909216919091179055565b600060026000541415610b0c576040805162461bcd60e51b815260206004820152601f60248201527f5265656e7472616e637947756172643a207265656e7472616e742063616c6c00604482015290519081900360640190fd5b6002600055610b196116cc565b610b268686868686611c47565b60016000559695505050505050565b600b6020526000908152604090205481565b6001546001600160a01b03163314610b94576040805162461bcd60e51b81526020600482015260156024820152600080516020612445833981519152604482015290519081900360640190fd5b600991909155600a55565b6001546001600160a01b03163314610bec576040805162461bcd60e51b81526020600482015260156024820152600080516020612445833981519152604482015290519081900360640190fd5b6202a30081111560405180606001604052806027815260200161256f6027913990610c585760405162461bcd60e51b81526020600482018181528351602484015283519092839260449091019190850190808383600083156109b757818101518382015260200161099f565b50600855565b6001546001600160a01b03163314610cab576040805162461bcd60e51b81526020600482015260156024820152600080516020612445833981519152604482015290519081900360640190fd5b6001600160a01b03919091166000908152600760205260409020805460ff1916911515919091179055565b6000806000610ce48661059c565b90506000858211610cfe57610cf98683611b69565b610d08565b610d088287611b69565b90506000610d1a836108ad8885611b10565b9450505084109050935093915050565b600080600260009054906101000a90046001600160a01b03166001600160a01b0316630842b0766040518163ffffffff1660e01b815260040160206040518083038186803b158015610d7b57600080fd5b505afa158015610d8f573d6000803e3d6000fd5b505050506040513d6020811015610da557600080fd5b505160095460025460408051633a0df78d60e11b8152905193945091926000926001600160a01b03909216918391839163741bef1a916004808301926020929190829003018186803b158015610dfa57600080fd5b505afa158015610e0e573d6000803e3d6000fd5b505050506040513d6020811015610e2457600080fd5b5051905060005b858110156114d45760025460408051630e468baf60e41b81526004810184905290516000926001600160a01b03169163e468baf0916024808301926020929190829003018186803b158015610e7f57600080fd5b505afa158015610e93573d6000803e3d6000fd5b505050506040513d6020811015610ea957600080fd5b505160025460408051630daf9c2160e41b81526001600160a01b038085166004830152915193945091169163daf9c21091602480820192602092909190829003018186803b158015610efa57600080fd5b505afa158015610f0e573d6000803e3d6000fd5b505050506040513d6020811015610f2457600080fd5b5051610f3057506114cc565b6002546040805163a866991560e01b81526001600160a01b0384811660048301529151600093929092169163a866991591602480820192602092909190829003018186803b158015610f8157600080fd5b505afa158015610f95573d6000803e3d6000fd5b505050506040513d6020811015610fab57600080fd5b50518061102d5750600254604080516342b60b0360e01b81526001600160a01b038581166004830152915191909216916342b60b03916024808301926020929190829003018186803b15801561100057600080fd5b505afa158015611014573d6000803e3d6000fd5b505050506040513d602081101561102a57600080fd5b50515b156110be5760408051635ae6916360e01b81526001600160a01b0384811660048301528d1515602483015260006044830152915191861691635ae6916391606480820192602092909190829003018186803b15801561108b57600080fd5b505afa15801561109f573d6000803e3d6000fd5b505050506040513d60208110156110b557600080fd5b50519050611147565b60408051635ae6916360e01b81526001600160a01b0384811660048301528d151560248301528c15156044830152915191861691635ae6916391606480820192602092909190829003018186803b15801561111857600080fd5b505afa15801561112c573d6000803e3d6000fd5b505050506040513d602081101561114257600080fd5b505190505b6000856001600160a01b03166352f55eed846040518263ffffffff1660e01b815260040180826001600160a01b0316815260200191505060206040518083038186803b15801561119657600080fd5b505afa1580156111aa573d6000803e3d6000fd5b505050506040513d60208110156111c057600080fd5b5051604080516323b95ceb60e21b81526001600160a01b038681166004830152915192935060009291891691638ee573ac91602480820192602092909190829003018186803b15801561121257600080fd5b505afa158015611226573d6000803e3d6000fd5b505050506040513d602081101561123c57600080fd5b5051604080516342b60b0360e01b81526001600160a01b0387811660048301529151929350908916916342b60b0391602480820192602092909190829003018186803b15801561128b57600080fd5b505afa15801561129f573d6000803e3d6000fd5b505050506040513d60208110156112b557600080fd5b5051156112df576112d86112d1600a83900a6108ad8587611b10565b8a90611bab565b98506114c7565b6000876001600160a01b0316638a78daa8866040518263ffffffff1660e01b815260040180826001600160a01b0316815260200191505060206040518083038186803b15801561132e57600080fd5b505afa158015611342573d6000803e3d6000fd5b505050506040513d602081101561135857600080fd5b50519050801561139a57600080611370878785610cd6565b915091508061138a576113838c83611bab565b9b50611397565b6113948b83611bab565b9a505b50505b61141d886001600160a01b031663f07456ce876040518263ffffffff1660e01b815260040180826001600160a01b0316815260200191505060206040518083038186803b1580156113ea57600080fd5b505afa1580156113fe573d6000803e3d6000fd5b505050506040513d602081101561141457600080fd5b50518b90611bab565b99506000886001600160a01b031663c3c7b9e9876040518263ffffffff1660e01b815260040180826001600160a01b0316815260200191505060206040518083038186803b15801561146e57600080fd5b505afa158015611482573d6000803e3d6000fd5b505050506040513d602081101561149857600080fd5b505190506114c26114bb600a85900a6108ad886114b58987611b69565b90611b10565b8c90611bab565b9a5050505b505050505b600101610e2b565b508383116114eb576114e68484611b69565b6114ee565b60005b935083600a541161150c57600a54611507908590611b69565b61150f565b60005b955050505050505b92915050565b600a5481565b6001546001600160a01b03163314611570576040805162461bcd60e51b81526020600482015260156024820152600080516020612445833981519152604482015290519081900360640190fd5b600180546001600160a01b0319166001600160a01b0392909216919091179055565b60048054604080516318160ddd60e01b8152905160009384936001600160a01b0316926318160ddd9281830192602092829003018186803b1580156115d657600080fd5b505afa1580156115ea573d6000803e3d6000fd5b505050506040513d602081101561160057600080fd5b505190508061161f576c0c9f2c9cd04674edea400000009150506108ba565b600061162c846000610d2a565b9050611644826108ad83670de0b6b3a7640000611b10565b949350505050565b60408051600280825260608083018452928392919060208301908036833701905050905061167c60016000610d2a565b8160008151811061168957fe5b6020026020010181815250506116a0600080610d2a565b816001815181106116ad57fe5b6020908102919091010152905090565b6002546001600160a01b031681565b3360009081526007602090815260409182902054825180840190935260178352762d35b2363826b0b730b3b2b91d103337b93134b23232b760491b9183019190915260ff1661175c5760405162461bcd60e51b81526020600482018181528351602484015283519092839260449091019190850190808383600083156109b757818101518382015260200161099f565b50565b60008084116040518060400160405280601d81526020017f5a6b646c704d616e616765723a20696e76616c6964205f616d6f756e74000000815250906117e65760405162461bcd60e51b81526020600482018181528351602484015283519092839260449091019190850190808383600083156109b757818101518382015260200161099f565b5060006117f360016109f8565b90506000600460009054906101000a90046001600160a01b03166001600160a01b03166318160ddd6040518163ffffffff1660e01b815260040160206040518083038186803b15801561184557600080fd5b505afa158015611859573d6000803e3d6000fd5b505050506040513d602081101561186f57600080fd5b5051600254909150611890906001600160a01b03898116918c91168961213d565b600254604080516354d33cf960e01b81526001600160a01b038a81166004830152306024830152915160009392909216916354d33cf99160448082019260209290919082900301818787803b1580156118e857600080fd5b505af11580156118fc573d6000803e3d6000fd5b505050506040513d602081101561191257600080fd5b50516040805160608101909152602780825291925087831015916124fc6020830139906119805760405162461bcd60e51b81526020600482018181528351602484015283519092839260449091019190850190808383600083156109b757818101518382015260200161099f565b50600083158061198e575082155b6119a5576119a0846108ad8486611b10565b6119a7565b815b9050858110156040518060600160405280602781526020016124656027913990611a125760405162461bcd60e51b81526020600482018181528351602484015283519092839260449091019190850190808383600083156109b757818101518382015260200161099f565b5060048054604080516340c10f1960e01b81526001600160a01b038e81169482019490945260248101859052905192909116916340c10f199160448082019260009290919082900301818387803b158015611a6c57600080fd5b505af1158015611a80573d6000803e3d6000fd5b5050506001600160a01b03808c166000818152600b60209081526040918290204290558151928352928d16928201929092528082018b9052606081018790526080810186905260a0810185905260c0810184905290517f38dc38b96482be64113daffd8d464ebda93e856b70ccfc605e69ccf892ab981e92509081900360e00190a19a9950505050505050505050565b600082611b1f57506000611517565b82820282848281611b2c57fe5b0414610a2b5760405162461bcd60e51b81526004018080602001828103825260218152602001806124db6021913960400191505060405180910390fd5b6000610a2b83836040518060400160405280601e81526020017f536166654d6174683a207375627472616374696f6e206f766572666c6f77000081525061219d565b600082820183811015610a2b576040805162461bcd60e51b815260206004820152601b60248201527f536166654d6174683a206164646974696f6e206f766572666c6f770000000000604482015290519081900360640190fd5b6000610a2b83836040518060400160405280601a81526020017f536166654d6174683a206469766973696f6e206279207a65726f0000000000008152506121f7565b600080841160405180606001604052806022815260200161254d6022913990611cb15760405162461bcd60e51b81526020600482018181528351602484015283519092839260449091019190850190808383600083156109b757818101518382015260200161099f565b506008546001600160a01b0387166000908152600b60205260409020544291611cda9190611bab565b11156040518060600160405280602e815260200161248c602e913990611d415760405162461bcd60e51b81526020600482018181528351602484015283519092839260449091019190850190808383600083156109b757818101518382015260200161099f565b506000611d4e60006109f8565b90506000600460009054906101000a90046001600160a01b03166001600160a01b03166318160ddd6040518163ffffffff1660e01b815260040160206040518083038186803b158015611da057600080fd5b505afa158015611db4573d6000803e3d6000fd5b505050506040513d6020811015611dca57600080fd5b505190506000611dde826108ad8986611b10565b600354604080516370a0823160e01b815230600482015290519293506000926001600160a01b03909216916370a0823191602480820192602092909190829003018186803b158015611e2f57600080fd5b505afa158015611e43573d6000803e3d6000fd5b505050506040513d6020811015611e5957600080fd5b5051905080821115611ee0576003546001600160a01b03166340c10f1930611e818585611b69565b6040518363ffffffff1660e01b815260040180836001600160a01b0316815260200182815260200192505050600060405180830381600087803b158015611ec757600080fd5b505af1158015611edb573d6000803e3d6000fd5b505050505b6004805460408051632770a7eb60e21b81526001600160a01b038e811694820194909452602481018c905290519290911691639dc29fac9160448082019260009290919082900301818387803b158015611f3957600080fd5b505af1158015611f4d573d6000803e3d6000fd5b50506003546002546040805163a9059cbb60e01b81526001600160a01b03928316600482015260248101889052905191909216935063a9059cbb925060448083019260209291908290030181600087803b158015611faa57600080fd5b505af1158015611fbe573d6000803e3d6000fd5b505050506040513d6020811015611fd457600080fd5b5050600254604080516302718b5760e21b81526001600160a01b038c811660048301528981166024830152915160009392909216916309c62d5c9160448082019260209290919082900301818787803b15801561203057600080fd5b505af1158015612044573d6000803e3d6000fd5b505050506040513d602081101561205a57600080fd5b50516040805160608101909152602180825291925089831015916124ba6020830139906120c85760405162461bcd60e51b81526020600482018181528351602484015283519092839260449091019190850190808383600083156109b757818101518382015260200161099f565b50604080516001600160a01b03808e1682528c1660208201528082018b9052606081018790526080810186905260a0810185905260c0810183905290517f87b9679bb9a4944bafa98c267e7cd4a00ab29fed48afdefae25f0fca5da279409181900360e00190a19a9950505050505050505050565b604080516001600160a01b0380861660248301528416604482015260648082018490528251808303909101815260849091019091526020810180516001600160e01b03166323b872dd60e01b17905261219790859061225c565b50505050565b600081848411156121ef5760405162461bcd60e51b81526020600482018181528351602484015283519092839260449091019190850190808383600083156109b757818101518382015260200161099f565b505050900390565b600081836122465760405162461bcd60e51b81526020600482018181528351602484015283519092839260449091019190850190808383600083156109b757818101518382015260200161099f565b50600083858161225257fe5b0495945050505050565b60606122b1826040518060400160405280602081526020017f5361666545524332303a206c6f772d6c6576656c2063616c6c206661696c6564815250856001600160a01b03166123129092919063ffffffff16565b80519091501561230d578080602001905160208110156122d057600080fd5b505161230d5760405162461bcd60e51b815260040180806020018281038252602a815260200180612523602a913960400191505060405180910390fd5b505050565b606061164484846000858560006060866001600160a01b031685876040518082805190602001908083835b6020831061235c5780518252601f19909201916020918201910161233d565b6001836020036101000a03801982511681845116808217855250505050505090500191505060006040518083038185875af1925050503d80600081146123be576040519150601f19603f3d011682016040523d82523d6000602084013e6123c3565b606091505b50915091506123d38282866123de565b979650505050505050565b606083156123ed575081610a2b565b8251156123fd5782518084602001fd5b60405162461bcd60e51b81526020600482018181528451602484015284518593919283926044019190850190808383600083156109b757818101518382015260200161099f56fe476f7665726e61626c653a20666f7262696464656e00000000000000000000005a6b646c704d616e616765723a20696e73756666696369656e74205a4b444c50206f75747075745a6b646c704d616e616765723a20636f6f6c646f776e206475726174696f6e206e6f7420796574207061737365645a6b646c704d616e616765723a20696e73756666696369656e74206f7574707574536166654d6174683a206d756c7469706c69636174696f6e206f766572666c6f775a6b646c704d616e616765723a20696e73756666696369656e74205a4b555344206f75747075745361666545524332303a204552433230206f7065726174696f6e20646964206e6f7420737563636565645a6b646c704d616e616765723a20696e76616c6964205f5a4b444c50416d6f756e745a6b646c704d616e616765723a20696e76616c6964205f636f6f6c646f776e4475726174696f6ea2646970667358221220d63c4ba9730a8ffeceb3069f287015a8be7870af4db9537b9c32ca3ad461596664736f6c634300060c0033",
  "devdoc": {
    "kind": "dev",
    "methods": {},
    "version": 1
  },
  "userdoc": {
    "kind": "user",
    "methods": {},
    "version": 1
  },
  "storageLayout": {
    "storage": [
      {
        "astId": 15478,
        "contract": "contracts/core/ZkdlpManager.sol:ZkdlpManager",
        "label": "_status",
        "offset": 0,
        "slot": "0",
        "type": "t_uint256"
      },
      {
        "astId": 3,
        "contract": "contracts/core/ZkdlpManager.sol:ZkdlpManager",
        "label": "gov",
        "offset": 0,
        "slot": "1",
        "type": "t_address"
      },
      {
        "astId": 13006,
        "contract": "contracts/core/ZkdlpManager.sol:ZkdlpManager",
        "label": "vault",
        "offset": 0,
        "slot": "2",
        "type": "t_contract(IVault)7577"
      },
      {
        "astId": 13009,
        "contract": "contracts/core/ZkdlpManager.sol:ZkdlpManager",
        "label": "zkUsd",
        "offset": 0,
        "slot": "3",
        "type": "t_address"
      },
      {
        "astId": 13011,
        "contract": "contracts/core/ZkdlpManager.sol:ZkdlpManager",
        "label": "zkdlp",
        "offset": 0,
        "slot": "4",
        "type": "t_address"
      },
      {
        "astId": 13013,
        "contract": "contracts/core/ZkdlpManager.sol:ZkdlpManager",
        "label": "shortsTracker",
        "offset": 0,
        "slot": "5",
        "type": "t_contract(IShortsTracker)6902"
      },
      {
        "astId": 13016,
        "contract": "contracts/core/ZkdlpManager.sol:ZkdlpManager",
        "label": "inPrivateMode",
        "offset": 20,
        "slot": "5",
        "type": "t_bool"
      },
      {
        "astId": 13018,
        "contract": "contracts/core/ZkdlpManager.sol:ZkdlpManager",
        "label": "shortsTrackerAveragePriceWeight",
        "offset": 0,
        "slot": "6",
        "type": "t_uint256"
      },
      {
        "astId": 13022,
        "contract": "contracts/core/ZkdlpManager.sol:ZkdlpManager",
        "label": "isHandler",
        "offset": 0,
        "slot": "7",
        "type": "t_mapping(t_address,t_bool)"
      },
      {
        "astId": 13025,
        "contract": "contracts/core/ZkdlpManager.sol:ZkdlpManager",
        "label": "cooldownDuration",
        "offset": 0,
        "slot": "8",
        "type": "t_uint256"
      },
      {
        "astId": 13027,
        "contract": "contracts/core/ZkdlpManager.sol:ZkdlpManager",
        "label": "aumAddition",
        "offset": 0,
        "slot": "9",
        "type": "t_uint256"
      },
      {
        "astId": 13029,
        "contract": "contracts/core/ZkdlpManager.sol:ZkdlpManager",
        "label": "aumDeduction",
        "offset": 0,
        "slot": "10",
        "type": "t_uint256"
      },
      {
        "astId": 13040,
        "contract": "contracts/core/ZkdlpManager.sol:ZkdlpManager",
        "label": "lastAddedAt",
        "offset": 0,
        "slot": "11",
        "type": "t_mapping(t_address,t_uint256)"
      }
    ],
    "types": {
      "t_address": {
        "encoding": "inplace",
        "label": "address",
        "numberOfBytes": "20"
      },
      "t_bool": {
        "encoding": "inplace",
        "label": "bool",
        "numberOfBytes": "1"
      },
      "t_contract(IShortsTracker)6902": {
        "encoding": "inplace",
        "label": "contract IShortsTracker",
        "numberOfBytes": "20"
      },
      "t_contract(IVault)7577": {
        "encoding": "inplace",
        "label": "contract IVault",
        "numberOfBytes": "20"
      },
      "t_mapping(t_address,t_bool)": {
        "encoding": "mapping",
        "key": "t_address",
        "label": "mapping(address => bool)",
        "numberOfBytes": "32",
        "value": "t_bool"
      },
      "t_mapping(t_address,t_uint256)": {
        "encoding": "mapping",
        "key": "t_address",
        "label": "mapping(address => uint256)",
        "numberOfBytes": "32",
        "value": "t_uint256"
      },
      "t_uint256": {
        "encoding": "inplace",
        "label": "uint256",
        "numberOfBytes": "32"
      }
    }
  }
}